{"abi":[{"type":"constructor","inputs":[{"name":"_admin","type":"address","internalType":"address"}],"stateMutability":"nonpayable"},{"type":"function","name":"DEFAULT_ADMIN_ROLE","inputs":[],"outputs":[{"name":"","type":"bytes32","internalType":"bytes32"}],"stateMutability":"view"},{"type":"function","name":"JURISDICTION_MANAGER_ROLE","inputs":[],"outputs":[{"name":"","type":"bytes32","internalType":"bytes32"}],"stateMutability":"view"},{"type":"function","name":"KYB_VERIFIER_ROLE","inputs":[],"outputs":[{"name":"","type":"bytes32","internalType":"bytes32"}],"stateMutability":"view"},{"type":"function","name":"addProof","inputs":[{"name":"requestId","type":"uint256","internalType":"uint256"},{"name":"proofHash","type":"bytes32","internalType":"bytes32"}],"outputs":[],"stateMutability":"nonpayable"},{"type":"function","name":"addSupportedJurisdiction","inputs":[{"name":"jurisdiction","type":"bytes2","internalType":"bytes2"}],"outputs":[],"stateMutability":"nonpayable"},{"type":"function","name":"approveKYB","inputs":[{"name":"requestId","type":"uint256","internalType":"uint256"},{"name":"level","type":"uint8","internalType":"enum KYBRegistry.VerificationLevel"},{"name":"flags","type":"tuple","internalType":"struct KYBRegistry.ProofFlags","components":[{"name":"businessRegistration","type":"bool","internalType":"bool"},{"name":"revenueThreshold","type":"bool","internalType":"bool"},{"name":"operatingHistory","type":"bool","internalType":"bool"},{"name":"bankAccountVerified","type":"bool","internalType":"bool"},{"name":"noLiens","type":"bool","internalType":"bool"},{"name":"goodStanding","type":"bool","internalType":"bool"}]},{"name":"validityDays","type":"uint256","internalType":"uint256"}],"outputs":[],"stateMutability":"nonpayable"},{"type":"function","name":"approveRenewal","inputs":[{"name":"requestId","type":"uint256","internalType":"uint256"},{"name":"validityDays","type":"uint256","internalType":"uint256"}],"outputs":[],"stateMutability":"nonpayable"},{"type":"function","name":"cancelRequest","inputs":[{"name":"requestId","type":"uint256","internalType":"uint256"}],"outputs":[],"stateMutability":"nonpayable"},{"type":"function","name":"defaultValidityPeriod","inputs":[],"outputs":[{"name":"","type":"uint256","internalType":"uint256"}],"stateMutability":"view"},{"type":"function","name":"getBusinessesByJurisdiction","inputs":[{"name":"jurisdiction","type":"bytes2","internalType":"bytes2"}],"outputs":[{"name":"","type":"address[]","internalType":"address[]"}],"stateMutability":"view"},{"type":"function","name":"getDaysUntilExpiry","inputs":[{"name":"businessWallet","type":"address","internalType":"address"}],"outputs":[{"name":"","type":"int256","internalType":"int256"}],"stateMutability":"view"},{"type":"function","name":"getExpiringVerifications","inputs":[{"name":"withinDays","type":"uint256","internalType":"uint256"}],"outputs":[{"name":"","type":"address[]","internalType":"address[]"}],"stateMutability":"view"},{"type":"function","name":"getKYBByHash","inputs":[{"name":"businessHash","type":"bytes32","internalType":"bytes32"}],"outputs":[{"name":"","type":"tuple","internalType":"struct KYBRegistry.KYBData","components":[{"name":"businessWallet","type":"address","internalType":"address"},{"name":"businessHash","type":"bytes32","internalType":"bytes32"},{"name":"zkProofHashes","type":"bytes32[]","internalType":"bytes32[]"},{"name":"level","type":"uint8","internalType":"enum KYBRegistry.VerificationLevel"},{"name":"jurisdiction","type":"bytes2","internalType":"bytes2"},{"name":"businessType","type":"string","internalType":"string"},{"name":"verifiedAt","type":"uint256","internalType":"uint256"},{"name":"expiresAt","type":"uint256","internalType":"uint256"},{"name":"lastReviewAt","type":"uint256","internalType":"uint256"},{"name":"status","type":"uint8","internalType":"enum KYBRegistry.KYBStatus"},{"name":"proofFlags","type":"tuple","internalType":"struct KYBRegistry.ProofFlags","components":[{"name":"businessRegistration","type":"bool","internalType":"bool"},{"name":"revenueThreshold","type":"bool","internalType":"bool"},{"name":"operatingHistory","type":"bool","internalType":"bool"},{"name":"bankAccountVerified","type":"bool","internalType":"bool"},{"name":"noLiens","type":"bool","internalType":"bool"},{"name":"goodStanding","type":"bool","internalType":"bool"}]}]}],"stateMutability":"view"},{"type":"function","name":"getKYBData","inputs":[{"name":"businessWallet","type":"address","internalType":"address"}],"outputs":[{"name":"","type":"tuple","internalType":"struct KYBRegistry.KYBData","components":[{"name":"businessWallet","type":"address","internalType":"address"},{"name":"businessHash","type":"bytes32","internalType":"bytes32"},{"name":"zkProofHashes","type":"bytes32[]","internalType":"bytes32[]"},{"name":"level","type":"uint8","internalType":"enum KYBRegistry.VerificationLevel"},{"name":"jurisdiction","type":"bytes2","internalType":"bytes2"},{"name":"businessType","type":"string","internalType":"string"},{"name":"verifiedAt","type":"uint256","internalType":"uint256"},{"name":"expiresAt","type":"uint256","internalType":"uint256"},{"name":"lastReviewAt","type":"uint256","internalType":"uint256"},{"name":"status","type":"uint8","internalType":"enum KYBRegistry.KYBStatus"},{"name":"proofFlags","type":"tuple","internalType":"struct KYBRegistry.ProofFlags","components":[{"name":"businessRegistration","type":"bool","internalType":"bool"},{"name":"revenueThreshold","type":"bool","internalType":"bool"},{"name":"operatingHistory","type":"bool","internalType":"bool"},{"name":"bankAccountVerified","type":"bool","internalType":"bool"},{"name":"noLiens","type":"bool","internalType":"bool"},{"name":"goodStanding","type":"bool","internalType":"bool"}]}]}],"stateMutability":"view"},{"type":"function","name":"getKYBExpiry","inputs":[{"name":"businessWallet","type":"address","internalType":"address"}],"outputs":[{"name":"","type":"uint256","internalType":"uint256"}],"stateMutability":"view"},{"type":"function","name":"getPendingRequests","inputs":[],"outputs":[{"name":"","type":"uint256[]","internalType":"uint256[]"}],"stateMutability":"view"},{"type":"function","name":"getProofFlags","inputs":[{"name":"businessWallet","type":"address","internalType":"address"}],"outputs":[{"name":"","type":"tuple","internalType":"struct KYBRegistry.ProofFlags","components":[{"name":"businessRegistration","type":"bool","internalType":"bool"},{"name":"revenueThreshold","type":"bool","internalType":"bool"},{"name":"operatingHistory","type":"bool","internalType":"bool"},{"name":"bankAccountVerified","type":"bool","internalType":"bool"},{"name":"noLiens","type":"bool","internalType":"bool"},{"name":"goodStanding","type":"bool","internalType":"bool"}]}],"stateMutability":"view"},{"type":"function","name":"getRoleAdmin","inputs":[{"name":"role","type":"bytes32","internalType":"bytes32"}],"outputs":[{"name":"","type":"bytes32","internalType":"bytes32"}],"stateMutability":"view"},{"type":"function","name":"getVerificationLevel","inputs":[{"name":"businessWallet","type":"address","internalType":"address"}],"outputs":[{"name":"","type":"uint8","internalType":"enum KYBRegistry.VerificationLevel"}],"stateMutability":"view"},{"type":"function","name":"getVerificationRequest","inputs":[{"name":"requestId","type":"uint256","internalType":"uint256"}],"outputs":[{"name":"","type":"tuple","internalType":"struct KYBRegistry.VerificationRequest","components":[{"name":"requestId","type":"uint256","internalType":"uint256"},{"name":"businessWallet","type":"address","internalType":"address"},{"name":"businessHash","type":"bytes32","internalType":"bytes32"},{"name":"submittedProofs","type":"bytes32[]","internalType":"bytes32[]"},{"name":"requestedAt","type":"uint256","internalType":"uint256"},{"name":"requestStatus","type":"uint8","internalType":"enum KYBRegistry.RequestStatus"},{"name":"rejectionReason","type":"string","internalType":"string"}]}],"stateMutability":"view"},{"type":"function","name":"grantRole","inputs":[{"name":"role","type":"bytes32","internalType":"bytes32"},{"name":"account","type":"address","internalType":"address"}],"outputs":[],"stateMutability":"nonpayable"},{"type":"function","name":"hasRole","inputs":[{"name":"role","type":"bytes32","internalType":"bytes32"},{"name":"account","type":"address","internalType":"address"}],"outputs":[{"name":"","type":"bool","internalType":"bool"}],"stateMutability":"view"},{"type":"function","name":"isJurisdictionSupported","inputs":[{"name":"jurisdiction","type":"bytes2","internalType":"bytes2"}],"outputs":[{"name":"","type":"bool","internalType":"bool"}],"stateMutability":"view"},{"type":"function","name":"isKYBValid","inputs":[{"name":"businessWallet","type":"address","internalType":"address"}],"outputs":[{"name":"","type":"bool","internalType":"bool"}],"stateMutability":"view"},{"type":"function","name":"isProofVerified","inputs":[{"name":"businessWallet","type":"address","internalType":"address"},{"name":"proofType","type":"string","internalType":"string"}],"outputs":[{"name":"","type":"bool","internalType":"bool"}],"stateMutability":"view"},{"type":"function","name":"reinstateKYB","inputs":[{"name":"businessWallet","type":"address","internalType":"address"}],"outputs":[],"stateMutability":"nonpayable"},{"type":"function","name":"rejectKYB","inputs":[{"name":"requestId","type":"uint256","internalType":"uint256"},{"name":"reason","type":"string","internalType":"string"}],"outputs":[],"stateMutability":"nonpayable"},{"type":"function","name":"removeSupportedJurisdiction","inputs":[{"name":"jurisdiction","type":"bytes2","internalType":"bytes2"}],"outputs":[],"stateMutability":"nonpayable"},{"type":"function","name":"renounceRole","inputs":[{"name":"role","type":"bytes32","internalType":"bytes32"},{"name":"callerConfirmation","type":"address","internalType":"address"}],"outputs":[],"stateMutability":"nonpayable"},{"type":"function","name":"requestRenewal","inputs":[{"name":"newProofHashes","type":"bytes32[]","internalType":"bytes32[]"}],"outputs":[{"name":"requestId","type":"uint256","internalType":"uint256"}],"stateMutability":"nonpayable"},{"type":"function","name":"revokeKYB","inputs":[{"name":"businessWallet","type":"address","internalType":"address"},{"name":"reason","type":"string","internalType":"string"}],"outputs":[],"stateMutability":"nonpayable"},{"type":"function","name":"revokeRole","inputs":[{"name":"role","type":"bytes32","internalType":"bytes32"},{"name":"account","type":"address","internalType":"address"}],"outputs":[],"stateMutability":"nonpayable"},{"type":"function","name":"setDefaultValidityPeriod","inputs":[{"name":"days_","type":"uint256","internalType":"uint256"}],"outputs":[],"stateMutability":"nonpayable"},{"type":"function","name":"setMinimumProofsRequired","inputs":[{"name":"level","type":"uint8","internalType":"enum KYBRegistry.VerificationLevel"},{"name":"count","type":"uint256","internalType":"uint256"}],"outputs":[],"stateMutability":"nonpayable"},{"type":"function","name":"submitKYB","inputs":[{"name":"businessHash","type":"bytes32","internalType":"bytes32"},{"name":"zkProofHashes","type":"bytes32[]","internalType":"bytes32[]"},{"name":"jurisdiction","type":"bytes2","internalType":"bytes2"},{"name":"businessType","type":"string","internalType":"string"}],"outputs":[{"name":"requestId","type":"uint256","internalType":"uint256"}],"stateMutability":"nonpayable"},{"type":"function","name":"supportsInterface","inputs":[{"name":"interfaceId","type":"bytes4","internalType":"bytes4"}],"outputs":[{"name":"","type":"bool","internalType":"bool"}],"stateMutability":"view"},{"type":"function","name":"suspendKYB","inputs":[{"name":"businessWallet","type":"address","internalType":"address"},{"name":"reason","type":"string","internalType":"string"}],"outputs":[],"stateMutability":"nonpayable"},{"type":"function","name":"upgradeVerificationLevel","inputs":[{"name":"businessWallet","type":"address","internalType":"address"},{"name":"newLevel","type":"uint8","internalType":"enum KYBRegistry.VerificationLevel"},{"name":"newFlags","type":"tuple","internalType":"struct KYBRegistry.ProofFlags","components":[{"name":"businessRegistration","type":"bool","internalType":"bool"},{"name":"revenueThreshold","type":"bool","internalType":"bool"},{"name":"operatingHistory","type":"bool","internalType":"bool"},{"name":"bankAccountVerified","type":"bool","internalType":"bool"},{"name":"noLiens","type":"bool","internalType":"bool"},{"name":"goodStanding","type":"bool","internalType":"bool"}]}],"outputs":[],"stateMutability":"nonpayable"},{"type":"event","name":"JurisdictionAdded","inputs":[{"name":"jurisdiction","type":"bytes2","indexed":false,"internalType":"bytes2"}],"anonymous":false},{"type":"event","name":"JurisdictionRemoved","inputs":[{"name":"jurisdiction","type":"bytes2","indexed":false,"internalType":"bytes2"}],"anonymous":false},{"type":"event","name":"KYBApproved","inputs":[{"name":"businessWallet","type":"address","indexed":true,"internalType":"address"},{"name":"level","type":"uint8","indexed":false,"internalType":"enum KYBRegistry.VerificationLevel"},{"name":"expiresAt","type":"uint256","indexed":false,"internalType":"uint256"}],"anonymous":false},{"type":"event","name":"KYBReinstated","inputs":[{"name":"businessWallet","type":"address","indexed":true,"internalType":"address"}],"anonymous":false},{"type":"event","name":"KYBRejected","inputs":[{"name":"requestId","type":"uint256","indexed":true,"internalType":"uint256"},{"name":"reason","type":"string","indexed":false,"internalType":"string"}],"anonymous":false},{"type":"event","name":"KYBRevoked","inputs":[{"name":"businessWallet","type":"address","indexed":true,"internalType":"address"},{"name":"reason","type":"string","indexed":false,"internalType":"string"}],"anonymous":false},{"type":"event","name":"KYBSubmitted","inputs":[{"name":"requestId","type":"uint256","indexed":true,"internalType":"uint256"},{"name":"businessWallet","type":"address","indexed":true,"internalType":"address"},{"name":"businessHash","type":"bytes32","indexed":false,"internalType":"bytes32"}],"anonymous":false},{"type":"event","name":"KYBSuspended","inputs":[{"name":"businessWallet","type":"address","indexed":true,"internalType":"address"},{"name":"reason","type":"string","indexed":false,"internalType":"string"}],"anonymous":false},{"type":"event","name":"ProofAdded","inputs":[{"name":"requestId","type":"uint256","indexed":true,"internalType":"uint256"},{"name":"proofHash","type":"bytes32","indexed":false,"internalType":"bytes32"}],"anonymous":false},{"type":"event","name":"RenewalApproved","inputs":[{"name":"businessWallet","type":"address","indexed":true,"internalType":"address"},{"name":"newExpiresAt","type":"uint256","indexed":false,"internalType":"uint256"}],"anonymous":false},{"type":"event","name":"RenewalRequested","inputs":[{"name":"requestId","type":"uint256","indexed":true,"internalType":"uint256"},{"name":"businessWallet","type":"address","indexed":true,"internalType":"address"}],"anonymous":false},{"type":"event","name":"RequestCancelled","inputs":[{"name":"requestId","type":"uint256","indexed":true,"internalType":"uint256"}],"anonymous":false},{"type":"event","name":"RoleAdminChanged","inputs":[{"name":"role","type":"bytes32","indexed":true,"internalType":"bytes32"},{"name":"previousAdminRole","type":"bytes32","indexed":true,"internalType":"bytes32"},{"name":"newAdminRole","type":"bytes32","indexed":true,"internalType":"bytes32"}],"anonymous":false},{"type":"event","name":"RoleGranted","inputs":[{"name":"role","type":"bytes32","indexed":true,"internalType":"bytes32"},{"name":"account","type":"address","indexed":true,"internalType":"address"},{"name":"sender","type":"address","indexed":true,"internalType":"address"}],"anonymous":false},{"type":"event","name":"RoleRevoked","inputs":[{"name":"role","type":"bytes32","indexed":true,"internalType":"bytes32"},{"name":"account","type":"address","indexed":true,"internalType":"address"},{"name":"sender","type":"address","indexed":true,"internalType":"address"}],"anonymous":false},{"type":"event","name":"VerificationUpgraded","inputs":[{"name":"businessWallet","type":"address","indexed":true,"internalType":"address"},{"name":"oldLevel","type":"uint8","indexed":false,"internalType":"enum KYBRegistry.VerificationLevel"},{"name":"newLevel","type":"uint8","indexed":false,"internalType":"enum KYBRegistry.VerificationLevel"}],"anonymous":false},{"type":"error","name":"AccessControlBadConfirmation","inputs":[]},{"type":"error","name":"AccessControlUnauthorizedAccount","inputs":[{"name":"account","type":"address","internalType":"address"},{"name":"neededRole","type":"bytes32","internalType":"bytes32"}]},{"type":"error","name":"CannotDowngradeLevel","inputs":[]},{"type":"error","name":"InsufficientProofs","inputs":[]},{"type":"error","name":"InvalidJurisdiction","inputs":[]},{"type":"error","name":"InvalidVerificationLevel","inputs":[]},{"type":"error","name":"KYBAlreadyExists","inputs":[]},{"type":"error","name":"KYBExpired","inputs":[]},{"type":"error","name":"KYBIsRevoked","inputs":[]},{"type":"error","name":"KYBIsSuspended","inputs":[]},{"type":"error","name":"KYBNotFound","inputs":[]},{"type":"error","name":"KYBNotPending","inputs":[]},{"type":"error","name":"KYBNotVerified","inputs":[]},{"type":"error","name":"NotRequestOwner","inputs":[]},{"type":"error","name":"RequestNotFound","inputs":[]},{"type":"error","name":"RequestNotPending","inputs":[]},{"type":"error","name":"UnsupportedJurisdiction","inputs":[]}],"bytecode":{"object":"0x6080346200011a57601f62002ca738819003918201601f191683019291906001600160401b038411838510176200011f5781602092849260409687528339810103126200011a57516001600160a01b03811681036200011a576200006c6301e133809182600b5562000135565b50600160009181835260096020528184842055600283526003848420556003835260058484205560048352600584842055818352600a60205262ed4e00848420556002835280848420556003835283832055600482526303c267008383205561555360f01b82526005602052828083209260ff199383858254161790556123a160f11b8152818120838582541617905561534760f01b8152209182541617905551612ae09081620001c78239f35b600080fd5b634e487b7160e01b600052604160045260246000fd5b6001600160a01b031660008181527fad3228b676f7d3cd4284a5443f17f1962b36e491b30a40b2405849e597ba5fb5602052604081205490919060ff16620001c257818052816020526040822081835260205260408220600160ff1982541617905533917f2f8788117e7eff1d82e926ec794901d17c78024a50270940304540a733656f0d8180a4600190565b509056fe608080604052600436101561001357600080fd5b60e0600035811c91826301ffc9a714611c62575081630a31909b14611bd45781630dcf059314611b685781631736303414611b3d5781631ce7d70114611a1f57816320e21535146119c3578163211178b11461195757816322895690146118a557816322ccb474146117585781632368664c14611704578163248a9ca3146116d557816327af2e0d146116bc5781632f2ff15d1461167d5781633015394c146115f157816336568abe146115aa5781634058823b1461151c578163417d050d146114a65781634aa492471461148857816350ff96181461141d578163593e70d8146113175781635a2d67c2146110c35781637dad71e114610c35575080637efbcf8914610be35780637efd2b1d14610bba57806380a1f71214610b215780638e7d8d3314610a4b57806390ca8e3d14610a0b57806391d14854146109be578063a217fddf146109a2578063abb382b514610956578063b15457581461090a578063bcfd814e1461077c578063d1d4c169146105e9578063d2052e3f14610557578063d547741f14610516578063e12514641461021e578063eb52781b146101f15763fc2f6421146101c357600080fd5b346101ec5760003660031901126101ec576020604051600080516020612a4b8339815191528152f35b600080fd5b346101ec5760203660031901126101ec57602061021461020f611cb5565b6126e3565b6040519015158152f35b346101ec5760803660031901126101ec576004356001600160401b036024358181116101ec57610252903690600401611eee565b6044356001600160f01b031981169492908590036101ec576064358481116101ec57610282903690600401611ce1565b5050336000526020946004865260ff6040600020541661050457806000526005865260ff60406000205416156104f257156104e0576102c2600854612167565b93846008556040516102d381612192565b8581526102ef8782019333855260408301958787523691612206565b606082019081526080820142815260a08301916000835260405196610313886121c8565b6000885260c085019788528960005260038b526040600020945185556001968786019060018060a01b0390511660018060a01b0319825416179055516002850155600384019051908151918683116104a2578b90610371848461225c565b01906000528a6000208760005b8481106104ce575050505050516004830155519060048210156104b8576103aa6006926005830161229f565b01925180519182116104a2576103ca826103c486546122b7565b866122f1565b8690601f831160011461043f57928293918392600094610434575b50501b916000199060031b1c19161790555b61040082612360565b604051908152817ffd478595129413bdc2f933ae136990dbafe0336b120125b49b28a18f0bc92490843393a3604051908152f35b0151925088806103e5565b90601f198316918560005283896000209360005b8b8883831061048b5750505010610472575b505050811b0190556103f7565b015160001960f88460031b161c19169055868080610465565b868601518855909601959485019487935001610453565b634e487b7160e01b600052604160045260246000fd5b634e487b7160e01b600052602160045260246000fd5b8d84519401938184015501889061037e565b60405163bf88944f60e01b8152600490fd5b604051630ef2e96160e31b8152600490fd5b6040516301984d7d60e11b8152600490fd5b346101ec5760403660031901126101ec57610555600435610535611ccb565b9080600052600060205261055060016040600020015461204e565b6120f2565b005b346101ec576020806003193601126101ec576001600160f01b031961057a611ed7565b1660005260068152604060002090604051908181845491828152019360005281600020916000905b8282106105c9576105c5856105b9818903826121e3565b60405191829182611f1e565b0390f35b83546001600160a01b0316865294850194600193840193909101906105a2565b346101ec5760403660031901126101ec576001600160401b036004356024358281116101ec5761061d903690600401611ce1565b90610626611f62565b8260005260209360038552604060002080541561076a57600581019081549160ff831660048110156104b85761075857600260069360ff1916179055019083116104a25761067e8361067883546122b7565b836122f1565b600094601f84116001146106e3575082600080516020612a6b83398151915294956000916106d8575b508360011b906000198560031b1c19161790555b6106c48461299e565b6106d3604051928392836124cc565b0390a2005b9050820135866106a7565b601f198416958260005281600020916000905b88821061074057505084600080516020612a6b833981519152969710610726575b5050600183811b0190556106bb565b830135600019600386901b60f8161c191690558580610717565b806001849582949589013581550194019201906106f6565b60405163f41814a760e01b8152600490fd5b604051632589d98f60e11b8152600490fd5b346101ec576101003660031901126101ec57610796611cb5565b6024359060058210156101ec5760c03660431901126101ec576107b7611f62565b6001600160a01b031660008181526004602052604090205490919060ff16156108f8578160005260016020526040600020906003820160ff8154169060058210156104b857818311156108e6578261080e9161242c565b600983019160443580151581036101ec57835490151560ff1660ff199190911617835560643580151581036101ec576108479084612444565b60843580151581036101ec5761085d908461245c565b60a43580151581036101ec576108739084612476565b60c43580151581036101ec576108899084612492565b60e4359081151582036101ec577fe8c953392c735d10f1a0bd2053924603074af8c2cfd162c6f014b4d90d3a3010946108c76108e3936040966124af565b6007429101556108d984518094611d85565b6020830190611d85565ba2005b604051630f66635560e11b8152600490fd5b604051637378e77760e01b8152600490fd5b346101ec5760403660031901126101ec5760043560058110156101ec5761092f612014565b8015610944576109416024359161239d565b55005b6040516336159a5360e21b8152600490fd5b346101ec5760203660031901126101ec57600435610972612014565b620151809081810291818304149015171561098c57600b55005b634e487b7160e01b600052601160045260246000fd5b346101ec5760003660031901126101ec57602060405160008152f35b346101ec5760403660031901126101ec576109d7611ccb565b600435600052600060205260406000209060018060a01b0316600052602052602060ff604060002054166040519015158152f35b346101ec5760203660031901126101ec576001600160f01b0319610a2d611ed7565b166000526005602052602060ff604060002054166040519015158152f35b346101ec5760403660031901126101ec57600435602435816000526003602052604060002080541561076a5760018101546001600160a01b03163303610b0f5760ff60058201541660048110156104b8576107585760030180549091600160401b8210156104a25760018201808455821015610af957806020927f7ea7f1357e2ddb50c43666e89ebeb6fd84f898238ee470868ddfa3886de91e4394600052836000200155604051908152a2005b634e487b7160e01b600052603260045260246000fd5b60405163517907dd60e01b8152600490fd5b346101ec5760003660031901126101ec5760405180600754808352602080930180916007600052846000209060005b86828210610ba6578686610b66828803836121e3565b604051928392818401908285525180915260408401929160005b828110610b8f57505050500390f35b835185528695509381019392810192600101610b80565b835485529093019260019283019201610b50565b346101ec5760003660031901126101ec576020604051600080516020612a8b8339815191528152f35b346101ec5760203660031901126101ec576201518060043581810291811591830414171561098c57610c1590426123b6565b506105c5604051610c25816121c8565b6000815260405191829182611f1e565b346101ec576101203660031901126101ec57600560243510156101ec5760c03660431901126101ec576101043590610c6b611f62565b6004356000526003602052604060002080541561076a5760ff60058201541660048110156104b857610758576003810154610ca760243561239d565b54116110b15760018101546001600160a01b03169262015180808202918015908304909114171561098c57610cdc90426123b6565b60028201549160405193610cef85612176565b85855260208501938452610d05600383016123c3565b6040860152610d1960243560608701612414565b60006080860152604051610d2c816121c8565b6000815260a08601524260c08601528281860152426101008601526002610120860152604051610d5b816121ad565b6044351515604435036101ec5760443581526064351515606435036101ec5760643560208201526084351515608435036101ec57608435604082015260a435151560a435036101ec5760a435606082015260c435151560c435036101ec5760c435608082015260e435151560e435036101ec5760e43560a0820152610140860152600086815260016020819052604091829020875181546001600160a01b0319166001600160a01b03919091161781559551908601558501518051906001600160401b0382116104a25760206002870191610e36848461225c565b0190600052602060002060005b83811061109d575050505060038401606086015160058110156104b857610e6a908261242c565b6080860151815462ffff00191660e89190911c62ffff001617905560a08501518051906001600160401b0382116104a2578190610eb782610eae60048a01546122b7565b60048a016122f1565b602090601f831160011461102b57600092611020575b50508160011b916000199060031b1c19161760048501555b60c085015160058501558401516006840155610100840151600784015560088301936101208101519460068610156104b8577f3724773346d03602f873fa54f8aa3e9cfa28d18d0871de982391b8a617a4330295610fc160059360a0610140600960409a60019760ff199760ff89835416911617905501920151610f7881511515849060ff801983541691151516179055565b610f886020820151151584612444565b610f978a82015115158461245c565b610fa76060820151151584612476565b610fb76080820151151584612492565b01511515906124af565b876000526004602052856000208282825416179055600284015460005260026020528560002088838060a01b031982541617905582840154161791015561100960043561299e565b81519061101882602435611d85565b6020820152a2005b015190508880610ecd565b9250600487016000526020600020906000935b601f1984168510611082576001945083601f19811610611069575b505050811b016004850155610ee5565b015160001960f88460031b161c19169055888080611059565b8181015183556020948501946001909301929091019061103e565b600190602084519401938184015501610e43565b604051635367f58960e11b8152600490fd5b346101ec576020806003193601126101ec576001600160401b036004358181116101ec576110f5903690600401611eee565b9091336000526004845260ff60406000205416156108f8573360005260019081855260406000209382611129600854612167565b958660085501546111586040519261114084612192565b87845288840196338852604085019384523691612206565b60608301908152608083019042825260a0840192600084526040519761117d896121c8565b6000808a5260c08701998a528a81526003808d52604090912096518755905188870180546001600160a01b0319166001600160a01b03929092169190911790559051600286015590518051918501908683116104a2578a906111df848461225c565b0190600052896000208760005b848110611305575050505050516004830155519060048210156104b8576112186006926005830161229f565b01925180519182116104a257611232826103c486546122b7565b8590601f83116001146112a257928293918392600094611297575b50501b916000199060031b1c19161790555b61126881612360565b6040519033817f74fb6555956a10e925a385db84f646254dbedccbd430783961e39df41b5cc6ae600080a38152f35b01519250878061124d565b90601f198316918560005283886000209360005b8a888383106112ee57505050106112d5575b505050811b01905561125f565b015160001960f88460031b161c191690558580806112c8565b8686015188559096019594850194879350016112b6565b8c8451940193818401550188906111ec565b346101ec5760203660031901126101ec57611330612588565b506004356000908152600260205260409020546001600160a01b039081169182156108f857600961140b916105c59460005260016020526040600020906040519461137a86612176565b825416855260018201546020860152611395600283016123c3565b604086015260038201546113af60ff821660608801612414565b60e81b6001600160f01b03191660808601526113cd600483016125e4565b60a0860152600582015460c0860152600682015490850152600781015461010085015261140560ff6008830154166101208601612420565b01612688565b61014082015260405191829182611e15565b346101ec5760203660031901126101ec57611436611cb5565b61143e612556565b506001600160a01b031660008181526004602052604090205460ff16156108f857600052600160205260c06114796009604060002001612688565b6114866040518092611dd2565bf35b346101ec5760003660031901126101ec576020600b54604051908152f35b346101ec5760203660031901126101ec576114bf611ed7565b6114c7611fca565b6001600160f01b03191680156104e0576020817f46aa0972e305f69f60def68a2c94a892462ac52e285b899f1aedc6effe6e8a3792600052600582526040600020600160ff19825416179055604051908152a1005b346101ec5761152a36611d0e565b91611533611f62565b6001600160a01b031660008181526004602052604090205490929060ff16156108f8577f69feeb0204b76aa7dffba58e7d98d0f56b47945ab186a586d06530648b034e2091836000526001602052604060002060088101600560ff198254161790556007429101556106d3604051928392836124cc565b346101ec5760403660031901126101ec576115c3611ccb565b336001600160a01b038216036115df57610555906004356120f2565b60405163334bd91960e11b8152600490fd5b346101ec5760203660031901126101ec57600435806000526003602052604060002080541561076a5760018101546001600160a01b03163303610b0f57600501805460ff811660048110156104b8576107585760ff191660031790556116568161299e565b7fee243f878b7fc2f54e934ca33783d4395d42bc07612e2bd4b8e0e178639f7a28600080a2005b346101ec5760403660031901126101ec5761055560043561169c611ccb565b908060005260006020526116b760016040600020015461204e565b612074565b346101ec5760206102146116cf36611d0e565b9161274c565b346101ec5760203660031901126101ec5760043560005260006020526020600160406000200154604051908152f35b346101ec5760203660031901126101ec576001600160a01b03611725611cb5565b1680600052600460205260ff60406000205416156108f85760005260016020526020600660406000200154604051908152f35b346101ec576020806003193601126101ec57600435606060c060405161177d81612192565b6000815260008582015260006040820152828082015260006080820152600060a0820152015280600052600382526040600020541561076a5760005260038152604060002091604051926117d084612192565b8054845260018101546001600160a01b03908116848601908152600283015460408701908152919291611805600384016123c3565b90606088019182526004840154946080890195865260ff6005860154169360a08a019560048610156104b857600661184391611876978952016125e4565b9860c08b01998a526040519a818c5251908b01525116604089015251606088015251846080880152610100870190611d51565b915160a0860152519160048310156104b85784936105c59360c08601525190601f198584030190850152611d92565b346101ec5760203660031901126101ec576118be611cb5565b6118c6612014565b6001600160a01b031660008181526004602052604090205460ff16156108f857806000526001602052604060002060088101805460ff811660068110156104b8576004036119455760029060ff19161790556007429101557ff3f2579d4b827e5f652c85d7053a64448b2a29939f44eb318bbfcd6df16db9a5600080a2005b60405163e76ea6cf60e01b8152600490fd5b346101ec5760203660031901126101ec577f6cd1702a02ed5bd44373f54682663299ba5a3337f19b21e18d6cb9b273802ada6020611993611ed7565b61199b611fca565b6001600160f01b031916600081815260058352604090819020805460ff1916905551908152a1005b346101ec5760203660031901126101ec576001600160a01b036119e4611cb5565b1680600052600460205260ff60406000205416156108f8576000526001602052602060ff600360406000200154166114866040518092611d85565b346101ec5760403660031901126101ec57602435600435611a3e611f62565b80600052600360205260406000209182541561076a57600583019160ff83541660048110156104b8576107585760018401546001600160a01b031660008181526004602052604090205490949060ff16156108f857846000526001602052604060002091620151809384810294818604149015171561098c577f65649065a858a5e46be5f5aa5e1c3ee7c3cf3d3b43230f83d03c24e05e678707946001611b2193611aeb602097426123b6565b958660068201554260078201556003600882019260ff1993600285825416179055018054611b2a575b505082541617905561299e565b604051908152a2005b6002611b3692016124f4565b8980611b14565b346101ec5760203660031901126101ec576020611b60611b5b611cb5565b61291c565b604051908152f35b346101ec5760203660031901126101ec57611b81611cb5565b611b89612588565b506001600160a01b0390811660008181526004602052604090205490929060ff16156108f857600961140b916105c59460005260016020526040600020906040519461137a86612176565b346101ec57611be236611d0e565b91611beb611f62565b6001600160a01b031660008181526004602052604090205490929060ff16156108f8577fe98424ad53c7597242b64d724a7343a2a28887944b5c8eba0dc3bfc867e1cb9a91836000526001602052604060002060088101600460ff198254161790556007429101556106d3604051928392836124cc565b346101ec5760203660031901126101ec576004359063ffffffff60e01b82168092036101ec57602091637965db0b60e01b8114908115611ca4575b5015158152f35b6301ffc9a760e01b14905083611c9d565b600435906001600160a01b03821682036101ec57565b602435906001600160a01b03821682036101ec57565b9181601f840112156101ec578235916001600160401b0383116101ec57602083818601950101116101ec57565b9060406003198301126101ec576004356001600160a01b03811681036101ec5791602435906001600160401b0382116101ec57611d4d91600401611ce1565b9091565b90815180825260208080930193019160005b828110611d71575050505090565b835185529381019392810192600101611d63565b9060058210156104b85752565b919082519283825260005b848110611dbe575050826000602080949584010152601f8019910116010190565b602081830181015184830182015201611d9d565b60a0809180511515845260208101511515602085015260408101511515604085015260608101511515606085015260808101511515608085015201511515910152565b906020825260018060a01b03815116602083015260208101516040830152611e8a611e5160408301516102006060860152610220850190611d51565b611e6360608401516080860190611d85565b61ffff60f01b60808401511660a085015260a0830151601f198583030160c0860152611d92565b9160c082015160e082015260e0820151610100908183015282015161012090818301528201519160068310156104b857611ed4926101609161014091828501520151910190611dd2565b90565b600435906001600160f01b0319821682036101ec57565b9181601f840112156101ec578235916001600160401b0383116101ec576020808501948460051b0101116101ec57565b6020908160408183019282815285518094520193019160005b828110611f45575050505090565b83516001600160a01b031685529381019392810192600101611f37565b3360009081527f137b710468b48e52e7fabac2cb725a9ac985215e83d78ad151129fc53cd00bda6020526040902054600080516020612a4b8339815191529060ff1615611fac5750565b6044906040519063e2517d3f60e01b82523360048301526024820152fd5b3360009081527f797b113a9f2476f9ecaa06f7987c63036ffa12e99cc8f7a8e16f3a75293e8e7a6020526040902054600080516020612a8b8339815191529060ff1615611fac5750565b3360009081527fad3228b676f7d3cd4284a5443f17f1962b36e491b30a40b2405849e597ba5fb5602052604081205460ff1615611fac5750565b80600052600060205260406000203360005260205260ff6040600020541615611fac5750565b9060009180835282602052604083209160018060a01b03169182845260205260ff604084205416156000146120ed57808352826020526040832082845260205260408320600160ff198254161790557f2f8788117e7eff1d82e926ec794901d17c78024a50270940304540a733656f0d339380a4600190565b505090565b9060009180835282602052604083209160018060a01b03169182845260205260ff6040842054166000146120ed5780835282602052604083208284526020526040832060ff1981541690557ff6391f5c32d9c69d2a47ea670b442974b53935d1edc7fd64eb21e047a839171b339380a4600190565b600019811461098c5760010190565b61016081019081106001600160401b038211176104a257604052565b60e081019081106001600160401b038211176104a257604052565b60c081019081106001600160401b038211176104a257604052565b602081019081106001600160401b038211176104a257604052565b601f909101601f19168101906001600160401b038211908210176104a257604052565b9092916001600160401b0384116104a2578360051b604051926020809461222f828501826121e3565b80978152019181019283116101ec57905b82821061224d5750505050565b81358152908301908301612240565b600160401b82116104a25780549180825582811061227957505050565b60009182526020822092830192015b82811061229457505050565b818155600101612288565b9060048110156104b85760ff80198354169116179055565b90600182811c921680156122e7575b60208310146122d157565b634e487b7160e01b600052602260045260246000fd5b91607f16916122c6565b90601f81116122ff57505050565b600091825260208220906020601f850160051c8301941061233b575b601f0160051c01915b82811061233057505050565b818155600101612324565b909250829061231b565b600754811015610af957600760005260206000200190600090565b600754600160401b8110156104a2576123828160016123999301600755612345565b819391549060031b91821b91600019901b19161790565b9055565b60058110156104b8576000526009602052604060002090565b9190820180921161098c57565b9060405191828154918282526020928383019160005283600020936000905b8282106123fa575050506123f8925003836121e3565b565b8554845260019586019588955093810193909101906123e2565b60058210156104b85752565b60068210156104b85752565b9060058110156104b85760ff80198354169116179055565b9061ff00825491151560081b169061ff001916179055565b9062ff0000825491151560101b169062ff00001916179055565b9063ff000000825491151560181b169063ff0000001916179055565b805460ff60201b191691151560201b60ff60201b16919091179055565b805460ff60281b191691151560281b60ff60281b16919091179055565b90918060409360208452816020850152848401376000828201840152601f01601f1916010190565b818114612552578154916001600160401b0383116104a257612516838361225c565b60005260206000209060005260206000208154916000925b84841061253c575050505050565b600180919201938454928185015501929061252e565b5050565b60405190612563826121ad565b8160a06000918281528260208201528260408201528260608201528260808201520152565b6040519061259582612176565b81600080825280602083015260606040830152806060830152806080830152606060a08301528060c08301528060e0830152806101008301526101208201526101406125df612556565b910152565b90604051918260008254926125f8846122b7565b9081845260019485811690816000146126655750600114612622575b50506123f8925003836121e3565b9093915060005260209081600020936000915b81831061264d5750506123f893508201013880612614565b85548884018501529485019487945091830191612635565b9150506123f894506020925060ff191682840152151560051b8201013880612614565b90604051612695816121ad565b60a081935460ff9081811615158452818160081c1615156020850152818160101c1615156040850152818160181c1615156060850152818160201c161515608085015260281c161515910152565b6001600160a01b031660009081526004602052604081205460ff1615611ed45760016020526040812060ff60088201541660068110156127385760020361273457600601544211611ed45750600190565b5090565b634e487b7160e01b83526021600452602483fd5b9160009260018060a01b0316835260206004815260ff928360408620541615612908576001825260408520600901926001600160401b0381116128f457604051906127a0601f8201601f19168501836121e3565b8082528382019236828201116128f0578188928692863783010152519020907f5206269cda5de79ddf40f1f068ef243220a44860a7dcf1d847a6e7cacabc3a6182146128e7577fed2597a243ca132682e1afad887011cd2eba84480987451654d5b7dfe987fc2082146128db577f6858a15a4f479ad3a6491e75a48e6bccf0316083e38fb2f2102bbfb03452672d82146128cf577fdeb232e9424da89f56426f9b9aa44744a2bb409f1d94138a9c470b42a07bbfa582146128c3577f158fb01f61a1be3d4602e3b6a6ddb567177c9ccc808880c5cb2e7cf02397b5a882146128b857507fa60da8d6db168c225b69889043c41d36e8f165efad379777af2480bcc6a03c1c146128ae57505090565b5460281c16919050565b9293505054901c1690565b50505460181c16919050565b50505460101c16919050565b50505460081c16919050565b50505416919050565b8780fd5b634e487b7160e01b86526041600452602486fd5b5050505090565b9190820391821161098c57565b6001600160a01b031660008181526004602052604081205490919060ff16156108f8578152600160205260066040822001549042821061296a57506129666201518091429061290f565b0490565b9061297962015180914261290f565b0490600160ff1b821461298a570390565b634e487b7160e01b81526011600452602490fd5b60079081549160005b8381106129b5575b50505050565b826129bf82612345565b919054600392831b1c146129dc57506129d790612167565b6129a7565b939192506000199182810190811161098c576123826129fd612a0992612345565b905490871b1c92612345565b905581548015612a3457810192612a1f84612345565b81939154921b1b1916905555388080806129af565b634e487b7160e01b600052603160045260246000fdfe31e8e715a1ef9f558e5684d19702a0254058b704839dfdbcc98748bc0245f4c1db17aec37b07d15a3da864aa9d80141998e4507b09bf88b5e053d35bd3c9801da784fd1835a9a87fa27e7bde55bc15da74607bce9b3ea67395f02641b4abf72da26469706673582212208c44aca87584165a947dabba25f5bb78a9983c11b473781e5ed1e3acaf8729e964736f6c63430008140033","linkReferences":{}},"methodIdentifiers":{"DEFAULT_ADMIN_ROLE()":"a217fddf","JURISDICTION_MANAGER_ROLE()":"7efd2b1d","KYB_VERIFIER_ROLE()":"fc2f6421","addProof(uint256,bytes32)":"8e7d8d33","addSupportedJurisdiction(bytes2)":"417d050d","approveKYB(uint256,uint8,(bool,bool,bool,bool,bool,bool),uint256)":"7dad71e1","approveRenewal(uint256,uint256)":"1ce7d701","cancelRequest(uint256)":"3015394c","defaultValidityPeriod()":"4aa49247","getBusinessesByJurisdiction(bytes2)":"d2052e3f","getDaysUntilExpiry(address)":"17363034","getExpiringVerifications(uint256)":"7efbcf89","getKYBByHash(bytes32)":"593e70d8","getKYBData(address)":"0dcf0593","getKYBExpiry(address)":"2368664c","getPendingRequests()":"80a1f712","getProofFlags(address)":"50ff9618","getRoleAdmin(bytes32)":"248a9ca3","getVerificationLevel(address)":"20e21535","getVerificationRequest(uint256)":"22ccb474","grantRole(bytes32,address)":"2f2ff15d","hasRole(bytes32,address)":"91d14854","isJurisdictionSupported(bytes2)":"90ca8e3d","isKYBValid(address)":"eb52781b","isProofVerified(address,string)":"27af2e0d","reinstateKYB(address)":"22895690","rejectKYB(uint256,string)":"d1d4c169","removeSupportedJurisdiction(bytes2)":"211178b1","renounceRole(bytes32,address)":"36568abe","requestRenewal(bytes32[])":"5a2d67c2","revokeKYB(address,string)":"4058823b","revokeRole(bytes32,address)":"d547741f","setDefaultValidityPeriod(uint256)":"abb382b5","setMinimumProofsRequired(uint8,uint256)":"b1545758","submitKYB(bytes32,bytes32[],bytes2,string)":"e1251464","supportsInterface(bytes4)":"01ffc9a7","suspendKYB(address,string)":"0a31909b","upgradeVerificationLevel(address,uint8,(bool,bool,bool,bool,bool,bool))":"bcfd814e"},"id":39}