{"abi":[{"type":"constructor","inputs":[{"name":"_admin","type":"address","internalType":"address"}],"stateMutability":"nonpayable"},{"type":"function","name":"DEFAULT_ADMIN_ROLE","inputs":[],"outputs":[{"name":"","type":"bytes32","internalType":"bytes32"}],"stateMutability":"view"},{"type":"function","name":"JURISDICTION_MANAGER_ROLE","inputs":[],"outputs":[{"name":"","type":"bytes32","internalType":"bytes32"}],"stateMutability":"view"},{"type":"function","name":"KYB_VERIFIER_ROLE","inputs":[],"outputs":[{"name":"","type":"bytes32","internalType":"bytes32"}],"stateMutability":"view"},{"type":"function","name":"addProof","inputs":[{"name":"requestId","type":"uint256","internalType":"uint256"},{"name":"proofHash","type":"bytes32","internalType":"bytes32"}],"outputs":[],"stateMutability":"nonpayable"},{"type":"function","name":"addSupportedJurisdiction","inputs":[{"name":"jurisdiction","type":"bytes2","internalType":"bytes2"}],"outputs":[],"stateMutability":"nonpayable"},{"type":"function","name":"approveKYB","inputs":[{"name":"requestId","type":"uint256","internalType":"uint256"},{"name":"level","type":"uint8","internalType":"enum KYBRegistry.VerificationLevel"},{"name":"flags","type":"tuple","internalType":"struct KYBRegistry.ProofFlags","components":[{"name":"businessRegistration","type":"bool","internalType":"bool"},{"name":"revenueThreshold","type":"bool","internalType":"bool"},{"name":"operatingHistory","type":"bool","internalType":"bool"},{"name":"bankAccountVerified","type":"bool","internalType":"bool"},{"name":"noLiens","type":"bool","internalType":"bool"},{"name":"goodStanding","type":"bool","internalType":"bool"}]},{"name":"validityDays","type":"uint256","internalType":"uint256"}],"outputs":[],"stateMutability":"nonpayable"},{"type":"function","name":"approveRenewal","inputs":[{"name":"requestId","type":"uint256","internalType":"uint256"},{"name":"validityDays","type":"uint256","internalType":"uint256"}],"outputs":[],"stateMutability":"nonpayable"},{"type":"function","name":"cancelRequest","inputs":[{"name":"requestId","type":"uint256","internalType":"uint256"}],"outputs":[],"stateMutability":"nonpayable"},{"type":"function","name":"defaultValidityPeriod","inputs":[],"outputs":[{"name":"","type":"uint256","internalType":"uint256"}],"stateMutability":"view"},{"type":"function","name":"getBusinessesByJurisdiction","inputs":[{"name":"jurisdiction","type":"bytes2","internalType":"bytes2"}],"outputs":[{"name":"","type":"address[]","internalType":"address[]"}],"stateMutability":"view"},{"type":"function","name":"getDaysUntilExpiry","inputs":[{"name":"businessWallet","type":"address","internalType":"address"}],"outputs":[{"name":"","type":"int256","internalType":"int256"}],"stateMutability":"view"},{"type":"function","name":"getExpiringVerifications","inputs":[{"name":"withinDays","type":"uint256","internalType":"uint256"}],"outputs":[{"name":"","type":"address[]","internalType":"address[]"}],"stateMutability":"view"},{"type":"function","name":"getKYBByHash","inputs":[{"name":"businessHash","type":"bytes32","internalType":"bytes32"}],"outputs":[{"name":"","type":"tuple","internalType":"struct KYBRegistry.KYBData","components":[{"name":"businessWallet","type":"address","internalType":"address"},{"name":"businessHash","type":"bytes32","internalType":"bytes32"},{"name":"zkProofHashes","type":"bytes32[]","internalType":"bytes32[]"},{"name":"level","type":"uint8","internalType":"enum KYBRegistry.VerificationLevel"},{"name":"jurisdiction","type":"bytes2","internalType":"bytes2"},{"name":"businessType","type":"string","internalType":"string"},{"name":"verifiedAt","type":"uint256","internalType":"uint256"},{"name":"expiresAt","type":"uint256","internalType":"uint256"},{"name":"lastReviewAt","type":"uint256","internalType":"uint256"},{"name":"status","type":"uint8","internalType":"enum KYBRegistry.KYBStatus"},{"name":"proofFlags","type":"tuple","internalType":"struct KYBRegistry.ProofFlags","components":[{"name":"businessRegistration","type":"bool","internalType":"bool"},{"name":"revenueThreshold","type":"bool","internalType":"bool"},{"name":"operatingHistory","type":"bool","internalType":"bool"},{"name":"bankAccountVerified","type":"bool","internalType":"bool"},{"name":"noLiens","type":"bool","internalType":"bool"},{"name":"goodStanding","type":"bool","internalType":"bool"}]}]}],"stateMutability":"view"},{"type":"function","name":"getKYBData","inputs":[{"name":"businessWallet","type":"address","internalType":"address"}],"outputs":[{"name":"","type":"tuple","internalType":"struct KYBRegistry.KYBData","components":[{"name":"businessWallet","type":"address","internalType":"address"},{"name":"businessHash","type":"bytes32","internalType":"bytes32"},{"name":"zkProofHashes","type":"bytes32[]","internalType":"bytes32[]"},{"name":"level","type":"uint8","internalType":"enum KYBRegistry.VerificationLevel"},{"name":"jurisdiction","type":"bytes2","internalType":"bytes2"},{"name":"businessType","type":"string","internalType":"string"},{"name":"verifiedAt","type":"uint256","internalType":"uint256"},{"name":"expiresAt","type":"uint256","internalType":"uint256"},{"name":"lastReviewAt","type":"uint256","internalType":"uint256"},{"name":"status","type":"uint8","internalType":"enum KYBRegistry.KYBStatus"},{"name":"proofFlags","type":"tuple","internalType":"struct KYBRegistry.ProofFlags","components":[{"name":"businessRegistration","type":"bool","internalType":"bool"},{"name":"revenueThreshold","type":"bool","internalType":"bool"},{"name":"operatingHistory","type":"bool","internalType":"bool"},{"name":"bankAccountVerified","type":"bool","internalType":"bool"},{"name":"noLiens","type":"bool","internalType":"bool"},{"name":"goodStanding","type":"bool","internalType":"bool"}]}]}],"stateMutability":"view"},{"type":"function","name":"getKYBExpiry","inputs":[{"name":"businessWallet","type":"address","internalType":"address"}],"outputs":[{"name":"","type":"uint256","internalType":"uint256"}],"stateMutability":"view"},{"type":"function","name":"getPendingRequests","inputs":[],"outputs":[{"name":"","type":"uint256[]","internalType":"uint256[]"}],"stateMutability":"view"},{"type":"function","name":"getProofFlags","inputs":[{"name":"businessWallet","type":"address","internalType":"address"}],"outputs":[{"name":"","type":"tuple","internalType":"struct KYBRegistry.ProofFlags","components":[{"name":"businessRegistration","type":"bool","internalType":"bool"},{"name":"revenueThreshold","type":"bool","internalType":"bool"},{"name":"operatingHistory","type":"bool","internalType":"bool"},{"name":"bankAccountVerified","type":"bool","internalType":"bool"},{"name":"noLiens","type":"bool","internalType":"bool"},{"name":"goodStanding","type":"bool","internalType":"bool"}]}],"stateMutability":"view"},{"type":"function","name":"getRoleAdmin","inputs":[{"name":"role","type":"bytes32","internalType":"bytes32"}],"outputs":[{"name":"","type":"bytes32","internalType":"bytes32"}],"stateMutability":"view"},{"type":"function","name":"getVerificationLevel","inputs":[{"name":"businessWallet","type":"address","internalType":"address"}],"outputs":[{"name":"","type":"uint8","internalType":"enum KYBRegistry.VerificationLevel"}],"stateMutability":"view"},{"type":"function","name":"getVerificationRequest","inputs":[{"name":"requestId","type":"uint256","internalType":"uint256"}],"outputs":[{"name":"","type":"tuple","internalType":"struct KYBRegistry.VerificationRequest","components":[{"name":"requestId","type":"uint256","internalType":"uint256"},{"name":"businessWallet","type":"address","internalType":"address"},{"name":"businessHash","type":"bytes32","internalType":"bytes32"},{"name":"submittedProofs","type":"bytes32[]","internalType":"bytes32[]"},{"name":"requestedAt","type":"uint256","internalType":"uint256"},{"name":"requestStatus","type":"uint8","internalType":"enum KYBRegistry.RequestStatus"},{"name":"rejectionReason","type":"string","internalType":"string"}]}],"stateMutability":"view"},{"type":"function","name":"grantRole","inputs":[{"name":"role","type":"bytes32","internalType":"bytes32"},{"name":"account","type":"address","internalType":"address"}],"outputs":[],"stateMutability":"nonpayable"},{"type":"function","name":"hasRole","inputs":[{"name":"role","type":"bytes32","internalType":"bytes32"},{"name":"account","type":"address","internalType":"address"}],"outputs":[{"name":"","type":"bool","internalType":"bool"}],"stateMutability":"view"},{"type":"function","name":"isJurisdictionSupported","inputs":[{"name":"jurisdiction","type":"bytes2","internalType":"bytes2"}],"outputs":[{"name":"","type":"bool","internalType":"bool"}],"stateMutability":"view"},{"type":"function","name":"isKYBValid","inputs":[{"name":"businessWallet","type":"address","internalType":"address"}],"outputs":[{"name":"","type":"bool","internalType":"bool"}],"stateMutability":"view"},{"type":"function","name":"isProofVerified","inputs":[{"name":"businessWallet","type":"address","internalType":"address"},{"name":"proofType","type":"string","internalType":"string"}],"outputs":[{"name":"","type":"bool","internalType":"bool"}],"stateMutability":"view"},{"type":"function","name":"reinstateKYB","inputs":[{"name":"businessWallet","type":"address","internalType":"address"}],"outputs":[],"stateMutability":"nonpayable"},{"type":"function","name":"rejectKYB","inputs":[{"name":"requestId","type":"uint256","internalType":"uint256"},{"name":"reason","type":"string","internalType":"string"}],"outputs":[],"stateMutability":"nonpayable"},{"type":"function","name":"removeSupportedJurisdiction","inputs":[{"name":"jurisdiction","type":"bytes2","internalType":"bytes2"}],"outputs":[],"stateMutability":"nonpayable"},{"type":"function","name":"renounceRole","inputs":[{"name":"role","type":"bytes32","internalType":"bytes32"},{"name":"callerConfirmation","type":"address","internalType":"address"}],"outputs":[],"stateMutability":"nonpayable"},{"type":"function","name":"requestRenewal","inputs":[{"name":"newProofHashes","type":"bytes32[]","internalType":"bytes32[]"}],"outputs":[{"name":"requestId","type":"uint256","internalType":"uint256"}],"stateMutability":"nonpayable"},{"type":"function","name":"revokeKYB","inputs":[{"name":"businessWallet","type":"address","internalType":"address"},{"name":"reason","type":"string","internalType":"string"}],"outputs":[],"stateMutability":"nonpayable"},{"type":"function","name":"revokeRole","inputs":[{"name":"role","type":"bytes32","internalType":"bytes32"},{"name":"account","type":"address","internalType":"address"}],"outputs":[],"stateMutability":"nonpayable"},{"type":"function","name":"setDefaultValidityPeriod","inputs":[{"name":"days_","type":"uint256","internalType":"uint256"}],"outputs":[],"stateMutability":"nonpayable"},{"type":"function","name":"setMinimumProofsRequired","inputs":[{"name":"level","type":"uint8","internalType":"enum KYBRegistry.VerificationLevel"},{"name":"count","type":"uint256","internalType":"uint256"}],"outputs":[],"stateMutability":"nonpayable"},{"type":"function","name":"submitKYB","inputs":[{"name":"businessHash","type":"bytes32","internalType":"bytes32"},{"name":"zkProofHashes","type":"bytes32[]","internalType":"bytes32[]"},{"name":"jurisdiction","type":"bytes2","internalType":"bytes2"},{"name":"businessType","type":"string","internalType":"string"}],"outputs":[{"name":"requestId","type":"uint256","internalType":"uint256"}],"stateMutability":"nonpayable"},{"type":"function","name":"supportsInterface","inputs":[{"name":"interfaceId","type":"bytes4","internalType":"bytes4"}],"outputs":[{"name":"","type":"bool","internalType":"bool"}],"stateMutability":"view"},{"type":"function","name":"suspendKYB","inputs":[{"name":"businessWallet","type":"address","internalType":"address"},{"name":"reason","type":"string","internalType":"string"}],"outputs":[],"stateMutability":"nonpayable"},{"type":"function","name":"upgradeVerificationLevel","inputs":[{"name":"businessWallet","type":"address","internalType":"address"},{"name":"newLevel","type":"uint8","internalType":"enum KYBRegistry.VerificationLevel"},{"name":"newFlags","type":"tuple","internalType":"struct KYBRegistry.ProofFlags","components":[{"name":"businessRegistration","type":"bool","internalType":"bool"},{"name":"revenueThreshold","type":"bool","internalType":"bool"},{"name":"operatingHistory","type":"bool","internalType":"bool"},{"name":"bankAccountVerified","type":"bool","internalType":"bool"},{"name":"noLiens","type":"bool","internalType":"bool"},{"name":"goodStanding","type":"bool","internalType":"bool"}]}],"outputs":[],"stateMutability":"nonpayable"},{"type":"event","name":"JurisdictionAdded","inputs":[{"name":"jurisdiction","type":"bytes2","indexed":false,"internalType":"bytes2"}],"anonymous":false},{"type":"event","name":"JurisdictionRemoved","inputs":[{"name":"jurisdiction","type":"bytes2","indexed":false,"internalType":"bytes2"}],"anonymous":false},{"type":"event","name":"KYBApproved","inputs":[{"name":"businessWallet","type":"address","indexed":true,"internalType":"address"},{"name":"level","type":"uint8","indexed":false,"internalType":"enum KYBRegistry.VerificationLevel"},{"name":"expiresAt","type":"uint256","indexed":false,"internalType":"uint256"}],"anonymous":false},{"type":"event","name":"KYBReinstated","inputs":[{"name":"businessWallet","type":"address","indexed":true,"internalType":"address"}],"anonymous":false},{"type":"event","name":"KYBRejected","inputs":[{"name":"requestId","type":"uint256","indexed":true,"internalType":"uint256"},{"name":"reason","type":"string","indexed":false,"internalType":"string"}],"anonymous":false},{"type":"event","name":"KYBRevoked","inputs":[{"name":"businessWallet","type":"address","indexed":true,"internalType":"address"},{"name":"reason","type":"string","indexed":false,"internalType":"string"}],"anonymous":false},{"type":"event","name":"KYBSubmitted","inputs":[{"name":"requestId","type":"uint256","indexed":true,"internalType":"uint256"},{"name":"businessWallet","type":"address","indexed":true,"internalType":"address"},{"name":"businessHash","type":"bytes32","indexed":false,"internalType":"bytes32"}],"anonymous":false},{"type":"event","name":"KYBSuspended","inputs":[{"name":"businessWallet","type":"address","indexed":true,"internalType":"address"},{"name":"reason","type":"string","indexed":false,"internalType":"string"}],"anonymous":false},{"type":"event","name":"ProofAdded","inputs":[{"name":"requestId","type":"uint256","indexed":true,"internalType":"uint256"},{"name":"proofHash","type":"bytes32","indexed":false,"internalType":"bytes32"}],"anonymous":false},{"type":"event","name":"RenewalApproved","inputs":[{"name":"businessWallet","type":"address","indexed":true,"internalType":"address"},{"name":"newExpiresAt","type":"uint256","indexed":false,"internalType":"uint256"}],"anonymous":false},{"type":"event","name":"RenewalRequested","inputs":[{"name":"requestId","type":"uint256","indexed":true,"internalType":"uint256"},{"name":"businessWallet","type":"address","indexed":true,"internalType":"address"}],"anonymous":false},{"type":"event","name":"RequestCancelled","inputs":[{"name":"requestId","type":"uint256","indexed":true,"internalType":"uint256"}],"anonymous":false},{"type":"event","name":"RoleAdminChanged","inputs":[{"name":"role","type":"bytes32","indexed":true,"internalType":"bytes32"},{"name":"previousAdminRole","type":"bytes32","indexed":true,"internalType":"bytes32"},{"name":"newAdminRole","type":"bytes32","indexed":true,"internalType":"bytes32"}],"anonymous":false},{"type":"event","name":"RoleGranted","inputs":[{"name":"role","type":"bytes32","indexed":true,"internalType":"bytes32"},{"name":"account","type":"address","indexed":true,"internalType":"address"},{"name":"sender","type":"address","indexed":true,"internalType":"address"}],"anonymous":false},{"type":"event","name":"RoleRevoked","inputs":[{"name":"role","type":"bytes32","indexed":true,"internalType":"bytes32"},{"name":"account","type":"address","indexed":true,"internalType":"address"},{"name":"sender","type":"address","indexed":true,"internalType":"address"}],"anonymous":false},{"type":"event","name":"VerificationUpgraded","inputs":[{"name":"businessWallet","type":"address","indexed":true,"internalType":"address"},{"name":"oldLevel","type":"uint8","indexed":false,"internalType":"enum KYBRegistry.VerificationLevel"},{"name":"newLevel","type":"uint8","indexed":false,"internalType":"enum KYBRegistry.VerificationLevel"}],"anonymous":false},{"type":"error","name":"AccessControlBadConfirmation","inputs":[]},{"type":"error","name":"AccessControlUnauthorizedAccount","inputs":[{"name":"account","type":"address","internalType":"address"},{"name":"neededRole","type":"bytes32","internalType":"bytes32"}]},{"type":"error","name":"CannotDowngradeLevel","inputs":[]},{"type":"error","name":"InsufficientProofs","inputs":[]},{"type":"error","name":"InvalidJurisdiction","inputs":[]},{"type":"error","name":"InvalidVerificationLevel","inputs":[]},{"type":"error","name":"KYBAlreadyExists","inputs":[]},{"type":"error","name":"KYBExpired","inputs":[]},{"type":"error","name":"KYBIsRevoked","inputs":[]},{"type":"error","name":"KYBIsSuspended","inputs":[]},{"type":"error","name":"KYBNotFound","inputs":[]},{"type":"error","name":"KYBNotPending","inputs":[]},{"type":"error","name":"KYBNotVerified","inputs":[]},{"type":"error","name":"NotRequestOwner","inputs":[]},{"type":"error","name":"RequestNotFound","inputs":[]},{"type":"error","name":"RequestNotPending","inputs":[]},{"type":"error","name":"UnsupportedJurisdiction","inputs":[]}],"bytecode":{"object":"0x6080346200011957601f62002c5938819003918201601f191683019291906001600160401b038411838510176200011d5781602092849260409687528339810103126200011957516001600160a01b038116810362000119576200006c6301e133809182600b5562000131565b5060015f9181835260096020528184842055600283526003848420556003835260058484205560048352600584842055818352600a60205262ed4e00848420556002835280848420556003835283832055600482526303c267008383205561555360f01b82526005602052828083209260ff199383858254161790556123a160f11b8152818120838582541617905561534760f01b8152209182541617905551612a979081620001c28239f35b5f80fd5b634e487b7160e01b5f52604160045260245ffd5b6001600160a01b03165f8181527fad3228b676f7d3cd4284a5443f17f1962b36e491b30a40b2405849e597ba5fb5602052604081205490919060ff16620001bd57818052816020526040822081835260205260408220600160ff1982541617905533917f2f8788117e7eff1d82e926ec794901d17c78024a50270940304540a733656f0d8180a4600190565b509056fe6080806040526004361015610012575f80fd5b60e05f35811c91826301ffc9a714611cf9575081630a31909b14611c6e5781630dcf059314611c055781631736303414611bda5781631ce7d70114611ac157816320e2153514611a69578163211178b1146119fe578163228956901461195057816322ccb4741461180c5781632368664c146117bc578163248a9ca31461179057816327af2e0d146117775781632f2ff15d1461173b5781633015394c146116b257816336568abe1461166b5781634058823b146115e0578163417d050d1461156c5781634aa492471461154f57816350ff9618146114a9578163593e70d8146113a65781635a2d67c2146111685781637dad71e114610ca7575080637efbcf8914610c565780637efd2b1d14610c1c57806380a1f71214610b6a5780638e7d8d3314610a9a57806390ca8e3d14610a5c57806391d1485414610a14578063a217fddf146109fa578063abb382b5146109b0578063b154575814610964578063bcfd814e1461078a578063d1d4c169146105dc578063d2052e3f1461054f578063d547741f14610511578063e12514641461022b578063eb52781b146101fe5763fc2f6421146101c0575f80fd5b346101fa575f3660031901126101fa5760206040517f31e8e715a1ef9f558e5684d19702a0254058b704839dfdbcc98748bc0245f4c18152f35b5f80fd5b346101fa5760203660031901126101fa57602061022161021c611d4c565b612701565b6040519015158152f35b346101fa5760803660031901126101fa576004356001600160401b036024358181116101fa5761025f903690600401611f7d565b6044356001600160f01b031981169492908590036101fa576064358481116101fa5761028f903690600401611d78565b5050335f526020946004865260ff60405f2054166104ff57805f526005865260ff60405f205416156104ed57156104db576102cb60085461220d565b93846008556040516102dc81612237565b8581526102f887820193338552604083019587875236916122a9565b606082019081526080820142815260a08301915f83526040519661031b8861226d565b5f885260c08501978852895f5260038b5260405f20945185556001968786019060018060a01b039051166001600160601b0360a01b825416179055516002850155600384019051908151918683116104a1578b9061037984846122ff565b01905f528a5f20875f5b8481106104c9575050505050516004830155519060048210156104b5576103af60069260058301612341565b01925180519182116104a1576103cf826103c98654612359565b86612391565b8690601f8311600114610442579282939183925f94610437575b50501b915f199060031b1c19161790555b61040382612419565b604051908152817ffd478595129413bdc2f933ae136990dbafe0336b120125b49b28a18f0bc92490843393a3604051908152f35b0151925088806103e9565b90601f19831691855f5283895f20935f5b8b8883831061048a5750505010610472575b505050811b0190556103fa565b01515f1960f88460031b161c19169055868080610465565b868601518855909601959485019487935001610453565b634e487b7160e01b5f52604160045260245ffd5b634e487b7160e01b5f52602160045260245ffd5b8d845194019381840155018890610383565b60405163bf88944f60e01b8152600490fd5b604051630ef2e96160e31b8152600490fd5b6040516301984d7d60e11b8152600490fd5b346101fa5760403660031901126101fa5761054d600435610530611d62565b90805f525f602052610548600160405f2001546120fd565b61219a565b005b346101fa576020806003193601126101fa576001600160f01b0319610572611f66565b165f526006815260405f209060405190818184549182815201935f52815f20915f905b8282106105bc576105b8856105ac81890382612288565b60405191829182611fad565b0390f35b83546001600160a01b031686529485019460019384019390910190610595565b346101fa5760403660031901126101fa576001600160401b036004356024358281116101fa57610610903690600401611d78565b90610619611ff0565b825f526020936003855260405f2080541561077857600581019081549160ff831660048110156104b55761076657600260069360ff1916179055019083116104a15761066f836106698354612359565b83612391565b5f94601f84116001146106e35750827fdb17aec37b07d15a3da864aa9d80141998e4507b09bf88b5e053d35bd3c9801d94955f916106d8575b508360011b905f198560031b1c19161790555b6106c4846129b9565b6106d3604051928392836124f7565b0390a2005b9050820135866106a8565b601f19841695825f52815f20915f905b88821061074e575050847fdb17aec37b07d15a3da864aa9d80141998e4507b09bf88b5e053d35bd3c9801d969710610735575b5050600183811b0190556106bb565b8301355f19600386901b60f8161c191690558580610726565b806001849582949589013581550194019201906106f3565b60405163f41814a760e01b8152600490fd5b604051632589d98f60e11b8152600490fd5b346101fa576101003660031901126101fa576107a4611d4c565b6024359060058210156101fa5760c03660431901126101fa576107c5611ff0565b6001600160a01b03165f8181526004602052604090205490919060ff161561095257815f52600160205260405f20906003820160ff8154169060058210156104b557818311156109405782610819916124df565b600983019160443580151581036101fa57835490151560ff1660ff199190911617835560643580151581036101fa57835461ff00191690151560081b61ff001617835560843580151581036101fa57835462ff0000191690151560101b62ff00001617835560a43580151581036101fa57835463ff000000191690151560181b63ff0000001617835560c43580151581036101fa57835464ff00000000191690151560201b64ff000000001617835560e4359081151582036101fa577fe8c953392c735d10f1a0bd2053924603074af8c2cfd162c6f014b4d90d3a30109461092161093d936040969065ff0000000000825491151560281b169065ff00000000001916179055565b60074291015561093384518094611e1b565b6020830190611e1b565ba2005b604051630f66635560e11b8152600490fd5b604051637378e77760e01b8152600490fd5b346101fa5760403660031901126101fa5760043560058110156101fa576109896120c4565b801561099e5761099b60243591612455565b55005b6040516336159a5360e21b8152600490fd5b346101fa5760203660031901126101fa576004356109cc6120c4565b62015180908181029181830414901517156109e657600b55005b634e487b7160e01b5f52601160045260245ffd5b346101fa575f3660031901126101fa5760206040515f8152f35b346101fa5760403660031901126101fa57610a2d611d62565b6004355f525f60205260405f209060018060a01b03165f52602052602060ff60405f2054166040519015158152f35b346101fa5760203660031901126101fa576001600160f01b0319610a7e611f66565b165f526005602052602060ff60405f2054166040519015158152f35b346101fa5760403660031901126101fa57600435602435815f52600360205260405f208054156107785760018101546001600160a01b03163303610b585760ff60058201541660048110156104b5576107665760030190815490600160401b8210156104a15760018201808455821015610b4457806020927f7ea7f1357e2ddb50c43666e89ebeb6fd84f898238ee470868ddfa3886de91e43945f52835f200155604051908152a2005b634e487b7160e01b5f52603260045260245ffd5b60405163517907dd60e01b8152600490fd5b346101fa575f3660031901126101fa57604051806007548083526020809301809160075f527fa66cc928b5edb82af9bd49922954155ab7b0942694bea4ce44661d9a8736c688905f5b86828210610c08578686610bc982880383612288565b60405192839281840190828552518091526040840192915f5b828110610bf157505050500390f35b835185528695509381019392810192600101610be2565b835485529093019260019283019201610bb3565b346101fa575f3660031901126101fa5760206040517fa784fd1835a9a87fa27e7bde55bc15da74607bce9b3ea67395f02641b4abf72d8152f35b346101fa5760203660031901126101fa57620151806004358181029181159183041417156109e657610c88904261246c565b506105b8604051610c988161226d565b5f815260405191829182611fad565b346101fa576101203660031901126101fa57600560243510156101fa5760c03660431901126101fa576101043590610cdd611ff0565b6004355f52600360205260405f208054156107785760ff60058201541660048110156104b557610766576003810154610d17602435612455565b54116111565760018101546001600160a01b0316926201518080820291801590830490911417156109e657610d4c904261246c565b60028201549160405193610d5f8561221b565b85855260208501938452610d7560038301612479565b6040860152610d89602435606087016124c7565b5f6080860152604051610d9b8161226d565b5f815260a08601524260c08601528281860152426101008601526002610120860152604051610dc981612252565b6044351515604435036101fa5760443581526064351515606435036101fa5760643560208201526084351515608435036101fa57608435604082015260a435151560a435036101fa5760a435606082015260c435151560c435036101fa5760c435608082015260e435151560e435036101fa5760e43560a0820152610140860152855f52600160205260405f209360018060a01b038651166001600160601b0360a01b86541617855551600185015560408501518051906001600160401b0382116104a15760206002870191610e9f84846122ff565b01905f5260205f205f5b838110611142575050505060038401606086015160058110156104b557610ed090826124df565b608086015162ffff0082549160e81c169062ffff00191617905560a08501518051906001600160401b0382116104a1578190610f1c82610f1360048a0154612359565b60048a01612391565b602090601f83116001146110d4575f926110c9575b50508160011b915f199060031b1c19161760048501555b60c085015160058501558401516006840155610100840151600784015560088301936101208101519460068610156104b5577f3724773346d03602f873fa54f8aa3e9cfa28d18d0871de982391b8a617a433029561106a60059360a0610140600960409a60019760ff199760ff89835416911617905501920151610fdb81511515849060ff801983541691151516179055565b6020810151835461ff00191690151560081b61ff0016178355808a0151835462ff0000191690151560101b62ff0000161783556060810151835463ff000000191690151560181b63ff000000161783556080810151835464ff00000000191690151560201b64ff00000000161783550151815465ff0000000000191690151560281b65ff000000000016179055565b875f526004602052855f20828282541617905560028401545f526002602052855f20886001600160601b0360a01b8254161790558284015416179101556110b26004356129b9565b8151906110c182602435611e1b565b6020820152a2005b015190508880610f31565b9250600487015f5260205f20905f935b601f1984168510611127576001945083601f1981161061110f575b505050811b016004850155610f48565b01515f1960f88460031b161c191690558880806110ff565b818101518355602094850194600190930192909101906110e4565b600190602084519401938184015501610ea9565b604051635367f58960e11b8152600490fd5b346101fa576020806003193601126101fa576001600160401b036004358181116101fa5761119a903690600401611f7d565b9091335f526004845260ff60405f2054161561095257335f5260019081855260405f2093826111ca60085461220d565b958660085501546111f9604051926111e184612237565b878452888401963388526040850193845236916122a9565b60608301908152608083019042825260a08401925f84526040519761121d8961226d565b5f895260c08601988952895f5260038b5260405f20955186558786019060018060a01b039051166001600160601b0360a01b825416179055516002850155600384019051908151918683116104a1578a9061127884846122ff565b01905f52895f20875f5b848110611394575050505050516004830155519060048210156104b5576112ae60069260058301612341565b01925180519182116104a1576112c8826103c98654612359565b8590601f8311600114611335579282939183925f9461132a575b50501b915f199060031b1c19161790555b6112fc81612419565b6040519033817f74fb6555956a10e925a385db84f646254dbedccbd430783961e39df41b5cc6ae5f80a38152f35b0151925087806112e2565b90601f19831691855f5283885f20935f5b8a8883831061137d5750505010611365575b505050811b0190556112f3565b01515f1960f88460031b161c19169055858080611358565b868601518855909601959485019487935001611346565b8c845194019381840155018890611282565b346101fa5760203660031901126101fa576113bf6125ac565b506004355f908152600260205260409020546001600160a01b03908116918215610952576009611497916105b8945f52600160205260405f2090604051946114068661221b565b82541685526001820154602086015261142160028301612479565b6040860152600382015461143b60ff8216606088016124c7565b60e81b6001600160f01b031916608086015261145960048301612607565b60a0860152600582015460c0860152600682015490850152600781015461010085015261149160ff60088301541661012086016124d3565b016126a6565b61014082015260405191829182611e66565b346101fa5760203660031901126101fa576114c2611d4c565b6114ca61257b565b506001600160a01b03165f8181526004602052604090205460ff1615610952575f52600160205260c0611502600960405f20016126a6565b61154d604051809260a0809180511515845260208101511515602085015260408101511515604085015260608101511515606085015260808101511515608085015201511515910152565bf35b346101fa575f3660031901126101fa576020600b54604051908152f35b346101fa5760203660031901126101fa57611585611f66565b61158d612069565b6001600160f01b03191680156104db576020817f46aa0972e305f69f60def68a2c94a892462ac52e285b899f1aedc6effe6e8a37925f526005825260405f20600160ff19825416179055604051908152a1005b346101fa576115ee36611da5565b916115f7611ff0565b6001600160a01b03165f8181526004602052604090205490929060ff1615610952577f69feeb0204b76aa7dffba58e7d98d0f56b47945ab186a586d06530648b034e2091835f52600160205260405f2060088101600560ff198254161790556007429101556106d3604051928392836124f7565b346101fa5760403660031901126101fa57611684611d62565b336001600160a01b038216036116a05761054d9060043561219a565b60405163334bd91960e11b8152600490fd5b346101fa5760203660031901126101fa57600435805f52600360205260405f208054156107785760018101546001600160a01b03163303610b5857600501805460ff811660048110156104b5576107665760ff19166003179055611715816129b9565b7fee243f878b7fc2f54e934ca33783d4395d42bc07612e2bd4b8e0e178639f7a285f80a2005b346101fa5760403660031901126101fa5761054d60043561175a611d62565b90805f525f602052611772600160405f2001546120fd565b61211e565b346101fa57602061022161178a36611da5565b91612769565b346101fa5760203660031901126101fa576004355f525f6020526020600160405f200154604051908152f35b346101fa5760203660031901126101fa576001600160a01b036117dd611d4c565b16805f52600460205260ff60405f20541615610952575f5260016020526020600660405f200154604051908152f35b346101fa576020806003193601126101fa57600435606060c060405161183181612237565b5f81525f858201525f604082015282808201525f60808201525f60a08201520152805f526003825260405f205415610778575f526003815260405f20916040519261187b84612237565b8054845260018101546001600160a01b039081168486019081526002830154604087019081529192916118b060038401612479565b90606088019182526004840154946080890195865260ff6005860154169360a08a019560048610156104b55760066118ee9161192197895201612607565b9860c08b01998a526040519a818c5251908b01525116604089015251606088015251846080880152610100870190611de8565b915160a0860152519160048310156104b55784936105b89360c08601525190601f198584030190850152611e28565b346101fa5760203660031901126101fa57611969611d4c565b6119716120c4565b6001600160a01b03165f8181526004602052604090205460ff161561095257805f52600160205260405f2060088101805460ff811660068110156104b5576004036119ec5760029060ff19161790556007429101557ff3f2579d4b827e5f652c85d7053a64448b2a29939f44eb318bbfcd6df16db9a55f80a2005b60405163e76ea6cf60e01b8152600490fd5b346101fa5760203660031901126101fa577f6cd1702a02ed5bd44373f54682663299ba5a3337f19b21e18d6cb9b273802ada6020611a3a611f66565b611a42612069565b6001600160f01b0319165f81815260058352604090819020805460ff1916905551908152a1005b346101fa5760203660031901126101fa576001600160a01b03611a8a611d4c565b16805f52600460205260ff60405f20541615610952575f526001602052602060ff600360405f2001541661154d6040518092611e1b565b346101fa5760403660031901126101fa57602435600435611ae0611ff0565b805f52600360205260405f209182541561077857600583019160ff83541660048110156104b5576107665760018401546001600160a01b03165f8181526004602052604090205490949060ff161561095257845f52600160205260405f209162015180938481029481860414901517156109e6577f65649065a858a5e46be5f5aa5e1c3ee7c3cf3d3b43230f83d03c24e05e678707946001611bbe93611b886020974261246c565b958660068201554260078201556003600882019260ff1993600285825416179055018054611bc7575b50508254161790556129b9565b604051908152a2005b6002611bd3920161251e565b8980611bb1565b346101fa5760203660031901126101fa576020611bfd611bf8611d4c565b612938565b604051908152f35b346101fa5760203660031901126101fa57611c1e611d4c565b611c266125ac565b506001600160a01b039081165f8181526004602052604090205490929060ff1615610952576009611497916105b8945f52600160205260405f2090604051946114068661221b565b346101fa57611c7c36611da5565b91611c85611ff0565b6001600160a01b03165f8181526004602052604090205490929060ff1615610952577fe98424ad53c7597242b64d724a7343a2a28887944b5c8eba0dc3bfc867e1cb9a91835f52600160205260405f2060088101600460ff198254161790556007429101556106d3604051928392836124f7565b346101fa5760203660031901126101fa576004359063ffffffff60e01b82168092036101fa57602091637965db0b60e01b8114908115611d3b575b5015158152f35b6301ffc9a760e01b14905083611d34565b600435906001600160a01b03821682036101fa57565b602435906001600160a01b03821682036101fa57565b9181601f840112156101fa578235916001600160401b0383116101fa57602083818601950101116101fa57565b9060406003198301126101fa576004356001600160a01b03811681036101fa5791602435906001600160401b0382116101fa57611de491600401611d78565b9091565b9081518082526020808093019301915f5b828110611e07575050505090565b835185529381019392810192600101611df9565b9060058210156104b55752565b91908251928382525f5b848110611e52575050825f602080949584010152601f8019910116010190565b602081830181015184830182015201611e32565b906020825260018060a01b03815116602083015260208101516040830152611edb611ea260408301516102006060860152610220850190611de8565b611eb460608401516080860190611e1b565b61ffff60f01b60808401511660a085015260a0830151601f198583030160c0860152611e28565b9160c082015160e082015260e0820151610100908183015282015161012090818301528201519160068310156104b557611f6392610160916101409182850152015191019060a0809180511515845260208101511515602085015260408101511515604085015260608101511515606085015260808101511515608085015201511515910152565b90565b600435906001600160f01b0319821682036101fa57565b9181601f840112156101fa578235916001600160401b0383116101fa576020808501948460051b0101116101fa57565b602090816040818301928281528551809452019301915f5b828110611fd3575050505090565b83516001600160a01b031685529381019392810192600101611fc5565b335f9081527f137b710468b48e52e7fabac2cb725a9ac985215e83d78ad151129fc53cd00bda60205260409020547f31e8e715a1ef9f558e5684d19702a0254058b704839dfdbcc98748bc0245f4c19060ff161561204b5750565b6044906040519063e2517d3f60e01b82523360048301526024820152fd5b335f9081527f797b113a9f2476f9ecaa06f7987c63036ffa12e99cc8f7a8e16f3a75293e8e7a60205260409020547fa784fd1835a9a87fa27e7bde55bc15da74607bce9b3ea67395f02641b4abf72d9060ff161561204b5750565b335f9081527fad3228b676f7d3cd4284a5443f17f1962b36e491b30a40b2405849e597ba5fb5602052604081205460ff161561204b5750565b805f525f60205260405f20335f5260205260ff60405f2054161561204b5750565b905f9180835282602052604083209160018060a01b03169182845260205260ff604084205416155f1461219557808352826020526040832082845260205260408320600160ff198254161790557f2f8788117e7eff1d82e926ec794901d17c78024a50270940304540a733656f0d339380a4600190565b505090565b905f9180835282602052604083209160018060a01b03169182845260205260ff6040842054165f146121955780835282602052604083208284526020526040832060ff1981541690557ff6391f5c32d9c69d2a47ea670b442974b53935d1edc7fd64eb21e047a839171b339380a4600190565b5f1981146109e65760010190565b61016081019081106001600160401b038211176104a157604052565b60e081019081106001600160401b038211176104a157604052565b60c081019081106001600160401b038211176104a157604052565b602081019081106001600160401b038211176104a157604052565b90601f801991011681019081106001600160401b038211176104a157604052565b9092916001600160401b0384116104a1578360051b60405192602080946122d282850182612288565b80978152019181019283116101fa57905b8282106122f05750505050565b813581529083019083016122e3565b600160401b82116104a15780549180825582811061231c57505050565b5f9182526020822092830192015b82811061233657505050565b81815560010161232a565b9060048110156104b55760ff80198354169116179055565b90600182811c92168015612387575b602083101461237357565b634e487b7160e01b5f52602260045260245ffd5b91607f1691612368565b90601f811161239f57505050565b5f91825260208220906020601f850160051c830194106123da575b601f0160051c01915b8281106123cf57505050565b8181556001016123c3565b90925082906123ba565b600754811015610b445760075f527fa66cc928b5edb82af9bd49922954155ab7b0942694bea4ce44661d9a8736c68801905f90565b600754600160401b8110156104a15761243b81600161245193016007556123e4565b819391549060031b91821b915f19901b19161790565b9055565b60058110156104b5575f52600960205260405f2090565b919082018092116109e657565b906040519182815491828252602092838301915f52835f20935f905b8282106124ad575050506124ab92500383612288565b565b855484526001958601958895509381019390910190612495565b60058210156104b55752565b60068210156104b55752565b9060058110156104b55760ff80198354169116179055565b90918060409360208452816020850152848401375f828201840152601f01601f1916010190565b818114612577578154916001600160401b0383116104a15761254083836122ff565b5f5260205f20905f5260205f208154915f925b848410612561575050505050565b6001809192019384549281850155019290612553565b5050565b6040519061258882612252565b8160a05f918281528260208201528260408201528260608201528260808201520152565b604051906125b98261221b565b815f80825280602083015260606040830152806060830152806080830152606060a08301528060c08301528060e08301528061010083015261012082015261014061260261257b565b910152565b9060405191825f82549261261a84612359565b9081845260019485811690815f146126835750600114612643575b50506124ab92500383612288565b909391505f52602090815f20935f915b81831061266b5750506124ab93508201015f80612635565b85548884018501529485019487945091830191612653565b9150506124ab94506020925060ff191682840152151560051b8201015f80612635565b906040516126b381612252565b60a081935460ff9081811615158452818160081c1615156020850152818160101c1615156040850152818160181c1615156060850152818160201c161515608085015260281c161515910152565b6001600160a01b03165f9081526004602052604081205460ff1615611f635760016020526040812060ff60088201541660068110156127555760020361275157600601544211611f635750600190565b5090565b634e487b7160e01b83526021600452602483fd5b915f9260018060a01b0316835260206004815260ff928360408620541615612924576001825260096040862001926001600160401b03811161291057604051906127bc601f8201601f1916850183612288565b80825283820192368282011161290c578188928692863783010152519020907f5206269cda5de79ddf40f1f068ef243220a44860a7dcf1d847a6e7cacabc3a618214612903577fed2597a243ca132682e1afad887011cd2eba84480987451654d5b7dfe987fc2082146128f7577f6858a15a4f479ad3a6491e75a48e6bccf0316083e38fb2f2102bbfb03452672d82146128eb577fdeb232e9424da89f56426f9b9aa44744a2bb409f1d94138a9c470b42a07bbfa582146128df577f158fb01f61a1be3d4602e3b6a6ddb567177c9ccc808880c5cb2e7cf02397b5a882146128d457507fa60da8d6db168c225b69889043c41d36e8f165efad379777af2480bcc6a03c1c146128ca57505090565b5460281c16919050565b9293505054901c1690565b50505460181c16919050565b50505460101c16919050565b50505460081c16919050565b50505416919050565b8780fd5b634e487b7160e01b86526041600452602486fd5b5050505090565b919082039182116109e657565b6001600160a01b03165f8181526004602052604081205490919060ff1615610952578152600160205260066040822001549042821061298557506129816201518091429061292b565b0490565b9061299462015180914261292b565b0490600160ff1b82146129a5570390565b634e487b7160e01b81526011600452602490fd5b6007908154915f5b8381106129cf575b50505050565b826129d9826123e4565b919054600392831b1c146129f657506129f19061220d565b6129c1565b939192505f19918281019081116109e65761243b612a16612a22926123e4565b905490871b1c926123e4565b905581548015612a4d57810192612a38846123e4565b81939154921b1b19169055555f8080806129c9565b634e487b7160e01b5f52603160045260245ffdfea26469706673582212205d7af245472b3f234d8a121c749e19d41da9da9c1bf9501ff3573b441b892e3664736f6c63430008140033","linkReferences":{}},"methodIdentifiers":{"DEFAULT_ADMIN_ROLE()":"a217fddf","JURISDICTION_MANAGER_ROLE()":"7efd2b1d","KYB_VERIFIER_ROLE()":"fc2f6421","addProof(uint256,bytes32)":"8e7d8d33","addSupportedJurisdiction(bytes2)":"417d050d","approveKYB(uint256,uint8,(bool,bool,bool,bool,bool,bool),uint256)":"7dad71e1","approveRenewal(uint256,uint256)":"1ce7d701","cancelRequest(uint256)":"3015394c","defaultValidityPeriod()":"4aa49247","getBusinessesByJurisdiction(bytes2)":"d2052e3f","getDaysUntilExpiry(address)":"17363034","getExpiringVerifications(uint256)":"7efbcf89","getKYBByHash(bytes32)":"593e70d8","getKYBData(address)":"0dcf0593","getKYBExpiry(address)":"2368664c","getPendingRequests()":"80a1f712","getProofFlags(address)":"50ff9618","getRoleAdmin(bytes32)":"248a9ca3","getVerificationLevel(address)":"20e21535","getVerificationRequest(uint256)":"22ccb474","grantRole(bytes32,address)":"2f2ff15d","hasRole(bytes32,address)":"91d14854","isJurisdictionSupported(bytes2)":"90ca8e3d","isKYBValid(address)":"eb52781b","isProofVerified(address,string)":"27af2e0d","reinstateKYB(address)":"22895690","rejectKYB(uint256,string)":"d1d4c169","removeSupportedJurisdiction(bytes2)":"211178b1","renounceRole(bytes32,address)":"36568abe","requestRenewal(bytes32[])":"5a2d67c2","revokeKYB(address,string)":"4058823b","revokeRole(bytes32,address)":"d547741f","setDefaultValidityPeriod(uint256)":"abb382b5","setMinimumProofsRequired(uint8,uint256)":"b1545758","submitKYB(bytes32,bytes32[],bytes2,string)":"e1251464","supportsInterface(bytes4)":"01ffc9a7","suspendKYB(address,string)":"0a31909b","upgradeVerificationLevel(address,uint8,(bool,bool,bool,bool,bool,bool))":"bcfd814e"},"id":42}