{"abi":[{"type":"constructor","inputs":[{"name":"_stablecoin","type":"address","internalType":"address"},{"name":"_invoiceToken","type":"address","internalType":"address"},{"name":"_admin","type":"address","internalType":"address"}],"stateMutability":"nonpayable"},{"type":"function","name":"DEFAULT_ADMIN_ROLE","inputs":[],"outputs":[{"name":"","type":"bytes32","internalType":"bytes32"}],"stateMutability":"view"},{"type":"function","name":"FEE_MANAGER_ROLE","inputs":[],"outputs":[{"name":"","type":"bytes32","internalType":"bytes32"}],"stateMutability":"view"},{"type":"function","name":"PAUSER_ROLE","inputs":[],"outputs":[{"name":"","type":"bytes32","internalType":"bytes32"}],"stateMutability":"view"},{"type":"function","name":"acceptOffer","inputs":[{"name":"offerId","type":"uint256","internalType":"uint256"}],"outputs":[],"stateMutability":"nonpayable"},{"type":"function","name":"buyNow","inputs":[{"name":"listingId","type":"uint256","internalType":"uint256"}],"outputs":[],"stateMutability":"nonpayable"},{"type":"function","name":"cancelAuction","inputs":[{"name":"auctionId","type":"uint256","internalType":"uint256"}],"outputs":[],"stateMutability":"nonpayable"},{"type":"function","name":"cancelListing","inputs":[{"name":"listingId","type":"uint256","internalType":"uint256"}],"outputs":[],"stateMutability":"nonpayable"},{"type":"function","name":"cancelOffer","inputs":[{"name":"offerId","type":"uint256","internalType":"uint256"}],"outputs":[],"stateMutability":"nonpayable"},{"type":"function","name":"collectedFees","inputs":[],"outputs":[{"name":"","type":"uint256","internalType":"uint256"}],"stateMutability":"view"},{"type":"function","name":"createAuction","inputs":[{"name":"invoiceId","type":"uint256","internalType":"uint256"},{"name":"startPrice","type":"uint256","internalType":"uint256"},{"name":"reservePrice","type":"uint256","internalType":"uint256"},{"name":"durationHours","type":"uint256","internalType":"uint256"}],"outputs":[{"name":"auctionId","type":"uint256","internalType":"uint256"}],"stateMutability":"nonpayable"},{"type":"function","name":"createListing","inputs":[{"name":"invoiceId","type":"uint256","internalType":"uint256"},{"name":"askPrice","type":"uint256","internalType":"uint256"},{"name":"minPrice","type":"uint256","internalType":"uint256"},{"name":"durationDays","type":"uint256","internalType":"uint256"}],"outputs":[{"name":"listingId","type":"uint256","internalType":"uint256"}],"stateMutability":"nonpayable"},{"type":"function","name":"endAuction","inputs":[{"name":"auctionId","type":"uint256","internalType":"uint256"}],"outputs":[],"stateMutability":"nonpayable"},{"type":"function","name":"getActiveAuctions","inputs":[],"outputs":[{"name":"","type":"uint256[]","internalType":"uint256[]"}],"stateMutability":"view"},{"type":"function","name":"getActiveListings","inputs":[],"outputs":[{"name":"","type":"uint256[]","internalType":"uint256[]"}],"stateMutability":"view"},{"type":"function","name":"getAuction","inputs":[{"name":"auctionId","type":"uint256","internalType":"uint256"}],"outputs":[{"name":"","type":"tuple","internalType":"struct InvoiceMarketplace.Auction","components":[{"name":"auctionId","type":"uint256","internalType":"uint256"},{"name":"invoiceId","type":"uint256","internalType":"uint256"},{"name":"seller","type":"address","internalType":"address"},{"name":"startPrice","type":"uint256","internalType":"uint256"},{"name":"reservePrice","type":"uint256","internalType":"uint256"},{"name":"highestBid","type":"uint256","internalType":"uint256"},{"name":"highestBidder","type":"address","internalType":"address"},{"name":"startedAt","type":"uint256","internalType":"uint256"},{"name":"endsAt","type":"uint256","internalType":"uint256"},{"name":"status","type":"uint8","internalType":"enum InvoiceMarketplace.AuctionStatus"}]}],"stateMutability":"view"},{"type":"function","name":"getEstimatedValue","inputs":[{"name":"invoiceId","type":"uint256","internalType":"uint256"}],"outputs":[{"name":"","type":"uint256","internalType":"uint256"}],"stateMutability":"view"},{"type":"function","name":"getImpliedYield","inputs":[{"name":"listingId","type":"uint256","internalType":"uint256"}],"outputs":[{"name":"","type":"uint256","internalType":"uint256"}],"stateMutability":"view"},{"type":"function","name":"getListing","inputs":[{"name":"listingId","type":"uint256","internalType":"uint256"}],"outputs":[{"name":"","type":"tuple","internalType":"struct InvoiceMarketplace.Listing","components":[{"name":"listingId","type":"uint256","internalType":"uint256"},{"name":"invoiceId","type":"uint256","internalType":"uint256"},{"name":"seller","type":"address","internalType":"address"},{"name":"askPrice","type":"uint256","internalType":"uint256"},{"name":"minPrice","type":"uint256","internalType":"uint256"},{"name":"listedAt","type":"uint256","internalType":"uint256"},{"name":"expiresAt","type":"uint256","internalType":"uint256"},{"name":"status","type":"uint8","internalType":"enum InvoiceMarketplace.ListingStatus"}]}],"stateMutability":"view"},{"type":"function","name":"getListingByInvoice","inputs":[{"name":"invoiceId","type":"uint256","internalType":"uint256"}],"outputs":[{"name":"","type":"tuple","internalType":"struct InvoiceMarketplace.Listing","components":[{"name":"listingId","type":"uint256","internalType":"uint256"},{"name":"invoiceId","type":"uint256","internalType":"uint256"},{"name":"seller","type":"address","internalType":"address"},{"name":"askPrice","type":"uint256","internalType":"uint256"},{"name":"minPrice","type":"uint256","internalType":"uint256"},{"name":"listedAt","type":"uint256","internalType":"uint256"},{"name":"expiresAt","type":"uint256","internalType":"uint256"},{"name":"status","type":"uint8","internalType":"enum InvoiceMarketplace.ListingStatus"}]}],"stateMutability":"view"},{"type":"function","name":"getListingsBySeller","inputs":[{"name":"seller","type":"address","internalType":"address"}],"outputs":[{"name":"","type":"uint256[]","internalType":"uint256[]"}],"stateMutability":"view"},{"type":"function","name":"getMarketStats","inputs":[],"outputs":[{"name":"totalVolume","type":"uint256","internalType":"uint256"},{"name":"totalTrades","type":"uint256","internalType":"uint256"},{"name":"activeListings","type":"uint256","internalType":"uint256"}],"stateMutability":"view"},{"type":"function","name":"getOffer","inputs":[{"name":"offerId","type":"uint256","internalType":"uint256"}],"outputs":[{"name":"","type":"tuple","internalType":"struct InvoiceMarketplace.Offer","components":[{"name":"offerId","type":"uint256","internalType":"uint256"},{"name":"listingId","type":"uint256","internalType":"uint256"},{"name":"buyer","type":"address","internalType":"address"},{"name":"offerPrice","type":"uint256","internalType":"uint256"},{"name":"offeredAt","type":"uint256","internalType":"uint256"},{"name":"expiresAt","type":"uint256","internalType":"uint256"},{"name":"status","type":"uint8","internalType":"enum InvoiceMarketplace.OfferStatus"}]}],"stateMutability":"view"},{"type":"function","name":"getOffersByBuyer","inputs":[{"name":"buyer","type":"address","internalType":"address"}],"outputs":[{"name":"","type":"uint256[]","internalType":"uint256[]"}],"stateMutability":"view"},{"type":"function","name":"getOffersByListing","inputs":[{"name":"listingId","type":"uint256","internalType":"uint256"}],"outputs":[{"name":"","type":"uint256[]","internalType":"uint256[]"}],"stateMutability":"view"},{"type":"function","name":"getRoleAdmin","inputs":[{"name":"role","type":"bytes32","internalType":"bytes32"}],"outputs":[{"name":"","type":"bytes32","internalType":"bytes32"}],"stateMutability":"view"},{"type":"function","name":"getTrade","inputs":[{"name":"tradeId","type":"uint256","internalType":"uint256"}],"outputs":[{"name":"","type":"tuple","internalType":"struct InvoiceMarketplace.Trade","components":[{"name":"tradeId","type":"uint256","internalType":"uint256"},{"name":"invoiceId","type":"uint256","internalType":"uint256"},{"name":"seller","type":"address","internalType":"address"},{"name":"buyer","type":"address","internalType":"address"},{"name":"price","type":"uint256","internalType":"uint256"},{"name":"protocolFee","type":"uint256","internalType":"uint256"},{"name":"tradeType","type":"uint8","internalType":"enum InvoiceMarketplace.TradeType"},{"name":"executedAt","type":"uint256","internalType":"uint256"}]}],"stateMutability":"view"},{"type":"function","name":"getTradeHistory","inputs":[{"name":"invoiceId","type":"uint256","internalType":"uint256"}],"outputs":[{"name":"","type":"tuple[]","internalType":"struct InvoiceMarketplace.Trade[]","components":[{"name":"tradeId","type":"uint256","internalType":"uint256"},{"name":"invoiceId","type":"uint256","internalType":"uint256"},{"name":"seller","type":"address","internalType":"address"},{"name":"buyer","type":"address","internalType":"address"},{"name":"price","type":"uint256","internalType":"uint256"},{"name":"protocolFee","type":"uint256","internalType":"uint256"},{"name":"tradeType","type":"uint8","internalType":"enum InvoiceMarketplace.TradeType"},{"name":"executedAt","type":"uint256","internalType":"uint256"}]}],"stateMutability":"view"},{"type":"function","name":"grantRole","inputs":[{"name":"role","type":"bytes32","internalType":"bytes32"},{"name":"account","type":"address","internalType":"address"}],"outputs":[],"stateMutability":"nonpayable"},{"type":"function","name":"hasRole","inputs":[{"name":"role","type":"bytes32","internalType":"bytes32"},{"name":"account","type":"address","internalType":"address"}],"outputs":[{"name":"","type":"bool","internalType":"bool"}],"stateMutability":"view"},{"type":"function","name":"instantSell","inputs":[{"name":"invoiceId","type":"uint256","internalType":"uint256"},{"name":"minAcceptablePrice","type":"uint256","internalType":"uint256"}],"outputs":[{"name":"price","type":"uint256","internalType":"uint256"}],"stateMutability":"nonpayable"},{"type":"function","name":"invoiceToken","inputs":[],"outputs":[{"name":"","type":"address","internalType":"contract InvoiceToken"}],"stateMutability":"view"},{"type":"function","name":"makeOffer","inputs":[{"name":"listingId","type":"uint256","internalType":"uint256"},{"name":"offerPrice","type":"uint256","internalType":"uint256"},{"name":"validityDays","type":"uint256","internalType":"uint256"}],"outputs":[{"name":"offerId","type":"uint256","internalType":"uint256"}],"stateMutability":"nonpayable"},{"type":"function","name":"maxListingDuration","inputs":[],"outputs":[{"name":"","type":"uint256","internalType":"uint256"}],"stateMutability":"view"},{"type":"function","name":"minListingDuration","inputs":[],"outputs":[{"name":"","type":"uint256","internalType":"uint256"}],"stateMutability":"view"},{"type":"function","name":"pause","inputs":[],"outputs":[],"stateMutability":"nonpayable"},{"type":"function","name":"paused","inputs":[],"outputs":[{"name":"","type":"bool","internalType":"bool"}],"stateMutability":"view"},{"type":"function","name":"placeBid","inputs":[{"name":"auctionId","type":"uint256","internalType":"uint256"},{"name":"bidAmount","type":"uint256","internalType":"uint256"}],"outputs":[],"stateMutability":"nonpayable"},{"type":"function","name":"protocolFeeBps","inputs":[],"outputs":[{"name":"","type":"uint256","internalType":"uint256"}],"stateMutability":"view"},{"type":"function","name":"rejectOffer","inputs":[{"name":"offerId","type":"uint256","internalType":"uint256"}],"outputs":[],"stateMutability":"nonpayable"},{"type":"function","name":"renounceRole","inputs":[{"name":"role","type":"bytes32","internalType":"bytes32"},{"name":"callerConfirmation","type":"address","internalType":"address"}],"outputs":[],"stateMutability":"nonpayable"},{"type":"function","name":"revokeRole","inputs":[{"name":"role","type":"bytes32","internalType":"bytes32"},{"name":"account","type":"address","internalType":"address"}],"outputs":[],"stateMutability":"nonpayable"},{"type":"function","name":"setMaxListingDuration","inputs":[{"name":"days_","type":"uint256","internalType":"uint256"}],"outputs":[],"stateMutability":"nonpayable"},{"type":"function","name":"setMinListingDuration","inputs":[{"name":"hours_","type":"uint256","internalType":"uint256"}],"outputs":[],"stateMutability":"nonpayable"},{"type":"function","name":"setProtocolFee","inputs":[{"name":"feeBps","type":"uint256","internalType":"uint256"}],"outputs":[],"stateMutability":"nonpayable"},{"type":"function","name":"stablecoin","inputs":[],"outputs":[{"name":"","type":"address","internalType":"contract IERC20"}],"stateMutability":"view"},{"type":"function","name":"supportsInterface","inputs":[{"name":"interfaceId","type":"bytes4","internalType":"bytes4"}],"outputs":[{"name":"","type":"bool","internalType":"bool"}],"stateMutability":"view"},{"type":"function","name":"unpause","inputs":[],"outputs":[],"stateMutability":"nonpayable"},{"type":"function","name":"updateListing","inputs":[{"name":"listingId","type":"uint256","internalType":"uint256"},{"name":"newAskPrice","type":"uint256","internalType":"uint256"},{"name":"newMinPrice","type":"uint256","internalType":"uint256"}],"outputs":[],"stateMutability":"nonpayable"},{"type":"function","name":"withdrawFees","inputs":[{"name":"to","type":"address","internalType":"address"}],"outputs":[],"stateMutability":"nonpayable"},{"type":"event","name":"AuctionCancelled","inputs":[{"name":"auctionId","type":"uint256","indexed":true,"internalType":"uint256"}],"anonymous":false},{"type":"event","name":"AuctionCreated","inputs":[{"name":"auctionId","type":"uint256","indexed":true,"internalType":"uint256"},{"name":"invoiceId","type":"uint256","indexed":true,"internalType":"uint256"},{"name":"startPrice","type":"uint256","indexed":false,"internalType":"uint256"}],"anonymous":false},{"type":"event","name":"AuctionEnded","inputs":[{"name":"auctionId","type":"uint256","indexed":true,"internalType":"uint256"},{"name":"sold","type":"bool","indexed":false,"internalType":"bool"},{"name":"finalPrice","type":"uint256","indexed":false,"internalType":"uint256"}],"anonymous":false},{"type":"event","name":"BidPlaced","inputs":[{"name":"auctionId","type":"uint256","indexed":true,"internalType":"uint256"},{"name":"bidder","type":"address","indexed":false,"internalType":"address"},{"name":"bidAmount","type":"uint256","indexed":false,"internalType":"uint256"}],"anonymous":false},{"type":"event","name":"InstantSale","inputs":[{"name":"invoiceId","type":"uint256","indexed":true,"internalType":"uint256"},{"name":"seller","type":"address","indexed":false,"internalType":"address"},{"name":"price","type":"uint256","indexed":false,"internalType":"uint256"}],"anonymous":false},{"type":"event","name":"ListingCancelled","inputs":[{"name":"listingId","type":"uint256","indexed":true,"internalType":"uint256"}],"anonymous":false},{"type":"event","name":"ListingCreated","inputs":[{"name":"listingId","type":"uint256","indexed":true,"internalType":"uint256"},{"name":"invoiceId","type":"uint256","indexed":true,"internalType":"uint256"},{"name":"seller","type":"address","indexed":false,"internalType":"address"},{"name":"askPrice","type":"uint256","indexed":false,"internalType":"uint256"}],"anonymous":false},{"type":"event","name":"ListingUpdated","inputs":[{"name":"listingId","type":"uint256","indexed":true,"internalType":"uint256"},{"name":"newAskPrice","type":"uint256","indexed":false,"internalType":"uint256"}],"anonymous":false},{"type":"event","name":"OfferAccepted","inputs":[{"name":"offerId","type":"uint256","indexed":true,"internalType":"uint256"}],"anonymous":false},{"type":"event","name":"OfferCancelled","inputs":[{"name":"offerId","type":"uint256","indexed":true,"internalType":"uint256"}],"anonymous":false},{"type":"event","name":"OfferMade","inputs":[{"name":"offerId","type":"uint256","indexed":true,"internalType":"uint256"},{"name":"listingId","type":"uint256","indexed":true,"internalType":"uint256"},{"name":"buyer","type":"address","indexed":false,"internalType":"address"},{"name":"offerPrice","type":"uint256","indexed":false,"internalType":"uint256"}],"anonymous":false},{"type":"event","name":"OfferRejected","inputs":[{"name":"offerId","type":"uint256","indexed":true,"internalType":"uint256"}],"anonymous":false},{"type":"event","name":"Paused","inputs":[{"name":"account","type":"address","indexed":false,"internalType":"address"}],"anonymous":false},{"type":"event","name":"ProtocolFeeCollected","inputs":[{"name":"amount","type":"uint256","indexed":false,"internalType":"uint256"}],"anonymous":false},{"type":"event","name":"RoleAdminChanged","inputs":[{"name":"role","type":"bytes32","indexed":true,"internalType":"bytes32"},{"name":"previousAdminRole","type":"bytes32","indexed":true,"internalType":"bytes32"},{"name":"newAdminRole","type":"bytes32","indexed":true,"internalType":"bytes32"}],"anonymous":false},{"type":"event","name":"RoleGranted","inputs":[{"name":"role","type":"bytes32","indexed":true,"internalType":"bytes32"},{"name":"account","type":"address","indexed":true,"internalType":"address"},{"name":"sender","type":"address","indexed":true,"internalType":"address"}],"anonymous":false},{"type":"event","name":"RoleRevoked","inputs":[{"name":"role","type":"bytes32","indexed":true,"internalType":"bytes32"},{"name":"account","type":"address","indexed":true,"internalType":"address"},{"name":"sender","type":"address","indexed":true,"internalType":"address"}],"anonymous":false},{"type":"event","name":"TradeExecuted","inputs":[{"name":"tradeId","type":"uint256","indexed":true,"internalType":"uint256"},{"name":"invoiceId","type":"uint256","indexed":true,"internalType":"uint256"},{"name":"seller","type":"address","indexed":false,"internalType":"address"},{"name":"buyer","type":"address","indexed":false,"internalType":"address"},{"name":"price","type":"uint256","indexed":false,"internalType":"uint256"}],"anonymous":false},{"type":"event","name":"Unpaused","inputs":[{"name":"account","type":"address","indexed":false,"internalType":"address"}],"anonymous":false},{"type":"error","name":"AccessControlBadConfirmation","inputs":[]},{"type":"error","name":"AccessControlUnauthorizedAccount","inputs":[{"name":"account","type":"address","internalType":"address"},{"name":"neededRole","type":"bytes32","internalType":"bytes32"}]},{"type":"error","name":"AddressEmptyCode","inputs":[{"name":"target","type":"address","internalType":"address"}]},{"type":"error","name":"AddressInsufficientBalance","inputs":[{"name":"account","type":"address","internalType":"address"}]},{"type":"error","name":"AuctionAlreadyEnded","inputs":[]},{"type":"error","name":"AuctionHasBids","inputs":[]},{"type":"error","name":"AuctionNotActive","inputs":[]},{"type":"error","name":"AuctionNotFound","inputs":[]},{"type":"error","name":"BidTooLow","inputs":[]},{"type":"error","name":"EnforcedPause","inputs":[]},{"type":"error","name":"ExpectedPause","inputs":[]},{"type":"error","name":"FailedInnerCall","inputs":[]},{"type":"error","name":"InsufficientPayment","inputs":[]},{"type":"error","name":"InvoiceExpired","inputs":[]},{"type":"error","name":"InvoiceNotEligible","inputs":[]},{"type":"error","name":"ListingExpired","inputs":[]},{"type":"error","name":"ListingNotActive","inputs":[]},{"type":"error","name":"ListingNotFound","inputs":[]},{"type":"error","name":"MarketplacePaused","inputs":[]},{"type":"error","name":"NotHighestBidder","inputs":[]},{"type":"error","name":"NotTokenOwner","inputs":[]},{"type":"error","name":"OfferBelowMinimum","inputs":[]},{"type":"error","name":"OfferExpired","inputs":[]},{"type":"error","name":"OfferNotFound","inputs":[]},{"type":"error","name":"OfferNotPending","inputs":[]},{"type":"error","name":"ReentrancyGuardReentrantCall","inputs":[]},{"type":"error","name":"SafeERC20FailedOperation","inputs":[{"name":"token","type":"address","internalType":"address"}]},{"type":"error","name":"TransferFailed","inputs":[]},{"type":"error","name":"ZeroAddress","inputs":[]},{"type":"error","name":"ZeroAmount","inputs":[]}],"bytecode":{"object":"0x60a0346200018157601f620038dd38819003918201601f1916830191906001600160401b0383118484101762000186578160609285926040958652833981010312620001815762000050826200019c565b916200006c8262000064602084016200019c565b92016200019c565b906001908180556002549060018060a01b0380961695861562000170578082161562000170578416156200015f57620000fa9495608052610100600160a81b039060081b169060018060a81b03191617600255606460035580600455601e600555806007558060085580600955600a55620000e781620001b1565b50620000f38162000231565b50620002d3565b505161354c908162000371823960805181818161047e01528181610517015281816105c40152818161098001528181610c9801528181610f150152818161123e015281816117f801528181611beb01528181611c410152818161240b015261252b0152f35b845163d92e233d60e01b8152600490fd5b855163d92e233d60e01b8152600490fd5b600080fd5b634e487b7160e01b600052604160045260246000fd5b51906001600160a01b03821682036200018157565b6001600160a01b031660008181527fad3228b676f7d3cd4284a5443f17f1962b36e491b30a40b2405849e597ba5fb5602052604081205490919060ff166200022d57818052816020526040822081835260205260408220600160ff198254161790553391600080516020620038bd8339815191528180a4600190565b5090565b6001600160a01b031660008181527ff7c9542c591017a21c74b6f3fab6263c7952fc0aaf9db4c22a2a04ddc7f8674f60205260408120549091907f65d7a28e3265b37a6474929f336521b332c1681b933f6cb9f3376673440d862a9060ff16620002ce57808352826020526040832082845260205260408320600160ff19825416179055600080516020620038bd833981519152339380a4600190565b505090565b6001600160a01b031660008181527f175e50102ecf9cfc73f21ab2786f3296b7cae96dee56a3f6a84b3c656d591ada60205260408120549091907f6c0757dc3e6b28b2580c03fd9e96c274acf4f99d91fbec9b418fa1d70604ff1c9060ff16620002ce57808352826020526040832082845260205260408320600160ff19825416179055600080516020620038bd833981519152339380a460019056fe608080604052600436101561001357600080fd5b600090813560e01c90816301ffc9a7146127315750806305db2f411461270857806308a0f32f146124a05780630dc9226314612481578063107a274a14612444578063164e68de146123cc5780631cb5ce911461231e578063248a9ca3146122f25780632db25e05146122af5780632f2ff15d14612272578063305a67a81461217e57806335659fb81461216057806336568abe146121185780633f4ba83a146120ad578063431f21da14611ddd5780634579268a14611cc7578063464b539114611c9a57806357c90de514611b395780635c975abb14611b16578063787dce3d14611a9557806378bd7935146119315780638456cb59146118d657806386b636d01461170957806386d71ee2146113e5578063873c5e60146112ff57806387c35bc01461128957806388b10c75146111bd5780639003adfe1461119f57806391b5a1331461117c57806391d1485414611131578063957d90d41461111357806396b5a75514611002578063a217fddf14610fe6578063acb5941c14610fc3578063b7faa16d14610f9c578063b9a2de3a14610be1578063c815729d14610899578063cf44b5d514610823578063d547741f146107e2578063d8cba2511461076f578063def050c514610751578063e210a72d1461056f578063e63ab1e914610546578063e9cbd82214610501578063ef706adf14610415578063f1263a26146103b0578063f6cf2a16146102f4578063fc27c7d61461026d5763ff4cd5b91461023c57600080fd5b3461026a578060031936011261026a5760606017546018546014549060405192835260208301526040820152f35b80fd5b503461026a576020806003193601126102f0576001600160a01b036102906127f4565b1682526013815260408220916040518092808554928381520194835280832092905b8282106102d9576102d5856102c981890382612b19565b604051918291826128c1565b0390f35b8354865294850194600193840193909101906102b2565b5080fd5b503461026a57610303366128fc565b90828452600b602052604084209081541561039e5760028201546001600160a01b0316330361038c5760ff60078301541661033d81612786565b61037a577f66bcde9f7aec9b81719a4fdec54cbafbf6c834d1f2f989d9cd2134dab8d0c0de9260048383600360209601550155604051908152a280f35b6040516366cb03e960e01b8152600490fd5b6040516359dc379f60e01b8152600490fd5b604051630fc87cc760e31b8152600490fd5b503461026a576020806003193601126102f05760043582526011815260408220916040518092808554928381520194835280832092905b8282106103fe576102d5856102c981890382612b19565b8354865294850194600193840193909101906103e7565b503461026a57602036600319011261026a57600435808252600c602052604082208054156104ef5760028101546001600160a01b0316330361038c57600681019081549060ff821660058110156104db576104c9576104a2926003809360ff19161790550154337f0000000000000000000000000000000000000000000000000000000000000000612f51565b7fc28b4aed030bfacc245c0501326e1beb8c0ef0d60e4edc21067fdeb52da2a7aa8280a280f35b6040516304efac9d60e01b8152600490fd5b634e487b7160e01b86526021600452602486fd5b604051636df5846d60e01b8152600490fd5b503461026a578060031936011261026a576040517f00000000000000000000000000000000000000000000000000000000000000006001600160a01b03168152602090f35b503461026a578060031936011261026a5760206040516000805160206134b78339815191528152f35b503461026a5761057e366128fc565b9190610588612db9565b818452602093600b85526040812080541561039e5760ff6007820154166105ae81612786565b61037a5760040154821061073f576105e88230337f0000000000000000000000000000000000000000000000000000000000000000612de4565b600854936105f585612ce2565b600855620151809081810291818304149015171561072b576106179042612d1a565b600660405161062581612afe565b868152878101928684526040820133815260608301878152608084019142835260a0850193845260c08501968888528b8952600c8d526040892095518655516001860155600285019060018060a01b0390511660018060a01b0319825416179055516003840155516004830155516005820155019051600581101561071757926106ff8660407f3b2a24777f28e9c99a6c31e1939554147f5cac067f06527c26a7619c1c6df5439561070c95839860ff8019835416911617905588815260118b526106f283838320612d75565b33815260138b5220612d75565b6040519182913383612d9e565b0390a3604051908152f35b634e487b7160e01b83526021600452602483fd5b634e487b7160e01b82526011600452602482fd5b604051637ade8a3360e11b8152600490fd5b503461026a578060031936011261026a576020600554604051908152f35b503461026a576020806003193601126102f0576001600160a01b036107926127f4565b1682526012815260408220916040518092808554928381520194835280832092905b8282106107cb576102d5856102c981890382612b19565b8354865294850194600193840193909101906107b4565b503461026a57604036600319011261026a5761081f60043561080261280f565b908084528360205261081a600160408620015461299a565b612a3e565b5080f35b503461026a578060031936011261026a57604051601580548083529083526020808301937f55f448fdea98c4d29eb340757ef0a66cd03dbb9538908a6a81d96026b71ec47592915b828210610882576102d5856102c981890382612b19565b83548652948501946001938401939091019061086b565b503461026a57602036600319011261026a576108b3612f2e565b6108bb612db9565b6004358152600c602052604081208054156104ef5760068101549060ff82166005811015610bcd576104c9576005810154421015610bbb5760018101548352600b6020526040832060028101549092906001600160a01b0316330361038c5760ff60078401541661092b81612786565b61037a5760038201546109a461271061094660035484612d07565b049260016109548585612dd7565b60ff199283168217600688015560078801805490931690911790915560028601546001600160a01b03167f0000000000000000000000000000000000000000000000000000000000000000612f51565b6109b082600654612d1a565b60065560018060a01b0360025460081c169360028401948660018060a01b038754169160018401928354823b15610bb757610a05928492836040518096819582946323b872dd60e01b84523060048501612cc0565b03925af18015610bac57610b94575b5050546002909101549454600a546001600160a01b039687169691909116949091610a3e83612ce2565b600a5560405192610a4e84612ac6565b8084528160208501528760408501528660608501528460808501528560a0850152600160c08501524260e085015280600052600e602052610a93846040600020613271565b816000526016602052604060002093845497600160401b891015610b7e5760018901808755891015610b68576000805160206134d783398151915299610b29610b3398610b006000805160206134f78339815191529560209d60019b6000528e6000209060031b01613271565b610b0c81601754612d1a565b601755610b1a601854612ce2565b60185560405193849384612cc0565b0390a30154613350565b604051906004357f9bd6b4fd288008520fd788a93304e5688a401aea817ea8140ecf1fb8648f31918680a28152a16001805580f35b634e487b7160e01b600052603260045260246000fd5b634e487b7160e01b600052604160045260246000fd5b610b9d90612ab3565b610ba8578638610a14565b8680fd5b6040513d84823e3d90fd5b8380fd5b604051639cb1308760e01b8152600490fd5b634e487b7160e01b84526021600452602484fd5b503461026a576020806003193601126102f05760043590610c00612f2e565b818352600d815260408320805415610f8a57600981019182549060ff8216610c2781612786565b610f785760088301544210610f78578586600585019384546004870154111580610f62575b15610e7b575050506001915490612710610c6860035484612d07565b04610c738184612dd7565b865460ff1916851790965560028501805490966001600160a01b0391610cbc919083167f0000000000000000000000000000000000000000000000000000000000000000612f51565b610cc882600654612d1a565b6006558060025460081c1660068701968a87848a54169201918254843b15610e7757610d0e948392836040518098819582946323b872dd60e01b84523060048501612cc0565b03925af1928315610e6a578493610e4d575b50505497541695541695600a5491610d3783612ce2565b600a5560405191610d4783612ac6565b83835280858401528760408401528860608401528560808401528160a0840152600260c08401524260e084015283600052600e8552610d8a836040600020613271565b80600052601685526040600020938454600160401b811015610b7e57888101808755811015610b68576000805160206134978339815191529a60409a610dfc89976000805160206134f7833981519152946000805160206134d78339815191529a600052896000209060031b01613271565b610e088a601754612d1a565b601755610e16601854612ce2565b601855610e288a8d5193849384612cc0565b0390a38651908152a15b610e3b866133fb565b83519215158352820152a26001805580f35b610e5991929350612ab3565b610e665781908a38610d20565b8980fd5b50604051903d90823e3d90fd5b8280fd5b60029060ff979295939697191617905560018060a01b0394878660025460081c16876002840154166001840154823b15610bb757610ed3928492836040518096819582946323b872dd60e01b84523060048501612cc0565b03925af18015610bac57610f40575b50509060008051602061349783398151915295600660409695949301541680610f0d575b5050610e32565b610f399154907f0000000000000000000000000000000000000000000000000000000000000000612f51565b3880610f06565b610f4f90969594939296612ab3565b610f5e57909192938738610ee2565b8780fd5b5060068601546001600160a01b03161515610c4c565b6040516334dc687f60e11b8152600490fd5b6040516307145c5f60e11b8152600490fd5b503461026a57602036600319011261026a576020610fbb6004356130e8565b604051908152f35b503461026a57602036600319011261026a57610fdd612916565b60043560055580f35b503461026a578060031936011261026a57602090604051908152f35b503461026a57602036600319011261026a57600435808252600d60205260408220805415610f8a5760028101546001600160a01b0391908216330361038c57600981019182549060ff821661105681612786565b610f785780600684015416611101578593600360019360ff191617905560025460081c1691015490803b15610e77576040516323b872dd60e01b815291839183918290849082906110ac90333060048501612cc0565b03925af18015610bac576110ed575b50506110c6816133fb565b7f2809c7e17bf978fbc7194c0a694b638c4215e9140cacc6c38ca36010b45697df8280a280f35b6110f690612ab3565b6102f05781386110bb565b6040516335473acb60e01b8152600490fd5b503461026a578060031936011261026a576020600454604051908152f35b503461026a57604036600319011261026a57604061114d61280f565b91600435815280602052209060018060a01b0316600052602052602060ff604060002054166040519015158152f35b503461026a57602036600319011261026a57611196612916565b60043560045580f35b503461026a578060031936011261026a576020600654604051908152f35b503461026a57602036600319011261026a57600435808252600c602052604082208054156104ef576006810190815460ff811660058110156104db576104c95760018201548552600b60205260408520600201546001600160a01b03908116330361038c5761126293600260039360ff1916179055600283015416910154907f0000000000000000000000000000000000000000000000000000000000000000612f51565b7facb9cd98d41dc8854281172ab2a764d949b62b51776edd911f85376ed2eca64b8280a280f35b503461026a578060031936011261026a57604051601480548083529083526020808301937fce6d7b5282bd9a3661ae061feed1dbda4e52ab073b1f9285be6e155d9c38d4ec92915b8282106112e8576102d5856102c981890382612b19565b8354865294850194600193840193909101906112d1565b503461026a576020908160031936011261026a5760043581526016825260408120805490926001600160401b0382116113d15791929060405190611348848260051b0183612b19565b8082528382018093865284862086915b8383106113aa57505050506040519280840191818552518092526040840192945b8281106113865784840385f35b909192826101008261139b6001948a5161282f565b01960191019492919094611379565b6008876001926113be859b9a98999b613078565b8152019201920191909694939596611358565b634e487b7160e01b83526041600452602483fd5b503461026a576113f43661288d565b92919093611400612db9565b81156116f75760018060a01b038060025460081c1695604051966331a9108f60e11b88528560048901526020978881602481855afa9081156116b35785916116be575b50833391160361038c57604051631d11e60560e11b8152600481018790528481602481855afa9081156116b3578591611691575b5061010081015142101561167f576101c00151600a81101561166b5760030361165957803b15610bb7578360405180926323b872dd60e01b82528183816114c38c303360048501612cc0565b03925af1801561164e5790849161163a575b5050600754956114e487612ce2565b600755620151809081810291818304149015171561162657926115aa866007838a96876040978b8f6115196115c39d42612d1a565b948b51986115268a612ac6565b858a52828a01908152600b8d8b019333855260608c0195865260808c0196875260a08c019742895260c08d01998a5260e08d019a808c5252528c8c2099518a555160018a01556002890191511660018060a01b031982541617905551600387015551600486015551600585015551600684015551916115a483612786565b01612d27565b858152600f885282828220553381526012885220612d75565b60145490600160401b821015610b7e5761070c7f8093adc67e6531e4dcb9f96fe66947096b91ad10573e8136f8ef1a1cebe2fad6916106ff8661160d866001839801601455612d3f565b90919082549060031b91821b91600019901b1916179055565b634e487b7160e01b84526011600452602484fd5b61164390612ab3565b610e775782386114d5565b6040513d86823e3d90fd5b60405163065b1a9f60e51b8152600490fd5b634e487b7160e01b85526021600452602485fd5b604051630f04e9cf60e41b8152600490fd5b6116ad91503d8087833e6116a58183612b19565b810190612b6b565b38611477565b6040513d87823e3d90fd5b90508881813d83116116f0575b6116d58183612b19565b810103126116ec576116e690612b3c565b38611443565b8480fd5b503d6116cb565b604051631f2a200560e01b8152600490fd5b503461026a57611718366128ab565b9091611722612f2e565b61172a612db9565b6002546040516331a9108f60e11b8152600481018590526020949160081c6001600160a01b0390811691908682602481865afa9182156116b357859261189f575b503391160361038c5761177d82612f78565b93841061188d5761271061179360035486612d07565b049261179f8486612dd7565b91803b156102f0578160405180926323b872dd60e01b82528183816117c98a303360048501612cc0565b03925af18015610bac57908794939291611871575b50509061181c6000805160206134d78339815191529492337f0000000000000000000000000000000000000000000000000000000000000000612f51565b61182882600654612d1a565b6006557ffee06552eafdd5bbb846eeb8072ba5c45069eedf2e28ac6d329a734cc46d19086040518061185b883383612d9e565b0390a2604051908152a160018055604051908152f35b819293945061187f90612ab3565b61026a5790818693926117de565b60405163cd1c886760e01b8152600490fd5b9091508681813d83116118cf575b6118b78183612b19565b810103126116ec576118c890612b3c565b903861176b565b503d6118ad565b503461026a578060031936011261026a576118ef612950565b6118f7612db9565b600160ff1960025416176002557f62e78cea01bee320cd4e420270b5ea74000d11b0c9f74754ebdbfc544b05a2586020604051338152a180f35b503461026a57602036600319011261026a5761014090610120604080519261195884612ae2565b80845280602085015280828501528060608501528060808501528060a08501528060c08501528060e0850152808361010095828782015201526004358152600d6020522060ff6009604051926119ad84612ae2565b805484526001810154602085015260028101546001600160a01b0390811660408601526003820154606086015260048201546080860152600582015460a086015260068201541660c0850152600781015460e0850152600881015486850152015416611a1881612786565b8282015260405192815184526020820151602085015260018060a01b036040830151166040850152606082015160608501526080820151608085015260a082015160a085015260018060a01b0360c08301511660c085015260e082015160e085015280820151908401520151611a8d81612786565b610120820152f35b503461026a57602036600319011261026a573360009081527f175e50102ecf9cfc73f21ab2786f3296b7cae96dee56a3f6a84b3c656d591ada60205260409020546000805160206134778339815191529060ff1615611af8575060043560035580f35b6044906040519063e2517d3f60e01b82523360048301526024820152fd5b503461026a578060031936011261026a57602060ff600254166040519015158152f35b503461026a57611b48366128ab565b611b50612f2e565b611b58612db9565b818352600d6020526040832090815415610f8a5760ff600983015416611b7d81612786565b610f78576008820154421015611c88576005820180549091908015611c7e57805b821115611c6c5781611c319360067f0e54eff26401bf69b81b26f60bd85ef47f5d85275c1d268d84f68d6897431c4796019260018060a01b038454169081611c3b575b5050611c0f8230337f0000000000000000000000000000000000000000000000000000000000000000612de4565b5580546001600160a01b03191633908117909155604051928392909183612d9e565b0390a26001805580f35b611c65917f0000000000000000000000000000000000000000000000000000000000000000612f51565b3880611be1565b604051635069375b60e11b8152600490fd5b6003840154611b9e565b60405163d02e774d60e01b8152600490fd5b503461026a578060031936011261026a5760025460405160089190911c6001600160a01b03168152602090f35b503461026a57602036600319011261026a578060c0604051611ce881612afe565b8281528260208201528260408201528260608201528260808201528260a082015201526004358152600c6020526040812060405190611d2682612afe565b805482526001810154906020830191825260018060a01b03806002830154169060408501918252600383015490606086019182526004840154926080870193845260ff600660058701549660a08a019788520154169560c08801966005811015611dc757875260405197518852516020880152511660408601525160608501525160808401525160a08301525160058110156107175760e0925060c0820152f35b634e487b7160e01b600052602160045260246000fd5b503461026a57611dec3661288d565b92919093611df8612db9565b6002546040516331a9108f60e11b815260048101859052602096916001600160a01b039160089190911c8216908881602481855afa9081156116b3578591612078575b50823391160361038c57604051631d11e60560e11b815260048101879052908482602481845afa9182156116b357859261205c575b50610100918281015142101561167f576101c00151600a8110156104db5760030361165957803b156116ec578460405180926323b872dd60e01b8252818381611ebe8d303360048501612cc0565b03925af180156116b357908591612048575b505060095496611edf88612ce2565b600955610e109081810291818304149015171561203457918891889594934290611f0891612d1a565b9160405194611f1686612ae2565b878652848601918a8352604087019133835260608801908b82526080890190815260a08901918a835260c08a01958b875260e08b01974289528b019889526101208b01998c8b528d8d52600d905260408c209a518b555160018b01558360028b0195511694600160a01b600190031995868254161790555160038a015551600489015551600588015560068701925116908254161790555160078401555160088301555190611fc482612786565b60090190611fd191612d27565b83815260108652604090205560155490600160401b821015610b7e57847fd6eddd1118d71820909c1197aa966dbc15ed6f508554252169cc3d5ccac756ca916120258661160d866001839801601555612d5a565b604051908152a3604051908152f35b634e487b7160e01b85526011600452602485fd5b61205190612ab3565b610bb7578338611ed0565b6120719192503d8087833e6116a58183612b19565b9038611e70565b90508881813d83116120a6575b61208f8183612b19565b810103126116ec576120a090612b3c565b38611e3b565b503d612085565b503461026a578060031936011261026a576120c6612950565b60025460ff8116156121065760ff19166002557f5db9ee0a495bf2e6ff9c91a7834c1ba4fdd244a5e8aa4e537bd38aeae4b073aa6020604051338152a180f35b604051638dfc202b60e01b8152600490fd5b503461026a57604036600319011261026a5761213261280f565b336001600160a01b0382160361214e5761081f90600435612a3e565b60405163334bd91960e11b8152600490fd5b503461026a578060031936011261026a576020600354604051908152f35b503461026a57602036600319011261026a57600435808252600b6020526040822080541561039e5760028101546001600160a01b0391908216330361038c57600781019182549060ff82166121d281612786565b61037a578593600260019360ff191617905560025460081c1691015490803b15610e77576040516323b872dd60e01b8152918391839182908490829061221d90333060048501612cc0565b03925af18015610bac5761225e575b505061223781613350565b7f411aee90354c51b1b04cd563fcab2617142a9d50da19232d888547c8a1b7fd8a8280a280f35b61226790612ab3565b6102f057813861222c565b503461026a57604036600319011261026a5761081f60043561229261280f565b90808452836020526122aa600160408620015461299a565b6129c0565b503461026a57602036600319011261026a576122e36040610100926122d261303a565b506004358152600e60205220613078565b6122f0604051809261282f565bf35b503461026a57602036600319011261026a57600160406020926004358152808452200154604051908152f35b503461026a57602036600319011261026a5760406102d59161233e61303a565b506004358152600f602052818120548152600b6020522060ff60076040519261236684612ac6565b805484526001810154602085015260028101546001600160a01b031660408501526003810154606085015260048101546080850152600581015460a0850152600681015460c08501520154166123bb81612786565b60e082015260405191829182612790565b503461026a57602036600319011261026a576123e66127f4565b6123ee612916565b6001600160a01b038116156124325761242f9060065490836006557f0000000000000000000000000000000000000000000000000000000000000000612f51565b80f35b60405163d92e233d60e01b8152600490fd5b503461026a57602036600319011261026a5760406102d59161246461303a565b506004358152600b6020522060ff60076040519261236684612ac6565b503461026a57602036600319011261026a576020610fbb600435612f78565b503461026a576020806003193601126102f057600435906124bf612f2e565b6124c7612db9565b818352600b81526040832080541561039e57600781019081549360ff85166124ee81612786565b61037a5760068201544210156126f65760038201549461271061251360035488612d07565b049360016125218689612dd7565b9260ff19161790557f00000000000000000000000000000000000000000000000000000000000000009261257385600283019561256a60018060a01b0395868954163384612de4565b30903390612de4565b8760018360025460081c169201918254813b15610e775782916125ae916040519485809481936323b872dd60e01b8352333060048501612cc0565b03925af180156126eb576126d8575b505492541691600a546125cf81612ce2565b600a55604051936125df85612ac6565b81855282878601528060408601523360608601528760808601528560a0860152600060c08601524260e086015281600052600e8752612622856040600020613271565b8260005260168752604060002097885491600160401b831015610b7e5760018301808b55831015610b68576126856126ca976000805160206134f7833981519152946000805160206134d78339815191529c6000528b6000209060031b01613271565b61269182601754612d1a565b60175561269f601854612ce2565b6018556126b3604051928392339084612cc0565b0390a36126c283600654612d1a565b600655613350565b604051908152a16001805580f35b6126e490989198612ab3565b96386125bd565b6040513d8b823e3d90fd5b604051631cc67e8160e11b8152600490fd5b503461026a578060031936011261026a5760206040516000805160206134778339815191528152f35b9050346102f05760203660031901126102f05760043563ffffffff60e01b8116809103610e775760209250637965db0b60e01b8114908115612775575b5015158152f35b6301ffc9a760e01b1490503861276e565b60041115611dc757565b91909160e080610100830194805184526020810151602085015260018060a01b036040820151166040850152606081015160608501526080810151608085015260a081015160a085015260c081015160c08501520151916127f083612786565b0152565b600435906001600160a01b038216820361280a57565b600080fd5b602435906001600160a01b038216820361280a57565b60031115611dc757565b60e08091805184526020810151602085015260018060a01b0380604083015116604086015260608201511660608501526080810151608085015260a081015160a085015260c081015161288181612825565b60c08501520151910152565b608090600319011261280a5760043590602435906044359060643590565b604090600319011261280a576004359060243590565b6020908160408183019282815285518094520193019160005b8281106128e8575050505090565b8351855293810193928101926001016128da565b606090600319011261280a57600435906024359060443590565b3360009081527fad3228b676f7d3cd4284a5443f17f1962b36e491b30a40b2405849e597ba5fb5602052604081205460ff1615611af85750565b3360009081527ff7c9542c591017a21c74b6f3fab6263c7952fc0aaf9db4c22a2a04ddc7f8674f60205260409020546000805160206134b78339815191529060ff1615611af85750565b80600052600060205260406000203360005260205260ff6040600020541615611af85750565b9060009180835282602052604083209160018060a01b03169182845260205260ff60408420541615600014612a3957808352826020526040832082845260205260408320600160ff198254161790557f2f8788117e7eff1d82e926ec794901d17c78024a50270940304540a733656f0d339380a4600190565b505090565b9060009180835282602052604083209160018060a01b03169182845260205260ff604084205416600014612a395780835282602052604083208284526020526040832060ff1981541690557ff6391f5c32d9c69d2a47ea670b442974b53935d1edc7fd64eb21e047a839171b339380a4600190565b6001600160401b038111610b7e57604052565b61010081019081106001600160401b03821117610b7e57604052565b61014081019081106001600160401b03821117610b7e57604052565b60e081019081106001600160401b03821117610b7e57604052565b601f909101601f19168101906001600160401b03821190821017610b7e57604052565b51906001600160a01b038216820361280a57565b6001600160401b038111610b7e57601f01601f191660200190565b90602090818382031261280a5782516001600160401b039384821161280a5701916101e093848484031261280a5760405194850185811082821117610b7e5760405283518552612bbc828501612b3c565b8286015260408401516040860152606084015190811161280a57830182601f8201121561280a57805190612bef82612b50565b93612bfd6040519586612b19565b82855283838301011161280a5760005b828110612cad575050906000918301015260608301526080810151608083015260a081015160a083015260c081015160c083015260e081015160e083015261010080820151908301526101208082015190830152610140808201519083015261016080820151908301526101808082015190600382101561280a578301526101a080820151908301526101c08091015190600a82101561280a5782015290565b8181018401518582018501528301612c0d565b6001600160a01b03918216815291166020820152604081019190915260600190565b6000198114612cf15760010190565b634e487b7160e01b600052601160045260246000fd5b81810292918115918404141715612cf157565b91908201809211612cf157565b90612d3181612786565b60ff80198354169116179055565b601454811015610b6857601460005260206000200190600090565b601554811015610b6857601560005260206000200190600090565b805490600160401b821015610b7e5760018201808255821015610b685760005260206000200155565b6001600160a01b039091168152602081019190915260400190565b60ff60025416612dc557565b60405163d93c066560e01b8152600490fd5b91908203918211612cf157565b90612e1a90612e0c612e1f956040519586936323b872dd60e01b602086015260248501612cc0565b03601f198101845283612b19565b612e21565b565b60018060a01b031690612e6b600080836020829551910182875af13d15612ec3573d90612e4d82612b50565b91612e5b6040519384612b19565b82523d84602084013e5b84612ecb565b908151918215159283612e9b575b505050612e835750565b60249060405190635274afe760e01b82526004820152fd5b8192935090602091810103126102f057602001519081159182150361026a5750388080612e79565b606090612e65565b90612ef25750805115612ee057805190602001fd5b604051630a12f52160e11b8152600490fd5b81511580612f25575b612f03575090565b604051639996b31560e01b81526001600160a01b039091166004820152602490fd5b50803b15612efb565b600260015414612f3f576002600155565b604051633ee5aeb560e01b8152600490fd5b612e1a612e1f9392612e0c60405194859263a9059cbb60e01b602085015260248401612d9e565b600254604051631d11e60560e11b815260048101929092526000919082908290602490829060081c6001600160a01b03165afa908115610bac578291613020575b5061010081015142811115612a395761300962015180612fde6237b1d0934290612dd7565b04613004612ffe6101806080870151960151612ff981612825565b613305565b85612d07565b612d07565b049081811115612a395761301d9250612dd7565b90565b61303491503d8084833e6116a58183612b19565b38612fb9565b6040519061304782612ac6565b8160e06000918281528260208201528260408201528260608201528260808201528260a08201528260c08201520152565b9060405161308581612ac6565b60e060078294805484526001810154602085015260018060a01b03806002830154166040860152600382015416606085015260048101546080850152600581015460a085015260ff6006820154166130dc81612825565b60c08501520154910152565b6000908152600b6020526040812060405161310281612ac6565b8154815260018201546020820190815260028301546001600160a01b03908116604084015260038401546060840190815260048501546080850152600585015460a0850152600685015460c08501526007909401549192859260ff1661316781612786565b60e0820152511561326a5760025460081c169151602460405180948193631d11e60560e11b835260048301525afa90811561325f578391613245575b506101008101514281111561323f576131c162015180914290612dd7565b0490811561323f5760800151825180821115613236576131e091612dd7565b915b61016d92838102938185041481151715612034576237b1d00292808404612710149015171561162657906132169151612d07565b91821561322257500490565b634e487b7160e01b81526012600452602490fd5b505082916131e2565b50505090565b61325991503d8085833e6116a58183612b19565b386131a3565b6040513d85823e3d90fd5b5050505090565b815181556020820151600182015560408201516002820180546001600160a01b039283166001600160a01b03199182161790915560608401516003840180549190931691161790556080820151600482015560a0820151600582015560c0820151909160079160e0919060068501906132e981612825565b6132f281612825565b60ff801983541691161790550151910155565b61330e81612825565b80156133495761331d81612825565b600181146133425780613331600292612825565b1461333c576109c490565b61070890565b506104b090565b5061032090565b60005b60148054808310156133f5578361336984612d3f565b919054600392831b1c146133885750505061338390612ce2565b613353565b9193506000199290838101908111612cf1576133b5926133aa61160d92612d3f565b9054911b1c91612d3f565b815480156133df5701906133dc6133cb83612d3f565b8154906000199060031b1b19169055565b55565b634e487b7160e01b600052603160045260246000fd5b50505050565b60005b60158054808310156133f5578361341484612d5a565b919054600392831b1c146134335750505061342e90612ce2565b6133fe565b9193506000199290838101908111612cf1576134609261345561160d92612d5a565b9054911b1c91612d5a565b815480156133df5701906133dc6133cb83612d5a56fe6c0757dc3e6b28b2580c03fd9e96c274acf4f99d91fbec9b418fa1d70604ff1ce70c80ed197cc24b6568c250a31b7165bdfda9fa8146853e441ffe35ce040bf965d7a28e3265b37a6474929f336521b332c1681b933f6cb9f3376673440d862a414d7d8eae12f648156e75499fc0a5a10aa84f2745c6f791b0453cb17f1e17fa8ef392564cc8983eb86cc25f1c01e805d7b2428c58345b9bff17e183926e76a9a26469706673582212207c5d09da25b9d478bab55978f7f76ffce3c099dd15f890fc69071e3ad4e19f4d64736f6c634300081400332f8788117e7eff1d82e926ec794901d17c78024a50270940304540a733656f0d","linkReferences":{}},"methodIdentifiers":{"DEFAULT_ADMIN_ROLE()":"a217fddf","FEE_MANAGER_ROLE()":"05db2f41","PAUSER_ROLE()":"e63ab1e9","acceptOffer(uint256)":"c815729d","buyNow(uint256)":"08a0f32f","cancelAuction(uint256)":"96b5a755","cancelListing(uint256)":"305a67a8","cancelOffer(uint256)":"ef706adf","collectedFees()":"9003adfe","createAuction(uint256,uint256,uint256,uint256)":"431f21da","createListing(uint256,uint256,uint256,uint256)":"86d71ee2","endAuction(uint256)":"b9a2de3a","getActiveAuctions()":"cf44b5d5","getActiveListings()":"87c35bc0","getAuction(uint256)":"78bd7935","getEstimatedValue(uint256)":"0dc92263","getImpliedYield(uint256)":"b7faa16d","getListing(uint256)":"107a274a","getListingByInvoice(uint256)":"1cb5ce91","getListingsBySeller(address)":"d8cba251","getMarketStats()":"ff4cd5b9","getOffer(uint256)":"4579268a","getOffersByBuyer(address)":"fc27c7d6","getOffersByListing(uint256)":"f1263a26","getRoleAdmin(bytes32)":"248a9ca3","getTrade(uint256)":"2db25e05","getTradeHistory(uint256)":"873c5e60","grantRole(bytes32,address)":"2f2ff15d","hasRole(bytes32,address)":"91d14854","instantSell(uint256,uint256)":"86b636d0","invoiceToken()":"464b5391","makeOffer(uint256,uint256,uint256)":"e210a72d","maxListingDuration()":"def050c5","minListingDuration()":"957d90d4","pause()":"8456cb59","paused()":"5c975abb","placeBid(uint256,uint256)":"57c90de5","protocolFeeBps()":"35659fb8","rejectOffer(uint256)":"88b10c75","renounceRole(bytes32,address)":"36568abe","revokeRole(bytes32,address)":"d547741f","setMaxListingDuration(uint256)":"acb5941c","setMinListingDuration(uint256)":"91b5a133","setProtocolFee(uint256)":"787dce3d","stablecoin()":"e9cbd822","supportsInterface(bytes4)":"01ffc9a7","unpause()":"3f4ba83a","updateListing(uint256,uint256,uint256)":"f6cf2a16","withdrawFees(address)":"164e68de"},"id":47}