{"abi":[{"type":"constructor","inputs":[{"name":"_stablecoin","type":"address","internalType":"address"},{"name":"_invoiceToken","type":"address","internalType":"address"},{"name":"_admin","type":"address","internalType":"address"}],"stateMutability":"nonpayable"},{"type":"function","name":"DEFAULT_ADMIN_ROLE","inputs":[],"outputs":[{"name":"","type":"bytes32","internalType":"bytes32"}],"stateMutability":"view"},{"type":"function","name":"FEE_MANAGER_ROLE","inputs":[],"outputs":[{"name":"","type":"bytes32","internalType":"bytes32"}],"stateMutability":"view"},{"type":"function","name":"PAUSER_ROLE","inputs":[],"outputs":[{"name":"","type":"bytes32","internalType":"bytes32"}],"stateMutability":"view"},{"type":"function","name":"acceptOffer","inputs":[{"name":"offerId","type":"uint256","internalType":"uint256"}],"outputs":[],"stateMutability":"nonpayable"},{"type":"function","name":"buyNow","inputs":[{"name":"listingId","type":"uint256","internalType":"uint256"}],"outputs":[],"stateMutability":"nonpayable"},{"type":"function","name":"cancelAuction","inputs":[{"name":"auctionId","type":"uint256","internalType":"uint256"}],"outputs":[],"stateMutability":"nonpayable"},{"type":"function","name":"cancelListing","inputs":[{"name":"listingId","type":"uint256","internalType":"uint256"}],"outputs":[],"stateMutability":"nonpayable"},{"type":"function","name":"cancelOffer","inputs":[{"name":"offerId","type":"uint256","internalType":"uint256"}],"outputs":[],"stateMutability":"nonpayable"},{"type":"function","name":"collectedFees","inputs":[],"outputs":[{"name":"","type":"uint256","internalType":"uint256"}],"stateMutability":"view"},{"type":"function","name":"createAuction","inputs":[{"name":"invoiceId","type":"uint256","internalType":"uint256"},{"name":"startPrice","type":"uint256","internalType":"uint256"},{"name":"reservePrice","type":"uint256","internalType":"uint256"},{"name":"durationHours","type":"uint256","internalType":"uint256"}],"outputs":[{"name":"auctionId","type":"uint256","internalType":"uint256"}],"stateMutability":"nonpayable"},{"type":"function","name":"createListing","inputs":[{"name":"invoiceId","type":"uint256","internalType":"uint256"},{"name":"askPrice","type":"uint256","internalType":"uint256"},{"name":"minPrice","type":"uint256","internalType":"uint256"},{"name":"durationDays","type":"uint256","internalType":"uint256"}],"outputs":[{"name":"listingId","type":"uint256","internalType":"uint256"}],"stateMutability":"nonpayable"},{"type":"function","name":"endAuction","inputs":[{"name":"auctionId","type":"uint256","internalType":"uint256"}],"outputs":[],"stateMutability":"nonpayable"},{"type":"function","name":"getActiveAuctions","inputs":[],"outputs":[{"name":"","type":"uint256[]","internalType":"uint256[]"}],"stateMutability":"view"},{"type":"function","name":"getActiveListings","inputs":[],"outputs":[{"name":"","type":"uint256[]","internalType":"uint256[]"}],"stateMutability":"view"},{"type":"function","name":"getAuction","inputs":[{"name":"auctionId","type":"uint256","internalType":"uint256"}],"outputs":[{"name":"","type":"tuple","internalType":"struct InvoiceMarketplace.Auction","components":[{"name":"auctionId","type":"uint256","internalType":"uint256"},{"name":"invoiceId","type":"uint256","internalType":"uint256"},{"name":"seller","type":"address","internalType":"address"},{"name":"startPrice","type":"uint256","internalType":"uint256"},{"name":"reservePrice","type":"uint256","internalType":"uint256"},{"name":"highestBid","type":"uint256","internalType":"uint256"},{"name":"highestBidder","type":"address","internalType":"address"},{"name":"startedAt","type":"uint256","internalType":"uint256"},{"name":"endsAt","type":"uint256","internalType":"uint256"},{"name":"status","type":"uint8","internalType":"enum InvoiceMarketplace.AuctionStatus"}]}],"stateMutability":"view"},{"type":"function","name":"getEstimatedValue","inputs":[{"name":"invoiceId","type":"uint256","internalType":"uint256"}],"outputs":[{"name":"","type":"uint256","internalType":"uint256"}],"stateMutability":"view"},{"type":"function","name":"getImpliedYield","inputs":[{"name":"listingId","type":"uint256","internalType":"uint256"}],"outputs":[{"name":"","type":"uint256","internalType":"uint256"}],"stateMutability":"view"},{"type":"function","name":"getListing","inputs":[{"name":"listingId","type":"uint256","internalType":"uint256"}],"outputs":[{"name":"","type":"tuple","internalType":"struct InvoiceMarketplace.Listing","components":[{"name":"listingId","type":"uint256","internalType":"uint256"},{"name":"invoiceId","type":"uint256","internalType":"uint256"},{"name":"seller","type":"address","internalType":"address"},{"name":"askPrice","type":"uint256","internalType":"uint256"},{"name":"minPrice","type":"uint256","internalType":"uint256"},{"name":"listedAt","type":"uint256","internalType":"uint256"},{"name":"expiresAt","type":"uint256","internalType":"uint256"},{"name":"status","type":"uint8","internalType":"enum InvoiceMarketplace.ListingStatus"}]}],"stateMutability":"view"},{"type":"function","name":"getListingByInvoice","inputs":[{"name":"invoiceId","type":"uint256","internalType":"uint256"}],"outputs":[{"name":"","type":"tuple","internalType":"struct InvoiceMarketplace.Listing","components":[{"name":"listingId","type":"uint256","internalType":"uint256"},{"name":"invoiceId","type":"uint256","internalType":"uint256"},{"name":"seller","type":"address","internalType":"address"},{"name":"askPrice","type":"uint256","internalType":"uint256"},{"name":"minPrice","type":"uint256","internalType":"uint256"},{"name":"listedAt","type":"uint256","internalType":"uint256"},{"name":"expiresAt","type":"uint256","internalType":"uint256"},{"name":"status","type":"uint8","internalType":"enum InvoiceMarketplace.ListingStatus"}]}],"stateMutability":"view"},{"type":"function","name":"getListingsBySeller","inputs":[{"name":"seller","type":"address","internalType":"address"}],"outputs":[{"name":"","type":"uint256[]","internalType":"uint256[]"}],"stateMutability":"view"},{"type":"function","name":"getMarketStats","inputs":[],"outputs":[{"name":"totalVolume","type":"uint256","internalType":"uint256"},{"name":"totalTrades","type":"uint256","internalType":"uint256"},{"name":"activeListings","type":"uint256","internalType":"uint256"}],"stateMutability":"view"},{"type":"function","name":"getOffer","inputs":[{"name":"offerId","type":"uint256","internalType":"uint256"}],"outputs":[{"name":"","type":"tuple","internalType":"struct InvoiceMarketplace.Offer","components":[{"name":"offerId","type":"uint256","internalType":"uint256"},{"name":"listingId","type":"uint256","internalType":"uint256"},{"name":"buyer","type":"address","internalType":"address"},{"name":"offerPrice","type":"uint256","internalType":"uint256"},{"name":"offeredAt","type":"uint256","internalType":"uint256"},{"name":"expiresAt","type":"uint256","internalType":"uint256"},{"name":"status","type":"uint8","internalType":"enum InvoiceMarketplace.OfferStatus"}]}],"stateMutability":"view"},{"type":"function","name":"getOffersByBuyer","inputs":[{"name":"buyer","type":"address","internalType":"address"}],"outputs":[{"name":"","type":"uint256[]","internalType":"uint256[]"}],"stateMutability":"view"},{"type":"function","name":"getOffersByListing","inputs":[{"name":"listingId","type":"uint256","internalType":"uint256"}],"outputs":[{"name":"","type":"uint256[]","internalType":"uint256[]"}],"stateMutability":"view"},{"type":"function","name":"getRoleAdmin","inputs":[{"name":"role","type":"bytes32","internalType":"bytes32"}],"outputs":[{"name":"","type":"bytes32","internalType":"bytes32"}],"stateMutability":"view"},{"type":"function","name":"getTrade","inputs":[{"name":"tradeId","type":"uint256","internalType":"uint256"}],"outputs":[{"name":"","type":"tuple","internalType":"struct InvoiceMarketplace.Trade","components":[{"name":"tradeId","type":"uint256","internalType":"uint256"},{"name":"invoiceId","type":"uint256","internalType":"uint256"},{"name":"seller","type":"address","internalType":"address"},{"name":"buyer","type":"address","internalType":"address"},{"name":"price","type":"uint256","internalType":"uint256"},{"name":"protocolFee","type":"uint256","internalType":"uint256"},{"name":"tradeType","type":"uint8","internalType":"enum InvoiceMarketplace.TradeType"},{"name":"executedAt","type":"uint256","internalType":"uint256"}]}],"stateMutability":"view"},{"type":"function","name":"getTradeHistory","inputs":[{"name":"invoiceId","type":"uint256","internalType":"uint256"}],"outputs":[{"name":"","type":"tuple[]","internalType":"struct InvoiceMarketplace.Trade[]","components":[{"name":"tradeId","type":"uint256","internalType":"uint256"},{"name":"invoiceId","type":"uint256","internalType":"uint256"},{"name":"seller","type":"address","internalType":"address"},{"name":"buyer","type":"address","internalType":"address"},{"name":"price","type":"uint256","internalType":"uint256"},{"name":"protocolFee","type":"uint256","internalType":"uint256"},{"name":"tradeType","type":"uint8","internalType":"enum InvoiceMarketplace.TradeType"},{"name":"executedAt","type":"uint256","internalType":"uint256"}]}],"stateMutability":"view"},{"type":"function","name":"grantRole","inputs":[{"name":"role","type":"bytes32","internalType":"bytes32"},{"name":"account","type":"address","internalType":"address"}],"outputs":[],"stateMutability":"nonpayable"},{"type":"function","name":"hasRole","inputs":[{"name":"role","type":"bytes32","internalType":"bytes32"},{"name":"account","type":"address","internalType":"address"}],"outputs":[{"name":"","type":"bool","internalType":"bool"}],"stateMutability":"view"},{"type":"function","name":"instantSell","inputs":[{"name":"invoiceId","type":"uint256","internalType":"uint256"},{"name":"minAcceptablePrice","type":"uint256","internalType":"uint256"}],"outputs":[{"name":"price","type":"uint256","internalType":"uint256"}],"stateMutability":"nonpayable"},{"type":"function","name":"invoiceToken","inputs":[],"outputs":[{"name":"","type":"address","internalType":"contract InvoiceToken"}],"stateMutability":"view"},{"type":"function","name":"makeOffer","inputs":[{"name":"listingId","type":"uint256","internalType":"uint256"},{"name":"offerPrice","type":"uint256","internalType":"uint256"},{"name":"validityDays","type":"uint256","internalType":"uint256"}],"outputs":[{"name":"offerId","type":"uint256","internalType":"uint256"}],"stateMutability":"nonpayable"},{"type":"function","name":"maxListingDuration","inputs":[],"outputs":[{"name":"","type":"uint256","internalType":"uint256"}],"stateMutability":"view"},{"type":"function","name":"minListingDuration","inputs":[],"outputs":[{"name":"","type":"uint256","internalType":"uint256"}],"stateMutability":"view"},{"type":"function","name":"pause","inputs":[],"outputs":[],"stateMutability":"nonpayable"},{"type":"function","name":"paused","inputs":[],"outputs":[{"name":"","type":"bool","internalType":"bool"}],"stateMutability":"view"},{"type":"function","name":"placeBid","inputs":[{"name":"auctionId","type":"uint256","internalType":"uint256"},{"name":"bidAmount","type":"uint256","internalType":"uint256"}],"outputs":[],"stateMutability":"nonpayable"},{"type":"function","name":"protocolFeeBps","inputs":[],"outputs":[{"name":"","type":"uint256","internalType":"uint256"}],"stateMutability":"view"},{"type":"function","name":"rejectOffer","inputs":[{"name":"offerId","type":"uint256","internalType":"uint256"}],"outputs":[],"stateMutability":"nonpayable"},{"type":"function","name":"renounceRole","inputs":[{"name":"role","type":"bytes32","internalType":"bytes32"},{"name":"callerConfirmation","type":"address","internalType":"address"}],"outputs":[],"stateMutability":"nonpayable"},{"type":"function","name":"revokeRole","inputs":[{"name":"role","type":"bytes32","internalType":"bytes32"},{"name":"account","type":"address","internalType":"address"}],"outputs":[],"stateMutability":"nonpayable"},{"type":"function","name":"setMaxListingDuration","inputs":[{"name":"days_","type":"uint256","internalType":"uint256"}],"outputs":[],"stateMutability":"nonpayable"},{"type":"function","name":"setMinListingDuration","inputs":[{"name":"hours_","type":"uint256","internalType":"uint256"}],"outputs":[],"stateMutability":"nonpayable"},{"type":"function","name":"setProtocolFee","inputs":[{"name":"feeBps","type":"uint256","internalType":"uint256"}],"outputs":[],"stateMutability":"nonpayable"},{"type":"function","name":"stablecoin","inputs":[],"outputs":[{"name":"","type":"address","internalType":"contract IERC20"}],"stateMutability":"view"},{"type":"function","name":"supportsInterface","inputs":[{"name":"interfaceId","type":"bytes4","internalType":"bytes4"}],"outputs":[{"name":"","type":"bool","internalType":"bool"}],"stateMutability":"view"},{"type":"function","name":"unpause","inputs":[],"outputs":[],"stateMutability":"nonpayable"},{"type":"function","name":"updateListing","inputs":[{"name":"listingId","type":"uint256","internalType":"uint256"},{"name":"newAskPrice","type":"uint256","internalType":"uint256"},{"name":"newMinPrice","type":"uint256","internalType":"uint256"}],"outputs":[],"stateMutability":"nonpayable"},{"type":"function","name":"withdrawFees","inputs":[{"name":"to","type":"address","internalType":"address"}],"outputs":[],"stateMutability":"nonpayable"},{"type":"event","name":"AuctionCancelled","inputs":[{"name":"auctionId","type":"uint256","indexed":true,"internalType":"uint256"}],"anonymous":false},{"type":"event","name":"AuctionCreated","inputs":[{"name":"auctionId","type":"uint256","indexed":true,"internalType":"uint256"},{"name":"invoiceId","type":"uint256","indexed":true,"internalType":"uint256"},{"name":"startPrice","type":"uint256","indexed":false,"internalType":"uint256"}],"anonymous":false},{"type":"event","name":"AuctionEnded","inputs":[{"name":"auctionId","type":"uint256","indexed":true,"internalType":"uint256"},{"name":"sold","type":"bool","indexed":false,"internalType":"bool"},{"name":"finalPrice","type":"uint256","indexed":false,"internalType":"uint256"}],"anonymous":false},{"type":"event","name":"BidPlaced","inputs":[{"name":"auctionId","type":"uint256","indexed":true,"internalType":"uint256"},{"name":"bidder","type":"address","indexed":false,"internalType":"address"},{"name":"bidAmount","type":"uint256","indexed":false,"internalType":"uint256"}],"anonymous":false},{"type":"event","name":"InstantSale","inputs":[{"name":"invoiceId","type":"uint256","indexed":true,"internalType":"uint256"},{"name":"seller","type":"address","indexed":false,"internalType":"address"},{"name":"price","type":"uint256","indexed":false,"internalType":"uint256"}],"anonymous":false},{"type":"event","name":"ListingCancelled","inputs":[{"name":"listingId","type":"uint256","indexed":true,"internalType":"uint256"}],"anonymous":false},{"type":"event","name":"ListingCreated","inputs":[{"name":"listingId","type":"uint256","indexed":true,"internalType":"uint256"},{"name":"invoiceId","type":"uint256","indexed":true,"internalType":"uint256"},{"name":"seller","type":"address","indexed":false,"internalType":"address"},{"name":"askPrice","type":"uint256","indexed":false,"internalType":"uint256"}],"anonymous":false},{"type":"event","name":"ListingUpdated","inputs":[{"name":"listingId","type":"uint256","indexed":true,"internalType":"uint256"},{"name":"newAskPrice","type":"uint256","indexed":false,"internalType":"uint256"}],"anonymous":false},{"type":"event","name":"OfferAccepted","inputs":[{"name":"offerId","type":"uint256","indexed":true,"internalType":"uint256"}],"anonymous":false},{"type":"event","name":"OfferCancelled","inputs":[{"name":"offerId","type":"uint256","indexed":true,"internalType":"uint256"}],"anonymous":false},{"type":"event","name":"OfferMade","inputs":[{"name":"offerId","type":"uint256","indexed":true,"internalType":"uint256"},{"name":"listingId","type":"uint256","indexed":true,"internalType":"uint256"},{"name":"buyer","type":"address","indexed":false,"internalType":"address"},{"name":"offerPrice","type":"uint256","indexed":false,"internalType":"uint256"}],"anonymous":false},{"type":"event","name":"OfferRejected","inputs":[{"name":"offerId","type":"uint256","indexed":true,"internalType":"uint256"}],"anonymous":false},{"type":"event","name":"Paused","inputs":[{"name":"account","type":"address","indexed":false,"internalType":"address"}],"anonymous":false},{"type":"event","name":"ProtocolFeeCollected","inputs":[{"name":"amount","type":"uint256","indexed":false,"internalType":"uint256"}],"anonymous":false},{"type":"event","name":"RoleAdminChanged","inputs":[{"name":"role","type":"bytes32","indexed":true,"internalType":"bytes32"},{"name":"previousAdminRole","type":"bytes32","indexed":true,"internalType":"bytes32"},{"name":"newAdminRole","type":"bytes32","indexed":true,"internalType":"bytes32"}],"anonymous":false},{"type":"event","name":"RoleGranted","inputs":[{"name":"role","type":"bytes32","indexed":true,"internalType":"bytes32"},{"name":"account","type":"address","indexed":true,"internalType":"address"},{"name":"sender","type":"address","indexed":true,"internalType":"address"}],"anonymous":false},{"type":"event","name":"RoleRevoked","inputs":[{"name":"role","type":"bytes32","indexed":true,"internalType":"bytes32"},{"name":"account","type":"address","indexed":true,"internalType":"address"},{"name":"sender","type":"address","indexed":true,"internalType":"address"}],"anonymous":false},{"type":"event","name":"TradeExecuted","inputs":[{"name":"tradeId","type":"uint256","indexed":true,"internalType":"uint256"},{"name":"invoiceId","type":"uint256","indexed":true,"internalType":"uint256"},{"name":"seller","type":"address","indexed":false,"internalType":"address"},{"name":"buyer","type":"address","indexed":false,"internalType":"address"},{"name":"price","type":"uint256","indexed":false,"internalType":"uint256"}],"anonymous":false},{"type":"event","name":"Unpaused","inputs":[{"name":"account","type":"address","indexed":false,"internalType":"address"}],"anonymous":false},{"type":"error","name":"AccessControlBadConfirmation","inputs":[]},{"type":"error","name":"AccessControlUnauthorizedAccount","inputs":[{"name":"account","type":"address","internalType":"address"},{"name":"neededRole","type":"bytes32","internalType":"bytes32"}]},{"type":"error","name":"AddressEmptyCode","inputs":[{"name":"target","type":"address","internalType":"address"}]},{"type":"error","name":"AddressInsufficientBalance","inputs":[{"name":"account","type":"address","internalType":"address"}]},{"type":"error","name":"AuctionAlreadyEnded","inputs":[]},{"type":"error","name":"AuctionHasBids","inputs":[]},{"type":"error","name":"AuctionNotActive","inputs":[]},{"type":"error","name":"AuctionNotFound","inputs":[]},{"type":"error","name":"BidTooLow","inputs":[]},{"type":"error","name":"EnforcedPause","inputs":[]},{"type":"error","name":"ExpectedPause","inputs":[]},{"type":"error","name":"FailedInnerCall","inputs":[]},{"type":"error","name":"InsufficientPayment","inputs":[]},{"type":"error","name":"InvoiceExpired","inputs":[]},{"type":"error","name":"InvoiceNotEligible","inputs":[]},{"type":"error","name":"ListingExpired","inputs":[]},{"type":"error","name":"ListingNotActive","inputs":[]},{"type":"error","name":"ListingNotFound","inputs":[]},{"type":"error","name":"MarketplacePaused","inputs":[]},{"type":"error","name":"NotHighestBidder","inputs":[]},{"type":"error","name":"NotTokenOwner","inputs":[]},{"type":"error","name":"OfferBelowMinimum","inputs":[]},{"type":"error","name":"OfferExpired","inputs":[]},{"type":"error","name":"OfferNotFound","inputs":[]},{"type":"error","name":"OfferNotPending","inputs":[]},{"type":"error","name":"ReentrancyGuardReentrantCall","inputs":[]},{"type":"error","name":"SafeERC20FailedOperation","inputs":[{"name":"token","type":"address","internalType":"address"}]},{"type":"error","name":"TransferFailed","inputs":[]},{"type":"error","name":"ZeroAddress","inputs":[]},{"type":"error","name":"ZeroAmount","inputs":[]}],"bytecode":{"object":"0x60a0346200018157601f6200397938819003918201601f1916830191906001600160401b03831184841017620001855781606092859260409586528339810103126200018157620000508262000199565b916200006c82620000646020840162000199565b920162000199565b906001908180556002549060018060a01b0380961695861562000170578082161562000170578416156200015f57620000fa9495608052610100600160a81b039060081b169060018060a81b03191617600255606460035580600455601e600555806007558060085580600955600a55620000e781620001ae565b50620000f3816200022c565b50620002cc565b50516135f1908162000368823960805181818161047b01528181610514015281816105d30152818161099d01528181610ce901528181610fc2015281816112ec015281816118b801528181611cbb01528181611d1a015281816124ee015261260e0152f35b845163d92e233d60e01b8152600490fd5b855163d92e233d60e01b8152600490fd5b5f80fd5b634e487b7160e01b5f52604160045260245ffd5b51906001600160a01b03821682036200018157565b6001600160a01b03165f8181527fad3228b676f7d3cd4284a5443f17f1962b36e491b30a40b2405849e597ba5fb5602052604081205490919060ff166200022857818052816020526040822081835260205260408220600160ff1982541617905533915f80516020620039598339815191528180a4600190565b5090565b6001600160a01b03165f8181527ff7c9542c591017a21c74b6f3fab6263c7952fc0aaf9db4c22a2a04ddc7f8674f60205260408120549091907f65d7a28e3265b37a6474929f336521b332c1681b933f6cb9f3376673440d862a9060ff16620002c757808352826020526040832082845260205260408320600160ff198254161790555f8051602062003959833981519152339380a4600190565b505090565b6001600160a01b03165f8181527f175e50102ecf9cfc73f21ab2786f3296b7cae96dee56a3f6a84b3c656d591ada60205260408120549091907f6c0757dc3e6b28b2580c03fd9e96c274acf4f99d91fbec9b418fa1d70604ff1c9060ff16620002c757808352826020526040832082845260205260408320600160ff198254161790555f8051602062003959833981519152339380a460019056fe6080806040526004361015610012575f80fd5b5f90813560e01c90816301ffc9a7146128445750806305db2f411461280957806308a0f32f146125835780630dc9226314612564578063107a274a14612527578063164e68de146124af5780631cb5ce9114612401578063248a9ca3146123d55780632db25e05146123925780632f2ff15d14612355578063305a67a81461225e57806335659fb81461224057806336568abe146121f85780633f4ba83a1461218d578063431f21da14611eb45780634579268a14611da0578063464b539114611d7357806357c90de514611c095780635c975abb14611be6578063787dce3d14611b5457806378bd7935146119f05780638456cb591461199557806386b636d0146117c257806386d71ee214611494578063873c5e60146113ad57806387c35bc01461133757806388b10c751461126b5780639003adfe1461124d57806391b5a1331461122a57806391d14854146111e1578063957d90d4146111c357806396b5a755146110af578063a217fddf14611093578063acb5941c14611070578063b7faa16d14611049578063b9a2de3a14610c32578063c815729d146108b6578063cf44b5d514610840578063d547741f146107ff578063d8cba2511461078c578063def050c51461076e578063e210a72d1461057e578063e63ab1e914610543578063e9cbd822146104fe578063ef706adf14610412578063f1263a26146103ad578063f6cf2a16146102f1578063fc27c7d61461026a5763ff4cd5b914610239575f80fd5b3461026757806003193601126102675760606017546018546014549060405192835260208301526040820152f35b80fd5b5034610267576020806003193601126102ed576001600160a01b0361028d612907565b1682526013815260408220916040518092808554928381520194835280832092905b8282106102d6576102d2856102c681890382612c35565b604051918291826129d3565b0390f35b8354865294850194600193840193909101906102af565b5080fd5b50346102675761030036612a0d565b90828452600b602052604084209081541561039b5760028201546001600160a01b031633036103895760ff60078301541661033a81612899565b610377577f66bcde9f7aec9b81719a4fdec54cbafbf6c834d1f2f989d9cd2134dab8d0c0de9260048383600360209601550155604051908152a280f35b6040516366cb03e960e01b8152600490fd5b6040516359dc379f60e01b8152600490fd5b604051630fc87cc760e31b8152600490fd5b5034610267576020806003193601126102ed5760043582526011815260408220916040518092808554928381520194835280832092905b8282106103fb576102d2856102c681890382612c35565b8354865294850194600193840193909101906103e4565b503461026757602036600319011261026757600435808252600c602052604082208054156104ec5760028101546001600160a01b0316330361038957600681019081549060ff821660058110156104d8576104c65761049f926003809360ff19161790550154337f0000000000000000000000000000000000000000000000000000000000000000613073565b7fc28b4aed030bfacc245c0501326e1beb8c0ef0d60e4edc21067fdeb52da2a7aa8280a280f35b6040516304efac9d60e01b8152600490fd5b634e487b7160e01b86526021600452602486fd5b604051636df5846d60e01b8152600490fd5b50346102675780600319360112610267576040517f00000000000000000000000000000000000000000000000000000000000000006001600160a01b03168152602090f35b503461026757806003193601126102675760206040517f65d7a28e3265b37a6474929f336521b332c1681b933f6cb9f3376673440d862a8152f35b50346102675761058d36612a0d565b9190610597612ec6565b818452602093600b85526040812080541561039b5760ff6007820154166105bd81612899565b6103775760040154821061075c576105f78230337f0000000000000000000000000000000000000000000000000000000000000000612ef1565b6008549361060485612ddb565b6008556201518090818102918183041490151715610748576106269042612e10565b600660405161063481612c19565b868152878101928684526040820133815260608301878152608084019142835260a0850193845260c08501968888528b8952600c8d526040892095518655516001860155600285019060018060a01b039051166001600160601b0360a01b825416179055516003840155516004830155516005820155019051600581101561073457926107118660407f3b2a24777f28e9c99a6c31e1939554147f5cac067f06527c26a7619c1c6df5439561072995839860ff8019835416911617905588815260118b5261070483838320612e9f565b33815260138b5220612e9f565b60408051338152602081019290925290918291820190565b0390a3604051908152f35b634e487b7160e01b83526021600452602483fd5b634e487b7160e01b82526011600452602482fd5b604051637ade8a3360e11b8152600490fd5b50346102675780600319360112610267576020600554604051908152f35b5034610267576020806003193601126102ed576001600160a01b036107af612907565b1682526012815260408220916040518092808554928381520194835280832092905b8282106107e8576102d2856102c681890382612c35565b8354865294850194600193840193909101906107d1565b50346102675760403660031901126102675761083c60043561081f612921565b90808452836020526108376001604086200154612abb565b612b58565b5080f35b5034610267578060031936011261026757604051601580548083529083526020808301937f55f448fdea98c4d29eb340757ef0a66cd03dbb9538908a6a81d96026b71ec47592915b82821061089f576102d2856102c681890382612c35565b835486529485019460019384019390910190610888565b5034610267576020366003190112610267576108d0613050565b6108d8612ec6565b6004358152600c602052604081208054156104ec5760068101549060ff82166005811015610c1e576104c6576005810154421015610c0c5760018101548352600b6020526040832060028101549092906001600160a01b031633036103895760ff60078401541661094881612899565b6103775760038201546109c161271061096360035484612dfd565b049260016109718585612ee4565b60ff199283168217600688015560078801805490931690911790915560028601546001600160a01b03167f0000000000000000000000000000000000000000000000000000000000000000613073565b6109cd82600654612e10565b60065560018060a01b0360025460081c169360028401948660018060a01b038754169160018401928354823b15610c08576040516323b872dd60e01b81523060048201526001600160a01b0392909216602483015260448201529082908290606490829084905af18015610bfd57610be5575b5050546002909101549454600a546001600160a01b039687169691909116949091610a6a83612ddb565b600a5560405192610a7a84612bdf565b8084528160208501528760408501528660608501528460808501528560a0850152600160c08501524260e0850152805f52600e602052610abd8460405f206133a2565b815f52601660205260405f2093845497600160401b891015610bd15760018901808755891015610bbd575f8051602061359c83398151915299610b7e610b8898610b377f8ef392564cc8983eb86cc25f1c01e805d7b2428c58345b9bff17e183926e76a99560209d60019b5f528e5f209060031b016133a2565b610b4381601754612e10565b601755610b51601854612ddb565b601855604080516001600160a01b0394851681529490931660208501529183019190915281906060820190565b0390a3015461347c565b604051906004357f9bd6b4fd288008520fd788a93304e5688a401aea817ea8140ecf1fb8648f31918680a28152a16001805580f35b634e487b7160e01b5f52603260045260245ffd5b634e487b7160e01b5f52604160045260245ffd5b610bee90612bcb565b610bf957865f610a40565b8680fd5b6040513d84823e3d90fd5b8380fd5b604051639cb1308760e01b8152600490fd5b634e487b7160e01b84526021600452602484fd5b5034610267576020806003193601126102ed5760043590610c51613050565b818352600d81526040832080541561103757600981019182549060ff8216610c7881612899565b611025576008830154421061102557858660058501938454600487015411158061100f575b15610f07575050506001915490612710610cb960035484612dfd565b04610cc48184612ee4565b865460ff1916851790965560028501805490966001600160a01b0391610d0d919083167f0000000000000000000000000000000000000000000000000000000000000000613073565b610d1982600654612e10565b6006558060025460081c1660068701968a87848a54169201918254843b15610f03576040516323b872dd60e01b81523060048201526001600160a01b0392909216602483015260448201529281908490606490829084905af1928315610ef6578493610ed9575b50505497541695541695600a5491610d9783612ddb565b600a5560405191610da783612bdf565b83835280858401528760408401528860608401528560808401528160a0840152600260c08401524260e0840152835f52600e8552610de88360405f206133a2565b805f526016855260405f20938454600160401b811015610bd157888101808755811015610bbd577fe70c80ed197cc24b6568c250a31b7165bdfda9fa8146853e441ffe35ce040bf99a60409a610e7989977f8ef392564cc8983eb86cc25f1c01e805d7b2428c58345b9bff17e183926e76a9945f8051602061359c8339815191529a5f52895f209060031b016133a2565b610e858a601754612e10565b601755610e93601854612ddb565b6018558b516001600160a01b0391821681529116602082015260408101899052606090a38651908152a15b610ec786613522565b83519215158352820152a26001805580f35b610ee591929350612bcb565b610ef25781908a5f610d80565b8980fd5b50604051903d90823e3d90fd5b8280fd5b60029060ff979295939697191617905560018060a01b0394878660025460081c16876002840154166001840154823b15610c08576040516323b872dd60e01b81523060048201526001600160a01b0392909216602483015260448201529082908290606490829084905af18015610bfd57610fed575b5050907fe70c80ed197cc24b6568c250a31b7165bdfda9fa8146853e441ffe35ce040bf995600660409695949301541680610fba575b5050610ebe565b610fe69154907f0000000000000000000000000000000000000000000000000000000000000000613073565b5f80610fb3565b610ffc90969594939296612bcb565b61100b5790919293875f610f7d565b8780fd5b5060068601546001600160a01b03161515610c9d565b6040516334dc687f60e11b8152600490fd5b6040516307145c5f60e11b8152600490fd5b503461026757602036600319011261026757602061106860043561321a565b604051908152f35b50346102675760203660031901126102675761108a612a27565b60043560055580f35b5034610267578060031936011261026757602090604051908152f35b503461026757602036600319011261026757600435808252600d602052604082208054156110375760028101546001600160a01b0391908216330361038957600981019182549060ff821661110381612899565b61102557806006840154166111b1578593600360019360ff191617905560025460081c1691015490803b15610f03576040516323b872dd60e01b8152306004820152336024820152604481019290925282908290606490829084905af18015610bfd5761119d575b505061117681613522565b7f2809c7e17bf978fbc7194c0a694b638c4215e9140cacc6c38ca36010b45697df8280a280f35b6111a690612bcb565b6102ed57815f61116b565b6040516335473acb60e01b8152600490fd5b50346102675780600319360112610267576020600454604051908152f35b50346102675760403660031901126102675760406111fd612921565b91600435815280602052209060018060a01b03165f52602052602060ff60405f2054166040519015158152f35b503461026757602036600319011261026757611244612a27565b60043560045580f35b50346102675780600319360112610267576020600654604051908152f35b503461026757602036600319011261026757600435808252600c602052604082208054156104ec576006810190815460ff811660058110156104d8576104c65760018201548552600b60205260408520600201546001600160a01b0390811633036103895761131093600260039360ff1916179055600283015416910154907f0000000000000000000000000000000000000000000000000000000000000000613073565b7facb9cd98d41dc8854281172ab2a764d949b62b51776edd911f85376ed2eca64b8280a280f35b5034610267578060031936011261026757604051601480548083529083526020808301937fce6d7b5282bd9a3661ae061feed1dbda4e52ab073b1f9285be6e155d9c38d4ec92915b828210611396576102d2856102c681890382612c35565b83548652948501946001938401939091019061137f565b5034610267576020908160031936011261026757600435815260168252604081209182549067ffffffffffffffff821161148057919290604051906113f7848260051b0183612c35565b8082528382018093865284862086915b83831061145957505050506040519280840191818552518092526040840192945b8281106114355784840385f35b909192826101008261144a6001948a51612941565b01960191019492919094611428565b60088760019261146d859b9a98999b6131aa565b8152019201920191909694939596611407565b634e487b7160e01b83526041600452602483fd5b5034610267576114a33661299f565b929190936114af612ec6565b81156117b05760018060a01b038060025460081c1695604051966331a9108f60e11b88528560048901526020978881602481855afa90811561176c578591611777575b50833391160361038957604051631d11e60560e11b8152600481018790528481602481855afa90811561176c57859161174a575b50610100810151421015611738576101c00151600a8110156117245760030361171257803b15610c08576040516323b872dd60e01b8152336004820152306024820152604481018790529084908290606490829084905af18015611707579084916116f3575b50506007549561159b87612ddb565b60075562015180908181029181830414901517156116df5792611664866007838a96876040978b8f6115d061167d9d42612e10565b948b51986115dd8a612bdf565b858a52828a01908152600b8d8b019333855260608c0195865260808c0196875260a08c019742895260c08d01998a5260e08d019a808c5252528c8c2099518a555160018a0155600289019151166001600160601b0360a01b825416179055516003870155516004860155516005850155516006840155519161165e83612899565b01612e1d565b858152600f885282828220553381526012885220612e9f565b60145490600160401b821015610bd1576107297f8093adc67e6531e4dcb9f96fe66947096b91ad10573e8136f8ef1a1cebe2fad691610711866116c7866001839801601455612e35565b90919082549060031b91821b915f19901b1916179055565b634e487b7160e01b84526011600452602484fd5b6116fc90612bcb565b610f0357825f61158c565b6040513d86823e3d90fd5b60405163065b1a9f60e51b8152600490fd5b634e487b7160e01b85526021600452602485fd5b604051630f04e9cf60e41b8152600490fd5b61176691503d8087833e61175e8183612c35565b810190612c87565b5f611526565b6040513d87823e3d90fd5b90508881813d83116117a9575b61178e8183612c35565b810103126117a55761179f90612c57565b5f6114f2565b8480fd5b503d611784565b604051631f2a200560e01b8152600490fd5b5034610267576117d1366129bd565b90916117db613050565b6117e3612ec6565b6002546040516331a9108f60e11b8152600481018590526020949160081c6001600160a01b0390811691908682602481865afa91821561176c57859261195e575b503391160361038957611836826130ac565b93841061194c5761271061184c60035486612dfd565b04926118588486612ee4565b91803b156102ed576040516323b872dd60e01b8152336004820152306024820152604481018590529082908290606490829084905af18015610bfd57908794939291611930575b5050906118dc5f8051602061359c8339815191529492337f0000000000000000000000000000000000000000000000000000000000000000613073565b6118e882600654612e10565b60065560408051338152602081018790527ffee06552eafdd5bbb846eeb8072ba5c45069eedf2e28ac6d329a734cc46d19089190a2604051908152a160018055604051908152f35b819293945061193e90612bcb565b61026757908186939261189f565b60405163cd1c886760e01b8152600490fd5b9091508681813d831161198e575b6119768183612c35565b810103126117a55761198790612c57565b905f611824565b503d61196c565b50346102675780600319360112610267576119ae612a60565b6119b6612ec6565b600160ff1960025416176002557f62e78cea01bee320cd4e420270b5ea74000d11b0c9f74754ebdbfc544b05a2586020604051338152a180f35b503461026757602036600319011261026757610140906101206040805192611a1784612bfc565b80845280602085015280828501528060608501528060808501528060a08501528060c08501528060e0850152808361010095828782015201526004358152600d6020522060ff600960405192611a6c84612bfc565b805484526001810154602085015260028101546001600160a01b0390811660408601526003820154606086015260048201546080860152600582015460a086015260068201541660c0850152600781015460e0850152600881015486850152015416611ad781612899565b8282015260405192815184526020820151602085015260018060a01b036040830151166040850152606082015160608501526080820151608085015260a082015160a085015260018060a01b0360c08301511660c085015260e082015160e085015280820151908401520151611b4c81612899565b610120820152f35b503461026757602036600319011261026757335f9081527f175e50102ecf9cfc73f21ab2786f3296b7cae96dee56a3f6a84b3c656d591ada60205260409020547f6c0757dc3e6b28b2580c03fd9e96c274acf4f99d91fbec9b418fa1d70604ff1c9060ff1615611bc8575060043560035580f35b6044906040519063e2517d3f60e01b82523360048301526024820152fd5b5034610267578060031936011261026757602060ff600254166040519015158152f35b503461026757611c18366129bd565b611c20613050565b611c28612ec6565b818352600d60205260408320908154156110375760ff600983015416611c4d81612899565b611025576008820154421015611d61576005820180549091908015611d5757805b821115611d455781611d0a9360067f0e54eff26401bf69b81b26f60bd85ef47f5d85275c1d268d84f68d6897431c4796019260018060a01b038454169081611d14575b5050611cdf8230337f0000000000000000000000000000000000000000000000000000000000000000612ef1565b5580546001600160a01b03191633908117909155604080519182526020820192909252918291820190565b0390a26001805580f35b611d3e917f0000000000000000000000000000000000000000000000000000000000000000613073565b5f80611cb1565b604051635069375b60e11b8152600490fd5b6003840154611c6e565b60405163d02e774d60e01b8152600490fd5b503461026757806003193601126102675760025460405160089190911c6001600160a01b03168152602090f35b5034610267576020366003190112610267578060c0604051611dc181612c19565b8281528260208201528260408201528260608201528260808201528260a082015201526004358152600c6020526040812060405190611dff82612c19565b805482526001810154906020830191825260018060a01b03806002830154169060408501918252600383015490606086019182526004840154926080870193845260ff600660058701549660a08a019788520154169560c08801966005811015611ea057875260405197518852516020880152511660408601525160608501525160808401525160a08301525160058110156107345760e0925060c0820152f35b634e487b7160e01b5f52602160045260245ffd5b503461026757611ec33661299f565b92919093611ecf612ec6565b6002546040516331a9108f60e11b815260048101859052602096916001600160a01b039160089190911c8216908881602481855afa90811561176c578591612158575b50823391160361038957604051631d11e60560e11b815260048101879052908482602481845afa91821561176c57859261213c575b506101009182810151421015611738576101c00151600a8110156104d85760030361171257803b156117a5576040516323b872dd60e01b8152336004820152306024820152604481018890529085908290606490829084905af1801561176c57908591612128575b505060095496611fbe88612ddb565b600955610e109081810291818304149015171561211457918891889594934290611fe791612e10565b9160405194611ff586612bfc565b878652848601918a8352604087019133835260608801908b82526080890190815260a08901918a835260c08a01958b875260e08b01974289528b019889526101208b01998c8b528d8d52600d905260408c209a518b555160018b01558360028b01955116946001600160601b0360a01b95868254161790555160038a0155516004890155516005880155600687019251169082541617905551600784015551600883015551906120a482612899565b600901906120b191612e1d565b83815260108652604090205560155490600160401b821015610bd157847fd6eddd1118d71820909c1197aa966dbc15ed6f508554252169cc3d5ccac756ca91612105866116c7866001839801601555612e6a565b604051908152a3604051908152f35b634e487b7160e01b85526011600452602485fd5b61213190612bcb565b610c0857835f611faf565b6121519192503d8087833e61175e8183612c35565b905f611f47565b90508881813d8311612186575b61216f8183612c35565b810103126117a55761218090612c57565b5f611f12565b503d612165565b50346102675780600319360112610267576121a6612a60565b60025460ff8116156121e65760ff19166002557f5db9ee0a495bf2e6ff9c91a7834c1ba4fdd244a5e8aa4e537bd38aeae4b073aa6020604051338152a180f35b604051638dfc202b60e01b8152600490fd5b503461026757604036600319011261026757612212612921565b336001600160a01b0382160361222e5761083c90600435612b58565b60405163334bd91960e11b8152600490fd5b50346102675780600319360112610267576020600354604051908152f35b503461026757602036600319011261026757600435808252600b6020526040822080541561039b5760028101546001600160a01b0391908216330361038957600781019182549060ff82166122b281612899565b610377578593600260019360ff191617905560025460081c1691015490803b15610f03576040516323b872dd60e01b8152306004820152336024820152604481019290925282908290606490829084905af18015610bfd57612341575b505061231a8161347c565b7f411aee90354c51b1b04cd563fcab2617142a9d50da19232d888547c8a1b7fd8a8280a280f35b61234a90612bcb565b6102ed57815f61230f565b50346102675760403660031901126102675761083c600435612375612921565b908084528360205261238d6001604086200154612abb565b612adc565b5034610267576020366003190112610267576123c66040610100926123b561316d565b506004358152600e602052206131aa565b6123d36040518092612941565bf35b503461026757602036600319011261026757600160406020926004358152808452200154604051908152f35b50346102675760203660031901126102675760406102d29161242161316d565b506004358152600f602052818120548152600b6020522060ff60076040519261244984612bdf565b805484526001810154602085015260028101546001600160a01b031660408501526003810154606085015260048101546080850152600581015460a0850152600681015460c085015201541661249e81612899565b60e0820152604051918291826128a3565b5034610267576020366003190112610267576124c9612907565b6124d1612a27565b6001600160a01b03811615612515576125129060065490836006557f0000000000000000000000000000000000000000000000000000000000000000613073565b80f35b60405163d92e233d60e01b8152600490fd5b50346102675760203660031901126102675760406102d29161254761316d565b506004358152600b6020522060ff60076040519261244984612bdf565b50346102675760203660031901126102675760206110686004356130ac565b5034610267576020806003193601126102ed57600435906125a2613050565b6125aa612ec6565b818352600b81526040832080541561039b57600781019081549360ff85166125d181612899565b6103775760068201544210156127f7576003820154946127106125f660035488612dfd565b049360016126048689612ee4565b9260ff19161790557f00000000000000000000000000000000000000000000000000000000000000009261265685600283019561264d60018060a01b0395868954163384612ef1565b30903390612ef1565b8760018360025460081c169201918254813b15610f03576040516323b872dd60e01b8152306004820152336024820152604481019190915291908290606490829084905af180156127ec576127d9575b505492541691600a546126b881612ddb565b600a55604051936126c885612bdf565b81855282878601528060408601523360608601528760808601528560a08601525f60c08601524260e0860152815f52600e87526127088560405f206133a2565b825f526016875260405f2097885491600160401b831015610bd15760018301808b55831015610bbd576127786127cb977f8ef392564cc8983eb86cc25f1c01e805d7b2428c58345b9bff17e183926e76a9945f8051602061359c8339815191529c5f528b5f209060031b016133a2565b61278482601754612e10565b601755612792601854612ddb565b601855604080516001600160a01b03929092168252336020830152810191909152606090a36127c383600654612e10565b60065561347c565b604051908152a16001805580f35b6127e590989198612bcb565b965f6126a6565b6040513d8b823e3d90fd5b604051631cc67e8160e11b8152600490fd5b503461026757806003193601126102675760206040517f6c0757dc3e6b28b2580c03fd9e96c274acf4f99d91fbec9b418fa1d70604ff1c8152f35b9050346102ed5760203660031901126102ed5760043563ffffffff60e01b8116809103610f035760209250637965db0b60e01b8114908115612888575b5015158152f35b6301ffc9a760e01b1490505f612881565b60041115611ea057565b91909160e080610100830194805184526020810151602085015260018060a01b036040820151166040850152606081015160608501526080810151608085015260a081015160a085015260c081015160c085015201519161290383612899565b0152565b600435906001600160a01b038216820361291d57565b5f80fd5b602435906001600160a01b038216820361291d57565b60031115611ea057565b60e08091805184526020810151602085015260018060a01b0380604083015116604086015260608201511660608501526080810151608085015260a081015160a085015260c081015161299381612937565b60c08501520151910152565b608090600319011261291d5760043590602435906044359060643590565b604090600319011261291d576004359060243590565b602090816040818301928281528551809452019301915f5b8281106129f9575050505090565b8351855293810193928101926001016129eb565b606090600319011261291d57600435906024359060443590565b335f9081527fad3228b676f7d3cd4284a5443f17f1962b36e491b30a40b2405849e597ba5fb5602052604081205460ff1615611bc85750565b335f9081527ff7c9542c591017a21c74b6f3fab6263c7952fc0aaf9db4c22a2a04ddc7f8674f60205260409020547f65d7a28e3265b37a6474929f336521b332c1681b933f6cb9f3376673440d862a9060ff1615611bc85750565b805f525f60205260405f20335f5260205260ff60405f20541615611bc85750565b905f9180835282602052604083209160018060a01b03169182845260205260ff604084205416155f14612b5357808352826020526040832082845260205260408320600160ff198254161790557f2f8788117e7eff1d82e926ec794901d17c78024a50270940304540a733656f0d339380a4600190565b505090565b905f9180835282602052604083209160018060a01b03169182845260205260ff6040842054165f14612b535780835282602052604083208284526020526040832060ff1981541690557ff6391f5c32d9c69d2a47ea670b442974b53935d1edc7fd64eb21e047a839171b339380a4600190565b67ffffffffffffffff8111610bd157604052565b610100810190811067ffffffffffffffff821117610bd157604052565b610140810190811067ffffffffffffffff821117610bd157604052565b60e0810190811067ffffffffffffffff821117610bd157604052565b90601f8019910116810190811067ffffffffffffffff821117610bd157604052565b51906001600160a01b038216820361291d57565b67ffffffffffffffff8111610bd157601f01601f191660200190565b90602090818382031261291d57825167ffffffffffffffff9384821161291d5701916101e093848484031261291d5760405194850185811082821117610bd15760405283518552612cd9828501612c57565b8286015260408401516040860152606084015190811161291d57830182601f8201121561291d57805190612d0c82612c6b565b93612d1a6040519586612c35565b82855283838301011161291d575f5b828110612dc8575050905f918301015260608301526080810151608083015260a081015160a083015260c081015160c083015260e081015160e083015261010080820151908301526101208082015190830152610140808201519083015261016080820151908301526101808082015190600382101561291d578301526101a080820151908301526101c08091015190600a82101561291d5782015290565b8181018401518582018501528301612d29565b5f198114612de95760010190565b634e487b7160e01b5f52601160045260245ffd5b81810292918115918404141715612de957565b91908201809211612de957565b90612e2781612899565b60ff80198354169116179055565b601454811015610bbd5760145f527fce6d7b5282bd9a3661ae061feed1dbda4e52ab073b1f9285be6e155d9c38d4ec01905f90565b601554811015610bbd5760155f527f55f448fdea98c4d29eb340757ef0a66cd03dbb9538908a6a81d96026b71ec47501905f90565b805490600160401b821015610bd15760018201808255821015610bbd575f5260205f200155565b60ff60025416612ed257565b60405163d93c066560e01b8152600490fd5b91908203918211612de957565b6040516323b872dd60e01b60208201526001600160a01b0392831660248201529290911660448301526064820192909252612f4291612f3d82608481015b03601f198101845283612c35565b612f44565b565b60018060a01b031690612f8d5f80836020829551910182875af13d15612fe5573d90612f6f82612c6b565b91612f7d6040519384612c35565b82523d84602084013e5b84612fed565b908151918215159283612fbd575b505050612fa55750565b60249060405190635274afe760e01b82526004820152fd5b8192935090602091810103126102ed57602001519081159182150361026757505f8080612f9b565b606090612f87565b90613014575080511561300257805190602001fd5b604051630a12f52160e11b8152600490fd5b81511580613047575b613025575090565b604051639996b31560e01b81526001600160a01b039091166004820152602490fd5b50803b1561301d565b600260015414613061576002600155565b604051633ee5aeb560e01b8152600490fd5b60405163a9059cbb60e01b60208201526001600160a01b0390921660248301526044820192909252612f4291612f3d8260648101612f2f565b600254604051631d11e60560e11b815260048101929092525f919082908290602490829060081c6001600160a01b03165afa908115610bfd578291613153575b5061010081015142811115612b535761313c620151806131116237b1d0934290612ee4565b04613137613131610180608087015196015161312c81612937565b613431565b85612dfd565b612dfd565b049081811115612b53576131509250612ee4565b90565b61316791503d8084833e61175e8183612c35565b5f6130ec565b6040519061317a82612bdf565b8160e05f918281528260208201528260408201528260608201528260808201528260a08201528260c08201520152565b906040516131b781612bdf565b60e060078294805484526001810154602085015260018060a01b03806002830154166040860152600382015416606085015260048101546080850152600581015460a085015260ff60068201541661320e81612937565b60c08501520154910152565b5f908152600b6020526040812060405161323381612bdf565b8154815260018201546020820190815260028301546001600160a01b03908116604084015260038401546060840190815260048501546080850152600585015460a0850152600685015460c08501526007909401549192859260ff1661329881612899565b60e0820152511561339b5760025460081c169151602460405180948193631d11e60560e11b835260048301525afa908115613390578391613376575b5061010081015142811115613370576132f262015180914290612ee4565b0490811561337057608001518251808211156133675761331191612ee4565b915b61016d92838102938185041481151715612114576237b1d0029280840461271014901517156116df57906133479151612dfd565b91821561335357500490565b634e487b7160e01b81526012600452602490fd5b50508291613313565b50505090565b61338a91503d8085833e61175e8183612c35565b5f6132d4565b6040513d85823e3d90fd5b5050505090565b9060e060079180518455602081015160018501556002840160018060a01b039081604084015116906001600160601b0360a01b91828254161790556003860191606084015116908254161790556080810151600485015560a081015160058501556006840160c082015161341581612937565b61341e81612937565b60ff801983541691161790550151910155565b61343a81612937565b80156134755761344981612937565b6001811461346e578061345d600292612937565b14613468576109c490565b61070890565b506104b090565b5061032090565b5f5b601480548083101561351c578361349484612e35565b919054600392831b1c146134b3575050506134ae90612ddb565b61347e565b9193505f199290838101908111612de9576134df926134d46116c792612e35565b9054911b1c91612e35565b815480156135085701906135056134f583612e35565b8154905f199060031b1b19169055565b55565b634e487b7160e01b5f52603160045260245ffd5b50505050565b5f5b601580548083101561351c578361353a84612e6a565b919054600392831b1c146135595750505061355490612ddb565b613524565b9193505f199290838101908111612de9576135859261357a6116c792612e6a565b9054911b1c91612e6a565b815480156135085701906135056134f583612e6a56fe414d7d8eae12f648156e75499fc0a5a10aa84f2745c6f791b0453cb17f1e17faa2646970667358221220f044c7b74f61ebce4631b48fe759032f0e14fd3f0df4dc41565241910bf0e1a164736f6c634300081400332f8788117e7eff1d82e926ec794901d17c78024a50270940304540a733656f0d","linkReferences":{}},"methodIdentifiers":{"DEFAULT_ADMIN_ROLE()":"a217fddf","FEE_MANAGER_ROLE()":"05db2f41","PAUSER_ROLE()":"e63ab1e9","acceptOffer(uint256)":"c815729d","buyNow(uint256)":"08a0f32f","cancelAuction(uint256)":"96b5a755","cancelListing(uint256)":"305a67a8","cancelOffer(uint256)":"ef706adf","collectedFees()":"9003adfe","createAuction(uint256,uint256,uint256,uint256)":"431f21da","createListing(uint256,uint256,uint256,uint256)":"86d71ee2","endAuction(uint256)":"b9a2de3a","getActiveAuctions()":"cf44b5d5","getActiveListings()":"87c35bc0","getAuction(uint256)":"78bd7935","getEstimatedValue(uint256)":"0dc92263","getImpliedYield(uint256)":"b7faa16d","getListing(uint256)":"107a274a","getListingByInvoice(uint256)":"1cb5ce91","getListingsBySeller(address)":"d8cba251","getMarketStats()":"ff4cd5b9","getOffer(uint256)":"4579268a","getOffersByBuyer(address)":"fc27c7d6","getOffersByListing(uint256)":"f1263a26","getRoleAdmin(bytes32)":"248a9ca3","getTrade(uint256)":"2db25e05","getTradeHistory(uint256)":"873c5e60","grantRole(bytes32,address)":"2f2ff15d","hasRole(bytes32,address)":"91d14854","instantSell(uint256,uint256)":"86b636d0","invoiceToken()":"464b5391","makeOffer(uint256,uint256,uint256)":"e210a72d","maxListingDuration()":"def050c5","minListingDuration()":"957d90d4","pause()":"8456cb59","paused()":"5c975abb","placeBid(uint256,uint256)":"57c90de5","protocolFeeBps()":"35659fb8","rejectOffer(uint256)":"88b10c75","renounceRole(bytes32,address)":"36568abe","revokeRole(bytes32,address)":"d547741f","setMaxListingDuration(uint256)":"acb5941c","setMinListingDuration(uint256)":"91b5a133","setProtocolFee(uint256)":"787dce3d","stablecoin()":"e9cbd822","supportsInterface(bytes4)":"01ffc9a7","unpause()":"3f4ba83a","updateListing(uint256,uint256,uint256)":"f6cf2a16","withdrawFees(address)":"164e68de"},"id":43}