{"abi":[{"type":"constructor","inputs":[{"name":"_stablecoin","type":"address","internalType":"address"},{"name":"_invoiceToken","type":"address","internalType":"address"},{"name":"_liquidityPool","type":"address","internalType":"address"},{"name":"_admin","type":"address","internalType":"address"}],"stateMutability":"nonpayable"},{"type":"function","name":"DEFAULT_ADMIN_ROLE","inputs":[],"outputs":[{"name":"","type":"bytes32","internalType":"bytes32"}],"stateMutability":"view"},{"type":"function","name":"DEFAULT_MANAGER_ROLE","inputs":[],"outputs":[{"name":"","type":"bytes32","internalType":"bytes32"}],"stateMutability":"view"},{"type":"function","name":"DISPUTE_RESOLVER_ROLE","inputs":[],"outputs":[{"name":"","type":"bytes32","internalType":"bytes32"}],"stateMutability":"view"},{"type":"function","name":"DISTRIBUTOR_ROLE","inputs":[],"outputs":[{"name":"","type":"bytes32","internalType":"bytes32"}],"stateMutability":"view"},{"type":"function","name":"PAYMENT_PROCESSOR_ROLE","inputs":[],"outputs":[{"name":"","type":"bytes32","internalType":"bytes32"}],"stateMutability":"view"},{"type":"function","name":"SCHEDULE_MANAGER_ROLE","inputs":[],"outputs":[{"name":"","type":"bytes32","internalType":"bytes32"}],"stateMutability":"view"},{"type":"function","name":"calculateExpectedDistribution","inputs":[{"name":"invoiceId","type":"uint256","internalType":"uint256"}],"outputs":[{"name":"principal","type":"uint256","internalType":"uint256"},{"name":"yield","type":"uint256","internalType":"uint256"},{"name":"fee","type":"uint256","internalType":"uint256"}],"stateMutability":"view"},{"type":"function","name":"calculateLateFee","inputs":[{"name":"invoiceId","type":"uint256","internalType":"uint256"}],"outputs":[{"name":"","type":"uint256","internalType":"uint256"}],"stateMutability":"view"},{"type":"function","name":"cancelSchedule","inputs":[{"name":"invoiceId","type":"uint256","internalType":"uint256"}],"outputs":[],"stateMutability":"nonpayable"},{"type":"function","name":"checkOverdue","inputs":[{"name":"invoiceId","type":"uint256","internalType":"uint256"}],"outputs":[],"stateMutability":"nonpayable"},{"type":"function","name":"createPaymentSchedule","inputs":[{"name":"invoiceId","type":"uint256","internalType":"uint256"},{"name":"deploymentId","type":"uint256","internalType":"uint256"},{"name":"faceValue","type":"uint256","internalType":"uint256"},{"name":"advanceAmount","type":"uint256","internalType":"uint256"},{"name":"dueDate","type":"uint256","internalType":"uint256"}],"outputs":[],"stateMutability":"nonpayable"},{"type":"function","name":"defaultThresholdDays","inputs":[],"outputs":[{"name":"","type":"uint256","internalType":"uint256"}],"stateMutability":"view"},{"type":"function","name":"distribute","inputs":[{"name":"invoiceId","type":"uint256","internalType":"uint256"}],"outputs":[],"stateMutability":"nonpayable"},{"type":"function","name":"distributePartial","inputs":[{"name":"invoiceId","type":"uint256","internalType":"uint256"},{"name":"amount","type":"uint256","internalType":"uint256"}],"outputs":[],"stateMutability":"nonpayable"},{"type":"function","name":"getDaysOverdue","inputs":[{"name":"invoiceId","type":"uint256","internalType":"uint256"}],"outputs":[{"name":"","type":"uint256","internalType":"uint256"}],"stateMutability":"view"},{"type":"function","name":"getDaysUntilDue","inputs":[{"name":"invoiceId","type":"uint256","internalType":"uint256"}],"outputs":[{"name":"","type":"int256","internalType":"int256"}],"stateMutability":"view"},{"type":"function","name":"getDistribution","inputs":[{"name":"distributionId","type":"uint256","internalType":"uint256"}],"outputs":[{"name":"","type":"tuple","internalType":"struct YieldDistributor.Distribution","components":[{"name":"distributionId","type":"uint256","internalType":"uint256"},{"name":"invoiceId","type":"uint256","internalType":"uint256"},{"name":"paymentRecordId","type":"uint256","internalType":"uint256"},{"name":"principalToPool","type":"uint256","internalType":"uint256"},{"name":"yieldToPool","type":"uint256","internalType":"uint256"},{"name":"protocolFee","type":"uint256","internalType":"uint256"},{"name":"lateFeeCollected","type":"uint256","internalType":"uint256"},{"name":"excessToSeller","type":"uint256","internalType":"uint256"},{"name":"distributedAt","type":"uint256","internalType":"uint256"}]}],"stateMutability":"view"},{"type":"function","name":"getOverdueInvoices","inputs":[],"outputs":[{"name":"","type":"uint256[]","internalType":"uint256[]"}],"stateMutability":"view"},{"type":"function","name":"getPaymentRecords","inputs":[{"name":"invoiceId","type":"uint256","internalType":"uint256"}],"outputs":[{"name":"","type":"tuple[]","internalType":"struct YieldDistributor.PaymentRecord[]","components":[{"name":"recordId","type":"uint256","internalType":"uint256"},{"name":"invoiceId","type":"uint256","internalType":"uint256"},{"name":"amount","type":"uint256","internalType":"uint256"},{"name":"payer","type":"address","internalType":"address"},{"name":"paymentType","type":"uint8","internalType":"enum YieldDistributor.PaymentType"},{"name":"paidAt","type":"uint256","internalType":"uint256"},{"name":"referenceHash","type":"bytes32","internalType":"bytes32"}]}],"stateMutability":"view"},{"type":"function","name":"getPaymentSchedule","inputs":[{"name":"invoiceId","type":"uint256","internalType":"uint256"}],"outputs":[{"name":"","type":"tuple","internalType":"struct YieldDistributor.PaymentSchedule","components":[{"name":"invoiceId","type":"uint256","internalType":"uint256"},{"name":"deploymentId","type":"uint256","internalType":"uint256"},{"name":"faceValue","type":"uint256","internalType":"uint256"},{"name":"advanceAmount","type":"uint256","internalType":"uint256"},{"name":"expectedReturn","type":"uint256","internalType":"uint256"},{"name":"dueDate","type":"uint256","internalType":"uint256"},{"name":"gracePeriodEnd","type":"uint256","internalType":"uint256"},{"name":"defaultDate","type":"uint256","internalType":"uint256"},{"name":"status","type":"uint8","internalType":"enum YieldDistributor.PaymentStatus"},{"name":"paidAmount","type":"uint256","internalType":"uint256"},{"name":"paidAt","type":"uint256","internalType":"uint256"},{"name":"lateFee","type":"uint256","internalType":"uint256"}]}],"stateMutability":"view"},{"type":"function","name":"getPaymentStatus","inputs":[{"name":"invoiceId","type":"uint256","internalType":"uint256"}],"outputs":[{"name":"","type":"uint8","internalType":"enum YieldDistributor.PaymentStatus"}],"stateMutability":"view"},{"type":"function","name":"getPendingDistributions","inputs":[],"outputs":[{"name":"","type":"uint256[]","internalType":"uint256[]"}],"stateMutability":"view"},{"type":"function","name":"getProtocolFeesCollected","inputs":[],"outputs":[{"name":"","type":"uint256","internalType":"uint256"}],"stateMutability":"view"},{"type":"function","name":"getRoleAdmin","inputs":[{"name":"role","type":"bytes32","internalType":"bytes32"}],"outputs":[{"name":"","type":"bytes32","internalType":"bytes32"}],"stateMutability":"view"},{"type":"function","name":"getTotalCollected","inputs":[],"outputs":[{"name":"","type":"uint256","internalType":"uint256"}],"stateMutability":"view"},{"type":"function","name":"getTotalDistributed","inputs":[],"outputs":[{"name":"","type":"uint256","internalType":"uint256"}],"stateMutability":"view"},{"type":"function","name":"gracePeriodDays","inputs":[],"outputs":[{"name":"","type":"uint256","internalType":"uint256"}],"stateMutability":"view"},{"type":"function","name":"grantRole","inputs":[{"name":"role","type":"bytes32","internalType":"bytes32"},{"name":"account","type":"address","internalType":"address"}],"outputs":[],"stateMutability":"nonpayable"},{"type":"function","name":"hasRole","inputs":[{"name":"role","type":"bytes32","internalType":"bytes32"},{"name":"account","type":"address","internalType":"address"}],"outputs":[{"name":"","type":"bool","internalType":"bool"}],"stateMutability":"view"},{"type":"function","name":"insurancePool","inputs":[],"outputs":[{"name":"","type":"address","internalType":"address"}],"stateMutability":"view"},{"type":"function","name":"invoiceToken","inputs":[],"outputs":[{"name":"","type":"address","internalType":"contract IInvoiceToken"}],"stateMutability":"view"},{"type":"function","name":"isDefaulted","inputs":[{"name":"invoiceId","type":"uint256","internalType":"uint256"}],"outputs":[{"name":"","type":"bool","internalType":"bool"}],"stateMutability":"view"},{"type":"function","name":"isInGracePeriod","inputs":[{"name":"invoiceId","type":"uint256","internalType":"uint256"}],"outputs":[{"name":"","type":"bool","internalType":"bool"}],"stateMutability":"view"},{"type":"function","name":"lateFeeRateBps","inputs":[],"outputs":[{"name":"","type":"uint256","internalType":"uint256"}],"stateMutability":"view"},{"type":"function","name":"liquidityPool","inputs":[],"outputs":[{"name":"","type":"address","internalType":"contract LiquidityPool"}],"stateMutability":"view"},{"type":"function","name":"markAsDefaulted","inputs":[{"name":"invoiceId","type":"uint256","internalType":"uint256"}],"outputs":[],"stateMutability":"nonpayable"},{"type":"function","name":"processDefaultBatch","inputs":[{"name":"invoiceIds","type":"uint256[]","internalType":"uint256[]"}],"outputs":[],"stateMutability":"nonpayable"},{"type":"function","name":"protocolFeeRateBps","inputs":[],"outputs":[{"name":"","type":"uint256","internalType":"uint256"}],"stateMutability":"view"},{"type":"function","name":"protocolFeesCollected","inputs":[],"outputs":[{"name":"","type":"uint256","internalType":"uint256"}],"stateMutability":"view"},{"type":"function","name":"raiseDispute","inputs":[{"name":"invoiceId","type":"uint256","internalType":"uint256"},{"name":"reason","type":"string","internalType":"string"}],"outputs":[],"stateMutability":"nonpayable"},{"type":"function","name":"recordPartialPayment","inputs":[{"name":"invoiceId","type":"uint256","internalType":"uint256"},{"name":"amount","type":"uint256","internalType":"uint256"},{"name":"payer","type":"address","internalType":"address"}],"outputs":[],"stateMutability":"nonpayable"},{"type":"function","name":"recordPayment","inputs":[{"name":"invoiceId","type":"uint256","internalType":"uint256"},{"name":"amount","type":"uint256","internalType":"uint256"},{"name":"payer","type":"address","internalType":"address"},{"name":"referenceHash","type":"bytes32","internalType":"bytes32"}],"outputs":[],"stateMutability":"nonpayable"},{"type":"function","name":"recordPaymentDirect","inputs":[{"name":"invoiceId","type":"uint256","internalType":"uint256"},{"name":"amount","type":"uint256","internalType":"uint256"},{"name":"referenceHash","type":"bytes32","internalType":"bytes32"}],"outputs":[],"stateMutability":"nonpayable"},{"type":"function","name":"renounceRole","inputs":[{"name":"role","type":"bytes32","internalType":"bytes32"},{"name":"callerConfirmation","type":"address","internalType":"address"}],"outputs":[],"stateMutability":"nonpayable"},{"type":"function","name":"resolveDispute","inputs":[{"name":"invoiceId","type":"uint256","internalType":"uint256"},{"name":"resolution","type":"uint8","internalType":"enum YieldDistributor.DisputeResolution"},{"name":"settlementAmount","type":"uint256","internalType":"uint256"}],"outputs":[],"stateMutability":"nonpayable"},{"type":"function","name":"revokeRole","inputs":[{"name":"role","type":"bytes32","internalType":"bytes32"},{"name":"account","type":"address","internalType":"address"}],"outputs":[],"stateMutability":"nonpayable"},{"type":"function","name":"setDefaultThresholdDays","inputs":[{"name":"days_","type":"uint256","internalType":"uint256"}],"outputs":[],"stateMutability":"nonpayable"},{"type":"function","name":"setGracePeriodDays","inputs":[{"name":"days_","type":"uint256","internalType":"uint256"}],"outputs":[],"stateMutability":"nonpayable"},{"type":"function","name":"setInsurancePool","inputs":[{"name":"pool","type":"address","internalType":"address"}],"outputs":[],"stateMutability":"nonpayable"},{"type":"function","name":"setLateFeeRate","inputs":[{"name":"rateBps","type":"uint256","internalType":"uint256"}],"outputs":[],"stateMutability":"nonpayable"},{"type":"function","name":"setLiquidityPool","inputs":[{"name":"pool","type":"address","internalType":"address"}],"outputs":[],"stateMutability":"nonpayable"},{"type":"function","name":"setProtocolFeeRate","inputs":[{"name":"rateBps","type":"uint256","internalType":"uint256"}],"outputs":[],"stateMutability":"nonpayable"},{"type":"function","name":"stablecoin","inputs":[],"outputs":[{"name":"","type":"address","internalType":"contract IERC20"}],"stateMutability":"view"},{"type":"function","name":"supportsInterface","inputs":[{"name":"interfaceId","type":"bytes4","internalType":"bytes4"}],"outputs":[{"name":"","type":"bool","internalType":"bool"}],"stateMutability":"view"},{"type":"function","name":"totalCollected","inputs":[],"outputs":[{"name":"","type":"uint256","internalType":"uint256"}],"stateMutability":"view"},{"type":"function","name":"totalDistributed","inputs":[],"outputs":[{"name":"","type":"uint256","internalType":"uint256"}],"stateMutability":"view"},{"type":"function","name":"withdrawProtocolFees","inputs":[{"name":"to","type":"address","internalType":"address"}],"outputs":[],"stateMutability":"nonpayable"},{"type":"event","name":"DisputeRaised","inputs":[{"name":"invoiceId","type":"uint256","indexed":true,"internalType":"uint256"},{"name":"reason","type":"string","indexed":false,"internalType":"string"}],"anonymous":false},{"type":"event","name":"DisputeResolved","inputs":[{"name":"invoiceId","type":"uint256","indexed":true,"internalType":"uint256"},{"name":"resolution","type":"uint8","indexed":false,"internalType":"enum YieldDistributor.DisputeResolution"}],"anonymous":false},{"type":"event","name":"Distributed","inputs":[{"name":"distributionId","type":"uint256","indexed":true,"internalType":"uint256"},{"name":"invoiceId","type":"uint256","indexed":true,"internalType":"uint256"},{"name":"principal","type":"uint256","indexed":false,"internalType":"uint256"},{"name":"yield","type":"uint256","indexed":false,"internalType":"uint256"}],"anonymous":false},{"type":"event","name":"InvoiceDefaulted","inputs":[{"name":"invoiceId","type":"uint256","indexed":true,"internalType":"uint256"},{"name":"outstandingAmount","type":"uint256","indexed":false,"internalType":"uint256"}],"anonymous":false},{"type":"event","name":"InvoiceOverdue","inputs":[{"name":"invoiceId","type":"uint256","indexed":true,"internalType":"uint256"},{"name":"daysOverdue","type":"uint256","indexed":false,"internalType":"uint256"}],"anonymous":false},{"type":"event","name":"LateFeeCollected","inputs":[{"name":"invoiceId","type":"uint256","indexed":true,"internalType":"uint256"},{"name":"amount","type":"uint256","indexed":false,"internalType":"uint256"}],"anonymous":false},{"type":"event","name":"PartialPaymentReceived","inputs":[{"name":"invoiceId","type":"uint256","indexed":true,"internalType":"uint256"},{"name":"amount","type":"uint256","indexed":false,"internalType":"uint256"},{"name":"totalPaid","type":"uint256","indexed":false,"internalType":"uint256"}],"anonymous":false},{"type":"event","name":"PaymentReceived","inputs":[{"name":"invoiceId","type":"uint256","indexed":true,"internalType":"uint256"},{"name":"amount","type":"uint256","indexed":false,"internalType":"uint256"},{"name":"status","type":"uint8","indexed":false,"internalType":"enum YieldDistributor.PaymentStatus"},{"name":"wasLate","type":"bool","indexed":false,"internalType":"bool"}],"anonymous":false},{"type":"event","name":"ProtocolFeeCollected","inputs":[{"name":"amount","type":"uint256","indexed":false,"internalType":"uint256"}],"anonymous":false},{"type":"event","name":"RoleAdminChanged","inputs":[{"name":"role","type":"bytes32","indexed":true,"internalType":"bytes32"},{"name":"previousAdminRole","type":"bytes32","indexed":true,"internalType":"bytes32"},{"name":"newAdminRole","type":"bytes32","indexed":true,"internalType":"bytes32"}],"anonymous":false},{"type":"event","name":"RoleGranted","inputs":[{"name":"role","type":"bytes32","indexed":true,"internalType":"bytes32"},{"name":"account","type":"address","indexed":true,"internalType":"address"},{"name":"sender","type":"address","indexed":true,"internalType":"address"}],"anonymous":false},{"type":"event","name":"RoleRevoked","inputs":[{"name":"role","type":"bytes32","indexed":true,"internalType":"bytes32"},{"name":"account","type":"address","indexed":true,"internalType":"address"},{"name":"sender","type":"address","indexed":true,"internalType":"address"}],"anonymous":false},{"type":"event","name":"ScheduleCancelled","inputs":[{"name":"invoiceId","type":"uint256","indexed":true,"internalType":"uint256"}],"anonymous":false},{"type":"event","name":"ScheduleCreated","inputs":[{"name":"invoiceId","type":"uint256","indexed":true,"internalType":"uint256"},{"name":"faceValue","type":"uint256","indexed":false,"internalType":"uint256"},{"name":"dueDate","type":"uint256","indexed":false,"internalType":"uint256"}],"anonymous":false},{"type":"error","name":"AccessControlBadConfirmation","inputs":[]},{"type":"error","name":"AccessControlUnauthorizedAccount","inputs":[{"name":"account","type":"address","internalType":"address"},{"name":"neededRole","type":"bytes32","internalType":"bytes32"}]},{"type":"error","name":"AddressEmptyCode","inputs":[{"name":"target","type":"address","internalType":"address"}]},{"type":"error","name":"AddressInsufficientBalance","inputs":[{"name":"account","type":"address","internalType":"address"}]},{"type":"error","name":"AlreadyDistributed","inputs":[]},{"type":"error","name":"FailedInnerCall","inputs":[]},{"type":"error","name":"InvalidPayer","inputs":[]},{"type":"error","name":"InvalidPaymentAmount","inputs":[]},{"type":"error","name":"InvoiceAlreadyPaid","inputs":[]},{"type":"error","name":"InvoiceDisputed","inputs":[]},{"type":"error","name":"InvoiceNotOverdue","inputs":[]},{"type":"error","name":"InvoiceNotPending","inputs":[]},{"type":"error","name":"NothingToDistribute","inputs":[]},{"type":"error","name":"PaymentTooLow","inputs":[]},{"type":"error","name":"ReentrancyGuardReentrantCall","inputs":[]},{"type":"error","name":"SafeERC20FailedOperation","inputs":[{"name":"token","type":"address","internalType":"address"}]},{"type":"error","name":"ScheduleAlreadyExists","inputs":[]},{"type":"error","name":"ScheduleNotFound","inputs":[]},{"type":"error","name":"TransferFailed","inputs":[]}],"bytecode":{"object":"0x60c034620001a657601f6200338b38819003918201601f19168301916001600160401b03831184841017620001aa57808492608094604052833981010312620001a6576200004d81620001be565b906200005c60208201620001be565b916200007960606200007160408501620001be565b9301620001be565b600180805560088190556009556005600c55601e600d55600a600e5560c8600f55916001600160a01b03918216801580156200019b575b801562000190575b801562000185575b6200017357620001269483916080521660a0521660018060a01b03196002541617600255620000ef81620001d3565b50620000fb8162000251565b506200010781620002f1565b5062000113816200038c565b506200011f8162000427565b50620004c2565b50604051612e0d90816200055e823960805181818161047f01528181610a4501528181611627015281816129750152612b6e015260a05181818161133101528181611b38015261290c0152f35b604051637e2897ef60e11b8152600490fd5b5082841615620000c0565b5082821615620000b8565b5082851615620000b0565b5f80fd5b634e487b7160e01b5f52604160045260245ffd5b51906001600160a01b0382168203620001a657565b6001600160a01b03165f8181527fad3228b676f7d3cd4284a5443f17f1962b36e491b30a40b2405849e597ba5fb5602052604081205490919060ff166200024d57818052816020526040822081835260205260408220600160ff1982541617905533915f805160206200336b8339815191528180a4600190565b5090565b6001600160a01b03165f8181527f60a63608d445c8cf3e1d9789936a0c2cdf81422d96448e2baebaa02da53aeee860205260408120549091907f54217f7b85353d04ece159ebd69a45e9b8287dd2043746eaca469996a3d91aee9060ff16620002ec57808352826020526040832082845260205260408320600160ff198254161790555f805160206200336b833981519152339380a4600190565b505090565b6001600160a01b03165f8181527f18a99bda15e9a7322116e788ee9e2cd6977ead5311db5a71f601c108a21b5ef760205260408120549091907fd7d8b7014b7ed36eb085c9e3e427b642d74cab75ecefda8a757042e63ec599199060ff16620002ec57808352826020526040832082845260205260408320600160ff198254161790555f805160206200336b833981519152339380a4600190565b6001600160a01b03165f8181527f37775adb12013835ce20d78b1c52193dd1da3dc792bc1ec9a2d7427221516c8a60205260408120549091907ffbd454f36a7e1a388bd6fc3ab10d434aa4578f811acbbcf33afb1c697486313c9060ff16620002ec57808352826020526040832082845260205260408320600160ff198254161790555f805160206200336b833981519152339380a4600190565b6001600160a01b03165f8181527f78029389cbe64367d429370b6ac9f9b1bd4e83b4413e51cee2c0b3af481e8f3c60205260408120549091907f87db7b72171141867603ec05a6c972fd56944662798438e0164a817002c0fac19060ff16620002ec57808352826020526040832082845260205260408320600160ff198254161790555f805160206200336b833981519152339380a4600190565b6001600160a01b03165f8181527f1faa33813a4136802f43076b446350cf9588d040bfbd1df96ccd112768eab3e860205260408120549091907f7b8bb8356a3f32f5c111ff23f050d97f08988e0883529ea7bff3b918887a6e0e9060ff16620002ec57808352826020526040832082845260205260408320600160ff198254161790555f805160206200336b833981519152339380a460019056fe60806040526004361015610011575f80fd5b5f803560e01c80630187702014611d1857806301ffc9a714611cc257806308bd14ed14611a105780630b7fe72d146119d55780630ce6b419146119b25780630e502e94146119935780631348ed5e146119755780631625dfac1461176f57806319baae28146116f9578063237fc2a61461168b578063248a9ca31461165f5780632d80caa5146115e35780632f2ff15d146115a65780632f3ad61f1461156757806336568abe1461151f57806336f9820d146114e45780633b345a87146113d55780634123690314611360578063464b53911461131b5780634853fb5e146112df5780635695fa581461044b578063577bcced146112c15780635847ddbe146112a35780635aef573c146111de578063665a11ca146111b55780636735e04c1461116c5780636bde5f0d146110e65780637c28dad0146110ab5780637febd92b1461107f57806391c05b0b1461105257806391d148541461100a5780639896339014610e9e578063a165004314610e67578063a217fddf14610e4b578063a874302214610d4a578063a94c487e14610d05578063ab2adc0014610cdc578063aca5f48014610cb9578063b0ac728714610991578063b13aa2d614610965578063b44efafa14610684578063b74f8c6914610939578063b807420c146108bf578063b8890be6146108a1578063bc63c171146106fc578063bfe42a37146106c1578063c9074b1f146106a2578063cc08b83414610684578063d547741f14610643578063db5d6c41146104ae578063e29eb836146103cb578063e9cbd82214610469578063efca2eed1461044b578063f0bd87cc14610410578063f80db812146103e9578063fbe5d87e146103cb5763fd06014d1461028d575f80fd5b346103c85760203660031901126103c8576004358082526004602052604082208054156103b657600681015442118061038a575b6102c9578280f35b60088101805460ff19166004179055600a54600160401b811015610376576001810180600a55811015610362576201518061035460057f4810d15d0e5b37f62cb63e3ffea0ad598da586aab0fbc697babdc7eeabc927289486602095600a8a527fc65a7bb8d6351c1cf70c95a316cc6a92839c986682d98bc35f958f4883f9d2a80155015442612723565b04604051908152a25f808280f35b634e487b7160e01b84526032600452602484fd5b634e487b7160e01b84526041600452602484fd5b5060ff60088201541660078110156103a257156102c1565b634e487b7160e01b84526021600452602484fd5b60405163d858766960e01b8152600490fd5b80fd5b50346103c857806003193601126103c8576020601054604051908152f35b50346103c85760203660031901126103c8576020610408600435612c84565b604051908152f35b50346103c857806003193601126103c85760206040517ffbd454f36a7e1a388bd6fc3ab10d434aa4578f811acbbcf33afb1c697486313c8152f35b50346103c857806003193601126103c8576020601154604051908152f35b50346103c857806003193601126103c8576040517f00000000000000000000000000000000000000000000000000000000000000006001600160a01b03168152602090f35b50346103c85760603660031901126103c857600435602435600381101561061857604435907f7b8bb8356a3f32f5c111ff23f050d97f08988e0883529ea7bff3b918887a6e0e808552846020526040852033865260205260ff604086205416156106255750828452600460205260408420918254156103b6578492600283148061061c575b156105835760088101805460ff1916905560028101829055600401555b604051916103a257816020917f2ffcfee146bc0d5ff304c6b65111a0d485af9456dc64eee7d66ebdcc90b223ea9352a280f35b85935090508161059d57600801805460ff19169055610550565b60088101600560ff198254161790558460018060a01b0360025416916009600182015491015490833b15610618576044908360405195869485936358dfed0d60e11b8552600485015260248401525af1801561060d576105fe575b50610550565b610607906120ee565b5f6105f8565b6040513d87823e3d90fd5b8280fd5b50811515610533565b6044906040519063e2517d3f60e01b82523360048301526024820152fd5b50346103c85760403660031901126103c857610680600435610663611d7e565b908084528360205261067b6001604086200154611faa565b612047565b5080f35b50346103c857806003193601126103c8576020601254604051908152f35b50346103c85760203660031901126103c8576020610408600435612cba565b50346103c857806003193601126103c85760206040517f7b8bb8356a3f32f5c111ff23f050d97f08988e0883529ea7bff3b918887a6e0e8152f35b50346103c85760203660031901126103c8578061016060405161071e81612116565b8281528260208201528260408201528260608201528260808201528260a08201528260c08201528260e082015282610100820152826101208201528261014082015201526004358152600460205260408120906040519061077e82612116565b8254825260018301546020830152600283015460408301526003830154606083015260048301546080830152600583015460a0830152600683015460c0830152600783015460e083015260ff60088401541690600782101561088d575061018092600b916101008401526009810154610120840152600a810154610140840152015461016082015261016060405191805183526020810151602084015260408101516040840152606081015160608401526080810151608084015260a081015160a084015260c081015160c084015260e081015160e084015261086b610100820151610100850190611de4565b6101208101516101208401526101408101516101408401520151610160820152f35b634e487b7160e01b81526021600452602490fd5b50346103c857806003193601126103c8576020600f54604051908152f35b50346103c85760403660031901126103c8576004356024356108df61220b565b6108e7611f4f565b8183526004602052604083208054156103b657811590811561092b575b506109195761091291612730565b6001805580f35b604051637e2897ef60e11b8152600490fd5b60099150015481115f610904565b50346103c85760603660031901126103c85761095361220b565b61091260443533602435600435612261565b50346103c85760203660031901126103c857600435610982611e05565b612710811161091957600f5580f35b50346103c85760603660031901126103c8576109ab611d94565b6109b361220b565b6109bb611ef4565b8160043583526004602052604083208054156103b65760ff600882015416600781101580610ca557600182148015610c99575b610c8757610c7357600614610c615760249283351561091957610a69604051916323b872dd60e01b602084015260018060a01b03169182868201523060448201528535606482015260648152610a438161216c565b7f00000000000000000000000000000000000000000000000000000000000000006125b2565b6005820154421180610c57575b610c13575b60085490610a888261222e565b60085560043584526005602052604084209060405192610aa784612150565b83526004356020840152853560408401526060830152600160808301524260a08301528360c0830152805490600160401b821015610c005790610aef91600182018155612248565b919091610bec578051825560208101516001830155604081015160028301556003820160018060a01b0360608301511681549060808401516004811015610bd9576001600160a81b03199092161760a091821b60ff60a01b1617909155810151600483015560c001516005909101556009018054909190610b72908435906120e1565b825580610b8284356010546120e1565b601055610bc65750546040519135825260208201527f98378ec9a3cba43c7f6dda645d95e2c1b3791c3db5939c3a8f2a91684c99767e604060043592a26001805580f35b634e487b7160e01b815260216004529050fd5b634e487b7160e01b885260216004528888fd5b5050634e487b7160e01b8252506004819052fd5b634e487b7160e01b855260416004528585fd5b610c1e600435612ce6565b80600b8401556040519081527f35253f7e69d4c73c5ebad5d2bc8cd14f6465044bd51dd467fdafb5e25169833b602060043592a2610a7b565b5084925082610a76565b6040516310b3763760e11b8152600490fd5b634e487b7160e01b85526021600452602485fd5b604051631915f32960e11b8152600490fd5b505084600282146109ee565b634e487b7160e01b86526021600452602486fd5b50346103c85760203660031901126103c857610cd3611e05565b600435600d5580f35b50346103c857806003193601126103c8576003546040516001600160a01b039091168152602090f35b50346103c85760203660031901126103c857610d1f611d64565b610d27611e05565b60018060a01b03166bffffffffffffffffffffffff60a01b600354161760035580f35b50346103c85760203660031901126103c857600435610d67611e3e565b8082526004602052604082208054156103b65760088101805460ff81166007811015610ca557600614610c615760059060ff1916179055600281015483610db360098401548093612723565b916001808060a01b0360025416940154843b15610618576044908360405196879485936358dfed0d60e11b8552600485015260248401525af1908115610e40577ff632e7549a2b0aee8e4c18743ef9c237f6c638181c4b8dd8b02da89f56c42abe92602092610e31575b50610e2784612d30565b604051908152a280f35b610e3a906120ee565b5f610e1d565b6040513d86823e3d90fd5b50346103c857806003193601126103c857602090604051908152f35b50346103c85760203660031901126103c85760ff6008604060209360043581526004855220015416610e9c6040518092611de4565bf35b50346103c857602090816003193601126103c857600435815260058083526040822092835467ffffffffffffffff8111610376579184919260405191610ee88583831b0184612188565b81835284830190819487528587209087925b848410610f92575050505050604051928084019181855251809252604084019294805b838210610f2a5785850386f35b90919293865180518252848101518583015260408101516040830152606060018060a01b03818301511690830152608080820151906004821015610c735783015260a0808201519083015260c090810151908201529583019560e00193929160010190610f1d565b60068860019260409b9a98999b51610fa981612150565b865481528487015483820152600287015460408201526003870154858060a01b0381166060830152610fe560ff60a092831c166080840161223c565b6004880154908201528587015460c08201528152019301930192919795949697610efa565b50346103c85760403660031901126103c85760ff604060209261102b611d7e565b60043582528185528282206001600160a01b03909116825284522054604051911615158152f35b50346103c85760203660031901126103c85761106c61220b565b611074611f4f565b6109126004356126da565b50346103c85760203660031901126103c85760043561109c611e05565b612710811161091957600e5580f35b50346103c857806003193601126103c85760206040517f87db7b72171141867603ec05a6c972fd56944662798438e0164a817002c0fac18152f35b50346103c857806003193601126103c857604051600b80548083529083526020808301937f0175b7a638427703f0dbe7bb9bbf987a2551717b34e79f33b5b1008d1fa01db992915b828210611155576111518561114581890382612188565b60405191829182611daa565b0390f35b83548652948501946001938401939091019061112e565b50346103c85760203660031901126103c8576040602091600435815260048352206005810154421190816111a6575b506040519015158152f35b6006915001544211155f61119b565b50346103c857806003193601126103c8576002546040516001600160a01b039091168152602090f35b50346103c85760403660031901126103c85760043560243567ffffffffffffffff80821161129f573660238301121561129f57816004013590811161129f57366024828401011161129f578284526004602052604084208054156103b6577fe07ad455e24561261e9047aab2f668ae1fc2cc6fda35021764673613b888836d92602492600860409301600660ff198254161790558083519485936020855282602086015201848401378181018301879052601f01601f19168101030190a280f35b8380fd5b50346103c857806003193601126103c8576020600d54604051908152f35b50346103c857806003193601126103c8576020600e54604051908152f35b50346103c85760803660031901126103c8576109126112fc611d94565b61130461220b565b61130c611ef4565b60643590602435600435612261565b50346103c857806003193601126103c8576040517f00000000000000000000000000000000000000000000000000000000000000006001600160a01b03168152602090f35b50346103c85760203660031901126103c85760026060916004358152600460205260408120600381015492839101548181115f146113ce576113a29250612723565b6113bc6127106113b4600f54846120ba565b048092612723565b60405192835260208301526040820152f35b50506113a2565b50346103c85760203660031901126103c8576101209060408051916113f983612133565b80835280602084015280828401528060608401528060808401528060a08401528060c08401528060e0840152806101008094015260043581526006602052209060405161144581612133565b8254928382526001810154602083019081526002820154604084019081526003830154606085019081526004840154906080860191825260058501549260a0870193845260068601549460c0880195865288600860078901549860e08b01998a5201549801978852604051998a525160208a01525160408901525160608801525160808701525160a08601525160c08501525160e08401525190820152f35b50346103c857806003193601126103c85760206040517f54217f7b85353d04ece159ebd69a45e9b8287dd2043746eaca469996a3d91aee8152f35b50346103c85760403660031901126103c857611539611d7e565b336001600160a01b038216036115555761068090600435612047565b60405163334bd91960e11b8152600490fd5b50346103c85760203660031901126103c8576004358152600460205260ff60086040832001541690600782101561088d57602082600560405191148152f35b50346103c85760403660031901126103c8576106806004356115c6611d7e565b90808452836020526115de6001604086200154611faa565b611fcb565b50346103c85760203660031901126103c8576115fd611d64565b611605611e05565b6001600160a01b0381161561091957601254801561164e5761164b91836012557f0000000000000000000000000000000000000000000000000000000000000000612c24565b80f35b60405162598fc960e21b8152600490fd5b50346103c85760203660031901126103c857600160406020926004358152808452200154604051908152f35b50346103c85760203660031901126103c8576004356116a8611e99565b8082526004602052604082208054156103b657600801805460ff191660061790556116d281612d30565b7faafc09ed0175af188e56c12f5eda79a11a6d2d747621fb47b25f301d499fdc5e8280a280f35b50346103c857806003193601126103c857604051600a80548083529083526020808301937fc65a7bb8d6351c1cf70c95a316cc6a92839c986682d98bc35f958f4883f9d2a892915b828210611758576111518561114581890382612188565b835486529485019460019384019390910190611741565b50346103c85760a03660031901126103c857600435604435608435611792611e99565b8284526004602052604084205461196357600c5462015180908181029080820483149015171561194f576117c690836120e1565b90600d5481810291818304149015171561194f5785806117e78193866120e1565b936040519485916117f783612116565b89835287898b602086016024358152604087019083825260408960608a0194606435865260808b0196875260a08b0197885260c08b0198895260e08b01998a526101606101008c019b838d5261012081019d8e5261014081019e8f52019d8e5281526004602052209b518c555160018c01555160028b01555160038a015551600489015551600588015551600687015551600786015551600781101561193b57906118a9600b949392600887016121aa565b51600985015551600a84015551910155600b54600160401b8110156119275791604091611919856119018660017fc6bf85d136b95579125a47c9781847cacd55015777db8a853dd17946aed35fb29801600b556121c2565b90919082549060031b91821b915f19901b1916179055565b82519182526020820152a280f35b634e487b7160e01b85526041600452602485fd5b634e487b7160e01b89526021600452602489fd5b634e487b7160e01b86526011600452602486fd5b60405163e109c26360e01b8152600490fd5b50346103c857806003193601126103c8576020600c54604051908152f35b50346103c85760203660031901126103c8576020610408600435612ce6565b50346103c85760203660031901126103c8576119cc611e05565b600435600c5580f35b50346103c857806003193601126103c85760206040517fd7d8b7014b7ed36eb085c9e3e427b642d74cab75ecefda8a757042e63ec599198152f35b50346103c857602080600319360112611cbe5767ffffffffffffffff60043581811161129f573660238201121561129f57806004013591821161129f5760249182820160059284369184861b010111611bf557611a6b611e3e565b85805b838110611a79575080f35b611a84818585612c74565b35825260048752604082208054151580611cb1575b80611c8f575b80611c6e575b80611c4c575b80611c17575b611ac8575b50611ac1915061222e565b8690611a6e565b600881018660ff198254161790556002908181015491611aed60098301548094612723565b926001808060a01b038093541693015492803b15611c1357869384916040519384926358dfed0d60e11b845260048401528d8301528160449687925af18015611c0857611bf9575b507f000000000000000000000000000000000000000000000000000000000000000016611b63848888612c74565b3591813b15611bf55785926040519687938492633a1b3d3160e01b8452600484015260068d8401525af1928315611bea57611ac193611bdb575b507ff632e7549a2b0aee8e4c18743ef9c237f6c638181c4b8dd8b02da89f56c42abe88611bcb848888612c74565b3592604051908152a28791611ab6565b611be4906120ee565b5f611b9d565b6040513d8b823e3d90fd5b8580fd5b611c02906120ee565b5f611b35565b6040513d88823e3d90fd5b8680fd5b5090915060ff6008820154166007811015611c39579060028993921415611ab1565b634e487b7160e01b895260216004528689fd5b5090915060ff6008820154166007811015611c39579060018993921415611aab565b5090915060ff6008820154166007811015611c395790858993921415611aa5565b5090915060ff6008820154166007811015611c39579060068993921415611a9f565b5060078101544211611a99565b5080fd5b50346103c85760203660031901126103c85760043563ffffffff60e01b8116809103611cbe57602090637965db0b60e01b8114908115611d0757506040519015158152f35b6301ffc9a760e01b1490508261119b565b50346103c85760203660031901126103c857611d32611d64565b611d3a611e05565b6001600160a01b03168015610919576bffffffffffffffffffffffff60a01b600254161760025580f35b600435906001600160a01b0382168203611d7a57565b5f80fd5b602435906001600160a01b0382168203611d7a57565b604435906001600160a01b0382168203611d7a57565b602090816040818301928281528551809452019301915f5b828110611dd0575050505090565b835185529381019392810192600101611dc2565b906007821015611df15752565b634e487b7160e01b5f52602160045260245ffd5b335f9081527fad3228b676f7d3cd4284a5443f17f1962b36e491b30a40b2405849e597ba5fb5602052604081205460ff16156106255750565b335f9081527f78029389cbe64367d429370b6ac9f9b1bd4e83b4413e51cee2c0b3af481e8f3c60205260409020547f87db7b72171141867603ec05a6c972fd56944662798438e0164a817002c0fac19060ff16156106255750565b335f9081527f60a63608d445c8cf3e1d9789936a0c2cdf81422d96448e2baebaa02da53aeee860205260409020547f54217f7b85353d04ece159ebd69a45e9b8287dd2043746eaca469996a3d91aee9060ff16156106255750565b335f9081527f18a99bda15e9a7322116e788ee9e2cd6977ead5311db5a71f601c108a21b5ef760205260409020547fd7d8b7014b7ed36eb085c9e3e427b642d74cab75ecefda8a757042e63ec599199060ff16156106255750565b335f9081527f37775adb12013835ce20d78b1c52193dd1da3dc792bc1ec9a2d7427221516c8a60205260409020547ffbd454f36a7e1a388bd6fc3ab10d434aa4578f811acbbcf33afb1c697486313c9060ff16156106255750565b805f525f60205260405f20335f5260205260ff60405f205416156106255750565b905f9180835282602052604083209160018060a01b03169182845260205260ff604084205416155f1461204257808352826020526040832082845260205260408320600160ff198254161790557f2f8788117e7eff1d82e926ec794901d17c78024a50270940304540a733656f0d339380a4600190565b505090565b905f9180835282602052604083209160018060a01b03169182845260205260ff6040842054165f146120425780835282602052604083208284526020526040832060ff1981541690557ff6391f5c32d9c69d2a47ea670b442974b53935d1edc7fd64eb21e047a839171b339380a4600190565b818102929181159184041417156120cd57565b634e487b7160e01b5f52601160045260245ffd5b919082018092116120cd57565b67ffffffffffffffff811161210257604052565b634e487b7160e01b5f52604160045260245ffd5b610180810190811067ffffffffffffffff82111761210257604052565b610120810190811067ffffffffffffffff82111761210257604052565b60e0810190811067ffffffffffffffff82111761210257604052565b60a0810190811067ffffffffffffffff82111761210257604052565b90601f8019910116810190811067ffffffffffffffff82111761210257604052565b906007811015611df15760ff80198354169116179055565b600b548110156121f757600b5f527f0175b7a638427703f0dbe7bb9bbf987a2551717b34e79f33b5b1008d1fa01db901905f90565b634e487b7160e01b5f52603260045260245ffd5b60026001541461221c576002600155565b604051633ee5aeb560e01b8152600490fd5b5f1981146120cd5760010190565b6004821015611df15752565b80548210156121f7575f52600660205f20910201905f90565b929190915f848152600491602091838352604093848220918254156125a357600883019360ff85541660078110158061259057600182148015612584575b61257457612561576006146125515788156125415786516323b872dd60e01b878201526001600160a01b039889166024820181905230604483015260648083018c9052825291906122f390610a438161216c565b60058501544211988980612539575b6124fc575b600854926123148461222e565b6008558c8552600589528c8a8620928b519561232f87612150565b86528a86019182528b86018e8152606087019384526080870192612353898561223c565b60a088019542875260c08901978852805490600160401b8210156124e9579061238191600182018155612248565b9890986124d7575188555160018801555160028701556003860192511682549151888110156124c4576001600160a81b03199092161760a09190911b60ff60a01b16179055518285015551600591909101556009830180549092906123e7908a906120e1565b8355816123f68a6010546120e1565b6010556124b15750506002820154871061247c5750937f48c2bccbc51e1f7484f972ffcfab4b9350c3b0a96fd813610217cbaa7b16a2ce9361246760609460ff8a99956124709b99600a42910155855f146124725761245760025b826121aa565b5416908351958652850190611de4565b820152a26126da565b565b6124576001612451565b9150507f98378ec9a3cba43c7f6dda645d95e2c1b3791c3db5939c3a8f2a91684c99767e9492935054908351928352820152a2565b634e487b7160e01b825260219052602490fd5b634e487b7160e01b885260218952602488fd5b634e487b7160e01b8a52898b5260248afd5b634e487b7160e01b8b5260418c5260248bfd5b8b7f35253f7e69d4c73c5ebad5d2bc8cd14f6465044bd51dd467fdafb5e25169833b8961252883612ce6565b80600b8b01558c51908152a2612307565b506001612302565b8651637e2897ef60e11b81528390fd5b86516310b3763760e11b81528390fd5b634e487b7160e01b835260218452602483fd5b8851631915f32960e11b81528590fd5b5050826002821461229f565b634e487b7160e01b845260218552602484fd5b50845163d858766960e01b8152fd5b60018060a01b0316906125fb5f80836020829551910182875af13d15612653573d906125dd8261265b565b916125eb6040519384612188565b82523d84602084013e5b84612677565b90815191821515928361262b575b5050506126135750565b60249060405190635274afe760e01b82526004820152fd5b819293509060209181010312611cbe5760200151908115918215036103c857505f8080612609565b6060906125f5565b67ffffffffffffffff811161210257601f01601f191660200190565b9061269e575080511561268c57805190602001fd5b604051630a12f52160e11b8152600490fd5b815115806126d1575b6126af575090565b604051639996b31560e01b81526001600160a01b039091166004820152602490fd5b50803b156126a7565b805f52600460205260405f208054156103b65760090154801561164e57815f52600760205260405f20546127115761247091612730565b60405163cce553a960e01b8152600490fd5b919082039182116120cd57565b905f908282526004602052604090818320926003840154918281115f14612c1e5761275b8382612723565b61276d6127106113b4600f54846120ba565b92600b87015481926002890154808611612c0b575b50600954986127908a61222e565b6009558a845260056020528a89858a8d89848420948554968715155f14612bf5575050505050505f19820191821161194f5760088c888f8e908d8f968c9b9a99986127da91612248565b5054965b8351976127ea89612133565b86895260208901938452848901908152606089019182526080890192835260a08901938b855260c08a01958d875260e08b019788526101009e8f8c0199428b52815260066020522099518a555160018a0155516002890155516003880155516004870155516005860155516006850155516007840155519101558b855260076020528a8a86205561287b888a6120e1565b80612b5b575b50509061288d916120e1565b80612b1c575b50826128e6575b505050906128cd7ff7576d8c2653e9d07af5ef229acf59b339e327d4e0eaddb4a96615534cf148f89493926011546120e1565b6011556128d986612d30565b82519182526020820152a3565b8651631d11e60560e11b8152600481018a90526001600160a01b039290919080836024817f000000000000000000000000000000000000000000000000000000000000000088165afa928315612b105781936129a3575b5050506128cd927ff7576d8c2653e9d07af5ef229acf59b339e327d4e0eaddb4a96615534cf148f897969594926020612999930151167f0000000000000000000000000000000000000000000000000000000000000000612c24565b919293945f61289a565b909192503d8083833e6129b68183612188565b81019060208183031261061857805167ffffffffffffffff91828211612b0c5701916101c0948584830312612b0c578b5195860186811084821117612102578c528351865260208401518781168103611bf55760208701528b8401518c870152606084015160608701526080840151608087015260a084015160a087015260c084015160c087015260e084015160e08701528084015190860152610120808401519086015261014080840151906004821015611bf55786015261016080840151908601526101809182840151908111612b0c57830181601f82011215612b0c5790818c93925191612ab2612aa98461265b565b95519586612188565b82855260208383010111611bf557908591825b828110612af55750508301602001528401526101a0908101519160098310156103c857508201528282602061293d565b602082820181015187830182015288945001612ac5565b8480fd5b508851903d90823e3d90fd5b602081612b4c7f414d7d8eae12f648156e75499fc0a5a10aa84f2745c6f791b0453cb17f1e17fa936012546120e1565b6012558951908152a15f612893565b6001808060a01b03612b928382600254167f0000000000000000000000000000000000000000000000000000000000000000612c24565b60025416920154823b15611c13579060448792838e5195869485936317698be360e11b8552600485015260248401525af18015612beb57612bd4575b80612881565b93612be361288d9392956120ee565b939091612bce565b8a513d87823e3d90fd5b9091929395508499989796508d600895966127de565b612c1791945085612723565b925f612782565b8161275b565b60405163a9059cbb60e01b60208201526001600160a01b039092166024830152604480830193909352918152608081019167ffffffffffffffff83118284101761210257612470926040526125b2565b91908110156121f75760051b0190565b5f52600460205260405f20805415612cb5576005015480421015612cb557612cb162015180914290612723565b0490565b505f90565b5f52600460205260405f20805415612cb5576005015480421115612cb557612cb1620151809142612723565b5f52600460205260405f20600581015480421115612d2a5761271091612d25600262015180612d18612cb19542612723565b04920154600e54906120ba565b6120ba565b50505f90565b600b908154915f5b838110612d46575b50505050565b82612d50826121c2565b919054600392831b1c14612d6d5750612d689061222e565b612d38565b939192505f1991828101919082116120cd57611901612d8e612d9a936121c2565b905490871b1c916121c2565b81548015612dc357810192612dae846121c2565b81939154921b1b19169055555f808080612d40565b634e487b7160e01b5f52603160045260245ffdfea2646970667358221220eb5b85534e5780a153f902d3445afc1ce90e500ec138eb1cf264e537d386c02964736f6c634300081400332f8788117e7eff1d82e926ec794901d17c78024a50270940304540a733656f0d","linkReferences":{}},"methodIdentifiers":{"DEFAULT_ADMIN_ROLE()":"a217fddf","DEFAULT_MANAGER_ROLE()":"7c28dad0","DISPUTE_RESOLVER_ROLE()":"bfe42a37","DISTRIBUTOR_ROLE()":"f0bd87cc","PAYMENT_PROCESSOR_ROLE()":"0b7fe72d","SCHEDULE_MANAGER_ROLE()":"36f9820d","calculateExpectedDistribution(uint256)":"41236903","calculateLateFee(uint256)":"0e502e94","cancelSchedule(uint256)":"237fc2a6","checkOverdue(uint256)":"fd06014d","createPaymentSchedule(uint256,uint256,uint256,uint256,uint256)":"1625dfac","defaultThresholdDays()":"5847ddbe","distribute(uint256)":"91c05b0b","distributePartial(uint256,uint256)":"b807420c","getDaysOverdue(uint256)":"c9074b1f","getDaysUntilDue(uint256)":"f80db812","getDistribution(uint256)":"3b345a87","getOverdueInvoices()":"19baae28","getPaymentRecords(uint256)":"98963390","getPaymentSchedule(uint256)":"bc63c171","getPaymentStatus(uint256)":"a1650043","getPendingDistributions()":"6bde5f0d","getProtocolFeesCollected()":"b44efafa","getRoleAdmin(bytes32)":"248a9ca3","getTotalCollected()":"fbe5d87e","getTotalDistributed()":"5695fa58","gracePeriodDays()":"1348ed5e","grantRole(bytes32,address)":"2f2ff15d","hasRole(bytes32,address)":"91d14854","insurancePool()":"ab2adc00","invoiceToken()":"464b5391","isDefaulted(uint256)":"2f3ad61f","isInGracePeriod(uint256)":"6735e04c","lateFeeRateBps()":"577bcced","liquidityPool()":"665a11ca","markAsDefaulted(uint256)":"a8743022","processDefaultBatch(uint256[])":"08bd14ed","protocolFeeRateBps()":"b8890be6","protocolFeesCollected()":"cc08b834","raiseDispute(uint256,string)":"5aef573c","recordPartialPayment(uint256,uint256,address)":"b0ac7287","recordPayment(uint256,uint256,address,bytes32)":"4853fb5e","recordPaymentDirect(uint256,uint256,bytes32)":"b74f8c69","renounceRole(bytes32,address)":"36568abe","resolveDispute(uint256,uint8,uint256)":"db5d6c41","revokeRole(bytes32,address)":"d547741f","setDefaultThresholdDays(uint256)":"aca5f480","setGracePeriodDays(uint256)":"0ce6b419","setInsurancePool(address)":"a94c487e","setLateFeeRate(uint256)":"7febd92b","setLiquidityPool(address)":"01877020","setProtocolFeeRate(uint256)":"b13aa2d6","stablecoin()":"e9cbd822","supportsInterface(bytes4)":"01ffc9a7","totalCollected()":"e29eb836","totalDistributed()":"efca2eed","withdrawProtocolFees(address)":"2d80caa5"},"id":43}