{"abi":[{"type":"constructor","inputs":[{"name":"_stablecoin","type":"address","internalType":"address"},{"name":"_invoiceToken","type":"address","internalType":"address"},{"name":"_liquidityPool","type":"address","internalType":"address"},{"name":"_admin","type":"address","internalType":"address"}],"stateMutability":"nonpayable"},{"type":"function","name":"DEFAULT_ADMIN_ROLE","inputs":[],"outputs":[{"name":"","type":"bytes32","internalType":"bytes32"}],"stateMutability":"view"},{"type":"function","name":"DEFAULT_MANAGER_ROLE","inputs":[],"outputs":[{"name":"","type":"bytes32","internalType":"bytes32"}],"stateMutability":"view"},{"type":"function","name":"DISPUTE_RESOLVER_ROLE","inputs":[],"outputs":[{"name":"","type":"bytes32","internalType":"bytes32"}],"stateMutability":"view"},{"type":"function","name":"DISTRIBUTOR_ROLE","inputs":[],"outputs":[{"name":"","type":"bytes32","internalType":"bytes32"}],"stateMutability":"view"},{"type":"function","name":"PAYMENT_PROCESSOR_ROLE","inputs":[],"outputs":[{"name":"","type":"bytes32","internalType":"bytes32"}],"stateMutability":"view"},{"type":"function","name":"SCHEDULE_MANAGER_ROLE","inputs":[],"outputs":[{"name":"","type":"bytes32","internalType":"bytes32"}],"stateMutability":"view"},{"type":"function","name":"calculateExpectedDistribution","inputs":[{"name":"invoiceId","type":"uint256","internalType":"uint256"}],"outputs":[{"name":"principal","type":"uint256","internalType":"uint256"},{"name":"yield","type":"uint256","internalType":"uint256"},{"name":"fee","type":"uint256","internalType":"uint256"}],"stateMutability":"view"},{"type":"function","name":"calculateLateFee","inputs":[{"name":"invoiceId","type":"uint256","internalType":"uint256"}],"outputs":[{"name":"","type":"uint256","internalType":"uint256"}],"stateMutability":"view"},{"type":"function","name":"cancelSchedule","inputs":[{"name":"invoiceId","type":"uint256","internalType":"uint256"}],"outputs":[],"stateMutability":"nonpayable"},{"type":"function","name":"checkOverdue","inputs":[{"name":"invoiceId","type":"uint256","internalType":"uint256"}],"outputs":[],"stateMutability":"nonpayable"},{"type":"function","name":"createPaymentSchedule","inputs":[{"name":"invoiceId","type":"uint256","internalType":"uint256"},{"name":"deploymentId","type":"uint256","internalType":"uint256"},{"name":"faceValue","type":"uint256","internalType":"uint256"},{"name":"advanceAmount","type":"uint256","internalType":"uint256"},{"name":"dueDate","type":"uint256","internalType":"uint256"}],"outputs":[],"stateMutability":"nonpayable"},{"type":"function","name":"defaultThresholdDays","inputs":[],"outputs":[{"name":"","type":"uint256","internalType":"uint256"}],"stateMutability":"view"},{"type":"function","name":"distribute","inputs":[{"name":"invoiceId","type":"uint256","internalType":"uint256"}],"outputs":[],"stateMutability":"nonpayable"},{"type":"function","name":"distributePartial","inputs":[{"name":"invoiceId","type":"uint256","internalType":"uint256"},{"name":"amount","type":"uint256","internalType":"uint256"}],"outputs":[],"stateMutability":"nonpayable"},{"type":"function","name":"getDaysOverdue","inputs":[{"name":"invoiceId","type":"uint256","internalType":"uint256"}],"outputs":[{"name":"","type":"uint256","internalType":"uint256"}],"stateMutability":"view"},{"type":"function","name":"getDaysUntilDue","inputs":[{"name":"invoiceId","type":"uint256","internalType":"uint256"}],"outputs":[{"name":"","type":"int256","internalType":"int256"}],"stateMutability":"view"},{"type":"function","name":"getDistribution","inputs":[{"name":"distributionId","type":"uint256","internalType":"uint256"}],"outputs":[{"name":"","type":"tuple","internalType":"struct YieldDistributor.Distribution","components":[{"name":"distributionId","type":"uint256","internalType":"uint256"},{"name":"invoiceId","type":"uint256","internalType":"uint256"},{"name":"paymentRecordId","type":"uint256","internalType":"uint256"},{"name":"principalToPool","type":"uint256","internalType":"uint256"},{"name":"yieldToPool","type":"uint256","internalType":"uint256"},{"name":"protocolFee","type":"uint256","internalType":"uint256"},{"name":"lateFeeCollected","type":"uint256","internalType":"uint256"},{"name":"excessToSeller","type":"uint256","internalType":"uint256"},{"name":"distributedAt","type":"uint256","internalType":"uint256"}]}],"stateMutability":"view"},{"type":"function","name":"getOverdueInvoices","inputs":[],"outputs":[{"name":"","type":"uint256[]","internalType":"uint256[]"}],"stateMutability":"view"},{"type":"function","name":"getPaymentRecords","inputs":[{"name":"invoiceId","type":"uint256","internalType":"uint256"}],"outputs":[{"name":"","type":"tuple[]","internalType":"struct YieldDistributor.PaymentRecord[]","components":[{"name":"recordId","type":"uint256","internalType":"uint256"},{"name":"invoiceId","type":"uint256","internalType":"uint256"},{"name":"amount","type":"uint256","internalType":"uint256"},{"name":"payer","type":"address","internalType":"address"},{"name":"paymentType","type":"uint8","internalType":"enum YieldDistributor.PaymentType"},{"name":"paidAt","type":"uint256","internalType":"uint256"},{"name":"referenceHash","type":"bytes32","internalType":"bytes32"}]}],"stateMutability":"view"},{"type":"function","name":"getPaymentSchedule","inputs":[{"name":"invoiceId","type":"uint256","internalType":"uint256"}],"outputs":[{"name":"","type":"tuple","internalType":"struct YieldDistributor.PaymentSchedule","components":[{"name":"invoiceId","type":"uint256","internalType":"uint256"},{"name":"deploymentId","type":"uint256","internalType":"uint256"},{"name":"faceValue","type":"uint256","internalType":"uint256"},{"name":"advanceAmount","type":"uint256","internalType":"uint256"},{"name":"expectedReturn","type":"uint256","internalType":"uint256"},{"name":"dueDate","type":"uint256","internalType":"uint256"},{"name":"gracePeriodEnd","type":"uint256","internalType":"uint256"},{"name":"defaultDate","type":"uint256","internalType":"uint256"},{"name":"status","type":"uint8","internalType":"enum YieldDistributor.PaymentStatus"},{"name":"paidAmount","type":"uint256","internalType":"uint256"},{"name":"paidAt","type":"uint256","internalType":"uint256"},{"name":"lateFee","type":"uint256","internalType":"uint256"}]}],"stateMutability":"view"},{"type":"function","name":"getPaymentStatus","inputs":[{"name":"invoiceId","type":"uint256","internalType":"uint256"}],"outputs":[{"name":"","type":"uint8","internalType":"enum YieldDistributor.PaymentStatus"}],"stateMutability":"view"},{"type":"function","name":"getPendingDistributions","inputs":[],"outputs":[{"name":"","type":"uint256[]","internalType":"uint256[]"}],"stateMutability":"view"},{"type":"function","name":"getProtocolFeesCollected","inputs":[],"outputs":[{"name":"","type":"uint256","internalType":"uint256"}],"stateMutability":"view"},{"type":"function","name":"getRoleAdmin","inputs":[{"name":"role","type":"bytes32","internalType":"bytes32"}],"outputs":[{"name":"","type":"bytes32","internalType":"bytes32"}],"stateMutability":"view"},{"type":"function","name":"getTotalCollected","inputs":[],"outputs":[{"name":"","type":"uint256","internalType":"uint256"}],"stateMutability":"view"},{"type":"function","name":"getTotalDistributed","inputs":[],"outputs":[{"name":"","type":"uint256","internalType":"uint256"}],"stateMutability":"view"},{"type":"function","name":"gracePeriodDays","inputs":[],"outputs":[{"name":"","type":"uint256","internalType":"uint256"}],"stateMutability":"view"},{"type":"function","name":"grantRole","inputs":[{"name":"role","type":"bytes32","internalType":"bytes32"},{"name":"account","type":"address","internalType":"address"}],"outputs":[],"stateMutability":"nonpayable"},{"type":"function","name":"hasRole","inputs":[{"name":"role","type":"bytes32","internalType":"bytes32"},{"name":"account","type":"address","internalType":"address"}],"outputs":[{"name":"","type":"bool","internalType":"bool"}],"stateMutability":"view"},{"type":"function","name":"insurancePool","inputs":[],"outputs":[{"name":"","type":"address","internalType":"address"}],"stateMutability":"view"},{"type":"function","name":"invoiceToken","inputs":[],"outputs":[{"name":"","type":"address","internalType":"contract IInvoiceToken"}],"stateMutability":"view"},{"type":"function","name":"isDefaulted","inputs":[{"name":"invoiceId","type":"uint256","internalType":"uint256"}],"outputs":[{"name":"","type":"bool","internalType":"bool"}],"stateMutability":"view"},{"type":"function","name":"isInGracePeriod","inputs":[{"name":"invoiceId","type":"uint256","internalType":"uint256"}],"outputs":[{"name":"","type":"bool","internalType":"bool"}],"stateMutability":"view"},{"type":"function","name":"lateFeeRateBps","inputs":[],"outputs":[{"name":"","type":"uint256","internalType":"uint256"}],"stateMutability":"view"},{"type":"function","name":"liquidityPool","inputs":[],"outputs":[{"name":"","type":"address","internalType":"contract LiquidityPool"}],"stateMutability":"view"},{"type":"function","name":"markAsDefaulted","inputs":[{"name":"invoiceId","type":"uint256","internalType":"uint256"}],"outputs":[],"stateMutability":"nonpayable"},{"type":"function","name":"processDefaultBatch","inputs":[{"name":"invoiceIds","type":"uint256[]","internalType":"uint256[]"}],"outputs":[],"stateMutability":"nonpayable"},{"type":"function","name":"protocolFeeRateBps","inputs":[],"outputs":[{"name":"","type":"uint256","internalType":"uint256"}],"stateMutability":"view"},{"type":"function","name":"protocolFeesCollected","inputs":[],"outputs":[{"name":"","type":"uint256","internalType":"uint256"}],"stateMutability":"view"},{"type":"function","name":"raiseDispute","inputs":[{"name":"invoiceId","type":"uint256","internalType":"uint256"},{"name":"reason","type":"string","internalType":"string"}],"outputs":[],"stateMutability":"nonpayable"},{"type":"function","name":"recordPartialPayment","inputs":[{"name":"invoiceId","type":"uint256","internalType":"uint256"},{"name":"amount","type":"uint256","internalType":"uint256"},{"name":"payer","type":"address","internalType":"address"}],"outputs":[],"stateMutability":"nonpayable"},{"type":"function","name":"recordPayment","inputs":[{"name":"invoiceId","type":"uint256","internalType":"uint256"},{"name":"amount","type":"uint256","internalType":"uint256"},{"name":"payer","type":"address","internalType":"address"},{"name":"referenceHash","type":"bytes32","internalType":"bytes32"}],"outputs":[],"stateMutability":"nonpayable"},{"type":"function","name":"recordPaymentDirect","inputs":[{"name":"invoiceId","type":"uint256","internalType":"uint256"},{"name":"amount","type":"uint256","internalType":"uint256"},{"name":"referenceHash","type":"bytes32","internalType":"bytes32"}],"outputs":[],"stateMutability":"nonpayable"},{"type":"function","name":"renounceRole","inputs":[{"name":"role","type":"bytes32","internalType":"bytes32"},{"name":"callerConfirmation","type":"address","internalType":"address"}],"outputs":[],"stateMutability":"nonpayable"},{"type":"function","name":"resolveDispute","inputs":[{"name":"invoiceId","type":"uint256","internalType":"uint256"},{"name":"resolution","type":"uint8","internalType":"enum YieldDistributor.DisputeResolution"},{"name":"settlementAmount","type":"uint256","internalType":"uint256"}],"outputs":[],"stateMutability":"nonpayable"},{"type":"function","name":"revokeRole","inputs":[{"name":"role","type":"bytes32","internalType":"bytes32"},{"name":"account","type":"address","internalType":"address"}],"outputs":[],"stateMutability":"nonpayable"},{"type":"function","name":"setDefaultThresholdDays","inputs":[{"name":"days_","type":"uint256","internalType":"uint256"}],"outputs":[],"stateMutability":"nonpayable"},{"type":"function","name":"setGracePeriodDays","inputs":[{"name":"days_","type":"uint256","internalType":"uint256"}],"outputs":[],"stateMutability":"nonpayable"},{"type":"function","name":"setInsurancePool","inputs":[{"name":"pool","type":"address","internalType":"address"}],"outputs":[],"stateMutability":"nonpayable"},{"type":"function","name":"setLateFeeRate","inputs":[{"name":"rateBps","type":"uint256","internalType":"uint256"}],"outputs":[],"stateMutability":"nonpayable"},{"type":"function","name":"setLiquidityPool","inputs":[{"name":"pool","type":"address","internalType":"address"}],"outputs":[],"stateMutability":"nonpayable"},{"type":"function","name":"setProtocolFeeRate","inputs":[{"name":"rateBps","type":"uint256","internalType":"uint256"}],"outputs":[],"stateMutability":"nonpayable"},{"type":"function","name":"stablecoin","inputs":[],"outputs":[{"name":"","type":"address","internalType":"contract IERC20"}],"stateMutability":"view"},{"type":"function","name":"supportsInterface","inputs":[{"name":"interfaceId","type":"bytes4","internalType":"bytes4"}],"outputs":[{"name":"","type":"bool","internalType":"bool"}],"stateMutability":"view"},{"type":"function","name":"totalCollected","inputs":[],"outputs":[{"name":"","type":"uint256","internalType":"uint256"}],"stateMutability":"view"},{"type":"function","name":"totalDistributed","inputs":[],"outputs":[{"name":"","type":"uint256","internalType":"uint256"}],"stateMutability":"view"},{"type":"function","name":"withdrawProtocolFees","inputs":[{"name":"to","type":"address","internalType":"address"}],"outputs":[],"stateMutability":"nonpayable"},{"type":"event","name":"DisputeRaised","inputs":[{"name":"invoiceId","type":"uint256","indexed":true,"internalType":"uint256"},{"name":"reason","type":"string","indexed":false,"internalType":"string"}],"anonymous":false},{"type":"event","name":"DisputeResolved","inputs":[{"name":"invoiceId","type":"uint256","indexed":true,"internalType":"uint256"},{"name":"resolution","type":"uint8","indexed":false,"internalType":"enum YieldDistributor.DisputeResolution"}],"anonymous":false},{"type":"event","name":"Distributed","inputs":[{"name":"distributionId","type":"uint256","indexed":true,"internalType":"uint256"},{"name":"invoiceId","type":"uint256","indexed":true,"internalType":"uint256"},{"name":"principal","type":"uint256","indexed":false,"internalType":"uint256"},{"name":"yield","type":"uint256","indexed":false,"internalType":"uint256"}],"anonymous":false},{"type":"event","name":"InvoiceDefaulted","inputs":[{"name":"invoiceId","type":"uint256","indexed":true,"internalType":"uint256"},{"name":"outstandingAmount","type":"uint256","indexed":false,"internalType":"uint256"}],"anonymous":false},{"type":"event","name":"InvoiceOverdue","inputs":[{"name":"invoiceId","type":"uint256","indexed":true,"internalType":"uint256"},{"name":"daysOverdue","type":"uint256","indexed":false,"internalType":"uint256"}],"anonymous":false},{"type":"event","name":"LateFeeCollected","inputs":[{"name":"invoiceId","type":"uint256","indexed":true,"internalType":"uint256"},{"name":"amount","type":"uint256","indexed":false,"internalType":"uint256"}],"anonymous":false},{"type":"event","name":"PartialPaymentReceived","inputs":[{"name":"invoiceId","type":"uint256","indexed":true,"internalType":"uint256"},{"name":"amount","type":"uint256","indexed":false,"internalType":"uint256"},{"name":"totalPaid","type":"uint256","indexed":false,"internalType":"uint256"}],"anonymous":false},{"type":"event","name":"PaymentReceived","inputs":[{"name":"invoiceId","type":"uint256","indexed":true,"internalType":"uint256"},{"name":"amount","type":"uint256","indexed":false,"internalType":"uint256"},{"name":"status","type":"uint8","indexed":false,"internalType":"enum YieldDistributor.PaymentStatus"},{"name":"wasLate","type":"bool","indexed":false,"internalType":"bool"}],"anonymous":false},{"type":"event","name":"ProtocolFeeCollected","inputs":[{"name":"amount","type":"uint256","indexed":false,"internalType":"uint256"}],"anonymous":false},{"type":"event","name":"RoleAdminChanged","inputs":[{"name":"role","type":"bytes32","indexed":true,"internalType":"bytes32"},{"name":"previousAdminRole","type":"bytes32","indexed":true,"internalType":"bytes32"},{"name":"newAdminRole","type":"bytes32","indexed":true,"internalType":"bytes32"}],"anonymous":false},{"type":"event","name":"RoleGranted","inputs":[{"name":"role","type":"bytes32","indexed":true,"internalType":"bytes32"},{"name":"account","type":"address","indexed":true,"internalType":"address"},{"name":"sender","type":"address","indexed":true,"internalType":"address"}],"anonymous":false},{"type":"event","name":"RoleRevoked","inputs":[{"name":"role","type":"bytes32","indexed":true,"internalType":"bytes32"},{"name":"account","type":"address","indexed":true,"internalType":"address"},{"name":"sender","type":"address","indexed":true,"internalType":"address"}],"anonymous":false},{"type":"event","name":"ScheduleCancelled","inputs":[{"name":"invoiceId","type":"uint256","indexed":true,"internalType":"uint256"}],"anonymous":false},{"type":"event","name":"ScheduleCreated","inputs":[{"name":"invoiceId","type":"uint256","indexed":true,"internalType":"uint256"},{"name":"faceValue","type":"uint256","indexed":false,"internalType":"uint256"},{"name":"dueDate","type":"uint256","indexed":false,"internalType":"uint256"}],"anonymous":false},{"type":"error","name":"AccessControlBadConfirmation","inputs":[]},{"type":"error","name":"AccessControlUnauthorizedAccount","inputs":[{"name":"account","type":"address","internalType":"address"},{"name":"neededRole","type":"bytes32","internalType":"bytes32"}]},{"type":"error","name":"AddressEmptyCode","inputs":[{"name":"target","type":"address","internalType":"address"}]},{"type":"error","name":"AddressInsufficientBalance","inputs":[{"name":"account","type":"address","internalType":"address"}]},{"type":"error","name":"AlreadyDistributed","inputs":[]},{"type":"error","name":"FailedInnerCall","inputs":[]},{"type":"error","name":"InvalidPayer","inputs":[]},{"type":"error","name":"InvalidPaymentAmount","inputs":[]},{"type":"error","name":"InvoiceAlreadyPaid","inputs":[]},{"type":"error","name":"InvoiceDisputed","inputs":[]},{"type":"error","name":"InvoiceNotOverdue","inputs":[]},{"type":"error","name":"InvoiceNotPending","inputs":[]},{"type":"error","name":"NothingToDistribute","inputs":[]},{"type":"error","name":"PaymentTooLow","inputs":[]},{"type":"error","name":"ReentrancyGuardReentrantCall","inputs":[]},{"type":"error","name":"SafeERC20FailedOperation","inputs":[{"name":"token","type":"address","internalType":"address"}]},{"type":"error","name":"ScheduleAlreadyExists","inputs":[]},{"type":"error","name":"ScheduleNotFound","inputs":[]},{"type":"error","name":"TransferFailed","inputs":[]}],"bytecode":{"object":"0x60c034620001a657601f6200336c38819003918201601f19168301916001600160401b03831184841017620001ab57808492608094604052833981010312620001a6576200004d81620001c1565b906200005c60208201620001c1565b916200007960606200007160408501620001c1565b9301620001c1565b600180805560088190556009556005600c55601e600d55600a600e5560c8600f55916001600160a01b03918216801580156200019b575b801562000190575b801562000185575b6200017357620001269483916080521660a0521660018060a01b03196002541617600255620000ef81620001d6565b50620000fb8162000256565b506200010781620002f8565b50620001138162000395565b506200011f8162000432565b50620004cf565b50604051612ddf90816200056d8239608051818181610452015281816109f40152818161157e0152818161281d0152612a15015260a05181818161129901528181611a7d01526127c60152f35b604051637e2897ef60e11b8152600490fd5b5082841615620000c0565b5082821615620000b8565b5082851615620000b0565b600080fd5b634e487b7160e01b600052604160045260246000fd5b51906001600160a01b0382168203620001a657565b6001600160a01b031660008181527fad3228b676f7d3cd4284a5443f17f1962b36e491b30a40b2405849e597ba5fb5602052604081205490919060ff166200025257818052816020526040822081835260205260408220600160ff1982541617905533916000805160206200334c8339815191528180a4600190565b5090565b6001600160a01b031660008181527f60a63608d445c8cf3e1d9789936a0c2cdf81422d96448e2baebaa02da53aeee860205260408120549091907f54217f7b85353d04ece159ebd69a45e9b8287dd2043746eaca469996a3d91aee9060ff16620002f357808352826020526040832082845260205260408320600160ff198254161790556000805160206200334c833981519152339380a4600190565b505090565b6001600160a01b031660008181527f18a99bda15e9a7322116e788ee9e2cd6977ead5311db5a71f601c108a21b5ef760205260408120549091907fd7d8b7014b7ed36eb085c9e3e427b642d74cab75ecefda8a757042e63ec599199060ff16620002f357808352826020526040832082845260205260408320600160ff198254161790556000805160206200334c833981519152339380a4600190565b6001600160a01b031660008181527f37775adb12013835ce20d78b1c52193dd1da3dc792bc1ec9a2d7427221516c8a60205260408120549091907ffbd454f36a7e1a388bd6fc3ab10d434aa4578f811acbbcf33afb1c697486313c9060ff16620002f357808352826020526040832082845260205260408320600160ff198254161790556000805160206200334c833981519152339380a4600190565b6001600160a01b031660008181527f78029389cbe64367d429370b6ac9f9b1bd4e83b4413e51cee2c0b3af481e8f3c60205260408120549091907f87db7b72171141867603ec05a6c972fd56944662798438e0164a817002c0fac19060ff16620002f357808352826020526040832082845260205260408320600160ff198254161790556000805160206200334c833981519152339380a4600190565b6001600160a01b031660008181527f1faa33813a4136802f43076b446350cf9588d040bfbd1df96ccd112768eab3e860205260408120549091907f7b8bb8356a3f32f5c111ff23f050d97f08988e0883529ea7bff3b918887a6e0e9060ff16620002f357808352826020526040832082845260205260408320600160ff198254161790556000805160206200334c833981519152339380a460019056fe6080604052600436101561001257600080fd5b6000803560e01c80630187702014611c4b57806301ffc9a714611bf557806308bd14ed146119565780630b7fe72d1461192d5780630ce6b4191461190a5780630e502e94146118eb5780631348ed5e146118cd5780631625dfac146116c657806319baae2814611650578063237fc2a6146115e2578063248a9ca3146115b65780632d80caa51461153a5780632f2ff15d146114fd5780632f3ad61f146114be57806336568abe1461147657806336f9820d1461144d5780633b345a871461133e57806341236903146112c8578063464b5391146112835780634853fb5e146112475780635695fa581461041e578063577bcced146112295780635847ddbe1461120b5780635aef573c14611147578063665a11ca1461111e5780636735e04c146110d55780636bde5f0d1461104f5780637c28dad0146110265780637febd92b14610ffa57806391c05b0b14610fcd57806391d1485414610f855780639896339014610e18578063a165004314610de1578063a217fddf14610dc5578063a874302214610cd6578063a94c487e14610c91578063ab2adc0014610c68578063aca5f48014610c45578063b0ac728714610940578063b13aa2d614610914578063b44efafa14610645578063b74f8c69146108e8578063b807420c1461086e578063b8890be614610850578063bc63c171146106ab578063bfe42a3714610682578063c9074b1f14610663578063cc08b83414610645578063d547741f14610604578063db5d6c4114610481578063e29eb836146103b0578063e9cbd8221461043c578063efca2eed1461041e578063f0bd87cc146103f5578063f80db812146103ce578063fbe5d87e146103b05763fd06014d1461029057600080fd5b346103ad5760203660031901126103ad5760043580825260046020526040822080541561039b57600681015442118061036f575b6102cc578280f35b60088101805460ff19166004179055600a54600160401b81101561035b576001810180600a55811015610347576201518061033960057f4810d15d0e5b37f62cb63e3ffea0ad598da586aab0fbc697babdc7eeabc927289486602095600a8a52868a2001550154426125eb565b04604051908152a238808280f35b634e487b7160e01b84526032600452602484fd5b634e487b7160e01b84526041600452602484fd5b5060ff600882015416600781101561038757156102c4565b634e487b7160e01b84526021600452602484fd5b60405163d858766960e01b8152600490fd5b80fd5b50346103ad57806003193601126103ad576020601054604051908152f35b50346103ad5760203660031901126103ad5760206103ed600435612b2a565b604051908152f35b50346103ad57806003193601126103ad576020604051600080516020612d0a8339815191528152f35b50346103ad57806003193601126103ad576020601154604051908152f35b50346103ad57806003193601126103ad576040517f00000000000000000000000000000000000000000000000000000000000000006001600160a01b03168152602090f35b50346103ad5760603660031901126103ad5760043560243560038110156105d95760443590600080516020612d4a833981519152808552846020526040852033865260205260ff604086205416156105e657508284526004602052604084209182541561039b57849260028314806105dd575b156105445760088101805460ff1916905560028101829055600401555b6040519161038757816020917f2ffcfee146bc0d5ff304c6b65111a0d485af9456dc64eee7d66ebdcc90b223ea9352a280f35b85935090508161055e57600801805460ff19169055610511565b60088101600560ff198254161790558460018060a01b0360025416916009600182015491015490833b156105d9576044908360405195869485936358dfed0d60e11b8552600485015260248401525af180156105ce576105bf575b50610511565b6105c890611fe9565b386105b9565b6040513d87823e3d90fd5b8280fd5b508115156104f4565b6044906040519063e2517d3f60e01b82523360048301526024820152fd5b50346103ad5760403660031901126103ad57610641600435610624611cae565b908084528360205261063c6001604086200154611e9a565b611f3e565b5080f35b50346103ad57806003193601126103ad576020601254604051908152f35b50346103ad5760203660031901126103ad5760206103ed600435612b63565b50346103ad57806003193601126103ad576020604051600080516020612d4a8339815191528152f35b50346103ad5760203660031901126103ad57806101606040516106cd81612012565b8281528260208201528260408201528260608201528260808201528260a08201528260c08201528260e082015282610100820152826101208201528261014082015201526004358152600460205260408120906040519061072d82612012565b8254825260018301546020830152600283015460408301526003830154606083015260048301546080830152600583015460a0830152600683015460c0830152600783015460e083015260ff60088401541690600782101561083c575061018092600b916101008401526009810154610120840152600a810154610140840152015461016082015261016060405191805183526020810151602084015260408101516040840152606081015160608401526080810151608084015260a081015160a084015260c081015160c084015260e081015160e084015261081a610100820151610100850190611d15565b6101208101516101208401526101408101516101408401520151610160820152f35b634e487b7160e01b81526021600452602490fd5b50346103ad57806003193601126103ad576020600f54604051908152f35b50346103ad5760403660031901126103ad5760043560243561088e6120ec565b610896611e50565b81835260046020526040832080541561039b5781159081156108da575b506108c8576108c1916125f8565b6001805580f35b604051637e2897ef60e11b8152600490fd5b6009915001548111386108b3565b50346103ad5760603660031901126103ad576109026120ec565b6108c160443533602435600435612146565b50346103ad5760203660031901126103ad57600435610931611d38565b61271081116108c857600f5580f35b50346103ad5760603660031901126103ad5761095a611cc4565b6109626120ec565b61096a611e06565b81600435835260046020526040832080541561039b5760ff600882015416600781101580610c3157600182148015610c25575b610c1357610bff57600614610bed576024928335156108c857610a18604051916323b872dd60e01b602084015260018060a01b031691828682015230604482015285356064820152606481526109f281612065565b7f0000000000000000000000000000000000000000000000000000000000000000612476565b6005820154421180610be3575b610bb1575b60085490610a378261210f565b60085560043584526005602052604084209060405192610a568461204a565b83526004356020840152853560408401526060830152600160808301524260a083015260c08201849052805490600160401b821015610b9e5790610a9f9160018201815561212a565b919091610b8a578051825560208101516001830155604081015160028301556003820160018060a01b0360608301511681549060808401516004811015610b77576001600160a81b03199092161760a091821b60ff60a01b1617909155810151600483015560c001516005909101556009018054909190610b2290843590611fdc565b825580610b328435601054611fdc565b601055610b64575054604051913582526020820152600080516020612cca833981519152604060043592a26001805580f35b634e487b7160e01b815260216004529050fd5b634e487b7160e01b885260216004528888fd5b5050634e487b7160e01b8252506004819052fd5b634e487b7160e01b855260416004528585fd5b610bbc600435612b91565b80600b840155604051908152600080516020612c8a833981519152602060043592a2610a2a565b5084925082610a25565b6040516310b3763760e11b8152600490fd5b634e487b7160e01b85526021600452602485fd5b604051631915f32960e11b8152600490fd5b5050846002821461099d565b634e487b7160e01b86526021600452602486fd5b50346103ad5760203660031901126103ad57610c5f611d38565b600435600d5580f35b50346103ad57806003193601126103ad576003546040516001600160a01b039091168152602090f35b50346103ad5760203660031901126103ad57610cab611c93565b610cb3611d38565b600380546001600160a01b0319166001600160a01b039290921691909117905580f35b50346103ad5760203660031901126103ad57600435610cf3611d72565b80825260046020526040822080541561039b5760088101805460ff81166007811015610c3157600614610bed5760059060ff1916179055600281015483610d3f600984015480936125eb565b916001808060a01b0360025416940154843b156105d9576044908360405196879485936358dfed0d60e11b8552600485015260248401525af1908115610dba57600080516020612d2a83398151915292602092610dab575b50610da184612bde565b604051908152a280f35b610db490611fe9565b38610d97565b6040513d86823e3d90fd5b50346103ad57806003193601126103ad57602090604051908152f35b50346103ad5760203660031901126103ad5760ff6008604060209360043581526004855220015416610e166040518092611d15565bf35b50346103ad57602090816003193601126103ad57600435815260058083526040822080549093906001600160401b03811161035b579184919260405191610e638583831b0184612080565b81835284830190819487528587209087925b848410610f0d575050505050604051928084019181855251809252604084019294805b838210610ea55785850386f35b90919293865180518252848101518583015260408101516040830152606060018060a01b03818301511690830152608080820151906004821015610bff5783015260a0808201519083015260c090810151908201529583019560e00193929160010190610e98565b60068860019260409b9a98999b51610f248161204a565b865481528487015483820152600287015460408201526003870154858060a01b0381166060830152610f6060ff60a092831c166080840161211e565b6004880154908201528587015460c08201528152019301930192919795949697610e75565b50346103ad5760403660031901126103ad5760ff6040602092610fa6611cae565b60043582528185528282206001600160a01b03909116825284522054604051911615158152f35b50346103ad5760203660031901126103ad57610fe76120ec565b610fef611e50565b6108c160043561259e565b50346103ad5760203660031901126103ad57600435611017611d38565b61271081116108c857600e5580f35b50346103ad57806003193601126103ad576020604051600080516020612cea8339815191528152f35b50346103ad57806003193601126103ad57604051600b80548083529083526020808301937f0175b7a638427703f0dbe7bb9bbf987a2551717b34e79f33b5b1008d1fa01db992915b8282106110be576110ba856110ae81890382612080565b60405191829182611cda565b0390f35b835486529485019460019384019390910190611097565b50346103ad5760203660031901126103ad5760406020916004358152600483522060058101544211908161110f575b506040519015158152f35b60069150015442111538611104565b50346103ad57806003193601126103ad576002546040516001600160a01b039091168152602090f35b50346103ad5760403660031901126103ad576004356024356001600160401b0380821161120757366023830112156112075781600401359081116112075736602482840101116112075782845260046020526040842080541561039b577fe07ad455e24561261e9047aab2f668ae1fc2cc6fda35021764673613b888836d92602492600860409301600660ff198254161790558083519485936020855282602086015201848401378181018301879052601f01601f19168101030190a280f35b8380fd5b50346103ad57806003193601126103ad576020600d54604051908152f35b50346103ad57806003193601126103ad576020600e54604051908152f35b50346103ad5760803660031901126103ad576108c1611264611cc4565b61126c6120ec565b611274611e06565b60643590602435600435612146565b50346103ad57806003193601126103ad576040517f00000000000000000000000000000000000000000000000000000000000000006001600160a01b03168152602090f35b50346103ad5760203660031901126103ad5760026060916004358152600460205260408120600381015492839101548181116000146113375761130b92506125eb565b61132561271061131d600f5484611fb3565b0480926125eb565b60405192835260208301526040820152f35b505061130b565b50346103ad5760203660031901126103ad576101209060408051916113628361202e565b80835280602084015280828401528060608401528060808401528060a08401528060c08401528060e084015280610100809401526004358152600660205220906040516113ae8161202e565b8254928382526001810154602083019081526002820154604084019081526003830154606085019081526004840154906080860191825260058501549260a0870193845260068601549460c0880195865288600860078901549860e08b01998a5201549801978852604051998a525160208a01525160408901525160608801525160808701525160a08601525160c08501525160e08401525190820152f35b50346103ad57806003193601126103ad576020604051600080516020612d6a8339815191528152f35b50346103ad5760403660031901126103ad57611490611cae565b336001600160a01b038216036114ac5761064190600435611f3e565b60405163334bd91960e11b8152600490fd5b50346103ad5760203660031901126103ad576004358152600460205260ff60086040832001541690600782101561083c57602082600560405191148152f35b50346103ad5760403660031901126103ad5761064160043561151d611cae565b90808452836020526115356001604086200154611e9a565b611ec0565b50346103ad5760203660031901126103ad57611554611c93565b61155c611d38565b6001600160a01b038116156108c85760125480156115a5576115a291836012557f0000000000000000000000000000000000000000000000000000000000000000612acb565b80f35b60405162598fc960e21b8152600490fd5b50346103ad5760203660031901126103ad57600160406020926004358152808452200154604051908152f35b50346103ad5760203660031901126103ad576004356115ff611dbc565b80825260046020526040822080541561039b57600801805460ff1916600617905561162981612bde565b7faafc09ed0175af188e56c12f5eda79a11a6d2d747621fb47b25f301d499fdc5e8280a280f35b50346103ad57806003193601126103ad57604051600a80548083529083526020808301937fc65a7bb8d6351c1cf70c95a316cc6a92839c986682d98bc35f958f4883f9d2a892915b8282106116af576110ba856110ae81890382612080565b835486529485019460019384019390910190611698565b50346103ad5760a03660031901126103ad576004356044356084356116e9611dbc565b828452600460205260408420546118bb57600c546201518090818102908082048314901517156118a75761171d9083611fdc565b90600d548181029181830414901517156118a757858061173e819386611fdc565b9360405194859161174e83612012565b89835287898b602086016024358152604087019083825260408960608a0194606435865260808b0196875260a08b0197885260c08b0198895260e08b01998a526101606101008c019b838d5261012081019d8e5261014081019e8f52019d8e5281526004602052209b518c555160018c01555160028b01555160038a01555160048901555160058801555160068701555160078601555160078110156118935790611800600b949392600887016120a3565b51600985015551600a84015551910155600b54600160401b81101561187f5791604091611871856118588660017fc6bf85d136b95579125a47c9781847cacd55015777db8a853dd17946aed35fb29801600b556120bb565b90919082549060031b91821b91600019901b1916179055565b82519182526020820152a280f35b634e487b7160e01b85526041600452602485fd5b634e487b7160e01b89526021600452602489fd5b634e487b7160e01b86526011600452602486fd5b60405163e109c26360e01b8152600490fd5b50346103ad57806003193601126103ad576020600c54604051908152f35b50346103ad5760203660031901126103ad5760206103ed600435612b91565b50346103ad5760203660031901126103ad57611924611d38565b600435600c5580f35b50346103ad57806003193601126103ad576020604051600080516020612d8a8339815191528152f35b50346103ad57602080600319360112611bf1576001600160401b0360043581811161120757366023820112156112075780600401359182116112075760249182820160059284369184861b010111611b28576119b0611d72565b85805b8381106119be575080f35b6119c9818585612b1a565b35825260048752604082208054151580611be4575b80611bc2575b80611ba1575b80611b7f575b80611b4a575b611a0d575b50611a06915061210f565b86906119b3565b600881018660ff198254161790556002908181015491611a32600983015480946125eb565b926001808060a01b038093541693015492803b15611b4657869384916040519384926358dfed0d60e11b845260048401528d8301528160449687925af18015611b3b57611b2c575b507f000000000000000000000000000000000000000000000000000000000000000016611aa8848888612b1a565b3591813b15611b285785926040519687938492633a1b3d3160e01b8452600484015260068d8401525af1928315611b1d57611a0693611b0e575b50600080516020612d2a83398151915288611afe848888612b1a565b3592604051908152a287916119fb565b611b1790611fe9565b38611ae2565b6040513d8b823e3d90fd5b8580fd5b611b3590611fe9565b38611a7a565b6040513d88823e3d90fd5b8680fd5b5090915060ff6008820154166007811015611b6c5790600289939214156119f6565b634e487b7160e01b895260216004528689fd5b5090915060ff6008820154166007811015611b6c5790600189939214156119f0565b5090915060ff6008820154166007811015611b6c57908589939214156119ea565b5090915060ff6008820154166007811015611b6c5790600689939214156119e4565b50600781015442116119de565b5080fd5b50346103ad5760203660031901126103ad5760043563ffffffff60e01b8116809103611bf157602090637965db0b60e01b8114908115611c3a57506040519015158152f35b6301ffc9a760e01b14905082611104565b50346103ad5760203660031901126103ad57611c65611c93565b611c6d611d38565b6001600160a01b031680156108c857600280546001600160a01b03191691909117905580f35b600435906001600160a01b0382168203611ca957565b600080fd5b602435906001600160a01b0382168203611ca957565b604435906001600160a01b0382168203611ca957565b6020908160408183019282815285518094520193019160005b828110611d01575050505090565b835185529381019392810192600101611cf3565b906007821015611d225752565b634e487b7160e01b600052602160045260246000fd5b3360009081527fad3228b676f7d3cd4284a5443f17f1962b36e491b30a40b2405849e597ba5fb5602052604081205460ff16156105e65750565b3360009081527f78029389cbe64367d429370b6ac9f9b1bd4e83b4413e51cee2c0b3af481e8f3c6020526040902054600080516020612cea8339815191529060ff16156105e65750565b3360009081527f60a63608d445c8cf3e1d9789936a0c2cdf81422d96448e2baebaa02da53aeee86020526040902054600080516020612d6a8339815191529060ff16156105e65750565b3360009081527f18a99bda15e9a7322116e788ee9e2cd6977ead5311db5a71f601c108a21b5ef76020526040902054600080516020612d8a8339815191529060ff16156105e65750565b3360009081527f37775adb12013835ce20d78b1c52193dd1da3dc792bc1ec9a2d7427221516c8a6020526040902054600080516020612d0a8339815191529060ff16156105e65750565b80600052600060205260406000203360005260205260ff60406000205416156105e65750565b9060009180835282602052604083209160018060a01b03169182845260205260ff60408420541615600014611f3957808352826020526040832082845260205260408320600160ff198254161790557f2f8788117e7eff1d82e926ec794901d17c78024a50270940304540a733656f0d339380a4600190565b505090565b9060009180835282602052604083209160018060a01b03169182845260205260ff604084205416600014611f395780835282602052604083208284526020526040832060ff1981541690557ff6391f5c32d9c69d2a47ea670b442974b53935d1edc7fd64eb21e047a839171b339380a4600190565b81810292918115918404141715611fc657565b634e487b7160e01b600052601160045260246000fd5b91908201809211611fc657565b6001600160401b038111611ffc57604052565b634e487b7160e01b600052604160045260246000fd5b61018081019081106001600160401b03821117611ffc57604052565b61012081019081106001600160401b03821117611ffc57604052565b60e081019081106001600160401b03821117611ffc57604052565b60a081019081106001600160401b03821117611ffc57604052565b601f909101601f19168101906001600160401b03821190821017611ffc57604052565b906007811015611d225760ff80198354169116179055565b600b548110156120d657600b60005260206000200190600090565b634e487b7160e01b600052603260045260246000fd5b6002600154146120fd576002600155565b604051633ee5aeb560e01b8152600490fd5b6000198114611fc65760010190565b6004821015611d225752565b80548210156120d6576000526006602060002091020190600090565b9291909160008481526004916020918383526040938482209182541561246757600883019360ff85541660078110158061245457600182148015612448575b61243857612425576006146124155788156124055786516323b872dd60e01b878201526001600160a01b039889166024820181905230604483015260648083018c9052825291906121d9906109f281612065565b600585015442119889806123fd575b6123d2575b600854926121fa8461210f565b6008558c8552600589528c8a8620928b51956122158761204a565b86528a86019182528b86018e8152606087019384526080870192612239898561211e565b4260a0890190815260c0890197885286549096600160401b8210156123bf57906122689160018201815561212a565b9890986123ad5751885551600188015551600287015560038601925116825491518881101561239a576001600160a81b03199092161760a09190911b60ff60a01b16179055518285015551600591909101556009830180549092906122ce908a90611fdc565b8355816122dd8a601054611fdc565b601055612387575050600282015487106123645750937f48c2bccbc51e1f7484f972ffcfab4b9350c3b0a96fd813610217cbaa7b16a2ce9361234f60609460ff8a99956123589b99600a429101558560001461235a5761233f60025b826120a3565b5416908351958652850190611d15565b820152a261259e565b565b61233f6001612339565b915050600080516020612cca8339815191529492935054908351928352820152a2565b634e487b7160e01b825260219052602490fd5b634e487b7160e01b885260218952602488fd5b634e487b7160e01b8a52898b5260248afd5b634e487b7160e01b8b5260418c5260248bfd5b8b600080516020612c8a833981519152896123ec83612b91565b80600b8b01558c51908152a26121ed565b5060016121e8565b8651637e2897ef60e11b81528390fd5b86516310b3763760e11b81528390fd5b634e487b7160e01b835260218452602483fd5b8851631915f32960e11b81528590fd5b50508260028214612185565b634e487b7160e01b845260218552602484fd5b50845163d858766960e01b8152fd5b60018060a01b0316906124c0600080836020829551910182875af13d15612518573d906124a282612520565b916124b06040519384612080565b82523d84602084013e5b8461253b565b9081519182151592836124f0575b5050506124d85750565b60249060405190635274afe760e01b82526004820152fd5b819293509060209181010312611bf15760200151908115918215036103ad57503880806124ce565b6060906124ba565b6001600160401b038111611ffc57601f01601f191660200190565b90612562575080511561255057805190602001fd5b604051630a12f52160e11b8152600490fd5b81511580612595575b612573575090565b604051639996b31560e01b81526001600160a01b039091166004820152602490fd5b50803b1561256b565b806000526004602052604060002080541561039b576009015480156115a5578160005260076020526040600020546125d957612358916125f8565b60405163cce553a960e01b8152600490fd5b91908203918211611fc657565b90600090828252600460205260409081832092600384015491828111600014612ac55761262583826125eb565b61263761271061131d600f5484611fb3565b92600b87015481926002890154808611612ab2575b506009549861265a8a61210f565b6009558a845260056020528a89858a8d8984842094855496871515600014612a9c5750505050505060001982019182116118a75760088c888f8e908d8f968c9b9a99986126a69161212a565b5054965b8351976126b68961202e565b86895260208901938452848901908152606089019182526080890192835260a08901938b855260c08a01958d875260e08b019788526101009e8f8c0199428b52815260066020522099518a555160018a0155516002890155516003880155516004870155516005860155516006850155516007840155519101558b855260076020528a8a862055612747888a611fdc565b80612a02575b50509061275991611fdc565b806129c3575b50826127a0575b50505090612787600080516020612caa833981519152949392601154611fdc565b60115561279386612bde565b82519182526020820152a3565b8651631d11e60560e11b8152600481018a90526001600160a01b039290919080836024817f000000000000000000000000000000000000000000000000000000000000000088165afa9283156129b757819361284b575b50505061278792600080516020612caa83398151915297969594926020612841930151167f0000000000000000000000000000000000000000000000000000000000000000612acb565b9192939438612766565b909192503d8083833e61285e8183612080565b8101906020818303126105d95780516001600160401b03918282116129b35701916101c09485848303126129b3578b5195860186811084821117611ffc578c528351865260208401518781168103611b285760208701528b8401518c870152606084015160608701526080840151608087015260a084015160a087015260c084015160c087015260e084015160e08701528084015190860152610120808401519086015261014080840151906004821015611b2857860152610160808401519086015261018091828401519081116129b357830181601f820112156129b35790818c9392519161295961295084612520565b95519586612080565b82855260208383010111611b2857908591825b82811061299c5750508301602001528401526101a0908101519160098310156103ad5750820152828260206127f7565b60208282018101518783018201528894500161296c565b8480fd5b508851903d90823e3d90fd5b6020816129f37f414d7d8eae12f648156e75499fc0a5a10aa84f2745c6f791b0453cb17f1e17fa93601254611fdc565b6012558951908152a13861275f565b6001808060a01b03612a398382600254167f0000000000000000000000000000000000000000000000000000000000000000612acb565b60025416920154823b15611b46579060448792838e5195869485936317698be360e11b8552600485015260248401525af18015612a9257612a7b575b8061274d565b93612a8a612759939295611fe9565b939091612a75565b8a513d87823e3d90fd5b9091929395508499989796508d600895966126aa565b612abe919450856125eb565b923861264c565b81612625565b60405163a9059cbb60e01b60208201526001600160a01b03909216602483015260448083019390935291815260808101916001600160401b03831182841017611ffc5761235892604052612476565b91908110156120d65760051b0190565b60005260046020526040600020805415612b5d576005015480421015612b5d57612b59620151809142906125eb565b0490565b50600090565b60005260046020526040600020805415612b5d576005015480421115612b5d57612b596201518091426125eb565b60005260046020526040600020600581015480421115612bd75761271091612bd2600262015180612bc5612b5995426125eb565b04920154600e5490611fb3565b611fb3565b5050600090565b600b9081549160005b838110612bf5575b50505050565b82612bff826120bb565b919054600392831b1c14612c1c5750612c179061210f565b612be7565b939192506000199182810191908211611fc657611858612c3e612c4a936120bb565b905490871b1c916120bb565b81548015612c7357810192612c5e846120bb565b81939154921b1b191690555538808080612bef565b634e487b7160e01b600052603160045260246000fdfe35253f7e69d4c73c5ebad5d2bc8cd14f6465044bd51dd467fdafb5e25169833bf7576d8c2653e9d07af5ef229acf59b339e327d4e0eaddb4a96615534cf148f898378ec9a3cba43c7f6dda645d95e2c1b3791c3db5939c3a8f2a91684c99767e87db7b72171141867603ec05a6c972fd56944662798438e0164a817002c0fac1fbd454f36a7e1a388bd6fc3ab10d434aa4578f811acbbcf33afb1c697486313cf632e7549a2b0aee8e4c18743ef9c237f6c638181c4b8dd8b02da89f56c42abe7b8bb8356a3f32f5c111ff23f050d97f08988e0883529ea7bff3b918887a6e0e54217f7b85353d04ece159ebd69a45e9b8287dd2043746eaca469996a3d91aeed7d8b7014b7ed36eb085c9e3e427b642d74cab75ecefda8a757042e63ec59919a26469706673582212206dedf1cf1924a65c6989ae39a88953f6fae3f9d38afbc175a819f78273a6299764736f6c634300081400332f8788117e7eff1d82e926ec794901d17c78024a50270940304540a733656f0d","linkReferences":{}},"methodIdentifiers":{"DEFAULT_ADMIN_ROLE()":"a217fddf","DEFAULT_MANAGER_ROLE()":"7c28dad0","DISPUTE_RESOLVER_ROLE()":"bfe42a37","DISTRIBUTOR_ROLE()":"f0bd87cc","PAYMENT_PROCESSOR_ROLE()":"0b7fe72d","SCHEDULE_MANAGER_ROLE()":"36f9820d","calculateExpectedDistribution(uint256)":"41236903","calculateLateFee(uint256)":"0e502e94","cancelSchedule(uint256)":"237fc2a6","checkOverdue(uint256)":"fd06014d","createPaymentSchedule(uint256,uint256,uint256,uint256,uint256)":"1625dfac","defaultThresholdDays()":"5847ddbe","distribute(uint256)":"91c05b0b","distributePartial(uint256,uint256)":"b807420c","getDaysOverdue(uint256)":"c9074b1f","getDaysUntilDue(uint256)":"f80db812","getDistribution(uint256)":"3b345a87","getOverdueInvoices()":"19baae28","getPaymentRecords(uint256)":"98963390","getPaymentSchedule(uint256)":"bc63c171","getPaymentStatus(uint256)":"a1650043","getPendingDistributions()":"6bde5f0d","getProtocolFeesCollected()":"b44efafa","getRoleAdmin(bytes32)":"248a9ca3","getTotalCollected()":"fbe5d87e","getTotalDistributed()":"5695fa58","gracePeriodDays()":"1348ed5e","grantRole(bytes32,address)":"2f2ff15d","hasRole(bytes32,address)":"91d14854","insurancePool()":"ab2adc00","invoiceToken()":"464b5391","isDefaulted(uint256)":"2f3ad61f","isInGracePeriod(uint256)":"6735e04c","lateFeeRateBps()":"577bcced","liquidityPool()":"665a11ca","markAsDefaulted(uint256)":"a8743022","processDefaultBatch(uint256[])":"08bd14ed","protocolFeeRateBps()":"b8890be6","protocolFeesCollected()":"cc08b834","raiseDispute(uint256,string)":"5aef573c","recordPartialPayment(uint256,uint256,address)":"b0ac7287","recordPayment(uint256,uint256,address,bytes32)":"4853fb5e","recordPaymentDirect(uint256,uint256,bytes32)":"b74f8c69","renounceRole(bytes32,address)":"36568abe","resolveDispute(uint256,uint8,uint256)":"db5d6c41","revokeRole(bytes32,address)":"d547741f","setDefaultThresholdDays(uint256)":"aca5f480","setGracePeriodDays(uint256)":"0ce6b419","setInsurancePool(address)":"a94c487e","setLateFeeRate(uint256)":"7febd92b","setLiquidityPool(address)":"01877020","setProtocolFeeRate(uint256)":"b13aa2d6","stablecoin()":"e9cbd822","supportsInterface(bytes4)":"01ffc9a7","totalCollected()":"e29eb836","totalDistributed()":"efca2eed","withdrawProtocolFees(address)":"2d80caa5"},"id":45}