{"abi":[{"type":"constructor","inputs":[{"name":"_stablecoin","type":"address","internalType":"address"},{"name":"_invoiceToken","type":"address","internalType":"address"},{"name":"_admin","type":"address","internalType":"address"}],"stateMutability":"nonpayable"},{"type":"function","name":"CLAIMS_APPROVER_ROLE","inputs":[],"outputs":[{"name":"","type":"bytes32","internalType":"bytes32"}],"stateMutability":"view"},{"type":"function","name":"CLAIMS_FILER_ROLE","inputs":[],"outputs":[{"name":"","type":"bytes32","internalType":"bytes32"}],"stateMutability":"view"},{"type":"function","name":"CLAIMS_PROCESSOR_ROLE","inputs":[],"outputs":[{"name":"","type":"bytes32","internalType":"bytes32"}],"stateMutability":"view"},{"type":"function","name":"COVERAGE_MANAGER_ROLE","inputs":[],"outputs":[{"name":"","type":"bytes32","internalType":"bytes32"}],"stateMutability":"view"},{"type":"function","name":"DEFAULT_ADMIN_ROLE","inputs":[],"outputs":[{"name":"","type":"bytes32","internalType":"bytes32"}],"stateMutability":"view"},{"type":"function","name":"approveClaim","inputs":[{"name":"claimId","type":"uint256","internalType":"uint256"},{"name":"approvedAmount","type":"uint256","internalType":"uint256"}],"outputs":[],"stateMutability":"nonpayable"},{"type":"function","name":"calculatePremium","inputs":[{"name":"tier","type":"uint8","internalType":"enum InsurancePool.CoverageTier"},{"name":"coverageAmount","type":"uint256","internalType":"uint256"},{"name":"durationDays","type":"uint256","internalType":"uint256"}],"outputs":[{"name":"","type":"uint256","internalType":"uint256"}],"stateMutability":"view"},{"type":"function","name":"canPurchaseCoverage","inputs":[{"name":"coverageAmount","type":"uint256","internalType":"uint256"}],"outputs":[{"name":"","type":"bool","internalType":"bool"}],"stateMutability":"view"},{"type":"function","name":"canUnstake","inputs":[{"name":"staker","type":"address","internalType":"address"},{"name":"shares","type":"uint256","internalType":"uint256"}],"outputs":[{"name":"","type":"bool","internalType":"bool"},{"name":"reason","type":"string","internalType":"string"}],"stateMutability":"view"},{"type":"function","name":"cancelCoverage","inputs":[{"name":"coverageId","type":"uint256","internalType":"uint256"}],"outputs":[{"name":"refund","type":"uint256","internalType":"uint256"}],"stateMutability":"nonpayable"},{"type":"function","name":"claimStakingYield","inputs":[],"outputs":[{"name":"yield","type":"uint256","internalType":"uint256"}],"stateMutability":"nonpayable"},{"type":"function","name":"extendLock","inputs":[{"name":"additionalDays","type":"uint256","internalType":"uint256"}],"outputs":[],"stateMutability":"nonpayable"},{"type":"function","name":"fileClaim","inputs":[{"name":"invoiceId","type":"uint256","internalType":"uint256"},{"name":"requestedAmount","type":"uint256","internalType":"uint256"}],"outputs":[{"name":"claimId","type":"uint256","internalType":"uint256"}],"stateMutability":"nonpayable"},{"type":"function","name":"getClaim","inputs":[{"name":"claimId","type":"uint256","internalType":"uint256"}],"outputs":[{"name":"","type":"tuple","internalType":"struct InsurancePool.Claim","components":[{"name":"claimId","type":"uint256","internalType":"uint256"},{"name":"invoiceId","type":"uint256","internalType":"uint256"},{"name":"coverageId","type":"uint256","internalType":"uint256"},{"name":"requestedAmount","type":"uint256","internalType":"uint256"},{"name":"approvedAmount","type":"uint256","internalType":"uint256"},{"name":"filedAt","type":"uint256","internalType":"uint256"},{"name":"processedAt","type":"uint256","internalType":"uint256"},{"name":"status","type":"uint8","internalType":"enum InsurancePool.ClaimStatus"},{"name":"notes","type":"string","internalType":"string"}]}],"stateMutability":"view"},{"type":"function","name":"getCoverage","inputs":[{"name":"coverageId","type":"uint256","internalType":"uint256"}],"outputs":[{"name":"","type":"tuple","internalType":"struct InsurancePool.Coverage","components":[{"name":"coverageId","type":"uint256","internalType":"uint256"},{"name":"invoiceId","type":"uint256","internalType":"uint256"},{"name":"tier","type":"uint8","internalType":"enum InsurancePool.CoverageTier"},{"name":"coverageAmount","type":"uint256","internalType":"uint256"},{"name":"premiumPaid","type":"uint256","internalType":"uint256"},{"name":"startDate","type":"uint256","internalType":"uint256"},{"name":"endDate","type":"uint256","internalType":"uint256"},{"name":"status","type":"uint8","internalType":"enum InsurancePool.CoverageStatus"},{"name":"claimAmount","type":"uint256","internalType":"uint256"},{"name":"claimedAt","type":"uint256","internalType":"uint256"}]}],"stateMutability":"view"},{"type":"function","name":"getCoverageByInvoice","inputs":[{"name":"invoiceId","type":"uint256","internalType":"uint256"}],"outputs":[{"name":"","type":"tuple","internalType":"struct InsurancePool.Coverage","components":[{"name":"coverageId","type":"uint256","internalType":"uint256"},{"name":"invoiceId","type":"uint256","internalType":"uint256"},{"name":"tier","type":"uint8","internalType":"enum InsurancePool.CoverageTier"},{"name":"coverageAmount","type":"uint256","internalType":"uint256"},{"name":"premiumPaid","type":"uint256","internalType":"uint256"},{"name":"startDate","type":"uint256","internalType":"uint256"},{"name":"endDate","type":"uint256","internalType":"uint256"},{"name":"status","type":"uint8","internalType":"enum InsurancePool.CoverageStatus"},{"name":"claimAmount","type":"uint256","internalType":"uint256"},{"name":"claimedAt","type":"uint256","internalType":"uint256"}]}],"stateMutability":"view"},{"type":"function","name":"getMaxCoverage","inputs":[{"name":"tier","type":"uint8","internalType":"enum InsurancePool.CoverageTier"},{"name":"invoiceValue","type":"uint256","internalType":"uint256"}],"outputs":[{"name":"","type":"uint256","internalType":"uint256"}],"stateMutability":"view"},{"type":"function","name":"getPendingYield","inputs":[{"name":"staker","type":"address","internalType":"address"}],"outputs":[{"name":"","type":"uint256","internalType":"uint256"}],"stateMutability":"view"},{"type":"function","name":"getPoolMetrics","inputs":[],"outputs":[{"name":"","type":"tuple","internalType":"struct InsurancePool.PoolMetrics","components":[{"name":"totalStaked","type":"uint256","internalType":"uint256"},{"name":"totalShares","type":"uint256","internalType":"uint256"},{"name":"totalPremiumsCollected","type":"uint256","internalType":"uint256"},{"name":"totalClaimsPaid","type":"uint256","internalType":"uint256"},{"name":"activeCoverageCount","type":"uint256","internalType":"uint256"},{"name":"activeCoverageAmount","type":"uint256","internalType":"uint256"},{"name":"availableCapital","type":"uint256","internalType":"uint256"},{"name":"reserveRatio","type":"uint256","internalType":"uint256"},{"name":"currentAPY","type":"uint256","internalType":"uint256"}]}],"stateMutability":"view"},{"type":"function","name":"getReserveRatio","inputs":[],"outputs":[{"name":"","type":"uint256","internalType":"uint256"}],"stateMutability":"view"},{"type":"function","name":"getRoleAdmin","inputs":[{"name":"role","type":"bytes32","internalType":"bytes32"}],"outputs":[{"name":"","type":"bytes32","internalType":"bytes32"}],"stateMutability":"view"},{"type":"function","name":"getStakerAPY","inputs":[],"outputs":[{"name":"","type":"uint256","internalType":"uint256"}],"stateMutability":"view"},{"type":"function","name":"getStakerPosition","inputs":[{"name":"staker","type":"address","internalType":"address"}],"outputs":[{"name":"","type":"tuple","internalType":"struct InsurancePool.StakerPosition","components":[{"name":"stakedAmount","type":"uint256","internalType":"uint256"},{"name":"shares","type":"uint256","internalType":"uint256"},{"name":"stakedAt","type":"uint256","internalType":"uint256"},{"name":"lockEndTime","type":"uint256","internalType":"uint256"},{"name":"pendingYield","type":"uint256","internalType":"uint256"},{"name":"totalYieldClaimed","type":"uint256","internalType":"uint256"}]}],"stateMutability":"view"},{"type":"function","name":"grantRole","inputs":[{"name":"role","type":"bytes32","internalType":"bytes32"},{"name":"account","type":"address","internalType":"address"}],"outputs":[],"stateMutability":"nonpayable"},{"type":"function","name":"hasRole","inputs":[{"name":"role","type":"bytes32","internalType":"bytes32"},{"name":"account","type":"address","internalType":"address"}],"outputs":[{"name":"","type":"bool","internalType":"bool"}],"stateMutability":"view"},{"type":"function","name":"invoiceToken","inputs":[],"outputs":[{"name":"","type":"address","internalType":"address"}],"stateMutability":"view"},{"type":"function","name":"isCovered","inputs":[{"name":"invoiceId","type":"uint256","internalType":"uint256"}],"outputs":[{"name":"","type":"bool","internalType":"bool"}],"stateMutability":"view"},{"type":"function","name":"liquidityPool","inputs":[],"outputs":[{"name":"","type":"address","internalType":"address"}],"stateMutability":"view"},{"type":"function","name":"minReserveRatio","inputs":[],"outputs":[{"name":"","type":"uint256","internalType":"uint256"}],"stateMutability":"view"},{"type":"function","name":"minStakeLockDays","inputs":[],"outputs":[{"name":"","type":"uint256","internalType":"uint256"}],"stateMutability":"view"},{"type":"function","name":"pause","inputs":[],"outputs":[],"stateMutability":"nonpayable"},{"type":"function","name":"paused","inputs":[],"outputs":[{"name":"","type":"bool","internalType":"bool"}],"stateMutability":"view"},{"type":"function","name":"processClaim","inputs":[{"name":"claimId","type":"uint256","internalType":"uint256"}],"outputs":[],"stateMutability":"nonpayable"},{"type":"function","name":"processClaimDirect","inputs":[{"name":"invoiceId","type":"uint256","internalType":"uint256"}],"outputs":[],"stateMutability":"nonpayable"},{"type":"function","name":"purchaseCoverage","inputs":[{"name":"invoiceId","type":"uint256","internalType":"uint256"},{"name":"tier","type":"uint8","internalType":"enum InsurancePool.CoverageTier"},{"name":"coverageAmount","type":"uint256","internalType":"uint256"}],"outputs":[{"name":"coverageId","type":"uint256","internalType":"uint256"}],"stateMutability":"nonpayable"},{"type":"function","name":"rejectClaim","inputs":[{"name":"claimId","type":"uint256","internalType":"uint256"},{"name":"reason","type":"string","internalType":"string"}],"outputs":[],"stateMutability":"nonpayable"},{"type":"function","name":"renewCoverage","inputs":[{"name":"coverageId","type":"uint256","internalType":"uint256"},{"name":"newEndDate","type":"uint256","internalType":"uint256"}],"outputs":[],"stateMutability":"nonpayable"},{"type":"function","name":"renounceRole","inputs":[{"name":"role","type":"bytes32","internalType":"bytes32"},{"name":"callerConfirmation","type":"address","internalType":"address"}],"outputs":[],"stateMutability":"nonpayable"},{"type":"function","name":"revokeRole","inputs":[{"name":"role","type":"bytes32","internalType":"bytes32"},{"name":"account","type":"address","internalType":"address"}],"outputs":[],"stateMutability":"nonpayable"},{"type":"function","name":"setLiquidityPoolAddress","inputs":[{"name":"pool","type":"address","internalType":"address"}],"outputs":[],"stateMutability":"nonpayable"},{"type":"function","name":"setMinReserveRatio","inputs":[{"name":"ratioBps","type":"uint256","internalType":"uint256"}],"outputs":[],"stateMutability":"nonpayable"},{"type":"function","name":"setMinStakeLockDays","inputs":[{"name":"days_","type":"uint256","internalType":"uint256"}],"outputs":[],"stateMutability":"nonpayable"},{"type":"function","name":"setPremiumRates","inputs":[{"name":"tier","type":"uint8","internalType":"enum InsurancePool.CoverageTier"},{"name":"rateBps","type":"uint256","internalType":"uint256"}],"outputs":[],"stateMutability":"nonpayable"},{"type":"function","name":"stablecoin","inputs":[],"outputs":[{"name":"","type":"address","internalType":"contract IERC20"}],"stateMutability":"view"},{"type":"function","name":"stake","inputs":[{"name":"amount","type":"uint256","internalType":"uint256"}],"outputs":[{"name":"shares","type":"uint256","internalType":"uint256"}],"stateMutability":"nonpayable"},{"type":"function","name":"supportsInterface","inputs":[{"name":"interfaceId","type":"bytes4","internalType":"bytes4"}],"outputs":[{"name":"","type":"bool","internalType":"bool"}],"stateMutability":"view"},{"type":"function","name":"unpause","inputs":[],"outputs":[],"stateMutability":"nonpayable"},{"type":"function","name":"unstake","inputs":[{"name":"shares","type":"uint256","internalType":"uint256"}],"outputs":[{"name":"amount","type":"uint256","internalType":"uint256"}],"stateMutability":"nonpayable"},{"type":"event","name":"ClaimApproved","inputs":[{"name":"claimId","type":"uint256","indexed":true,"internalType":"uint256"},{"name":"approvedAmount","type":"uint256","indexed":false,"internalType":"uint256"}],"anonymous":false},{"type":"event","name":"ClaimFiled","inputs":[{"name":"claimId","type":"uint256","indexed":true,"internalType":"uint256"},{"name":"invoiceId","type":"uint256","indexed":true,"internalType":"uint256"},{"name":"requestedAmount","type":"uint256","indexed":false,"internalType":"uint256"}],"anonymous":false},{"type":"event","name":"ClaimPaid","inputs":[{"name":"claimId","type":"uint256","indexed":true,"internalType":"uint256"},{"name":"paidAmount","type":"uint256","indexed":false,"internalType":"uint256"}],"anonymous":false},{"type":"event","name":"ClaimRejected","inputs":[{"name":"claimId","type":"uint256","indexed":true,"internalType":"uint256"},{"name":"reason","type":"string","indexed":false,"internalType":"string"}],"anonymous":false},{"type":"event","name":"CoverageCancelled","inputs":[{"name":"coverageId","type":"uint256","indexed":true,"internalType":"uint256"},{"name":"refund","type":"uint256","indexed":false,"internalType":"uint256"}],"anonymous":false},{"type":"event","name":"CoveragePurchased","inputs":[{"name":"coverageId","type":"uint256","indexed":true,"internalType":"uint256"},{"name":"invoiceId","type":"uint256","indexed":true,"internalType":"uint256"},{"name":"tier","type":"uint8","indexed":false,"internalType":"enum InsurancePool.CoverageTier"},{"name":"premium","type":"uint256","indexed":false,"internalType":"uint256"}],"anonymous":false},{"type":"event","name":"CoverageRenewed","inputs":[{"name":"coverageId","type":"uint256","indexed":true,"internalType":"uint256"},{"name":"newEndDate","type":"uint256","indexed":false,"internalType":"uint256"}],"anonymous":false},{"type":"event","name":"LockExtended","inputs":[{"name":"staker","type":"address","indexed":true,"internalType":"address"},{"name":"newLockEndTime","type":"uint256","indexed":false,"internalType":"uint256"}],"anonymous":false},{"type":"event","name":"Paused","inputs":[{"name":"account","type":"address","indexed":false,"internalType":"address"}],"anonymous":false},{"type":"event","name":"PremiumCollected","inputs":[{"name":"coverageId","type":"uint256","indexed":true,"internalType":"uint256"},{"name":"amount","type":"uint256","indexed":false,"internalType":"uint256"}],"anonymous":false},{"type":"event","name":"ReserveRatioUpdated","inputs":[{"name":"newRatio","type":"uint256","indexed":false,"internalType":"uint256"}],"anonymous":false},{"type":"event","name":"RoleAdminChanged","inputs":[{"name":"role","type":"bytes32","indexed":true,"internalType":"bytes32"},{"name":"previousAdminRole","type":"bytes32","indexed":true,"internalType":"bytes32"},{"name":"newAdminRole","type":"bytes32","indexed":true,"internalType":"bytes32"}],"anonymous":false},{"type":"event","name":"RoleGranted","inputs":[{"name":"role","type":"bytes32","indexed":true,"internalType":"bytes32"},{"name":"account","type":"address","indexed":true,"internalType":"address"},{"name":"sender","type":"address","indexed":true,"internalType":"address"}],"anonymous":false},{"type":"event","name":"RoleRevoked","inputs":[{"name":"role","type":"bytes32","indexed":true,"internalType":"bytes32"},{"name":"account","type":"address","indexed":true,"internalType":"address"},{"name":"sender","type":"address","indexed":true,"internalType":"address"}],"anonymous":false},{"type":"event","name":"Staked","inputs":[{"name":"staker","type":"address","indexed":true,"internalType":"address"},{"name":"amount","type":"uint256","indexed":false,"internalType":"uint256"},{"name":"shares","type":"uint256","indexed":false,"internalType":"uint256"},{"name":"lockEndTime","type":"uint256","indexed":false,"internalType":"uint256"}],"anonymous":false},{"type":"event","name":"StakingYieldClaimed","inputs":[{"name":"staker","type":"address","indexed":true,"internalType":"address"},{"name":"amount","type":"uint256","indexed":false,"internalType":"uint256"}],"anonymous":false},{"type":"event","name":"Unpaused","inputs":[{"name":"account","type":"address","indexed":false,"internalType":"address"}],"anonymous":false},{"type":"event","name":"Unstaked","inputs":[{"name":"staker","type":"address","indexed":true,"internalType":"address"},{"name":"shares","type":"uint256","indexed":false,"internalType":"uint256"},{"name":"amount","type":"uint256","indexed":false,"internalType":"uint256"}],"anonymous":false},{"type":"error","name":"AccessControlBadConfirmation","inputs":[]},{"type":"error","name":"AccessControlUnauthorizedAccount","inputs":[{"name":"account","type":"address","internalType":"address"},{"name":"neededRole","type":"bytes32","internalType":"bytes32"}]},{"type":"error","name":"AddressEmptyCode","inputs":[{"name":"target","type":"address","internalType":"address"}]},{"type":"error","name":"AddressInsufficientBalance","inputs":[{"name":"account","type":"address","internalType":"address"}]},{"type":"error","name":"ClaimAlreadyProcessed","inputs":[]},{"type":"error","name":"ClaimNotApproved","inputs":[]},{"type":"error","name":"ClaimNotFound","inputs":[]},{"type":"error","name":"CoverageAmountExceedsLimit","inputs":[]},{"type":"error","name":"CoverageExpired","inputs":[]},{"type":"error","name":"CoverageNotActive","inputs":[]},{"type":"error","name":"CoverageNotFound","inputs":[]},{"type":"error","name":"EnforcedPause","inputs":[]},{"type":"error","name":"ExpectedPause","inputs":[]},{"type":"error","name":"FailedInnerCall","inputs":[]},{"type":"error","name":"InsufficientPoolFunds","inputs":[]},{"type":"error","name":"InsufficientStake","inputs":[]},{"type":"error","name":"InvoiceNotCovered","inputs":[]},{"type":"error","name":"InvoiceNotDefaulted","inputs":[]},{"type":"error","name":"PoolPaused","inputs":[]},{"type":"error","name":"ReentrancyGuardReentrantCall","inputs":[]},{"type":"error","name":"SafeERC20FailedOperation","inputs":[{"name":"token","type":"address","internalType":"address"}]},{"type":"error","name":"StakeLocked","inputs":[]},{"type":"error","name":"WouldBreachReserveRatio","inputs":[]},{"type":"error","name":"ZeroAddress","inputs":[]},{"type":"error","name":"ZeroAmount","inputs":[]}],"bytecode":{"object":"0x60a034620001d957601f62002fda38819003918201601f1916830191906001600160401b03831184841017620001de578160609285926040958652833981010312620001d957620000508262000214565b916020906200006e836200006684840162000214565b920162000214565b916001918280556002549060018060a01b03809716968715620001c857851615620001b757620001759596608052610100600160a81b039060081b169060018060a81b03191617600255613a98600455601e60055581620000ce620001f4565b916113888352808301926032845282600094858052600c84528986209251835551910155620000fc620001f4565b611d4c81528282820160648152818652600c845289862092518355519101558662000126620001f4565b936127108552600c8386019360968552600283525220925183555191015580600655600755620001568162000229565b506200016281620002a9565b506200016e816200034b565b50620003e8565b5051612b34908162000486823960805181818161026d01528181610470015281816107fb01528181610b140152818161124f015281816115f60152611d790152f35b855163d92e233d60e01b8152600490fd5b865163d92e233d60e01b8152600490fd5b600080fd5b634e487b7160e01b600052604160045260246000fd5b60408051919082016001600160401b03811183821017620001de57604052565b51906001600160a01b0382168203620001d957565b6001600160a01b031660008181527fad3228b676f7d3cd4284a5443f17f1962b36e491b30a40b2405849e597ba5fb5602052604081205490919060ff16620002a557818052816020526040822081835260205260408220600160ff19825416179055339160008051602062002fba8339815191528180a4600190565b5090565b6001600160a01b031660008181527f72d6ae785a9ad0235999cd793b09ef9c72e2cf2848fef4f918ffe83267e1699060205260408120549091907f7022b05f273dfb770d16ebe344b0b38e1ef7bac12120a5cebc324be6acf18fe19060ff166200034657808352826020526040832082845260205260408320600160ff1982541617905560008051602062002fba833981519152339380a4600190565b505090565b6001600160a01b031660008181527f27196284162c27966ae7cf77ab78b3b6e8dede6c2999ddfc4b8bfd97443b66c360205260408120549091907f1c20ae0066ae315d077912ed82fa08bba9de3f706c44b38bc5868150a04b08ab9060ff166200034657808352826020526040832082845260205260408320600160ff1982541617905560008051602062002fba833981519152339380a4600190565b6001600160a01b031660008181527f30f815a98cd826effe50fbb81120adf9aa7a92ffb6859a25fda623be8fb5f53a60205260408120549091907f0d251e8ed2411c81711dcb68307a4401e6ee843cd840c5b6598db6391af240d59060ff166200034657808352826020526040832082845260205260408320600160ff1982541617905560008051602062002fba833981519152339380a460019056fe608080604052600436101561001357600080fd5b60003560e01c90816301ffc9a714611faa575080630423a1d514611f89578063047a7acb14611f6b5780630cba2c5414611f425780631866509f14611e47578063248a9ca314611e185780632e17de7814611cad5780632f2ff15d14611c6e5780633577a5ad14611abb57806336568abe14611a7457806337e947261461182f5780633ab6539c146118095780633f4ba83a1461179f57806344ee3a1c1461170c578063464b5391146116df5780634ccc2800146116b65780634f0d6c531461168e578063537bb13714611651578063563fa9781461159c57806356b6d0d5146115815780635a596d1c146115635780635aef2447146113745780635c975abb146113515780635e598d121461130d57806363986aba146112b5578063665a11ca1461128c5780637257dfc91461114657806376fed726146110fc5780637fbe658c146110275780638368513514610fdb5780638456cb5914610f815780638738eff214610f0e57806391d1485414610ec157806395920a5814610e60578063a09cc57814610e42578063a217fddf14610e26578063a2293b3e14610bc7578063a694fc3a14610a06578063a7a4490214610949578063b3b95bbe14610920578063c31b5e21146108f7578063c67a5f9d14610568578063cee719121461051f578063d547741f146104de578063d9df4ece1461036e578063e1e4063c1461029c578063e9cbd822146102575763f97642c11461022f57600080fd5b3461025257600036600319011261025257602061024a6129ce565b604051908152f35b600080fd5b34610252576000366003190112610252576040517f00000000000000000000000000000000000000000000000000000000000000006001600160a01b03168152602090f35b34610252576020366003190112610252576102b5612013565b600060a06040516102c5816123a0565b828152826020820152826040820152826060820152826080820152015260018060a01b0316600052600b60205260c06040600020604051610305816123a0565b8154918282526001810154602083019081526002820154604084019081526003830154916060850192835260a0600560048601549560808801968752015495019485526040519586525160208601525160408501525160608401525160808301525160a0820152f35b346102525760203660031901126102525760043561038a6121aa565b80600052600860205260406000208054156104cc57600781019182549160ff831660048110156104b6576104a457600381602095826103fe600661041e9601546103d8600586015482612577565b9042811115610499576103ef6103f9914290612577565b600487015461230d565b612320565b9660ff19161790556104116011546125fc565b6011550154601254612577565b601255600d5460135561042f6127de565b60145581610469575b7f2ca527b60c93821df45cdaa8ddb4ad1cc7860ebb86ee208677a3197b5d3be88583604051848152a2604051908152f35b61049482337f0000000000000000000000000000000000000000000000000000000000000000612584565b610438565b506103f960006103ef565b60405163157c8d4960e31b8152600490fd5b634e487b7160e01b600052602160045260246000fd5b6040516301cad69360e51b8152600490fd5b346102525760403660031901126102525761051d6004356104fd611ffd565b908060005260006020526105186001604060002001546121f4565b612298565b005b3461025257602061271061055f61053f6105383661203f565b91906126fb565b9060405161054c81612385565b856001845494858452015491015261230d565b04604051908152f35b3461025257602036600319011261025257610581612554565b3360009081527f30f815a98cd826effe50fbb81120adf9aa7a92ffb6859a25fda623be8fb5f53a6020526040902054600080516020612a1f8339815191529060ff16156108d957600435600052600960205260406000205480156108c757806000526008602052604060002060038101549060075492610600846125d5565b600755604051906106108261234d565b8482526020820190600435825260408301528360608301528360808301524260a08301524260c0830152600260e083015260405161064d81612385565b600e81526d105d5d1bcb5c1c9bd8d95cdcd95960921b602082015261010083015284600052600a6020526040600020908251825551600182015560408201516002820155606082015160038201556080820151600482015560a0820151600582015560c0820151600682015560e082015160058110156104b657816106da60089260076101009501612609565b0191015180519060018060401b0382116108b157610702826106fc8554612621565b8561265b565b602090601f83116001146108315793600080516020612abf83398151915295938361076f94600394602098600092610826575b50508160011b9160001990861b1c19161790555b60078101600260ff198254161790558360088201554260098201556104116011546125fc565b60125561077e81601054612340565b60105561078d81600d54612577565b80600d5560135561079c6127de565b6014556003546001600160a01b031681816107f5575b505060405181815284600080516020612adf8339815191528460043593a383600080516020612a5f83398151915283604051848152a2604051908152a260018055005b61081f917f0000000000000000000000000000000000000000000000000000000000000000612584565b84816107b2565b015190508a80610735565b90601f198316918460005260206000209260005b81811061089957508460039460209894600080516020612abf8339815191529a989461076f9860019510610881575b505050811b019055610749565b015160001983881b60f8161c191690558a8080610874565b92936020600181928786015181550195019301610845565b634e487b7160e01b600052604160045260246000fd5b60405163eb7729ad60e01b8152600490fd5b6044906040519063e2517d3f60e01b82523360048301526024820152fd5b346102525760003660031901126102525760206040516000805160206129ff8339815191528152f35b34610252576000366003190112610252576020604051600080516020612a1f8339815191528152f35b34610252576020366003190112610252576109626126af565b506004356000526008602052610a02604060002060096040519161098583612369565b80548352600181015460208401526109a760ff600283015416604085016125e4565b6003810154606084015260048101546080840152600581015460a0840152600681015460c08401526109e360ff60078301541660e085016125f0565b60088101546101008401520154610120820152604051918291826120ab565b0390f35b3461025257602036600319011261025257600435610a22612554565b610a2a612536565b8015610bb557600e5480610b9a5750805b33600052600b602052604060002091610a55818454612340565b835560018301610a66838254612340565b905560028301805415610b91575b506005546201518090818102918183041490151715610b7b57610a9960039142612340565b9301928355610aaa81600d54612340565b80600d55610aba83600e54612340565b600e55601355610ac86127de565b6014556040516323b872dd60e01b6020820152336024820152306044820152606480820183905281529260a084016001600160401b038111858210176108b157602094610b38916040527f00000000000000000000000000000000000000000000000000000000000000006123f9565b54604051918252828483015260408201527fb4caaf29adda3eefee3ad552a8e85058589bf834c7466cae4ee58787f70589ed60603392a260018055604051908152f35b634e487b7160e01b600052601160045260246000fd5b42905583610a74565b610ba7610bb0918361230d565b600d5490612320565b610a3b565b604051631f2a200560e01b8152600490fd5b3461025257606036600319011261025257602435600435600382101561025257604435610bf2612554565b610bfa612536565b610c026121aa565b8015610bb557610c1181612812565b15610e1457610c1f836126fb565b92612710610c48600160405196610c3588612385565b805488520154806020809801528461230d565b04603c810290808204603c1490151715610b7b5761016d90049260065493610c6f856125d5565b6006556276a700420191824211610b7b57858794604051958691610c9283612369565b838352818301968588526040840197610cab838a6125e4565b606085018b8152608086019089825260a087019242845260c08801948552600860e0890197600089526101206101008b019a60008c52019a60008c526000525260406000209c518d555160018d015560028c019a519a60038c10156104b65760ff199b60ff8d83541691161790555160038c01555160048b01555160058a015551600689015560078801915160048110156104b6578a997f16d8dde3081dcc7b985217559bb5d076bb9cae69d817dd71b8a607cc05a279659960098c978f9b9787610dcc9660ff7feb0020b48c763bcd869d17d83cf5b90d44634ad30ea9959948d62736b4114c7d9b60409b54169116179055516008840155519101558660005260098952858460002055610dc16011546125d5565b601155601254612340565b601255610ddb86600f54612340565b600f55600d54601355610dec6127de565b601455610dfb8251809261209e565b8587820152a3604051908152a260018055604051908152f35b6040516311ae007160e21b8152600490fd5b3461025257600036600319011261025257602060405160008152f35b34610252576000366003190112610252576020600554604051908152f35b346102525760603660031901126102525760043560038110156102525761016d61055f6020610e8f81946126fb565b600160405191610e9e83612385565b8054835201549182910152612710610ebb6044359260243561230d565b0461230d565b3461025257604036600319011261025257610eda611ffd565b600435600052600060205260406000209060018060a01b0316600052602052602060ff604060002054166040519015158152f35b3461025257610f1c36612029565b610f246121aa565b81600052600860205260406000208054156104cc5760ff60078201541660048110156104b6576104a457817fdb5714ad0f4c7cae277bc170d2a151455043cf3532df69987ce7e79af43ffc859260066020930155604051908152a2005b3461025257600036600319011261025257610f9a612126565b610fa2612536565b600160ff1960025416176002557f62e78cea01bee320cd4e420270b5ea74000d11b0c9f74754ebdbfc544b05a2586020604051338152a1005b34610252576020366003190112610252577f5fc97baab2060bb73299f20ec1d188d8ad3e090e1d7e029e716c34674d87b234602060043561101a612126565b80600455604051908152a1005b346102525761103536612029565b61103d612160565b8082600052600a6020526040600020918254156110ea576007830180549260ff841660058110156104b6576110d857600285015460005260086020526003604060002001548091116110d0575b5081601354106110be576001602093836004600080516020612a5f83398151915297015560ff1916179055604051908152a2005b6040516316d5c93f60e21b8152600490fd5b91508561108a565b604051634b34e6d960e01b8152600490fd5b60405163022af77760e11b8152600490fd5b34610252576020366003190112610252576111156126af565b5060043560005260096020526040600020546000526008602052610a02604060002060096040519161098583612369565b3461025257602036600319011261025257600435611162612554565b80600052600a60205260406000208054156110ea576007810180549060ff821660058110156104b65760010361127a576111f76003846020946002600080516020612abf83398151915297015460005260088652604060002091600481015495600260ff19809416179055600642910155600260078301918254161790558360088201554260098201556104116011546125fc565b60125561120681601054612340565b60105561121581600d54612577565b80600d556013556112246127de565b6014556003546001600160a01b03168181611249575b5050604051908152a260018055005b611273917f0000000000000000000000000000000000000000000000000000000000000000612584565b848161123a565b60405163065b9bad60e31b8152600490fd5b34610252576000366003190112610252576003546040516001600160a01b039091168152602090f35b34610252576020366003190112610252576112ce612013565b6112d6612126565b6001600160a01b031680156112fb57600380546001600160a01b031916919091179055005b60405163d92e233d60e01b8152600490fd5b3461025257604036600319011261025257611332611329612013565b60243590612853565b90610a026040519283921515835260406020840152604083019061205e565b3461025257600036600319011261025257602060ff600254166040519015158152f35b346102525760203660031901126102525760606101006040516113968161234d565b60008152600060208201526000604082015260008382015260006080820152600060a0820152600060c0820152600060e08201520152600435600052600a6020526040600020604051906113e98261234d565b8054825260018101546020830152600281015460408301526003810154606083015260048101546080830152600581015460a0830152600681015460c083015260ff6007820154169060058210156104b65760089160e0840152016040519081600082549261145784612621565b808452936001811690811561154157506001146114fa575b5061147c925003826123d6565b610100820190815260e0604051926020845280516020850152602081015160408501526040810151606085015260608101516080850152608081015160a085015260a081015160c085015260c081015182850152015160058110156104b6578291610a0291610100840152516101208084015261014083019061205e565b90506000929192526020600020906000915b81831061152557505090602061147c928201018561146f565b602091935080600191548385880101520191019091839261150c565b90506020925061147c94915060ff191682840152151560051b8201018561146f565b34610252576000366003190112610252576020600454604051908152f35b3461025257600036600319011261025257602061024a6127de565b34610252576000366003190112610252576115b5612554565b6115bd612536565b33600052600b6020526040600020600481018054908115610bb557602092600060059255016115ed828254612340565b905561161a81337f0000000000000000000000000000000000000000000000000000000000000000612584565b6040518181527f5e923fddabace65b8950e60d671ac078edf8496e67b78acade53bfbe8c0e60df833392a260018055604051908152f35b34610252576020366003190112610252576001600160a01b03611672612013565b16600052600b6020526020600460406000200154604051908152f35b346102525760203660031901126102525760206116ac600435612812565b6040519015158152f35b34610252576000366003190112610252576020604051600080516020612a3f8339815191528152f35b346102525760003660031901126102525760025460405160089190911c6001600160a01b03168152602090f35b346102525760203660031901126102525760043533600052600b602052604060002060018101541561178d576201518091828102928184041490151715610b7b57600361175c9101918254612340565b8091556040519081527fe5d4b5c97a45cd2c590e17dd6dc2c0b1935d6c56701144a267f57b1a9f6779f460203392a2005b6040516378de4a6960e11b8152600490fd5b34610252576000366003190112610252576117b8612126565b60025460ff8116156117f75760ff19166002557f5db9ee0a495bf2e6ff9c91a7834c1ba4fdd244a5e8aa4e537bd38aeae4b073aa6020604051338152a1005b604051638dfc202b60e01b8152600490fd5b346102525761182b600161181c3661203f565b9290611826612126565b6126fb565b0155005b346102525761183d36612029565b3360009081527f7b5c056481855e86b45d521b463f282b8d93ddeda237b5bb9b7e1acaeffe580d60209081526040909120549092906000805160206129ff8339815191529060ff16156108d95750806000526009835260406000205480156108c757806000526008845260ff6007604060002001541660048110156104b6576104a457600754926118cd846125d5565b600755604051906118dd8261234d565b848252858201918483526040810193845260608101828152608082016000815260a0830142815260c08401916000835260e08501936000855260405197611923896123bb565b6000895261010087019889528b600052600a8d5260406000209651875551986001998a880155516002870155516003860155516004850155516005840155516006830155519060058210156104b65761198160089260078301612609565b9251805193909291016001600160401b0384116108b1578388936119aa89966106fc8554612621565b8490601f8311600114611a0057600080516020612adf8339815191529697839283926000946119f5575b50501b916000199060031b1c19161790555b604051908152a3604051908152f35b015192508c806119d4565b601f979291971982169784600052866000209160005b8a8110611a5c575083600080516020612adf833981519152999a10611a43575b505050811b0190556119e6565b015160001960f88460031b161c191690558a8080611a36565b8183015184558c995092850192918801918801611a16565b3461025257604036600319011261025257611a8d611ffd565b336001600160a01b03821603611aa95761051d90600435612298565b60405163334bd91960e11b8152600490fd5b34610252576040366003190112610252576024803590600435906001600160401b03908184116102525736602385011215610252578360040135918211610252573681838601011161025257611b0f612160565b82600052602093600a855260406000208054156110ea57600781019081549160ff83166005811015611c59576110d857600360089360ff191617905501611b6084611b5a8354612621565b8361265b565b6000601f8511600114611bd95783600080516020612a7f8339815191529697938693846040978195600092611bcc575b50508460011b906000198660031b1c19161790555b855196858896875286015201848401376000828201840152601f01601f19168101030190a2005b840101359050838c611b90565b601f1985169082600052876000209160005b818110611c40575093869384936040979385600080516020612a7f8339815191529b9c9810611c24575b5050600184811b019055611ba5565b8301840135600019600387901b60f8161c191690558a80611c15565b9192896001819289878a01013581550194019201611beb565b85634e487b7160e01b60005260216004526000fd5b346102525760403660031901126102525761051d600435611c8d611ffd565b90806000526000602052611ca86001604060002001546121f4565b61221a565b3461025257602036600319011261025257600435611cc9612554565b611cd1612536565b33600052600b602052604060002090600182019081549181831061178d5760038401544210611e0657600d5492611d1e611d17611d0e868661230d565b600e5490612320565b8095612577565b60125480611dda575b505082611d439186611d3c8760209954612577565b9055612577565b9055611d5182600d54612577565b80600d55611d6182600e54612577565b600e55601355611d6f6127de565b601455611d9d82337f0000000000000000000000000000000000000000000000000000000000000000612584565b60405190815281838201527f7fc4727e062e336010f2c282598ef5f14facb3de68cf8195c2f23e1454b2b74e60403392a260018055604051908152f35b61271091828102928184041490151715610b7b57611df791612320565b60045411610e14578580611d27565b604051630a68850160e11b8152600490fd5b346102525760203660031901126102525760043560005260006020526020600160406000200154604051908152f35b3461025257600036600319011261025257610120604051611e678161234d565b6000815260006020820152600060408201526000606082015260006080820152600060a0820152600060c0820152600060e082015260006101008092015260405190611eb28261234d565b600d5491828152600e5460208201908152600f546040830190815260105460608401908152601154608085019081526012549160a086019283526013549360c087019485526014549560e08801968752886015549801978852604051998a525160208a01525160408901525160608801525160808701525160a08601525160c08501525160e08401525190820152f35b34610252576000366003190112610252576020604051600080516020612a9f8339815191528152f35b346102525760203660031901126102525760206116ac600435612714565b3461025257602036600319011261025257611fa2612126565b600435600555005b34610252576020366003190112610252576004359063ffffffff60e01b821680920361025257602091637965db0b60e01b8114908115611fec575b5015158152f35b6301ffc9a760e01b14905083611fe5565b602435906001600160a01b038216820361025257565b600435906001600160a01b038216820361025257565b6040906003190112610252576004359060243590565b6040906003190112610252576004356003811015610252579060243590565b919082519283825260005b84811061208a575050826000602080949584010152601f8019910116010190565b602081830181015184830182015201612069565b9060038210156104b65752565b91909161014081019280518252602081015160208301526120d46040820151604084019061209e565b606081015160608301526080810151608083015260a081015160a083015260c081015160c083015260e081015160048110156104b65760e0830152610100808201519083015261012080910151910152565b3360009081527fad3228b676f7d3cd4284a5443f17f1962b36e491b30a40b2405849e597ba5fb5602052604081205460ff16156108d95750565b3360009081527f27196284162c27966ae7cf77ab78b3b6e8dede6c2999ddfc4b8bfd97443b66c36020526040902054600080516020612a9f8339815191529060ff16156108d95750565b3360009081527f72d6ae785a9ad0235999cd793b09ef9c72e2cf2848fef4f918ffe83267e169906020526040902054600080516020612a3f8339815191529060ff16156108d95750565b80600052600060205260406000203360005260205260ff60406000205416156108d95750565b9060009180835282602052604083209160018060a01b03169182845260205260ff6040842054161560001461229357808352826020526040832082845260205260408320600160ff198254161790557f2f8788117e7eff1d82e926ec794901d17c78024a50270940304540a733656f0d339380a4600190565b505090565b9060009180835282602052604083209160018060a01b03169182845260205260ff6040842054166000146122935780835282602052604083208284526020526040832060ff1981541690557ff6391f5c32d9c69d2a47ea670b442974b53935d1edc7fd64eb21e047a839171b339380a4600190565b81810292918115918404141715610b7b57565b811561232a570490565b634e487b7160e01b600052601260045260246000fd5b91908201809211610b7b57565b61012081019081106001600160401b038211176108b157604052565b61014081019081106001600160401b038211176108b157604052565b604081019081106001600160401b038211176108b157604052565b60c081019081106001600160401b038211176108b157604052565b602081019081106001600160401b038211176108b157604052565b601f909101601f19168101906001600160401b038211908210176108b157604052565b60018060a01b031690600080826020829451910182865af13d156124c7573d906001600160401b0382116124b3579061245491604051916124446020601f19601f84011601846123d6565b82523d84602084013e5b846124d3565b908151918215159283612484575b50505061246c5750565b60249060405190635274afe760e01b82526004820152fd5b8192935090602091810103126124af5760200151908115918215036124ac5750388080612462565b80fd5b5080fd5b634e487b7160e01b83526041600452602483fd5b6124549060609061244e565b906124fa57508051156124e857805190602001fd5b604051630a12f52160e11b8152600490fd5b8151158061252d575b61250b575090565b604051639996b31560e01b81526001600160a01b039091166004820152602490fd5b50803b15612503565b60ff6002541661254257565b60405163d93c066560e01b8152600490fd5b600260015414612565576002600155565b604051633ee5aeb560e01b8152600490fd5b91908203918211610b7b57565b60405163a9059cbb60e01b60208201526001600160a01b03909216602483015260448083019390935291815260808101916001600160401b038311828410176108b1576125d3926040526123f9565b565b6000198114610b7b5760010190565b60038210156104b65752565b60048210156104b65752565b8015610b7b576000190190565b9060058110156104b65760ff80198354169116179055565b90600182811c92168015612651575b602083101461263b57565b634e487b7160e01b600052602260045260246000fd5b91607f1691612630565b90601f811161266957505050565b600091825260208220906020601f850160051c830194106126a5575b601f0160051c01915b82811061269a57505050565b81815560010161268e565b9092508290612685565b604051906126bc82612369565b816101206000918281528260208201528260408201528260608201528260808201528260a08201528260c08201528260e0820152826101008201520152565b60038110156104b657600052600c602052604060002090565b60009081526009602052604081205480156127da57815260086020526040812060405161274081612369565b815481526001820154602082015261276260ff600284015416604083016125e4565b6003820154606082015260048201546080820152600582015460a0820152600682015460c0820152610120600960ff600785015416936127a660e0850195866125f0565b60088101546101008501520154910152519060048210156127c657501590565b634e487b7160e01b81526021600452602490fd5b5090565b601254801561280b57600d549061271091828102928184041490151715610b7b5761280891612320565b90565b5060001990565b61281e90601254612340565b801561284d57600d549061271091828102928184041490151715610b7b5761284591612320565b600454111590565b50600190565b6001600160a01b03166000908152600b6020526040808220815191949391829061287c816123a0565b8254815260018301549081602082015260028401548882015260a06005600386015495606084019687526004810154608085015201549101521061299e57514210612970576128db906128d5611d0e600d54809361230d565b90612577565b60125490816128fa575b505060019251906128f5826123bb565b815290565b6127109081810291818304149015171561295c579061291891612320565b600454116129275738806128e5565b915161293281612385565b601a815279576f756c6420627265616368207265736572766520726174696f60301b602082015290565b634e487b7160e01b83526011600452602483fd5b50915161297c81612385565b601281527114dd185ad9481cdd1a5b1b081b1bd8dad95960721b602082015290565b505091516129ab81612385565b6013815272496e73756666696369656e742073686172657360681b602082015290565b600d5480156129f857600f549061271091828102928184041490151715610b7b5761280891612320565b5060009056fedc893482d4fc475bd4e8d06ae17cff82859f84becb0b10caa014d9c960c999a50d251e8ed2411c81711dcb68307a4401e6ee843cd840c5b6598db6391af240d57022b05f273dfb770d16ebe344b0b38e1ef7bac12120a5cebc324be6acf18fe1638d892b8630b775fea5d7a52b209e8bfa1d90c32b57cd37208ac84d4bcd6dcb43cc3d080e025c67c26d62b18bd442511dc9c76c8aa3f48cc0e8f456173e61f11c20ae0066ae315d077912ed82fa08bba9de3f706c44b38bc5868150a04b08abb0727183796e52c5bb00a257c1eb36d8e94dbee5d6d87e259287e3372ae39ace0016b36dc742e36d40c93764b5d2448ab23f153dbfde9a2e22261968924f511ea264697066735822122041532a65c0abc3909390c79bf282d0211449799f48412eb789cc0bcc7367656464736f6c634300081400332f8788117e7eff1d82e926ec794901d17c78024a50270940304540a733656f0d","linkReferences":{}},"methodIdentifiers":{"CLAIMS_APPROVER_ROLE()":"0cba2c54","CLAIMS_FILER_ROLE()":"c31b5e21","CLAIMS_PROCESSOR_ROLE()":"b3b95bbe","COVERAGE_MANAGER_ROLE()":"4ccc2800","DEFAULT_ADMIN_ROLE()":"a217fddf","approveClaim(uint256,uint256)":"7fbe658c","calculatePremium(uint8,uint256,uint256)":"95920a58","canPurchaseCoverage(uint256)":"4f0d6c53","canUnstake(address,uint256)":"5e598d12","cancelCoverage(uint256)":"d9df4ece","claimStakingYield()":"563fa978","extendLock(uint256)":"44ee3a1c","fileClaim(uint256,uint256)":"37e94726","getClaim(uint256)":"5aef2447","getCoverage(uint256)":"a7a44902","getCoverageByInvoice(uint256)":"76fed726","getMaxCoverage(uint8,uint256)":"cee71912","getPendingYield(address)":"537bb137","getPoolMetrics()":"1866509f","getReserveRatio()":"56b6d0d5","getRoleAdmin(bytes32)":"248a9ca3","getStakerAPY()":"f97642c1","getStakerPosition(address)":"e1e4063c","grantRole(bytes32,address)":"2f2ff15d","hasRole(bytes32,address)":"91d14854","invoiceToken()":"464b5391","isCovered(uint256)":"047a7acb","liquidityPool()":"665a11ca","minReserveRatio()":"5a596d1c","minStakeLockDays()":"a09cc578","pause()":"8456cb59","paused()":"5c975abb","processClaim(uint256)":"7257dfc9","processClaimDirect(uint256)":"c67a5f9d","purchaseCoverage(uint256,uint8,uint256)":"a2293b3e","rejectClaim(uint256,string)":"3577a5ad","renewCoverage(uint256,uint256)":"8738eff2","renounceRole(bytes32,address)":"36568abe","revokeRole(bytes32,address)":"d547741f","setLiquidityPoolAddress(address)":"63986aba","setMinReserveRatio(uint256)":"83685135","setMinStakeLockDays(uint256)":"0423a1d5","setPremiumRates(uint8,uint256)":"3ab6539c","stablecoin()":"e9cbd822","stake(uint256)":"a694fc3a","supportsInterface(bytes4)":"01ffc9a7","unpause()":"3f4ba83a","unstake(uint256)":"2e17de78"},"id":46}