{"abi":[{"type":"constructor","inputs":[{"name":"_stablecoin","type":"address","internalType":"address"},{"name":"_invoiceToken","type":"address","internalType":"address"},{"name":"_admin","type":"address","internalType":"address"}],"stateMutability":"nonpayable"},{"type":"function","name":"CLAIMS_APPROVER_ROLE","inputs":[],"outputs":[{"name":"","type":"bytes32","internalType":"bytes32"}],"stateMutability":"view"},{"type":"function","name":"CLAIMS_FILER_ROLE","inputs":[],"outputs":[{"name":"","type":"bytes32","internalType":"bytes32"}],"stateMutability":"view"},{"type":"function","name":"CLAIMS_PROCESSOR_ROLE","inputs":[],"outputs":[{"name":"","type":"bytes32","internalType":"bytes32"}],"stateMutability":"view"},{"type":"function","name":"COVERAGE_MANAGER_ROLE","inputs":[],"outputs":[{"name":"","type":"bytes32","internalType":"bytes32"}],"stateMutability":"view"},{"type":"function","name":"DEFAULT_ADMIN_ROLE","inputs":[],"outputs":[{"name":"","type":"bytes32","internalType":"bytes32"}],"stateMutability":"view"},{"type":"function","name":"approveClaim","inputs":[{"name":"claimId","type":"uint256","internalType":"uint256"},{"name":"approvedAmount","type":"uint256","internalType":"uint256"}],"outputs":[],"stateMutability":"nonpayable"},{"type":"function","name":"calculatePremium","inputs":[{"name":"tier","type":"uint8","internalType":"enum InsurancePool.CoverageTier"},{"name":"coverageAmount","type":"uint256","internalType":"uint256"},{"name":"durationDays","type":"uint256","internalType":"uint256"}],"outputs":[{"name":"","type":"uint256","internalType":"uint256"}],"stateMutability":"view"},{"type":"function","name":"canPurchaseCoverage","inputs":[{"name":"coverageAmount","type":"uint256","internalType":"uint256"}],"outputs":[{"name":"","type":"bool","internalType":"bool"}],"stateMutability":"view"},{"type":"function","name":"canUnstake","inputs":[{"name":"staker","type":"address","internalType":"address"},{"name":"shares","type":"uint256","internalType":"uint256"}],"outputs":[{"name":"","type":"bool","internalType":"bool"},{"name":"reason","type":"string","internalType":"string"}],"stateMutability":"view"},{"type":"function","name":"cancelCoverage","inputs":[{"name":"coverageId","type":"uint256","internalType":"uint256"}],"outputs":[{"name":"refund","type":"uint256","internalType":"uint256"}],"stateMutability":"nonpayable"},{"type":"function","name":"claimStakingYield","inputs":[],"outputs":[{"name":"yield","type":"uint256","internalType":"uint256"}],"stateMutability":"nonpayable"},{"type":"function","name":"extendLock","inputs":[{"name":"additionalDays","type":"uint256","internalType":"uint256"}],"outputs":[],"stateMutability":"nonpayable"},{"type":"function","name":"fileClaim","inputs":[{"name":"invoiceId","type":"uint256","internalType":"uint256"},{"name":"requestedAmount","type":"uint256","internalType":"uint256"}],"outputs":[{"name":"claimId","type":"uint256","internalType":"uint256"}],"stateMutability":"nonpayable"},{"type":"function","name":"getClaim","inputs":[{"name":"claimId","type":"uint256","internalType":"uint256"}],"outputs":[{"name":"","type":"tuple","internalType":"struct InsurancePool.Claim","components":[{"name":"claimId","type":"uint256","internalType":"uint256"},{"name":"invoiceId","type":"uint256","internalType":"uint256"},{"name":"coverageId","type":"uint256","internalType":"uint256"},{"name":"requestedAmount","type":"uint256","internalType":"uint256"},{"name":"approvedAmount","type":"uint256","internalType":"uint256"},{"name":"filedAt","type":"uint256","internalType":"uint256"},{"name":"processedAt","type":"uint256","internalType":"uint256"},{"name":"status","type":"uint8","internalType":"enum InsurancePool.ClaimStatus"},{"name":"notes","type":"string","internalType":"string"}]}],"stateMutability":"view"},{"type":"function","name":"getCoverage","inputs":[{"name":"coverageId","type":"uint256","internalType":"uint256"}],"outputs":[{"name":"","type":"tuple","internalType":"struct InsurancePool.Coverage","components":[{"name":"coverageId","type":"uint256","internalType":"uint256"},{"name":"invoiceId","type":"uint256","internalType":"uint256"},{"name":"tier","type":"uint8","internalType":"enum InsurancePool.CoverageTier"},{"name":"coverageAmount","type":"uint256","internalType":"uint256"},{"name":"premiumPaid","type":"uint256","internalType":"uint256"},{"name":"startDate","type":"uint256","internalType":"uint256"},{"name":"endDate","type":"uint256","internalType":"uint256"},{"name":"status","type":"uint8","internalType":"enum InsurancePool.CoverageStatus"},{"name":"claimAmount","type":"uint256","internalType":"uint256"},{"name":"claimedAt","type":"uint256","internalType":"uint256"}]}],"stateMutability":"view"},{"type":"function","name":"getCoverageByInvoice","inputs":[{"name":"invoiceId","type":"uint256","internalType":"uint256"}],"outputs":[{"name":"","type":"tuple","internalType":"struct InsurancePool.Coverage","components":[{"name":"coverageId","type":"uint256","internalType":"uint256"},{"name":"invoiceId","type":"uint256","internalType":"uint256"},{"name":"tier","type":"uint8","internalType":"enum InsurancePool.CoverageTier"},{"name":"coverageAmount","type":"uint256","internalType":"uint256"},{"name":"premiumPaid","type":"uint256","internalType":"uint256"},{"name":"startDate","type":"uint256","internalType":"uint256"},{"name":"endDate","type":"uint256","internalType":"uint256"},{"name":"status","type":"uint8","internalType":"enum InsurancePool.CoverageStatus"},{"name":"claimAmount","type":"uint256","internalType":"uint256"},{"name":"claimedAt","type":"uint256","internalType":"uint256"}]}],"stateMutability":"view"},{"type":"function","name":"getMaxCoverage","inputs":[{"name":"tier","type":"uint8","internalType":"enum InsurancePool.CoverageTier"},{"name":"invoiceValue","type":"uint256","internalType":"uint256"}],"outputs":[{"name":"","type":"uint256","internalType":"uint256"}],"stateMutability":"view"},{"type":"function","name":"getPendingYield","inputs":[{"name":"staker","type":"address","internalType":"address"}],"outputs":[{"name":"","type":"uint256","internalType":"uint256"}],"stateMutability":"view"},{"type":"function","name":"getPoolMetrics","inputs":[],"outputs":[{"name":"","type":"tuple","internalType":"struct InsurancePool.PoolMetrics","components":[{"name":"totalStaked","type":"uint256","internalType":"uint256"},{"name":"totalShares","type":"uint256","internalType":"uint256"},{"name":"totalPremiumsCollected","type":"uint256","internalType":"uint256"},{"name":"totalClaimsPaid","type":"uint256","internalType":"uint256"},{"name":"activeCoverageCount","type":"uint256","internalType":"uint256"},{"name":"activeCoverageAmount","type":"uint256","internalType":"uint256"},{"name":"availableCapital","type":"uint256","internalType":"uint256"},{"name":"reserveRatio","type":"uint256","internalType":"uint256"},{"name":"currentAPY","type":"uint256","internalType":"uint256"}]}],"stateMutability":"view"},{"type":"function","name":"getReserveRatio","inputs":[],"outputs":[{"name":"","type":"uint256","internalType":"uint256"}],"stateMutability":"view"},{"type":"function","name":"getRoleAdmin","inputs":[{"name":"role","type":"bytes32","internalType":"bytes32"}],"outputs":[{"name":"","type":"bytes32","internalType":"bytes32"}],"stateMutability":"view"},{"type":"function","name":"getStakerAPY","inputs":[],"outputs":[{"name":"","type":"uint256","internalType":"uint256"}],"stateMutability":"view"},{"type":"function","name":"getStakerPosition","inputs":[{"name":"staker","type":"address","internalType":"address"}],"outputs":[{"name":"","type":"tuple","internalType":"struct InsurancePool.StakerPosition","components":[{"name":"stakedAmount","type":"uint256","internalType":"uint256"},{"name":"shares","type":"uint256","internalType":"uint256"},{"name":"stakedAt","type":"uint256","internalType":"uint256"},{"name":"lockEndTime","type":"uint256","internalType":"uint256"},{"name":"pendingYield","type":"uint256","internalType":"uint256"},{"name":"totalYieldClaimed","type":"uint256","internalType":"uint256"}]}],"stateMutability":"view"},{"type":"function","name":"grantRole","inputs":[{"name":"role","type":"bytes32","internalType":"bytes32"},{"name":"account","type":"address","internalType":"address"}],"outputs":[],"stateMutability":"nonpayable"},{"type":"function","name":"hasRole","inputs":[{"name":"role","type":"bytes32","internalType":"bytes32"},{"name":"account","type":"address","internalType":"address"}],"outputs":[{"name":"","type":"bool","internalType":"bool"}],"stateMutability":"view"},{"type":"function","name":"invoiceToken","inputs":[],"outputs":[{"name":"","type":"address","internalType":"address"}],"stateMutability":"view"},{"type":"function","name":"isCovered","inputs":[{"name":"invoiceId","type":"uint256","internalType":"uint256"}],"outputs":[{"name":"","type":"bool","internalType":"bool"}],"stateMutability":"view"},{"type":"function","name":"liquidityPool","inputs":[],"outputs":[{"name":"","type":"address","internalType":"address"}],"stateMutability":"view"},{"type":"function","name":"minReserveRatio","inputs":[],"outputs":[{"name":"","type":"uint256","internalType":"uint256"}],"stateMutability":"view"},{"type":"function","name":"minStakeLockDays","inputs":[],"outputs":[{"name":"","type":"uint256","internalType":"uint256"}],"stateMutability":"view"},{"type":"function","name":"pause","inputs":[],"outputs":[],"stateMutability":"nonpayable"},{"type":"function","name":"paused","inputs":[],"outputs":[{"name":"","type":"bool","internalType":"bool"}],"stateMutability":"view"},{"type":"function","name":"processClaim","inputs":[{"name":"claimId","type":"uint256","internalType":"uint256"}],"outputs":[],"stateMutability":"nonpayable"},{"type":"function","name":"processClaimDirect","inputs":[{"name":"invoiceId","type":"uint256","internalType":"uint256"}],"outputs":[],"stateMutability":"nonpayable"},{"type":"function","name":"purchaseCoverage","inputs":[{"name":"invoiceId","type":"uint256","internalType":"uint256"},{"name":"tier","type":"uint8","internalType":"enum InsurancePool.CoverageTier"},{"name":"coverageAmount","type":"uint256","internalType":"uint256"}],"outputs":[{"name":"coverageId","type":"uint256","internalType":"uint256"}],"stateMutability":"nonpayable"},{"type":"function","name":"rejectClaim","inputs":[{"name":"claimId","type":"uint256","internalType":"uint256"},{"name":"reason","type":"string","internalType":"string"}],"outputs":[],"stateMutability":"nonpayable"},{"type":"function","name":"renewCoverage","inputs":[{"name":"coverageId","type":"uint256","internalType":"uint256"},{"name":"newEndDate","type":"uint256","internalType":"uint256"}],"outputs":[],"stateMutability":"nonpayable"},{"type":"function","name":"renounceRole","inputs":[{"name":"role","type":"bytes32","internalType":"bytes32"},{"name":"callerConfirmation","type":"address","internalType":"address"}],"outputs":[],"stateMutability":"nonpayable"},{"type":"function","name":"revokeRole","inputs":[{"name":"role","type":"bytes32","internalType":"bytes32"},{"name":"account","type":"address","internalType":"address"}],"outputs":[],"stateMutability":"nonpayable"},{"type":"function","name":"setLiquidityPoolAddress","inputs":[{"name":"pool","type":"address","internalType":"address"}],"outputs":[],"stateMutability":"nonpayable"},{"type":"function","name":"setMinReserveRatio","inputs":[{"name":"ratioBps","type":"uint256","internalType":"uint256"}],"outputs":[],"stateMutability":"nonpayable"},{"type":"function","name":"setMinStakeLockDays","inputs":[{"name":"days_","type":"uint256","internalType":"uint256"}],"outputs":[],"stateMutability":"nonpayable"},{"type":"function","name":"setPremiumRates","inputs":[{"name":"tier","type":"uint8","internalType":"enum InsurancePool.CoverageTier"},{"name":"rateBps","type":"uint256","internalType":"uint256"}],"outputs":[],"stateMutability":"nonpayable"},{"type":"function","name":"stablecoin","inputs":[],"outputs":[{"name":"","type":"address","internalType":"contract IERC20"}],"stateMutability":"view"},{"type":"function","name":"stake","inputs":[{"name":"amount","type":"uint256","internalType":"uint256"}],"outputs":[{"name":"shares","type":"uint256","internalType":"uint256"}],"stateMutability":"nonpayable"},{"type":"function","name":"supportsInterface","inputs":[{"name":"interfaceId","type":"bytes4","internalType":"bytes4"}],"outputs":[{"name":"","type":"bool","internalType":"bool"}],"stateMutability":"view"},{"type":"function","name":"unpause","inputs":[],"outputs":[],"stateMutability":"nonpayable"},{"type":"function","name":"unstake","inputs":[{"name":"shares","type":"uint256","internalType":"uint256"}],"outputs":[{"name":"amount","type":"uint256","internalType":"uint256"}],"stateMutability":"nonpayable"},{"type":"event","name":"ClaimApproved","inputs":[{"name":"claimId","type":"uint256","indexed":true,"internalType":"uint256"},{"name":"approvedAmount","type":"uint256","indexed":false,"internalType":"uint256"}],"anonymous":false},{"type":"event","name":"ClaimFiled","inputs":[{"name":"claimId","type":"uint256","indexed":true,"internalType":"uint256"},{"name":"invoiceId","type":"uint256","indexed":true,"internalType":"uint256"},{"name":"requestedAmount","type":"uint256","indexed":false,"internalType":"uint256"}],"anonymous":false},{"type":"event","name":"ClaimPaid","inputs":[{"name":"claimId","type":"uint256","indexed":true,"internalType":"uint256"},{"name":"paidAmount","type":"uint256","indexed":false,"internalType":"uint256"}],"anonymous":false},{"type":"event","name":"ClaimRejected","inputs":[{"name":"claimId","type":"uint256","indexed":true,"internalType":"uint256"},{"name":"reason","type":"string","indexed":false,"internalType":"string"}],"anonymous":false},{"type":"event","name":"CoverageCancelled","inputs":[{"name":"coverageId","type":"uint256","indexed":true,"internalType":"uint256"},{"name":"refund","type":"uint256","indexed":false,"internalType":"uint256"}],"anonymous":false},{"type":"event","name":"CoveragePurchased","inputs":[{"name":"coverageId","type":"uint256","indexed":true,"internalType":"uint256"},{"name":"invoiceId","type":"uint256","indexed":true,"internalType":"uint256"},{"name":"tier","type":"uint8","indexed":false,"internalType":"enum InsurancePool.CoverageTier"},{"name":"premium","type":"uint256","indexed":false,"internalType":"uint256"}],"anonymous":false},{"type":"event","name":"CoverageRenewed","inputs":[{"name":"coverageId","type":"uint256","indexed":true,"internalType":"uint256"},{"name":"newEndDate","type":"uint256","indexed":false,"internalType":"uint256"}],"anonymous":false},{"type":"event","name":"LockExtended","inputs":[{"name":"staker","type":"address","indexed":true,"internalType":"address"},{"name":"newLockEndTime","type":"uint256","indexed":false,"internalType":"uint256"}],"anonymous":false},{"type":"event","name":"Paused","inputs":[{"name":"account","type":"address","indexed":false,"internalType":"address"}],"anonymous":false},{"type":"event","name":"PremiumCollected","inputs":[{"name":"coverageId","type":"uint256","indexed":true,"internalType":"uint256"},{"name":"amount","type":"uint256","indexed":false,"internalType":"uint256"}],"anonymous":false},{"type":"event","name":"ReserveRatioUpdated","inputs":[{"name":"newRatio","type":"uint256","indexed":false,"internalType":"uint256"}],"anonymous":false},{"type":"event","name":"RoleAdminChanged","inputs":[{"name":"role","type":"bytes32","indexed":true,"internalType":"bytes32"},{"name":"previousAdminRole","type":"bytes32","indexed":true,"internalType":"bytes32"},{"name":"newAdminRole","type":"bytes32","indexed":true,"internalType":"bytes32"}],"anonymous":false},{"type":"event","name":"RoleGranted","inputs":[{"name":"role","type":"bytes32","indexed":true,"internalType":"bytes32"},{"name":"account","type":"address","indexed":true,"internalType":"address"},{"name":"sender","type":"address","indexed":true,"internalType":"address"}],"anonymous":false},{"type":"event","name":"RoleRevoked","inputs":[{"name":"role","type":"bytes32","indexed":true,"internalType":"bytes32"},{"name":"account","type":"address","indexed":true,"internalType":"address"},{"name":"sender","type":"address","indexed":true,"internalType":"address"}],"anonymous":false},{"type":"event","name":"Staked","inputs":[{"name":"staker","type":"address","indexed":true,"internalType":"address"},{"name":"amount","type":"uint256","indexed":false,"internalType":"uint256"},{"name":"shares","type":"uint256","indexed":false,"internalType":"uint256"},{"name":"lockEndTime","type":"uint256","indexed":false,"internalType":"uint256"}],"anonymous":false},{"type":"event","name":"StakingYieldClaimed","inputs":[{"name":"staker","type":"address","indexed":true,"internalType":"address"},{"name":"amount","type":"uint256","indexed":false,"internalType":"uint256"}],"anonymous":false},{"type":"event","name":"Unpaused","inputs":[{"name":"account","type":"address","indexed":false,"internalType":"address"}],"anonymous":false},{"type":"event","name":"Unstaked","inputs":[{"name":"staker","type":"address","indexed":true,"internalType":"address"},{"name":"shares","type":"uint256","indexed":false,"internalType":"uint256"},{"name":"amount","type":"uint256","indexed":false,"internalType":"uint256"}],"anonymous":false},{"type":"error","name":"AccessControlBadConfirmation","inputs":[]},{"type":"error","name":"AccessControlUnauthorizedAccount","inputs":[{"name":"account","type":"address","internalType":"address"},{"name":"neededRole","type":"bytes32","internalType":"bytes32"}]},{"type":"error","name":"AddressEmptyCode","inputs":[{"name":"target","type":"address","internalType":"address"}]},{"type":"error","name":"AddressInsufficientBalance","inputs":[{"name":"account","type":"address","internalType":"address"}]},{"type":"error","name":"ClaimAlreadyProcessed","inputs":[]},{"type":"error","name":"ClaimNotApproved","inputs":[]},{"type":"error","name":"ClaimNotFound","inputs":[]},{"type":"error","name":"CoverageAmountExceedsLimit","inputs":[]},{"type":"error","name":"CoverageExpired","inputs":[]},{"type":"error","name":"CoverageNotActive","inputs":[]},{"type":"error","name":"CoverageNotFound","inputs":[]},{"type":"error","name":"EnforcedPause","inputs":[]},{"type":"error","name":"ExpectedPause","inputs":[]},{"type":"error","name":"FailedInnerCall","inputs":[]},{"type":"error","name":"InsufficientPoolFunds","inputs":[]},{"type":"error","name":"InsufficientStake","inputs":[]},{"type":"error","name":"InvoiceNotCovered","inputs":[]},{"type":"error","name":"InvoiceNotDefaulted","inputs":[]},{"type":"error","name":"PoolPaused","inputs":[]},{"type":"error","name":"ReentrancyGuardReentrantCall","inputs":[]},{"type":"error","name":"SafeERC20FailedOperation","inputs":[{"name":"token","type":"address","internalType":"address"}]},{"type":"error","name":"StakeLocked","inputs":[]},{"type":"error","name":"WouldBreachReserveRatio","inputs":[]},{"type":"error","name":"ZeroAddress","inputs":[]},{"type":"error","name":"ZeroAmount","inputs":[]}],"bytecode":{"object":"0x60a034620001d857601f62002f7138819003918201601f1916830191906001600160401b03831184841017620001dc578160609285926040958652833981010312620001d857620000508262000210565b916020906200006e836200006684840162000210565b920162000210565b916001918280556002549060018060a01b03809716968715620001c757851615620001b657620001749596608052610100600160a81b039060081b169060018060a81b03191617600255613a98600455601e60055581620000ce620001f0565b9161138883528083019260328452825f94858052600c84528986209251835551910155620000fb620001f0565b611d4c81528282820160648152818652600c845289862092518355519101558662000125620001f0565b936127108552600c8386019360968552600283525220925183555191015580600655600755620001558162000225565b506200016181620002a3565b506200016d8162000343565b50620003de565b5051612ad790816200047a8239608051818181610267015281816104650152818161082a01528181610b6e015281816112ad015281816116440152611e080152f35b855163d92e233d60e01b8152600490fd5b865163d92e233d60e01b8152600490fd5b5f80fd5b634e487b7160e01b5f52604160045260245ffd5b60408051919082016001600160401b03811183821017620001dc57604052565b51906001600160a01b0382168203620001d857565b6001600160a01b03165f8181527fad3228b676f7d3cd4284a5443f17f1962b36e491b30a40b2405849e597ba5fb5602052604081205490919060ff166200029f57818052816020526040822081835260205260408220600160ff1982541617905533915f8051602062002f518339815191528180a4600190565b5090565b6001600160a01b03165f8181527f72d6ae785a9ad0235999cd793b09ef9c72e2cf2848fef4f918ffe83267e1699060205260408120549091907f7022b05f273dfb770d16ebe344b0b38e1ef7bac12120a5cebc324be6acf18fe19060ff166200033e57808352826020526040832082845260205260408320600160ff198254161790555f8051602062002f51833981519152339380a4600190565b505090565b6001600160a01b03165f8181527f27196284162c27966ae7cf77ab78b3b6e8dede6c2999ddfc4b8bfd97443b66c360205260408120549091907f1c20ae0066ae315d077912ed82fa08bba9de3f706c44b38bc5868150a04b08ab9060ff166200033e57808352826020526040832082845260205260408320600160ff198254161790555f8051602062002f51833981519152339380a4600190565b6001600160a01b03165f8181527f30f815a98cd826effe50fbb81120adf9aa7a92ffb6859a25fda623be8fb5f53a60205260408120549091907f0d251e8ed2411c81711dcb68307a4401e6ee843cd840c5b6598db6391af240d59060ff166200033e57808352826020526040832082845260205260408320600160ff198254161790555f8051602062002f51833981519152339380a460019056fe6080806040526004361015610012575f80fd5b5f3560e01c90816301ffc9a71461203d575080630423a1d51461201c578063047a7acb14611ffe5780630cba2c5414611fc45780631866509f14611ed3578063248a9ca314611ea75780632e17de7814611d3e5780632f2ff15d14611d025780633577a5ad14611b3657806336568abe14611aef57806337e94726146118885780633ab6539c146118625780633f4ba83a146117f957806344ee3a1c14611768578063464b53911461173c5780634ccc2800146117025780634f0d6c53146116da578063537bb1371461169f578063563fa978146115ee57806356b6d0d5146115d45780635a596d1c146115b75780635aef2447146113d65780635c975abb146113b45780635e598d121461137057806363986aba14611312578063665a11ca146112ea5780637257dfc91461119657806376fed726146111505780637fbe658c1461106d57806383685135146110215780638456cb5914610fc85780638738eff214610f5757806391d1485414610f0f57806395920a5814610eae578063a09cc57814610e91578063a217fddf14610e77578063a2293b3e14610c1f578063a694fc3a14610a61578063a7a44902146109a6578063b3b95bbe1461096c578063c31b5e2114610932578063c67a5f9d14610557578063cee719121461050e578063d547741f146104d0578063d9df4ece14610365578063e1e4063c14610296578063e9cbd822146102525763f97642c11461022c575f80fd5b3461024e575f36600319011261024e576020610246612a72565b604051908152f35b5f80fd5b3461024e575f36600319011261024e576040517f00000000000000000000000000000000000000000000000000000000000000006001600160a01b03168152602090f35b3461024e57602036600319011261024e576102af6120a6565b5f60a06040516102be8161244a565b828152826020820152826040820152826060820152826080820152015260018060a01b03165f52600b60205260c060405f206040516102fc8161244a565b8154918282526001810154602083019081526002820154604084019081526003830154916060850192835260a0600560048601549560808801968752015495019485526040519586525160208601525160408501525160608401525160808301525160a0820152f35b3461024e57602036600319011261024e5760043561038161224b565b805f52600860205260405f208054156104be57600781019182549160ff831660048110156104aa5761049857600381602095826103f360066104139601546103cd600586015482612622565b904281111561048e576103e46103ee914290612622565b60048701546123b6565b6123c9565b9660ff19161790556104066011546126a7565b6011550154601254612622565b601255600d54601355610424612881565b6014558161045e575b7f2ca527b60c93821df45cdaa8ddb4ad1cc7860ebb86ee208677a3197b5d3be88583604051848152a2604051908152f35b61048982337f000000000000000000000000000000000000000000000000000000000000000061262f565b61042d565b506103ee5f6103e4565b60405163157c8d4960e31b8152600490fd5b634e487b7160e01b5f52602160045260245ffd5b6040516301cad69360e51b8152600490fd5b3461024e57604036600319011261024e5761050c6004356104ef612090565b90805f525f602052610507600160405f2001546122a6565b612343565b005b3461024e57602061271061054e61052e610527366120d2565b91906127a1565b9060405161053b8161242e565b85600184549485845201549101526123b6565b04604051908152f35b3461024e57602036600319011261024e576105706125ff565b335f9081527f30f815a98cd826effe50fbb81120adf9aa7a92ffb6859a25fda623be8fb5f53a60205260409020547f0d251e8ed2411c81711dcb68307a4401e6ee843cd840c5b6598db6391af240d59060ff1615610914576004355f52600960205260405f2054801561090257805f52600860205260405f20600381015490600754926105fc84612681565b6007556040519061060c826123f4565b8482526020820190600435825260408301528360608301528360808301524260a08301524260c0830152600260e08301526040516106498161242e565b600e81526d105d5d1bcb5c1c9bd8d95cdcd95960921b6020820152610100830152845f52600a60205260405f20908251825551600182015560408201516002820155606082015160038201556080820151600482015560a0820151600582015560c0820151600682015560e082015160058110156104aa57816106d4600892600761010095016126b3565b0191015180519067ffffffffffffffff82116108ee576106fe826106f885546126cb565b85612703565b602090601f831160011461086057937fb0727183796e52c5bb00a257c1eb36d8e94dbee5d6d87e259287e3372ae39ace95938361077b946003946020985f92610855575b50508160011b915f1990861b1c19161790555b60078101600260ff198254161790558360088201554260098201556104066011546126a7565b60125561078a816010546123e7565b60105561079981600d54612622565b80600d556013556107a8612881565b6014556003546001600160a01b03168181610824575b5050604051818152847e16b36dc742e36d40c93764b5d2448ab23f153dbfde9a2e22261968924f511e8460043593a3837f638d892b8630b775fea5d7a52b209e8bfa1d90c32b57cd37208ac84d4bcd6dcb83604051848152a2604051908152a260018055005b61084e917f000000000000000000000000000000000000000000000000000000000000000061262f565b84816107be565b015190508a80610742565b90601f19831691845f5260205f20925f5b8181106108d6575084600394602098947fb0727183796e52c5bb00a257c1eb36d8e94dbee5d6d87e259287e3372ae39ace9a989461077b98600195106108bf575b505050811b019055610755565b01515f1983881b60f8161c191690558a80806108b2565b92936020600181928786015181550195019301610871565b634e487b7160e01b5f52604160045260245ffd5b60405163eb7729ad60e01b8152600490fd5b6044906040519063e2517d3f60e01b82523360048301526024820152fd5b3461024e575f36600319011261024e5760206040517fdc893482d4fc475bd4e8d06ae17cff82859f84becb0b10caa014d9c960c999a58152f35b3461024e575f36600319011261024e5760206040517f0d251e8ed2411c81711dcb68307a4401e6ee843cd840c5b6598db6391af240d58152f35b3461024e57602036600319011261024e576109bf612756565b506004355f526008602052610a5d60405f206009604051916109e083612411565b8054835260018101546020840152610a0260ff6002830154166040850161268f565b6003810154606084015260048101546080840152600581015460a0840152600681015460c0840152610a3e60ff60078301541660e0850161269b565b600881015461010084015201546101208201526040519182918261213c565b0390f35b3461024e57602036600319011261024e57600435610a7d6125ff565b610a856125e1565b8015610c0d57600e5480610bf25750805b335f52600b60205260405f2091610aae8184546123e7565b835560018301610abf8382546123e7565b905560028301805415610be9575b506005546201518090818102918183041490151715610bd557610af2600391426123e7565b9301928355610b0381600d546123e7565b80600d55610b1383600e546123e7565b600e55601355610b21612881565b6014556040516323b872dd60e01b6020820152336024820152306044820152606480820183905281529260a0840167ffffffffffffffff8111858210176108ee57602094610b92916040527f00000000000000000000000000000000000000000000000000000000000000006124a4565b54604051918252828483015260408201527fb4caaf29adda3eefee3ad552a8e85058589bf834c7466cae4ee58787f70589ed60603392a260018055604051908152f35b634e487b7160e01b5f52601160045260245ffd5b42905583610acd565b610bff610c0891836123b6565b600d54906123c9565b610a96565b604051631f2a200560e01b8152600490fd5b3461024e57606036600319011261024e57602435600435600382101561024e57604435610c4a6125ff565b610c526125e1565b610c5a61224b565b8015610c0d57610c69816128b4565b15610e6557610c77836127a1565b92612710610ca0600160405196610c8d8861242e565b80548852015480602080980152846123b6565b04603c810290808204603c1490151715610bd55761016d90049260065493610cc785612681565b6006556276a700420191824211610bd557858794604051958691610cea83612411565b838352818301968588526040840197610d03838a61268f565b606085018b8152608086019089825260a087019242845260c08801948552600860e08901975f89526101206101008b019a5f8c52019a5f8c525f525260405f209c518d555160018d015560028c019a519a60038c10156104aa5760ff199b60ff8d83541691161790555160038c01555160048b01555160058a015551600689015560078801915160048110156104aa578a997f16d8dde3081dcc7b985217559bb5d076bb9cae69d817dd71b8a607cc05a279659960098c978f9b9787610e1d9660ff7feb0020b48c763bcd869d17d83cf5b90d44634ad30ea9959948d62736b4114c7d9b60409b5416911617905551600884015551910155865f526009895285845f2055610e12601154612681565b6011556012546123e7565b601255610e2c86600f546123e7565b600f55600d54601355610e3d612881565b601455610e4c8251809261212f565b8587820152a3604051908152a260018055604051908152f35b6040516311ae007160e21b8152600490fd5b3461024e575f36600319011261024e5760206040515f8152f35b3461024e575f36600319011261024e576020600554604051908152f35b3461024e57606036600319011261024e57600435600381101561024e5761016d61054e6020610edd81946127a1565b600160405191610eec8361242e565b8054835201549182910152612710610f09604435926024356123b6565b046123b6565b3461024e57604036600319011261024e57610f28612090565b6004355f525f60205260405f209060018060a01b03165f52602052602060ff60405f2054166040519015158152f35b3461024e57610f65366120bc565b610f6d61224b565b815f52600860205260405f208054156104be5760ff60078201541660048110156104aa5761049857817fdb5714ad0f4c7cae277bc170d2a151455043cf3532df69987ce7e79af43ffc859260066020930155604051908152a2005b3461024e575f36600319011261024e57610fe06121b7565b610fe86125e1565b600160ff1960025416176002557f62e78cea01bee320cd4e420270b5ea74000d11b0c9f74754ebdbfc544b05a2586020604051338152a1005b3461024e57602036600319011261024e577f5fc97baab2060bb73299f20ec1d188d8ad3e090e1d7e029e716c34674d87b23460206004356110606121b7565b80600455604051908152a1005b3461024e5761107b366120bc565b6110836121f0565b80825f52600a60205260405f209182541561113e576007830180549260ff841660058110156104aa5761112c5760028501545f526008602052600360405f200154809111611124575b5081601354106111125760016020938360047f638d892b8630b775fea5d7a52b209e8bfa1d90c32b57cd37208ac84d4bcd6dcb97015560ff1916179055604051908152a2005b6040516316d5c93f60e21b8152600490fd5b9150856110cc565b604051634b34e6d960e01b8152600490fd5b60405163022af77760e11b8152600490fd5b3461024e57602036600319011261024e57611169612756565b506004355f52600960205260405f20545f526008602052610a5d60405f206009604051916109e083612411565b3461024e57602036600319011261024e576004356111b26125ff565b805f52600a60205260405f2080541561113e576007810180549060ff821660058110156104aa576001036112d85761125560038460209460027fb0727183796e52c5bb00a257c1eb36d8e94dbee5d6d87e259287e3372ae39ace9701545f526008865260405f2091600481015495600260ff19809416179055600642910155600260078301918254161790558360088201554260098201556104066011546126a7565b601255611264816010546123e7565b60105561127381600d54612622565b80600d55601355611282612881565b6014556003546001600160a01b031681816112a7575b5050604051908152a260018055005b6112d1917f000000000000000000000000000000000000000000000000000000000000000061262f565b8481611298565b60405163065b9bad60e31b8152600490fd5b3461024e575f36600319011261024e576003546040516001600160a01b039091168152602090f35b3461024e57602036600319011261024e5761132b6120a6565b6113336121b7565b6001600160a01b0316801561135e576bffffffffffffffffffffffff60a01b60035416176003555f80f35b60405163d92e233d60e01b8152600490fd5b3461024e57604036600319011261024e5761139561138c6120a6565b602435906128f5565b90610a5d604051928392151583526040602084015260408301906120f1565b3461024e575f36600319011261024e57602060ff600254166040519015158152f35b3461024e57602036600319011261024e5760606101006040516113f8816123f4565b5f81525f60208201525f60408201525f838201525f60808201525f60a08201525f60c08201525f60e082015201526004355f52600a60205260405f2060405190611441826123f4565b8054825260018101546020830152600281015460408301526003810154606083015260048101546080830152600581015460a0830152600681015460c083015260ff6007820154169060058210156104aa5760089160e08401520160405190815f8254926114ae846126cb565b80845293600181169081156115955750600114611551575b506114d392500382612482565b610100820190815260e0604051926020845280516020850152602081015160408501526040810151606085015260608101516080850152608081015160a085015260a081015160c085015260c081015182850152015160058110156104aa578291610a5d9161010084015251610120808401526101408301906120f1565b90505f9291925260205f20905f915b8183106115795750509060206114d392820101856114c6565b6020919350806001915483858801015201910190918392611560565b9050602092506114d394915060ff191682840152151560051b820101856114c6565b3461024e575f36600319011261024e576020600454604051908152f35b3461024e575f36600319011261024e576020610246612881565b3461024e575f36600319011261024e576116066125ff565b61160e6125e1565b335f52600b60205260405f20600481018054908115610c0d576020925f600592550161163b8282546123e7565b905561166881337f000000000000000000000000000000000000000000000000000000000000000061262f565b6040518181527f5e923fddabace65b8950e60d671ac078edf8496e67b78acade53bfbe8c0e60df833392a260018055604051908152f35b3461024e57602036600319011261024e576001600160a01b036116c06120a6565b165f52600b6020526020600460405f200154604051908152f35b3461024e57602036600319011261024e5760206116f86004356128b4565b6040519015158152f35b3461024e575f36600319011261024e5760206040517f7022b05f273dfb770d16ebe344b0b38e1ef7bac12120a5cebc324be6acf18fe18152f35b3461024e575f36600319011261024e5760025460405160089190911c6001600160a01b03168152602090f35b3461024e57602036600319011261024e57600435335f52600b60205260405f206001810154156117e7576201518091828102928184041490151715610bd55760036117b691019182546123e7565b8091556040519081527fe5d4b5c97a45cd2c590e17dd6dc2c0b1935d6c56701144a267f57b1a9f6779f460203392a2005b6040516378de4a6960e11b8152600490fd5b3461024e575f36600319011261024e576118116121b7565b60025460ff8116156118505760ff19166002557f5db9ee0a495bf2e6ff9c91a7834c1ba4fdd244a5e8aa4e537bd38aeae4b073aa6020604051338152a1005b604051638dfc202b60e01b8152600490fd5b3461024e576118846001611875366120d2565b929061187f6121b7565b6127a1565b0155005b3461024e57611896366120bc565b335f9081527f7b5c056481855e86b45d521b463f282b8d93ddeda237b5bb9b7e1acaeffe580d60209081526040909120549092907fdc893482d4fc475bd4e8d06ae17cff82859f84becb0b10caa014d9c960c999a59060ff16156109145750805f526009835260405f2054801561090257805f526008845260ff600760405f2001541660048110156104aa57610498576007549261193384612681565b60075560405190611943826123f4565b848252858201918483526040810193845260608101828152608082015f815260a0830142815260c08401915f835260e08501935f85526040519761198689612466565b5f895261010087019889528b5f52600a8d5260405f209651875551986001998a880155516002870155516003860155516004850155516005840155516006830155519060058210156104aa576119e1600892600783016126b3565b0191519081519267ffffffffffffffff84116108ee57838893611a0989966106f885546126cb565b8490601f8311600114611a6e577e16b36dc742e36d40c93764b5d2448ab23f153dbfde9a2e22261968924f511e9697839283925f94611a63575b50501b915f199060031b1c19161790555b604051908152a3604051908152f35b015192508c80611a43565b601f9792919719821697845f52865f20915f5b8a8110611ad75750837e16b36dc742e36d40c93764b5d2448ab23f153dbfde9a2e22261968924f511e999a10611abf575b505050811b019055611a54565b01515f1960f88460031b161c191690558a8080611ab2565b8183015184558c995092850192918801918801611a81565b3461024e57604036600319011261024e57611b08612090565b336001600160a01b03821603611b245761050c90600435612343565b60405163334bd91960e11b8152600490fd5b3461024e57604036600319011261024e5760043560249081359167ffffffffffffffff9081841161024e573660238501121561024e57836004013591821161024e573681838601011161024e57611b8b6121f0565b825f52602093600a855260405f2080541561113e57600781019081549160ff83166005811015611cef5761112c57600360089360ff191617905501611bda84611bd483546126cb565b83612703565b5f601f8511600114611c6157837f43cc3d080e025c67c26d62b18bd442511dc9c76c8aa3f48cc0e8f456173e61f196979386938460409781955f92611c54575b50508460011b905f198660031b1c19161790555b855196858896875286015201848401375f828201840152601f01601f19168101030190a2005b840101359050838c611c1a565b601f19851690825f52875f20915f5b818110611cd65750938693849360409793857f43cc3d080e025c67c26d62b18bd442511dc9c76c8aa3f48cc0e8f456173e61f19b9c9810611cbb575b5050600184811b019055611c2e565b83018401355f19600387901b60f8161c191690558a80611cac565b9192896001819289878a01013581550194019201611c70565b85634e487b7160e01b5f5260216004525ffd5b3461024e57604036600319011261024e5761050c600435611d21612090565b90805f525f602052611d39600160405f2001546122a6565b6122c7565b3461024e57602036600319011261024e57600435611d5a6125ff565b611d626125e1565b335f52600b60205260405f209060018201908154918183106117e75760038401544210611e9557600d5492611dad611da6611d9d86866123b6565b600e54906123c9565b8095612622565b60125480611e69575b505082611dd29186611dcb8760209954612622565b9055612622565b9055611de082600d54612622565b80600d55611df082600e54612622565b600e55601355611dfe612881565b601455611e2c82337f000000000000000000000000000000000000000000000000000000000000000061262f565b60405190815281838201527f7fc4727e062e336010f2c282598ef5f14facb3de68cf8195c2f23e1454b2b74e60403392a260018055604051908152f35b61271091828102928184041490151715610bd557611e86916123c9565b60045411610e65578580611db6565b604051630a68850160e11b8152600490fd5b3461024e57602036600319011261024e576004355f525f6020526020600160405f200154604051908152f35b3461024e575f36600319011261024e57610120604051611ef2816123f4565b5f81525f60208201525f60408201525f60608201525f60808201525f60a08201525f60c08201525f60e08201525f6101008092015260405190611f34826123f4565b600d5491828152600e5460208201908152600f546040830190815260105460608401908152601154608085019081526012549160a086019283526013549360c087019485526014549560e08801968752886015549801978852604051998a525160208a01525160408901525160608801525160808701525160a08601525160c08501525160e08401525190820152f35b3461024e575f36600319011261024e5760206040517f1c20ae0066ae315d077912ed82fa08bba9de3f706c44b38bc5868150a04b08ab8152f35b3461024e57602036600319011261024e5760206116f86004356127b8565b3461024e57602036600319011261024e576120356121b7565b600435600555005b3461024e57602036600319011261024e576004359063ffffffff60e01b821680920361024e57602091637965db0b60e01b811490811561207f575b5015158152f35b6301ffc9a760e01b14905083612078565b602435906001600160a01b038216820361024e57565b600435906001600160a01b038216820361024e57565b604090600319011261024e576004359060243590565b604090600319011261024e57600435600381101561024e579060243590565b91908251928382525f5b84811061211b575050825f602080949584010152601f8019910116010190565b6020818301810151848301820152016120fb565b9060038210156104aa5752565b91909161014081019280518252602081015160208301526121656040820151604084019061212f565b606081015160608301526080810151608083015260a081015160a083015260c081015160c083015260e081015160048110156104aa5760e0830152610100808201519083015261012080910151910152565b335f9081527fad3228b676f7d3cd4284a5443f17f1962b36e491b30a40b2405849e597ba5fb5602052604081205460ff16156109145750565b335f9081527f27196284162c27966ae7cf77ab78b3b6e8dede6c2999ddfc4b8bfd97443b66c360205260409020547f1c20ae0066ae315d077912ed82fa08bba9de3f706c44b38bc5868150a04b08ab9060ff16156109145750565b335f9081527f72d6ae785a9ad0235999cd793b09ef9c72e2cf2848fef4f918ffe83267e1699060205260409020547f7022b05f273dfb770d16ebe344b0b38e1ef7bac12120a5cebc324be6acf18fe19060ff16156109145750565b805f525f60205260405f20335f5260205260ff60405f205416156109145750565b905f9180835282602052604083209160018060a01b03169182845260205260ff604084205416155f1461233e57808352826020526040832082845260205260408320600160ff198254161790557f2f8788117e7eff1d82e926ec794901d17c78024a50270940304540a733656f0d339380a4600190565b505090565b905f9180835282602052604083209160018060a01b03169182845260205260ff6040842054165f1461233e5780835282602052604083208284526020526040832060ff1981541690557ff6391f5c32d9c69d2a47ea670b442974b53935d1edc7fd64eb21e047a839171b339380a4600190565b81810292918115918404141715610bd557565b81156123d3570490565b634e487b7160e01b5f52601260045260245ffd5b91908201809211610bd557565b610120810190811067ffffffffffffffff8211176108ee57604052565b610140810190811067ffffffffffffffff8211176108ee57604052565b6040810190811067ffffffffffffffff8211176108ee57604052565b60c0810190811067ffffffffffffffff8211176108ee57604052565b6020810190811067ffffffffffffffff8211176108ee57604052565b90601f8019910116810190811067ffffffffffffffff8211176108ee57604052565b60018060a01b0316905f80826020829451910182865af13d15612572573d9067ffffffffffffffff821161255e57906124ff91604051916124ef6020601f19601f8401160184612482565b82523d84602084013e5b8461257e565b90815191821515928361252f575b5050506125175750565b60249060405190635274afe760e01b82526004820152fd5b81929350906020918101031261255a57602001519081159182150361255757505f808061250d565b80fd5b5080fd5b634e487b7160e01b83526041600452602483fd5b6124ff906060906124f9565b906125a5575080511561259357805190602001fd5b604051630a12f52160e11b8152600490fd5b815115806125d8575b6125b6575090565b604051639996b31560e01b81526001600160a01b039091166004820152602490fd5b50803b156125ae565b60ff600254166125ed57565b60405163d93c066560e01b8152600490fd5b600260015414612610576002600155565b604051633ee5aeb560e01b8152600490fd5b91908203918211610bd557565b60405163a9059cbb60e01b60208201526001600160a01b039092166024830152604480830193909352918152608081019167ffffffffffffffff8311828410176108ee5761267f926040526124a4565b565b5f198114610bd55760010190565b60038210156104aa5752565b60048210156104aa5752565b8015610bd5575f190190565b9060058110156104aa5760ff80198354169116179055565b90600182811c921680156126f9575b60208310146126e557565b634e487b7160e01b5f52602260045260245ffd5b91607f16916126da565b90601f811161271157505050565b5f91825260208220906020601f850160051c8301941061274c575b601f0160051c01915b82811061274157505050565b818155600101612735565b909250829061272c565b6040519061276382612411565b816101205f918281528260208201528260408201528260608201528260808201528260a08201528260c08201528260e0820152826101008201520152565b60038110156104aa575f52600c60205260405f2090565b5f90815260096020526040812054801561287d5781526008602052604081206040516127e381612411565b815481526001820154602082015261280560ff6002840154166040830161268f565b6003820154606082015260048201546080820152600582015460a0820152600682015460c0820152610120600960ff6007850154169361284960e08501958661269b565b600881015461010085015201549101525190600482101561286957501590565b634e487b7160e01b81526021600452602490fd5b5090565b60125480156128ae57600d549061271091828102928184041490151715610bd5576128ab916123c9565b90565b505f1990565b6128c0906012546123e7565b80156128ef57600d549061271091828102928184041490151715610bd5576128e7916123c9565b600454111590565b50600190565b6001600160a01b03165f908152600b6020526040808220815191949391829061291d8161244a565b8254815260018301549081602082015260028401548882015260a060056003860154956060840196875260048101546080850152015491015210612a4257514210612a145761297c90612976611d9d600d5480936123b6565b90612622565b601254908161299b575b5050600192519061299682612466565b815290565b61271090818102918183041490151715612a0057906129b9916123c9565b600454116129c8575f80612986565b91516129d38161242e565b601a81527f576f756c6420627265616368207265736572766520726174696f000000000000602082015290565b634e487b7160e01b83526011600452602483fd5b509151612a208161242e565b601281527114dd185ad9481cdd1a5b1b081b1bd8dad95960721b602082015290565b50509151612a4f8161242e565b6013815272496e73756666696369656e742073686172657360681b602082015290565b600d548015612a9c57600f549061271091828102928184041490151715610bd5576128ab916123c9565b505f9056fea2646970667358221220d1408f022cafea7c3b89cc119cf102c4ef18e8c758edc33f37374ca06b676fa764736f6c634300081400332f8788117e7eff1d82e926ec794901d17c78024a50270940304540a733656f0d","linkReferences":{}},"methodIdentifiers":{"CLAIMS_APPROVER_ROLE()":"0cba2c54","CLAIMS_FILER_ROLE()":"c31b5e21","CLAIMS_PROCESSOR_ROLE()":"b3b95bbe","COVERAGE_MANAGER_ROLE()":"4ccc2800","DEFAULT_ADMIN_ROLE()":"a217fddf","approveClaim(uint256,uint256)":"7fbe658c","calculatePremium(uint8,uint256,uint256)":"95920a58","canPurchaseCoverage(uint256)":"4f0d6c53","canUnstake(address,uint256)":"5e598d12","cancelCoverage(uint256)":"d9df4ece","claimStakingYield()":"563fa978","extendLock(uint256)":"44ee3a1c","fileClaim(uint256,uint256)":"37e94726","getClaim(uint256)":"5aef2447","getCoverage(uint256)":"a7a44902","getCoverageByInvoice(uint256)":"76fed726","getMaxCoverage(uint8,uint256)":"cee71912","getPendingYield(address)":"537bb137","getPoolMetrics()":"1866509f","getReserveRatio()":"56b6d0d5","getRoleAdmin(bytes32)":"248a9ca3","getStakerAPY()":"f97642c1","getStakerPosition(address)":"e1e4063c","grantRole(bytes32,address)":"2f2ff15d","hasRole(bytes32,address)":"91d14854","invoiceToken()":"464b5391","isCovered(uint256)":"047a7acb","liquidityPool()":"665a11ca","minReserveRatio()":"5a596d1c","minStakeLockDays()":"a09cc578","pause()":"8456cb59","paused()":"5c975abb","processClaim(uint256)":"7257dfc9","processClaimDirect(uint256)":"c67a5f9d","purchaseCoverage(uint256,uint8,uint256)":"a2293b3e","rejectClaim(uint256,string)":"3577a5ad","renewCoverage(uint256,uint256)":"8738eff2","renounceRole(bytes32,address)":"36568abe","revokeRole(bytes32,address)":"d547741f","setLiquidityPoolAddress(address)":"63986aba","setMinReserveRatio(uint256)":"83685135","setMinStakeLockDays(uint256)":"0423a1d5","setPremiumRates(uint8,uint256)":"3ab6539c","stablecoin()":"e9cbd822","stake(uint256)":"a694fc3a","supportsInterface(bytes4)":"01ffc9a7","unpause()":"3f4ba83a","unstake(uint256)":"2e17de78"},"id":33}