{"abi":[{"type":"constructor","inputs":[],"stateMutability":"nonpayable"},{"type":"function","name":"BURNER_ROLE","inputs":[],"outputs":[{"name":"","type":"bytes32","internalType":"bytes32"}],"stateMutability":"view"},{"type":"function","name":"DEFAULT_ADMIN_ROLE","inputs":[],"outputs":[{"name":"","type":"bytes32","internalType":"bytes32"}],"stateMutability":"view"},{"type":"function","name":"MINTER_ROLE","inputs":[],"outputs":[{"name":"","type":"bytes32","internalType":"bytes32"}],"stateMutability":"view"},{"type":"function","name":"UPDATER_ROLE","inputs":[],"outputs":[{"name":"","type":"bytes32","internalType":"bytes32"}],"stateMutability":"view"},{"type":"function","name":"approve","inputs":[{"name":"to","type":"address","internalType":"address"},{"name":"tokenId","type":"uint256","internalType":"uint256"}],"outputs":[],"stateMutability":"nonpayable"},{"type":"function","name":"balanceOf","inputs":[{"name":"owner","type":"address","internalType":"address"}],"outputs":[{"name":"","type":"uint256","internalType":"uint256"}],"stateMutability":"view"},{"type":"function","name":"burn","inputs":[{"name":"tokenId","type":"uint256","internalType":"uint256"}],"outputs":[],"stateMutability":"nonpayable"},{"type":"function","name":"getApproved","inputs":[{"name":"tokenId","type":"uint256","internalType":"uint256"}],"outputs":[{"name":"","type":"address","internalType":"address"}],"stateMutability":"view"},{"type":"function","name":"getDaysOverdue","inputs":[{"name":"tokenId","type":"uint256","internalType":"uint256"}],"outputs":[{"name":"","type":"uint256","internalType":"uint256"}],"stateMutability":"view"},{"type":"function","name":"getDaysUntilDue","inputs":[{"name":"tokenId","type":"uint256","internalType":"uint256"}],"outputs":[{"name":"","type":"int256","internalType":"int256"}],"stateMutability":"view"},{"type":"function","name":"getInvoice","inputs":[{"name":"tokenId","type":"uint256","internalType":"uint256"}],"outputs":[{"name":"","type":"tuple","internalType":"struct InvoiceToken.InvoiceData","components":[{"name":"invoiceId","type":"uint256","internalType":"uint256"},{"name":"seller","type":"address","internalType":"address"},{"name":"buyerHash","type":"bytes32","internalType":"bytes32"},{"name":"invoiceNumber","type":"string","internalType":"string"},{"name":"faceValue","type":"uint256","internalType":"uint256"},{"name":"advanceAmount","type":"uint256","internalType":"uint256"},{"name":"feeAmount","type":"uint256","internalType":"uint256"},{"name":"issuedAt","type":"uint256","internalType":"uint256"},{"name":"dueDate","type":"uint256","internalType":"uint256"},{"name":"fundedAt","type":"uint256","internalType":"uint256"},{"name":"paidAt","type":"uint256","internalType":"uint256"},{"name":"riskScore","type":"uint256","internalType":"uint256"},{"name":"riskTier","type":"uint8","internalType":"enum InvoiceToken.RiskTier"},{"name":"documentHash","type":"bytes32","internalType":"bytes32"},{"name":"status","type":"uint8","internalType":"enum InvoiceToken.InvoiceStatus"}]}],"stateMutability":"view"},{"type":"function","name":"getInvoicesByOwner","inputs":[{"name":"owner","type":"address","internalType":"address"}],"outputs":[{"name":"","type":"uint256[]","internalType":"uint256[]"}],"stateMutability":"view"},{"type":"function","name":"getInvoicesBySeller","inputs":[{"name":"seller","type":"address","internalType":"address"}],"outputs":[{"name":"","type":"uint256[]","internalType":"uint256[]"}],"stateMutability":"view"},{"type":"function","name":"getInvoicesByStatus","inputs":[{"name":"status","type":"uint8","internalType":"enum InvoiceToken.InvoiceStatus"}],"outputs":[{"name":"","type":"uint256[]","internalType":"uint256[]"}],"stateMutability":"view"},{"type":"function","name":"getRoleAdmin","inputs":[{"name":"role","type":"bytes32","internalType":"bytes32"}],"outputs":[{"name":"","type":"bytes32","internalType":"bytes32"}],"stateMutability":"view"},{"type":"function","name":"grantRole","inputs":[{"name":"role","type":"bytes32","internalType":"bytes32"},{"name":"account","type":"address","internalType":"address"}],"outputs":[],"stateMutability":"nonpayable"},{"type":"function","name":"hasRole","inputs":[{"name":"role","type":"bytes32","internalType":"bytes32"},{"name":"account","type":"address","internalType":"address"}],"outputs":[{"name":"","type":"bool","internalType":"bool"}],"stateMutability":"view"},{"type":"function","name":"isApprovedForAll","inputs":[{"name":"owner","type":"address","internalType":"address"},{"name":"operator","type":"address","internalType":"address"}],"outputs":[{"name":"","type":"bool","internalType":"bool"}],"stateMutability":"view"},{"type":"function","name":"isInvoiceActive","inputs":[{"name":"tokenId","type":"uint256","internalType":"uint256"}],"outputs":[{"name":"","type":"bool","internalType":"bool"}],"stateMutability":"view"},{"type":"function","name":"mint","inputs":[{"name":"to","type":"address","internalType":"address"},{"name":"data","type":"tuple","internalType":"struct InvoiceToken.InvoiceData","components":[{"name":"invoiceId","type":"uint256","internalType":"uint256"},{"name":"seller","type":"address","internalType":"address"},{"name":"buyerHash","type":"bytes32","internalType":"bytes32"},{"name":"invoiceNumber","type":"string","internalType":"string"},{"name":"faceValue","type":"uint256","internalType":"uint256"},{"name":"advanceAmount","type":"uint256","internalType":"uint256"},{"name":"feeAmount","type":"uint256","internalType":"uint256"},{"name":"issuedAt","type":"uint256","internalType":"uint256"},{"name":"dueDate","type":"uint256","internalType":"uint256"},{"name":"fundedAt","type":"uint256","internalType":"uint256"},{"name":"paidAt","type":"uint256","internalType":"uint256"},{"name":"riskScore","type":"uint256","internalType":"uint256"},{"name":"riskTier","type":"uint8","internalType":"enum InvoiceToken.RiskTier"},{"name":"documentHash","type":"bytes32","internalType":"bytes32"},{"name":"status","type":"uint8","internalType":"enum InvoiceToken.InvoiceStatus"}]}],"outputs":[{"name":"","type":"uint256","internalType":"uint256"}],"stateMutability":"nonpayable"},{"type":"function","name":"name","inputs":[],"outputs":[{"name":"","type":"string","internalType":"string"}],"stateMutability":"view"},{"type":"function","name":"ownerOf","inputs":[{"name":"tokenId","type":"uint256","internalType":"uint256"}],"outputs":[{"name":"","type":"address","internalType":"address"}],"stateMutability":"view"},{"type":"function","name":"recordFunding","inputs":[{"name":"tokenId","type":"uint256","internalType":"uint256"},{"name":"advanceAmount","type":"uint256","internalType":"uint256"},{"name":"feeAmount","type":"uint256","internalType":"uint256"}],"outputs":[],"stateMutability":"nonpayable"},{"type":"function","name":"recordPayment","inputs":[{"name":"tokenId","type":"uint256","internalType":"uint256"},{"name":"amount","type":"uint256","internalType":"uint256"}],"outputs":[],"stateMutability":"nonpayable"},{"type":"function","name":"renounceRole","inputs":[{"name":"role","type":"bytes32","internalType":"bytes32"},{"name":"callerConfirmation","type":"address","internalType":"address"}],"outputs":[],"stateMutability":"nonpayable"},{"type":"function","name":"revokeRole","inputs":[{"name":"role","type":"bytes32","internalType":"bytes32"},{"name":"account","type":"address","internalType":"address"}],"outputs":[],"stateMutability":"nonpayable"},{"type":"function","name":"safeTransferFrom","inputs":[{"name":"from","type":"address","internalType":"address"},{"name":"to","type":"address","internalType":"address"},{"name":"tokenId","type":"uint256","internalType":"uint256"}],"outputs":[],"stateMutability":"nonpayable"},{"type":"function","name":"safeTransferFrom","inputs":[{"name":"from","type":"address","internalType":"address"},{"name":"to","type":"address","internalType":"address"},{"name":"tokenId","type":"uint256","internalType":"uint256"},{"name":"data","type":"bytes","internalType":"bytes"}],"outputs":[],"stateMutability":"nonpayable"},{"type":"function","name":"setApprovalForAll","inputs":[{"name":"operator","type":"address","internalType":"address"},{"name":"approved","type":"bool","internalType":"bool"}],"outputs":[],"stateMutability":"nonpayable"},{"type":"function","name":"setMinter","inputs":[{"name":"account","type":"address","internalType":"address"},{"name":"isMinter","type":"bool","internalType":"bool"}],"outputs":[],"stateMutability":"nonpayable"},{"type":"function","name":"setUpdater","inputs":[{"name":"account","type":"address","internalType":"address"},{"name":"isUpdater","type":"bool","internalType":"bool"}],"outputs":[],"stateMutability":"nonpayable"},{"type":"function","name":"supportsInterface","inputs":[{"name":"interfaceId","type":"bytes4","internalType":"bytes4"}],"outputs":[{"name":"","type":"bool","internalType":"bool"}],"stateMutability":"view"},{"type":"function","name":"symbol","inputs":[],"outputs":[{"name":"","type":"string","internalType":"string"}],"stateMutability":"view"},{"type":"function","name":"tokenByIndex","inputs":[{"name":"index","type":"uint256","internalType":"uint256"}],"outputs":[{"name":"","type":"uint256","internalType":"uint256"}],"stateMutability":"view"},{"type":"function","name":"tokenOfOwnerByIndex","inputs":[{"name":"owner","type":"address","internalType":"address"},{"name":"index","type":"uint256","internalType":"uint256"}],"outputs":[{"name":"","type":"uint256","internalType":"uint256"}],"stateMutability":"view"},{"type":"function","name":"tokenURI","inputs":[{"name":"tokenId","type":"uint256","internalType":"uint256"}],"outputs":[{"name":"","type":"string","internalType":"string"}],"stateMutability":"view"},{"type":"function","name":"totalSupply","inputs":[],"outputs":[{"name":"","type":"uint256","internalType":"uint256"}],"stateMutability":"view"},{"type":"function","name":"transferFrom","inputs":[{"name":"from","type":"address","internalType":"address"},{"name":"to","type":"address","internalType":"address"},{"name":"tokenId","type":"uint256","internalType":"uint256"}],"outputs":[],"stateMutability":"nonpayable"},{"type":"function","name":"updateStatus","inputs":[{"name":"tokenId","type":"uint256","internalType":"uint256"},{"name":"newStatus","type":"uint8","internalType":"enum InvoiceToken.InvoiceStatus"}],"outputs":[],"stateMutability":"nonpayable"},{"type":"event","name":"Approval","inputs":[{"name":"owner","type":"address","indexed":true,"internalType":"address"},{"name":"approved","type":"address","indexed":true,"internalType":"address"},{"name":"tokenId","type":"uint256","indexed":true,"internalType":"uint256"}],"anonymous":false},{"type":"event","name":"ApprovalForAll","inputs":[{"name":"owner","type":"address","indexed":true,"internalType":"address"},{"name":"operator","type":"address","indexed":true,"internalType":"address"},{"name":"approved","type":"bool","indexed":false,"internalType":"bool"}],"anonymous":false},{"type":"event","name":"InvoiceBurned","inputs":[{"name":"tokenId","type":"uint256","indexed":true,"internalType":"uint256"}],"anonymous":false},{"type":"event","name":"InvoiceFunded","inputs":[{"name":"tokenId","type":"uint256","indexed":true,"internalType":"uint256"},{"name":"advanceAmount","type":"uint256","indexed":false,"internalType":"uint256"},{"name":"feeAmount","type":"uint256","indexed":false,"internalType":"uint256"}],"anonymous":false},{"type":"event","name":"InvoiceMinted","inputs":[{"name":"tokenId","type":"uint256","indexed":true,"internalType":"uint256"},{"name":"seller","type":"address","indexed":true,"internalType":"address"},{"name":"faceValue","type":"uint256","indexed":false,"internalType":"uint256"},{"name":"dueDate","type":"uint256","indexed":false,"internalType":"uint256"}],"anonymous":false},{"type":"event","name":"InvoicePaymentReceived","inputs":[{"name":"tokenId","type":"uint256","indexed":true,"internalType":"uint256"},{"name":"amount","type":"uint256","indexed":false,"internalType":"uint256"}],"anonymous":false},{"type":"event","name":"InvoiceStatusUpdated","inputs":[{"name":"tokenId","type":"uint256","indexed":true,"internalType":"uint256"},{"name":"oldStatus","type":"uint8","indexed":false,"internalType":"enum InvoiceToken.InvoiceStatus"},{"name":"newStatus","type":"uint8","indexed":false,"internalType":"enum InvoiceToken.InvoiceStatus"}],"anonymous":false},{"type":"event","name":"RoleAdminChanged","inputs":[{"name":"role","type":"bytes32","indexed":true,"internalType":"bytes32"},{"name":"previousAdminRole","type":"bytes32","indexed":true,"internalType":"bytes32"},{"name":"newAdminRole","type":"bytes32","indexed":true,"internalType":"bytes32"}],"anonymous":false},{"type":"event","name":"RoleGranted","inputs":[{"name":"role","type":"bytes32","indexed":true,"internalType":"bytes32"},{"name":"account","type":"address","indexed":true,"internalType":"address"},{"name":"sender","type":"address","indexed":true,"internalType":"address"}],"anonymous":false},{"type":"event","name":"RoleRevoked","inputs":[{"name":"role","type":"bytes32","indexed":true,"internalType":"bytes32"},{"name":"account","type":"address","indexed":true,"internalType":"address"},{"name":"sender","type":"address","indexed":true,"internalType":"address"}],"anonymous":false},{"type":"event","name":"Transfer","inputs":[{"name":"from","type":"address","indexed":true,"internalType":"address"},{"name":"to","type":"address","indexed":true,"internalType":"address"},{"name":"tokenId","type":"uint256","indexed":true,"internalType":"uint256"}],"anonymous":false},{"type":"error","name":"AccessControlBadConfirmation","inputs":[]},{"type":"error","name":"AccessControlUnauthorizedAccount","inputs":[{"name":"account","type":"address","internalType":"address"},{"name":"neededRole","type":"bytes32","internalType":"bytes32"}]},{"type":"error","name":"ERC721EnumerableForbiddenBatchMint","inputs":[]},{"type":"error","name":"ERC721IncorrectOwner","inputs":[{"name":"sender","type":"address","internalType":"address"},{"name":"tokenId","type":"uint256","internalType":"uint256"},{"name":"owner","type":"address","internalType":"address"}]},{"type":"error","name":"ERC721InsufficientApproval","inputs":[{"name":"operator","type":"address","internalType":"address"},{"name":"tokenId","type":"uint256","internalType":"uint256"}]},{"type":"error","name":"ERC721InvalidApprover","inputs":[{"name":"approver","type":"address","internalType":"address"}]},{"type":"error","name":"ERC721InvalidOperator","inputs":[{"name":"operator","type":"address","internalType":"address"}]},{"type":"error","name":"ERC721InvalidOwner","inputs":[{"name":"owner","type":"address","internalType":"address"}]},{"type":"error","name":"ERC721InvalidReceiver","inputs":[{"name":"receiver","type":"address","internalType":"address"}]},{"type":"error","name":"ERC721InvalidSender","inputs":[{"name":"sender","type":"address","internalType":"address"}]},{"type":"error","name":"ERC721NonexistentToken","inputs":[{"name":"tokenId","type":"uint256","internalType":"uint256"}]},{"type":"error","name":"ERC721OutOfBoundsIndex","inputs":[{"name":"owner","type":"address","internalType":"address"},{"name":"index","type":"uint256","internalType":"uint256"}]},{"type":"error","name":"InvalidAmount","inputs":[]},{"type":"error","name":"InvalidDueDate","inputs":[]},{"type":"error","name":"InvalidInvoiceData","inputs":[]},{"type":"error","name":"InvalidStatusTransition","inputs":[]},{"type":"error","name":"InvoiceAlreadyFunded","inputs":[]},{"type":"error","name":"InvoiceNotBurnable","inputs":[]},{"type":"error","name":"InvoiceNotFound","inputs":[]},{"type":"error","name":"InvoiceNotFunded","inputs":[]},{"type":"error","name":"NotAuthorized","inputs":[]},{"type":"error","name":"ZeroAddress","inputs":[]}],"bytecode":{"object":"0x6080346200031a576001600160401b03906040908082018381118282101762000306578252600e81526020926d24b73b37b4b1b2ac102a37b5b2b760911b848301528251838101818110838211176200030657845260048152630929cacb60e31b8582015282519082821162000306575f8054926001958685811c95168015620002fb575b89861014620002e7578190601f9586811162000294575b5089908683116001146200023157849262000225575b50505f19600383901b1c191690861b1781555b8151938411620002115784548581811c9116801562000206575b88821014620001f257838111620001aa575b5086928411600114620001455783949596509262000139575b50505f19600383901b1c191690821b1781555b62000127336200031e565b50600b5551612c559081620003b08239f35b015190505f8062000109565b9190601f1984169685845280842093905b88821062000192575050838596971062000179575b505050811b0181556200011c565b01515f1960f88460031b161c191690555f80806200016b565b80878596829496860151815501950193019062000156565b8582528782208480870160051c8201928a8810620001e8575b0160051c019086905b828110620001dc575050620000f0565b838155018690620001cc565b92508192620001c3565b634e487b7160e01b82526022600452602482fd5b90607f1690620000de565b634e487b7160e01b81526041600452602490fd5b015190505f80620000b1565b8480528a85208994509190601f198416865b8d8282106200027d575050841162000264575b505050811b018155620000c4565b01515f1960f88460031b161c191690555f808062000256565b8385015186558c9790950194938401930162000243565b9091508380528984208680850160051c8201928c8610620002dd575b918a91869594930160051c01915b828110620002ce5750506200009b565b8681558594508a9101620002be565b92508192620002b0565b634e487b7160e01b83526022600452602483fd5b94607f169462000084565b634e487b7160e01b5f52604160045260245ffd5b5f80fd5b6001600160a01b03165f8181527f13da86008ba1c6922daee3e07db95305ef49ebced9f5467a0b8613fcc6b343e3602052604081205490919060ff16620003ab57818052600a6020526040822081835260205260408220600160ff1982541617905533917f2f8788117e7eff1d82e926ec794901d17c78024a50270940304540a733656f0d8180a4600190565b509056fe6080806040526004361015610012575f80fd5b5f3560e01c90816301ffc9a714611e1b5750806306fdde0314611d7b578063081812fc14611d3f578063095ea7b314611c5e5780630b879bc214611b5757806318160ddd14611b3a5780631a15339114611a7c57806323b872dd14611a65578063248a9ca314611a38578063282c51f3146119fe57806328e84a50146112b05780632f2ff15d146112735780632f745c591461124c57806336568abe146112055780633a1b3d31146111215780633a23cc0a14610e475780633c195e5214610da057806342842e0e14610d7357806342966c6814610a6357806347e6338014610a3c5780634f6ccce7146109e75780636352211e146109b757806370a082311461099457806373114f3c1461092757806391d14854146108de57806395d89b4114610802578063a217fddf146107e8578063a22cb4651461075a578063b2e3dff3146106cf578063b88d4fde1461063c578063bf8129d2146104db578063c87b56dd1461048a578063c9074b1f14610464578063cf456ae714610394578063d53913931461036d578063d547741f1461032e578063e985e9c5146102dc578063ed09c922146102595763f80db812146101c9575f80fd5b34610255576020366003190112610255576004355f818152600260205260409020546001600160a01b031615610243575f52600c602052600860405f200154428103905f421281831281169183139015161761022f576020906201518060405191058152f35b634e487b7160e01b5f52601160045260245ffd5b604051634d5c803960e11b8152600490fd5b5f80fd5b3461025557602080600319360112610255576001600160a01b0361027b611ef8565b165f52600d815260405f209060405190818184549182815201935f52815f20915f905b8282106102c5576102c1856102b58189038261201c565b60405191829182611f95565b0390f35b83548652948501946001938401939091019061029e565b34610255576040366003190112610255576102f5611ef8565b6102fd611f0e565b9060018060a01b038091165f52600560205260405f2091165f52602052602060ff60405f2054166040519015158152f35b346102555760403660031901126102555761036b60043561034d611f0e565b90805f52600a602052610366600160405f2001546120db565b6123df565b005b34610255575f3660031901126102555760206040515f80516020612c008339815191528152f35b34610255576103a236611f24565b6103aa6120a2565b6001600160a01b038216156104525715610408575f80516020612c008339815191525f52600a6020527faa1d7351356c4ddc11907b1ee0660f579cfdf507235af2ae01ecd22a4b7ceaaf5461036b9190610403906120db565b61219c565b5f80516020612c008339815191525f52600a6020527faa1d7351356c4ddc11907b1ee0660f579cfdf507235af2ae01ecd22a4b7ceaaf5461036b919061044d906120db565b612347565b60405163d92e233d60e01b8152600490fd5b346102555760203660031901126102555760206104826004356129f3565b604051908152f35b34610255576020366003190112610255576104a660043561274c565b505f6040516104b481612000565b526102c16040516104c481612000565b5f8152604051918291602083526020830190611eba565b34610255576060366003190112610255576004356024356044356104fd61205a565b5f838152600260205260409020546001600160a01b03161561024357825f52600c60205260405f206009810190815461062a57831561061857600e91846005830155836006830155429055019182549160ff8316600a811015610604577f31d968a05e67a936053f2caf57c0c4d9cd94dbdc81149d1b860eeab3c26dc7319460409482600289941461059b575b5050505082519182526020820152a2005b7fe458c766c0212887eab3adea9962bd8363396dcb3ed18049549c27a24b33eee9926003889360ff19161790556105d28482612b4e565b60035f52600e6020526105e784835f206129a1565b6105f382518092611f88565b60036020820152a28486808061058a565b634e487b7160e01b5f52602160045260245ffd5b60405163162908e360e11b8152600490fd5b604051639c20501360e01b8152600490fd5b3461025557608036600319011261025557610655611ef8565b61065d611f0e565b906044356064359267ffffffffffffffff841161025557366023850112156102555783600401359261068e8461203e565b9361069c604051958661201c565b8085523660248288010111610255576020815f92602461036b990183890137860101526106ca8383836124c2565b61276e565b34610255576020366003190112610255576004355f818152600260205260409020546001600160a01b031615610243575f52600c60205260ff600e60405f20015416600a81101580610604576005821415908161074d575b8161073a575b6020826040519015158152f35b905061060457600760209114158261072d565b505060098114155f610727565b346102555761076836611f24565b6001600160a01b039091169081156107cf57335f52600560205260405f20825f5260205260405f209015159060ff1981541660ff83161790556040519081527f17307eab39ab6107e8899845ad3d59bd9653f200f220920489ca2b5937696c3160203392a3005b604051630b61174360e31b815260048101839052602490fd5b34610255575f3660031901126102555760206040515f8152f35b34610255575f366003190112610255576040515f60018054906108248261248a565b808552918181169081156108b7575060011461085f575b6102c18461084b8186038261201c565b604051918291602083526020830190611eba565b5f81815292507fb10e2d527612073b26eecdfd717e6a320cf44b4afac2b0732d9fcbe2b7fa0cf65b82841061089f57505050810160200161084b8261083b565b80546020858701810191909152909301928101610887565b60ff191660208087019190915292151560051b8501909201925061084b915083905061083b565b34610255576040366003190112610255576108f7611f0e565b6004355f52600a60205260405f209060018060a01b03165f52602052602060ff60405f2054166040519015158152f35b346102555760208060031936011261025557600435600a8110156102555761094e906129c4565b9060405190818184549182815201935f52815f20915f905b82821061097d576102c1856102b58189038261201c565b835486529485019460019384019390910190610966565b346102555760203660031901126102555760206104826109b2611ef8565b612454565b346102555760203660031901126102555760206109d560043561274c565b6040516001600160a01b039091168152f35b3461025557602036600319011261025557600435600854811015610a1e57610a10602091612910565b90546040519160031b1c8152f35b6044906040519063295f44f760e21b82525f60048301526024820152fd5b34610255575f3660031901126102555760206040515f80516020612be08339815191528152f35b3461025557602080600319360112610255576004355f818152600260205260409020549091906001600160a01b03161561024357815f52600c815260ff600e60405f20015416600a8110156106045760058114159081610d67575b50610d55577f3c11d16cbaffd01df69ce1c404f6340ee057498f5f00246190ea54220576a8485f52600a815260405f20335f52815260ff60405f2054161580610d3a575b610d2857817fd20dd6615233f6ea374fecbfd548d1c1666cf4b91a97fd0a457a43b03ae37cad5f80a25f8281526002825260409020546001600160a01b031680159190821580610cf7575b5f858152600284526040812080546001600160a01b03191690558590837fddf252ad1be2c89b69c2b068fc378daa952ba7f163c4a11628f55a4df523b3ef8280a48315610c6d575050600854835f526009825260405f2055610bae8361297c565b6008545f199182820191821161022f57600990855f52818152610bd560405f205493612910565b90549060031b1c610c0181610be986612910565b90919082549060031b91821b915f19901b1916179055565b5f525260405f2055825f525f60408120556008548015610c595701610c38610c2882612910565b8154905f199060031b1b19169055565b600855610c4157005b60249060405190637e27328960e01b82526004820152fd5b634e487b7160e01b5f52603160045260245ffd5b610c78575b50610bae565b610c8181612454565b90845f526007835260405f2054828103610cbb575b50845f525f60408120555f526006825260405f20905f5281525f604081205583610c72565b815f526006845260405f20835f52845260405f2054825f526006855260405f20825f5285528060405f20555f526007845260405f205585610c96565b5f8581526004602052604080822080546001600160a01b031916905583825260038552902080545f19019055610b4d565b60405163ea8e4eb560e01b8152600490fd5b50336001600160a01b03610d4d8461274c565b161415610b02565b604051636f0baebb60e01b8152600490fd5b60099150141583610abe565b346102555761036b610d8436611f53565b9060405192610d9284612000565b5f84526106ca8383836124c2565b346102555760208060031936011261025557610dba611ef8565b90610dc482612454565b90610dce826129db565b92610ddc604051948561201c565b828452601f19610deb846129db565b0136838601375f5b838110610e0857604051806102c18782611f95565b610e1281836128b4565b908551811015610e3357610e2e91848260051b8801015261296e565b610df3565b634e487b7160e01b5f52603260045260245ffd5b34610255576020366003190112610255576004355f6101c0604051610e6b81611fcf565b8281528260208201528260408201526060808201528260808201528260a08201528260c08201528260e08201528261010082015282610120820152826101408201528261016082015282610180820152826101a08201520152610ee1815f52600260205260018060a01b0360405f205416151590565b15610243575f52600c60205260405f2060405190610efe82611fcf565b8054825260018101546001600160a01b031660208301526002810154604080840191909152516003820154815f610f348361248a565b808352926001811690811561110257506001146110be575b610f589250038261201c565b606083015260048101546080830152600581015460a0830152600681015460c0830152600781015460e083015260088101546101008301526009810154610120830152600a810154610140830152600b81015461016083015260ff600c82015416600381101561060457610180830152600d8101546101a0830152600e015460ff16600a811015610604576101c082015260405190602082528051602083015260018060a01b0360208201511660408301526040810151606083015261102f60608201516101e06080850152610200840190611eba565b608082015160a084015260a082015160c084015260c082015160e084015260e0820151610100840152610100820151610120840152610120820151610140840152610140820151610160840152610160820151610180840152610180820151916003831015610604576101c06102c19185946101a08601526101a08101518286015201516101e0840190611f88565b5090600384015f5260205f20905f915b8183106110e6575050906020610f5892820101610f4c565b60209193508060019154838588010152019101909183926110ce565b60209250610f5894915060ff191682840152151560051b820101610f4c565b3461025557604036600319011261025557600435602435600a8110156102555761114961205a565b5f828152600260205260409020546001600160a01b03161561024357815f52600c602052600e60405f20019060ff8254166111848282612a3d565b156111f3576111f06040927fe458c766c0212887eab3adea9962bd8363396dcb3ed18049549c27a24b33eee9946111bb8785612b4e565b60ff1981541660ff83161790556111da866111d5836129c4565b6129a1565b6111e684518094611f88565b6020830190611f88565ba2005b60405163088bd32360e11b8152600490fd5b346102555760403660031901126102555761121e611f0e565b336001600160a01b0382160361123a5761036b906004356123df565b60405163334bd91960e11b8152600490fd5b3461025557604036600319011261025557602061048261126a611ef8565b602435906128b4565b346102555760403660031901126102555761036b600435611292611f0e565b90805f52600a6020526112ab600160405f2001546120db565b612236565b3461025557600319604036820112610255576112ca611ef8565b67ffffffffffffffff8060243511610255576101e060243536039384011261025557335f9081527faa1d7351356c4ddc11907b1ee0660f579cfdf507235af2ae01ecd22a4b7ceaae60205260409020545f80516020612c008339815191529060ff16156119e057506001600160a01b03821615610452576001600160a01b03611356602480350161295a565b16156104525760846024350135156106185742610104602435013511156119ce57600b54926113848461296e565b600b55835f52600c60205260405f20918483556113a4602480350161295a565b6001840180546001600160a01b0319166001600160a01b03909216919091179055602435604481013560028501556064013591602219018212156102555760048260243501013511610255576024803582016004810135360391011361025557611411600383015461248a565b601f811161197a575b505f601f600483602435010135116001146118e6575f906004836024350101356118d5575b5060048260243501013560011b9160045f199160243501013560031b1c19161760038201555b602435608481013560048301555f60058301819055600683015560e4013580156118ce575b6007820155610104602435013560088201555f60098201555f600a8201556101646024350135600b82015560036101846024350135101561025557600c810180546024803561018481013560ff1660ff19938416179093556101a4830135600d850155600e93909301805490911690556001600160a01b039161150d910161295a565b165f52600d6020526115228260405f206129a1565b5f8052600e602052611554827fe710864318d4a32f37d6ce54cb3fadbef648dd12d8dbdf53973564d56b7f881c6129a1565b60405161156081612000565b5f808252838152600260205260409020546001600160a01b03168015801591908261189b575b6001600160a01b0385165f818152600360209081526040808320805460010190558983526002909152812080546001600160a01b0319168317905587919084907fddf252ad1be2c89b69c2b068fc378daa952ba7f163c4a11628f55a4df523b3ef9080a41561181457600854855f52600960205260405f20556116088561297c565b6001600160a01b038416036117ce575b6117b657813b611680575b6020836001600160a01b0361163b602480350161295a565b16817f881b3356c91302df3b86b06710c720259f76e5c4696c76b0b21a3e73998a38b760408051608460243501358152610104602435013587820152a3604051908152f35b604051602081806116b9630a85bd0160e11b958683523360048401525f6024840152886044840152608060648401526084830190611eba565b03815f6001600160a01b0388165af15f9181611771575b5061173757823d1561172f573d906116e78261203e565b916116f5604051938461201c565b82523d5f602084013e5b8151918261172857604051633250574960e11b81526001600160a01b0383166004820152602490fd5b9050602001fd5b6060906116ff565b6001600160e01b0319160361174f5750602082611623565b604051633250574960e11b81526001600160a01b039091166004820152602490fd5b9091506020813d6020116117ae575b8161178d6020938361201c565b8101031261025557516001600160e01b0319811681036102555790856116d0565b3d9150611780565b6040516339e3563760e11b81525f6004820152602490fd5b6117d783612454565b5f19810190811161022f5760018060a01b0384165f52600660205260405f20815f526020528460405f2055845f52600760205260405f2055611618565b6001600160a01b03841681146116085761182d81612454565b855f52600760205260405f2054818103611869575b50855f525f6040812055815f52600660205260405f20905f526020525f6040812055611608565b5f8381526006602090815260408083208584528252808320548484528184208190558352600790915290205586611842565b5f86815260046020526040902080546001600160a01b0319169055815f52600360205260405f205f198154019055611586565b504261148a565b60249150828235010101358561143f565b600383015f5260205f20905f5b602435840160040135601f1916811061195c575060019260049290916024358301840135601f19811610611937575b5050602435010135811b016003820155611465565b60245f1960f88686843501013560031b161c1991848235010101351690558680611922565b909160206001819260248688823501010135815501930191016118f3565b600383015f5260205f20601f6004846024350101350160051c81016020600485602435010135106119c7575b601f830160051c820181106119bc57505061141a565b5f81556001016119a6565b50806119a6565b60405163a1ff8dcd60e01b8152600490fd5b6044906040519063e2517d3f60e01b82523360048301526024820152fd5b34610255575f3660031901126102555760206040517f3c11d16cbaffd01df69ce1c404f6340ee057498f5f00246190ea54220576a8488152f35b34610255576020366003190112610255576004355f52600a6020526020600160405f200154604051908152f35b346102555761036b611a7636611f53565b916124c2565b3461025557611a8a36611f24565b611a926120a2565b6001600160a01b038216156104525715611af0575f80516020612be08339815191525f52600a6020527f297346395254270af57a65858cca8e404d9824517d5b360c2499cef823e1a62b5461036b9190611aeb906120db565b6120fd565b5f80516020612be08339815191525f52600a6020527f297346395254270af57a65858cca8e404d9824517d5b360c2499cef823e1a62b5461036b9190611b35906120db565b6122af565b34610255575f366003190112610255576020600854604051908152f35b3461025557604036600319011261025557600435602435611b7661205a565b5f828152600260205260409020546001600160a01b03161561024357815f52600c60205260405f20600981015415611c4c578115610618577fe458c766c0212887eab3adea9962bd8363396dcb3ed18049549c27a24b33eee991837f1aad9d9a33ed4a754eba019dbf8706c78d03e9085d8c68b45e63a427ae25b14d6020600e60409542600a8201550193845494600460ff87169660ff1916179055611c1c8486612b4e565b60045f52600e8252611c3084875f206129a1565b8551908152a2611c4282518092611f88565b60046020820152a2005b604051633503443760e01b8152600490fd5b3461025557604036600319011261025557611c77611ef8565b602435611c838161274c565b33151580611d2c575b80611d03575b611ceb576001600160a01b039283169282918491167f8c5be1e5ebec7d5bd14f71427d1e84f3dd0314c0f7b2291e5b200ac8c7c3b9255f80a45f90815260046020526040902080546001600160a01b0319169091179055005b60405163a9fbf51f60e01b8152336004820152602490fd5b5060018060a01b0381165f52600560205260405f20335f5260205260ff60405f20541615611c92565b506001600160a01b038116331415611c8c565b3461025557602036600319011261025557600435611d5c8161274c565b505f526004602052602060018060a01b0360405f205416604051908152f35b34610255575f366003190112610255576040515f8054611d9a8161248a565b808452906001908181169081156108b75750600114611dc3576102c18461084b8186038261201c565b5f80805292507f290decd9548b62a8d60345a988386fc84ba6bc95484008f6362f93160ef3e5635b828410611e0357505050810160200161084b8261083b565b80546020858701810191909152909301928101611deb565b34610255576020366003190112610255576004359063ffffffff60e01b821680920361025557602091637965db0b60e01b8114908115611e5d575b5015158152f35b63780e9d6360e01b811491508115611e77575b5083611e56565b6380ac58cd60e01b811491508115611ea9575b8115611e98575b5083611e70565b6301ffc9a760e01b14905083611e91565b635b5e139f60e01b81149150611e8a565b91908251928382525f5b848110611ee4575050825f602080949584010152601f8019910116010190565b602081830181015184830182015201611ec4565b600435906001600160a01b038216820361025557565b602435906001600160a01b038216820361025557565b6040906003190112610255576004356001600160a01b0381168103610255579060243580151581036102555790565b6060906003190112610255576001600160a01b0390600435828116810361025557916024359081168103610255579060443590565b90600a8210156106045752565b602090816040818301928281528551809452019301915f5b828110611fbb575050505090565b835185529381019392810192600101611fad565b6101e0810190811067ffffffffffffffff821117611fec57604052565b634e487b7160e01b5f52604160045260245ffd5b6020810190811067ffffffffffffffff821117611fec57604052565b90601f8019910116810190811067ffffffffffffffff821117611fec57604052565b67ffffffffffffffff8111611fec57601f01601f191660200190565b335f9081527f297346395254270af57a65858cca8e404d9824517d5b360c2499cef823e1a62a60205260409020545f80516020612be08339815191529060ff16156119e05750565b335f9081527f13da86008ba1c6922daee3e07db95305ef49ebced9f5467a0b8613fcc6b343e3602052604081205460ff16156119e05750565b805f52600a60205260405f20335f5260205260ff60405f205416156119e05750565b6001600160a01b03165f8181527f297346395254270af57a65858cca8e404d9824517d5b360c2499cef823e1a62a60205260408120549091905f80516020612be08339815191529060ff1661219757808352600a6020526040832082845260205260408320600160ff198254161790557f2f8788117e7eff1d82e926ec794901d17c78024a50270940304540a733656f0d339380a4600190565b505090565b6001600160a01b03165f8181527faa1d7351356c4ddc11907b1ee0660f579cfdf507235af2ae01ecd22a4b7ceaae60205260408120549091905f80516020612c008339815191529060ff1661219757808352600a6020526040832082845260205260408320600160ff198254161790557f2f8788117e7eff1d82e926ec794901d17c78024a50270940304540a733656f0d339380a4600190565b905f91808352600a602052604083209160018060a01b03169182845260205260ff604084205416155f1461219757808352600a6020526040832082845260205260408320600160ff198254161790557f2f8788117e7eff1d82e926ec794901d17c78024a50270940304540a733656f0d339380a4600190565b6001600160a01b03165f8181527f297346395254270af57a65858cca8e404d9824517d5b360c2499cef823e1a62a60205260408120549091905f80516020612be08339815191529060ff161561219757808352600a602052604083208284526020526040832060ff1981541690557ff6391f5c32d9c69d2a47ea670b442974b53935d1edc7fd64eb21e047a839171b339380a4600190565b6001600160a01b03165f8181527faa1d7351356c4ddc11907b1ee0660f579cfdf507235af2ae01ecd22a4b7ceaae60205260408120549091905f80516020612c008339815191529060ff161561219757808352600a602052604083208284526020526040832060ff1981541690557ff6391f5c32d9c69d2a47ea670b442974b53935d1edc7fd64eb21e047a839171b339380a4600190565b905f91808352600a602052604083209160018060a01b03169182845260205260ff6040842054165f1461219757808352600a602052604083208284526020526040832060ff1981541690557ff6391f5c32d9c69d2a47ea670b442974b53935d1edc7fd64eb21e047a839171b339380a4600190565b6001600160a01b03168015612472575f52600360205260405f205490565b6040516322718ad960e21b81525f6004820152602490fd5b90600182811c921680156124b8575b60208310146124a457565b634e487b7160e01b5f52602260045260245ffd5b91607f1691612499565b6001600160a01b0382811693918415612734575f948386526020956002875260409684888320541696331515806126a6575b5087158015612675575b84845260038352898420805460010190558784526002835289842080546001600160a01b0319168617905587858a7fddf252ad1be2c89b69c2b068fc378daa952ba7f163c4a11628f55a4df523b3ef8780a4156125f957600854878452600983528984205561256c8761297c565b8388036125a8575b5050505016928383036125875750505050565b6064945051926364283d7b60e01b8452600484015260248301526044820152fd5b6125b190612454565b5f198101939084116125e55782916007918a945260068152838320858452815287848420558783525220555f808080612574565b634e487b7160e01b83526011600452602483fd5b87841461256c5761260988612454565b878452600783528984205481810361263e575b50878452838a812055888452600683528984209084528252828981205561256c565b898552600684528a852082865284528a8520548a8652600685528b86208287528552808c8720558552600784528a8520555f61261c565b5f88815260046020526040902080546001600160a01b03191690558884526003835289842080545f190190556124fe565b806126f3575b156126b7575f6124f4565b8887896126d4576024915190637e27328960e01b82526004820152fd5b905163177e802f60e01b81523360048201526024810191909152604490fd5b503388148015612718575b806126ac57508683526004825233868a85205416146126ac565b5087835260058252888320338452825260ff89842054166126fe565b604051633250574960e11b81525f6004820152602490fd5b5f818152600260205260409020546001600160a01b0316908115610c41575090565b813b61277b575b50505050565b604051630a85bd0160e11b8082523360048301526001600160a01b039283166024830152604482019490945260806064820152602095929091169390929083906127c9906084830190611eba565b039285815f958187895af1849181612870575b5061283b575050503d5f14612833573d6127f58161203e565b90612803604051928361201c565b81528091843d92013e5b8051928361282e57604051633250574960e11b815260048101849052602490fd5b019050fd5b50606061280d565b919450915063ffffffff60e01b160361285857505f808080612775565b60249060405190633250574960e11b82526004820152fd5b9091508681813d83116128ad575b612888818361201c565b810103126128a957516001600160e01b0319811681036128a957905f6127dc565b8480fd5b503d61287e565b6128bd81612454565b8210156128e55760018060a01b03165f52600660205260405f20905f5260205260405f205490565b60405163295f44f760e21b81526001600160a01b039190911660048201526024810191909152604490fd5b600854811015610e335760085f527ff3f7a9fe364faab93b216da50a3214154f22a0a2b415b23a84c8169e8b636ee301905f90565b8054821015610e33575f5260205f2001905f90565b356001600160a01b03811681036102555790565b5f19811461022f5760010190565b60085490600160401b821015611fec57610be982600161299f9401600855612910565b565b90815491600160401b831015611fec5782610be991600161299f95018155612945565b600a811015610604575f52600e60205260405f2090565b67ffffffffffffffff8111611fec5760051b60200190565b5f818152600260205260409020546001600160a01b031615610243575f52600c602052600860405f20015480421115612a3857420342811161022f5762015180900490565b505f90565b600a9081811015610604578015612b375760018114612b205760028114612b095760038114612ace5760068114612aaf5760048114612aa157600814612a835750505f90565b8110156106045760058114908115612a99575090565b600991501490565b508110156106045760051490565b508110156106045760048114908115612ac6575090565b600791501490565b5081101590816106045760048114918215612afc575b8215612aef57505090565b9091506106045760081490565b506006811491505f612ae4565b508110156106045760038114908115612a99575090565b508110156106045760028114908115612a99575090565b508110156106045760018114908115612a99575090565b612b57906129c4565b80545f5b818110612b685750505050565b83612b738285612945565b919054600392831b1c14612b905750612b8b9061296e565b612b5b565b9293505f19929183810190811161022f57612bbe92612bb2610be99287612945565b9054911b1c9185612945565b81548015610c59570190612bd5610c288383612945565b555f80808061277556fe73e573f9566d61418a34d5de3ff49360f9c51fec37f7486551670290f6285dab9f2df0fed2c77648de5860a4cc508cd0818c85b8b8a1ab4ceeef8d981c8956a6a26469706673582212202f5099c5807b8741b47d2e85b6ef4d9ad129b07914804b777e9e9029ccf01d7164736f6c63430008140033","linkReferences":{}},"methodIdentifiers":{"BURNER_ROLE()":"282c51f3","DEFAULT_ADMIN_ROLE()":"a217fddf","MINTER_ROLE()":"d5391393","UPDATER_ROLE()":"47e63380","approve(address,uint256)":"095ea7b3","balanceOf(address)":"70a08231","burn(uint256)":"42966c68","getApproved(uint256)":"081812fc","getDaysOverdue(uint256)":"c9074b1f","getDaysUntilDue(uint256)":"f80db812","getInvoice(uint256)":"3a23cc0a","getInvoicesByOwner(address)":"3c195e52","getInvoicesBySeller(address)":"ed09c922","getInvoicesByStatus(uint8)":"73114f3c","getRoleAdmin(bytes32)":"248a9ca3","grantRole(bytes32,address)":"2f2ff15d","hasRole(bytes32,address)":"91d14854","isApprovedForAll(address,address)":"e985e9c5","isInvoiceActive(uint256)":"b2e3dff3","mint(address,(uint256,address,bytes32,string,uint256,uint256,uint256,uint256,uint256,uint256,uint256,uint256,uint8,bytes32,uint8))":"28e84a50","name()":"06fdde03","ownerOf(uint256)":"6352211e","recordFunding(uint256,uint256,uint256)":"bf8129d2","recordPayment(uint256,uint256)":"0b879bc2","renounceRole(bytes32,address)":"36568abe","revokeRole(bytes32,address)":"d547741f","safeTransferFrom(address,address,uint256)":"42842e0e","safeTransferFrom(address,address,uint256,bytes)":"b88d4fde","setApprovalForAll(address,bool)":"a22cb465","setMinter(address,bool)":"cf456ae7","setUpdater(address,bool)":"1a153391","supportsInterface(bytes4)":"01ffc9a7","symbol()":"95d89b41","tokenByIndex(uint256)":"4f6ccce7","tokenOfOwnerByIndex(address,uint256)":"2f745c59","tokenURI(uint256)":"c87b56dd","totalSupply()":"18160ddd","transferFrom(address,address,uint256)":"23b872dd","updateStatus(uint256,uint8)":"3a1b3d31"},"id":44}