{"abi":[{"type":"constructor","inputs":[],"stateMutability":"nonpayable"},{"type":"function","name":"BURNER_ROLE","inputs":[],"outputs":[{"name":"","type":"bytes32","internalType":"bytes32"}],"stateMutability":"view"},{"type":"function","name":"DEFAULT_ADMIN_ROLE","inputs":[],"outputs":[{"name":"","type":"bytes32","internalType":"bytes32"}],"stateMutability":"view"},{"type":"function","name":"MINTER_ROLE","inputs":[],"outputs":[{"name":"","type":"bytes32","internalType":"bytes32"}],"stateMutability":"view"},{"type":"function","name":"UPDATER_ROLE","inputs":[],"outputs":[{"name":"","type":"bytes32","internalType":"bytes32"}],"stateMutability":"view"},{"type":"function","name":"approve","inputs":[{"name":"to","type":"address","internalType":"address"},{"name":"tokenId","type":"uint256","internalType":"uint256"}],"outputs":[],"stateMutability":"nonpayable"},{"type":"function","name":"balanceOf","inputs":[{"name":"owner","type":"address","internalType":"address"}],"outputs":[{"name":"","type":"uint256","internalType":"uint256"}],"stateMutability":"view"},{"type":"function","name":"burn","inputs":[{"name":"tokenId","type":"uint256","internalType":"uint256"}],"outputs":[],"stateMutability":"nonpayable"},{"type":"function","name":"getApproved","inputs":[{"name":"tokenId","type":"uint256","internalType":"uint256"}],"outputs":[{"name":"","type":"address","internalType":"address"}],"stateMutability":"view"},{"type":"function","name":"getDaysOverdue","inputs":[{"name":"tokenId","type":"uint256","internalType":"uint256"}],"outputs":[{"name":"","type":"uint256","internalType":"uint256"}],"stateMutability":"view"},{"type":"function","name":"getDaysUntilDue","inputs":[{"name":"tokenId","type":"uint256","internalType":"uint256"}],"outputs":[{"name":"","type":"int256","internalType":"int256"}],"stateMutability":"view"},{"type":"function","name":"getInvoice","inputs":[{"name":"tokenId","type":"uint256","internalType":"uint256"}],"outputs":[{"name":"","type":"tuple","internalType":"struct InvoiceToken.InvoiceData","components":[{"name":"invoiceId","type":"uint256","internalType":"uint256"},{"name":"seller","type":"address","internalType":"address"},{"name":"buyerHash","type":"bytes32","internalType":"bytes32"},{"name":"invoiceNumber","type":"string","internalType":"string"},{"name":"faceValue","type":"uint256","internalType":"uint256"},{"name":"advanceAmount","type":"uint256","internalType":"uint256"},{"name":"feeAmount","type":"uint256","internalType":"uint256"},{"name":"issuedAt","type":"uint256","internalType":"uint256"},{"name":"dueDate","type":"uint256","internalType":"uint256"},{"name":"fundedAt","type":"uint256","internalType":"uint256"},{"name":"paidAt","type":"uint256","internalType":"uint256"},{"name":"riskScore","type":"uint256","internalType":"uint256"},{"name":"riskTier","type":"uint8","internalType":"enum InvoiceToken.RiskTier"},{"name":"documentHash","type":"bytes32","internalType":"bytes32"},{"name":"status","type":"uint8","internalType":"enum InvoiceToken.InvoiceStatus"}]}],"stateMutability":"view"},{"type":"function","name":"getInvoicesByOwner","inputs":[{"name":"owner","type":"address","internalType":"address"}],"outputs":[{"name":"","type":"uint256[]","internalType":"uint256[]"}],"stateMutability":"view"},{"type":"function","name":"getInvoicesBySeller","inputs":[{"name":"seller","type":"address","internalType":"address"}],"outputs":[{"name":"","type":"uint256[]","internalType":"uint256[]"}],"stateMutability":"view"},{"type":"function","name":"getInvoicesByStatus","inputs":[{"name":"status","type":"uint8","internalType":"enum InvoiceToken.InvoiceStatus"}],"outputs":[{"name":"","type":"uint256[]","internalType":"uint256[]"}],"stateMutability":"view"},{"type":"function","name":"getRoleAdmin","inputs":[{"name":"role","type":"bytes32","internalType":"bytes32"}],"outputs":[{"name":"","type":"bytes32","internalType":"bytes32"}],"stateMutability":"view"},{"type":"function","name":"grantRole","inputs":[{"name":"role","type":"bytes32","internalType":"bytes32"},{"name":"account","type":"address","internalType":"address"}],"outputs":[],"stateMutability":"nonpayable"},{"type":"function","name":"hasRole","inputs":[{"name":"role","type":"bytes32","internalType":"bytes32"},{"name":"account","type":"address","internalType":"address"}],"outputs":[{"name":"","type":"bool","internalType":"bool"}],"stateMutability":"view"},{"type":"function","name":"isApprovedForAll","inputs":[{"name":"owner","type":"address","internalType":"address"},{"name":"operator","type":"address","internalType":"address"}],"outputs":[{"name":"","type":"bool","internalType":"bool"}],"stateMutability":"view"},{"type":"function","name":"isInvoiceActive","inputs":[{"name":"tokenId","type":"uint256","internalType":"uint256"}],"outputs":[{"name":"","type":"bool","internalType":"bool"}],"stateMutability":"view"},{"type":"function","name":"mint","inputs":[{"name":"to","type":"address","internalType":"address"},{"name":"data","type":"tuple","internalType":"struct InvoiceToken.InvoiceData","components":[{"name":"invoiceId","type":"uint256","internalType":"uint256"},{"name":"seller","type":"address","internalType":"address"},{"name":"buyerHash","type":"bytes32","internalType":"bytes32"},{"name":"invoiceNumber","type":"string","internalType":"string"},{"name":"faceValue","type":"uint256","internalType":"uint256"},{"name":"advanceAmount","type":"uint256","internalType":"uint256"},{"name":"feeAmount","type":"uint256","internalType":"uint256"},{"name":"issuedAt","type":"uint256","internalType":"uint256"},{"name":"dueDate","type":"uint256","internalType":"uint256"},{"name":"fundedAt","type":"uint256","internalType":"uint256"},{"name":"paidAt","type":"uint256","internalType":"uint256"},{"name":"riskScore","type":"uint256","internalType":"uint256"},{"name":"riskTier","type":"uint8","internalType":"enum InvoiceToken.RiskTier"},{"name":"documentHash","type":"bytes32","internalType":"bytes32"},{"name":"status","type":"uint8","internalType":"enum InvoiceToken.InvoiceStatus"}]}],"outputs":[{"name":"","type":"uint256","internalType":"uint256"}],"stateMutability":"nonpayable"},{"type":"function","name":"name","inputs":[],"outputs":[{"name":"","type":"string","internalType":"string"}],"stateMutability":"view"},{"type":"function","name":"ownerOf","inputs":[{"name":"tokenId","type":"uint256","internalType":"uint256"}],"outputs":[{"name":"","type":"address","internalType":"address"}],"stateMutability":"view"},{"type":"function","name":"recordFunding","inputs":[{"name":"tokenId","type":"uint256","internalType":"uint256"},{"name":"advanceAmount","type":"uint256","internalType":"uint256"},{"name":"feeAmount","type":"uint256","internalType":"uint256"}],"outputs":[],"stateMutability":"nonpayable"},{"type":"function","name":"recordPayment","inputs":[{"name":"tokenId","type":"uint256","internalType":"uint256"},{"name":"amount","type":"uint256","internalType":"uint256"}],"outputs":[],"stateMutability":"nonpayable"},{"type":"function","name":"renounceRole","inputs":[{"name":"role","type":"bytes32","internalType":"bytes32"},{"name":"callerConfirmation","type":"address","internalType":"address"}],"outputs":[],"stateMutability":"nonpayable"},{"type":"function","name":"revokeRole","inputs":[{"name":"role","type":"bytes32","internalType":"bytes32"},{"name":"account","type":"address","internalType":"address"}],"outputs":[],"stateMutability":"nonpayable"},{"type":"function","name":"safeTransferFrom","inputs":[{"name":"from","type":"address","internalType":"address"},{"name":"to","type":"address","internalType":"address"},{"name":"tokenId","type":"uint256","internalType":"uint256"}],"outputs":[],"stateMutability":"nonpayable"},{"type":"function","name":"safeTransferFrom","inputs":[{"name":"from","type":"address","internalType":"address"},{"name":"to","type":"address","internalType":"address"},{"name":"tokenId","type":"uint256","internalType":"uint256"},{"name":"data","type":"bytes","internalType":"bytes"}],"outputs":[],"stateMutability":"nonpayable"},{"type":"function","name":"setApprovalForAll","inputs":[{"name":"operator","type":"address","internalType":"address"},{"name":"approved","type":"bool","internalType":"bool"}],"outputs":[],"stateMutability":"nonpayable"},{"type":"function","name":"setMinter","inputs":[{"name":"account","type":"address","internalType":"address"},{"name":"isMinter","type":"bool","internalType":"bool"}],"outputs":[],"stateMutability":"nonpayable"},{"type":"function","name":"setUpdater","inputs":[{"name":"account","type":"address","internalType":"address"},{"name":"isUpdater","type":"bool","internalType":"bool"}],"outputs":[],"stateMutability":"nonpayable"},{"type":"function","name":"supportsInterface","inputs":[{"name":"interfaceId","type":"bytes4","internalType":"bytes4"}],"outputs":[{"name":"","type":"bool","internalType":"bool"}],"stateMutability":"view"},{"type":"function","name":"symbol","inputs":[],"outputs":[{"name":"","type":"string","internalType":"string"}],"stateMutability":"view"},{"type":"function","name":"tokenByIndex","inputs":[{"name":"index","type":"uint256","internalType":"uint256"}],"outputs":[{"name":"","type":"uint256","internalType":"uint256"}],"stateMutability":"view"},{"type":"function","name":"tokenOfOwnerByIndex","inputs":[{"name":"owner","type":"address","internalType":"address"},{"name":"index","type":"uint256","internalType":"uint256"}],"outputs":[{"name":"","type":"uint256","internalType":"uint256"}],"stateMutability":"view"},{"type":"function","name":"tokenURI","inputs":[{"name":"tokenId","type":"uint256","internalType":"uint256"}],"outputs":[{"name":"","type":"string","internalType":"string"}],"stateMutability":"view"},{"type":"function","name":"totalSupply","inputs":[],"outputs":[{"name":"","type":"uint256","internalType":"uint256"}],"stateMutability":"view"},{"type":"function","name":"transferFrom","inputs":[{"name":"from","type":"address","internalType":"address"},{"name":"to","type":"address","internalType":"address"},{"name":"tokenId","type":"uint256","internalType":"uint256"}],"outputs":[],"stateMutability":"nonpayable"},{"type":"function","name":"updateStatus","inputs":[{"name":"tokenId","type":"uint256","internalType":"uint256"},{"name":"newStatus","type":"uint8","internalType":"enum InvoiceToken.InvoiceStatus"}],"outputs":[],"stateMutability":"nonpayable"},{"type":"event","name":"Approval","inputs":[{"name":"owner","type":"address","indexed":true,"internalType":"address"},{"name":"approved","type":"address","indexed":true,"internalType":"address"},{"name":"tokenId","type":"uint256","indexed":true,"internalType":"uint256"}],"anonymous":false},{"type":"event","name":"ApprovalForAll","inputs":[{"name":"owner","type":"address","indexed":true,"internalType":"address"},{"name":"operator","type":"address","indexed":true,"internalType":"address"},{"name":"approved","type":"bool","indexed":false,"internalType":"bool"}],"anonymous":false},{"type":"event","name":"InvoiceBurned","inputs":[{"name":"tokenId","type":"uint256","indexed":true,"internalType":"uint256"}],"anonymous":false},{"type":"event","name":"InvoiceFunded","inputs":[{"name":"tokenId","type":"uint256","indexed":true,"internalType":"uint256"},{"name":"advanceAmount","type":"uint256","indexed":false,"internalType":"uint256"},{"name":"feeAmount","type":"uint256","indexed":false,"internalType":"uint256"}],"anonymous":false},{"type":"event","name":"InvoiceMinted","inputs":[{"name":"tokenId","type":"uint256","indexed":true,"internalType":"uint256"},{"name":"seller","type":"address","indexed":true,"internalType":"address"},{"name":"faceValue","type":"uint256","indexed":false,"internalType":"uint256"},{"name":"dueDate","type":"uint256","indexed":false,"internalType":"uint256"}],"anonymous":false},{"type":"event","name":"InvoicePaymentReceived","inputs":[{"name":"tokenId","type":"uint256","indexed":true,"internalType":"uint256"},{"name":"amount","type":"uint256","indexed":false,"internalType":"uint256"}],"anonymous":false},{"type":"event","name":"InvoiceStatusUpdated","inputs":[{"name":"tokenId","type":"uint256","indexed":true,"internalType":"uint256"},{"name":"oldStatus","type":"uint8","indexed":false,"internalType":"enum InvoiceToken.InvoiceStatus"},{"name":"newStatus","type":"uint8","indexed":false,"internalType":"enum InvoiceToken.InvoiceStatus"}],"anonymous":false},{"type":"event","name":"RoleAdminChanged","inputs":[{"name":"role","type":"bytes32","indexed":true,"internalType":"bytes32"},{"name":"previousAdminRole","type":"bytes32","indexed":true,"internalType":"bytes32"},{"name":"newAdminRole","type":"bytes32","indexed":true,"internalType":"bytes32"}],"anonymous":false},{"type":"event","name":"RoleGranted","inputs":[{"name":"role","type":"bytes32","indexed":true,"internalType":"bytes32"},{"name":"account","type":"address","indexed":true,"internalType":"address"},{"name":"sender","type":"address","indexed":true,"internalType":"address"}],"anonymous":false},{"type":"event","name":"RoleRevoked","inputs":[{"name":"role","type":"bytes32","indexed":true,"internalType":"bytes32"},{"name":"account","type":"address","indexed":true,"internalType":"address"},{"name":"sender","type":"address","indexed":true,"internalType":"address"}],"anonymous":false},{"type":"event","name":"Transfer","inputs":[{"name":"from","type":"address","indexed":true,"internalType":"address"},{"name":"to","type":"address","indexed":true,"internalType":"address"},{"name":"tokenId","type":"uint256","indexed":true,"internalType":"uint256"}],"anonymous":false},{"type":"error","name":"AccessControlBadConfirmation","inputs":[]},{"type":"error","name":"AccessControlUnauthorizedAccount","inputs":[{"name":"account","type":"address","internalType":"address"},{"name":"neededRole","type":"bytes32","internalType":"bytes32"}]},{"type":"error","name":"ERC721EnumerableForbiddenBatchMint","inputs":[]},{"type":"error","name":"ERC721IncorrectOwner","inputs":[{"name":"sender","type":"address","internalType":"address"},{"name":"tokenId","type":"uint256","internalType":"uint256"},{"name":"owner","type":"address","internalType":"address"}]},{"type":"error","name":"ERC721InsufficientApproval","inputs":[{"name":"operator","type":"address","internalType":"address"},{"name":"tokenId","type":"uint256","internalType":"uint256"}]},{"type":"error","name":"ERC721InvalidApprover","inputs":[{"name":"approver","type":"address","internalType":"address"}]},{"type":"error","name":"ERC721InvalidOperator","inputs":[{"name":"operator","type":"address","internalType":"address"}]},{"type":"error","name":"ERC721InvalidOwner","inputs":[{"name":"owner","type":"address","internalType":"address"}]},{"type":"error","name":"ERC721InvalidReceiver","inputs":[{"name":"receiver","type":"address","internalType":"address"}]},{"type":"error","name":"ERC721InvalidSender","inputs":[{"name":"sender","type":"address","internalType":"address"}]},{"type":"error","name":"ERC721NonexistentToken","inputs":[{"name":"tokenId","type":"uint256","internalType":"uint256"}]},{"type":"error","name":"ERC721OutOfBoundsIndex","inputs":[{"name":"owner","type":"address","internalType":"address"},{"name":"index","type":"uint256","internalType":"uint256"}]},{"type":"error","name":"InvalidAmount","inputs":[]},{"type":"error","name":"InvalidDueDate","inputs":[]},{"type":"error","name":"InvalidInvoiceData","inputs":[]},{"type":"error","name":"InvalidStatusTransition","inputs":[]},{"type":"error","name":"InvoiceAlreadyFunded","inputs":[]},{"type":"error","name":"InvoiceNotBurnable","inputs":[]},{"type":"error","name":"InvoiceNotFound","inputs":[]},{"type":"error","name":"InvoiceNotFunded","inputs":[]},{"type":"error","name":"NotAuthorized","inputs":[]},{"type":"error","name":"ZeroAddress","inputs":[]}],"bytecode":{"object":"0x60803462000321576001600160401b0390604090808201838111828210176200030b578252600e81526020926d24b73b37b4b1b2ac102a37b5b2b760911b848301528251838101818110838211176200030b57845260048152630929cacb60e31b858201528251908282116200030b5760008054926001958685811c9516801562000300575b89861014620002ec578190601f9586811162000299575b5089908683116001146200023557849262000229575b5050600019600383901b1c191690861b1781555b8151938411620002155784548581811c911680156200020a575b88821014620001f657838111620001ae575b508692841160011462000148578394959650926200013c575b5050600019600383901b1c191690821b1781555b6200012a3362000326565b50600b5551612c189081620003b98239f35b0151905038806200010b565b9190601f1984169685845280842093905b8882106200019657505083859697106200017c575b505050811b0181556200011f565b015160001960f88460031b161c191690553880806200016e565b80878596829496860151815501950193019062000159565b8582528782208480870160051c8201928a8810620001ec575b0160051c019086905b828110620001e0575050620000f2565b838155018690620001d0565b92508192620001c7565b634e487b7160e01b82526022600452602482fd5b90607f1690620000e0565b634e487b7160e01b81526041600452602490fd5b015190503880620000b2565b8480528a85208994509190601f198416865b8d82821062000282575050841162000268575b505050811b018155620000c6565b015160001960f88460031b161c191690553880806200025a565b8385015186558c9790950194938401930162000247565b9091508380528984208680850160051c8201928c8610620002e2575b918a91869594930160051c01915b828110620002d35750506200009c565b8681558594508a9101620002c3565b92508192620002b5565b634e487b7160e01b83526022600452602483fd5b94607f169462000085565b634e487b7160e01b600052604160045260246000fd5b600080fd5b6001600160a01b031660008181527f13da86008ba1c6922daee3e07db95305ef49ebced9f5467a0b8613fcc6b343e3602052604081205490919060ff16620003b457818052600a6020526040822081835260205260408220600160ff1982541617905533917f2f8788117e7eff1d82e926ec794901d17c78024a50270940304540a733656f0d8180a4600190565b509056fe608080604052600436101561001357600080fd5b60003560e01c90816301ffc9a714611d555750806306fdde0314611cb2578063081812fc14611c74578063095ea7b314611b8d5780630b879bc214611aa257806318160ddd14611a845780631a153391146119e657806323b872dd146119cf578063248a9ca3146119a0578063282c51f31461197757806328e84a50146112305780632f2ff15d146111f15780632f745c59146111ca57806336568abe146111835780633a1b3d31146110bd5780633a23cc0a14610df05780633c195e5214610d4657806342842e0e14610d1857806342966c6814610a2257806347e63380146109f95780634f6ccce7146109a35780636352211e1461097357806370a082311461095057806373114f3c146108e057806391d148541461089357806395d89b41146107ce578063a217fddf146107b2578063a22cb46514610720578063b2e3dff3146106a0578063b88d4fde1461060c578063bf8129d2146104c5578063c87b56dd14610472578063c9074b1f1461044c578063cf456ae71461039c578063d539139314610373578063d547741f14610332578063e985e9c5146102dc578063ed09c922146102545763f80db812146101cc57600080fd5b3461024f57602036600319011261024f576004356101e981612a65565b1561023d57600052600c6020526008604060002001544281039060004212818312811691831390151617610227576020906201518060405191058152f35b634e487b7160e01b600052601160045260246000fd5b604051634d5c803960e11b8152600490fd5b600080fd5b3461024f5760208060031936011261024f576001600160a01b03610276611e34565b16600052600d8152604060002090604051908181845491828152019360005281600020916000905b8282106102c5576102c1856102b581890382611f59565b60405191829182611ed1565b0390f35b83548652948501946001938401939091019061029e565b3461024f57604036600319011261024f576102f5611e34565b6102fd611e4a565b9060018060a01b03809116600052600560205260406000209116600052602052602060ff604060002054166040519015158152f35b3461024f57604036600319011261024f57610371600435610351611e4a565b9080600052600a60205261036c600160406000200154612009565b612279565b005b3461024f57600036600319011261024f576020604051600080516020612b638339815191528152f35b3461024f576103aa36611e60565b6103b2611fcf565b6001600160a01b0382161561043a571561040057600080516020612b63833981519152600052600a602052600080516020612bc38339815191525461037191906103fb90612009565b6120ac565b600080516020612b63833981519152600052600a602052600080516020612bc383398151915254610371919061043590612009565b612203565b60405163d92e233d60e01b8152600490fd5b3461024f57602036600319011261024f57602061046a600435612880565b604051908152f35b3461024f57602036600319011261024f5761048e6004356125db565b50600060405161049d81611f3e565b526102c16040516104ad81611f3e565b60008152604051918291602083526020830190611df4565b3461024f57606036600319011261024f576004356024356044356104e7611f97565b6104f083612a65565b1561023d5782600052600c6020526040600020600981019081546105fa5783156105e857600e91846005830155836006830155429055019182549160ff8316600a8110156105d2577f31d968a05e67a936053f2caf57c0c4d9cd94dbdc81149d1b860eeab3c26dc73194604094826002899414610579575b5050505082519182526020820152a2005b600080516020612b03833981519152926003889360ff191617905561059e84826129d2565b6003600052600e6020526105b5848360002061282d565b6105c182518092611ec4565b60036020820152a284868080610568565b634e487b7160e01b600052602160045260246000fd5b60405163162908e360e11b8152600490fd5b604051639c20501360e01b8152600490fd5b3461024f57608036600319011261024f57610625611e34565b61062d611e4a565b6064359190604435906001600160401b03841161024f573660238501121561024f5783600401359261065e84611f7c565b9361066c6040519586611f59565b808552366024828801011161024f5760208160009260246103719901838901378601015261069b838383612351565b6125fe565b3461024f57602036600319011261024f576004356106bd81612a65565b1561023d57600052600c60205260ff600e6040600020015416600a811015806105d25760058214159081610712575b816106ff575b6020826040519015158152f35b90506105d25760076020911415826106f2565b5050600981141560006106ec565b3461024f5761072e36611e60565b6001600160a01b039091169081156107995733600052600560205260406000208260005260205260406000209015159060ff1981541660ff83161790556040519081527f17307eab39ab6107e8899845ad3d59bd9653f200f220920489ca2b5937696c3160203392a3005b604051630b61174360e31b815260048101839052602490fd5b3461024f57600036600319011261024f57602060405160008152f35b3461024f57600036600319011261024f57604051600090600180546107f281612317565b8084529082811690811561086b575060011461082d575b6102c18361081981870382611f59565b604051918291602083526020830190611df4565b92508060005260209283600020916000925b8284106108585750505081019091019061081981610809565b805485850187015292850192810161083f565b6102c1955061081993506020915091849260ff191682840152151560051b8201019350610809565b3461024f57604036600319011261024f576108ac611e4a565b600435600052600a60205260406000209060018060a01b0316600052602052602060ff604060002054166040519015158152f35b3461024f5760208060031936011261024f57600435600a81101561024f5761090790612850565b90604051908181845491828152019360005281600020916000905b828210610939576102c1856102b581890382611f59565b835486529485019460019384019390910190610922565b3461024f57602036600319011261024f57602061046a61096e611e34565b6122de565b3461024f57602036600319011261024f5760206109916004356125db565b6040516001600160a01b039091168152f35b3461024f57602036600319011261024f576004356008548110156109da576109cc6020916127b2565b90546040519160031b1c8152f35b6044906040519063295f44f760e21b8252600060048301526024820152fd5b3461024f57600036600319011261024f576020604051600080516020612b238339815191528152f35b3461024f5760208060031936011261024f5760043590610a4182612a65565b1561023d5781600052600c815260ff600e6040600020015416600a8110156105d25760058114159081610d0c575b50610cfa57600080516020612ac3833981519152600052600a8152604060002033600052815260ff604060002054161580610cdf575b610ccd57817fd20dd6615233f6ea374fecbfd548d1c1666cf4b91a97fd0a457a43b03ae37cad600080a260008281526002825260409020546001600160a01b031680159190821580610caa575b6000858152600284526040812080546001600160a01b0319169055859083600080516020612b838339815191528280a48315610c0e5750506008548360005260098252604060002055610b4483612808565b600854600019918282019182116102275760099085600052818152610b6e604060002054936127b2565b90549060031b1c610b9b81610b82866127b2565b90919082549060031b91821b91600019901b1916179055565b6000525260406000205582600052600060408120556008548015610bf85701610bd7610bc6826127b2565b8154906000199060031b1b19169055565b600855610be057005b60249060405190637e27328960e01b82526004820152fd5b634e487b7160e01b600052603160045260246000fd5b610c19575b50610b44565b610c22816122de565b908460005260078352604060002054828103610c64575b5084600052600060408120556000526006825260406000209060005281526000604081205583610c13565b8160005260068452604060002083600052845260406000205482600052600685526040600020826000528552806040600020556000526007845260406000205585610c39565b610cb3856125bd565b816000526003835260406000206000198154019055610af2565b60405163ea8e4eb560e01b8152600490fd5b50336001600160a01b03610cf2846125db565b161415610aa5565b604051636f0baebb60e01b8152600490fd5b60099150141583610a6f565b3461024f57610371610d2936611e8f565b9060405192610d3784611f3e565b6000845261069b838383612351565b3461024f5760208060031936011261024f57610d60611e34565b90610d6a826122de565b90610d7482612869565b92610d826040519485611f59565b828452601f19610d9184612869565b01368386013760005b838110610daf57604051806102c18782611ed1565b610db98183612761565b908551811015610dda57610dd591848260051b880101526127f9565b610d9a565b634e487b7160e01b600052603260045260246000fd5b3461024f57602036600319011261024f5760043560006101c0604051610e1581611f0c565b8281528260208201528260408201526060808201528260808201528260a08201528260c08201528260e08201528261010082015282610120820152826101408201528261016082015282610180820152826101a08201520152610e7781612a65565b1561023d57600052600c602052604060002060405190610e9682611f0c565b8054825260018101546001600160a01b031660208301526002810154604080840191909152516003820154816000610ecd83612317565b808352926001811690811561109e5750600114611057575b610ef192500382611f59565b606083015260048101546080830152600581015460a0830152600681015460c0830152600781015460e083015260088101546101008301526009810154610120830152600a810154610140830152600b81015461016083015260ff600c8201541660038110156105d257610180830152600d8101546101a0830152600e015460ff16600a8110156105d2576101c082015260405190602082528051602083015260018060a01b03602082015116604083015260408101516060830152610fc860608201516101e06080850152610200840190611df4565b608082015160a084015260a082015160c084015260c082015160e084015260e08201516101008401526101008201516101208401526101208201516101408401526101408201516101608401526101608201516101808401526101808201519160038310156105d2576101c06102c19185946101a08601526101a08101518286015201516101e0840190611ec4565b5090600384016000526020600020906000915b818310611082575050906020610ef192820101610ee5565b602091935080600191548385880101520191019091839261106a565b60209250610ef194915060ff191682840152151560051b820101610ee5565b3461024f57604036600319011261024f57600435602435600a81101561024f576110e5611f97565b6110ee82612a65565b1561023d5781600052600c602052600e6040600020019060ff82541661111482826128bf565b156111715761116e604092600080516020612b038339815191529461113987856129d2565b60ff1981541660ff83161790556111588661115383612850565b61282d565b61116484518094611ec4565b6020830190611ec4565ba2005b60405163088bd32360e11b8152600490fd5b3461024f57604036600319011261024f5761119c611e4a565b336001600160a01b038216036111b85761037190600435612279565b60405163334bd91960e11b8152600490fd5b3461024f57604036600319011261024f57602061046a6111e8611e34565b60243590612761565b3461024f57604036600319011261024f57610371600435611210611e4a565b9080600052600a60205261122b600160406000200154612009565b612124565b3461024f5760031960403682011261024f5761124a611e34565b6001600160401b03602435811061024f576101e060243536039384011261024f57336000908152600080516020612b438339815191526020526040902054600080516020612b638339815191529060ff161561195957506001600160a01b0382161561043a576001600160a01b036112c560248035016127e5565b161561043a5760846024350135156105e857426101046024350135111561194757600b54926112f3846127f9565b600b5583600052600c60205260406000209184835561131560248035016127e5565b6001840180546001600160a01b0319166001600160a01b039092169190911790556024356044810135600285015560640135916022190182121561024f576004826024350101351161024f576024803582016004810135360391011361024f576113826003830154612317565b601f81116118f0575b506000601f6004836024350101351160011461185857600090600483602435010135611847575b5060048260243501013560011b9160046000199160243501013560031b1c19161760038201555b60243560848101356004830155600060058301819055600683015560e401358015611840575b600782015561010460243501356008820155600060098201556000600a8201556101646024350135600b82015560036101846024350135101561024f57600c810180546024803561018481013560ff1660ff19938416179093556101a4830135600d850155600e93909301805490911690556001600160a01b039161148491016127e5565b16600052600d60205261149b82604060002061282d565b60008052600e6020526114ce827fe710864318d4a32f37d6ce54cb3fadbef648dd12d8dbdf53973564d56b7f881c61282d565b6040516114da81611f3e565b6000808252838152600260205260409020546001600160a01b03168015801591908261181c575b6001600160a01b0385166000818152600360209081526040808320805460010190558983526002909152812080546001600160a01b031916831790558791908490600080516020612b838339815191529080a41561178c5760085485600052600960205260406000205561157485612808565b6001600160a01b0384160361173f575b61172657813b6115ec575b6020836001600160a01b036115a760248035016127e5565b16817f881b3356c91302df3b86b06710c720259f76e5c4696c76b0b21a3e73998a38b760408051608460243501358152610104602435013587820152a3604051908152f35b60405160208180611626630a85bd0160e11b9586835233600484015260006024840152886044840152608060648401526084830190611df4565b038160006001600160a01b0388165af1600091816116e1575b506116a757823d1561169f573d9061165682611f7c565b916116646040519384611f59565b82523d6000602084013e5b8151918261169857604051633250574960e11b81526001600160a01b0383166004820152602490fd5b9050602001fd5b60609061166f565b6001600160e01b031916036116bf575060208261158f565b604051633250574960e11b81526001600160a01b039091166004820152602490fd5b9091506020813d60201161171e575b816116fd60209383611f59565b8101031261024f57516001600160e01b03198116810361024f57908561163f565b3d91506116f0565b6040516339e3563760e11b815260006004820152602490fd5b611748836122de565b60001981019081116102275760018060a01b038416600052600660205260406000208160005260205284604060002055846000526007602052604060002055611584565b6001600160a01b0384168114611574576117a5816122de565b8560005260076020526040600020548181036117e9575b50856000526000604081205581600052600660205260406000209060005260205260006040812055611574565b600083815260066020908152604080832085845282528083205484845281842081905583526007909152902055866117bc565b611825866125bd565b81600052600360205260406000206000198154019055611501565b50426113ff565b6024915082823501010135856113b2565b6003830160005260206000209060005b602435840160040135601f191681106118d2575060019260049290916024358301840135601f198116106118ac575b5050602435010135811b0160038201556113d9565b602460001960f88686843501013560031b161c1991848235010101351690558680611897565b90916020600181926024868882350101013581550193019101611868565b600383016000526020600020601f6004846024350101350160051c8101602060048560243501013510611940575b601f830160051c8201811061193457505061138b565b6000815560010161191e565b508061191e565b60405163a1ff8dcd60e01b8152600490fd5b6044906040519063e2517d3f60e01b82523360048301526024820152fd5b3461024f57600036600319011261024f576020604051600080516020612ac38339815191528152f35b3461024f57602036600319011261024f57600435600052600a6020526020600160406000200154604051908152f35b3461024f576103716119e036611e8f565b91612351565b3461024f576119f436611e60565b6119fc611fcf565b6001600160a01b0382161561043a5715611a4a57600080516020612b23833981519152600052600a602052600080516020612aa3833981519152546103719190611a4590612009565b61202f565b600080516020612b23833981519152600052600a602052600080516020612aa3833981519152546103719190611a7f90612009565b61218d565b3461024f57600036600319011261024f576020600854604051908152f35b3461024f57604036600319011261024f57600435602435611ac1611f97565b611aca82612a65565b1561023d5781600052600c6020526040600020600981015415611b7b5781156105e857600080516020612b0383398151915291837f1aad9d9a33ed4a754eba019dbf8706c78d03e9085d8c68b45e63a427ae25b14d6020600e60409542600a8201550193845494600460ff87169660ff1916179055611b4984866129d2565b6004600052600e8252611b5f848760002061282d565b8551908152a2611b7182518092611ec4565b60046020820152a2005b604051633503443760e01b8152600490fd5b3461024f57604036600319011261024f57611ba6611e34565b602435611bb2816125db565b33151580611c61575b80611c34575b611c1c576001600160a01b039283169282918491167f8c5be1e5ebec7d5bd14f71427d1e84f3dd0314c0f7b2291e5b200ac8c7c3b925600080a4600090815260046020526040902080546001600160a01b0319169091179055005b60405163a9fbf51f60e01b8152336004820152602490fd5b5060018060a01b038116600052600560205260406000203360005260205260ff6040600020541615611bc1565b506001600160a01b038116331415611bbb565b3461024f57602036600319011261024f57600435611c91816125db565b506000526004602052602060018060a01b0360406000205416604051908152f35b3461024f57600036600319011261024f57604051600090600054611cd581612317565b80835260019180831690811561086b5750600114611cfd576102c18361081981870382611f59565b600080805260209450917f290decd9548b62a8d60345a988386fc84ba6bc95484008f6362f93160ef3e5635b828410611d425750505081019091019061081981610809565b8054858501870152928501928101611d29565b3461024f57602036600319011261024f576004359063ffffffff60e01b821680920361024f57602091637965db0b60e01b8114908115611d97575b5015158152f35b63780e9d6360e01b811491508115611db1575b5083611d90565b6380ac58cd60e01b811491508115611de3575b8115611dd2575b5083611daa565b6301ffc9a760e01b14905083611dcb565b635b5e139f60e01b81149150611dc4565b919082519283825260005b848110611e20575050826000602080949584010152601f8019910116010190565b602081830181015184830182015201611dff565b600435906001600160a01b038216820361024f57565b602435906001600160a01b038216820361024f57565b604090600319011261024f576004356001600160a01b038116810361024f5790602435801515810361024f5790565b606090600319011261024f576001600160a01b0390600435828116810361024f5791602435908116810361024f579060443590565b90600a8210156105d25752565b6020908160408183019282815285518094520193019160005b828110611ef8575050505090565b835185529381019392810192600101611eea565b6101e081019081106001600160401b03821117611f2857604052565b634e487b7160e01b600052604160045260246000fd5b602081019081106001600160401b03821117611f2857604052565b601f909101601f19168101906001600160401b03821190821017611f2857604052565b6001600160401b038111611f2857601f01601f191660200190565b336000908152600080516020612ae38339815191526020526040902054600080516020612b238339815191529060ff16156119595750565b3360009081527f13da86008ba1c6922daee3e07db95305ef49ebced9f5467a0b8613fcc6b343e3602052604081205460ff16156119595750565b80600052600a60205260406000203360005260205260ff60406000205416156119595750565b6001600160a01b03166000818152600080516020612ae38339815191526020526040812054909190600080516020612b238339815191529060ff166120a757808352600a6020526040832082845260205260408320600160ff19825416179055600080516020612a83833981519152339380a4600190565b505090565b6001600160a01b03166000818152600080516020612b438339815191526020526040812054909190600080516020612b638339815191529060ff166120a757808352600a6020526040832082845260205260408320600160ff19825416179055600080516020612a83833981519152339380a4600190565b90600091808352600a602052604083209160018060a01b03169182845260205260ff604084205416156000146120a757808352600a6020526040832082845260205260408320600160ff19825416179055600080516020612a83833981519152339380a4600190565b6001600160a01b03166000818152600080516020612ae38339815191526020526040812054909190600080516020612b238339815191529060ff16156120a757808352600a602052604083208284526020526040832060ff198154169055600080516020612ba3833981519152339380a4600190565b6001600160a01b03166000818152600080516020612b438339815191526020526040812054909190600080516020612b638339815191529060ff16156120a757808352600a602052604083208284526020526040832060ff198154169055600080516020612ba3833981519152339380a4600190565b90600091808352600a602052604083209160018060a01b03169182845260205260ff6040842054166000146120a757808352600a602052604083208284526020526040832060ff198154169055600080516020612ba3833981519152339380a4600190565b6001600160a01b031680156122fe57600052600360205260406000205490565b6040516322718ad960e21b815260006004820152602490fd5b90600182811c92168015612347575b602083101461233157565b634e487b7160e01b600052602260045260246000fd5b91607f1691612326565b6001600160a01b03828116939184156125a457600094838652602095600287526040968488832054169633151580612514575b50871580156124f4575b84845260038352898420805460010190558784526002835289842080546001600160a01b0319168617905587858a600080516020612b838339815191528780a4156124785760085487845260098352898420556123ea87612808565b838803612426575b5050505016928383036124055750505050565b6064945051926364283d7b60e01b8452600484015260248301526044820152fd5b61242f906122de565b6000198101939084116124645782916007918a94526006815283832085845281528784842055878352522055388080806123f2565b634e487b7160e01b83526011600452602483fd5b8784146123ea57612488886122de565b87845260078352898420548181036124bd575b50878452838a81205588845260068352898420908452825282898120556123ea565b898552600684528a852082865284528a8520548a8652600685528b86208287528552808c8720558552600784528a8520553861249b565b6124fd886125bd565b88845260038352898420805460001901905561238e565b80612563575b156125255738612384565b888789612542576024915190637e27328960e01b82526004820152fd5b905163177e802f60e01b815290819061255f903360048401612746565b0390fd5b503388148015612588575b8061251a57508683526004825233868a852054161461251a565b5087835260058252888320338452825260ff898420541661256e565b604051633250574960e11b815260006004820152602490fd5b600090815260046020526040902080546001600160a01b0319169055565b6000818152600260205260409020546001600160a01b0316908115610be0575090565b813b61260b575b50505050565b604051630a85bd0160e11b8082523360048301526001600160a01b03928316602483015260448201949094526080606482015260209592909116939092908390612659906084830190611df4565b039285816000958187895af1849181612702575b506126cd575050503d6000146126c5573d61268781611f7c565b906126956040519283611f59565b81528091843d92013e5b805192836126c057604051633250574960e11b815260048101849052602490fd5b019050fd5b50606061269f565b919450915063ffffffff60e01b16036126ea575038808080612605565b60249060405190633250574960e11b82526004820152fd5b9091508681813d831161273f575b61271a8183611f59565b8101031261273b57516001600160e01b03198116810361273b57903861266d565b8480fd5b503d612710565b6001600160a01b039091168152602081019190915260400190565b61276a816122de565b8210156127965760018060a01b0316600052600660205260406000209060005260205260406000205490565b61255f60405192839263295f44f760e21b845260048401612746565b600854811015610dda57600860005260206000200190600090565b8054821015610dda5760005260206000200190600090565b356001600160a01b038116810361024f5790565b60001981146102275760010190565b60085490600160401b821015611f2857610b8282600161282b94016008556127b2565b565b80549190600160401b831015611f285782610b8291600161282b950181556127cd565b600a8110156105d257600052600e602052604060002090565b6001600160401b038111611f285760051b60200190565b61288981612a65565b1561023d57600052600c602052600860406000200154804211156128b95742034281116102275762015180900490565b50600090565b600a90818110156105d25780156129bb57600181146129a4576002811461298d57600381146129515760068114612932576004811461292457600814612906575050600090565b8110156105d2576005811490811561291c575090565b600991501490565b508110156105d25760051490565b508110156105d25760048114908115612949575090565b600791501490565b5081101590816105d2576004811491821561297f575b821561297257505090565b9091506105d25760081490565b506006811491506000612967565b508110156105d2576003811490811561291c575090565b508110156105d2576002811490811561291c575090565b508110156105d2576001811490811561291c575090565b6129db90612850565b805460005b8181106129ed5750505050565b836129f882856127cd565b919054600392831b1c14612a155750612a10906127f9565b6129e0565b929350600019929183810190811161022757612a4492612a38610b8292876127cd565b9054911b1c91856127cd565b81548015610bf8570190612a5b610bc683836127cd565b5538808080612605565b6000908152600260205260409020546001600160a01b031615159056fe2f8788117e7eff1d82e926ec794901d17c78024a50270940304540a733656f0d297346395254270af57a65858cca8e404d9824517d5b360c2499cef823e1a62b3c11d16cbaffd01df69ce1c404f6340ee057498f5f00246190ea54220576a848297346395254270af57a65858cca8e404d9824517d5b360c2499cef823e1a62ae458c766c0212887eab3adea9962bd8363396dcb3ed18049549c27a24b33eee973e573f9566d61418a34d5de3ff49360f9c51fec37f7486551670290f6285dabaa1d7351356c4ddc11907b1ee0660f579cfdf507235af2ae01ecd22a4b7ceaae9f2df0fed2c77648de5860a4cc508cd0818c85b8b8a1ab4ceeef8d981c8956a6ddf252ad1be2c89b69c2b068fc378daa952ba7f163c4a11628f55a4df523b3eff6391f5c32d9c69d2a47ea670b442974b53935d1edc7fd64eb21e047a839171baa1d7351356c4ddc11907b1ee0660f579cfdf507235af2ae01ecd22a4b7ceaafa2646970667358221220593de0b0b6a7fafab95f582a868878b29bfedbc2f828cfb91f859555124ec6ec64736f6c63430008140033","linkReferences":{}},"methodIdentifiers":{"BURNER_ROLE()":"282c51f3","DEFAULT_ADMIN_ROLE()":"a217fddf","MINTER_ROLE()":"d5391393","UPDATER_ROLE()":"47e63380","approve(address,uint256)":"095ea7b3","balanceOf(address)":"70a08231","burn(uint256)":"42966c68","getApproved(uint256)":"081812fc","getDaysOverdue(uint256)":"c9074b1f","getDaysUntilDue(uint256)":"f80db812","getInvoice(uint256)":"3a23cc0a","getInvoicesByOwner(address)":"3c195e52","getInvoicesBySeller(address)":"ed09c922","getInvoicesByStatus(uint8)":"73114f3c","getRoleAdmin(bytes32)":"248a9ca3","grantRole(bytes32,address)":"2f2ff15d","hasRole(bytes32,address)":"91d14854","isApprovedForAll(address,address)":"e985e9c5","isInvoiceActive(uint256)":"b2e3dff3","mint(address,(uint256,address,bytes32,string,uint256,uint256,uint256,uint256,uint256,uint256,uint256,uint256,uint8,bytes32,uint8))":"28e84a50","name()":"06fdde03","ownerOf(uint256)":"6352211e","recordFunding(uint256,uint256,uint256)":"bf8129d2","recordPayment(uint256,uint256)":"0b879bc2","renounceRole(bytes32,address)":"36568abe","revokeRole(bytes32,address)":"d547741f","safeTransferFrom(address,address,uint256)":"42842e0e","safeTransferFrom(address,address,uint256,bytes)":"b88d4fde","setApprovalForAll(address,bool)":"a22cb465","setMinter(address,bool)":"cf456ae7","setUpdater(address,bool)":"1a153391","supportsInterface(bytes4)":"01ffc9a7","symbol()":"95d89b41","tokenByIndex(uint256)":"4f6ccce7","tokenOfOwnerByIndex(address,uint256)":"2f745c59","tokenURI(uint256)":"c87b56dd","totalSupply()":"18160ddd","transferFrom(address,address,uint256)":"23b872dd","updateStatus(uint256,uint8)":"3a1b3d31"},"id":42}