{"abi":[{"type":"constructor","inputs":[],"stateMutability":"nonpayable"},{"type":"function","name":"CREDIT_UPDATER_ROLE","inputs":[],"outputs":[{"name":"","type":"bytes32","internalType":"bytes32"}],"stateMutability":"view"},{"type":"function","name":"DEFAULT_ADMIN_ROLE","inputs":[],"outputs":[{"name":"","type":"bytes32","internalType":"bytes32"}],"stateMutability":"view"},{"type":"function","name":"DEFAULT_THRESHOLD","inputs":[],"outputs":[{"name":"","type":"uint256","internalType":"uint256"}],"stateMutability":"view"},{"type":"function","name":"MIN_CREDIT_SCORE","inputs":[],"outputs":[{"name":"","type":"uint256","internalType":"uint256"}],"stateMutability":"view"},{"type":"function","name":"MIN_REPAYMENT_RATE","inputs":[],"outputs":[{"name":"","type":"uint256","internalType":"uint256"}],"stateMutability":"view"},{"type":"function","name":"STATS_UPDATER_ROLE","inputs":[],"outputs":[{"name":"","type":"bytes32","internalType":"bytes32"}],"stateMutability":"view"},{"type":"function","name":"VERIFIER_ROLE","inputs":[],"outputs":[{"name":"","type":"bytes32","internalType":"bytes32"}],"stateMutability":"view"},{"type":"function","name":"addAuthorizedSigner","inputs":[{"name":"businessId","type":"uint256","internalType":"uint256"},{"name":"signer","type":"address","internalType":"address"}],"outputs":[],"stateMutability":"nonpayable"},{"type":"function","name":"blacklistBusiness","inputs":[{"name":"businessId","type":"uint256","internalType":"uint256"},{"name":"reason","type":"string","internalType":"string"}],"outputs":[],"stateMutability":"nonpayable"},{"type":"function","name":"canSubmitInvoices","inputs":[{"name":"businessId","type":"uint256","internalType":"uint256"}],"outputs":[{"name":"","type":"bool","internalType":"bool"}],"stateMutability":"view"},{"type":"function","name":"getBusiness","inputs":[{"name":"businessId","type":"uint256","internalType":"uint256"}],"outputs":[{"name":"","type":"tuple","internalType":"struct BusinessRegistry.Business","components":[{"name":"businessId","type":"uint256","internalType":"uint256"},{"name":"owner","type":"address","internalType":"address"},{"name":"authorizedSigners","type":"address[]","internalType":"address[]"},{"name":"businessHash","type":"bytes32","internalType":"bytes32"},{"name":"zkProofHash","type":"bytes32","internalType":"bytes32"},{"name":"businessURI","type":"string","internalType":"string"},{"name":"creditScore","type":"uint256","internalType":"uint256"},{"name":"stats","type":"tuple","internalType":"struct BusinessRegistry.BusinessStats","components":[{"name":"totalInvoicesSubmitted","type":"uint256","internalType":"uint256"},{"name":"totalInvoicesFunded","type":"uint256","internalType":"uint256"},{"name":"totalValueFunded","type":"uint256","internalType":"uint256"},{"name":"totalValueRepaid","type":"uint256","internalType":"uint256"},{"name":"successfulRepayments","type":"uint256","internalType":"uint256"},{"name":"lateRepayments","type":"uint256","internalType":"uint256"},{"name":"defaults","type":"uint256","internalType":"uint256"},{"name":"averageDaysToCollection","type":"uint256","internalType":"uint256"}]},{"name":"status","type":"uint8","internalType":"enum BusinessRegistry.BusinessStatus"},{"name":"registeredAt","type":"uint256","internalType":"uint256"},{"name":"verifiedAt","type":"uint256","internalType":"uint256"},{"name":"lastActivityAt","type":"uint256","internalType":"uint256"}]}],"stateMutability":"view"},{"type":"function","name":"getBusinessByOwner","inputs":[{"name":"owner","type":"address","internalType":"address"}],"outputs":[{"name":"","type":"uint256","internalType":"uint256"}],"stateMutability":"view"},{"type":"function","name":"getBusinessStats","inputs":[{"name":"businessId","type":"uint256","internalType":"uint256"}],"outputs":[{"name":"","type":"tuple","internalType":"struct BusinessRegistry.BusinessStats","components":[{"name":"totalInvoicesSubmitted","type":"uint256","internalType":"uint256"},{"name":"totalInvoicesFunded","type":"uint256","internalType":"uint256"},{"name":"totalValueFunded","type":"uint256","internalType":"uint256"},{"name":"totalValueRepaid","type":"uint256","internalType":"uint256"},{"name":"successfulRepayments","type":"uint256","internalType":"uint256"},{"name":"lateRepayments","type":"uint256","internalType":"uint256"},{"name":"defaults","type":"uint256","internalType":"uint256"},{"name":"averageDaysToCollection","type":"uint256","internalType":"uint256"}]}],"stateMutability":"view"},{"type":"function","name":"getRepaymentRate","inputs":[{"name":"businessId","type":"uint256","internalType":"uint256"}],"outputs":[{"name":"","type":"uint256","internalType":"uint256"}],"stateMutability":"view"},{"type":"function","name":"getRoleAdmin","inputs":[{"name":"role","type":"bytes32","internalType":"bytes32"}],"outputs":[{"name":"","type":"bytes32","internalType":"bytes32"}],"stateMutability":"view"},{"type":"function","name":"grantRole","inputs":[{"name":"role","type":"bytes32","internalType":"bytes32"},{"name":"account","type":"address","internalType":"address"}],"outputs":[],"stateMutability":"nonpayable"},{"type":"function","name":"hasRole","inputs":[{"name":"role","type":"bytes32","internalType":"bytes32"},{"name":"account","type":"address","internalType":"address"}],"outputs":[{"name":"","type":"bool","internalType":"bool"}],"stateMutability":"view"},{"type":"function","name":"isAuthorizedSigner","inputs":[{"name":"businessId","type":"uint256","internalType":"uint256"},{"name":"signer","type":"address","internalType":"address"}],"outputs":[{"name":"","type":"bool","internalType":"bool"}],"stateMutability":"view"},{"type":"function","name":"isBusinessActive","inputs":[{"name":"businessId","type":"uint256","internalType":"uint256"}],"outputs":[{"name":"","type":"bool","internalType":"bool"}],"stateMutability":"view"},{"type":"function","name":"isBusinessVerified","inputs":[{"name":"businessId","type":"uint256","internalType":"uint256"}],"outputs":[{"name":"","type":"bool","internalType":"bool"}],"stateMutability":"view"},{"type":"function","name":"recordDefault","inputs":[{"name":"businessId","type":"uint256","internalType":"uint256"}],"outputs":[],"stateMutability":"nonpayable"},{"type":"function","name":"recordInvoiceFunded","inputs":[{"name":"businessId","type":"uint256","internalType":"uint256"},{"name":"amount","type":"uint256","internalType":"uint256"}],"outputs":[],"stateMutability":"nonpayable"},{"type":"function","name":"recordInvoiceSubmitted","inputs":[{"name":"businessId","type":"uint256","internalType":"uint256"}],"outputs":[],"stateMutability":"nonpayable"},{"type":"function","name":"recordRepayment","inputs":[{"name":"businessId","type":"uint256","internalType":"uint256"},{"name":"amount","type":"uint256","internalType":"uint256"},{"name":"onTime","type":"bool","internalType":"bool"}],"outputs":[],"stateMutability":"nonpayable"},{"type":"function","name":"registerBusiness","inputs":[{"name":"businessHash","type":"bytes32","internalType":"bytes32"},{"name":"businessURI","type":"string","internalType":"string"}],"outputs":[{"name":"","type":"uint256","internalType":"uint256"}],"stateMutability":"nonpayable"},{"type":"function","name":"reinstateBusiness","inputs":[{"name":"businessId","type":"uint256","internalType":"uint256"}],"outputs":[],"stateMutability":"nonpayable"},{"type":"function","name":"removeAuthorizedSigner","inputs":[{"name":"businessId","type":"uint256","internalType":"uint256"},{"name":"signer","type":"address","internalType":"address"}],"outputs":[],"stateMutability":"nonpayable"},{"type":"function","name":"renounceRole","inputs":[{"name":"role","type":"bytes32","internalType":"bytes32"},{"name":"callerConfirmation","type":"address","internalType":"address"}],"outputs":[],"stateMutability":"nonpayable"},{"type":"function","name":"revokeRole","inputs":[{"name":"role","type":"bytes32","internalType":"bytes32"},{"name":"account","type":"address","internalType":"address"}],"outputs":[],"stateMutability":"nonpayable"},{"type":"function","name":"supportsInterface","inputs":[{"name":"interfaceId","type":"bytes4","internalType":"bytes4"}],"outputs":[{"name":"","type":"bool","internalType":"bool"}],"stateMutability":"view"},{"type":"function","name":"suspendBusiness","inputs":[{"name":"businessId","type":"uint256","internalType":"uint256"},{"name":"reason","type":"string","internalType":"string"}],"outputs":[],"stateMutability":"nonpayable"},{"type":"function","name":"updateCreditScore","inputs":[{"name":"businessId","type":"uint256","internalType":"uint256"},{"name":"newScore","type":"uint256","internalType":"uint256"}],"outputs":[],"stateMutability":"nonpayable"},{"type":"function","name":"verifyBusiness","inputs":[{"name":"businessId","type":"uint256","internalType":"uint256"},{"name":"zkProofHash","type":"bytes32","internalType":"bytes32"},{"name":"initialCreditScore","type":"uint256","internalType":"uint256"}],"outputs":[],"stateMutability":"nonpayable"},{"type":"event","name":"AuthorizedSignerAdded","inputs":[{"name":"businessId","type":"uint256","indexed":true,"internalType":"uint256"},{"name":"signer","type":"address","indexed":false,"internalType":"address"}],"anonymous":false},{"type":"event","name":"AuthorizedSignerRemoved","inputs":[{"name":"businessId","type":"uint256","indexed":true,"internalType":"uint256"},{"name":"signer","type":"address","indexed":false,"internalType":"address"}],"anonymous":false},{"type":"event","name":"BusinessBlacklisted","inputs":[{"name":"businessId","type":"uint256","indexed":true,"internalType":"uint256"},{"name":"reason","type":"string","indexed":false,"internalType":"string"}],"anonymous":false},{"type":"event","name":"BusinessRegistered","inputs":[{"name":"businessId","type":"uint256","indexed":true,"internalType":"uint256"},{"name":"owner","type":"address","indexed":true,"internalType":"address"}],"anonymous":false},{"type":"event","name":"BusinessStatusUpdated","inputs":[{"name":"businessId","type":"uint256","indexed":true,"internalType":"uint256"},{"name":"oldStatus","type":"uint8","indexed":false,"internalType":"enum BusinessRegistry.BusinessStatus"},{"name":"newStatus","type":"uint8","indexed":false,"internalType":"enum BusinessRegistry.BusinessStatus"}],"anonymous":false},{"type":"event","name":"BusinessSuspended","inputs":[{"name":"businessId","type":"uint256","indexed":true,"internalType":"uint256"},{"name":"reason","type":"string","indexed":false,"internalType":"string"}],"anonymous":false},{"type":"event","name":"BusinessVerified","inputs":[{"name":"businessId","type":"uint256","indexed":true,"internalType":"uint256"},{"name":"creditScore","type":"uint256","indexed":false,"internalType":"uint256"}],"anonymous":false},{"type":"event","name":"CreditScoreUpdated","inputs":[{"name":"businessId","type":"uint256","indexed":true,"internalType":"uint256"},{"name":"oldScore","type":"uint256","indexed":false,"internalType":"uint256"},{"name":"newScore","type":"uint256","indexed":false,"internalType":"uint256"}],"anonymous":false},{"type":"event","name":"RoleAdminChanged","inputs":[{"name":"role","type":"bytes32","indexed":true,"internalType":"bytes32"},{"name":"previousAdminRole","type":"bytes32","indexed":true,"internalType":"bytes32"},{"name":"newAdminRole","type":"bytes32","indexed":true,"internalType":"bytes32"}],"anonymous":false},{"type":"event","name":"RoleGranted","inputs":[{"name":"role","type":"bytes32","indexed":true,"internalType":"bytes32"},{"name":"account","type":"address","indexed":true,"internalType":"address"},{"name":"sender","type":"address","indexed":true,"internalType":"address"}],"anonymous":false},{"type":"event","name":"RoleRevoked","inputs":[{"name":"role","type":"bytes32","indexed":true,"internalType":"bytes32"},{"name":"account","type":"address","indexed":true,"internalType":"address"},{"name":"sender","type":"address","indexed":true,"internalType":"address"}],"anonymous":false},{"type":"event","name":"StatsUpdated","inputs":[{"name":"businessId","type":"uint256","indexed":true,"internalType":"uint256"}],"anonymous":false},{"type":"error","name":"AccessControlBadConfirmation","inputs":[]},{"type":"error","name":"AccessControlUnauthorizedAccount","inputs":[{"name":"account","type":"address","internalType":"address"},{"name":"neededRole","type":"bytes32","internalType":"bytes32"}]},{"type":"error","name":"BusinessAlreadyExists","inputs":[]},{"type":"error","name":"BusinessBlacklistedError","inputs":[]},{"type":"error","name":"BusinessNotFound","inputs":[]},{"type":"error","name":"BusinessNotVerified","inputs":[]},{"type":"error","name":"BusinessSuspendedError","inputs":[]},{"type":"error","name":"CannotRemoveLastSigner","inputs":[]},{"type":"error","name":"InvalidCreditScore","inputs":[]},{"type":"error","name":"NotAuthorizedSigner","inputs":[]},{"type":"error","name":"NotBusinessOwner","inputs":[]},{"type":"error","name":"ZeroAddress","inputs":[]}],"bytecode":{"object":"0x608060405234610026576100123361002b565b5060018055604051611c6290816100bc8239f35b600080fd5b6001600160a01b031660008181527fad3228b676f7d3cd4284a5443f17f1962b36e491b30a40b2405849e597ba5fb5602052604081205490919060ff166100b757818052816020526040822081835260205260408220600160ff1982541617905533917f2f8788117e7eff1d82e926ec794901d17c78024a50270940304540a733656f0d8180a4600190565b509056fe608080604052600436101561001357600080fd5b60003560e01c90816301ffc9a7146114bd575080630a49cf4d146114a15780630b2baf40146112df5780631746a3f1146112c157806318dd2a1214610510578063198fc29c146112a5578063248a9ca314611276578063255b03ec1461114b5780632f2ff15d1461110c57806336568abe146110c557806337a0123014610fc45780634d7439cb14610cb15780635adc0d2714610bf55780636590db5114610b495780636c47bfd21461092657806378d8b304146108fd57806378fabb11146108bf5780637f43cf181461074b57806385f0daf41461071b5780638dabe6661461062757806391d14854146105da578063a0aa909414610531578063a217fddf14610515578063a7c802bf14610510578063b2ec587b146104ea578063b81cab4b146104ce578063c05958da14610403578063d03d421c14610309578063d26d75531461029a578063d547741f14610259578063e552d3ba146101f2578063e7705db6146101c95763ec487ca41461018a57600080fd5b346101c45760003660031901126101c45760206040517e9817c221cc98cf8539dd285e3fc05cbf4d20927bed0807d8fc76de41d18fa48152f35b600080fd5b346101c45760003660031901126101c4576020604051600080516020611c0d8339815191528152f35b346101c45760203660031901126101c45760043561020e61192c565b5061021881611af4565b15610247576000526002602052610100610238600760406000200161196a565b6102456040518092611584565bf35b60405163e042642b60e01b8152600490fd5b346101c45760403660031901126101c457610298600435610278611510565b908060005260006020526102936001604060002001546116e7565b61178b565b005b346101c4576102a83661163c565b6102b0611652565b6102b982611af4565b1561024757816000526002602052604060002090600882016102db8154611800565b90556102ec600983019182546118f7565b9055601242910155600080516020611bed833981519152600080a2005b346101c45760603660031901126101c45760043560443580151581036101c457610331611652565b61033a82611af4565b1561024757816000526002602052604060002090600a820161035f60243582546118f7565b9055156103ee57600b81016103748154611800565b90555b60124291015580600080516020611bed833981519152600080a2600052600260205260406000206103b1600c600b830154920154826118f7565b60058110156103bc57005b6064820291808304606414901517156103d85761029891611a7a565b634e487b7160e01b600052601160045260246000fd5b600c81016103fc8154611800565b9055610377565b346101c45760203660031901126101c45760043561041f6116ad565b61042881611af4565b15610247578060005260026020526040600020600f8101805460ff81169060058210156104b1576003821461045957005b6007840154156104c75760025b60058110156104b157600080516020611b6d833981519152946040946104ae9360ff84169060ff19161790556012429101556104a4845180946115cf565b60208301906115cf565ba2005b634e487b7160e01b600052602160045260246000fd5b6001610466565b346101c45760003660031901126101c457602060405160038152f35b346101c45760203660031901126101c4576020610508600435611a9a565b604051908152f35b611526565b346101c45760003660031901126101c457602060405160008152f35b346101c45761053f36611609565b6105476116ad565b61055083611af4565b156102475760ff6105d0600080516020611b6d83398151915293857f792acd44c2d612b4cc490bdf9150a9e134cfdf5922f57cf16d780051d657b4f76040958260005260026020528660002093600f8501948554956004891988161790556012429101556105c2885192839283611904565b0390a28351928391166115cf565b60046020820152a2005b346101c45760403660031901126101c4576105f3611510565b600435600052600060205260406000209060018060a01b0316600052602052602060ff604060002054166040519015158152f35b346101c45760203660031901126101c457600435610643611652565b61064c81611af4565b156102475780600052600260205260406000206003600d820161066f8154611800565b80915542601284015583600080516020611bed833981519152600080a2101590816106ff575b5061069c57005b60408051908101916001600160401b038311828410176106e95761029892604052601a825279111959985d5b1d081d1a1c995cda1bdb1908195e18d95959195960321b6020830152611b07565b634e487b7160e01b600052604160045260246000fd5b60ff9150600f01541660058110156104b1576003141582610695565b346101c45760403660031901126101c4576020610741610739611510565b600435611a3d565b6040519015158152f35b346101c4576107593661163c565b3360009081527fb9bd04cb891bd5dffd6c5615f01237972bbe045ba7ce36be5a1e206ec31a2d0f6020526040902054600080516020611bcd8339815191529060ff16156108a157506107aa82611af4565b15610247576064811161088f578160005260026020526014604060002091837fc5fc4bfbf16a570f3895fbe4f01a26916ca47bfe7f9d11e96c937dcc2ec5f7b460406006860184815491554260128801558151908152846020820152a2109081610873575b5061081657005b60405160608101916001600160401b038311828410176106e95761029892604052602482527f4372656469742073636f72652062656c6f77206d696e696d756d2074687265736020830152631a1bdb1960e21b6040830152611b07565b60ff9150600f01541660058110156104b157600314158261080f565b6040516301069b4760e21b8152600490fd5b6044906040519063e2517d3f60e01b82523360048301526024820152fd5b346101c45760203660031901126101c4576004356001600160a01b038116908190036101c45760005260036020526020604060002054604051908152f35b346101c45760003660031901126101c4576020604051600080516020611bcd8339815191528152f35b346101c45760403660031901126101c4576001600160401b036024358181116101c4576109579036906004016115dc565b903360005260209260038452604060002054610b375760019081549361097c85611800565b83556000858152600287526040902085815580840180546001600160a01b03191633179055600435600382015593600585019282116106e95781906109c1845461180f565b601f8111610ae4575b50600090601f8311600114610a8157600092610a76575b5050600019600383901b1c191690831b1790555b610a1d600f83019260ff19938481541690554260108201554260128201556002339101611877565b8260005260048452604060002033600052845260406000209182541617905560038252806040600020556040519033817ff9edab00f81e4ba66cc0bbd8159100e8cf6336ede85207d9593f81905b5f9520600080a38152f35b0135905087806109e1565b859350601f1983169185600052896000209260005b8b828210610ace5750508411610ab4575b505050811b0190556109f5565b0135600019600384901b60f8161c19169055878080610aa7565b8385013586558997909501949283019201610a96565b9091508360005287600020601f840160051c810191898510610b2d575b84939291601f88920160051c01915b828110610b1e5750506109ca565b60008155859450879101610b10565b9091508190610b01565b604051633d9dee6760e21b8152600490fd5b346101c457610b5736611609565b610b5f6116ad565b610b6883611af4565b1561024757826000526002602052604060002090600f8201805460ff81169260058410156104b15760048403610b9a57005b600080516020611b6d8339815191529560409588946003600080516020611b8d8339815191529560ff1916179055601242910155610bdc865192839283611904565b0390a2610beb825180926115cf565b60036020820152a2005b346101c45760203660031901126101c457600435610c11611652565b610c1a81611af4565b1561024757806000526002602052600f604060002060078101610c3d8154611800565b90554260128201550180549060ff82169160058310156104b157826001859414610c78575b83600080516020611bed833981519152600080a2005b600080516020611b6d83398151915292600260409360ff1916179055610ca0825180926115cf565b60026020820152a280828080610c62565b346101c45760203660031901126101c4576004356000610160604051610cd68161189c565b82815282602082015260606040820152826060820152826080820152606060a08201528260c0820152610d0761192c565b60e08201528261010082015282610120820152826101408201520152610d2c81611af4565b15610247576000526002602052604060002060405190610d4b8261189c565b8054825260018060a01b036001820154166020830152600281016040518082602082945493848152019060005260206000209260005b818110610fa2575050610d96925003826118d4565b604083015260038101546060830152600481015460808301526005810160405190816000825492610dc68461180f565b8084529360018116908115610f805750600114610f39575b50610deb925003826118d4565b60a0830152600681015460c0830152610e066007820161196a565b60e083015260ff600f820154169060058210156104b157601291610100840152601081015461012084015260118101546101408401520154610160820152604051602081528151602082015260018060a01b0360208301511660408201526040820151916102608060608401526102808301845180915260206102a0850195019060005b818110610f1a57505050610160610ec6849560608501516080870152608085015160a087015260a0850151601f198783030160c0880152611544565b9260c081015160e0860152610ee460e0820151610100870190611584565b610ef86101008201516102008701906115cf565b6101208101516102208601526101408101516102408601520151908301520390f35b82516001600160a01b0316875260209687019690920191600101610e8a565b90506000929192526020600020906000915b818310610f64575050906020610deb9282010186610dde565b6020919350806001915483858801015201910190918392610f4b565b905060209250610deb94915060ff191682840152151560051b82010186610dde565b84546001600160a01b0316835260019485019486945060209093019201610d81565b346101c45760403660031901126101c457600435610fe0611510565b610fe982611af4565b15610247578160005260206002815260018060a01b03806001604060002001541633036110b357821680156110a1578360005260048252604060002081600052825260ff604060002054161561103b57005b6110757f372d2506277b9239eb143f4269182a05fccd85d63d4aea2e0132e3367e611a0b9385600052600284526002604060002001611877565b836000526004825260406000208160005282526040600020600160ff19825416179055604051908152a2005b60405163d92e233d60e01b8152600490fd5b60405163b88b98e960e01b8152600490fd5b346101c45760403660031901126101c4576110de611510565b336001600160a01b038216036110fa576102989060043561178b565b60405163334bd91960e11b8152600490fd5b346101c45760403660031901126101c45761029860043561112b611510565b908060005260006020526111466001604060002001546116e7565b61170d565b346101c45760603660031901126101c4573360009081527f1da0b5176dfe03406af5a6eed66ca01dda9b45ac4da671c3fa379cb93717ef8160205260409020546004359060443590600080516020611c0d8339815191529060ff16156108a157506111b582611af4565b15610247576064811161088f57816000526002602052604060002090600f82019182549260ff84169160058310156104b1578261126457602060409487936001600080516020611b6d833981519152987fa97fc0f474301bf871f8a085f78f2b9eb1ea68c3b1b596b56114a96591e7be7195602435600482015584600682015542601182015560124291015560ff19161790558551908152a261125a825180926115cf565b60016020820152a2005b604051634eddfb7960e01b8152600490fd5b346101c45760203660031901126101c45760043560005260006020526020600160406000200154604051908152f35b346101c45760003660031901126101c457602060405160328152f35b346101c45760203660031901126101c4576020610741600435611a0c565b346101c45760403660031901126101c4576004356112fb611510565b61130482611af4565b15610247578160005260206002815260018060a01b03916001928084604060002001541633036110b35784600052600283526002604060002001848154111561148f57856000526004845281604060002093169283600052845260ff6040600020541661136d57005b6000855b6113b3575b505050600080516020611bad833981519152925083600052600482526040600020816000528252604060002060ff198154169055604051908152a2005b815480821015611489578390856113ca8486611849565b939054600394851b1c16146113ea5750506113e490611800565b85611371565b60001997509093918782019182116103d85761141b8361140d61143a9487611849565b905490881b1c169185611849565b90919082549060031b9160018060a01b03809116831b921b1916179055565b815495861561147357600080516020611bad83398151915296019261145f8484611849565b81939154921b1b1916905555848080611376565b634e487b7160e01b600052603160045260246000fd5b50611376565b60405163c4c8547360e01b8152600490fd5b346101c45760003660031901126101c457602060405160148152f35b346101c45760203660031901126101c4576004359063ffffffff60e01b82168092036101c457602091637965db0b60e01b81149081156114ff575b5015158152f35b6301ffc9a760e01b149050836114f8565b602435906001600160a01b03821682036101c457565b346101c45760203660031901126101c45760206107416004356119c4565b919082519283825260005b848110611570575050826000602080949584010152601f8019910116010190565b60208183018101518483018201520161154f565b60e08091805184526020810151602085015260408101516040850152606081015160608501526080810151608085015260a081015160a085015260c081015160c08501520151910152565b9060058210156104b15752565b9181601f840112156101c4578235916001600160401b0383116101c457602083818601950101116101c457565b9060406003198301126101c45760043591602435906001600160401b0382116101c457611638916004016115dc565b9091565b60409060031901126101c4576004359060243590565b3360009081527f96fb76514e2c02587c10386f03768718ed683639a5d00da6479e668c89e9693860205260409020547e9817c221cc98cf8539dd285e3fc05cbf4d20927bed0807d8fc76de41d18fa49060ff16156108a15750565b3360009081527fad3228b676f7d3cd4284a5443f17f1962b36e491b30a40b2405849e597ba5fb5602052604081205460ff16156108a15750565b80600052600060205260406000203360005260205260ff60406000205416156108a15750565b9060009180835282602052604083209160018060a01b03169182845260205260ff6040842054161560001461178657808352826020526040832082845260205260408320600160ff198254161790557f2f8788117e7eff1d82e926ec794901d17c78024a50270940304540a733656f0d339380a4600190565b505090565b9060009180835282602052604083209160018060a01b03169182845260205260ff6040842054166000146117865780835282602052604083208284526020526040832060ff1981541690557ff6391f5c32d9c69d2a47ea670b442974b53935d1edc7fd64eb21e047a839171b339380a4600190565b60001981146103d85760010190565b90600182811c9216801561183f575b602083101461182957565b634e487b7160e01b600052602260045260246000fd5b91607f169161181e565b80548210156118615760005260206000200190600090565b634e487b7160e01b600052603260045260246000fd5b80549190600160401b8310156106e9578261141b91600161189a95018155611849565b565b61018081019081106001600160401b038211176106e957604052565b61010081019081106001600160401b038211176106e957604052565b601f909101601f19168101906001600160401b038211908210176106e957604052565b919082018092116103d857565b90918060409360208452816020850152848401376000828201840152601f01601f1916010190565b60405190611939826118b8565b8160e06000918281528260208201528260408201528260608201528260808201528260a08201528260c08201520152565b90604051611977816118b8565b60e0600782948054845260018101546020850152600281015460408501526003810154606085015260048101546080850152600581015460a0850152600681015460c08501520154910152565b6119cd81611af4565b15611a0657600052600260205260ff600f604060002001541660058110156104b157600181149081156119fe575090565b600291501490565b50600090565b611a1581611af4565b15611a0657600052600260205260ff600f604060002001541660058110156104b15760021490565b611a4681611af4565b15611a7357600052600460205260406000209060018060a01b031660005260205260ff6040600020541690565b5050600090565b8115611a84570490565b634e487b7160e01b600052601260045260246000fd5b611aa381611af4565b156102475760005260026020526040600020611ac8600c600b830154920154826118f7565b8015611aed576064820291808304606414901517156103d857611aea91611a7a565b90565b5050606490565b6000526002602052604060002054151590565b90604060ff611b62600080516020611b6d8339815191529385600052600260205285600080516020611b8d8339815191526105c2600f8760002001938454946003881987161790558751918291602083526020830190611544565b60036020820152a256fe3e5d8b8a8833997ef00c2c2080979ca2906a0150b17bd9c028203ae07644bdaed9be79204837c074547a016e6e320b22932eef0bdfc48db60651016a9c6cddbbfafc6fced26590dcbed387f95e7401ff3fa637e0369735d7ac5036c0a5e121cca7e1a9382f0c489455b927ee2f44428a4acc29f26b04cef9a1ec3bc50444de076f479164c87fba6fdd2f427bfb98f653d9a754ee30a7d158c117e6909b52809e0ce23c3e399818cfee81a7ab0880f714e53d7672b08df0fa62f2843416e1ea09a2646970667358221220f4b43a1c360e1681bd74d04a451b43c00e439b96802ce693e6a83a5f9d6e41a564736f6c63430008140033","linkReferences":{}},"methodIdentifiers":{"CREDIT_UPDATER_ROLE()":"78d8b304","DEFAULT_ADMIN_ROLE()":"a217fddf","DEFAULT_THRESHOLD()":"b81cab4b","MIN_CREDIT_SCORE()":"0a49cf4d","MIN_REPAYMENT_RATE()":"198fc29c","STATS_UPDATER_ROLE()":"ec487ca4","VERIFIER_ROLE()":"e7705db6","addAuthorizedSigner(uint256,address)":"37a01230","blacklistBusiness(uint256,string)":"a0aa9094","canSubmitInvoices(uint256)":"a7c802bf","getBusiness(uint256)":"4d7439cb","getBusinessByOwner(address)":"78fabb11","getBusinessStats(uint256)":"e552d3ba","getRepaymentRate(uint256)":"b2ec587b","getRoleAdmin(bytes32)":"248a9ca3","grantRole(bytes32,address)":"2f2ff15d","hasRole(bytes32,address)":"91d14854","isAuthorizedSigner(uint256,address)":"85f0daf4","isBusinessActive(uint256)":"1746a3f1","isBusinessVerified(uint256)":"18dd2a12","recordDefault(uint256)":"8dabe666","recordInvoiceFunded(uint256,uint256)":"d26d7553","recordInvoiceSubmitted(uint256)":"5adc0d27","recordRepayment(uint256,uint256,bool)":"d03d421c","registerBusiness(bytes32,string)":"6c47bfd2","reinstateBusiness(uint256)":"c05958da","removeAuthorizedSigner(uint256,address)":"0b2baf40","renounceRole(bytes32,address)":"36568abe","revokeRole(bytes32,address)":"d547741f","supportsInterface(bytes4)":"01ffc9a7","suspendBusiness(uint256,string)":"6590db51","updateCreditScore(uint256,uint256)":"7f43cf18","verifyBusiness(uint256,bytes32,uint256)":"255b03ec"},"id":40}