{"abi":[{"type":"constructor","inputs":[],"stateMutability":"nonpayable"},{"type":"function","name":"CREDIT_UPDATER_ROLE","inputs":[],"outputs":[{"name":"","type":"bytes32","internalType":"bytes32"}],"stateMutability":"view"},{"type":"function","name":"DEFAULT_ADMIN_ROLE","inputs":[],"outputs":[{"name":"","type":"bytes32","internalType":"bytes32"}],"stateMutability":"view"},{"type":"function","name":"DEFAULT_THRESHOLD","inputs":[],"outputs":[{"name":"","type":"uint256","internalType":"uint256"}],"stateMutability":"view"},{"type":"function","name":"MIN_CREDIT_SCORE","inputs":[],"outputs":[{"name":"","type":"uint256","internalType":"uint256"}],"stateMutability":"view"},{"type":"function","name":"MIN_REPAYMENT_RATE","inputs":[],"outputs":[{"name":"","type":"uint256","internalType":"uint256"}],"stateMutability":"view"},{"type":"function","name":"STATS_UPDATER_ROLE","inputs":[],"outputs":[{"name":"","type":"bytes32","internalType":"bytes32"}],"stateMutability":"view"},{"type":"function","name":"VERIFIER_ROLE","inputs":[],"outputs":[{"name":"","type":"bytes32","internalType":"bytes32"}],"stateMutability":"view"},{"type":"function","name":"addAuthorizedSigner","inputs":[{"name":"businessId","type":"uint256","internalType":"uint256"},{"name":"signer","type":"address","internalType":"address"}],"outputs":[],"stateMutability":"nonpayable"},{"type":"function","name":"blacklistBusiness","inputs":[{"name":"businessId","type":"uint256","internalType":"uint256"},{"name":"reason","type":"string","internalType":"string"}],"outputs":[],"stateMutability":"nonpayable"},{"type":"function","name":"canSubmitInvoices","inputs":[{"name":"businessId","type":"uint256","internalType":"uint256"}],"outputs":[{"name":"","type":"bool","internalType":"bool"}],"stateMutability":"view"},{"type":"function","name":"getBusiness","inputs":[{"name":"businessId","type":"uint256","internalType":"uint256"}],"outputs":[{"name":"","type":"tuple","internalType":"struct BusinessRegistry.Business","components":[{"name":"businessId","type":"uint256","internalType":"uint256"},{"name":"owner","type":"address","internalType":"address"},{"name":"authorizedSigners","type":"address[]","internalType":"address[]"},{"name":"businessHash","type":"bytes32","internalType":"bytes32"},{"name":"zkProofHash","type":"bytes32","internalType":"bytes32"},{"name":"businessURI","type":"string","internalType":"string"},{"name":"creditScore","type":"uint256","internalType":"uint256"},{"name":"stats","type":"tuple","internalType":"struct BusinessRegistry.BusinessStats","components":[{"name":"totalInvoicesSubmitted","type":"uint256","internalType":"uint256"},{"name":"totalInvoicesFunded","type":"uint256","internalType":"uint256"},{"name":"totalValueFunded","type":"uint256","internalType":"uint256"},{"name":"totalValueRepaid","type":"uint256","internalType":"uint256"},{"name":"successfulRepayments","type":"uint256","internalType":"uint256"},{"name":"lateRepayments","type":"uint256","internalType":"uint256"},{"name":"defaults","type":"uint256","internalType":"uint256"},{"name":"averageDaysToCollection","type":"uint256","internalType":"uint256"}]},{"name":"status","type":"uint8","internalType":"enum BusinessRegistry.BusinessStatus"},{"name":"registeredAt","type":"uint256","internalType":"uint256"},{"name":"verifiedAt","type":"uint256","internalType":"uint256"},{"name":"lastActivityAt","type":"uint256","internalType":"uint256"}]}],"stateMutability":"view"},{"type":"function","name":"getBusinessByOwner","inputs":[{"name":"owner","type":"address","internalType":"address"}],"outputs":[{"name":"","type":"uint256","internalType":"uint256"}],"stateMutability":"view"},{"type":"function","name":"getBusinessStats","inputs":[{"name":"businessId","type":"uint256","internalType":"uint256"}],"outputs":[{"name":"","type":"tuple","internalType":"struct BusinessRegistry.BusinessStats","components":[{"name":"totalInvoicesSubmitted","type":"uint256","internalType":"uint256"},{"name":"totalInvoicesFunded","type":"uint256","internalType":"uint256"},{"name":"totalValueFunded","type":"uint256","internalType":"uint256"},{"name":"totalValueRepaid","type":"uint256","internalType":"uint256"},{"name":"successfulRepayments","type":"uint256","internalType":"uint256"},{"name":"lateRepayments","type":"uint256","internalType":"uint256"},{"name":"defaults","type":"uint256","internalType":"uint256"},{"name":"averageDaysToCollection","type":"uint256","internalType":"uint256"}]}],"stateMutability":"view"},{"type":"function","name":"getRepaymentRate","inputs":[{"name":"businessId","type":"uint256","internalType":"uint256"}],"outputs":[{"name":"","type":"uint256","internalType":"uint256"}],"stateMutability":"view"},{"type":"function","name":"getRoleAdmin","inputs":[{"name":"role","type":"bytes32","internalType":"bytes32"}],"outputs":[{"name":"","type":"bytes32","internalType":"bytes32"}],"stateMutability":"view"},{"type":"function","name":"grantRole","inputs":[{"name":"role","type":"bytes32","internalType":"bytes32"},{"name":"account","type":"address","internalType":"address"}],"outputs":[],"stateMutability":"nonpayable"},{"type":"function","name":"hasRole","inputs":[{"name":"role","type":"bytes32","internalType":"bytes32"},{"name":"account","type":"address","internalType":"address"}],"outputs":[{"name":"","type":"bool","internalType":"bool"}],"stateMutability":"view"},{"type":"function","name":"isAuthorizedSigner","inputs":[{"name":"businessId","type":"uint256","internalType":"uint256"},{"name":"signer","type":"address","internalType":"address"}],"outputs":[{"name":"","type":"bool","internalType":"bool"}],"stateMutability":"view"},{"type":"function","name":"isBusinessActive","inputs":[{"name":"businessId","type":"uint256","internalType":"uint256"}],"outputs":[{"name":"","type":"bool","internalType":"bool"}],"stateMutability":"view"},{"type":"function","name":"isBusinessVerified","inputs":[{"name":"businessId","type":"uint256","internalType":"uint256"}],"outputs":[{"name":"","type":"bool","internalType":"bool"}],"stateMutability":"view"},{"type":"function","name":"recordDefault","inputs":[{"name":"businessId","type":"uint256","internalType":"uint256"}],"outputs":[],"stateMutability":"nonpayable"},{"type":"function","name":"recordInvoiceFunded","inputs":[{"name":"businessId","type":"uint256","internalType":"uint256"},{"name":"amount","type":"uint256","internalType":"uint256"}],"outputs":[],"stateMutability":"nonpayable"},{"type":"function","name":"recordInvoiceSubmitted","inputs":[{"name":"businessId","type":"uint256","internalType":"uint256"}],"outputs":[],"stateMutability":"nonpayable"},{"type":"function","name":"recordRepayment","inputs":[{"name":"businessId","type":"uint256","internalType":"uint256"},{"name":"amount","type":"uint256","internalType":"uint256"},{"name":"onTime","type":"bool","internalType":"bool"}],"outputs":[],"stateMutability":"nonpayable"},{"type":"function","name":"registerBusiness","inputs":[{"name":"businessHash","type":"bytes32","internalType":"bytes32"},{"name":"businessURI","type":"string","internalType":"string"}],"outputs":[{"name":"","type":"uint256","internalType":"uint256"}],"stateMutability":"nonpayable"},{"type":"function","name":"reinstateBusiness","inputs":[{"name":"businessId","type":"uint256","internalType":"uint256"}],"outputs":[],"stateMutability":"nonpayable"},{"type":"function","name":"removeAuthorizedSigner","inputs":[{"name":"businessId","type":"uint256","internalType":"uint256"},{"name":"signer","type":"address","internalType":"address"}],"outputs":[],"stateMutability":"nonpayable"},{"type":"function","name":"renounceRole","inputs":[{"name":"role","type":"bytes32","internalType":"bytes32"},{"name":"callerConfirmation","type":"address","internalType":"address"}],"outputs":[],"stateMutability":"nonpayable"},{"type":"function","name":"revokeRole","inputs":[{"name":"role","type":"bytes32","internalType":"bytes32"},{"name":"account","type":"address","internalType":"address"}],"outputs":[],"stateMutability":"nonpayable"},{"type":"function","name":"supportsInterface","inputs":[{"name":"interfaceId","type":"bytes4","internalType":"bytes4"}],"outputs":[{"name":"","type":"bool","internalType":"bool"}],"stateMutability":"view"},{"type":"function","name":"suspendBusiness","inputs":[{"name":"businessId","type":"uint256","internalType":"uint256"},{"name":"reason","type":"string","internalType":"string"}],"outputs":[],"stateMutability":"nonpayable"},{"type":"function","name":"updateCreditScore","inputs":[{"name":"businessId","type":"uint256","internalType":"uint256"},{"name":"newScore","type":"uint256","internalType":"uint256"}],"outputs":[],"stateMutability":"nonpayable"},{"type":"function","name":"verifyBusiness","inputs":[{"name":"businessId","type":"uint256","internalType":"uint256"},{"name":"zkProofHash","type":"bytes32","internalType":"bytes32"},{"name":"initialCreditScore","type":"uint256","internalType":"uint256"}],"outputs":[],"stateMutability":"nonpayable"},{"type":"event","name":"AuthorizedSignerAdded","inputs":[{"name":"businessId","type":"uint256","indexed":true,"internalType":"uint256"},{"name":"signer","type":"address","indexed":false,"internalType":"address"}],"anonymous":false},{"type":"event","name":"AuthorizedSignerRemoved","inputs":[{"name":"businessId","type":"uint256","indexed":true,"internalType":"uint256"},{"name":"signer","type":"address","indexed":false,"internalType":"address"}],"anonymous":false},{"type":"event","name":"BusinessBlacklisted","inputs":[{"name":"businessId","type":"uint256","indexed":true,"internalType":"uint256"},{"name":"reason","type":"string","indexed":false,"internalType":"string"}],"anonymous":false},{"type":"event","name":"BusinessRegistered","inputs":[{"name":"businessId","type":"uint256","indexed":true,"internalType":"uint256"},{"name":"owner","type":"address","indexed":true,"internalType":"address"}],"anonymous":false},{"type":"event","name":"BusinessStatusUpdated","inputs":[{"name":"businessId","type":"uint256","indexed":true,"internalType":"uint256"},{"name":"oldStatus","type":"uint8","indexed":false,"internalType":"enum BusinessRegistry.BusinessStatus"},{"name":"newStatus","type":"uint8","indexed":false,"internalType":"enum BusinessRegistry.BusinessStatus"}],"anonymous":false},{"type":"event","name":"BusinessSuspended","inputs":[{"name":"businessId","type":"uint256","indexed":true,"internalType":"uint256"},{"name":"reason","type":"string","indexed":false,"internalType":"string"}],"anonymous":false},{"type":"event","name":"BusinessVerified","inputs":[{"name":"businessId","type":"uint256","indexed":true,"internalType":"uint256"},{"name":"creditScore","type":"uint256","indexed":false,"internalType":"uint256"}],"anonymous":false},{"type":"event","name":"CreditScoreUpdated","inputs":[{"name":"businessId","type":"uint256","indexed":true,"internalType":"uint256"},{"name":"oldScore","type":"uint256","indexed":false,"internalType":"uint256"},{"name":"newScore","type":"uint256","indexed":false,"internalType":"uint256"}],"anonymous":false},{"type":"event","name":"RoleAdminChanged","inputs":[{"name":"role","type":"bytes32","indexed":true,"internalType":"bytes32"},{"name":"previousAdminRole","type":"bytes32","indexed":true,"internalType":"bytes32"},{"name":"newAdminRole","type":"bytes32","indexed":true,"internalType":"bytes32"}],"anonymous":false},{"type":"event","name":"RoleGranted","inputs":[{"name":"role","type":"bytes32","indexed":true,"internalType":"bytes32"},{"name":"account","type":"address","indexed":true,"internalType":"address"},{"name":"sender","type":"address","indexed":true,"internalType":"address"}],"anonymous":false},{"type":"event","name":"RoleRevoked","inputs":[{"name":"role","type":"bytes32","indexed":true,"internalType":"bytes32"},{"name":"account","type":"address","indexed":true,"internalType":"address"},{"name":"sender","type":"address","indexed":true,"internalType":"address"}],"anonymous":false},{"type":"event","name":"StatsUpdated","inputs":[{"name":"businessId","type":"uint256","indexed":true,"internalType":"uint256"}],"anonymous":false},{"type":"error","name":"AccessControlBadConfirmation","inputs":[]},{"type":"error","name":"AccessControlUnauthorizedAccount","inputs":[{"name":"account","type":"address","internalType":"address"},{"name":"neededRole","type":"bytes32","internalType":"bytes32"}]},{"type":"error","name":"BusinessAlreadyExists","inputs":[]},{"type":"error","name":"BusinessBlacklistedError","inputs":[]},{"type":"error","name":"BusinessNotFound","inputs":[]},{"type":"error","name":"BusinessNotVerified","inputs":[]},{"type":"error","name":"BusinessSuspendedError","inputs":[]},{"type":"error","name":"CannotRemoveLastSigner","inputs":[]},{"type":"error","name":"InvalidCreditScore","inputs":[]},{"type":"error","name":"NotAuthorizedSigner","inputs":[]},{"type":"error","name":"NotBusinessOwner","inputs":[]},{"type":"error","name":"ZeroAddress","inputs":[]}],"bytecode":{"object":"0x608060405234610026576100123361002a565b5060018055604051611c9090816100ba8239f35b5f80fd5b6001600160a01b03165f8181527fad3228b676f7d3cd4284a5443f17f1962b36e491b30a40b2405849e597ba5fb5602052604081205490919060ff166100b557818052816020526040822081835260205260408220600160ff1982541617905533917f2f8788117e7eff1d82e926ec794901d17c78024a50270940304540a733656f0d8180a4600190565b509056fe6080806040526004361015610012575f80fd5b5f3560e01c90816301ffc9a71461155c575080630a49cf4d146115415780630b2baf401461135f5780631746a3f11461134157806318dd2a1214610535578063198fc29c14611326578063248a9ca3146112fa578063255b03ec146111b55780632f2ff15d1461117957806336568abe1461113257806337a01230146110315780634d7439cb14610d1d5780635adc0d2714610c5a5780636590db5114610b935780636c47bfd21461098257806378d8b3041461094857806378fabb111461090c5780637f43cf181461077c57806385f0daf41461074c5780638dabe6661461064e57806391d1485414610606578063a0aa909414610554578063a217fddf1461053a578063a7c802bf14610535578063b2ec587b1461050f578063b81cab4b146104f4578063c05958da14610422578063d03d421c14610324578063d26d7553146102ad578063d547741f1461026f578063e552d3ba146101fe578063e7705db6146101c45763ec487ca414610187575f80fd5b346101c0575f3660031901126101c05760206040517e9817c221cc98cf8539dd285e3fc05cbf4d20927bed0807d8fc76de41d18fa48152f35b5f80fd5b346101c0575f3660031901126101c05760206040517f0ce23c3e399818cfee81a7ab0880f714e53d7672b08df0fa62f2843416e1ea098152f35b346101c05760203660031901126101c05760043561021a6119bd565b50610230815f52600260205260405f2054151590565b1561025d575f52600260205261010061024e600760405f20016119fa565b61025b6040518092611621565bf35b60405163e042642b60e01b8152600490fd5b346101c05760403660031901126101c0576102ab60043561028e6115af565b90805f525f6020526102a6600160405f200154611784565b611821565b005b346101c0576102bb366116db565b6102c36116f1565b6102d8825f52600260205260405f2054151590565b1561025d57815f52600260205260405f2090600882016102f88154611894565b905561030960098301918254611989565b90556012429101555f80516020611c3b8339815191525f80a2005b346101c05760603660031901126101c05760043560443580151581036101c05761034c6116f1565b610361825f52600260205260405f2054151590565b1561025d57815f52600260205260405f2090600a82016103846024358254611989565b90551561040d57600b81016103998154611894565b90555b601242910155805f80516020611c3b8339815191525f80a25f52600260205260405f206103d2600c600b83015492015482611989565b60058110156103dd57005b6064820291808304606414901517156103f9576102ab91611b24565b634e487b7160e01b5f52601160045260245ffd5b600c810161041b8154611894565b905561039c565b346101c05760203660031901126101c05760043561043e61174b565b610453815f52600260205260405f2054151590565b1561025d57805f52600260205260405f20600f8101805460ff81169060058210156104d9576003821461048257005b6007840154156104ed5760025b60058110156104d9575f80516020611c1b833981519152946040946104d69360ff84169060ff19161790556012429101556104cc8451809461166c565b602083019061166c565ba2005b634e487b7160e01b5f52602160045260245ffd5b600161048f565b346101c0575f3660031901126101c057602060405160038152f35b346101c05760203660031901126101c057602061052d600435611b42565b604051908152f35b6115c5565b346101c0575f3660031901126101c05760206040515f8152f35b346101c057610562366116a7565b61056a61174b565b61057f835f52600260205260405f2054151590565b1561025d5760ff6105fc5f80516020611c1b83398151915293857f792acd44c2d612b4cc490bdf9150a9e134cfdf5922f57cf16d780051d657b4f7604095825f526002602052865f2093600f8501948554956004891988161790556012429101556105ee885192839283611996565b0390a283519283911661166c565b60046020820152a2005b346101c05760403660031901126101c05761061f6115af565b6004355f525f60205260405f209060018060a01b03165f52602052602060ff60405f2054166040519015158152f35b346101c05760203660031901126101c05760043561066a6116f1565b61067f815f52600260205260405f2054151590565b1561025d57805f52600260205260405f206003600d82016106a08154611894565b809155426012840155835f80516020611c3b8339815191525f80a210159081610730575b506106cb57005b604051604081019181831067ffffffffffffffff84111761071c576102ab92604052601a82527f44656661756c74207468726573686f6c642065786365656465640000000000006020830152611ba6565b634e487b7160e01b5f52604160045260245ffd5b60ff9150600f01541660058110156104d95760031415826106c4565b346101c05760403660031901126101c057602061077261076a6115af565b600435611ae0565b6040519015158152f35b346101c05761078a366116db565b335f9081527fb9bd04cb891bd5dffd6c5615f01237972bbe045ba7ce36be5a1e206ec31a2d0f60205260409020547fa7e1a9382f0c489455b927ee2f44428a4acc29f26b04cef9a1ec3bc50444de079060ff16156108ee57506107f8825f52600260205260405f2054151590565b1561025d57606481116108dc57815f526002602052601460405f2091837fc5fc4bfbf16a570f3895fbe4f01a26916ca47bfe7f9d11e96c937dcc2ec5f7b460406006860184815491554260128801558151908152846020820152a21090816108c0575b5061086257005b604051606081019181831067ffffffffffffffff84111761071c576102ab92604052602482527f4372656469742073636f72652062656c6f77206d696e696d756d2074687265736020830152631a1bdb1960e21b6040830152611ba6565b60ff9150600f01541660058110156104d957600314158261085b565b6040516301069b4760e21b8152600490fd5b6044906040519063e2517d3f60e01b82523360048301526024820152fd5b346101c05760203660031901126101c0576004356001600160a01b038116908190036101c0575f526003602052602060405f2054604051908152f35b346101c0575f3660031901126101c05760206040517fa7e1a9382f0c489455b927ee2f44428a4acc29f26b04cef9a1ec3bc50444de078152f35b346101c05760403660031901126101c05767ffffffffffffffff6024358181116101c0576109b4903690600401611679565b90335f526020926003845260405f2054610b81576001908154936109d785611894565b83555f858152600287526040902085815580840180546001600160a01b031916331790556004356003820155936005850192821161071c578190610a1b84546118a2565b601f8111610b31575b505f90601f8311600114610ad2575f92610ac7575b50505f19600383901b1c191690831b1790555b610a74600f83019260ff19938481541690554260108201554260128201556002339101611903565b825f526004845260405f20335f52845260405f2091825416179055600382528060405f20556040519033817ff9edab00f81e4ba66cc0bbd8159100e8cf6336ede85207d9593f81905b5f95205f80a38152f35b013590508780610a39565b859350601f19831691855f52895f20925f5b8b828210610b1b5750508411610b02575b505050811b019055610a4c565b01355f19600384901b60f8161c19169055878080610af5565b8385013586558997909501949283019201610ae4565b909150835f52875f20601f840160051c810191898510610b77575b84939291601f88920160051c01915b828110610b69575050610a24565b5f8155859450879101610b5b565b9091508190610b4c565b604051633d9dee6760e21b8152600490fd5b346101c057610ba1366116a7565b610ba961174b565b610bbe835f52600260205260405f2054151590565b1561025d57825f52600260205260405f2090600f8201805460ff81169260058410156104d95760048403610bee57005b5f80516020611c1b83398151915295604095889460037fd9be79204837c074547a016e6e320b22932eef0bdfc48db60651016a9c6cddbb9560ff1916179055601242910155610c41865192839283611996565b0390a2610c508251809261166c565b60036020820152a2005b346101c05760203660031901126101c057600435610c766116f1565b610c8b815f52600260205260405f2054151590565b1561025d57805f526002602052600f60405f2060078101610cac8154611894565b90554260128201550180549060ff82169160058310156104d957826001859414610ce5575b835f80516020611c3b8339815191525f80a2005b5f80516020611c1b83398151915292600260409360ff1916179055610d0c8251809261166c565b60026020820152a280828080610cd1565b346101c05760203660031901126101c0576004355f610160604051610d418161192d565b82815282602082015260606040820152826060820152826080820152606060a08201528260c0820152610d726119bd565b60e08201528261010082015282610120820152826101408201520152610da3815f52600260205260405f2054151590565b1561025d575f52600260205260405f2060405190610dc08261192d565b8054825260018060a01b03600182015416602083015260028101604051808260208294549384815201905f5260205f20925f5b81811061100f575050610e0892500382611967565b604083015260038101546060830152600481015460808301526005810160405190815f825492610e37846118a2565b8084529360018116908115610fed5750600114610fa9575b50610e5c92500382611967565b60a0830152600681015460c0830152610e77600782016119fa565b60e083015260ff600f820154169060058210156104d957601291610100840152601081015461012084015260118101546101408401520154610160820152604051602081528151602082015260018060a01b0360208301511660408201526040820151916102608060608401526102808301845180915260206102a085019501905f5b818110610f8a57505050610160610f36849560608501516080870152608085015160a087015260a0850151601f198783030160c08801526115e3565b9260c081015160e0860152610f5460e0820151610100870190611621565b610f6861010082015161020087019061166c565b6101208101516102208601526101408101516102408601520151908301520390f35b82516001600160a01b0316875260209687019690920191600101610efa565b90505f9291925260205f20905f915b818310610fd1575050906020610e5c9282010186610e4f565b6020919350806001915483858801015201910190918392610fb8565b905060209250610e5c94915060ff191682840152151560051b82010186610e4f565b84546001600160a01b0316835260019485019486945060209093019201610df3565b346101c05760403660031901126101c05760043561104d6115af565b611062825f52600260205260405f2054151590565b1561025d57815f5260206002815260018060a01b0380600160405f200154163303611120578216801561110e57835f526004825260405f20815f52825260ff60405f205416156110ae57005b6110e67f372d2506277b9239eb143f4269182a05fccd85d63d4aea2e0132e3367e611a0b93855f5260028452600260405f2001611903565b835f526004825260405f20815f52825260405f20600160ff19825416179055604051908152a2005b60405163d92e233d60e01b8152600490fd5b60405163b88b98e960e01b8152600490fd5b346101c05760403660031901126101c05761114b6115af565b336001600160a01b03821603611167576102ab90600435611821565b60405163334bd91960e11b8152600490fd5b346101c05760403660031901126101c0576102ab6004356111986115af565b90805f525f6020526111b0600160405f200154611784565b6117a5565b346101c05760603660031901126101c057335f9081527f1da0b5176dfe03406af5a6eed66ca01dda9b45ac4da671c3fa379cb93717ef81602052604090205460043590604435907f0ce23c3e399818cfee81a7ab0880f714e53d7672b08df0fa62f2843416e1ea099060ff16156108ee575061123c825f52600260205260405f2054151590565b1561025d57606481116108dc57815f52600260205260405f2090600f82019182549260ff84169160058310156104d957826112e8576020604094879360015f80516020611c1b833981519152987fa97fc0f474301bf871f8a085f78f2b9eb1ea68c3b1b596b56114a96591e7be7195602435600482015584600682015542601182015560124291015560ff19161790558551908152a26112de8251809261166c565b60016020820152a2005b604051634eddfb7960e01b8152600490fd5b346101c05760203660031901126101c0576004355f525f6020526020600160405f200154604051908152f35b346101c0575f3660031901126101c057602060405160328152f35b346101c05760203660031901126101c0576020610772600435611aa5565b346101c05760403660031901126101c05760043561137b6115af565b611390825f52600260205260405f2054151590565b1561025d57815f5260206002815260018060a01b0391600192808460405f20015416330361112057845f5260028352600260405f2001848154111561152f57855f52600484528160405f20931692835f52845260ff60405f2054166113f157005b5f855b611444575b5050507ffafc6fced26590dcbed387f95e7401ff3fa637e0369735d7ac5036c0a5e121cc9250835f526004825260405f20815f52825260405f2060ff198154169055604051908152a2005b8154808210156115295783908561145b84866118da565b939054600394851b1c161461147b57505061147590611894565b856113f4565b5f1997509093918782019182116103f9576114ab8361149d6114ca94876118da565b905490881b1c1691856118da565b90919082549060031b9160018060a01b03809116831b921b1916179055565b8154958615611515577ffafc6fced26590dcbed387f95e7401ff3fa637e0369735d7ac5036c0a5e121cc96019261150184846118da565b81939154921b1b19169055558480806113f9565b634e487b7160e01b5f52603160045260245ffd5b506113f9565b60405163c4c8547360e01b8152600490fd5b346101c0575f3660031901126101c057602060405160148152f35b346101c05760203660031901126101c0576004359063ffffffff60e01b82168092036101c057602091637965db0b60e01b811490811561159e575b5015158152f35b6301ffc9a760e01b14905083611597565b602435906001600160a01b03821682036101c057565b346101c05760203660031901126101c0576020610772600435611a54565b91908251928382525f5b84811061160d575050825f602080949584010152601f8019910116010190565b6020818301810151848301820152016115ed565b60e08091805184526020810151602085015260408101516040850152606081015160608501526080810151608085015260a081015160a085015260c081015160c08501520151910152565b9060058210156104d95752565b9181601f840112156101c05782359167ffffffffffffffff83116101c057602083818601950101116101c057565b9060406003198301126101c057600435916024359067ffffffffffffffff82116101c0576116d791600401611679565b9091565b60409060031901126101c0576004359060243590565b335f9081527f96fb76514e2c02587c10386f03768718ed683639a5d00da6479e668c89e9693860205260409020547e9817c221cc98cf8539dd285e3fc05cbf4d20927bed0807d8fc76de41d18fa49060ff16156108ee5750565b335f9081527fad3228b676f7d3cd4284a5443f17f1962b36e491b30a40b2405849e597ba5fb5602052604081205460ff16156108ee5750565b805f525f60205260405f20335f5260205260ff60405f205416156108ee5750565b905f9180835282602052604083209160018060a01b03169182845260205260ff604084205416155f1461181c57808352826020526040832082845260205260408320600160ff198254161790557f2f8788117e7eff1d82e926ec794901d17c78024a50270940304540a733656f0d339380a4600190565b505090565b905f9180835282602052604083209160018060a01b03169182845260205260ff6040842054165f1461181c5780835282602052604083208284526020526040832060ff1981541690557ff6391f5c32d9c69d2a47ea670b442974b53935d1edc7fd64eb21e047a839171b339380a4600190565b5f1981146103f95760010190565b90600182811c921680156118d0575b60208310146118bc57565b634e487b7160e01b5f52602260045260245ffd5b91607f16916118b1565b80548210156118ef575f5260205f2001905f90565b634e487b7160e01b5f52603260045260245ffd5b908154916801000000000000000083101561071c57826114ab91600161192b950181556118da565b565b610180810190811067ffffffffffffffff82111761071c57604052565b610100810190811067ffffffffffffffff82111761071c57604052565b90601f8019910116810190811067ffffffffffffffff82111761071c57604052565b919082018092116103f957565b90918060409360208452816020850152848401375f828201840152601f01601f1916010190565b604051906119ca8261194a565b8160e05f918281528260208201528260408201528260608201528260808201528260a08201528260c08201520152565b90604051611a078161194a565b60e0600782948054845260018101546020850152600281015460408501526003810154606085015260048101546080850152600581015460a0850152600681015460c08501520154910152565b611a69815f52600260205260405f2054151590565b15611aa0575f52600260205260ff600f60405f2001541660058110156104d95760018114908115611a98575090565b600291501490565b505f90565b611aba815f52600260205260405f2054151590565b15611aa0575f52600260205260ff600f60405f2001541660058110156104d95760021490565b611af5815f52600260205260405f2054151590565b15611b1e575f52600460205260405f209060018060a01b03165f5260205260ff60405f20541690565b50505f90565b8115611b2e570490565b634e487b7160e01b5f52601260045260245ffd5b611b57815f52600260205260405f2054151590565b1561025d575f52600260205260405f20611b7a600c600b83015492015482611989565b8015611b9f576064820291808304606414901517156103f957611b9c91611b24565b90565b5050606490565b90604060ff611c105f80516020611c1b83398151915293855f526002602052857fd9be79204837c074547a016e6e320b22932eef0bdfc48db60651016a9c6cddbb6105ee600f875f20019384549460038819871617905587519182916020835260208301906115e3565b60036020820152a256fe3e5d8b8a8833997ef00c2c2080979ca2906a0150b17bd9c028203ae07644bdae6f479164c87fba6fdd2f427bfb98f653d9a754ee30a7d158c117e6909b52809ea2646970667358221220bdde165e5fe9a4adaa2c25e0c10f338c8da318573436474e0936366d69b16ef664736f6c63430008140033","linkReferences":{}},"methodIdentifiers":{"CREDIT_UPDATER_ROLE()":"78d8b304","DEFAULT_ADMIN_ROLE()":"a217fddf","DEFAULT_THRESHOLD()":"b81cab4b","MIN_CREDIT_SCORE()":"0a49cf4d","MIN_REPAYMENT_RATE()":"198fc29c","STATS_UPDATER_ROLE()":"ec487ca4","VERIFIER_ROLE()":"e7705db6","addAuthorizedSigner(uint256,address)":"37a01230","blacklistBusiness(uint256,string)":"a0aa9094","canSubmitInvoices(uint256)":"a7c802bf","getBusiness(uint256)":"4d7439cb","getBusinessByOwner(address)":"78fabb11","getBusinessStats(uint256)":"e552d3ba","getRepaymentRate(uint256)":"b2ec587b","getRoleAdmin(bytes32)":"248a9ca3","grantRole(bytes32,address)":"2f2ff15d","hasRole(bytes32,address)":"91d14854","isAuthorizedSigner(uint256,address)":"85f0daf4","isBusinessActive(uint256)":"1746a3f1","isBusinessVerified(uint256)":"18dd2a12","recordDefault(uint256)":"8dabe666","recordInvoiceFunded(uint256,uint256)":"d26d7553","recordInvoiceSubmitted(uint256)":"5adc0d27","recordRepayment(uint256,uint256,bool)":"d03d421c","registerBusiness(bytes32,string)":"6c47bfd2","reinstateBusiness(uint256)":"c05958da","removeAuthorizedSigner(uint256,address)":"0b2baf40","renounceRole(bytes32,address)":"36568abe","revokeRole(bytes32,address)":"d547741f","supportsInterface(bytes4)":"01ffc9a7","suspendBusiness(uint256,string)":"6590db51","updateCreditScore(uint256,uint256)":"7f43cf18","verifyBusiness(uint256,bytes32,uint256)":"255b03ec"},"id":43}