{"abi":[{"type":"constructor","inputs":[{"name":"_stablecoin","type":"address","internalType":"address"},{"name":"_invoiceToken","type":"address","internalType":"address"},{"name":"_businessRegistry","type":"address","internalType":"address"},{"name":"_buyerRegistry","type":"address","internalType":"address"},{"name":"_kybRegistry","type":"address","internalType":"address"},{"name":"_creditOracle","type":"address","internalType":"address"},{"name":"_liquidityPool","type":"address","internalType":"address"},{"name":"_yieldDistributor","type":"address","internalType":"address"},{"name":"_admin","type":"address","internalType":"address"}],"stateMutability":"nonpayable"},{"type":"function","name":"DEFAULT_ADMIN_ROLE","inputs":[],"outputs":[{"name":"","type":"bytes32","internalType":"bytes32"}],"stateMutability":"view"},{"type":"function","name":"DEFAULT_HANDLER_ROLE","inputs":[],"outputs":[{"name":"","type":"bytes32","internalType":"bytes32"}],"stateMutability":"view"},{"type":"function","name":"FUNDER_ROLE","inputs":[],"outputs":[{"name":"","type":"bytes32","internalType":"bytes32"}],"stateMutability":"view"},{"type":"function","name":"ORACLE_CALLBACK_ROLE","inputs":[],"outputs":[{"name":"","type":"bytes32","internalType":"bytes32"}],"stateMutability":"view"},{"type":"function","name":"PAUSER_ROLE","inputs":[],"outputs":[{"name":"","type":"bytes32","internalType":"bytes32"}],"stateMutability":"view"},{"type":"function","name":"autoFundEnabled","inputs":[],"outputs":[{"name":"","type":"bool","internalType":"bool"}],"stateMutability":"view"},{"type":"function","name":"businessRegistry","inputs":[],"outputs":[{"name":"","type":"address","internalType":"contract IBusinessRegistry"}],"stateMutability":"view"},{"type":"function","name":"buyerRegistry","inputs":[],"outputs":[{"name":"","type":"address","internalType":"contract IBuyerRegistry"}],"stateMutability":"view"},{"type":"function","name":"calculateAdvanceOffer","inputs":[{"name":"buyerHash","type":"bytes32","internalType":"bytes32"},{"name":"faceValue","type":"uint256","internalType":"uint256"},{"name":"dueDate","type":"uint256","internalType":"uint256"}],"outputs":[{"name":"advanceAmount","type":"uint256","internalType":"uint256"},{"name":"advanceRate","type":"uint256","internalType":"uint256"},{"name":"tier","type":"uint8","internalType":"enum ICreditOracle.RiskTier"},{"name":"fee","type":"uint256","internalType":"uint256"}],"stateMutability":"view"},{"type":"function","name":"calculateSettlementAmount","inputs":[{"name":"invoiceId","type":"uint256","internalType":"uint256"}],"outputs":[{"name":"","type":"uint256","internalType":"uint256"}],"stateMutability":"view"},{"type":"function","name":"cancelRequest","inputs":[{"name":"requestId","type":"uint256","internalType":"uint256"}],"outputs":[],"stateMutability":"nonpayable"},{"type":"function","name":"closeInvoice","inputs":[{"name":"invoiceId","type":"uint256","internalType":"uint256"}],"outputs":[],"stateMutability":"nonpayable"},{"type":"function","name":"creditOracle","inputs":[],"outputs":[{"name":"","type":"address","internalType":"contract ICreditOracle"}],"stateMutability":"view"},{"type":"function","name":"emergencyWithdraw","inputs":[{"name":"token","type":"address","internalType":"address"},{"name":"amount","type":"uint256","internalType":"uint256"},{"name":"to","type":"address","internalType":"address"}],"outputs":[],"stateMutability":"nonpayable"},{"type":"function","name":"factorInvoice","inputs":[{"name":"buyerHash","type":"bytes32","internalType":"bytes32"},{"name":"faceValue","type":"uint256","internalType":"uint256"},{"name":"dueDate","type":"uint256","internalType":"uint256"},{"name":"documentHash","type":"bytes32","internalType":"bytes32"},{"name":"invoiceNumber","type":"string","internalType":"string"}],"outputs":[{"name":"invoiceId","type":"uint256","internalType":"uint256"},{"name":"advanceAmount","type":"uint256","internalType":"uint256"}],"stateMutability":"nonpayable"},{"type":"function","name":"fundInvoice","inputs":[{"name":"requestId","type":"uint256","internalType":"uint256"}],"outputs":[{"name":"invoiceId","type":"uint256","internalType":"uint256"},{"name":"advanceAmount","type":"uint256","internalType":"uint256"}],"stateMutability":"nonpayable"},{"type":"function","name":"getActiveInvoices","inputs":[{"name":"seller","type":"address","internalType":"address"}],"outputs":[{"name":"","type":"uint256[]","internalType":"uint256[]"}],"stateMutability":"view"},{"type":"function","name":"getFactoringRequest","inputs":[{"name":"requestId","type":"uint256","internalType":"uint256"}],"outputs":[{"name":"","type":"tuple","internalType":"struct InvoiceXCore.FactoringRequest","components":[{"name":"requestId","type":"uint256","internalType":"uint256"},{"name":"businessId","type":"uint256","internalType":"uint256"},{"name":"seller","type":"address","internalType":"address"},{"name":"buyerHash","type":"bytes32","internalType":"bytes32"},{"name":"faceValue","type":"uint256","internalType":"uint256"},{"name":"dueDate","type":"uint256","internalType":"uint256"},{"name":"documentHash","type":"bytes32","internalType":"bytes32"},{"name":"invoiceNumber","type":"string","internalType":"string"},{"name":"requestedAt","type":"uint256","internalType":"uint256"},{"name":"status","type":"uint8","internalType":"enum InvoiceXCore.RequestStatus"},{"name":"rejectionReason","type":"string","internalType":"string"}]}],"stateMutability":"view"},{"type":"function","name":"getFactoringResult","inputs":[{"name":"invoiceId","type":"uint256","internalType":"uint256"}],"outputs":[{"name":"","type":"tuple","internalType":"struct InvoiceXCore.FactoringResult","components":[{"name":"invoiceId","type":"uint256","internalType":"uint256"},{"name":"requestId","type":"uint256","internalType":"uint256"},{"name":"seller","type":"address","internalType":"address"},{"name":"buyerHash","type":"bytes32","internalType":"bytes32"},{"name":"faceValue","type":"uint256","internalType":"uint256"},{"name":"advanceAmount","type":"uint256","internalType":"uint256"},{"name":"advanceRate","type":"uint256","internalType":"uint256"},{"name":"feeAmount","type":"uint256","internalType":"uint256"},{"name":"riskTier","type":"uint8","internalType":"enum ICreditOracle.RiskTier"},{"name":"deploymentId","type":"uint256","internalType":"uint256"},{"name":"factoredAt","type":"uint256","internalType":"uint256"}]}],"stateMutability":"view"},{"type":"function","name":"getMaxInvoiceAmount","inputs":[],"outputs":[{"name":"","type":"uint256","internalType":"uint256"}],"stateMutability":"view"},{"type":"function","name":"getMinInvoiceAmount","inputs":[],"outputs":[{"name":"","type":"uint256","internalType":"uint256"}],"stateMutability":"view"},{"type":"function","name":"getProtocolStats","inputs":[],"outputs":[{"name":"","type":"tuple","internalType":"struct InvoiceXCore.ProtocolStats","components":[{"name":"totalInvoicesFactored","type":"uint256","internalType":"uint256"},{"name":"totalValueFactored","type":"uint256","internalType":"uint256"},{"name":"totalAdvancesPaid","type":"uint256","internalType":"uint256"},{"name":"activeInvoices","type":"uint256","internalType":"uint256"},{"name":"activeValue","type":"uint256","internalType":"uint256"},{"name":"totalRepaid","type":"uint256","internalType":"uint256"},{"name":"totalDefaults","type":"uint256","internalType":"uint256"},{"name":"defaultValue","type":"uint256","internalType":"uint256"}]}],"stateMutability":"view"},{"type":"function","name":"getRequestsByBusiness","inputs":[{"name":"businessId","type":"uint256","internalType":"uint256"}],"outputs":[{"name":"","type":"uint256[]","internalType":"uint256[]"}],"stateMutability":"view"},{"type":"function","name":"getRoleAdmin","inputs":[{"name":"role","type":"bytes32","internalType":"bytes32"}],"outputs":[{"name":"","type":"bytes32","internalType":"bytes32"}],"stateMutability":"view"},{"type":"function","name":"getSupportedPaymentTerms","inputs":[],"outputs":[{"name":"minDays","type":"uint256","internalType":"uint256"},{"name":"maxDays","type":"uint256","internalType":"uint256"}],"stateMutability":"view"},{"type":"function","name":"grantRole","inputs":[{"name":"role","type":"bytes32","internalType":"bytes32"},{"name":"account","type":"address","internalType":"address"}],"outputs":[],"stateMutability":"nonpayable"},{"type":"function","name":"handleDefault","inputs":[{"name":"invoiceId","type":"uint256","internalType":"uint256"}],"outputs":[],"stateMutability":"nonpayable"},{"type":"function","name":"hasRole","inputs":[{"name":"role","type":"bytes32","internalType":"bytes32"},{"name":"account","type":"address","internalType":"address"}],"outputs":[{"name":"","type":"bool","internalType":"bool"}],"stateMutability":"view"},{"type":"function","name":"invoiceToken","inputs":[],"outputs":[{"name":"","type":"address","internalType":"contract IInvoiceToken"}],"stateMutability":"view"},{"type":"function","name":"isEligibleForFactoring","inputs":[{"name":"businessId","type":"uint256","internalType":"uint256"},{"name":"buyerHash","type":"bytes32","internalType":"bytes32"},{"name":"faceValue","type":"uint256","internalType":"uint256"}],"outputs":[{"name":"eligible","type":"bool","internalType":"bool"},{"name":"reason","type":"string","internalType":"string"}],"stateMutability":"view"},{"type":"function","name":"kybRegistry","inputs":[],"outputs":[{"name":"","type":"address","internalType":"contract IKYBRegistry"}],"stateMutability":"view"},{"type":"function","name":"liquidityPool","inputs":[],"outputs":[{"name":"","type":"address","internalType":"contract ILiquidityPool"}],"stateMutability":"view"},{"type":"function","name":"maxInvoiceAmount","inputs":[],"outputs":[{"name":"","type":"uint256","internalType":"uint256"}],"stateMutability":"view"},{"type":"function","name":"maxPaymentTermDays","inputs":[],"outputs":[{"name":"","type":"uint256","internalType":"uint256"}],"stateMutability":"view"},{"type":"function","name":"minInvoiceAmount","inputs":[],"outputs":[{"name":"","type":"uint256","internalType":"uint256"}],"stateMutability":"view"},{"type":"function","name":"minPaymentTermDays","inputs":[],"outputs":[{"name":"","type":"uint256","internalType":"uint256"}],"stateMutability":"view"},{"type":"function","name":"onAssessmentComplete","inputs":[{"name":"requestId","type":"uint256","internalType":"uint256"},{"name":"approved","type":"bool","internalType":"bool"},{"name":"tier","type":"uint8","internalType":"enum ICreditOracle.RiskTier"},{"name":"advanceRate","type":"uint256","internalType":"uint256"}],"outputs":[],"stateMutability":"nonpayable"},{"type":"function","name":"pause","inputs":[],"outputs":[],"stateMutability":"nonpayable"},{"type":"function","name":"paused","inputs":[],"outputs":[{"name":"","type":"bool","internalType":"bool"}],"stateMutability":"view"},{"type":"function","name":"processPaymentFromBuyer","inputs":[{"name":"invoiceId","type":"uint256","internalType":"uint256"}],"outputs":[],"stateMutability":"nonpayable"},{"type":"function","name":"protocolFeeBps","inputs":[],"outputs":[{"name":"","type":"uint256","internalType":"uint256"}],"stateMutability":"view"},{"type":"function","name":"recordBuyerPayment","inputs":[{"name":"invoiceId","type":"uint256","internalType":"uint256"},{"name":"amount","type":"uint256","internalType":"uint256"}],"outputs":[],"stateMutability":"nonpayable"},{"type":"function","name":"renounceRole","inputs":[{"name":"role","type":"bytes32","internalType":"bytes32"},{"name":"callerConfirmation","type":"address","internalType":"address"}],"outputs":[],"stateMutability":"nonpayable"},{"type":"function","name":"revokeRole","inputs":[{"name":"role","type":"bytes32","internalType":"bytes32"},{"name":"account","type":"address","internalType":"address"}],"outputs":[],"stateMutability":"nonpayable"},{"type":"function","name":"setAutoFundEnabled","inputs":[{"name":"enabled","type":"bool","internalType":"bool"}],"outputs":[],"stateMutability":"nonpayable"},{"type":"function","name":"setContractAddresses","inputs":[{"name":"_invoiceToken","type":"address","internalType":"address"},{"name":"_businessRegistry","type":"address","internalType":"address"},{"name":"_buyerRegistry","type":"address","internalType":"address"},{"name":"_kybRegistry","type":"address","internalType":"address"},{"name":"_creditOracle","type":"address","internalType":"address"},{"name":"_liquidityPool","type":"address","internalType":"address"},{"name":"_yieldDistributor","type":"address","internalType":"address"}],"outputs":[],"stateMutability":"nonpayable"},{"type":"function","name":"setMaxInvoiceAmount","inputs":[{"name":"amount","type":"uint256","internalType":"uint256"}],"outputs":[],"stateMutability":"nonpayable"},{"type":"function","name":"setMaxPaymentTermDays","inputs":[{"name":"days_","type":"uint256","internalType":"uint256"}],"outputs":[],"stateMutability":"nonpayable"},{"type":"function","name":"setMinInvoiceAmount","inputs":[{"name":"amount","type":"uint256","internalType":"uint256"}],"outputs":[],"stateMutability":"nonpayable"},{"type":"function","name":"setMinPaymentTermDays","inputs":[{"name":"days_","type":"uint256","internalType":"uint256"}],"outputs":[],"stateMutability":"nonpayable"},{"type":"function","name":"setProtocolFee","inputs":[{"name":"feeBps","type":"uint256","internalType":"uint256"}],"outputs":[],"stateMutability":"nonpayable"},{"type":"function","name":"settleEarly","inputs":[{"name":"invoiceId","type":"uint256","internalType":"uint256"}],"outputs":[],"stateMutability":"nonpayable"},{"type":"function","name":"stablecoin","inputs":[],"outputs":[{"name":"","type":"address","internalType":"contract IERC20"}],"stateMutability":"view"},{"type":"function","name":"submitInvoice","inputs":[{"name":"buyerHash","type":"bytes32","internalType":"bytes32"},{"name":"faceValue","type":"uint256","internalType":"uint256"},{"name":"dueDate","type":"uint256","internalType":"uint256"},{"name":"documentHash","type":"bytes32","internalType":"bytes32"},{"name":"invoiceNumber","type":"string","internalType":"string"}],"outputs":[{"name":"requestId","type":"uint256","internalType":"uint256"}],"stateMutability":"nonpayable"},{"type":"function","name":"supportsInterface","inputs":[{"name":"interfaceId","type":"bytes4","internalType":"bytes4"}],"outputs":[{"name":"","type":"bool","internalType":"bool"}],"stateMutability":"view"},{"type":"function","name":"unpause","inputs":[],"outputs":[],"stateMutability":"nonpayable"},{"type":"function","name":"yieldDistributor","inputs":[],"outputs":[{"name":"","type":"address","internalType":"contract IYieldDistributor"}],"stateMutability":"view"},{"type":"event","name":"AssessmentComplete","inputs":[{"name":"requestId","type":"uint256","indexed":true,"internalType":"uint256"},{"name":"approved","type":"bool","indexed":false,"internalType":"bool"},{"name":"tier","type":"uint8","indexed":false,"internalType":"enum ICreditOracle.RiskTier"}],"anonymous":false},{"type":"event","name":"ContractUpdated","inputs":[{"name":"name","type":"string","indexed":false,"internalType":"string"},{"name":"newAddress","type":"address","indexed":false,"internalType":"address"}],"anonymous":false},{"type":"event","name":"InvoiceClosed","inputs":[{"name":"invoiceId","type":"uint256","indexed":true,"internalType":"uint256"}],"anonymous":false},{"type":"event","name":"InvoiceDefaulted","inputs":[{"name":"invoiceId","type":"uint256","indexed":true,"internalType":"uint256"},{"name":"outstandingAmount","type":"uint256","indexed":false,"internalType":"uint256"}],"anonymous":false},{"type":"event","name":"InvoiceFactored","inputs":[{"name":"invoiceId","type":"uint256","indexed":true,"internalType":"uint256"},{"name":"seller","type":"address","indexed":true,"internalType":"address"},{"name":"advanceAmount","type":"uint256","indexed":false,"internalType":"uint256"}],"anonymous":false},{"type":"event","name":"InvoiceFunded","inputs":[{"name":"invoiceId","type":"uint256","indexed":true,"internalType":"uint256"},{"name":"requestId","type":"uint256","indexed":true,"internalType":"uint256"},{"name":"advanceAmount","type":"uint256","indexed":false,"internalType":"uint256"},{"name":"tier","type":"uint8","indexed":false,"internalType":"enum ICreditOracle.RiskTier"}],"anonymous":false},{"type":"event","name":"InvoiceSettledEarly","inputs":[{"name":"invoiceId","type":"uint256","indexed":true,"internalType":"uint256"},{"name":"settlementAmount","type":"uint256","indexed":false,"internalType":"uint256"}],"anonymous":false},{"type":"event","name":"InvoiceSubmitted","inputs":[{"name":"requestId","type":"uint256","indexed":true,"internalType":"uint256"},{"name":"businessId","type":"uint256","indexed":true,"internalType":"uint256"},{"name":"buyerHash","type":"bytes32","indexed":false,"internalType":"bytes32"},{"name":"faceValue","type":"uint256","indexed":false,"internalType":"uint256"}],"anonymous":false},{"type":"event","name":"Paused","inputs":[{"name":"account","type":"address","indexed":false,"internalType":"address"}],"anonymous":false},{"type":"event","name":"PaymentRecorded","inputs":[{"name":"invoiceId","type":"uint256","indexed":true,"internalType":"uint256"},{"name":"amount","type":"uint256","indexed":false,"internalType":"uint256"}],"anonymous":false},{"type":"event","name":"ProtocolFeeCollected","inputs":[{"name":"amount","type":"uint256","indexed":false,"internalType":"uint256"}],"anonymous":false},{"type":"event","name":"ProtocolPaused","inputs":[],"anonymous":false},{"type":"event","name":"ProtocolUnpaused","inputs":[],"anonymous":false},{"type":"event","name":"RequestCancelled","inputs":[{"name":"requestId","type":"uint256","indexed":true,"internalType":"uint256"}],"anonymous":false},{"type":"event","name":"RoleAdminChanged","inputs":[{"name":"role","type":"bytes32","indexed":true,"internalType":"bytes32"},{"name":"previousAdminRole","type":"bytes32","indexed":true,"internalType":"bytes32"},{"name":"newAdminRole","type":"bytes32","indexed":true,"internalType":"bytes32"}],"anonymous":false},{"type":"event","name":"RoleGranted","inputs":[{"name":"role","type":"bytes32","indexed":true,"internalType":"bytes32"},{"name":"account","type":"address","indexed":true,"internalType":"address"},{"name":"sender","type":"address","indexed":true,"internalType":"address"}],"anonymous":false},{"type":"event","name":"RoleRevoked","inputs":[{"name":"role","type":"bytes32","indexed":true,"internalType":"bytes32"},{"name":"account","type":"address","indexed":true,"internalType":"address"},{"name":"sender","type":"address","indexed":true,"internalType":"address"}],"anonymous":false},{"type":"event","name":"Unpaused","inputs":[{"name":"account","type":"address","indexed":false,"internalType":"address"}],"anonymous":false},{"type":"error","name":"AccessControlBadConfirmation","inputs":[]},{"type":"error","name":"AccessControlUnauthorizedAccount","inputs":[{"name":"account","type":"address","internalType":"address"},{"name":"neededRole","type":"bytes32","internalType":"bytes32"}]},{"type":"error","name":"AddressEmptyCode","inputs":[{"name":"target","type":"address","internalType":"address"}]},{"type":"error","name":"AddressInsufficientBalance","inputs":[{"name":"account","type":"address","internalType":"address"}]},{"type":"error","name":"AssessmentPending","inputs":[]},{"type":"error","name":"BusinessNotRegistered","inputs":[]},{"type":"error","name":"BusinessNotVerified","inputs":[]},{"type":"error","name":"BuyerBlacklisted","inputs":[]},{"type":"error","name":"BuyerExceedsCreditLimit","inputs":[]},{"type":"error","name":"EnforcedPause","inputs":[]},{"type":"error","name":"ExpectedPause","inputs":[]},{"type":"error","name":"FailedInnerCall","inputs":[]},{"type":"error","name":"InsufficientLiquidity","inputs":[]},{"type":"error","name":"InvalidInvoiceAmount","inputs":[]},{"type":"error","name":"InvalidPaymentTerms","inputs":[]},{"type":"error","name":"InvoiceNotActive","inputs":[]},{"type":"error","name":"InvoiceNotFound","inputs":[]},{"type":"error","name":"KYBNotValid","inputs":[]},{"type":"error","name":"NotRequestOwner","inputs":[]},{"type":"error","name":"ReentrancyGuardReentrantCall","inputs":[]},{"type":"error","name":"RequestAlreadyFunded","inputs":[]},{"type":"error","name":"RequestNotApproved","inputs":[]},{"type":"error","name":"RequestNotFound","inputs":[]},{"type":"error","name":"SafeERC20FailedOperation","inputs":[{"name":"token","type":"address","internalType":"address"}]},{"type":"error","name":"TransferFailed","inputs":[]},{"type":"error","name":"ZeroAddress","inputs":[]}],"bytecode":{"object":"0x60a034620001fe57601f62003ceb38819003918201601f19168301916001600160401b03831184841017620002035780849261012094604052833981010312620001fe576200004e8162000219565b6200005c6020830162000219565b906200006b6040840162000219565b906200007a6060850162000219565b93620000896080820162000219565b946200009860a0830162000219565b94620000a760c0840162000219565b90620000c5610100620000bd60e0870162000219565b950162000219565b96600180556002549160018060a01b03809716998a15620001ec57878a1615620001ec5787809681958294620001b69e608052610100600160a81b039060081b169060018060a81b031916176002558160018060a01b03199b168b60035416176003551689600454161760045516876005541617600555168560065416176006551683600754161760075516906008541617600855633b9aca0060095564746a528800600a55601e600b55605a600c556064600d55600160ff19600e541617600e556001600f5562000197816200022e565b50620001a381620002ae565b50620001af8162000350565b50620003ec565b5060405161384190816200048a82396080518181816102cb01528181611440015281816116c8015281816118b40152612da60152f35b60405163d92e233d60e01b8152600490fd5b600080fd5b634e487b7160e01b600052604160045260246000fd5b51906001600160a01b0382168203620001fe57565b6001600160a01b031660008181527fad3228b676f7d3cd4284a5443f17f1962b36e491b30a40b2405849e597ba5fb5602052604081205490919060ff16620002aa57818052816020526040822081835260205260408220600160ff19825416179055339160008051602062003ccb8339815191528180a4600190565b5090565b6001600160a01b031660008181527f7b492ae5d54acc939302c21c32c04a8f7367d23220de7ef17660a581dfbb516c60205260408120549091907f0914bb97ca83e85ef385857d9d418f187ff630589e0c9f44db92976d8e4519cb9060ff166200034b57808352826020526040832082845260205260408320600160ff1982541617905560008051602062003ccb833981519152339380a4600190565b505090565b6001600160a01b031660008181527e638e1499a40aae242d83f0d992ee84a85288c09e9dd20a94e4ef830cd2090660205260408120549091907fe2f1b99e1072818180f1076f4d00e3e6167a0ce8362b9787399f82425f08e6359060ff166200034b57808352826020526040832082845260205260408320600160ff1982541617905560008051602062003ccb833981519152339380a4600190565b6001600160a01b031660008181527ff7c9542c591017a21c74b6f3fab6263c7952fc0aaf9db4c22a2a04ddc7f8674f60205260408120549091907f65d7a28e3265b37a6474929f336521b332c1681b933f6cb9f3376673440d862a9060ff166200034b57808352826020526040832082845260205260408320600160ff1982541617905560008051602062003ccb833981519152339380a460019056fe61010080604052600436101561001457600080fd5b600090813560e01c90816301ffc9a7146125165750806302da0d69146124b15780630524857b1461243257806308ff3697146122375780630db1682e146120715780630f9d670614611fb0578063248a9ca314611f845780632f2ff15d14611f475780633015394c14611e8c57806333fbf73d14611e6957806334aedecd14611e4057806334c74b4d14611dd157806335659fb814611db357806336568abe14611d6b5780633747f3e614611d485780633dfc32f614611d1f5780633f4ba83a14611c90578063464b539114611c635780634af37b23146119a3578063530fce64146117df5780635498a99c146117a6578063551512de146117475780635754f8d31461170f5780635c975abb146116ec5780636439de0b146115f657806364d5fa4714611552578063665a11ca14611529578063682ed8191461136b5780636fb4f6271461134257806370f8b7d3146111c6578063771aceef146110ed578063787dce3d146110ca57806382cfd5a414610d705780638456cb591461104b578063916dea1b1461102d57806391d1485414610fe257806399b9c85b14610fb95780639f136ff014610f94578063a217fddf14610f78578063a24b742a14610f4f578063a38c2c3d14610f26578063a632140c14610f03578063aa638c7814610dd1578063b0fc27f514610d8e578063c0dd335c14610d70578063c3085b8414610d4d578063d334bae914610323578063d547741f14610d0c578063d72be09d146109ff578063d7f1c906146109dc578063de83f3b714610393578063e36922a51461036a578063e63ab1e914610341578063e63f015b14610323578063e86b9c8e146102fa578063e9cbd822146102b55763fffdc4ea1461029557600080fd5b346102b257806003193601126102b2576020600b54604051908152f35b80fd5b50346102b257806003193601126102b2576040517f00000000000000000000000000000000000000000000000000000000000000006001600160a01b03168152602090f35b50346102b257806003193601126102b257602060405160008051602061378c8339815191528152f35b50346102b257806003193601126102b2576020600954604051908152f35b50346102b257806003193601126102b25760206040516000805160206137cc8339815191528152f35b50346102b257806003193601126102b2576006546040516001600160a01b039091168152602090f35b50346102b2576103a23661264b565b9194959093926103b0612a74565b600354604051630a80e9bf60e41b815233600482015295906001600160a01b0316602087602481845afa96871561095a5784976109a8575b508615610996576020602491604051928380926337b6d96b60e01b82528b60048301525afa90811561095a578491610977575b5015610965576005546040516329f8f90760e01b81526004810188905290602090829060249082906001600160a01b03165afa90811561095a57849161092b575b5015610919576009548510801561090e575b6108fc57620151806104804284612919565b0493600b54851080156108f1575b6108df57428311156108df57600f54976104a78961293c565b600f55604051936104b78561285d565b8985528860208601523360408601528a606086015287608086015260a085015260c08401526104e58161294b565b916104f360405193846128de565b81835236828201116108db57818592602092838601378301015260e08201524261010082015261012081018290526040516001600160401b0360208201908111908211176108c557602081016040528281526101408201528582526010602052604082209080518255602081015160018301556002820160018060a01b0360408301511660018060a01b0319825416179055606081015160038301556080810151600483015560a0810151600583015560c0810151600683015560e0810151805160018060401b0381116108b1578060078501926105db826105d58654612972565b866129c3565b602090601f831160011461084d578792610842575b50508160011b916000199060031b1c19161790555b610100810151600883015560098201610120820151600681101561082e57815460ff191660ff9190911617905561014001518051906001600160401b03821161081a5761066282610659600a860154612972565b600a86016129c3565b602090601f83116001146107ad57600a92918591836107a2575b50508160011b916000199060031b1c1916179101555b83815260126020526106a78560408320612a38565b6020604051818101903360601b8252601481526106c3816128c3565b5190209260a460018060a01b03600654169484604051968794859363ed7c3ef960e01b85528c60048601528d6024860152604485015289606485015260848401525af191821561079557819261075b575b5060209585937f699b767fc0f0ca306853b31b7c53558cd1168d94dd30063166fd55d15ce08100936040848782965260158b522055825191825287820152a3604051908152f35b9091506020813d60201161078d575b81610777602093836128de565b810103126107885751906020610714565b600080fd5b3d915061076a565b50604051903d90823e3d90fd5b01519050388061067c565b90600a840185526020852091855b601f19851681106108025750918391600193600a95601f198116106107e9575b505050811b01910155610692565b015160001960f88460031b161c191690553880806107db565b919260206001819286850151815501940192016107bb565b634e487b7160e01b84526041600452602484fd5b634e487b7160e01b85526021600452602485fd5b0151905038806105f0565b848852602088209250601f198416885b8181106108995750908460019594939210610880575b505050811b019055610605565b015160001960f88460031b161c19169055388080610873565b9293602060018192878601518155019501930161085d565b634e487b7160e01b85526041600452602485fd5b634e487b7160e01b600052604160045260246000fd5b8480fd5b6040516345d65d6960e01b8152600490fd5b50600c54851161048e565b604051636807acb760e01b8152600490fd5b50600a54851161046e565b604051632c68acbd60e11b8152600490fd5b61094d915060203d602011610953575b61094581836128de565b810190612901565b3861045c565b503d61093b565b6040513d86823e3d90fd5b604051634eddfb7960e01b8152600490fd5b610990915060203d6020116109535761094581836128de565b3861041b565b6040516374336c5960e11b8152600490fd5b9096506020813d6020116109d4575b816109c4602093836128de565b81010312610788575195386103e8565b3d91506109b7565b50346102b25760203660031901126102b2576109f66126a5565b600435600c5580f35b50346102b25760e03660031901126102b257610a196125a6565b610a216125bc565b90610a2a6125d2565b6064356001600160a01b038181169182900361078857608435928184168094036107885760a435948286168096036107885760c43596838816809803610788578391610a746126a5565b8281169081610ca6575b50501680610c4f575b501680610bfb575b5080610ba9575b5080610b56575b5080610b02575b5080610aae575080f35b6080816000805160206137ac8339815191529260018060a01b031960085416176008556040519060408252601060408301526f2cb4b2b6322234b9ba3934b13aba37b960811b60608301526020820152a180f35b6080816000805160206137ac8339815191529260018060a01b031960075416176007556040519060408252600d60408301526c131a5c5d5a591a5d1e541bdbdb609a1b60608301526020820152a138610aa4565b6080816000805160206137ac8339815191529260018060a01b031960065416176006556040519060408252600c60408301526b4372656469744f7261636c6560a01b60608301526020820152a138610a9d565b6080816000805160206137ac8339815191529260018060a01b031960055416176005556040519060408252600b60408301526a4b5942526567697374727960a81b60608301526020820152a138610a96565b6080816000805160206137ac8339815191529260018060a01b031960045416176004556040519060408252600d60408301526c4275796572526567697374727960981b60608301526020820152a138610a8f565b6080816000805160206137ac8339815191529260018060a01b031960035416176003556040519060408252601060408301526f427573696e657373526567697374727960801b60608301526020820152a138610a87565b6000805160206137ac8339815191529160809160025490610100600160a81b039060081b1690610100600160a81b031916176002556040519060408252600c60408301526b24b73b37b4b1b2aa37b5b2b760a11b60608301526020820152a13880610a7e565b50346102b25760403660031901126102b257610d49600435610d2c6125bc565b9080845283602052610d446001604086200154612729565b6127cd565b5080f35b50346102b25760203660031901126102b257610d676126a5565b600435600b5580f35b50346102b257806003193601126102b2576020600a54604051908152f35b50346102b25760603660031901126102b257610dae604435600435613491565b90610dcd604051928392151583526040602084015260408301906125e8565b0390f35b50346102b25760203660031901126102b257600435610dee6126a5565b80825260116020526040822060405190610e078261285d565b805482526001810154602083015260018060a01b0380600283015416926040810193845260038301546060820152600a60048401549360808301948552600581015460a0840152600681015460c0840152600781015460e0840152610e7760ff6008830154166101008501612a92565b600981015461012084015201546101408201525115610ef157610eca92610ec08593610ea46019546133e0565b601955610eb48151601a54612919565b601a5551601b54612af9565b601b5551166136aa565b7f7af325d48818750f963839bd931e6a1023dd2ed672f2425c863d490424bb0dcf8280a280f35b604051634d5c803960e11b8152600490fd5b50346102b257806003193601126102b257602060ff600e54166040519015158152f35b50346102b257806003193601126102b2576008546040516001600160a01b039091168152602090f35b50346102b257806003193601126102b2576005546040516001600160a01b039091168152602090f35b50346102b257806003193601126102b257602090604051908152f35b50346102b257806003193601126102b2576040600b54600c5482519182526020820152f35b50346102b257806003193601126102b257602060405160008051602061376c8339815191528152f35b50346102b25760403660031901126102b2576040610ffe6125bc565b91600435815280602052209060018060a01b0316600052602052602060ff604060002054166040519015158152f35b50346102b257806003193601126102b2576020600c54604051908152f35b50346102b257806003193601126102b2576110646126df565b61106c612a74565b600160ff1960025416176002557f62e78cea01bee320cd4e420270b5ea74000d11b0c9f74754ebdbfc544b05a2586020604051338152a17f442792558b9a96e0f079309b45d9c253e8c39f6394bd465b3c4ffa8f834de0798180a180f35b50346102b25760203660031901126102b2576110e46126a5565b600435600d5580f35b50346102b257806003193601126102b25760e060405161110c8161288c565b8281528260208201528260408201528260608201528260808201528260a08201528260c082015201526101006040516111448161288c565b60165490818152601754602082019081526018546040830190815260195460608401908152601a549060808501918252601b549260a08601938452601c549460c0870195865260e0601d5497019687526040519788525160208801525160408701525160608601525160808501525160a08401525160c08301525160e0820152f35b50346102b25760203660031901126102b2576040816101609261014083516111ed8161285d565b82815282602082015282858201528260608201528260808201528260a08201528260c08201528260e0820152826101008201528261012082015201526004358152601160205220600a604051916112438361285d565b805483526001810154602084015260028101546001600160a01b031660408401526003810154606084015260048101546080840152600581015460a0840152600681015460c0840152600781015460e084015260088101546112ac9060ff166101008501612a92565b6009810154610120840152015461014082015261014060405191805183526020810151602084015260018060a01b036040820151166040840152606081015160608401526080810151608084015260a081015160a084015260c081015160c084015260e081015160e084015261132c610100820151610100850190612628565b6101208101516101208401520151610140820152f35b50346102b257806003193601126102b2576004546040516001600160a01b039091168152602090f35b50346102b25760203660031901126102b257600435611388612ab6565b611390612a74565b808252601160205260408220604051906113a98261285d565b805482526001810154602083015260018060a01b039182600283015416604082015260038201546060820152600a60048301549260808301938452600581015460a0840152600681015460c0840152600781015460e084015261141760ff6008830154166101008501612a92565b600981015461012084015201546101408201525115610ef15783905191611464838260085416337f0000000000000000000000000000000000000000000000000000000000000000613399565b604080516020810186815291810185905242606080830191909152815261148c6080826128de565b5190209060085416803b1561151a57604051632429fdaf60e11b815291839183918290849082906114c390338b8d60048601613375565b03925af1801561151e57611506575b505060207f35aa84e7964cb24e58d32f42bcfd54d92adbf93087dd63ea09eb7492f7a205cf91604051908152a26001805580f35b61150f90612879565b61151a5782386114d2565b8280fd5b6040513d84823e3d90fd5b50346102b257806003193601126102b2576007546040516001600160a01b039091168152602090f35b50346102b25760203660031901126102b25761156c612ab6565b611574612a74565b3360009081527f7b492ae5d54acc939302c21c32c04a8f7367d23220de7ef17660a581dfbb516c60205260409020546000805160206137ec8339815191529060ff16156115d85760406115c8600435612b06565b6001805582519182526020820152f35b6044906040519063e2517d3f60e01b82523360048301526024820152fd5b50346102b25760403660031901126102b257600435602435611616612ab6565b61161e612a74565b8183526011602052604083206040516116368161285d565b8154815260018201546020820152600a60018060a01b03928360028201541660408401526003810154606084015260048101546080840152600581015460a0840152600681015460c0840152600781015460e08401526116a160ff6008830154166101008501612a92565b600981015461012084015201546101408201525115610ef1578061146483869360085416337f0000000000000000000000000000000000000000000000000000000000000000613399565b50346102b257806003193601126102b257602060ff600254166040519015158152f35b50346102b25760203660031901126102b257600435801515809103610788576117366126a5565b60ff8019600e5416911617600e5580f35b50346102b25760603660031901126102b2576117616125a6565b6117696125d2565b906117726126a5565b6001600160a01b0391808316156117945761179192602435921661322c565b80f35b60405163d92e233d60e01b8152600490fd5b50346102b2576040906117b83661264b565b5050505050506117c6612ab6565b6117ce612a74565b600180558151908082526020820152f35b50346102b25760203660031901126102b2576004356117fc612ab6565b611804612a74565b8082526011602052604082206040519061181d8261285d565b805482526001810154602083015260018060a01b039182600283015416604082015260038201546060820152600a60048301549260808301938452600581015460a0840152600681015460c0840152600781015460e084015261188b60ff6008830154166101008501612a92565b600981015461012084015201546101408201525115610ef157839051916118d8838260085416337f0000000000000000000000000000000000000000000000000000000000000000613399565b60405160208101908582528460408201524260608201526f115054931657d4d1551513115351539560821b608082015260708152611915816128a8565b5190209060085416803b1561151a57604051632429fdaf60e11b8152918391839182908490829061194c90338b8d60048601613375565b03925af1801561151e5761198f575b505060207fd10a59e58017e03ba89ed0935784743158a4986ec7e2db48bd19af6a33d8dc8091604051908152a26001805580f35b61199890612879565b61151a57823861195b565b50346102b257602080600319360112611c5f5760043560008051602061376c83398151915280845283835260408420338552835260ff604085205416156115d85750808352601182526040832091604051926119fe8461285d565b8054845260018101549382810194855260018060a01b03908160028401541690604081019182526003840154606082015260048401549360808201948552600581015460a0830152600681015460c0830152600781015460e083015260ff60088201541691611a7261010093848301612a92565b600a600983015492610120938484015201549061014091828201525115610ef15789988560085416803b15611c5b578a9060248b6040519e8f93849263543a181160e11b845260048401525af18015611c5057611c3a575b899a50611adb60199a999a546133e0565b601955611aeb8751601a54612919565b601a55611af9601c5461293c565b601c55611b098751601d54612af9565b601d5551885260108752611ba0600a60408a20611b9a60405195611b2c8761285d565b825487526001830154978c88019889528a60028501541660408901526003840154606089015260048401546080890152600584015460a0890152600684015460c0890152611b7c600785016133ed565b60e089015260088401549088015260ff600984015416908701612966565b016133ed565b91015282600354169051813b15611c3657869160248392604051998a9384926346d5f33360e11b845260048401525af1958615610795578796611c19575b505093611c0e917ff632e7549a2b0aee8e4c18743ef9c237f6c638181c4b8dd8b02da89f56c42abe9551166136aa565b51604051908152a280f35b611c2591929650612879565b611c325784938638611bde565b8580fd5b8680fd5b97989099611c4790612879565b97968990611aca565b6040513d8c823e3d90fd5b8a80fd5b5080fd5b50346102b257806003193601126102b25760025460405160089190911c6001600160a01b03168152602090f35b50346102b257806003193601126102b257611ca96126df565b60025460ff811615611d0d5760ff19166002557f5db9ee0a495bf2e6ff9c91a7834c1ba4fdd244a5e8aa4e537bd38aeae4b073aa6020604051338152a17f4cb3d6140b72ba86787ec31591f74ca57f8fd93a9ff34d2f6349365eb01f915f8180a180f35b604051638dfc202b60e01b8152600490fd5b50346102b257806003193601126102b2576003546040516001600160a01b039091168152602090f35b50346102b25760203660031901126102b257611d626126a5565b60043560095580f35b50346102b25760403660031901126102b257611d856125bc565b336001600160a01b03821603611da157610d49906004356127cd565b60405163334bd91960e11b8152600490fd5b50346102b257806003193601126102b2576020600d54604051908152f35b50346102b25760603660031901126102b25760243561213480820291808304821490151715611e2c576080925061271080920491611e11600d5484612ad9565b04906040519283526020830152600160408301526060820152f35b634e487b7160e01b83526011600452602483fd5b50346102b257806003193601126102b25760206040516000805160206137ec8339815191528152f35b50346102b25760203660031901126102b257611e836126a5565b600435600a5580f35b50346102b25760203660031901126102b257600435808252601060205260408220805415611f355760028101546001600160a01b03163303611f2357600901805460ff8116600681101561082e57600314611f115760ff191660051790557fee243f878b7fc2f54e934ca33783d4395d42bc07612e2bd4b8e0e178639f7a288280a280f35b6040516357bae84f60e01b8152600490fd5b60405163517907dd60e01b8152600490fd5b604051632589d98f60e11b8152600490fd5b50346102b25760403660031901126102b257610d49600435611f676125bc565b9080845283602052611f7f6001604086200154612729565b61274f565b50346102b25760203660031901126102b257600160406020926004358152808452200154604051908152f35b50346102b25760203660031901126102b2576040906004358152601160205220604051611fdc8161285d565b815481526001820154602082015260028201546001600160a01b0316604082015260038201546060820152600482015460808201908152600583015460a0830152600683015460c0830152600783015460e083015260088301549092600a9161204c9060ff166101008501612a92565b600981015461012084015201546101408201525115610ef15760209051604051908152f35b50346102b25760203660031901126102b25760606101406040516120948161285d565b83815283602082015283604082015283838201528360808201528360a08201528360c08201528260e08201528361010082015283610120820152015260043581526010602052604081209061216b600a604051936120f18561285d565b805485526001810154602086015260028101546001600160a01b031660408601526003810154606086015260048101546080860152600581015460a0860152600681015460c0860152612146600782016133ed565b60e08601526008810154610100860152611b9a60ff6009830154166101208701612966565b6101408301526040519160208352805160208401526020810151604084015260018060a01b03604082015116606084015260608101516080840152608081015160a084015260a081015160c084015260c081015160e084015260e0810151906121e361016092836101008701526101808601906125e8565b92610100820151610120860152610120820151906006821015612223575091610140859492610dcd9482870152015190601f1985840301908501526125e8565b634e487b7160e01b81526021600452602490fd5b50346102b25760803660031901126102b25760043560243580151580820361242e5760443560048110156108db5760008051602061378c83398151915280865260209086825260408720338852825260ff604088205416156115d857508486526010815260408620805415611f3557604051906122b382612842565b6122bd8483612a92565b8282019160643583526040810192868452888a526014855260408a209151600481101561241a5793600961237094600285604099956123208f9d9a7fc9b4cca687d759b5f41ab2ae2f9cc9b0b09ff8783b9706cd93d3c31491e6f7079d99612a9e565b51600182015501925115159260ff199360ff8583541691161790558a6000146123a9578181016002848254161790555b01908154168960018217835561239d575b50508451938452830190612628565ba260ff600e54169081612395575b50612387575080f35b61239090612b06565b505080f35b90503861237e565b60021790553880612361565b8181016004848254161790558c84600a8301916123c68354612972565b90601f82116123fa575b505060307710dc99591a5d08185cdcd95cdcdb595b9d0819985a5b195960421b0190915550612350565b612412928185601f935220910160051c8101906129ac565b84388f6123d0565b634e487b7160e01b8b52602160045260248bfd5b8380fd5b50346102b257602080600319360112611c5f576001600160a01b036124556125a6565b1682526013815260408220916040518092808554928381520194835280832092905b82821061249a57610dcd8561248e818903826128de565b6040519182918261256b565b835486529485019460019384019390910190612477565b50346102b257602080600319360112611c5f5760043582526012815260408220916040518092808554928381520194835280832092905b8282106124ff57610dcd8561248e818903826128de565b8354865294850194600193840193909101906124e8565b905034611c5f576020366003190112611c5f5760043563ffffffff60e01b811680910361151a5760209250637965db0b60e01b811490811561255a575b5015158152f35b6301ffc9a760e01b14905038612553565b6020908160408183019282815285518094520193019160005b828110612592575050505090565b835185529381019392810192600101612584565b600435906001600160a01b038216820361078857565b602435906001600160a01b038216820361078857565b604435906001600160a01b038216820361078857565b919082519283825260005b848110612614575050826000602080949584010152601f8019910116010190565b6020818301810151848301820152016125f3565b9060048210156126355752565b634e487b7160e01b600052602160045260246000fd5b9060a060031983011261078857600435916024359160443591606435916001600160401b03916084359083821161078857806023830112156107885781600401359384116107885760248483010111610788576024019190565b3360009081527fad3228b676f7d3cd4284a5443f17f1962b36e491b30a40b2405849e597ba5fb5602052604081205460ff16156115d85750565b3360009081527ff7c9542c591017a21c74b6f3fab6263c7952fc0aaf9db4c22a2a04ddc7f8674f60205260409020546000805160206137cc8339815191529060ff16156115d85750565b80600052600060205260406000203360005260205260ff60406000205416156115d85750565b9060009180835282602052604083209160018060a01b03169182845260205260ff604084205416156000146127c857808352826020526040832082845260205260408320600160ff198254161790557f2f8788117e7eff1d82e926ec794901d17c78024a50270940304540a733656f0d339380a4600190565b505090565b9060009180835282602052604083209160018060a01b03169182845260205260ff6040842054166000146127c85780835282602052604083208284526020526040832060ff1981541690557ff6391f5c32d9c69d2a47ea670b442974b53935d1edc7fd64eb21e047a839171b339380a4600190565b606081019081106001600160401b038211176108c557604052565b61016081019081106001600160401b038211176108c557604052565b6001600160401b0381116108c557604052565b61010081019081106001600160401b038211176108c557604052565b60a081019081106001600160401b038211176108c557604052565b604081019081106001600160401b038211176108c557604052565b601f909101601f19168101906001600160401b038211908210176108c557604052565b90816020910312610788575180151581036107885790565b9190820391821161292657565b634e487b7160e01b600052601160045260246000fd5b60001981146129265760010190565b6001600160401b0381116108c557601f01601f191660200190565b60068210156126355752565b90600182811c921680156129a2575b602083101461298c57565b634e487b7160e01b600052602260045260246000fd5b91607f1691612981565b8181106129b7575050565b600081556001016129ac565b9190601f81116129d257505050565b6129fe926000526020600020906020601f840160051c83019310612a00575b601f0160051c01906129ac565b565b90915081906129f1565b8054821015612a225760005260206000200190600090565b634e487b7160e01b600052603260045260246000fd5b80549190600160401b8310156108c55782612a5b9160016129fe95018155612a0a565b90919082549060031b91821b91600019901b1916179055565b60ff60025416612a8057565b60405163d93c066560e01b8152600490fd5b60048210156126355752565b9060048110156126355760ff80198354169116179055565b600260015414612ac7576002600155565b604051633ee5aeb560e01b8152600490fd5b8181029291811591840414171561292657565b9060038210156126355752565b9190820180921161292657565b60009080825260106020526040822091825415611f355760ff6009840154166006811015613218576002036132065781815260146020526040812060ff600260405192612b5284612842565b612b5f8382541685612a92565b60018101546020850152015416158015604083015261320657600484015493612710612ba181612b93602086015189612ad9565b0480608052600d5490612ad9565b0490612baf82608051612919565b835160048110156131f257612bc390613647565b60075460405163d4d4f4ab60e01b81526001600160a01b039091169190612bed6004820183612aec565b602081602481865afa9081156131e75788916131b1575b506080511161319f5760a4612c38918860209460058801546040519d8e9687956374c3dd1160e01b87526004870190612aec565b6080516024860152836044860152606485015260848401525af19687156130f857859761316b575b506002546002830160e05260018060a01b03600284015416600384015460a05260048401546005850154906006860154926040518060c05263011a270b60e41b9052600460c051015260a051602460c0510152604460c0510152606460c0510152608460c051015260c060a48151015285809160078501928354612ce381612972565b908160c460c05101526001811690816000146131475750600114613103575b5060c0516020945092908390039183919060081c6001600160a01b03165af19687156130f85785976130c2575b60085460048401546005850154916001600160a01b0316803b156130be579060a48b8a8094604051968795869463058977eb60e21b865260048601528960248601526044850152608051606485015260848401525af180156130b3576130a0575b5060e05154612dca9083906001600160a01b03167f000000000000000000000000000000000000000000000000000000000000000061322c565b600360ff1960098501541617600984015560018060a01b0360e051541660038401546004850154602088015191885193600485101561241a5791612e4e93918d96959360405197612e1a8961285d565b88528d602089015260408801526060870152608086015260805160a086015260c08501528660e08501526101008401612a92565b610120820152426101408201528786526011602052604086209080518255602081015160018301556002820160018060a01b0360408301511660018060a01b0319825416179055606081015160038301556080810151600483015560a0810151600583015560c0810151600683015560e08101516007830155610100810151600481101561308c576101408392612eee600a936008612f27989701612a9e565b61012081015160098501550151910155612f0960165461293c565b601655612f1c6004840154601754612af9565b601755601854612af9565b601855612f3560195461293c565b601955612f486004820154601a54612af9565b601a5560035460018201546004909201546001600160a01b0390911691823b15611c32579060648692836040519586948593633a88b7a360e11b855260048501526024840152600160448401525af1801561095a57908491613078575b505060207f414d7d8eae12f648156e75499fc0a5a10aa84f2745c6f791b0453cb17f1e17fa9160018060a01b0360e0515416855260138252612fea8760408720612a38565b604051908152a15190600482101561222357507f85152b81739f3a755b47ae2ce45a49fa752686982746293e78d68ca2ae8c89756040849261303782519160805183526020830190612628565ba360018060a01b0360e0515416817f7e786c17cf2af4563da003063347d36dfacb540f4f6a45548e3f9a04e476920b60206040516080518152a39060805190565b61308190612879565b61151a578238612fa5565b634e487b7160e01b88526021600452602488fd5b6130ac90969196612879565b9438612d90565b6040513d89823e3d90fd5b8880fd5b965060203d6020116130f1575b6130db8160c0516128de565b602060c051809281010312611c32575196612d2f565b503d6130cf565b6040513d87823e3d90fd5b9383525060208220909282915b81831061312a5750509160e460209360c051010138612d02565b805460c051840160e4015289935060209290920191600101613110565b90506020955060e4925060ff19168260c0510152151560051b60c051010138612d02565b9096506020813d602011613197575b81613187602093836128de565b810103126108db57519538612c60565b3d915061317a565b60405163bb55fd2760e01b8152600490fd5b90506020813d6020116131df575b816131cc602093836128de565b810103126131db575138612c04565b8780fd5b3d91506131bf565b6040513d8a823e3d90fd5b634e487b7160e01b86526021600452602486fd5b60405163638268d360e01b8152600490fd5b634e487b7160e01b82526021600452602482fd5b60405163a9059cbb60e01b60208201526001600160a01b03909216602483015260448083019390935291815260808101916001600160401b038311828410176108c5576129fe926040525b6000806132c19260018060a01b03169360208151910182865af13d1561330a573d906132a28261294b565b916132b060405193846128de565b82523d6000602084013e5b83613312565b80519081151591826132ef575b50506132d75750565b60249060405190635274afe760e01b82526004820152fd5b6133029250602080918301019101612901565b1538806132ce565b6060906132bb565b90613339575080511561332757805190602001fd5b604051630a12f52160e11b8152600490fd5b8151158061336c575b61334a575090565b604051639996b31560e01b81526001600160a01b039091166004820152602490fd5b50803b15613342565b9094939260609260808301968352602083015260018060a01b031660408201520152565b6040516323b872dd60e01b60208201526001600160a01b0392831660248201529290911660448301526064808301939093529181526129fe916133db826128a8565b613277565b8015612926576000190190565b906040519182600082549261340184612972565b90818452600194858116908160001461346e575060011461342b575b50506129fe925003836128de565b9093915060005260209081600020936000915b8183106134565750506129fe9350820101388061341d565b8554888401850152948501948794509183019161343e565b9150506129fe94506020925060ff191682840152151560051b820101388061341d565b919060018060a01b039081600354169360409485519384916337b6d96b60e01b835283600484015282602460209788935afa801561363c57859260009161361f575b50156135ea57600554169160248751809481936329f8f90760e01b835260048301525afa9081156135df576000916135c2575b501561359857600954811061357157600a54106135415767456c696769626c6560c01b6001935191613537836128c3565b6008835282015290565b73416d6f756e742061626f7665206d6178696d756d60601b6000935191613567836128c3565b6014835282015290565b5073416d6f756e742062656c6f77206d696e696d756d60601b6000935191613567836128c3565b506c12d650881b9bdd081d985b1a59609a1b60009351916135b8836128c3565b600d835282015290565b6135d99150833d85116109535761094581836128de565b38613506565b85513d6000823e3d90fd5b5050505074109d5cda5b995cdcc81b9bdd081d995c9a599a5959605a1b6000935191613615836128c3565b6015835282015290565b6136369150833d85116109535761094581836128de565b386134d3565b87513d6000823e3d90fd5b60048110156126355780156136a4576001811461369e576002146136995760405162461bcd60e51b815260206004820152600c60248201526b24b73b30b634b2103a34b2b960a11b6044820152606490fd5b600290565b50600190565b50600090565b6001600160a01b03166000908152601360205260408120909190825b8154808210156137645783906136dc8385612a0a565b929054600393841b1c146136fa5750506136f59061293c565b6136c6565b929350939060001992838101908111611e2c5790612a5b61371e61372b9387612a0a565b905490881b1c9186612a0a565b825490811561375057508101926137428484612a0a565b81939154921b1b1916905555565b634e487b7160e01b81526031600452602490fd5b505050505056fee2f1b99e1072818180f1076f4d00e3e6167a0ce8362b9787399f82425f08e6357e14bc60ff89d7bdae4837b4985d133b6d0c1fdacc16ef67351e15e0c4362ba6f611fec7babefd259c57ea5b6006acff8140ab17bb816c65ba0aa7e36c09caa865d7a28e3265b37a6474929f336521b332c1681b933f6cb9f3376673440d862a0914bb97ca83e85ef385857d9d418f187ff630589e0c9f44db92976d8e4519cba2646970667358221220154383c62099ed03dc9ce1c12061189374c254d5cc1c1f827a663ee70f644fca64736f6c634300081400332f8788117e7eff1d82e926ec794901d17c78024a50270940304540a733656f0d","linkReferences":{}},"methodIdentifiers":{"DEFAULT_ADMIN_ROLE()":"a217fddf","DEFAULT_HANDLER_ROLE()":"99b9c85b","FUNDER_ROLE()":"34aedecd","ORACLE_CALLBACK_ROLE()":"e86b9c8e","PAUSER_ROLE()":"e63ab1e9","autoFundEnabled()":"a632140c","businessRegistry()":"3dfc32f6","buyerRegistry()":"6fb4f627","calculateAdvanceOffer(bytes32,uint256,uint256)":"34c74b4d","calculateSettlementAmount(uint256)":"0f9d6706","cancelRequest(uint256)":"3015394c","closeInvoice(uint256)":"aa638c78","creditOracle()":"e36922a5","emergencyWithdraw(address,uint256,address)":"551512de","factorInvoice(bytes32,uint256,uint256,bytes32,string)":"5498a99c","fundInvoice(uint256)":"64d5fa47","getActiveInvoices(address)":"0524857b","getFactoringRequest(uint256)":"0db1682e","getFactoringResult(uint256)":"70f8b7d3","getMaxInvoiceAmount()":"c0dd335c","getMinInvoiceAmount()":"e63f015b","getProtocolStats()":"771aceef","getRequestsByBusiness(uint256)":"02da0d69","getRoleAdmin(bytes32)":"248a9ca3","getSupportedPaymentTerms()":"9f136ff0","grantRole(bytes32,address)":"2f2ff15d","handleDefault(uint256)":"4af37b23","hasRole(bytes32,address)":"91d14854","invoiceToken()":"464b5391","isEligibleForFactoring(uint256,bytes32,uint256)":"b0fc27f5","kybRegistry()":"a24b742a","liquidityPool()":"665a11ca","maxInvoiceAmount()":"82cfd5a4","maxPaymentTermDays()":"916dea1b","minInvoiceAmount()":"d334bae9","minPaymentTermDays()":"fffdc4ea","onAssessmentComplete(uint256,bool,uint8,uint256)":"08ff3697","pause()":"8456cb59","paused()":"5c975abb","processPaymentFromBuyer(uint256)":"682ed819","protocolFeeBps()":"35659fb8","recordBuyerPayment(uint256,uint256)":"6439de0b","renounceRole(bytes32,address)":"36568abe","revokeRole(bytes32,address)":"d547741f","setAutoFundEnabled(bool)":"5754f8d3","setContractAddresses(address,address,address,address,address,address,address)":"d72be09d","setMaxInvoiceAmount(uint256)":"33fbf73d","setMaxPaymentTermDays(uint256)":"d7f1c906","setMinInvoiceAmount(uint256)":"3747f3e6","setMinPaymentTermDays(uint256)":"c3085b84","setProtocolFee(uint256)":"787dce3d","settleEarly(uint256)":"530fce64","stablecoin()":"e9cbd822","submitInvoice(bytes32,uint256,uint256,bytes32,string)":"de83f3b7","supportsInterface(bytes4)":"01ffc9a7","unpause()":"3f4ba83a","yieldDistributor()":"a38c2c3d"},"id":43}