{"abi":[{"type":"constructor","inputs":[{"name":"_stablecoin","type":"address","internalType":"address"},{"name":"_invoiceToken","type":"address","internalType":"address"},{"name":"_businessRegistry","type":"address","internalType":"address"},{"name":"_buyerRegistry","type":"address","internalType":"address"},{"name":"_kybRegistry","type":"address","internalType":"address"},{"name":"_creditOracle","type":"address","internalType":"address"},{"name":"_liquidityPool","type":"address","internalType":"address"},{"name":"_yieldDistributor","type":"address","internalType":"address"},{"name":"_admin","type":"address","internalType":"address"}],"stateMutability":"nonpayable"},{"type":"function","name":"DEFAULT_ADMIN_ROLE","inputs":[],"outputs":[{"name":"","type":"bytes32","internalType":"bytes32"}],"stateMutability":"view"},{"type":"function","name":"DEFAULT_HANDLER_ROLE","inputs":[],"outputs":[{"name":"","type":"bytes32","internalType":"bytes32"}],"stateMutability":"view"},{"type":"function","name":"FUNDER_ROLE","inputs":[],"outputs":[{"name":"","type":"bytes32","internalType":"bytes32"}],"stateMutability":"view"},{"type":"function","name":"ORACLE_CALLBACK_ROLE","inputs":[],"outputs":[{"name":"","type":"bytes32","internalType":"bytes32"}],"stateMutability":"view"},{"type":"function","name":"PAUSER_ROLE","inputs":[],"outputs":[{"name":"","type":"bytes32","internalType":"bytes32"}],"stateMutability":"view"},{"type":"function","name":"autoFundEnabled","inputs":[],"outputs":[{"name":"","type":"bool","internalType":"bool"}],"stateMutability":"view"},{"type":"function","name":"businessRegistry","inputs":[],"outputs":[{"name":"","type":"address","internalType":"contract IBusinessRegistry"}],"stateMutability":"view"},{"type":"function","name":"buyerRegistry","inputs":[],"outputs":[{"name":"","type":"address","internalType":"contract IBuyerRegistry"}],"stateMutability":"view"},{"type":"function","name":"calculateAdvanceOffer","inputs":[{"name":"buyerHash","type":"bytes32","internalType":"bytes32"},{"name":"faceValue","type":"uint256","internalType":"uint256"},{"name":"dueDate","type":"uint256","internalType":"uint256"}],"outputs":[{"name":"advanceAmount","type":"uint256","internalType":"uint256"},{"name":"advanceRate","type":"uint256","internalType":"uint256"},{"name":"tier","type":"uint8","internalType":"enum ICreditOracle.RiskTier"},{"name":"fee","type":"uint256","internalType":"uint256"}],"stateMutability":"view"},{"type":"function","name":"calculateSettlementAmount","inputs":[{"name":"invoiceId","type":"uint256","internalType":"uint256"}],"outputs":[{"name":"","type":"uint256","internalType":"uint256"}],"stateMutability":"view"},{"type":"function","name":"cancelRequest","inputs":[{"name":"requestId","type":"uint256","internalType":"uint256"}],"outputs":[],"stateMutability":"nonpayable"},{"type":"function","name":"closeInvoice","inputs":[{"name":"invoiceId","type":"uint256","internalType":"uint256"}],"outputs":[],"stateMutability":"nonpayable"},{"type":"function","name":"creditOracle","inputs":[],"outputs":[{"name":"","type":"address","internalType":"contract ICreditOracle"}],"stateMutability":"view"},{"type":"function","name":"emergencyWithdraw","inputs":[{"name":"token","type":"address","internalType":"address"},{"name":"amount","type":"uint256","internalType":"uint256"},{"name":"to","type":"address","internalType":"address"}],"outputs":[],"stateMutability":"nonpayable"},{"type":"function","name":"factorInvoice","inputs":[{"name":"buyerHash","type":"bytes32","internalType":"bytes32"},{"name":"faceValue","type":"uint256","internalType":"uint256"},{"name":"dueDate","type":"uint256","internalType":"uint256"},{"name":"documentHash","type":"bytes32","internalType":"bytes32"},{"name":"invoiceNumber","type":"string","internalType":"string"}],"outputs":[{"name":"invoiceId","type":"uint256","internalType":"uint256"},{"name":"advanceAmount","type":"uint256","internalType":"uint256"}],"stateMutability":"nonpayable"},{"type":"function","name":"fundInvoice","inputs":[{"name":"requestId","type":"uint256","internalType":"uint256"}],"outputs":[{"name":"invoiceId","type":"uint256","internalType":"uint256"},{"name":"advanceAmount","type":"uint256","internalType":"uint256"}],"stateMutability":"nonpayable"},{"type":"function","name":"getActiveInvoices","inputs":[{"name":"seller","type":"address","internalType":"address"}],"outputs":[{"name":"","type":"uint256[]","internalType":"uint256[]"}],"stateMutability":"view"},{"type":"function","name":"getFactoringRequest","inputs":[{"name":"requestId","type":"uint256","internalType":"uint256"}],"outputs":[{"name":"","type":"tuple","internalType":"struct InvoiceXCore.FactoringRequest","components":[{"name":"requestId","type":"uint256","internalType":"uint256"},{"name":"businessId","type":"uint256","internalType":"uint256"},{"name":"seller","type":"address","internalType":"address"},{"name":"buyerHash","type":"bytes32","internalType":"bytes32"},{"name":"faceValue","type":"uint256","internalType":"uint256"},{"name":"dueDate","type":"uint256","internalType":"uint256"},{"name":"documentHash","type":"bytes32","internalType":"bytes32"},{"name":"invoiceNumber","type":"string","internalType":"string"},{"name":"requestedAt","type":"uint256","internalType":"uint256"},{"name":"status","type":"uint8","internalType":"enum InvoiceXCore.RequestStatus"},{"name":"rejectionReason","type":"string","internalType":"string"}]}],"stateMutability":"view"},{"type":"function","name":"getFactoringResult","inputs":[{"name":"invoiceId","type":"uint256","internalType":"uint256"}],"outputs":[{"name":"","type":"tuple","internalType":"struct InvoiceXCore.FactoringResult","components":[{"name":"invoiceId","type":"uint256","internalType":"uint256"},{"name":"requestId","type":"uint256","internalType":"uint256"},{"name":"seller","type":"address","internalType":"address"},{"name":"buyerHash","type":"bytes32","internalType":"bytes32"},{"name":"faceValue","type":"uint256","internalType":"uint256"},{"name":"advanceAmount","type":"uint256","internalType":"uint256"},{"name":"advanceRate","type":"uint256","internalType":"uint256"},{"name":"feeAmount","type":"uint256","internalType":"uint256"},{"name":"riskTier","type":"uint8","internalType":"enum ICreditOracle.RiskTier"},{"name":"deploymentId","type":"uint256","internalType":"uint256"},{"name":"factoredAt","type":"uint256","internalType":"uint256"}]}],"stateMutability":"view"},{"type":"function","name":"getMaxInvoiceAmount","inputs":[],"outputs":[{"name":"","type":"uint256","internalType":"uint256"}],"stateMutability":"view"},{"type":"function","name":"getMinInvoiceAmount","inputs":[],"outputs":[{"name":"","type":"uint256","internalType":"uint256"}],"stateMutability":"view"},{"type":"function","name":"getProtocolStats","inputs":[],"outputs":[{"name":"","type":"tuple","internalType":"struct InvoiceXCore.ProtocolStats","components":[{"name":"totalInvoicesFactored","type":"uint256","internalType":"uint256"},{"name":"totalValueFactored","type":"uint256","internalType":"uint256"},{"name":"totalAdvancesPaid","type":"uint256","internalType":"uint256"},{"name":"activeInvoices","type":"uint256","internalType":"uint256"},{"name":"activeValue","type":"uint256","internalType":"uint256"},{"name":"totalRepaid","type":"uint256","internalType":"uint256"},{"name":"totalDefaults","type":"uint256","internalType":"uint256"},{"name":"defaultValue","type":"uint256","internalType":"uint256"}]}],"stateMutability":"view"},{"type":"function","name":"getRequestsByBusiness","inputs":[{"name":"businessId","type":"uint256","internalType":"uint256"}],"outputs":[{"name":"","type":"uint256[]","internalType":"uint256[]"}],"stateMutability":"view"},{"type":"function","name":"getRoleAdmin","inputs":[{"name":"role","type":"bytes32","internalType":"bytes32"}],"outputs":[{"name":"","type":"bytes32","internalType":"bytes32"}],"stateMutability":"view"},{"type":"function","name":"getSupportedPaymentTerms","inputs":[],"outputs":[{"name":"minDays","type":"uint256","internalType":"uint256"},{"name":"maxDays","type":"uint256","internalType":"uint256"}],"stateMutability":"view"},{"type":"function","name":"grantRole","inputs":[{"name":"role","type":"bytes32","internalType":"bytes32"},{"name":"account","type":"address","internalType":"address"}],"outputs":[],"stateMutability":"nonpayable"},{"type":"function","name":"handleDefault","inputs":[{"name":"invoiceId","type":"uint256","internalType":"uint256"}],"outputs":[],"stateMutability":"nonpayable"},{"type":"function","name":"hasRole","inputs":[{"name":"role","type":"bytes32","internalType":"bytes32"},{"name":"account","type":"address","internalType":"address"}],"outputs":[{"name":"","type":"bool","internalType":"bool"}],"stateMutability":"view"},{"type":"function","name":"invoiceToken","inputs":[],"outputs":[{"name":"","type":"address","internalType":"contract IInvoiceToken"}],"stateMutability":"view"},{"type":"function","name":"isEligibleForFactoring","inputs":[{"name":"businessId","type":"uint256","internalType":"uint256"},{"name":"buyerHash","type":"bytes32","internalType":"bytes32"},{"name":"faceValue","type":"uint256","internalType":"uint256"}],"outputs":[{"name":"eligible","type":"bool","internalType":"bool"},{"name":"reason","type":"string","internalType":"string"}],"stateMutability":"view"},{"type":"function","name":"kybRegistry","inputs":[],"outputs":[{"name":"","type":"address","internalType":"contract IKYBRegistry"}],"stateMutability":"view"},{"type":"function","name":"liquidityPool","inputs":[],"outputs":[{"name":"","type":"address","internalType":"contract ILiquidityPool"}],"stateMutability":"view"},{"type":"function","name":"maxInvoiceAmount","inputs":[],"outputs":[{"name":"","type":"uint256","internalType":"uint256"}],"stateMutability":"view"},{"type":"function","name":"maxPaymentTermDays","inputs":[],"outputs":[{"name":"","type":"uint256","internalType":"uint256"}],"stateMutability":"view"},{"type":"function","name":"minInvoiceAmount","inputs":[],"outputs":[{"name":"","type":"uint256","internalType":"uint256"}],"stateMutability":"view"},{"type":"function","name":"minPaymentTermDays","inputs":[],"outputs":[{"name":"","type":"uint256","internalType":"uint256"}],"stateMutability":"view"},{"type":"function","name":"onAssessmentComplete","inputs":[{"name":"requestId","type":"uint256","internalType":"uint256"},{"name":"approved","type":"bool","internalType":"bool"},{"name":"tier","type":"uint8","internalType":"enum ICreditOracle.RiskTier"},{"name":"advanceRate","type":"uint256","internalType":"uint256"}],"outputs":[],"stateMutability":"nonpayable"},{"type":"function","name":"pause","inputs":[],"outputs":[],"stateMutability":"nonpayable"},{"type":"function","name":"paused","inputs":[],"outputs":[{"name":"","type":"bool","internalType":"bool"}],"stateMutability":"view"},{"type":"function","name":"processPaymentFromBuyer","inputs":[{"name":"invoiceId","type":"uint256","internalType":"uint256"}],"outputs":[],"stateMutability":"nonpayable"},{"type":"function","name":"protocolFeeBps","inputs":[],"outputs":[{"name":"","type":"uint256","internalType":"uint256"}],"stateMutability":"view"},{"type":"function","name":"recordBuyerPayment","inputs":[{"name":"invoiceId","type":"uint256","internalType":"uint256"},{"name":"amount","type":"uint256","internalType":"uint256"}],"outputs":[],"stateMutability":"nonpayable"},{"type":"function","name":"renounceRole","inputs":[{"name":"role","type":"bytes32","internalType":"bytes32"},{"name":"callerConfirmation","type":"address","internalType":"address"}],"outputs":[],"stateMutability":"nonpayable"},{"type":"function","name":"revokeRole","inputs":[{"name":"role","type":"bytes32","internalType":"bytes32"},{"name":"account","type":"address","internalType":"address"}],"outputs":[],"stateMutability":"nonpayable"},{"type":"function","name":"setAutoFundEnabled","inputs":[{"name":"enabled","type":"bool","internalType":"bool"}],"outputs":[],"stateMutability":"nonpayable"},{"type":"function","name":"setContractAddresses","inputs":[{"name":"_invoiceToken","type":"address","internalType":"address"},{"name":"_businessRegistry","type":"address","internalType":"address"},{"name":"_buyerRegistry","type":"address","internalType":"address"},{"name":"_kybRegistry","type":"address","internalType":"address"},{"name":"_creditOracle","type":"address","internalType":"address"},{"name":"_liquidityPool","type":"address","internalType":"address"},{"name":"_yieldDistributor","type":"address","internalType":"address"}],"outputs":[],"stateMutability":"nonpayable"},{"type":"function","name":"setMaxInvoiceAmount","inputs":[{"name":"amount","type":"uint256","internalType":"uint256"}],"outputs":[],"stateMutability":"nonpayable"},{"type":"function","name":"setMaxPaymentTermDays","inputs":[{"name":"days_","type":"uint256","internalType":"uint256"}],"outputs":[],"stateMutability":"nonpayable"},{"type":"function","name":"setMinInvoiceAmount","inputs":[{"name":"amount","type":"uint256","internalType":"uint256"}],"outputs":[],"stateMutability":"nonpayable"},{"type":"function","name":"setMinPaymentTermDays","inputs":[{"name":"days_","type":"uint256","internalType":"uint256"}],"outputs":[],"stateMutability":"nonpayable"},{"type":"function","name":"setProtocolFee","inputs":[{"name":"feeBps","type":"uint256","internalType":"uint256"}],"outputs":[],"stateMutability":"nonpayable"},{"type":"function","name":"settleEarly","inputs":[{"name":"invoiceId","type":"uint256","internalType":"uint256"}],"outputs":[],"stateMutability":"nonpayable"},{"type":"function","name":"stablecoin","inputs":[],"outputs":[{"name":"","type":"address","internalType":"contract IERC20"}],"stateMutability":"view"},{"type":"function","name":"submitInvoice","inputs":[{"name":"buyerHash","type":"bytes32","internalType":"bytes32"},{"name":"faceValue","type":"uint256","internalType":"uint256"},{"name":"dueDate","type":"uint256","internalType":"uint256"},{"name":"documentHash","type":"bytes32","internalType":"bytes32"},{"name":"invoiceNumber","type":"string","internalType":"string"}],"outputs":[{"name":"requestId","type":"uint256","internalType":"uint256"}],"stateMutability":"nonpayable"},{"type":"function","name":"supportsInterface","inputs":[{"name":"interfaceId","type":"bytes4","internalType":"bytes4"}],"outputs":[{"name":"","type":"bool","internalType":"bool"}],"stateMutability":"view"},{"type":"function","name":"unpause","inputs":[],"outputs":[],"stateMutability":"nonpayable"},{"type":"function","name":"yieldDistributor","inputs":[],"outputs":[{"name":"","type":"address","internalType":"contract IYieldDistributor"}],"stateMutability":"view"},{"type":"event","name":"AssessmentComplete","inputs":[{"name":"requestId","type":"uint256","indexed":true,"internalType":"uint256"},{"name":"approved","type":"bool","indexed":false,"internalType":"bool"},{"name":"tier","type":"uint8","indexed":false,"internalType":"enum ICreditOracle.RiskTier"}],"anonymous":false},{"type":"event","name":"ContractUpdated","inputs":[{"name":"name","type":"string","indexed":false,"internalType":"string"},{"name":"newAddress","type":"address","indexed":false,"internalType":"address"}],"anonymous":false},{"type":"event","name":"InvoiceClosed","inputs":[{"name":"invoiceId","type":"uint256","indexed":true,"internalType":"uint256"}],"anonymous":false},{"type":"event","name":"InvoiceDefaulted","inputs":[{"name":"invoiceId","type":"uint256","indexed":true,"internalType":"uint256"},{"name":"outstandingAmount","type":"uint256","indexed":false,"internalType":"uint256"}],"anonymous":false},{"type":"event","name":"InvoiceFactored","inputs":[{"name":"invoiceId","type":"uint256","indexed":true,"internalType":"uint256"},{"name":"seller","type":"address","indexed":true,"internalType":"address"},{"name":"advanceAmount","type":"uint256","indexed":false,"internalType":"uint256"}],"anonymous":false},{"type":"event","name":"InvoiceFunded","inputs":[{"name":"invoiceId","type":"uint256","indexed":true,"internalType":"uint256"},{"name":"requestId","type":"uint256","indexed":true,"internalType":"uint256"},{"name":"advanceAmount","type":"uint256","indexed":false,"internalType":"uint256"},{"name":"tier","type":"uint8","indexed":false,"internalType":"enum ICreditOracle.RiskTier"}],"anonymous":false},{"type":"event","name":"InvoiceSettledEarly","inputs":[{"name":"invoiceId","type":"uint256","indexed":true,"internalType":"uint256"},{"name":"settlementAmount","type":"uint256","indexed":false,"internalType":"uint256"}],"anonymous":false},{"type":"event","name":"InvoiceSubmitted","inputs":[{"name":"requestId","type":"uint256","indexed":true,"internalType":"uint256"},{"name":"businessId","type":"uint256","indexed":true,"internalType":"uint256"},{"name":"buyerHash","type":"bytes32","indexed":false,"internalType":"bytes32"},{"name":"faceValue","type":"uint256","indexed":false,"internalType":"uint256"}],"anonymous":false},{"type":"event","name":"Paused","inputs":[{"name":"account","type":"address","indexed":false,"internalType":"address"}],"anonymous":false},{"type":"event","name":"PaymentRecorded","inputs":[{"name":"invoiceId","type":"uint256","indexed":true,"internalType":"uint256"},{"name":"amount","type":"uint256","indexed":false,"internalType":"uint256"}],"anonymous":false},{"type":"event","name":"ProtocolFeeCollected","inputs":[{"name":"amount","type":"uint256","indexed":false,"internalType":"uint256"}],"anonymous":false},{"type":"event","name":"ProtocolPaused","inputs":[],"anonymous":false},{"type":"event","name":"ProtocolUnpaused","inputs":[],"anonymous":false},{"type":"event","name":"RequestCancelled","inputs":[{"name":"requestId","type":"uint256","indexed":true,"internalType":"uint256"}],"anonymous":false},{"type":"event","name":"RoleAdminChanged","inputs":[{"name":"role","type":"bytes32","indexed":true,"internalType":"bytes32"},{"name":"previousAdminRole","type":"bytes32","indexed":true,"internalType":"bytes32"},{"name":"newAdminRole","type":"bytes32","indexed":true,"internalType":"bytes32"}],"anonymous":false},{"type":"event","name":"RoleGranted","inputs":[{"name":"role","type":"bytes32","indexed":true,"internalType":"bytes32"},{"name":"account","type":"address","indexed":true,"internalType":"address"},{"name":"sender","type":"address","indexed":true,"internalType":"address"}],"anonymous":false},{"type":"event","name":"RoleRevoked","inputs":[{"name":"role","type":"bytes32","indexed":true,"internalType":"bytes32"},{"name":"account","type":"address","indexed":true,"internalType":"address"},{"name":"sender","type":"address","indexed":true,"internalType":"address"}],"anonymous":false},{"type":"event","name":"Unpaused","inputs":[{"name":"account","type":"address","indexed":false,"internalType":"address"}],"anonymous":false},{"type":"error","name":"AccessControlBadConfirmation","inputs":[]},{"type":"error","name":"AccessControlUnauthorizedAccount","inputs":[{"name":"account","type":"address","internalType":"address"},{"name":"neededRole","type":"bytes32","internalType":"bytes32"}]},{"type":"error","name":"AddressEmptyCode","inputs":[{"name":"target","type":"address","internalType":"address"}]},{"type":"error","name":"AddressInsufficientBalance","inputs":[{"name":"account","type":"address","internalType":"address"}]},{"type":"error","name":"AssessmentPending","inputs":[]},{"type":"error","name":"BusinessNotRegistered","inputs":[]},{"type":"error","name":"BusinessNotVerified","inputs":[]},{"type":"error","name":"BuyerBlacklisted","inputs":[]},{"type":"error","name":"BuyerExceedsCreditLimit","inputs":[]},{"type":"error","name":"EnforcedPause","inputs":[]},{"type":"error","name":"ExpectedPause","inputs":[]},{"type":"error","name":"FailedInnerCall","inputs":[]},{"type":"error","name":"InsufficientLiquidity","inputs":[]},{"type":"error","name":"InvalidInvoiceAmount","inputs":[]},{"type":"error","name":"InvalidPaymentTerms","inputs":[]},{"type":"error","name":"InvoiceNotActive","inputs":[]},{"type":"error","name":"InvoiceNotFound","inputs":[]},{"type":"error","name":"KYBNotValid","inputs":[]},{"type":"error","name":"NotRequestOwner","inputs":[]},{"type":"error","name":"ReentrancyGuardReentrantCall","inputs":[]},{"type":"error","name":"RequestAlreadyFunded","inputs":[]},{"type":"error","name":"RequestNotApproved","inputs":[]},{"type":"error","name":"RequestNotFound","inputs":[]},{"type":"error","name":"SafeERC20FailedOperation","inputs":[{"name":"token","type":"address","internalType":"address"}]},{"type":"error","name":"TransferFailed","inputs":[]},{"type":"error","name":"ZeroAddress","inputs":[]}],"bytecode":{"object":"0x60a034620001fe57601f62003cb538819003918201601f19168301916001600160401b03831184841017620002025780849261012094604052833981010312620001fe576200004e8162000216565b6200005c6020830162000216565b906200006b6040840162000216565b906200007a6060850162000216565b93620000896080820162000216565b946200009860a0830162000216565b94620000a760c0840162000216565b90620000c5610100620000bd60e0870162000216565b950162000216565b96600180556002549160018060a01b03809716998a15620001ec57878a1615620001ec5787809681958294620001b69e608052610100600160a81b039060081b169060018060a81b031916176002558160018060a01b03199b168b60035416176003551689600454161760045516876005541617600555168560065416176006551683600754161760075516906008541617600855633b9aca0060095564746a528800600a55601e600b55605a600c556064600d55600160ff19600e541617600e556001600f5562000197816200022b565b50620001a381620002a9565b50620001af8162000349565b50620003e3565b5060405161381690816200047f82396080518181816102c8015281816114790152818161171c015281816119080152612e2f0152f35b60405163d92e233d60e01b8152600490fd5b5f80fd5b634e487b7160e01b5f52604160045260245ffd5b51906001600160a01b0382168203620001fe57565b6001600160a01b03165f8181527fad3228b676f7d3cd4284a5443f17f1962b36e491b30a40b2405849e597ba5fb5602052604081205490919060ff16620002a557818052816020526040822081835260205260408220600160ff1982541617905533915f8051602062003c958339815191528180a4600190565b5090565b6001600160a01b03165f8181527f7b492ae5d54acc939302c21c32c04a8f7367d23220de7ef17660a581dfbb516c60205260408120549091907f0914bb97ca83e85ef385857d9d418f187ff630589e0c9f44db92976d8e4519cb9060ff166200034457808352826020526040832082845260205260408320600160ff198254161790555f8051602062003c95833981519152339380a4600190565b505090565b6001600160a01b03165f8181527e638e1499a40aae242d83f0d992ee84a85288c09e9dd20a94e4ef830cd2090660205260408120549091907fe2f1b99e1072818180f1076f4d00e3e6167a0ce8362b9787399f82425f08e6359060ff166200034457808352826020526040832082845260205260408320600160ff198254161790555f8051602062003c95833981519152339380a4600190565b6001600160a01b03165f8181527ff7c9542c591017a21c74b6f3fab6263c7952fc0aaf9db4c22a2a04ddc7f8674f60205260408120549091907f65d7a28e3265b37a6474929f336521b332c1681b933f6cb9f3376673440d862a9060ff166200034457808352826020526040832082845260205260408320600160ff198254161790555f8051602062003c95833981519152339380a460019056fe610100806040526004361015610013575f80fd5b5f90813560e01c90816301ffc9a7146125ab5750806302da0d69146125465780630524857b146124c757806308ff3697146122b95780630db1682e146120f35780630f9d670614612032578063248a9ca3146120065780632f2ff15d14611fc95780633015394c14611f0e57806333fbf73d14611eeb57806334aedecd14611eb057806334c74b4d14611e4157806335659fb814611e2357806336568abe14611ddb5780633747f3e614611db85780633dfc32f614611d8f5780633f4ba83a14611d00578063464b539114611cd35780634af37b2314611a01578063530fce64146118335780635498a99c146117fa578063551512de1461179b5780635754f8d3146117635780635c975abb146117405780636439de0b1461164a57806364d5fa4714611595578063665a11ca1461156c578063682ed819146113a45780636fb4f6271461137b57806370f8b7d3146111ff578063771aceef14611126578063787dce3d1461110357806382cfd5a414610d995780638456cb5914611084578063916dea1b1461106657806391d148541461101d57806399b9c85b14610fe25780639f136ff014610fbd578063a217fddf14610fa1578063a24b742a14610f78578063a38c2c3d14610f4f578063a632140c14610f2c578063aa638c7814610dfa578063b0fc27f514610db7578063c0dd335c14610d99578063c3085b8414610d76578063d334bae914610332578063d547741f14610d35578063d72be09d14610a1d578063d7f1c906146109fa578063de83f3b7146103b4578063e36922a51461038b578063e63ab1e914610350578063e63f015b14610332578063e86b9c8e146102f7578063e9cbd822146102b25763fffdc4ea14610292575f80fd5b346102af57806003193601126102af576020600b54604051908152f35b80fd5b50346102af57806003193601126102af576040517f00000000000000000000000000000000000000000000000000000000000000006001600160a01b03168152602090f35b50346102af57806003193601126102af5760206040517f7e14bc60ff89d7bdae4837b4985d133b6d0c1fdacc16ef67351e15e0c4362ba68152f35b50346102af57806003193601126102af576020600954604051908152f35b50346102af57806003193601126102af5760206040517f65d7a28e3265b37a6474929f336521b332c1681b933f6cb9f3376673440d862a8152f35b50346102af57806003193601126102af576006546040516001600160a01b039091168152602090f35b50346102af576103c3366126db565b9194959093926103d1612aff565b600354604051630a80e9bf60e41b815233600482015295906001600160a01b0316602087602481845afa9687156109785784976109c6575b5086156109b4576020602491604051928380926337b6d96b60e01b82528b60048301525afa908115610978578491610995575b5015610983576005546040516329f8f90760e01b81526004810188905290602090829060249082906001600160a01b03165afa908115610978578491610949575b5015610937576009548510801561092c575b61091a57620151806104a142846129ad565b0493600b548510801561090f575b6108fd57428311156108fd57600f54976104c8896129ce565b600f55604051936104d8856128f3565b8985528860208601523360408601528a606086015287608086015260a085015260c0840152610506816129dc565b916105146040519384612974565b81835236828201116108f957818592602092838601378301015260e082015242610100820152816101208201526040518060208101106001600160401b036020830111176108e557602081016040528281526101408201528582526010602052604082209080518255602081015160018301556002820160018060a01b036040830151166001600160601b0360a01b825416179055606081015160038301556080810151600483015560a0810151600583015560c0810151600683015560e081015180516001600160401b0381116108d157806007850192610600826105fa8654612a03565b86612a51565b602090601f831160011461086e578792610863575b50508160011b915f199060031b1c19161790555b610100810151600883015560098201610120820151600681101561084f5790610140929160ff8019835416911617905501518051906001600160401b03821161083b576106868261067d600a860154612a03565b600a8601612a51565b602090601f83116001146107cf57600a92918591836107c4575b50508160011b915f199060031b1c1916179101555b83815260126020526106ca8560408320612abf565b6020604051818101903360601b8252601481526106e681612959565b5190209260a460018060a01b03600654169484604051968794859363ed7c3ef960e01b85528c60048601528d6024860152604485015289606485015260848401525af19182156107b757819261077e575b5060209585937f699b767fc0f0ca306853b31b7c53558cd1168d94dd30063166fd55d15ce08100936040848782965260158b522055825191825287820152a3604051908152f35b9091506020813d6020116107af575b8161079a60209383612974565b810103126107ab5751906020610737565b5f80fd5b3d915061078d565b50604051903d90823e3d90fd5b015190505f806106a0565b90600a840185526020852091855b601f19851681106108235750918391600193600a95601f1981161061080b575b505050811b019101556106b5565b01515f1960f88460031b161c191690555f80806107fd565b919260206001819286850151815501940192016107dd565b634e487b7160e01b84526041600452602484fd5b634e487b7160e01b85526021600452602485fd5b015190505f80610615565b848852602088209250601f198416885b8181106108b957509084600195949392106108a1575b505050811b019055610629565b01515f1960f88460031b161c191690555f8080610894565b9293602060018192878601518155019501930161087e565b634e487b7160e01b85526041600452602485fd5b634e487b7160e01b5f52604160045260245ffd5b8480fd5b6040516345d65d6960e01b8152600490fd5b50600c5485116104af565b604051636807acb760e01b8152600490fd5b50600a54851161048f565b604051632c68acbd60e11b8152600490fd5b61096b915060203d602011610971575b6109638183612974565b810190612995565b5f61047d565b503d610959565b6040513d86823e3d90fd5b604051634eddfb7960e01b8152600490fd5b6109ae915060203d602011610971576109638183612974565b5f61043c565b6040516374336c5960e11b8152600490fd5b9096506020813d6020116109f2575b816109e260209383612974565b810103126107ab5751955f610409565b3d91506109d5565b50346102af5760203660031901126102af57610a14612734565b600435600c5580f35b50346102af5760e03660031901126102af57610a3761263a565b610a3f612650565b90610a48612666565b6064356001600160a01b03818116918290036107ab57608435928184168094036107ab5760a435948286168096036107ab5760c435968388168098036107ab578391610a92612734565b8281169081610cd0575b50501680610c77575b501680610c21575b5080610bcd575b5080610b78575b5080610b22575b5080610acc575080f35b6080815f805160206137c1833981519152926001600160601b0360a01b60085416176008556040519060408252601060408301526f2cb4b2b6322234b9ba3934b13aba37b960811b60608301526020820152a180f35b6080815f805160206137c1833981519152926001600160601b0360a01b60075416176007556040519060408252600d60408301526c131a5c5d5a591a5d1e541bdbdb609a1b60608301526020820152a15f610ac2565b6080815f805160206137c1833981519152926001600160601b0360a01b60065416176006556040519060408252600c60408301526b4372656469744f7261636c6560a01b60608301526020820152a15f610abb565b6080815f805160206137c1833981519152926001600160601b0360a01b60055416176005556040519060408252600b60408301526a4b5942526567697374727960a81b60608301526020820152a15f610ab4565b6080815f805160206137c1833981519152926001600160601b0360a01b60045416176004556040519060408252600d60408301526c4275796572526567697374727960981b60608301526020820152a15f610aad565b6080815f805160206137c1833981519152926001600160601b0360a01b60035416176003556040519060408252601060408301526f427573696e657373526567697374727960801b60608301526020820152a15f610aa5565b5f805160206137c18339815191529160809160025490610100600160a81b039060081b1690610100600160a81b031916176002556040519060408252600c60408301526b24b73b37b4b1b2aa37b5b2b760a11b60608301526020820152a15f80610a9c565b50346102af5760403660031901126102af57610d72600435610d55612650565b9080845283602052610d6d60016040862001546127c8565b612865565b5080f35b50346102af5760203660031901126102af57610d90612734565b600435600b5580f35b50346102af57806003193601126102af576020600a54604051908152f35b50346102af5760603660031901126102af57610dd76044356004356134f1565b90610df66040519283921515835260406020840152604083019061267c565b0390f35b50346102af5760203660031901126102af57600435610e17612734565b80825260116020526040822060405190610e30826128f3565b805482526001810154602083015260018060a01b0380600283015416926040810193845260038301546060820152600a60048401549360808301948552600581015460a0840152600681015460c0840152600781015460e0840152610ea060ff6008830154166101008501612b1d565b600981015461012084015201546101408201525115610f1a57610ef392610ee98593610ecd601954613446565b601955610edd8151601a546129ad565b601a5551601b54612b84565b601b555116613701565b7f7af325d48818750f963839bd931e6a1023dd2ed672f2425c863d490424bb0dcf8280a280f35b604051634d5c803960e11b8152600490fd5b50346102af57806003193601126102af57602060ff600e54166040519015158152f35b50346102af57806003193601126102af576008546040516001600160a01b039091168152602090f35b50346102af57806003193601126102af576005546040516001600160a01b039091168152602090f35b50346102af57806003193601126102af57602090604051908152f35b50346102af57806003193601126102af576040600b54600c5482519182526020820152f35b50346102af57806003193601126102af5760206040517fe2f1b99e1072818180f1076f4d00e3e6167a0ce8362b9787399f82425f08e6358152f35b50346102af5760403660031901126102af576040611039612650565b91600435815280602052209060018060a01b03165f52602052602060ff60405f2054166040519015158152f35b50346102af57806003193601126102af576020600c54604051908152f35b50346102af57806003193601126102af5761109d61276d565b6110a5612aff565b600160ff1960025416176002557f62e78cea01bee320cd4e420270b5ea74000d11b0c9f74754ebdbfc544b05a2586020604051338152a17f442792558b9a96e0f079309b45d9c253e8c39f6394bd465b3c4ffa8f834de0798180a180f35b50346102af5760203660031901126102af5761111d612734565b600435600d5580f35b50346102af57806003193601126102af5760e060405161114581612922565b8281528260208201528260408201528260608201528260808201528260a08201528260c0820152015261010060405161117d81612922565b60165490818152601754602082019081526018546040830190815260195460608401908152601a549060808501918252601b549260a08601938452601c549460c0870195865260e0601d5497019687526040519788525160208801525160408701525160608601525160808501525160a08401525160c08301525160e0820152f35b50346102af5760203660031901126102af57604081610160926101408351611226816128f3565b82815282602082015282858201528260608201528260808201528260a08201528260c08201528260e0820152826101008201528261012082015201526004358152601160205220600a6040519161127c836128f3565b805483526001810154602084015260028101546001600160a01b031660408401526003810154606084015260048101546080840152600581015460a0840152600681015460c0840152600781015460e084015260088101546112e59060ff166101008501612b1d565b6009810154610120840152015461014082015261014060405191805183526020810151602084015260018060a01b036040820151166040840152606081015160608401526080810151608084015260a081015160a084015260c081015160c084015260e081015160e08401526113656101008201516101008501906126ba565b6101208101516101208401520151610140820152f35b50346102af57806003193601126102af576004546040516001600160a01b039091168152602090f35b50346102af5760203660031901126102af576004356113c1612b41565b6113c9612aff565b808252601160205260408220604051906113e2826128f3565b805482526001810154602083015260018060a01b039182600283015416604082015260038201546060820152600a60048301549260808301938452600581015460a0840152600681015460c0840152600781015460e084015261145060ff6008830154166101008501612b1d565b600981015461012084015201546101408201525115610f1a578390519161149d838260085416337f00000000000000000000000000000000000000000000000000000000000000006133ff565b60408051602081018681529181018590524260608083019190915281526114c5608082612974565b5190209060085416803b1561155d57604051632429fdaf60e11b81526004810186905260248101859052336044820152606481019290925282908290608490829084905af1801561156157611549575b505060207f35aa84e7964cb24e58d32f42bcfd54d92adbf93087dd63ea09eb7492f7a205cf91604051908152a26001805580f35b6115529061290f565b61155d57825f611515565b8280fd5b6040513d84823e3d90fd5b50346102af57806003193601126102af576007546040516001600160a01b039091168152602090f35b50346102af5760203660031901126102af576115af612b41565b6115b7612aff565b335f9081527f7b492ae5d54acc939302c21c32c04a8f7367d23220de7ef17660a581dfbb516c60205260409020547f0914bb97ca83e85ef385857d9d418f187ff630589e0c9f44db92976d8e4519cb9060ff161561162c57604061161c600435612b91565b6001805582519182526020820152f35b6044906040519063e2517d3f60e01b82523360048301526024820152fd5b50346102af5760403660031901126102af5760043560243561166a612b41565b611672612aff565b81835260116020526040832060405161168a816128f3565b8154815260018201546020820152600a60018060a01b03928360028201541660408401526003810154606084015260048101546080840152600581015460a0840152600681015460c0840152600781015460e08401526116f560ff6008830154166101008501612b1d565b600981015461012084015201546101408201525115610f1a578061149d83869360085416337f00000000000000000000000000000000000000000000000000000000000000006133ff565b50346102af57806003193601126102af57602060ff600254166040519015158152f35b50346102af5760203660031901126102af576004358015158091036107ab5761178a612734565b60ff8019600e5416911617600e5580f35b50346102af5760603660031901126102af576117b561263a565b6117bd612666565b906117c6612734565b6001600160a01b0391808316156117e8576117e59260243592166132b8565b80f35b60405163d92e233d60e01b8152600490fd5b50346102af5760409061180c366126db565b50505050505061181a612b41565b611822612aff565b600180558151908082526020820152f35b50346102af5760203660031901126102af57600435611850612b41565b611858612aff565b80825260116020526040822060405190611871826128f3565b805482526001810154602083015260018060a01b039182600283015416604082015260038201546060820152600a60048301549260808301938452600581015460a0840152600681015460c0840152600781015460e08401526118df60ff6008830154166101008501612b1d565b600981015461012084015201546101408201525115610f1a578390519161192c838260085416337f00000000000000000000000000000000000000000000000000000000000000006133ff565b60405160208101908582528460408201524260608201526f115054931657d4d1551513115351539560821b6080820152607081526119698161293e565b5190209060085416803b1561155d57604051632429fdaf60e11b81526004810186905260248101859052336044820152606481019290925282908290608490829084905af18015611561576119ed575b505060207fd10a59e58017e03ba89ed0935784743158a4986ec7e2db48bd19af6a33d8dc8091604051908152a26001805580f35b6119f69061290f565b61155d57825f6119b9565b50346102af57602080600319360112611ccf576004357fe2f1b99e1072818180f1076f4d00e3e6167a0ce8362b9787399f82425f08e63580845283835260408420338552835260ff6040852054161561162c575080835260118252604083209160405192611a6e846128f3565b8054845260018101549382810194855260018060a01b03908160028401541690604081019182526003840154606082015260048401549360808201948552600581015460a0830152600681015460c0830152600781015460e083015260ff60088201541691611ae261010093848301612b1d565b600a600983015492610120938484015201549061014091828201525115610f1a5789988560085416803b15611ccb578a9060248b6040519e8f93849263543a181160e11b845260048401525af18015611cc057611caa575b899a50611b4b60199a999a54613446565b601955611b5b8751601a546129ad565b601a55611b69601c546129ce565b601c55611b798751601d54612b84565b601d5551885260108752611c10600a60408a20611c0a60405195611b9c876128f3565b825487526001830154978c88019889528a60028501541660408901526003840154606089015260048401546080890152600584015460a0890152600684015460c0890152611bec60078501613452565b60e089015260088401549088015260ff6009840154169087016129f7565b01613452565b91015282600354169051813b15611ca657869160248392604051998a9384926346d5f33360e11b845260048401525af19586156107b7578796611c89575b505093611c7e917ff632e7549a2b0aee8e4c18743ef9c237f6c638181c4b8dd8b02da89f56c42abe955116613701565b51604051908152a280f35b611c959192965061290f565b611ca2578493865f611c4e565b8580fd5b8680fd5b97989099611cb79061290f565b97968990611b3a565b6040513d8c823e3d90fd5b8a80fd5b5080fd5b50346102af57806003193601126102af5760025460405160089190911c6001600160a01b03168152602090f35b50346102af57806003193601126102af57611d1961276d565b60025460ff811615611d7d5760ff19166002557f5db9ee0a495bf2e6ff9c91a7834c1ba4fdd244a5e8aa4e537bd38aeae4b073aa6020604051338152a17f4cb3d6140b72ba86787ec31591f74ca57f8fd93a9ff34d2f6349365eb01f915f8180a180f35b604051638dfc202b60e01b8152600490fd5b50346102af57806003193601126102af576003546040516001600160a01b039091168152602090f35b50346102af5760203660031901126102af57611dd2612734565b60043560095580f35b50346102af5760403660031901126102af57611df5612650565b336001600160a01b03821603611e1157610d7290600435612865565b60405163334bd91960e11b8152600490fd5b50346102af57806003193601126102af576020600d54604051908152f35b50346102af5760603660031901126102af5760243561213480820291808304821490151715611e9c576080925061271080920491611e81600d5484612b64565b04906040519283526020830152600160408301526060820152f35b634e487b7160e01b83526011600452602483fd5b50346102af57806003193601126102af5760206040517f0914bb97ca83e85ef385857d9d418f187ff630589e0c9f44db92976d8e4519cb8152f35b50346102af5760203660031901126102af57611f05612734565b600435600a5580f35b50346102af5760203660031901126102af57600435808252601060205260408220805415611fb75760028101546001600160a01b03163303611fa557600901805460ff8116600681101561084f57600314611f935760ff191660051790557fee243f878b7fc2f54e934ca33783d4395d42bc07612e2bd4b8e0e178639f7a288280a280f35b6040516357bae84f60e01b8152600490fd5b60405163517907dd60e01b8152600490fd5b604051632589d98f60e11b8152600490fd5b50346102af5760403660031901126102af57610d72600435611fe9612650565b908084528360205261200160016040862001546127c8565b6127e9565b50346102af5760203660031901126102af57600160406020926004358152808452200154604051908152f35b50346102af5760203660031901126102af57604090600435815260116020522060405161205e816128f3565b815481526001820154602082015260028201546001600160a01b0316604082015260038201546060820152600482015460808201908152600583015460a0830152600683015460c0830152600783015460e083015260088301549092600a916120ce9060ff166101008501612b1d565b600981015461012084015201546101408201525115610f1a5760209051604051908152f35b50346102af5760203660031901126102af576060610140604051612116816128f3565b83815283602082015283604082015283838201528360808201528360a08201528360c08201528260e0820152836101008201528361012082015201526004358152601060205260408120906121ed600a60405193612173856128f3565b805485526001810154602086015260028101546001600160a01b031660408601526003810154606086015260048101546080860152600581015460a0860152600681015460c08601526121c860078201613452565b60e08601526008810154610100860152611c0a60ff60098301541661012087016129f7565b6101408301526040519160208352805160208401526020810151604084015260018060a01b03604082015116606084015260608101516080840152608081015160a084015260a081015160c084015260c081015160e084015260e081015190612265610160928361010087015261018086019061267c565b926101008201516101208601526101208201519060068210156122a5575091610140859492610df69482870152015190601f19858403019085015261267c565b634e487b7160e01b81526021600452602490fd5b50346102af5760803660031901126102af576004356024358015158082036124c35760443560048110156108f9577f7e14bc60ff89d7bdae4837b4985d133b6d0c1fdacc16ef67351e15e0c4362ba680865260209086825260408720338852825260ff6040882054161561162c57508486526010815260408620805415611fb75760405190612347826128d8565b6123518483612b1d565b8282019160643583526040810192868452888a526014855260408a20915160048110156124af5793600961240394600285604099956123b48f9d9a7fc9b4cca687d759b5f41ab2ae2f9cc9b0b09ff8783b9706cd93d3c31491e6f7079d99612b29565b51600182015501925115159260ff199360ff8583541691161790558a5f1461243c578181016002848254161790555b019081541689600182178355612430575b505084519384528301906126ba565ba260ff600e54169081612428575b5061241a575080f35b61242390612b91565b505080f35b90505f612411565b60021790555f806123f4565b8181016004848254161790558c84600a8301916124598354612a03565b90601f821161248f575b50507f437265646974206173736573736d656e74206661696c65640000000000000030909155506123e3565b6124a7928185601f935220910160051c810190612a3b565b845f8f612463565b634e487b7160e01b8b52602160045260248bfd5b8380fd5b50346102af57602080600319360112611ccf576001600160a01b036124ea61263a565b1682526013815260408220916040518092808554928381520194835280832092905b82821061252f57610df68561252381890382612974565b60405191829182612600565b83548652948501946001938401939091019061250c565b50346102af57602080600319360112611ccf5760043582526012815260408220916040518092808554928381520194835280832092905b82821061259457610df68561252381890382612974565b83548652948501946001938401939091019061257d565b905034611ccf576020366003190112611ccf5760043563ffffffff60e01b811680910361155d5760209250637965db0b60e01b81149081156125ef575b5015158152f35b6301ffc9a760e01b1490505f6125e8565b602090816040818301928281528551809452019301915f5b828110612626575050505090565b835185529381019392810192600101612618565b600435906001600160a01b03821682036107ab57565b602435906001600160a01b03821682036107ab57565b604435906001600160a01b03821682036107ab57565b91908251928382525f5b8481106126a6575050825f602080949584010152601f8019910116010190565b602081830181015184830182015201612686565b9060048210156126c75752565b634e487b7160e01b5f52602160045260245ffd5b9060a06003198301126107ab57600435916024359160443591606435916084356001600160401b03928382116107ab57806023830112156107ab5781600401359384116107ab57602484830101116107ab576024019190565b335f9081527fad3228b676f7d3cd4284a5443f17f1962b36e491b30a40b2405849e597ba5fb5602052604081205460ff161561162c5750565b335f9081527ff7c9542c591017a21c74b6f3fab6263c7952fc0aaf9db4c22a2a04ddc7f8674f60205260409020547f65d7a28e3265b37a6474929f336521b332c1681b933f6cb9f3376673440d862a9060ff161561162c5750565b805f525f60205260405f20335f5260205260ff60405f2054161561162c5750565b905f9180835282602052604083209160018060a01b03169182845260205260ff604084205416155f1461286057808352826020526040832082845260205260408320600160ff198254161790557f2f8788117e7eff1d82e926ec794901d17c78024a50270940304540a733656f0d339380a4600190565b505090565b905f9180835282602052604083209160018060a01b03169182845260205260ff6040842054165f146128605780835282602052604083208284526020526040832060ff1981541690557ff6391f5c32d9c69d2a47ea670b442974b53935d1edc7fd64eb21e047a839171b339380a4600190565b606081019081106001600160401b038211176108e557604052565b61016081019081106001600160401b038211176108e557604052565b6001600160401b0381116108e557604052565b61010081019081106001600160401b038211176108e557604052565b60a081019081106001600160401b038211176108e557604052565b604081019081106001600160401b038211176108e557604052565b90601f801991011681019081106001600160401b038211176108e557604052565b908160209103126107ab575180151581036107ab5790565b919082039182116129ba57565b634e487b7160e01b5f52601160045260245ffd5b5f1981146129ba5760010190565b6001600160401b0381116108e557601f01601f191660200190565b60068210156126c75752565b90600182811c92168015612a31575b6020831014612a1d57565b634e487b7160e01b5f52602260045260245ffd5b91607f1691612a12565b818110612a46575050565b5f8155600101612a3b565b9190601f8111612a6057505050565b612a8a925f5260205f20906020601f840160051c83019310612a8c575b601f0160051c0190612a3b565b565b9091508190612a7d565b8054821015612aab575f5260205f2001905f90565b634e487b7160e01b5f52603260045260245ffd5b90815491680100000000000000008310156108e55782612ae7916001612a8a95018155612a96565b90919082549060031b91821b915f19901b1916179055565b60ff60025416612b0b57565b60405163d93c066560e01b8152600490fd5b60048210156126c75752565b9060048110156126c75760ff80198354169116179055565b600260015414612b52576002600155565b604051633ee5aeb560e01b8152600490fd5b818102929181159184041417156129ba57565b9060038210156126c75752565b919082018092116129ba57565b5f9080825260106020526040822091825415611fb75760ff60098401541660068110156132a4576002036132925781815260146020526040812060ff600260405192612bdc846128d8565b612be98382541685612b1d565b60018101546020850152015416158015604083015261329257600484015493612710612c2b81612c1d602086015189612b64565b0480608052600d5490612b64565b0490612c39826080516129ad565b8351600481101561327e57612c4d9061369f565b60075460405163d4d4f4ab60e01b81526001600160a01b039091169190612c776004820183612b77565b602081602481865afa90811561327357889161323d575b506080511161322b5760a4612cc2918860209460058801546040519d8e9687956374c3dd1160e01b87526004870190612b77565b6080516024860152836044860152606485015260848401525af19687156131845785976131f7575b506002546002830160e05260018060a01b03600284015416600384015460a05260048401546005850154906006860154926040518060c05263011a270b60e41b9052600460c051015260a051602460c0510152604460c0510152606460c0510152608460c051015260c060a48151015285809160078501928354612d6d81612a03565b908160c460c05101526001811690815f146131d3575060011461318f575b5060c0516020945092908390039183919060081c6001600160a01b03165af196871561318457859761314e575b60085460048401546005850154916001600160a01b0316803b1561314a579060a48b8a8094604051968795869463058977eb60e21b865260048601528960248601526044850152608051606485015260848401525af1801561313f5761312c575b5060e05154612e539083906001600160a01b03167f00000000000000000000000000000000000000000000000000000000000000006132b8565b600360ff1960098501541617600984015560018060a01b0360e05154166003840154600485015460208801519188519360048510156124af5791612ed793918d96959360405197612ea3896128f3565b88528d602089015260408801526060870152608086015260805160a086015260c08501528660e08501526101008401612b1d565b610120820152426101408201528786526011602052604086209080518255602081015160018301556002820160018060a01b036040830151166001600160601b0360a01b825416179055606081015160038301556080810151600483015560a0810151600583015560c0810151600683015560e081015160078301556101008101516004811015613118576101408392612f7a600a936008612fb3989701612b29565b61012081015160098501550151910155612f956016546129ce565b601655612fa86004840154601754612b84565b601755601854612b84565b601855612fc16019546129ce565b601955612fd46004820154601a54612b84565b601a5560035460018201546004909201546001600160a01b0390911691823b15611ca2579060648692836040519586948593633a88b7a360e11b855260048501526024840152600160448401525af1801561097857908491613104575b505060207f414d7d8eae12f648156e75499fc0a5a10aa84f2745c6f791b0453cb17f1e17fa9160018060a01b0360e05154168552601382526130768760408720612abf565b604051908152a1519060048210156122a557507f85152b81739f3a755b47ae2ce45a49fa752686982746293e78d68ca2ae8c8975604084926130c3825191608051835260208301906126ba565ba360018060a01b0360e0515416817f7e786c17cf2af4563da003063347d36dfacb540f4f6a45548e3f9a04e476920b60206040516080518152a39060805190565b61310d9061290f565b61155d57825f613031565b634e487b7160e01b88526021600452602488fd5b6131389096919661290f565b945f612e19565b6040513d89823e3d90fd5b8880fd5b965060203d60201161317d575b6131678160c051612974565b602060c051809281010312611ca2575196612db8565b503d61315b565b6040513d87823e3d90fd5b9383525060208220909282915b8183106131b65750509160e460209360c05101015f612d8b565b805460c051840160e401528993506020929092019160010161319c565b90506020955060e4925060ff19168260c0510152151560051b60c05101015f612d8b565b9096506020813d602011613223575b8161321360209383612974565b810103126108f95751955f612cea565b3d9150613206565b60405163bb55fd2760e01b8152600490fd5b90506020813d60201161326b575b8161325860209383612974565b8101031261326757515f612c8e565b8780fd5b3d915061324b565b6040513d8a823e3d90fd5b634e487b7160e01b86526021600452602486fd5b60405163638268d360e01b8152600490fd5b634e487b7160e01b82526021600452602482fd5b60405163a9059cbb60e01b60208201526001600160a01b03909216602483015260448083019390935291815260808101916001600160401b038311828410176108e557612a8a926040525b5f8061334b9260018060a01b03169360208151910182865af13d15613394573d9061332d826129dc565b9161333b6040519384612974565b82523d5f602084013e5b8361339c565b8051908115159182613379575b50506133615750565b60249060405190635274afe760e01b82526004820152fd5b61338c9250602080918301019101612995565b155f80613358565b606090613345565b906133c357508051156133b157805190602001fd5b604051630a12f52160e11b8152600490fd5b815115806133f6575b6133d4575090565b604051639996b31560e01b81526001600160a01b039091166004820152602490fd5b50803b156133cc565b6040516323b872dd60e01b60208201526001600160a01b039283166024820152929091166044830152606480830193909352918152612a8a916134418261293e565b613303565b80156129ba575f190190565b9060405191825f82549261346584612a03565b9081845260019485811690815f146134ce575060011461348e575b5050612a8a92500383612974565b909391505f52602090815f20935f915b8183106134b6575050612a8a93508201015f80613480565b8554888401850152948501948794509183019161349e565b915050612a8a94506020925060ff191682840152151560051b8201015f80613480565b919060018060a01b039081600354169360409485519384916337b6d96b60e01b835283600484015282602460209788935afa80156136955785925f91613678575b501561364457600554169160248751809481936329f8f90760e01b835260048301525afa90811561363a575f9161361d575b50156135f45760095481106135ce57600a541061359f5767456c696769626c6560c01b600193519161359583612959565b6008835282015290565b73416d6f756e742061626f7665206d6178696d756d60601b5f9351916135c483612959565b6014835282015290565b5073416d6f756e742062656c6f77206d696e696d756d60601b5f9351916135c483612959565b506c12d650881b9bdd081d985b1a59609a1b5f93519161361383612959565b600d835282015290565b6136349150833d8511610971576109638183612974565b5f613564565b85513d5f823e3d90fd5b5050505074109d5cda5b995cdcc81b9bdd081d995c9a599a5959605a1b5f93519161366e83612959565b6015835282015290565b61368f9150833d8511610971576109638183612974565b5f613532565b87513d5f823e3d90fd5b60048110156126c75780156136fc57600181146136f6576002146136f15760405162461bcd60e51b815260206004820152600c60248201526b24b73b30b634b2103a34b2b960a11b6044820152606490fd5b600290565b50600190565b505f90565b6001600160a01b03165f908152601360205260408120909190825b8154808210156137b95783906137328385612a96565b929054600393841b1c1461375057505061374b906129ce565b61371c565b92935093905f1992838101908111611e9c5790612ae76137736137809387612a96565b905490881b1c9186612a96565b82549081156137a557508101926137978484612a96565b81939154921b1b1916905555565b634e487b7160e01b81526031600452602490fd5b505050505056fef611fec7babefd259c57ea5b6006acff8140ab17bb816c65ba0aa7e36c09caa8a2646970667358221220c2be756bcb9b97bb2d4669f4d0e0aee35c08758cee7f10207804deb7d946540d64736f6c634300081400332f8788117e7eff1d82e926ec794901d17c78024a50270940304540a733656f0d","linkReferences":{}},"methodIdentifiers":{"DEFAULT_ADMIN_ROLE()":"a217fddf","DEFAULT_HANDLER_ROLE()":"99b9c85b","FUNDER_ROLE()":"34aedecd","ORACLE_CALLBACK_ROLE()":"e86b9c8e","PAUSER_ROLE()":"e63ab1e9","autoFundEnabled()":"a632140c","businessRegistry()":"3dfc32f6","buyerRegistry()":"6fb4f627","calculateAdvanceOffer(bytes32,uint256,uint256)":"34c74b4d","calculateSettlementAmount(uint256)":"0f9d6706","cancelRequest(uint256)":"3015394c","closeInvoice(uint256)":"aa638c78","creditOracle()":"e36922a5","emergencyWithdraw(address,uint256,address)":"551512de","factorInvoice(bytes32,uint256,uint256,bytes32,string)":"5498a99c","fundInvoice(uint256)":"64d5fa47","getActiveInvoices(address)":"0524857b","getFactoringRequest(uint256)":"0db1682e","getFactoringResult(uint256)":"70f8b7d3","getMaxInvoiceAmount()":"c0dd335c","getMinInvoiceAmount()":"e63f015b","getProtocolStats()":"771aceef","getRequestsByBusiness(uint256)":"02da0d69","getRoleAdmin(bytes32)":"248a9ca3","getSupportedPaymentTerms()":"9f136ff0","grantRole(bytes32,address)":"2f2ff15d","handleDefault(uint256)":"4af37b23","hasRole(bytes32,address)":"91d14854","invoiceToken()":"464b5391","isEligibleForFactoring(uint256,bytes32,uint256)":"b0fc27f5","kybRegistry()":"a24b742a","liquidityPool()":"665a11ca","maxInvoiceAmount()":"82cfd5a4","maxPaymentTermDays()":"916dea1b","minInvoiceAmount()":"d334bae9","minPaymentTermDays()":"fffdc4ea","onAssessmentComplete(uint256,bool,uint8,uint256)":"08ff3697","pause()":"8456cb59","paused()":"5c975abb","processPaymentFromBuyer(uint256)":"682ed819","protocolFeeBps()":"35659fb8","recordBuyerPayment(uint256,uint256)":"6439de0b","renounceRole(bytes32,address)":"36568abe","revokeRole(bytes32,address)":"d547741f","setAutoFundEnabled(bool)":"5754f8d3","setContractAddresses(address,address,address,address,address,address,address)":"d72be09d","setMaxInvoiceAmount(uint256)":"33fbf73d","setMaxPaymentTermDays(uint256)":"d7f1c906","setMinInvoiceAmount(uint256)":"3747f3e6","setMinPaymentTermDays(uint256)":"c3085b84","setProtocolFee(uint256)":"787dce3d","settleEarly(uint256)":"530fce64","stablecoin()":"e9cbd822","submitInvoice(bytes32,uint256,uint256,bytes32,string)":"de83f3b7","supportsInterface(bytes4)":"01ffc9a7","unpause()":"3f4ba83a","yieldDistributor()":"a38c2c3d"},"id":46}