{"abi":[{"type":"constructor","inputs":[],"stateMutability":"nonpayable"},{"type":"function","name":"BASIS_POINTS","inputs":[],"outputs":[{"name":"","type":"uint256","internalType":"uint256"}],"stateMutability":"view"},{"type":"function","name":"CREDIT_UPDATER_ROLE","inputs":[],"outputs":[{"name":"","type":"bytes32","internalType":"bytes32"}],"stateMutability":"view"},{"type":"function","name":"DEFAULTS_BLACKLIST_THRESHOLD","inputs":[],"outputs":[{"name":"","type":"uint256","internalType":"uint256"}],"stateMutability":"view"},{"type":"function","name":"DEFAULTS_HIGH_RISK_THRESHOLD","inputs":[],"outputs":[{"name":"","type":"uint256","internalType":"uint256"}],"stateMutability":"view"},{"type":"function","name":"DEFAULT_ADMIN_ROLE","inputs":[],"outputs":[{"name":"","type":"bytes32","internalType":"bytes32"}],"stateMutability":"view"},{"type":"function","name":"DEFAULT_CREDIT_LIMIT","inputs":[],"outputs":[{"name":"","type":"uint256","internalType":"uint256"}],"stateMutability":"view"},{"type":"function","name":"DEFAULT_CREDIT_SCORE","inputs":[],"outputs":[{"name":"","type":"uint256","internalType":"uint256"}],"stateMutability":"view"},{"type":"function","name":"LATE_RATE_HIGH_RISK_THRESHOLD","inputs":[],"outputs":[{"name":"","type":"uint256","internalType":"uint256"}],"stateMutability":"view"},{"type":"function","name":"LATE_RATE_WATCH_THRESHOLD","inputs":[],"outputs":[{"name":"","type":"uint256","internalType":"uint256"}],"stateMutability":"view"},{"type":"function","name":"REGISTRAR_ROLE","inputs":[],"outputs":[{"name":"","type":"bytes32","internalType":"bytes32"}],"stateMutability":"view"},{"type":"function","name":"STATS_UPDATER_ROLE","inputs":[],"outputs":[{"name":"","type":"bytes32","internalType":"bytes32"}],"stateMutability":"view"},{"type":"function","name":"STATUS_MANAGER_ROLE","inputs":[],"outputs":[{"name":"","type":"bytes32","internalType":"bytes32"}],"stateMutability":"view"},{"type":"function","name":"blacklistBuyer","inputs":[{"name":"buyerHash","type":"bytes32","internalType":"bytes32"},{"name":"reason","type":"string","internalType":"string"}],"outputs":[],"stateMutability":"nonpayable"},{"type":"function","name":"buyerExists","inputs":[{"name":"buyerHash","type":"bytes32","internalType":"bytes32"}],"outputs":[{"name":"","type":"bool","internalType":"bool"}],"stateMutability":"view"},{"type":"function","name":"defaultCreditLimit","inputs":[],"outputs":[{"name":"","type":"uint256","internalType":"uint256"}],"stateMutability":"view"},{"type":"function","name":"defaultsBlacklistThreshold","inputs":[],"outputs":[{"name":"","type":"uint256","internalType":"uint256"}],"stateMutability":"view"},{"type":"function","name":"defaultsHighRiskThreshold","inputs":[],"outputs":[{"name":"","type":"uint256","internalType":"uint256"}],"stateMutability":"view"},{"type":"function","name":"getAvailableCredit","inputs":[{"name":"buyerHash","type":"bytes32","internalType":"bytes32"}],"outputs":[{"name":"","type":"uint256","internalType":"uint256"}],"stateMutability":"view"},{"type":"function","name":"getBuyer","inputs":[{"name":"buyerHash","type":"bytes32","internalType":"bytes32"}],"outputs":[{"name":"","type":"tuple","internalType":"struct BuyerRegistry.Buyer","components":[{"name":"buyerHash","type":"bytes32","internalType":"bytes32"},{"name":"creditScore","type":"uint256","internalType":"uint256"},{"name":"creditLimit","type":"uint256","internalType":"uint256"},{"name":"currentExposure","type":"uint256","internalType":"uint256"},{"name":"stats","type":"tuple","internalType":"struct BuyerRegistry.BuyerStats","components":[{"name":"totalInvoicesReceived","type":"uint256","internalType":"uint256"},{"name":"totalValueOwed","type":"uint256","internalType":"uint256"},{"name":"totalValuePaid","type":"uint256","internalType":"uint256"},{"name":"onTimePayments","type":"uint256","internalType":"uint256"},{"name":"latePayments","type":"uint256","internalType":"uint256"},{"name":"defaults","type":"uint256","internalType":"uint256"},{"name":"averageDaysToPayment","type":"uint256","internalType":"uint256"},{"name":"averageDaysLate","type":"uint256","internalType":"uint256"}]},{"name":"status","type":"uint8","internalType":"enum BuyerRegistry.BuyerStatus"},{"name":"firstSeenAt","type":"uint256","internalType":"uint256"},{"name":"lastActivityAt","type":"uint256","internalType":"uint256"},{"name":"lastAssessmentAt","type":"uint256","internalType":"uint256"}]}],"stateMutability":"view"},{"type":"function","name":"getBuyerStats","inputs":[{"name":"buyerHash","type":"bytes32","internalType":"bytes32"}],"outputs":[{"name":"","type":"tuple","internalType":"struct BuyerRegistry.BuyerStats","components":[{"name":"totalInvoicesReceived","type":"uint256","internalType":"uint256"},{"name":"totalValueOwed","type":"uint256","internalType":"uint256"},{"name":"totalValuePaid","type":"uint256","internalType":"uint256"},{"name":"onTimePayments","type":"uint256","internalType":"uint256"},{"name":"latePayments","type":"uint256","internalType":"uint256"},{"name":"defaults","type":"uint256","internalType":"uint256"},{"name":"averageDaysToPayment","type":"uint256","internalType":"uint256"},{"name":"averageDaysLate","type":"uint256","internalType":"uint256"}]}],"stateMutability":"view"},{"type":"function","name":"getBuyerStatus","inputs":[{"name":"buyerHash","type":"bytes32","internalType":"bytes32"}],"outputs":[{"name":"","type":"uint8","internalType":"enum BuyerRegistry.BuyerStatus"}],"stateMutability":"view"},{"type":"function","name":"getCreditLimit","inputs":[{"name":"buyerHash","type":"bytes32","internalType":"bytes32"}],"outputs":[{"name":"","type":"uint256","internalType":"uint256"}],"stateMutability":"view"},{"type":"function","name":"getCreditScore","inputs":[{"name":"buyerHash","type":"bytes32","internalType":"bytes32"}],"outputs":[{"name":"","type":"uint256","internalType":"uint256"}],"stateMutability":"view"},{"type":"function","name":"getCurrentExposure","inputs":[{"name":"buyerHash","type":"bytes32","internalType":"bytes32"}],"outputs":[{"name":"","type":"uint256","internalType":"uint256"}],"stateMutability":"view"},{"type":"function","name":"getDefaultRate","inputs":[{"name":"buyerHash","type":"bytes32","internalType":"bytes32"}],"outputs":[{"name":"","type":"uint256","internalType":"uint256"}],"stateMutability":"view"},{"type":"function","name":"getLatePaymentRate","inputs":[{"name":"buyerHash","type":"bytes32","internalType":"bytes32"}],"outputs":[{"name":"","type":"uint256","internalType":"uint256"}],"stateMutability":"view"},{"type":"function","name":"getPaymentHistory","inputs":[{"name":"buyerHash","type":"bytes32","internalType":"bytes32"}],"outputs":[{"name":"","type":"tuple[]","internalType":"struct BuyerRegistry.PaymentEvent[]","components":[{"name":"eventId","type":"uint256","internalType":"uint256"},{"name":"buyerHash","type":"bytes32","internalType":"bytes32"},{"name":"invoiceId","type":"uint256","internalType":"uint256"},{"name":"amount","type":"uint256","internalType":"uint256"},{"name":"dueDate","type":"uint256","internalType":"uint256"},{"name":"paidAt","type":"uint256","internalType":"uint256"},{"name":"wasLate","type":"bool","internalType":"bool"},{"name":"daysLate","type":"uint256","internalType":"uint256"}]}],"stateMutability":"view"},{"type":"function","name":"getRoleAdmin","inputs":[{"name":"role","type":"bytes32","internalType":"bytes32"}],"outputs":[{"name":"","type":"bytes32","internalType":"bytes32"}],"stateMutability":"view"},{"type":"function","name":"grantRole","inputs":[{"name":"role","type":"bytes32","internalType":"bytes32"},{"name":"account","type":"address","internalType":"address"}],"outputs":[],"stateMutability":"nonpayable"},{"type":"function","name":"hasRole","inputs":[{"name":"role","type":"bytes32","internalType":"bytes32"},{"name":"account","type":"address","internalType":"address"}],"outputs":[{"name":"","type":"bool","internalType":"bool"}],"stateMutability":"view"},{"type":"function","name":"isEligibleForFunding","inputs":[{"name":"buyerHash","type":"bytes32","internalType":"bytes32"},{"name":"invoiceAmount","type":"uint256","internalType":"uint256"}],"outputs":[{"name":"eligible","type":"bool","internalType":"bool"},{"name":"reason","type":"string","internalType":"string"}],"stateMutability":"view"},{"type":"function","name":"lateRateHighRiskThreshold","inputs":[],"outputs":[{"name":"","type":"uint256","internalType":"uint256"}],"stateMutability":"view"},{"type":"function","name":"lateRateWatchThreshold","inputs":[],"outputs":[{"name":"","type":"uint256","internalType":"uint256"}],"stateMutability":"view"},{"type":"function","name":"recordDefault","inputs":[{"name":"buyerHash","type":"bytes32","internalType":"bytes32"},{"name":"invoiceId","type":"uint256","internalType":"uint256"},{"name":"amount","type":"uint256","internalType":"uint256"}],"outputs":[],"stateMutability":"nonpayable"},{"type":"function","name":"recordInvoiceAssigned","inputs":[{"name":"buyerHash","type":"bytes32","internalType":"bytes32"},{"name":"invoiceId","type":"uint256","internalType":"uint256"},{"name":"amount","type":"uint256","internalType":"uint256"}],"outputs":[],"stateMutability":"nonpayable"},{"type":"function","name":"recordPayment","inputs":[{"name":"buyerHash","type":"bytes32","internalType":"bytes32"},{"name":"invoiceId","type":"uint256","internalType":"uint256"},{"name":"amount","type":"uint256","internalType":"uint256"},{"name":"dueDate","type":"uint256","internalType":"uint256"},{"name":"paidAt","type":"uint256","internalType":"uint256"}],"outputs":[],"stateMutability":"nonpayable"},{"type":"function","name":"registerBuyer","inputs":[{"name":"buyerHash","type":"bytes32","internalType":"bytes32"}],"outputs":[{"name":"isNew","type":"bool","internalType":"bool"}],"stateMutability":"nonpayable"},{"type":"function","name":"renounceRole","inputs":[{"name":"role","type":"bytes32","internalType":"bytes32"},{"name":"callerConfirmation","type":"address","internalType":"address"}],"outputs":[],"stateMutability":"nonpayable"},{"type":"function","name":"revokeRole","inputs":[{"name":"role","type":"bytes32","internalType":"bytes32"},{"name":"account","type":"address","internalType":"address"}],"outputs":[],"stateMutability":"nonpayable"},{"type":"function","name":"setDefaultCreditLimit","inputs":[{"name":"limit","type":"uint256","internalType":"uint256"}],"outputs":[],"stateMutability":"nonpayable"},{"type":"function","name":"setStatusThresholds","inputs":[{"name":"lateRateWatch","type":"uint256","internalType":"uint256"},{"name":"lateRateHighRisk","type":"uint256","internalType":"uint256"},{"name":"defaultsHighRisk","type":"uint256","internalType":"uint256"},{"name":"defaultsBlacklist","type":"uint256","internalType":"uint256"}],"outputs":[],"stateMutability":"nonpayable"},{"type":"function","name":"supportsInterface","inputs":[{"name":"interfaceId","type":"bytes4","internalType":"bytes4"}],"outputs":[{"name":"","type":"bool","internalType":"bool"}],"stateMutability":"view"},{"type":"function","name":"unblacklistBuyer","inputs":[{"name":"buyerHash","type":"bytes32","internalType":"bytes32"}],"outputs":[],"stateMutability":"nonpayable"},{"type":"function","name":"updateBuyerStatus","inputs":[{"name":"buyerHash","type":"bytes32","internalType":"bytes32"},{"name":"newStatus","type":"uint8","internalType":"enum BuyerRegistry.BuyerStatus"}],"outputs":[],"stateMutability":"nonpayable"},{"type":"function","name":"updateCreditScore","inputs":[{"name":"buyerHash","type":"bytes32","internalType":"bytes32"},{"name":"newScore","type":"uint256","internalType":"uint256"},{"name":"newCreditLimit","type":"uint256","internalType":"uint256"}],"outputs":[],"stateMutability":"nonpayable"},{"type":"event","name":"BuyerBlacklisted","inputs":[{"name":"buyerHash","type":"bytes32","indexed":true,"internalType":"bytes32"},{"name":"reason","type":"string","indexed":false,"internalType":"string"}],"anonymous":false},{"type":"event","name":"BuyerRegistered","inputs":[{"name":"buyerHash","type":"bytes32","indexed":true,"internalType":"bytes32"},{"name":"timestamp","type":"uint256","indexed":false,"internalType":"uint256"}],"anonymous":false},{"type":"event","name":"BuyerStatusUpdated","inputs":[{"name":"buyerHash","type":"bytes32","indexed":true,"internalType":"bytes32"},{"name":"oldStatus","type":"uint8","indexed":false,"internalType":"enum BuyerRegistry.BuyerStatus"},{"name":"newStatus","type":"uint8","indexed":false,"internalType":"enum BuyerRegistry.BuyerStatus"}],"anonymous":false},{"type":"event","name":"BuyerUnblacklisted","inputs":[{"name":"buyerHash","type":"bytes32","indexed":true,"internalType":"bytes32"}],"anonymous":false},{"type":"event","name":"CreditScoreUpdated","inputs":[{"name":"buyerHash","type":"bytes32","indexed":true,"internalType":"bytes32"},{"name":"oldScore","type":"uint256","indexed":false,"internalType":"uint256"},{"name":"newScore","type":"uint256","indexed":false,"internalType":"uint256"},{"name":"creditLimit","type":"uint256","indexed":false,"internalType":"uint256"}],"anonymous":false},{"type":"event","name":"DefaultRecorded","inputs":[{"name":"buyerHash","type":"bytes32","indexed":true,"internalType":"bytes32"},{"name":"invoiceId","type":"uint256","indexed":true,"internalType":"uint256"},{"name":"amount","type":"uint256","indexed":false,"internalType":"uint256"}],"anonymous":false},{"type":"event","name":"InvoiceAssigned","inputs":[{"name":"buyerHash","type":"bytes32","indexed":true,"internalType":"bytes32"},{"name":"invoiceId","type":"uint256","indexed":true,"internalType":"uint256"},{"name":"amount","type":"uint256","indexed":false,"internalType":"uint256"}],"anonymous":false},{"type":"event","name":"PaymentRecorded","inputs":[{"name":"buyerHash","type":"bytes32","indexed":true,"internalType":"bytes32"},{"name":"invoiceId","type":"uint256","indexed":true,"internalType":"uint256"},{"name":"amount","type":"uint256","indexed":false,"internalType":"uint256"},{"name":"wasLate","type":"bool","indexed":false,"internalType":"bool"},{"name":"daysLate","type":"uint256","indexed":false,"internalType":"uint256"}],"anonymous":false},{"type":"event","name":"RoleAdminChanged","inputs":[{"name":"role","type":"bytes32","indexed":true,"internalType":"bytes32"},{"name":"previousAdminRole","type":"bytes32","indexed":true,"internalType":"bytes32"},{"name":"newAdminRole","type":"bytes32","indexed":true,"internalType":"bytes32"}],"anonymous":false},{"type":"event","name":"RoleGranted","inputs":[{"name":"role","type":"bytes32","indexed":true,"internalType":"bytes32"},{"name":"account","type":"address","indexed":true,"internalType":"address"},{"name":"sender","type":"address","indexed":true,"internalType":"address"}],"anonymous":false},{"type":"event","name":"RoleRevoked","inputs":[{"name":"role","type":"bytes32","indexed":true,"internalType":"bytes32"},{"name":"account","type":"address","indexed":true,"internalType":"address"},{"name":"sender","type":"address","indexed":true,"internalType":"address"}],"anonymous":false},{"type":"error","name":"AccessControlBadConfirmation","inputs":[]},{"type":"error","name":"AccessControlUnauthorizedAccount","inputs":[{"name":"account","type":"address","internalType":"address"},{"name":"neededRole","type":"bytes32","internalType":"bytes32"}]},{"type":"error","name":"BuyerAlreadyExists","inputs":[]},{"type":"error","name":"BuyerIsBlacklisted","inputs":[]},{"type":"error","name":"BuyerNotFound","inputs":[]},{"type":"error","name":"ExceedsCreditLimit","inputs":[]},{"type":"error","name":"InvalidAmount","inputs":[]},{"type":"error","name":"InvalidCreditScore","inputs":[]},{"type":"error","name":"ZeroBuyerHash","inputs":[]}],"bytecode":{"object":"0x608060405234610041576105dc600555610bb86006556002600755600360085564174876e80060095561003133610046565b50604051611ce790816100d78239f35b600080fd5b6001600160a01b031660008181527fad3228b676f7d3cd4284a5443f17f1962b36e491b30a40b2405849e597ba5fb5602052604081205490919060ff166100d257818052816020526040822081835260205260408220600160ff1982541617905533917f2f8788117e7eff1d82e926ec794901d17c78024a50270940304540a733656f0d8180a4600190565b509056fe608080604052600436101561001357600080fd5b60003560e01c90816301fe3775146113f85750806301ffc9a7146113a2578063022977b1146113825780630588a855146113645780630acb11e9146113485780631305279b14611095578063156c5a901461106257806316cac02a14610ed5578063248a9ca314610ea6578063259c6f8814610e585780632f2ff15d14610e275780633489ead114610e0a57806336568abe14610dd15780633d3fdb1d14610d8b57806343d3046914610d2d5780634406834a14610c6f5780634f90451914610c5157806351a33ceb14610c3457806369ae043214610b5d5780636d2b5c7914610b3f57806375204e2814610af957806378d8b30414610ad05780637a0cd97714610a1857806385b7642f1461094357806387cc5a1c146107d35780638c9b1c39146106dd57806391d148541461069d57806392bf4d331461067f5780639b88457614610613578063a217fddf146105f7578063a6e22954146105d6578063a96a8994146104f2578063b332efbc146104d6578063b612e46d14610449578063b9a31dd2146103f1578063bb31dded14610378578063d547741f14610345578063e1f1c4a714610328578063e7db1b83146102f7578063e8fbf365146102d9578063ec487ca41461029f578063f2fdfff014610281578063f672103114610265578063f68e95531461023c5763f9a1e3961461020e57600080fd5b34610237576000366003190112610237576020604051600080516020611c328339815191528152f35b600080fd5b34610237576000366003190112610237576020604051600080516020611c928339815191528152f35b3461023757600036600319011261023757602060405160038152f35b34610237576000366003190112610237576020600554604051908152f35b346102375760003660031901126102375760206040517e9817c221cc98cf8539dd285e3fc05cbf4d20927bed0807d8fc76de41d18fa48152f35b34610237576000366003190112610237576020600654604051908152f35b34610237576020366003190112610237576004356000526002602052602060ff604060002054166040519015158152f35b346102375760003660031901126102375760206040516127108152f35b346102375761037661035636611420565b90806000526000602052610371600160406000200154611540565b6115e4565b005b3461023757604036600319011261023757610397602435600435611af8565b60405191151582528160206040818301528251908160408401526000935b8285106103d8575050606092506000838284010152601f80199101168101030190f35b84810182015186860160600152938101938593506103b5565b346102375760203660031901126102375760043580600052600260205260ff60406000205416156104375760005260016020526020600160406000200154604051908152f35b6040516390bc47b560e01b8152600490fd5b34610237576020366003190112610237573360009081527f01ddc098da42acdf4176da08ec75800bc0fb2bce2be978b2037bcb0ae69665196020526040902054600080516020611c928339815191529060ff16156104b85760206104ae600435611671565b6040519015158152f35b6044906040519063e2517d3f60e01b82523360048301526024820152fd5b3461023757600036600319011261023757602060405160328152f35b346102375761050036611491565b3360009081527fb9bd04cb891bd5dffd6c5615f01237972bbe045ba7ce36be5a1e206ec31a2d0f6020526040902054600080516020611c528339815191529060ff16156104b8575082600052600260205260ff604060002054161561043757606482116105c4577fd487a36b70161dcd6d54ac407484a2bac631361f5b3d9501ecf9c8a9f9a496909160609184600052600160205260406000209160018301928184549455826002820155600f4291015560405192835260208301526040820152a2005b6040516301069b4760e21b8152600490fd5b34610237576020366003190112610237576105ef611506565b600435600955005b3461023757600036600319011261023757602060405160008152f35b346102375760203660031901126102375760043580600052600260205260ff6040600020541615610437576000526001602052604060002060036002820154910154908181116000146106745760209161066c91611732565b604051908152f35b50506020600061066c565b34610237576000366003190112610237576020600954604051908152f35b34610237576106ab36611420565b90600052600060205260406000209060018060a01b0316600052602052602060ff604060002054166040519015158152f35b34610237576040366003190112610237576004356001600160401b0360243581811161023757366023820112156102375780600401359182116102375736602483830101116102375761072e611506565b82600052600260205260ff6040600020541615610437576040602491600080516020611c128339815191529385600052600160205285600080516020611c728339815191528460ff61079f82600020600c810190815491600485198416179055600e42910155835192839116611413565b60046020820152a28083519485936020855282602086015201848401376000828201840152601f01601f19168101030190a2005b346102375760208060031936011261023757600435906107f1611792565b9160008352600082840152600060408401526000606084015261081261199e565b6080840152600060a0840152600060c0840152600060e0840152600061010080940152806000526002825260ff60406000205416156104375760005260018152604060002091610860611792565b918354835260018401549381840194855260028101549460408501958652600382015460608601908152610896600484016119d7565b6080870190815260ff600c850154169060a0880192600583101561092d576102009989976109169661090a958752600f600d8a01549960c08c019a8b5260e0600e8201549c019b8c5201549a8c019a8b526040519b518c5251908b01525160408a0152516060890152516080880190611446565b51610180860190611413565b516101a0840152516101c0830152516101e0820152f35b634e487b7160e01b600052602160045260246000fd5b34610237576040366003190112610237576004356024356005811015610237573360009081527fa0a988b6f6dee755e2a8ed132d5fb406a7fb4dc0db3757bbfa8307f1865185ed6020526040902054600080516020611c328339815191529060ff16156104b8575081600052600260205260ff6040600020541615610437576040600080516020611c7283398151915291836000526001602052610a158260002091600c8301926109f98260ff86541695611659565b600e42910155610a0b84518094611413565b6020830190611413565ba2005b3461023757602036600319011261023757600435610a34611506565b80600052600260205260ff6040600020541615610437578060005260016020526040600020600c8101805460ff8116600581101561092d5760048103610437578493600080516020611c728339815191529360409360ff19169055600e42910155610aa182518092611413565b60006020820152a27f0152dc4976dc81da628575073811e0990b8c82e297191d89fbe4a2cf438c4ae3600080a2005b34610237576000366003190112610237576020604051600080516020611c528339815191528152f35b346102375760203660031901126102375760043580600052600260205260ff60406000205416156104375760005260016020526020600260406000200154604051908152f35b3461023757602036600319011261023757602061066c600435611a2c565b3461023757610b6b36611491565b610b769291926114ab565b81600052600260205260ff6040600020541615610437578015610c225781600052600160205260406000209060038201610bb1828254611725565b9055600482019081549260018401809411610c0c577f34b928bc95a2a14817ff50639a0e372993069ca8ad81c2bd639ee2ac6a3acf1b936020935560058101610bfb838254611725565b9055600e42910155604051908152a3005b634e487b7160e01b600052601160045260246000fd5b60405163162908e360e11b8152600490fd5b34610237576000366003190112610237576020604051610bb88152f35b34610237576000366003190112610237576020600754604051908152f35b3461023757610c7d36611491565b610c889291926114ab565b81600052600260205260ff6040600020541615610437578015610c2257816000526001602052604060002090600982019081549260018401809411610c0c577fa865a282d8b644ab531303587089a3523f5e317718dcc358d632a231c1585f7b93602093556003810180548380821015600014610d2357610d0891611732565b905b55600e42910155610d1a846117d1565b604051908152a3005b5050600090610d0a565b3461023757602036600319011261023757600435610d4961199e565b5080600052600260205260ff6040600020541615610437576000526001602052610100610d7c60046040600020016119d7565b610d896040518092611446565bf35b346102375760203660031901126102375760043580600052600260205260ff60406000205416156104375760005260016020526020600360406000200154604051908152f35b3461023757610ddf36611420565b336001600160a01b03821603610df857610376916115e4565b60405163334bd91960e11b8152600490fd5b346102375760003660031901126102375760206040516105dc8152f35b3461023757610376610e3836611420565b90806000526000602052610e53600160406000200154611540565b611566565b346102375760203660031901126102375760043580600052600260205260ff6040600020541615610437576000526001602052602060ff600c6040600020015416610d896040518092611413565b346102375760203660031901126102375760043560005260006020526020600160406000200154604051908152f35b346102375760208060031936011261023757600435908160005260029182825260ff908160406000205416156104375760005260039283835260406000209384549160018060401b039081841161104c576040519460059285841b603f01601f191687019081118782101761104c5760405284865260009788528688208787019894909390895b878710610fe757604080518b81528a51818d018190528d928201908d60005b828110610f885784840385f35b855180518552808301518584015260408082015190860152606080820151908601526080808201519086015260a0808201519086015260c08082015115159086015260e090810151908501529481019461010090930192600101610f7b565b60088a600192610ff5611772565b89548152848a015483820152888a01546040820152858a0154606082015260048a01546080820152868a015460a08201528760068b015416151560c082015260078a015460e0820152815201960196019594610f5c565b634e487b7160e01b600052604160045260246000fd5b346102375760803660031901126102375761107b611506565b600435600555602435600655604435600755606435600855005b346102375760a0366003190112610237576110ae6114ab565b600435600052600260205260ff60406000205416156104375760443515610c22576004356000526001602052604060002060006064356084351160001461132f575062015180611102606435608435611732565b04906008810180549060018201808311610c0c578061113992556111348561112f600b870195865461175f565b611725565b61173f565b90555b61114f6007820154600883015490611725565b60643560843510611328576201518061116c606435608435611732565b045b600a830191825491600019820190828211610c0c5761112f611134926111939561175f565b9055600681016111a66044358254611725565b9055600381018054604435811061131f576111c49060443590611732565b905b55600e4291015560045460018101809111610c0c5780600455600435600052600360205260406000206111f7611772565b9182526004356020830152602435604083015260443560608301526064356080830181905260843560a084018190521160c083015260e08201839052805490600160401b82101561104c57600182018082558210156113095760079160e09160005260206000209060031b0192805184556020810151600185015560408101516002850155606081015160038501556080810151600485015560a081015160058501556006840160c0820151151560ff8019835416911617905501519101556112c16004356117d1565b6040519060443582526064356084351160208301526040820152602435907f0393acea03fc1d922f335f684adbfb954fd755f3281fa5d7d7360a9be3629647606060043592a3005b634e487b7160e01b600052603260045260246000fd5b506000906111c6565b600061116e565b906007810180549060018201809211610c0c575561113c565b3461023757600036600319011261023757602060405160028152f35b3461023757602036600319011261023757602061066c600435611aa5565b3461023757600036600319011261023757602060405164174876e8008152f35b346102375760203660031901126102375760043563ffffffff60e01b811680910361023757602090637965db0b60e01b81149081156113e7575b506040519015158152f35b6301ffc9a760e01b149050826113dc565b34610237576000366003190112610237576020906008548152f35b90600582101561092d5752565b604090600319011261023757600435906024356001600160a01b03811681036102375790565b60e08091805184526020810151602085015260408101516040850152606081015160608501526080810151608085015260a081015160a085015260c081015160c08501520151910152565b606090600319011261023757600435906024359060443590565b3360009081527f96fb76514e2c02587c10386f03768718ed683639a5d00da6479e668c89e9693860205260409020547e9817c221cc98cf8539dd285e3fc05cbf4d20927bed0807d8fc76de41d18fa49060ff16156104b85750565b3360009081527fad3228b676f7d3cd4284a5443f17f1962b36e491b30a40b2405849e597ba5fb5602052604081205460ff16156104b85750565b80600052600060205260406000203360005260205260ff60406000205416156104b85750565b9060009180835282602052604083209160018060a01b03169182845260205260ff604084205416156000146115df57808352826020526040832082845260205260408320600160ff198254161790557f2f8788117e7eff1d82e926ec794901d17c78024a50270940304540a733656f0d339380a4600190565b505090565b9060009180835282602052604083209160018060a01b03169182845260205260ff6040842054166000146115df5780835282602052604083208284526020526040832060ff1981541690557ff6391f5c32d9c69d2a47ea670b442974b53935d1edc7fd64eb21e047a839171b339380a4600190565b90600581101561092d5760ff80198354169116179055565b8015611713576000818152600260205260ff60408220541661170e57600160205260016040808320928484556032838501556009546002850155806003850155600c84019360ff199485815416905542600d82015542600e820155600f42910155600260205220918254161790557f9e92d9acc3da1787f0a8b916113d6c5c6f9316f3f33087775c20a1b0472f505f6020604051428152a2600190565b905090565b60405163981d30c560e01b8152600490fd5b91908201809211610c0c57565b91908203918211610c0c57565b8115611749570490565b634e487b7160e01b600052601260045260246000fd5b81810292918115918404141715610c0c57565b6040519061010082016001600160401b0381118382101761104c57604052565b6040519061012082016001600160401b0381118382101761104c57604052565b60408051919082016001600160401b0381118382101761104c57604052565b600081815260016020526040812090600c820160ff815416809360078101546117ff60088301548092611725565b91859183611960575b506009015460085481106118f957505050506004915b60058410156118e55760058310156118e5575082820361183f575b50505050565b600080516020611c72833981519152604060049461185e858895611659565b61186a82518092611413565b6118776020820186611413565ba214611886575b808080611839565b600080516020611c12833981519152608060405160208152602a60208201527f4175746f2d626c61636b6c69737465642064756520746f2064656661756c7473604082015269081d1a1c995cda1bdb1960b21b6060820152a23861187e565b634e487b7160e01b81526021600452602490fd5b60075411801590611954575b15611916575050506003915b61181e565b600554811061192a5750505060029161181e565b6103e890949294109081611948575b5015611911576001925061181e565b60059150101538611939565b50600654811015611905565b9091506127109081810291818304149015171561198a576119838360099261173f565b9190611808565b634e487b7160e01b86526011600452602486fd5b6119a6611772565b9060008083528060208401528060408401528060608401528060808401528060a08401528060c084015260e0830152565b9060076119e2611772565b928054845260018101546020850152600281015460408501526003810154606085015260048101546080850152600581015460a0850152600681015460c0850152015460e0830152565b90600091808352600260205260ff60408420541615610437578252600160205260408220611a64600860078301549201548092611725565b908115611aa15761271090818102918183041490151715611a8d57611a8a92935061173f565b90565b634e487b7160e01b84526011600452602484fd5b5050565b90600091808352600260205260ff604084205416156104375782526001602052604082206004810154908115611aa1576009015461271090818102918183041490151715611a8d57611a8a92935061173f565b9190916000928184526020916002835260ff60408620541615611be957845260018252604084209060ff600c830154166005811015611bd557600414611bb357611b486002916003840154611725565b91015410611b8857604051600193909182016001600160401b03811183821017611b7457604052815290565b634e487b7160e01b82526041600452602482fd5b73115e18d959591cc818dc99591a5d081b1a5b5a5d60621b611ba86117b2565b916014835282015290565b505073109d5e595c881a5cc8189b1858dadb1a5cdd195960621b611ba86117b2565b634e487b7160e01b86526021600452602486fd5b50506e109d5e595c881b9bdd08199bdd5b99608a1b611c066117b2565b91600f83528201529056fe85f9e604c17f66987a5237304e5b3e56ff4dda3a53f26c023ee680505e0dea5baecd6124097a9eb0b4f41f484962446a098f1e215d44c9b40ad6eec824056713a7e1a9382f0c489455b927ee2f44428a4acc29f26b04cef9a1ec3bc50444de07c5684bc4c96dfa5f6d711e081bbedf26bef27c772aa2b14141ffc2c23aa853d3edcc084d3dcd65a1f7f23c65c46722faca6953d28e43150a467cf43e5c309238a2646970667358221220c8456340d5cb0ab8dda57b608975e2d97d984f591af18872de0bcbb0a90f308564736f6c63430008140033","linkReferences":{}},"methodIdentifiers":{"BASIS_POINTS()":"e1f1c4a7","CREDIT_UPDATER_ROLE()":"78d8b304","DEFAULTS_BLACKLIST_THRESHOLD()":"f6721031","DEFAULTS_HIGH_RISK_THRESHOLD()":"0acb11e9","DEFAULT_ADMIN_ROLE()":"a217fddf","DEFAULT_CREDIT_LIMIT()":"022977b1","DEFAULT_CREDIT_SCORE()":"b332efbc","LATE_RATE_HIGH_RISK_THRESHOLD()":"51a33ceb","LATE_RATE_WATCH_THRESHOLD()":"3489ead1","REGISTRAR_ROLE()":"f68e9553","STATS_UPDATER_ROLE()":"ec487ca4","STATUS_MANAGER_ROLE()":"f9a1e396","blacklistBuyer(bytes32,string)":"8c9b1c39","buyerExists(bytes32)":"e7db1b83","defaultCreditLimit()":"92bf4d33","defaultsBlacklistThreshold()":"01fe3775","defaultsHighRiskThreshold()":"4f904519","getAvailableCredit(bytes32)":"9b884576","getBuyer(bytes32)":"87cc5a1c","getBuyerStats(bytes32)":"43d30469","getBuyerStatus(bytes32)":"259c6f88","getCreditLimit(bytes32)":"75204e28","getCreditScore(bytes32)":"b9a31dd2","getCurrentExposure(bytes32)":"3d3fdb1d","getDefaultRate(bytes32)":"0588a855","getLatePaymentRate(bytes32)":"6d2b5c79","getPaymentHistory(bytes32)":"16cac02a","getRoleAdmin(bytes32)":"248a9ca3","grantRole(bytes32,address)":"2f2ff15d","hasRole(bytes32,address)":"91d14854","isEligibleForFunding(bytes32,uint256)":"bb31dded","lateRateHighRiskThreshold()":"e8fbf365","lateRateWatchThreshold()":"f2fdfff0","recordDefault(bytes32,uint256,uint256)":"4406834a","recordInvoiceAssigned(bytes32,uint256,uint256)":"69ae0432","recordPayment(bytes32,uint256,uint256,uint256,uint256)":"1305279b","registerBuyer(bytes32)":"b612e46d","renounceRole(bytes32,address)":"36568abe","revokeRole(bytes32,address)":"d547741f","setDefaultCreditLimit(uint256)":"a6e22954","setStatusThresholds(uint256,uint256,uint256,uint256)":"156c5a90","supportsInterface(bytes4)":"01ffc9a7","unblacklistBuyer(bytes32)":"7a0cd977","updateBuyerStatus(bytes32,uint8)":"85b7642f","updateCreditScore(bytes32,uint256,uint256)":"a96a8994"},"id":41}