{"abi":[{"type":"constructor","inputs":[],"stateMutability":"nonpayable"},{"type":"function","name":"BASIS_POINTS","inputs":[],"outputs":[{"name":"","type":"uint256","internalType":"uint256"}],"stateMutability":"view"},{"type":"function","name":"CREDIT_UPDATER_ROLE","inputs":[],"outputs":[{"name":"","type":"bytes32","internalType":"bytes32"}],"stateMutability":"view"},{"type":"function","name":"DEFAULTS_BLACKLIST_THRESHOLD","inputs":[],"outputs":[{"name":"","type":"uint256","internalType":"uint256"}],"stateMutability":"view"},{"type":"function","name":"DEFAULTS_HIGH_RISK_THRESHOLD","inputs":[],"outputs":[{"name":"","type":"uint256","internalType":"uint256"}],"stateMutability":"view"},{"type":"function","name":"DEFAULT_ADMIN_ROLE","inputs":[],"outputs":[{"name":"","type":"bytes32","internalType":"bytes32"}],"stateMutability":"view"},{"type":"function","name":"DEFAULT_CREDIT_LIMIT","inputs":[],"outputs":[{"name":"","type":"uint256","internalType":"uint256"}],"stateMutability":"view"},{"type":"function","name":"DEFAULT_CREDIT_SCORE","inputs":[],"outputs":[{"name":"","type":"uint256","internalType":"uint256"}],"stateMutability":"view"},{"type":"function","name":"LATE_RATE_HIGH_RISK_THRESHOLD","inputs":[],"outputs":[{"name":"","type":"uint256","internalType":"uint256"}],"stateMutability":"view"},{"type":"function","name":"LATE_RATE_WATCH_THRESHOLD","inputs":[],"outputs":[{"name":"","type":"uint256","internalType":"uint256"}],"stateMutability":"view"},{"type":"function","name":"REGISTRAR_ROLE","inputs":[],"outputs":[{"name":"","type":"bytes32","internalType":"bytes32"}],"stateMutability":"view"},{"type":"function","name":"STATS_UPDATER_ROLE","inputs":[],"outputs":[{"name":"","type":"bytes32","internalType":"bytes32"}],"stateMutability":"view"},{"type":"function","name":"STATUS_MANAGER_ROLE","inputs":[],"outputs":[{"name":"","type":"bytes32","internalType":"bytes32"}],"stateMutability":"view"},{"type":"function","name":"blacklistBuyer","inputs":[{"name":"buyerHash","type":"bytes32","internalType":"bytes32"},{"name":"reason","type":"string","internalType":"string"}],"outputs":[],"stateMutability":"nonpayable"},{"type":"function","name":"buyerExists","inputs":[{"name":"buyerHash","type":"bytes32","internalType":"bytes32"}],"outputs":[{"name":"","type":"bool","internalType":"bool"}],"stateMutability":"view"},{"type":"function","name":"defaultCreditLimit","inputs":[],"outputs":[{"name":"","type":"uint256","internalType":"uint256"}],"stateMutability":"view"},{"type":"function","name":"defaultsBlacklistThreshold","inputs":[],"outputs":[{"name":"","type":"uint256","internalType":"uint256"}],"stateMutability":"view"},{"type":"function","name":"defaultsHighRiskThreshold","inputs":[],"outputs":[{"name":"","type":"uint256","internalType":"uint256"}],"stateMutability":"view"},{"type":"function","name":"getAvailableCredit","inputs":[{"name":"buyerHash","type":"bytes32","internalType":"bytes32"}],"outputs":[{"name":"","type":"uint256","internalType":"uint256"}],"stateMutability":"view"},{"type":"function","name":"getBuyer","inputs":[{"name":"buyerHash","type":"bytes32","internalType":"bytes32"}],"outputs":[{"name":"","type":"tuple","internalType":"struct BuyerRegistry.Buyer","components":[{"name":"buyerHash","type":"bytes32","internalType":"bytes32"},{"name":"creditScore","type":"uint256","internalType":"uint256"},{"name":"creditLimit","type":"uint256","internalType":"uint256"},{"name":"currentExposure","type":"uint256","internalType":"uint256"},{"name":"stats","type":"tuple","internalType":"struct BuyerRegistry.BuyerStats","components":[{"name":"totalInvoicesReceived","type":"uint256","internalType":"uint256"},{"name":"totalValueOwed","type":"uint256","internalType":"uint256"},{"name":"totalValuePaid","type":"uint256","internalType":"uint256"},{"name":"onTimePayments","type":"uint256","internalType":"uint256"},{"name":"latePayments","type":"uint256","internalType":"uint256"},{"name":"defaults","type":"uint256","internalType":"uint256"},{"name":"averageDaysToPayment","type":"uint256","internalType":"uint256"},{"name":"averageDaysLate","type":"uint256","internalType":"uint256"}]},{"name":"status","type":"uint8","internalType":"enum BuyerRegistry.BuyerStatus"},{"name":"firstSeenAt","type":"uint256","internalType":"uint256"},{"name":"lastActivityAt","type":"uint256","internalType":"uint256"},{"name":"lastAssessmentAt","type":"uint256","internalType":"uint256"}]}],"stateMutability":"view"},{"type":"function","name":"getBuyerStats","inputs":[{"name":"buyerHash","type":"bytes32","internalType":"bytes32"}],"outputs":[{"name":"","type":"tuple","internalType":"struct BuyerRegistry.BuyerStats","components":[{"name":"totalInvoicesReceived","type":"uint256","internalType":"uint256"},{"name":"totalValueOwed","type":"uint256","internalType":"uint256"},{"name":"totalValuePaid","type":"uint256","internalType":"uint256"},{"name":"onTimePayments","type":"uint256","internalType":"uint256"},{"name":"latePayments","type":"uint256","internalType":"uint256"},{"name":"defaults","type":"uint256","internalType":"uint256"},{"name":"averageDaysToPayment","type":"uint256","internalType":"uint256"},{"name":"averageDaysLate","type":"uint256","internalType":"uint256"}]}],"stateMutability":"view"},{"type":"function","name":"getBuyerStatus","inputs":[{"name":"buyerHash","type":"bytes32","internalType":"bytes32"}],"outputs":[{"name":"","type":"uint8","internalType":"enum BuyerRegistry.BuyerStatus"}],"stateMutability":"view"},{"type":"function","name":"getCreditLimit","inputs":[{"name":"buyerHash","type":"bytes32","internalType":"bytes32"}],"outputs":[{"name":"","type":"uint256","internalType":"uint256"}],"stateMutability":"view"},{"type":"function","name":"getCreditScore","inputs":[{"name":"buyerHash","type":"bytes32","internalType":"bytes32"}],"outputs":[{"name":"","type":"uint256","internalType":"uint256"}],"stateMutability":"view"},{"type":"function","name":"getCurrentExposure","inputs":[{"name":"buyerHash","type":"bytes32","internalType":"bytes32"}],"outputs":[{"name":"","type":"uint256","internalType":"uint256"}],"stateMutability":"view"},{"type":"function","name":"getDefaultRate","inputs":[{"name":"buyerHash","type":"bytes32","internalType":"bytes32"}],"outputs":[{"name":"","type":"uint256","internalType":"uint256"}],"stateMutability":"view"},{"type":"function","name":"getLatePaymentRate","inputs":[{"name":"buyerHash","type":"bytes32","internalType":"bytes32"}],"outputs":[{"name":"","type":"uint256","internalType":"uint256"}],"stateMutability":"view"},{"type":"function","name":"getPaymentHistory","inputs":[{"name":"buyerHash","type":"bytes32","internalType":"bytes32"}],"outputs":[{"name":"","type":"tuple[]","internalType":"struct BuyerRegistry.PaymentEvent[]","components":[{"name":"eventId","type":"uint256","internalType":"uint256"},{"name":"buyerHash","type":"bytes32","internalType":"bytes32"},{"name":"invoiceId","type":"uint256","internalType":"uint256"},{"name":"amount","type":"uint256","internalType":"uint256"},{"name":"dueDate","type":"uint256","internalType":"uint256"},{"name":"paidAt","type":"uint256","internalType":"uint256"},{"name":"wasLate","type":"bool","internalType":"bool"},{"name":"daysLate","type":"uint256","internalType":"uint256"}]}],"stateMutability":"view"},{"type":"function","name":"getRoleAdmin","inputs":[{"name":"role","type":"bytes32","internalType":"bytes32"}],"outputs":[{"name":"","type":"bytes32","internalType":"bytes32"}],"stateMutability":"view"},{"type":"function","name":"grantRole","inputs":[{"name":"role","type":"bytes32","internalType":"bytes32"},{"name":"account","type":"address","internalType":"address"}],"outputs":[],"stateMutability":"nonpayable"},{"type":"function","name":"hasRole","inputs":[{"name":"role","type":"bytes32","internalType":"bytes32"},{"name":"account","type":"address","internalType":"address"}],"outputs":[{"name":"","type":"bool","internalType":"bool"}],"stateMutability":"view"},{"type":"function","name":"isEligibleForFunding","inputs":[{"name":"buyerHash","type":"bytes32","internalType":"bytes32"},{"name":"invoiceAmount","type":"uint256","internalType":"uint256"}],"outputs":[{"name":"eligible","type":"bool","internalType":"bool"},{"name":"reason","type":"string","internalType":"string"}],"stateMutability":"view"},{"type":"function","name":"lateRateHighRiskThreshold","inputs":[],"outputs":[{"name":"","type":"uint256","internalType":"uint256"}],"stateMutability":"view"},{"type":"function","name":"lateRateWatchThreshold","inputs":[],"outputs":[{"name":"","type":"uint256","internalType":"uint256"}],"stateMutability":"view"},{"type":"function","name":"recordDefault","inputs":[{"name":"buyerHash","type":"bytes32","internalType":"bytes32"},{"name":"invoiceId","type":"uint256","internalType":"uint256"},{"name":"amount","type":"uint256","internalType":"uint256"}],"outputs":[],"stateMutability":"nonpayable"},{"type":"function","name":"recordInvoiceAssigned","inputs":[{"name":"buyerHash","type":"bytes32","internalType":"bytes32"},{"name":"invoiceId","type":"uint256","internalType":"uint256"},{"name":"amount","type":"uint256","internalType":"uint256"}],"outputs":[],"stateMutability":"nonpayable"},{"type":"function","name":"recordPayment","inputs":[{"name":"buyerHash","type":"bytes32","internalType":"bytes32"},{"name":"invoiceId","type":"uint256","internalType":"uint256"},{"name":"amount","type":"uint256","internalType":"uint256"},{"name":"dueDate","type":"uint256","internalType":"uint256"},{"name":"paidAt","type":"uint256","internalType":"uint256"}],"outputs":[],"stateMutability":"nonpayable"},{"type":"function","name":"registerBuyer","inputs":[{"name":"buyerHash","type":"bytes32","internalType":"bytes32"}],"outputs":[{"name":"isNew","type":"bool","internalType":"bool"}],"stateMutability":"nonpayable"},{"type":"function","name":"renounceRole","inputs":[{"name":"role","type":"bytes32","internalType":"bytes32"},{"name":"callerConfirmation","type":"address","internalType":"address"}],"outputs":[],"stateMutability":"nonpayable"},{"type":"function","name":"revokeRole","inputs":[{"name":"role","type":"bytes32","internalType":"bytes32"},{"name":"account","type":"address","internalType":"address"}],"outputs":[],"stateMutability":"nonpayable"},{"type":"function","name":"setDefaultCreditLimit","inputs":[{"name":"limit","type":"uint256","internalType":"uint256"}],"outputs":[],"stateMutability":"nonpayable"},{"type":"function","name":"setStatusThresholds","inputs":[{"name":"lateRateWatch","type":"uint256","internalType":"uint256"},{"name":"lateRateHighRisk","type":"uint256","internalType":"uint256"},{"name":"defaultsHighRisk","type":"uint256","internalType":"uint256"},{"name":"defaultsBlacklist","type":"uint256","internalType":"uint256"}],"outputs":[],"stateMutability":"nonpayable"},{"type":"function","name":"supportsInterface","inputs":[{"name":"interfaceId","type":"bytes4","internalType":"bytes4"}],"outputs":[{"name":"","type":"bool","internalType":"bool"}],"stateMutability":"view"},{"type":"function","name":"unblacklistBuyer","inputs":[{"name":"buyerHash","type":"bytes32","internalType":"bytes32"}],"outputs":[],"stateMutability":"nonpayable"},{"type":"function","name":"updateBuyerStatus","inputs":[{"name":"buyerHash","type":"bytes32","internalType":"bytes32"},{"name":"newStatus","type":"uint8","internalType":"enum BuyerRegistry.BuyerStatus"}],"outputs":[],"stateMutability":"nonpayable"},{"type":"function","name":"updateCreditScore","inputs":[{"name":"buyerHash","type":"bytes32","internalType":"bytes32"},{"name":"newScore","type":"uint256","internalType":"uint256"},{"name":"newCreditLimit","type":"uint256","internalType":"uint256"}],"outputs":[],"stateMutability":"nonpayable"},{"type":"event","name":"BuyerBlacklisted","inputs":[{"name":"buyerHash","type":"bytes32","indexed":true,"internalType":"bytes32"},{"name":"reason","type":"string","indexed":false,"internalType":"string"}],"anonymous":false},{"type":"event","name":"BuyerRegistered","inputs":[{"name":"buyerHash","type":"bytes32","indexed":true,"internalType":"bytes32"},{"name":"timestamp","type":"uint256","indexed":false,"internalType":"uint256"}],"anonymous":false},{"type":"event","name":"BuyerStatusUpdated","inputs":[{"name":"buyerHash","type":"bytes32","indexed":true,"internalType":"bytes32"},{"name":"oldStatus","type":"uint8","indexed":false,"internalType":"enum BuyerRegistry.BuyerStatus"},{"name":"newStatus","type":"uint8","indexed":false,"internalType":"enum BuyerRegistry.BuyerStatus"}],"anonymous":false},{"type":"event","name":"BuyerUnblacklisted","inputs":[{"name":"buyerHash","type":"bytes32","indexed":true,"internalType":"bytes32"}],"anonymous":false},{"type":"event","name":"CreditScoreUpdated","inputs":[{"name":"buyerHash","type":"bytes32","indexed":true,"internalType":"bytes32"},{"name":"oldScore","type":"uint256","indexed":false,"internalType":"uint256"},{"name":"newScore","type":"uint256","indexed":false,"internalType":"uint256"},{"name":"creditLimit","type":"uint256","indexed":false,"internalType":"uint256"}],"anonymous":false},{"type":"event","name":"DefaultRecorded","inputs":[{"name":"buyerHash","type":"bytes32","indexed":true,"internalType":"bytes32"},{"name":"invoiceId","type":"uint256","indexed":true,"internalType":"uint256"},{"name":"amount","type":"uint256","indexed":false,"internalType":"uint256"}],"anonymous":false},{"type":"event","name":"InvoiceAssigned","inputs":[{"name":"buyerHash","type":"bytes32","indexed":true,"internalType":"bytes32"},{"name":"invoiceId","type":"uint256","indexed":true,"internalType":"uint256"},{"name":"amount","type":"uint256","indexed":false,"internalType":"uint256"}],"anonymous":false},{"type":"event","name":"PaymentRecorded","inputs":[{"name":"buyerHash","type":"bytes32","indexed":true,"internalType":"bytes32"},{"name":"invoiceId","type":"uint256","indexed":true,"internalType":"uint256"},{"name":"amount","type":"uint256","indexed":false,"internalType":"uint256"},{"name":"wasLate","type":"bool","indexed":false,"internalType":"bool"},{"name":"daysLate","type":"uint256","indexed":false,"internalType":"uint256"}],"anonymous":false},{"type":"event","name":"RoleAdminChanged","inputs":[{"name":"role","type":"bytes32","indexed":true,"internalType":"bytes32"},{"name":"previousAdminRole","type":"bytes32","indexed":true,"internalType":"bytes32"},{"name":"newAdminRole","type":"bytes32","indexed":true,"internalType":"bytes32"}],"anonymous":false},{"type":"event","name":"RoleGranted","inputs":[{"name":"role","type":"bytes32","indexed":true,"internalType":"bytes32"},{"name":"account","type":"address","indexed":true,"internalType":"address"},{"name":"sender","type":"address","indexed":true,"internalType":"address"}],"anonymous":false},{"type":"event","name":"RoleRevoked","inputs":[{"name":"role","type":"bytes32","indexed":true,"internalType":"bytes32"},{"name":"account","type":"address","indexed":true,"internalType":"address"},{"name":"sender","type":"address","indexed":true,"internalType":"address"}],"anonymous":false},{"type":"error","name":"AccessControlBadConfirmation","inputs":[]},{"type":"error","name":"AccessControlUnauthorizedAccount","inputs":[{"name":"account","type":"address","internalType":"address"},{"name":"neededRole","type":"bytes32","internalType":"bytes32"}]},{"type":"error","name":"BuyerAlreadyExists","inputs":[]},{"type":"error","name":"BuyerIsBlacklisted","inputs":[]},{"type":"error","name":"BuyerNotFound","inputs":[]},{"type":"error","name":"ExceedsCreditLimit","inputs":[]},{"type":"error","name":"InvalidAmount","inputs":[]},{"type":"error","name":"InvalidCreditScore","inputs":[]},{"type":"error","name":"ZeroBuyerHash","inputs":[]}],"bytecode":{"object":"0x608060405234610041576105dc600555610bb86006556002600755600360085564174876e80060095561003133610045565b50604051611c6390816100d58239f35b5f80fd5b6001600160a01b03165f8181527fad3228b676f7d3cd4284a5443f17f1962b36e491b30a40b2405849e597ba5fb5602052604081205490919060ff166100d057818052816020526040822081835260205260408220600160ff1982541617905533917f2f8788117e7eff1d82e926ec794901d17c78024a50270940304540a733656f0d8180a4600190565b509056fe6080806040526004361015610012575f80fd5b5f3560e01c90816301fe3775146113f45750806301ffc9a71461139e578063022977b11461137f5780630588a855146113615780630acb11e9146113465780631305279b1461109c578063156c5a901461106957806316cac02a14610ee2578063248a9ca314610eb6578063259c6f8814610e6c5780632f2ff15d14610e3e5780633489ead114610e2257806336568abe14610de95780633d3fdb1d14610da757806343d3046914610d4d5780634406834a14610c955780634f90451914610c7857806351a33ceb14610c5c57806369ae043214610b8b5780636d2b5c7914610b6d57806375204e2814610b2b57806378d8b30414610af15780637a0cd97714610a4057806385b7642f1461095f57806387cc5a1c146107fd5780638c9b1c39146106fa57806391d14854146106bf57806392bf4d33146106a25780639b8845761461063c578063a217fddf14610622578063a6e2295414610601578063a96a899414610510578063b332efbc146104f5578063b612e46d14610457578063b9a31dd214610403578063bb31dded1461038c578063d547741f1461035c578063e1f1c4a714610340578063e7db1b8314610311578063e8fbf365146102f4578063ec487ca4146102bb578063f2fdfff01461029e578063f672103114610283578063f68e9553146102495763f9a1e3961461020b575f80fd5b34610245575f3660031901126102455760206040517faecd6124097a9eb0b4f41f484962446a098f1e215d44c9b40ad6eec8240567138152f35b5f80fd5b34610245575f3660031901126102455760206040517fedcc084d3dcd65a1f7f23c65c46722faca6953d28e43150a467cf43e5c3092388152f35b34610245575f36600319011261024557602060405160038152f35b34610245575f366003190112610245576020600554604051908152f35b34610245575f3660031901126102455760206040517e9817c221cc98cf8539dd285e3fc05cbf4d20927bed0807d8fc76de41d18fa48152f35b34610245575f366003190112610245576020600654604051908152f35b34610245576020366003190112610245576004355f526002602052602060ff60405f2054166040519015158152f35b34610245575f3660031901126102455760206040516127108152f35b346102455761038a61036d3661141b565b90805f525f602052610385600160405f200154611539565b6115d6565b005b34610245576040366003190112610245576103ab602435600435611af5565b60405191151582528160206040818301528251908160408401525f935b8285106103ea575050606092505f838284010152601f80199101168101030190f35b84810182015186860160600152938101938593506103c8565b3461024557602036600319011261024557600435805f52600260205260ff60405f20541615610445575f5260016020526020600160405f200154604051908152f35b6040516390bc47b560e01b8152600490fd5b3461024557602036600319011261024557335f9081527f01ddc098da42acdf4176da08ec75800bc0fb2bce2be978b2037bcb0ae696651960205260409020547fedcc084d3dcd65a1f7f23c65c46722faca6953d28e43150a467cf43e5c3092389060ff16156104d75760206104cd600435611661565b6040519015158152f35b6044906040519063e2517d3f60e01b82523360048301526024820152fd5b34610245575f36600319011261024557602060405160328152f35b346102455761051e3661148c565b335f9081527fb9bd04cb891bd5dffd6c5615f01237972bbe045ba7ce36be5a1e206ec31a2d0f60205260409020547fa7e1a9382f0c489455b927ee2f44428a4acc29f26b04cef9a1ec3bc50444de079060ff16156104d75750825f52600260205260ff60405f2054161561044557606482116105ef577fd487a36b70161dcd6d54ac407484a2bac631361f5b3d9501ecf9c8a9f9a4969091606091845f52600160205260405f209160018301928184549455826002820155600f4291015560405192835260208301526040820152a2005b6040516301069b4760e21b8152600490fd5b346102455760203660031901126102455761061a611500565b600435600955005b34610245575f3660031901126102455760206040515f8152f35b3461024557602036600319011261024557600435805f52600260205260ff60405f20541615610445575f52600160205260405f2060036002820154910154908181115f146106985760209161069091611721565b604051908152f35b505060205f610690565b34610245575f366003190112610245576020600954604051908152f35b34610245576106cd3661141b565b905f525f60205260405f209060018060a01b03165f52602052602060ff60405f2054166040519015158152f35b346102455760403660031901126102455760043567ffffffffffffffff60243581811161024557366023820112156102455780600401359182116102455736602483830101116102455761074c611500565b825f52600260205260ff60405f205416156104455760406024917f85f9e604c17f66987a5237304e5b3e56ff4dda3a53f26c023ee680505e0dea5b93855f526001602052855f80516020611c0e8339815191528460ff6107ca825f20600c810190815491600485198416179055600e4291015583519283911661140e565b60046020820152a28083519485936020855282602086015201848401375f828201840152601f01601f19168101030190a2005b3461024557602080600319360112610245576004359061081b611780565b915f83525f828401525f60408401525f606084015261083861199e565b60808401525f60a08401525f60c08401525f60e08401525f61010080940152805f526002825260ff60405f20541615610445575f526001815260405f209161087e611780565b9183548352600184015493818401948552600281015494604085019586526003820154606086019081526108b4600484016119d6565b6080870190815260ff600c850154169060a0880192600583101561094b5761020099899761093496610928958752600f600d8a01549960c08c019a8b5260e0600e8201549c019b8c5201549a8c019a8b526040519b518c5251908b01525160408a0152516060890152516080880190611441565b5161018086019061140e565b516101a0840152516101c0830152516101e0820152f35b634e487b7160e01b5f52602160045260245ffd5b3461024557604036600319011261024557600435602435600581101561024557335f9081527fa0a988b6f6dee755e2a8ed132d5fb406a7fb4dc0db3757bbfa8307f1865185ed60205260409020547faecd6124097a9eb0b4f41f484962446a098f1e215d44c9b40ad6eec8240567139060ff16156104d75750815f52600260205260ff60405f205416156104455760405f80516020611c0e83398151915291835f526001602052610a3d825f2091600c830192610a218260ff86541695611649565b600e42910155610a338451809461140e565b602083019061140e565ba2005b3461024557602036600319011261024557600435610a5c611500565b805f52600260205260ff60405f2054161561044557805f52600160205260405f20600c8101805460ff8116600581101561094b57600481036104455784935f80516020611c0e8339815191529360409360ff19169055600e42910155610ac48251809261140e565b5f6020820152a27f0152dc4976dc81da628575073811e0990b8c82e297191d89fbe4a2cf438c4ae35f80a2005b34610245575f3660031901126102455760206040517fa7e1a9382f0c489455b927ee2f44428a4acc29f26b04cef9a1ec3bc50444de078152f35b3461024557602036600319011261024557600435805f52600260205260ff60405f20541615610445575f5260016020526020600260405f200154604051908152f35b34610245576020366003190112610245576020610690600435611a2b565b3461024557610b993661148c565b610ba49291926114a6565b815f52600260205260ff60405f20541615610445578015610c4a57815f52600160205260405f209060038201610bdb828254611714565b9055600482019081549260018401809411610c36577f34b928bc95a2a14817ff50639a0e372993069ca8ad81c2bd639ee2ac6a3acf1b936020935560058101610c25838254611714565b9055600e42910155604051908152a3005b634e487b7160e01b5f52601160045260245ffd5b60405163162908e360e11b8152600490fd5b34610245575f366003190112610245576020604051610bb88152f35b34610245575f366003190112610245576020600754604051908152f35b3461024557610ca33661148c565b610cae9291926114a6565b815f52600260205260ff60405f20541615610445578015610c4a57815f52600160205260405f2090600982019081549260018401809411610c36577fa865a282d8b644ab531303587089a3523f5e317718dcc358d632a231c1585f7b936020935560038101805483808210155f14610d4457610d2991611721565b905b55600e42910155610d3b846117c1565b604051908152a3005b50505f90610d2b565b3461024557602036600319011261024557600435610d6961199e565b50805f52600260205260ff60405f20541615610445575f526001602052610100610d98600460405f20016119d6565b610da56040518092611441565bf35b3461024557602036600319011261024557600435805f52600260205260ff60405f20541615610445575f5260016020526020600360405f200154604051908152f35b3461024557610df73661141b565b336001600160a01b03821603610e105761038a916115d6565b60405163334bd91960e11b8152600490fd5b34610245575f3660031901126102455760206040516105dc8152f35b346102455761038a610e4f3661141b565b90805f525f602052610e67600160405f200154611539565b61155a565b3461024557602036600319011261024557600435805f52600260205260ff60405f20541615610445575f526001602052602060ff600c60405f20015416610da5604051809261140e565b34610245576020366003190112610245576004355f525f6020526020600160405f200154604051908152f35b34610245576020806003193601126102455760043590815f5260029182825260ff908160405f20541615610445575f5260039283835260405f209384549167ffffffffffffffff90818411611055576040519460059285841b603f01601f1916870190811187821017611055576040528486525f9788528688208787019894909390895b878710610ff057604080518b81528a51818d018190528d928201908d5f5b828110610f915784840385f35b855180518552808301518584015260408082015190860152606080820151908601526080808201519086015260a0808201519086015260c08082015115159086015260e090810151908501529481019461010090930192600101610f84565b60088a600192610ffe61175f565b89548152848a015483820152888a01546040820152858a0154606082015260048a01546080820152868a015460a08201528760068b015416151560c082015260078a015460e0820152815201960196019594610f66565b634e487b7160e01b5f52604160045260245ffd5b3461024557608036600319011261024557611082611500565b600435600555602435600655604435600755606435600855005b346102455760a0366003190112610245576110b56114a6565b6004355f52600260205260ff60405f205416156104455760443515610c4a576004355f52600160205260405f205f606435608435115f1461132d575062015180611103606435608435611721565b04906008810180549060018201808311610c36578061113a925561113585611130600b870195865461174c565b611714565b61172e565b90555b6111506007820154600883015490611714565b60643560843510611327576201518061116d606435608435611721565b045b600a8301918254915f19820190828211610c3657611130611135926111939561174c565b9055600681016111a66044358254611714565b9055600381018054604435811061131f576111c49060443590611721565b905b55600e4291015560045460018101809111610c3657806004556004355f52600360205260405f206111f561175f565b918252600435602083015260243560408301526044356060830152606435608083015260843560a08301526064356084351160c08301528260e083015280549068010000000000000000821015611055576001820180825582101561130b5760079160e0915f5260205f209060031b0192805184556020810151600185015560408101516002850155606081015160038501556080810151600485015560a081015160058501556006840160c0820151151560ff8019835416911617905501519101556112c36004356117c1565b6040519060443582526064356084351160208301526040820152602435907f0393acea03fc1d922f335f684adbfb954fd755f3281fa5d7d7360a9be3629647606060043592a3005b634e487b7160e01b5f52603260045260245ffd5b505f906111c6565b5f61116f565b906007810180549060018201809211610c36575561113d565b34610245575f36600319011261024557602060405160028152f35b34610245576020366003190112610245576020610690600435611aa3565b34610245575f36600319011261024557602060405164174876e8008152f35b346102455760203660031901126102455760043563ffffffff60e01b811680910361024557602090637965db0b60e01b81149081156113e3575b506040519015158152f35b6301ffc9a760e01b149050826113d8565b34610245575f366003190112610245576020906008548152f35b90600582101561094b5752565b604090600319011261024557600435906024356001600160a01b03811681036102455790565b60e08091805184526020810151602085015260408101516040850152606081015160608501526080810151608085015260a081015160a085015260c081015160c08501520151910152565b606090600319011261024557600435906024359060443590565b335f9081527f96fb76514e2c02587c10386f03768718ed683639a5d00da6479e668c89e9693860205260409020547e9817c221cc98cf8539dd285e3fc05cbf4d20927bed0807d8fc76de41d18fa49060ff16156104d75750565b335f9081527fad3228b676f7d3cd4284a5443f17f1962b36e491b30a40b2405849e597ba5fb5602052604081205460ff16156104d75750565b805f525f60205260405f20335f5260205260ff60405f205416156104d75750565b905f9180835282602052604083209160018060a01b03169182845260205260ff604084205416155f146115d157808352826020526040832082845260205260408320600160ff198254161790557f2f8788117e7eff1d82e926ec794901d17c78024a50270940304540a733656f0d339380a4600190565b505090565b905f9180835282602052604083209160018060a01b03169182845260205260ff6040842054165f146115d15780835282602052604083208284526020526040832060ff1981541690557ff6391f5c32d9c69d2a47ea670b442974b53935d1edc7fd64eb21e047a839171b339380a4600190565b90600581101561094b5760ff80198354169116179055565b8015611702575f818152600260205260ff6040822054166116fd57600160205260016040808320928484556032838501556009546002850155806003850155600c84019360ff199485815416905542600d82015542600e820155600f42910155600260205220918254161790557f9e92d9acc3da1787f0a8b916113d6c5c6f9316f3f33087775c20a1b0472f505f6020604051428152a2600190565b905090565b60405163981d30c560e01b8152600490fd5b91908201809211610c3657565b91908203918211610c3657565b8115611738570490565b634e487b7160e01b5f52601260045260245ffd5b81810292918115918404141715610c3657565b60405190610100820182811067ffffffffffffffff82111761105557604052565b60405190610120820182811067ffffffffffffffff82111761105557604052565b604051906040820182811067ffffffffffffffff82111761105557604052565b5f81815260016020526040812090600c820160ff815416809360078101546117ee60088301548092611714565b91859183611960575b506009015460085481106118f957505050506004915b60058410156118e55760058310156118e5575082820361182e575b50505050565b5f80516020611c0e833981519152604060049461184c858895611649565b6118588251809261140e565b611865602082018661140e565ba214611874575b808080611828565b7f85f9e604c17f66987a5237304e5b3e56ff4dda3a53f26c023ee680505e0dea5b608060405160208152602a60208201527f4175746f2d626c61636b6c69737465642064756520746f2064656661756c7473604082015269081d1a1c995cda1bdb1960b21b6060820152a25f61186c565b634e487b7160e01b81526021600452602490fd5b60075411801590611954575b15611916575050506003915b61180d565b600554811061192a5750505060029161180d565b6103e890949294109081611948575b5015611911576001925061180d565b6005915010155f611939565b50600654811015611905565b9091506127109081810291818304149015171561198a576119838360099261172e565b91906117f7565b634e487b7160e01b86526011600452602486fd5b6119a661175f565b905f8083528060208401528060408401528060608401528060808401528060a08401528060c084015260e0830152565b9060076119e161175f565b928054845260018101546020850152600281015460408501526003810154606085015260048101546080850152600581015460a0850152600681015460c0850152015460e0830152565b905f91808352600260205260ff60408420541615610445578252600160205260408220611a62600860078301549201548092611714565b908115611a9f5761271090818102918183041490151715611a8b57611a8892935061172e565b90565b634e487b7160e01b84526011600452602484fd5b5050565b905f91808352600260205260ff604084205416156104455782526001602052604082206004810154908115611a9f576009015461271090818102918183041490151715611a8b57611a8892935061172e565b9190915f928184526020916002835260ff60408620541615611be557845260018252604084209060ff600c830154166005811015611bd157600414611baf57611b446002916003840154611714565b91015410611b845760019260405191820182811067ffffffffffffffff821117611b7057604052815290565b634e487b7160e01b82526041600452602482fd5b73115e18d959591cc818dc99591a5d081b1a5b5a5d60621b611ba46117a1565b916014835282015290565b505073109d5e595c881a5cc8189b1858dadb1a5cdd195960621b611ba46117a1565b634e487b7160e01b86526021600452602486fd5b50506e109d5e595c881b9bdd08199bdd5b99608a1b611c026117a1565b91600f83528201529056fec5684bc4c96dfa5f6d711e081bbedf26bef27c772aa2b14141ffc2c23aa853d3a26469706673582212200123e27d6bf8d5b22eec5a7f0a637685766182b3f1dfb6de34a98e23c900443e64736f6c63430008140033","linkReferences":{}},"methodIdentifiers":{"BASIS_POINTS()":"e1f1c4a7","CREDIT_UPDATER_ROLE()":"78d8b304","DEFAULTS_BLACKLIST_THRESHOLD()":"f6721031","DEFAULTS_HIGH_RISK_THRESHOLD()":"0acb11e9","DEFAULT_ADMIN_ROLE()":"a217fddf","DEFAULT_CREDIT_LIMIT()":"022977b1","DEFAULT_CREDIT_SCORE()":"b332efbc","LATE_RATE_HIGH_RISK_THRESHOLD()":"51a33ceb","LATE_RATE_WATCH_THRESHOLD()":"3489ead1","REGISTRAR_ROLE()":"f68e9553","STATS_UPDATER_ROLE()":"ec487ca4","STATUS_MANAGER_ROLE()":"f9a1e396","blacklistBuyer(bytes32,string)":"8c9b1c39","buyerExists(bytes32)":"e7db1b83","defaultCreditLimit()":"92bf4d33","defaultsBlacklistThreshold()":"01fe3775","defaultsHighRiskThreshold()":"4f904519","getAvailableCredit(bytes32)":"9b884576","getBuyer(bytes32)":"87cc5a1c","getBuyerStats(bytes32)":"43d30469","getBuyerStatus(bytes32)":"259c6f88","getCreditLimit(bytes32)":"75204e28","getCreditScore(bytes32)":"b9a31dd2","getCurrentExposure(bytes32)":"3d3fdb1d","getDefaultRate(bytes32)":"0588a855","getLatePaymentRate(bytes32)":"6d2b5c79","getPaymentHistory(bytes32)":"16cac02a","getRoleAdmin(bytes32)":"248a9ca3","grantRole(bytes32,address)":"2f2ff15d","hasRole(bytes32,address)":"91d14854","isEligibleForFunding(bytes32,uint256)":"bb31dded","lateRateHighRiskThreshold()":"e8fbf365","lateRateWatchThreshold()":"f2fdfff0","recordDefault(bytes32,uint256,uint256)":"4406834a","recordInvoiceAssigned(bytes32,uint256,uint256)":"69ae0432","recordPayment(bytes32,uint256,uint256,uint256,uint256)":"1305279b","registerBuyer(bytes32)":"b612e46d","renounceRole(bytes32,address)":"36568abe","revokeRole(bytes32,address)":"d547741f","setDefaultCreditLimit(uint256)":"a6e22954","setStatusThresholds(uint256,uint256,uint256,uint256)":"156c5a90","supportsInterface(bytes4)":"01ffc9a7","unblacklistBuyer(bytes32)":"7a0cd977","updateBuyerStatus(bytes32,uint8)":"85b7642f","updateCreditScore(bytes32,uint256,uint256)":"a96a8994"},"id":43}