{"abi":[{"type":"constructor","inputs":[{"name":"_buyerRegistry","type":"address","internalType":"address"},{"name":"_admin","type":"address","internalType":"address"}],"stateMutability":"nonpayable"},{"type":"function","name":"BASIS_POINTS","inputs":[],"outputs":[{"name":"","type":"uint256","internalType":"uint256"}],"stateMutability":"view"},{"type":"function","name":"DEFAULT_ADMIN_ROLE","inputs":[],"outputs":[{"name":"","type":"bytes32","internalType":"bytes32"}],"stateMutability":"view"},{"type":"function","name":"DEFAULT_VALIDITY_PERIOD","inputs":[],"outputs":[{"name":"","type":"uint256","internalType":"uint256"}],"stateMutability":"view"},{"type":"function","name":"MAX_CREDIT_SCORE","inputs":[],"outputs":[{"name":"","type":"uint256","internalType":"uint256"}],"stateMutability":"view"},{"type":"function","name":"MAX_RISK_SCORE","inputs":[],"outputs":[{"name":"","type":"uint256","internalType":"uint256"}],"stateMutability":"view"},{"type":"function","name":"MIN_CONFIDENCE_SCORE","inputs":[],"outputs":[{"name":"","type":"uint256","internalType":"uint256"}],"stateMutability":"view"},{"type":"function","name":"ORACLE_ROLE","inputs":[],"outputs":[{"name":"","type":"bytes32","internalType":"bytes32"}],"stateMutability":"view"},{"type":"function","name":"REQUESTER_ROLE","inputs":[],"outputs":[{"name":"","type":"bytes32","internalType":"bytes32"}],"stateMutability":"view"},{"type":"function","name":"assessmentValidityPeriod","inputs":[],"outputs":[{"name":"","type":"uint256","internalType":"uint256"}],"stateMutability":"view"},{"type":"function","name":"buyerRegistry","inputs":[],"outputs":[{"name":"","type":"address","internalType":"contract IBuyerRegistry"}],"stateMutability":"view"},{"type":"function","name":"calculateAdvanceAmount","inputs":[{"name":"invoiceId","type":"uint256","internalType":"uint256"},{"name":"faceValue","type":"uint256","internalType":"uint256"}],"outputs":[{"name":"","type":"uint256","internalType":"uint256"}],"stateMutability":"view"},{"type":"function","name":"calculateExpectedYield","inputs":[{"name":"invoiceId","type":"uint256","internalType":"uint256"},{"name":"advanceAmount","type":"uint256","internalType":"uint256"},{"name":"daysToMaturity","type":"uint256","internalType":"uint256"}],"outputs":[{"name":"","type":"uint256","internalType":"uint256"}],"stateMutability":"view"},{"type":"function","name":"getAssessmentRequest","inputs":[{"name":"requestId","type":"uint256","internalType":"uint256"}],"outputs":[{"name":"","type":"tuple","internalType":"struct CreditOracle.AssessmentRequest","components":[{"name":"requestId","type":"uint256","internalType":"uint256"},{"name":"requestType","type":"uint8","internalType":"enum CreditOracle.RequestType"},{"name":"subjectHash","type":"bytes32","internalType":"bytes32"},{"name":"requester","type":"address","internalType":"address"},{"name":"requestedAt","type":"uint256","internalType":"uint256"},{"name":"fulfilled","type":"bool","internalType":"bool"},{"name":"fulfilledAt","type":"uint256","internalType":"uint256"}]}],"stateMutability":"view"},{"type":"function","name":"getBuyerAssessment","inputs":[{"name":"buyerHash","type":"bytes32","internalType":"bytes32"}],"outputs":[{"name":"","type":"tuple","internalType":"struct CreditOracle.BuyerAssessment","components":[{"name":"buyerHash","type":"bytes32","internalType":"bytes32"},{"name":"creditScore","type":"uint256","internalType":"uint256"},{"name":"creditLimit","type":"uint256","internalType":"uint256"},{"name":"defaultProbability","type":"uint256","internalType":"uint256"},{"name":"recommendedAdvanceRate","type":"uint256","internalType":"uint256"},{"name":"confidenceScore","type":"uint256","internalType":"uint256"},{"name":"assignedTier","type":"uint8","internalType":"enum CreditOracle.RiskTier"},{"name":"riskFactors","type":"string[]","internalType":"string[]"},{"name":"assessedAt","type":"uint256","internalType":"uint256"},{"name":"validUntil","type":"uint256","internalType":"uint256"},{"name":"isValid","type":"bool","internalType":"bool"}]}],"stateMutability":"view"},{"type":"function","name":"getBuyerRiskTier","inputs":[{"name":"buyerHash","type":"bytes32","internalType":"bytes32"}],"outputs":[{"name":"","type":"uint8","internalType":"enum CreditOracle.RiskTier"}],"stateMutability":"view"},{"type":"function","name":"getInvoiceAssessment","inputs":[{"name":"invoiceId","type":"uint256","internalType":"uint256"}],"outputs":[{"name":"","type":"tuple","internalType":"struct CreditOracle.InvoiceAssessment","components":[{"name":"invoiceId","type":"uint256","internalType":"uint256"},{"name":"sellerHash","type":"bytes32","internalType":"bytes32"},{"name":"buyerHash","type":"bytes32","internalType":"bytes32"},{"name":"invoiceAmount","type":"uint256","internalType":"uint256"},{"name":"riskScore","type":"uint256","internalType":"uint256"},{"name":"fraudProbability","type":"uint256","internalType":"uint256"},{"name":"recommendedAdvanceRate","type":"uint256","internalType":"uint256"},{"name":"recommendedInterestRate","type":"uint256","internalType":"uint256"},{"name":"assignedTier","type":"uint8","internalType":"enum CreditOracle.RiskTier"},{"name":"approved","type":"bool","internalType":"bool"},{"name":"rejectionReason","type":"string","internalType":"string"},{"name":"confidenceScore","type":"uint256","internalType":"uint256"},{"name":"assessedAt","type":"uint256","internalType":"uint256"}]}],"stateMutability":"view"},{"type":"function","name":"getInvoiceRiskTier","inputs":[{"name":"invoiceId","type":"uint256","internalType":"uint256"}],"outputs":[{"name":"","type":"uint8","internalType":"enum CreditOracle.RiskTier"}],"stateMutability":"view"},{"type":"function","name":"getPendingRequests","inputs":[],"outputs":[{"name":"","type":"uint256[]","internalType":"uint256[]"}],"stateMutability":"view"},{"type":"function","name":"getPendingRequestsByType","inputs":[{"name":"requestType","type":"uint8","internalType":"enum CreditOracle.RequestType"}],"outputs":[{"name":"","type":"uint256[]","internalType":"uint256[]"}],"stateMutability":"view"},{"type":"function","name":"getRecommendedAdvanceRate","inputs":[{"name":"invoiceId","type":"uint256","internalType":"uint256"}],"outputs":[{"name":"","type":"uint256","internalType":"uint256"}],"stateMutability":"view"},{"type":"function","name":"getRecommendedInterestRate","inputs":[{"name":"invoiceId","type":"uint256","internalType":"uint256"}],"outputs":[{"name":"","type":"uint256","internalType":"uint256"}],"stateMutability":"view"},{"type":"function","name":"getRoleAdmin","inputs":[{"name":"role","type":"bytes32","internalType":"bytes32"}],"outputs":[{"name":"","type":"bytes32","internalType":"bytes32"}],"stateMutability":"view"},{"type":"function","name":"grantRole","inputs":[{"name":"role","type":"bytes32","internalType":"bytes32"},{"name":"account","type":"address","internalType":"address"}],"outputs":[],"stateMutability":"nonpayable"},{"type":"function","name":"hasBuyerAssessment","inputs":[{"name":"buyerHash","type":"bytes32","internalType":"bytes32"}],"outputs":[{"name":"","type":"bool","internalType":"bool"}],"stateMutability":"view"},{"type":"function","name":"hasInvoiceAssessment","inputs":[{"name":"invoiceId","type":"uint256","internalType":"uint256"}],"outputs":[{"name":"","type":"bool","internalType":"bool"}],"stateMutability":"view"},{"type":"function","name":"hasRole","inputs":[{"name":"role","type":"bytes32","internalType":"bytes32"},{"name":"account","type":"address","internalType":"address"}],"outputs":[{"name":"","type":"bool","internalType":"bool"}],"stateMutability":"view"},{"type":"function","name":"invalidateBuyerAssessment","inputs":[{"name":"buyerHash","type":"bytes32","internalType":"bytes32"},{"name":"reason","type":"string","internalType":"string"}],"outputs":[],"stateMutability":"nonpayable"},{"type":"function","name":"invalidateInvoiceAssessment","inputs":[{"name":"invoiceId","type":"uint256","internalType":"uint256"},{"name":"reason","type":"string","internalType":"string"}],"outputs":[],"stateMutability":"nonpayable"},{"type":"function","name":"isBuyerAssessmentFresh","inputs":[{"name":"buyerHash","type":"bytes32","internalType":"bytes32"},{"name":"maxAgeSeconds","type":"uint256","internalType":"uint256"}],"outputs":[{"name":"","type":"bool","internalType":"bool"}],"stateMutability":"view"},{"type":"function","name":"isBuyerAssessmentValid","inputs":[{"name":"buyerHash","type":"bytes32","internalType":"bytes32"}],"outputs":[{"name":"","type":"bool","internalType":"bool"}],"stateMutability":"view"},{"type":"function","name":"isInvoiceApproved","inputs":[{"name":"invoiceId","type":"uint256","internalType":"uint256"}],"outputs":[{"name":"","type":"bool","internalType":"bool"}],"stateMutability":"view"},{"type":"function","name":"minConfidenceScore","inputs":[],"outputs":[{"name":"","type":"uint256","internalType":"uint256"}],"stateMutability":"view"},{"type":"function","name":"renounceRole","inputs":[{"name":"role","type":"bytes32","internalType":"bytes32"},{"name":"callerConfirmation","type":"address","internalType":"address"}],"outputs":[],"stateMutability":"nonpayable"},{"type":"function","name":"requestBatchAssessment","inputs":[{"name":"buyerHashes","type":"bytes32[]","internalType":"bytes32[]"}],"outputs":[{"name":"requestIds","type":"uint256[]","internalType":"uint256[]"}],"stateMutability":"nonpayable"},{"type":"function","name":"requestBuyerAssessment","inputs":[{"name":"buyerHash","type":"bytes32","internalType":"bytes32"}],"outputs":[{"name":"requestId","type":"uint256","internalType":"uint256"}],"stateMutability":"nonpayable"},{"type":"function","name":"requestInvoiceAssessment","inputs":[{"name":"invoiceId","type":"uint256","internalType":"uint256"},{"name":"sellerHash","type":"bytes32","internalType":"bytes32"},{"name":"buyerHash","type":"bytes32","internalType":"bytes32"},{"name":"amount","type":"uint256","internalType":"uint256"}],"outputs":[{"name":"requestId","type":"uint256","internalType":"uint256"}],"stateMutability":"nonpayable"},{"type":"function","name":"revokeRole","inputs":[{"name":"role","type":"bytes32","internalType":"bytes32"},{"name":"account","type":"address","internalType":"address"}],"outputs":[],"stateMutability":"nonpayable"},{"type":"function","name":"setAssessmentValidityPeriod","inputs":[{"name":"seconds_","type":"uint256","internalType":"uint256"}],"outputs":[],"stateMutability":"nonpayable"},{"type":"function","name":"setBuyerRegistryAddress","inputs":[{"name":"buyerRegistry_","type":"address","internalType":"address"}],"outputs":[],"stateMutability":"nonpayable"},{"type":"function","name":"setMinConfidenceScore","inputs":[{"name":"minScore","type":"uint256","internalType":"uint256"}],"outputs":[],"stateMutability":"nonpayable"},{"type":"function","name":"setOracleAddress","inputs":[{"name":"oracle","type":"address","internalType":"address"},{"name":"authorized","type":"bool","internalType":"bool"}],"outputs":[],"stateMutability":"nonpayable"},{"type":"function","name":"submitBatchBuyerAssessments","inputs":[{"name":"requestIds","type":"uint256[]","internalType":"uint256[]"},{"name":"assessments","type":"tuple[]","internalType":"struct CreditOracle.BuyerAssessment[]","components":[{"name":"buyerHash","type":"bytes32","internalType":"bytes32"},{"name":"creditScore","type":"uint256","internalType":"uint256"},{"name":"creditLimit","type":"uint256","internalType":"uint256"},{"name":"defaultProbability","type":"uint256","internalType":"uint256"},{"name":"recommendedAdvanceRate","type":"uint256","internalType":"uint256"},{"name":"confidenceScore","type":"uint256","internalType":"uint256"},{"name":"assignedTier","type":"uint8","internalType":"enum CreditOracle.RiskTier"},{"name":"riskFactors","type":"string[]","internalType":"string[]"},{"name":"assessedAt","type":"uint256","internalType":"uint256"},{"name":"validUntil","type":"uint256","internalType":"uint256"},{"name":"isValid","type":"bool","internalType":"bool"}]}],"outputs":[],"stateMutability":"nonpayable"},{"type":"function","name":"submitBuyerAssessment","inputs":[{"name":"requestId","type":"uint256","internalType":"uint256"},{"name":"assessment","type":"tuple","internalType":"struct CreditOracle.BuyerAssessment","components":[{"name":"buyerHash","type":"bytes32","internalType":"bytes32"},{"name":"creditScore","type":"uint256","internalType":"uint256"},{"name":"creditLimit","type":"uint256","internalType":"uint256"},{"name":"defaultProbability","type":"uint256","internalType":"uint256"},{"name":"recommendedAdvanceRate","type":"uint256","internalType":"uint256"},{"name":"confidenceScore","type":"uint256","internalType":"uint256"},{"name":"assignedTier","type":"uint8","internalType":"enum CreditOracle.RiskTier"},{"name":"riskFactors","type":"string[]","internalType":"string[]"},{"name":"assessedAt","type":"uint256","internalType":"uint256"},{"name":"validUntil","type":"uint256","internalType":"uint256"},{"name":"isValid","type":"bool","internalType":"bool"}]}],"outputs":[],"stateMutability":"nonpayable"},{"type":"function","name":"submitInvoiceAssessment","inputs":[{"name":"requestId","type":"uint256","internalType":"uint256"},{"name":"assessment","type":"tuple","internalType":"struct CreditOracle.InvoiceAssessment","components":[{"name":"invoiceId","type":"uint256","internalType":"uint256"},{"name":"sellerHash","type":"bytes32","internalType":"bytes32"},{"name":"buyerHash","type":"bytes32","internalType":"bytes32"},{"name":"invoiceAmount","type":"uint256","internalType":"uint256"},{"name":"riskScore","type":"uint256","internalType":"uint256"},{"name":"fraudProbability","type":"uint256","internalType":"uint256"},{"name":"recommendedAdvanceRate","type":"uint256","internalType":"uint256"},{"name":"recommendedInterestRate","type":"uint256","internalType":"uint256"},{"name":"assignedTier","type":"uint8","internalType":"enum CreditOracle.RiskTier"},{"name":"approved","type":"bool","internalType":"bool"},{"name":"rejectionReason","type":"string","internalType":"string"},{"name":"confidenceScore","type":"uint256","internalType":"uint256"},{"name":"assessedAt","type":"uint256","internalType":"uint256"}]}],"outputs":[],"stateMutability":"nonpayable"},{"type":"function","name":"supportsInterface","inputs":[{"name":"interfaceId","type":"bytes4","internalType":"bytes4"}],"outputs":[{"name":"","type":"bool","internalType":"bool"}],"stateMutability":"view"},{"type":"function","name":"updateBuyerAssessment","inputs":[{"name":"buyerHash","type":"bytes32","internalType":"bytes32"},{"name":"assessment","type":"tuple","internalType":"struct CreditOracle.BuyerAssessment","components":[{"name":"buyerHash","type":"bytes32","internalType":"bytes32"},{"name":"creditScore","type":"uint256","internalType":"uint256"},{"name":"creditLimit","type":"uint256","internalType":"uint256"},{"name":"defaultProbability","type":"uint256","internalType":"uint256"},{"name":"recommendedAdvanceRate","type":"uint256","internalType":"uint256"},{"name":"confidenceScore","type":"uint256","internalType":"uint256"},{"name":"assignedTier","type":"uint8","internalType":"enum CreditOracle.RiskTier"},{"name":"riskFactors","type":"string[]","internalType":"string[]"},{"name":"assessedAt","type":"uint256","internalType":"uint256"},{"name":"validUntil","type":"uint256","internalType":"uint256"},{"name":"isValid","type":"bool","internalType":"bool"}]}],"outputs":[],"stateMutability":"nonpayable"},{"type":"event","name":"AssessmentInvalidated","inputs":[{"name":"subjectHash","type":"bytes32","indexed":true,"internalType":"bytes32"},{"name":"reason","type":"string","indexed":false,"internalType":"string"}],"anonymous":false},{"type":"event","name":"BuyerAssessmentRequested","inputs":[{"name":"requestId","type":"uint256","indexed":true,"internalType":"uint256"},{"name":"buyerHash","type":"bytes32","indexed":true,"internalType":"bytes32"},{"name":"requester","type":"address","indexed":false,"internalType":"address"}],"anonymous":false},{"type":"event","name":"BuyerAssessmentSubmitted","inputs":[{"name":"requestId","type":"uint256","indexed":true,"internalType":"uint256"},{"name":"buyerHash","type":"bytes32","indexed":true,"internalType":"bytes32"},{"name":"creditScore","type":"uint256","indexed":false,"internalType":"uint256"},{"name":"tier","type":"uint8","indexed":false,"internalType":"enum CreditOracle.RiskTier"}],"anonymous":false},{"type":"event","name":"BuyerAssessmentUpdated","inputs":[{"name":"buyerHash","type":"bytes32","indexed":true,"internalType":"bytes32"},{"name":"oldScore","type":"uint256","indexed":false,"internalType":"uint256"},{"name":"newScore","type":"uint256","indexed":false,"internalType":"uint256"}],"anonymous":false},{"type":"event","name":"InvoiceAssessmentRequested","inputs":[{"name":"requestId","type":"uint256","indexed":true,"internalType":"uint256"},{"name":"invoiceId","type":"uint256","indexed":true,"internalType":"uint256"},{"name":"buyerHash","type":"bytes32","indexed":false,"internalType":"bytes32"}],"anonymous":false},{"type":"event","name":"InvoiceAssessmentSubmitted","inputs":[{"name":"requestId","type":"uint256","indexed":true,"internalType":"uint256"},{"name":"invoiceId","type":"uint256","indexed":true,"internalType":"uint256"},{"name":"approved","type":"bool","indexed":false,"internalType":"bool"},{"name":"tier","type":"uint8","indexed":false,"internalType":"enum CreditOracle.RiskTier"}],"anonymous":false},{"type":"event","name":"OracleAuthorized","inputs":[{"name":"oracle","type":"address","indexed":true,"internalType":"address"}],"anonymous":false},{"type":"event","name":"OracleRevoked","inputs":[{"name":"oracle","type":"address","indexed":true,"internalType":"address"}],"anonymous":false},{"type":"event","name":"RoleAdminChanged","inputs":[{"name":"role","type":"bytes32","indexed":true,"internalType":"bytes32"},{"name":"previousAdminRole","type":"bytes32","indexed":true,"internalType":"bytes32"},{"name":"newAdminRole","type":"bytes32","indexed":true,"internalType":"bytes32"}],"anonymous":false},{"type":"event","name":"RoleGranted","inputs":[{"name":"role","type":"bytes32","indexed":true,"internalType":"bytes32"},{"name":"account","type":"address","indexed":true,"internalType":"address"},{"name":"sender","type":"address","indexed":true,"internalType":"address"}],"anonymous":false},{"type":"event","name":"RoleRevoked","inputs":[{"name":"role","type":"bytes32","indexed":true,"internalType":"bytes32"},{"name":"account","type":"address","indexed":true,"internalType":"address"},{"name":"sender","type":"address","indexed":true,"internalType":"address"}],"anonymous":false},{"type":"error","name":"AccessControlBadConfirmation","inputs":[]},{"type":"error","name":"AccessControlUnauthorizedAccount","inputs":[{"name":"account","type":"address","internalType":"address"},{"name":"neededRole","type":"bytes32","internalType":"bytes32"}]},{"type":"error","name":"ArrayLengthMismatch","inputs":[]},{"type":"error","name":"AssessmentExpired","inputs":[]},{"type":"error","name":"AssessmentInvalid","inputs":[]},{"type":"error","name":"AssessmentNotFound","inputs":[]},{"type":"error","name":"ConfidenceTooLow","inputs":[]},{"type":"error","name":"InvalidConfidenceScore","inputs":[]},{"type":"error","name":"InvalidCreditScore","inputs":[]},{"type":"error","name":"InvalidRiskScore","inputs":[]},{"type":"error","name":"InvoiceNotApproved","inputs":[]},{"type":"error","name":"RequestAlreadyFulfilled","inputs":[]},{"type":"error","name":"RequestNotFound","inputs":[]},{"type":"error","name":"ZeroBuyerHash","inputs":[]}],"bytecode":{"object":"0x608034620000a257601f62002f4338819003918201601f19168301916001600160401b03831184841017620000a7578084926040948552833981010312620000a257806200005f6020620000576200009194620000bd565b9201620000bd565b62278d00600955603c600a55600180546001600160a01b0319166001600160a01b0390931692909217909155620000d2565b50604051612ddf9081620001648239f35b600080fd5b634e487b7160e01b600052604160045260246000fd5b51906001600160a01b0382168203620000a257565b6001600160a01b031660008181527fad3228b676f7d3cd4284a5443f17f1962b36e491b30a40b2405849e597ba5fb5602052604081205490919060ff166200015f57818052816020526040822081835260205260408220600160ff1982541617905533917f2f8788117e7eff1d82e926ec794901d17c78024a50270940304540a733656f0d8180a4600190565b509056fe608080604052600436101561001357600080fd5b600090813560e01c90816301ffc9a714611eac5750806307e2cea514611e8357806308a5f0c314611e675780630967f68d14611e385780630dc92c1414611e16578063111772c914611d2557806315c05ea514611cce578063248a9ca314611ca25780632f2ff15d14611c6557806336568abe14611c1d5780634162367114611b135780634430db7e14611aea57806345f1913114611aa15780634f5fa74714611aa657806354203e0914611aa15780635b8200b114611a565780636597ea9a1461178757806367d902e1146115e45780636d2eea6e146115c65780636fb4f6271461159d57806370f54e05146113ea57806373b4cb0c1461139d57806373e8a0381461125d5780637ea0ab1914610e6e57806380a1f71214610dec5780638472db0214610c9f5780638dc04bd014610a6557806391d1485414610a1a5780639249b274146109ca5780639265568e14610977578063a217fddf1461095b578063b9e7418f1461093c578063bc01e75914610865578063bc1a8e0014610820578063c5f0d9a0146107e3578063cc1ec5e1146107c0578063d547741f1461077f578063e1f1c4a714610762578063e4e9a7e014610733578063ed7466f514610550578063ef65cd6314610527578063f1ddb03714610446578063f2e24cdb14610428578063f4a7f4931461040a578063f5215945146103b45763fbddbf2b1461021b57600080fd5b346103b15760803660031901126103b1573360009081527f3d345f69ce4cd4ee7817c30d36840ea4a12745339502018b706b68a4dd792961602090815260409091205490919060043590600080516020612d0a8339815191529060ff16156103935750610289600854612297565b91826008556040519061029b826122bc565b838252848201600181526040830184815260608401338152608085019142835260a086019385855260c087019580875289815260048b52604081209751885560018801915190600282101561037f5750815460ff191660ff91909116179055516002860155516003850180546001600160a01b039092166001600160a01b0319909216919091179055516004840155516006919061033e901515600585016120cb565b5191015561034b8261238c565b817fa5dc1740d9552b9589bea37009969de6f2d6594fa5cbe659748b282b3e96b20f846040516044358152a3604051908152f35b634e487b7160e01b81526021600452602490fd5b6044906040519063e2517d3f60e01b82523360048301526024820152fd5b80fd5b50346103b15760203660031901126103b15760043590818152600660205260ff604082205416156103f8576040816020936006935260038452200154604051908152f35b60405163038ef5b160e21b8152600490fd5b50346103b157806003193601126103b1576020600954604051908152f35b50346103b157806003193601126103b157602060405162278d008152f35b50346103b15760403660031901126103b1576001600160401b0360043581811161052357610478903690600401611f5b565b602492833590811161051f57610492903690600401611f5b565b93909161049d61206d565b84810361050d57855b8181106104b1578680f35b6104bc818387612413565b3590868110156104fa578060051b85013561015e19863603018112156104f6576104f1926104ec91870190612671565b612297565b6104a6565b8880fd5b634e487b7160e01b885260326004528388fd5b60405163512509d360e11b8152600490fd5b8480fd5b8280fd5b50346103b15760203660031901126103b1576020610546600435612b01565b6040519015158152f35b50346103b15760203660031901126103b157600435908061018060405161057681612300565b8281528260208201528260408201528260608201528260808201528260a08201528260c08201528260e082015282610100820152826101208201526060610140820152826101608201520152818152600660205260ff604082205416156103f8576040918152600360205220600b604051916105f183612300565b8054835260018101546020840152600281015460408401526003810154606084015260048101546080840152600581015460a0840152600681015460c0840152600781015460e084015260ff60088201546106528282166101008701612476565b60081c16151561012084015261066a60098201612a5d565b610140840152600a810154610160840152015461018082015260405180916020825280516020830152602081015160408301526040810151606083015260608101516080830152608081015160a083015260a081015160c083015260c081015160e083015260e08101516101008301526106ee610100820151610120840190611f4e565b610120810151151561014083015261014081015161018061071e6101a092836101608701526101c0860190611ff3565b92610160810151828601520151908301520390f35b50346103b15760203660031901126103b15760ff60406020926004358152600584522054166040519015158152f35b50346103b157806003193601126103b15760206040516127108152f35b50346103b15760403660031901126103b1576107bc60043561079f611f1c565b90808452836020526107b760016040862001546120a5565b612234565b5080f35b50346103b15760203660031901126103b1576107da612033565b60043560095580f35b50346103b15760203660031901126103b157600435610800612033565b6064811161080e57600a5580f35b604051633968255d60e11b8152600490fd5b50346103b15760203660031901126103b15761083a611f01565b610842612033565b600180546001600160a01b0319166001600160a01b039290921691909117905580f35b50346103b15760403660031901126103b1576004356024356001600160401b03811161052357610899903690600401611fc6565b600080516020612d6a83398151915284526020918483526040852033600052835260ff60406000205416158061091c575b61051f578385526005835260ff604086205416156103f8576002600080516020612cea8339815191529385875252600a604086200160ff19815416905561091660405192839283612a35565b0390a280f35b508480528483526040852033600052835260ff60406000205416156108ca565b50346103b15760203660031901126103b1576020610546600435612ba4565b50346103b157806003193601126103b157602090604051908152f35b50346103b15760403660031901126103b15760043590818152600660205260ff604082205416156103f8576109c160066040836020956127109552600386522001546024356125b8565b04604051908152f35b50346103b157600319604036820112610a1657602435906001600160401b03821161052357610160908236030112610a1657610a1390610a0861206d565b600401600435612671565b80f35b5080fd5b50346103b15760403660031901126103b1576040610a36611f1c565b91600435815280602052209060018060a01b0316600052602052602060ff604060002054166040519015158152f35b50346103b15760203660031901126103b15760043581610140604051610a8a8161231c565b8281528260208201528260408201528260608201528260808201528260a08201528260c0820152606060e082015282610100820152826101208201520152808252600560205260ff604083205416156103f85781526002602052604081209060405191610af68361231c565b8054835260018101546020840152600281015460408401526003810154606084015260048101546080840152600581015460a0840152610b4060ff60068301541660c08501612476565b600781018054610b4f816123ca565b91610b5d6040519384612338565b81835284526020808520859184015b838310610c8257878760ff600a898960e08601526008810154610100860152600981015461012086015201541615156101408301526040519060208252610180820183516020840152602084015160408401526040840151606084015260608401516080840152608084015160a084015260a084015160c0840152610bf960c085015160e0850190611f4e565b60e084015191610160918261010086015283518091526101a06020818701918360051b880101950192905b828210610c56575050505061014084610100859601516101208601526101208101518286015201511515908301520390f35b90919294602080610c7460019361019f198b82030186528951611ff3565b970192019201909291610c24565b600160208192610c9185612a5d565b815201920192019190610b6c565b50346103b157602080600319360112610a165760043560029182821015928361051f576007549285805b858110610d7f5750610cda906123e1565b948692875b868110610cf85760405180610cf48a82611f8b565b0390f35b610d018161235b565b9054600391821b1c8a526004875260408a206001015460ff1684610d6b5783811015610d6b578514610d3d575b50610d3890612297565b610cdf565b8195610d6491610d4f610d389461235b565b9054911b1c610d5e828c612423565b52612297565b9490610d2e565b634e487b7160e01b8b52602160045260248bfd5b610d888161235b565b90549060031b1c8852600485528660ff600160408b2001541690610dd85784811015610dd8578314610dc3575b610dbe90612297565b610cc9565b90610dd0610dbe91612297565b919050610db5565b634e487b7160e01b89526021600452602489fd5b50346103b157806003193601126103b157604051600780548083529083526020808301937fa66cc928b5edb82af9bd49922954155ab7b0942694bea4ce44661d9a8736c68892915b828210610e5757610cf485610e4b81890382612338565b60405191829182611f8b565b835486529485019460019384019390910190610e34565b50346103b157600319604036820112610a16576001600160401b0360243511610a16576101a090602435360301126103b157610ea861206d565b600435815260046020526040812080541561124b5760ff600582015416611239576064608460243501351161121557606461016460243501351161080e57600a54610164602435013510611227576127108060c46024350135116112155760a460243501351161121557600461010460243501351015610a1657610f3161012460243501612437565b9060243560040191610fc8610f4c6101446024350185612444565b60405193610f5985612300565b863585526024803590810135602087015260448101356040870152606481013560608701526084810135608087015260a481013560a087015260c481013560c087015260e481013560e0870152610fb99061010401356101008701612476565b15156101208501523691612482565b6101408201526101646024350135610160820152426101808201528235845260036020526040842090805182556020810151600183015560408101516002830155606081015160038301556080810151600483015560a0810151600583015560c0810151600683015560e081015160078301556008820161010082015160048110156112015761105890826124c8565b610120820151815461ff00191690151560081b61ff0016179055610140810151805160098401916001600160401b0382116111ed576110a18261109b85546124e0565b85612531565b602090601f83116001146111825791806101809492600b96948b92611177575b50508160011b916000199060031b1c19161790555b610160810151600a850155015191015581358352600660205260016040842060ff1990828282541617905560058301541617600582015560064291015561111e600435612c1e565b61112d61012460243501612437565b90604051911515825261114a602083016101046024350135611f4e565b35907fd1097cf693cf9c4f1ff9a5fa4ce24dab05a397a0f23d0829b04304b2d54a241d604060043592a380f35b0151905038806110c1565b838952602089209190601f1984168a5b8181106111d55750926001928592600b98966101809896106111bc575b505050811b0190556110d6565b015160001960f88460031b161c191690553880806111af565b92936020600181928786015181550195019301611192565b634e487b7160e01b88526041600452602488fd5b634e487b7160e01b87526021600452602487fd5b6040516330cdce3160e21b8152600490fd5b6040516315f0caef60e31b8152600490fd5b60405163533d99dd60e01b8152600490fd5b604051632589d98f60e11b8152600490fd5b50346103b157602080600319360112610a16576004358260c0604051611282816122bc565b82815282858201528260408201528260608201528260808201528260a082015201528083526004825260408320541561124b578252600481526040822090604051916112cd836122bc565b8054835260ff6001820154169180840192600281101561138757835260028201546040850190815260018060a01b039081600385015416906060870191825260048501549360808801948552600660ff6005880154169660a08a01971515885201549660c0890197885260405198518952519060028210156113735760e099508801525160408701525116606085015251608084015251151560a08301525160c0820152f35b634e487b7160e01b8a52602160045260248afd5b634e487b7160e01b600052602160045260246000fd5b50346103b15760203660031901126103b157600435808252600560205260ff604083205416156103f857600660408360ff936020955260028552200154166113e86040518092611f4e565bf35b50346103b15760403660031901126103b1576001600160401b039060043560243583811161052357611420903690600401611fc6565b90600080516020612d6a83398151915284526020948486526040852033600052865260ff60406000205416158061157d575b61051f578385526006865260ff604086205416156103f857838552600386526040852060088101805461ff0019169055600901908311611569576114a08361149a83546124e0565b83612531565b8495601f84116001146114f65750828596600080516020612cea8339815191529596916114eb575b508360011b906000198560031b1c19161790555b61091660405192839283612a35565b9050820135386114c8565b601f198416968287528187209187905b89821061155157505084600080516020612cea83398151915296979810611537575b5050600183811b0190556114dc565b830135600019600386901b60f8161c191690553880611528565b80600184958294958901358155019401920190611506565b634e487b7160e01b85526041600452602485fd5b508480528486526040852033600052865260ff6040600020541615611452565b50346103b157806003193601126103b1576001546040516001600160a01b039091168152602090f35b50346103b157806003193601126103b1576020600a54604051908152f35b50346103b157602090816003193601126103b1576004356001600160401b038111610a1657611617903690600401611f5b565b92611621846123e1565b92805b8581106116395760405180610cf48782611f8b565b611644818786612413565b35156117755760086116568154612297565b809155611664828887612413565b3560405190611672826122bc565b8282528582018581526040830191825260608301338152608084019042825260a085019288845260c0860194898652878a5260048b5260408a2096518755600187019151916002928381101561176157815460ff191660ff919091161790555190860155516003850180546001600160a01b039092166001600160a01b03199092169190911790555160048401555161175c9493929160069161171a901515600585016120cb565b519101556117278161238c565b806117328389612423565b5261173e828988612413565b3590600080516020612d2a83398151915286604051338152a3612297565b611624565b634e487b7160e01b8c52602160045260248cfd5b60405163981d30c560e01b8152600490fd5b50346103b157600319604036820112610a16576001600160401b0360243511610a165761016090602435360301126103b1576117c161206d565b6004358152600560205260ff604082205416156103f8576117e6602435600401612bd1565b600435815260026020526040812090600182019182549261180960095442612576565b90602480350135905560446024350135600283015560646024350135600383015560846024350135600483015560a460243501356005830155600460c4602435013510156105235761186460c46024350135600684016124c8565b61187860e460243501602435600401612583565b600784019161188782846125cb565b918552602085208592805b83851061195e578888600a8989426008830155600982015501600160ff1982541617905560018060a01b0360015416803b15610a1657816040518092632a5aa26560e21b82528183816118f7604460243501356024803501356004356004850161265b565b03925af1801561195357611944575b509060405190815260248035013560208201527f9ad8d44fae90584b57e9553ace701dcd6f991fbb66eb01c7c6ad22686c3aba21604060043592a280f35b61194d906122ed565b82611906565b6040513d84823e3d90fd5b6119688183612444565b906001600160401b038211611a425761198b8261198587546124e0565b87612531565b89908a601f84116001146119d5579280602093600196938796926119ca575b5050600019600383901b1c191690841b1786555b01930194019391611892565b0135905038806119aa565b86905260208b20918b5b601f1985168110611a2a575083602093600196938796938794601f19811610611a10575b505050811b0186556119be565b0135600019600384901b60f8161c19169055388080611a03565b909260206001819286860135815501940191016119df565b634e487b7160e01b8a52604160045260248afd5b50346103b15760203660031901126103b157600435808252600660205260ff604083205416156103f857600860408360ff936020955260038552200154166113e86040518092611f4e565b611f32565b50346103b15760203660031901126103b15760043590818152600660205260ff604082205416156103f8576040816020936007935260038452200154604051908152f35b50346103b157806003193601126103b1576020604051600080516020612d0a8339815191528152f35b50346103b15760203660031901126103b157600435801561177557611b39600854612297565b9081600855604051611b4a816122bc565b828152602081018481526040820183815260608301338152608084019142835260a085019388855260c0860198808a528881526004602052604081209651875560018701915190600282101561037f5750815460ff191660ff91909116179055516002850155516003840180546001600160a01b039092166001600160a01b031990921691909117905551600483015551602094600691611bf0901515600585016120cb565b51910155611bfd8261238c565b81600080516020612d2a83398151915284604051338152a3604051908152f35b50346103b15760403660031901126103b157611c37611f1c565b336001600160a01b03821603611c53576107bc90600435612234565b60405163334bd91960e11b8152600490fd5b50346103b15760403660031901126103b1576107bc600435611c85611f1c565b9080845283602052611c9d60016040862001546120a5565b612158565b50346103b15760203660031901126103b157600160406020926004358152808452200154604051908152f35b50346103b15760603660031901126103b15760043590818152600660205260ff604082205416156103f8576109c160076040836020956237b1d0955260038652200154611d20604435916024356125b8565b6125b8565b50346103b15760403660031901126103b157611d3f611f01565b602435801515810361052357611d53612033565b15611db757600080516020612d6a833981519152825281602052611d7d60016040842001546120a5565b611d86816120dc565b506001600160a01b03167f5a7a3f71a35f5e2589980d29d1c6d8c75e39657751190874081e55208bae24b78280a280f35b600080516020612d6a833981519152825281602052611ddc60016040842001546120a5565b611de5816121bf565b506001600160a01b03167f3c9c4af7c4c66de2ffc68abfa4e0d275fbce92f248473bca0d6787dc8caf8e318280a280f35b50346103b15760403660031901126103b1576020610546602435600435612b44565b50346103b15760203660031901126103b15760ff60406020926004358152600684522054166040519015158152f35b50346103b157806003193601126103b1576020604051603c8152f35b50346103b157806003193601126103b1576020604051600080516020612d6a8339815191528152f35b905034610a16576020366003190112610a165760043563ffffffff60e01b81168091036105235760209250637965db0b60e01b8114908115611ef0575b5015158152f35b6301ffc9a760e01b14905038611ee9565b600435906001600160a01b0382168203611f1757565b600080fd5b602435906001600160a01b0382168203611f1757565b34611f17576000366003190112611f1757602060405160648152f35b9060048210156113875752565b9181601f84011215611f17578235916001600160401b038311611f17576020808501948460051b010111611f1757565b6020908160408183019282815285518094520193019160005b828110611fb2575050505090565b835185529381019392810192600101611fa4565b9181601f84011215611f17578235916001600160401b038311611f175760208381860195010111611f1757565b919082519283825260005b84811061201f575050826000602080949584010152601f8019910116010190565b602081830181015184830182015201611ffe565b3360009081527fad3228b676f7d3cd4284a5443f17f1962b36e491b30a40b2405849e597ba5fb5602052604081205460ff16156103935750565b336000908152600080516020612d4a8339815191526020526040902054600080516020612d6a8339815191529060ff16156103935750565b80600052600060205260406000203360005260205260ff60406000205416156103935750565b9060ff801983541691151516179055565b6001600160a01b03166000818152600080516020612d4a8339815191526020526040812054909190600080516020612d6a8339815191529060ff1661215357808352826020526040832082845260205260408320600160ff19825416179055600080516020612cca833981519152339380a4600190565b505090565b9060009180835282602052604083209160018060a01b03169182845260205260ff6040842054161560001461215357808352826020526040832082845260205260408320600160ff19825416179055600080516020612cca833981519152339380a4600190565b6001600160a01b03166000818152600080516020612d4a8339815191526020526040812054909190600080516020612d6a8339815191529060ff16156121535780835282602052604083208284526020526040832060ff198154169055600080516020612d8a833981519152339380a4600190565b9060009180835282602052604083209160018060a01b03169182845260205260ff6040842054166000146121535780835282602052604083208284526020526040832060ff198154169055600080516020612d8a833981519152339380a4600190565b60001981146122a65760010190565b634e487b7160e01b600052601160045260246000fd5b60e081019081106001600160401b038211176122d757604052565b634e487b7160e01b600052604160045260246000fd5b6001600160401b0381116122d757604052565b6101a081019081106001600160401b038211176122d757604052565b61016081019081106001600160401b038211176122d757604052565b601f909101601f19168101906001600160401b038211908210176122d757604052565b60075481101561237657600760005260206000200190600090565b634e487b7160e01b600052603260045260246000fd5b60075490600160401b8210156122d7576123af8260016123c8940160075561235b565b90919082549060031b91821b91600019901b1916179055565b565b6001600160401b0381116122d75760051b60200190565b906123eb826123ca565b6123f86040519182612338565b8281528092612409601f19916123ca565b0190602036910137565b91908110156123765760051b0190565b80518210156123765760209160051b010190565b358015158103611f175790565b903590601e1981360301821215611f1757018035906001600160401b038211611f1757602001918136038313611f1757565b60048210156113875752565b9192916001600160401b0382116122d757604051916124ab601f8201601f191660200184612338565b829481845281830111611f17578281602093846000960137010152565b9060048110156113875760ff80198354169116179055565b90600182811c92168015612510575b60208310146124fa57565b634e487b7160e01b600052602260045260246000fd5b91607f16916124ef565b818110612525575050565b6000815560010161251a565b9190601f811161254057505050565b6123c8926000526020600020906020601f840160051c8301931061256c575b601f0160051c019061251a565b909150819061255f565b919082018092116122a657565b903590601e1981360301821215611f1757018035906001600160401b038211611f1757602001918160051b36038313611f1757565b818102929181159184041417156122a657565b600160401b82116122d7578054918082558281106125e857505050565b600091825260209081832093840193015b8381106126065750505050565b8083612614600193546124e0565b80612622575b5050016125f9565b601f808211851461263957505081555b833861261a565b61265290848452868420920160051c820185830161251a565b81835555612632565b6040919493926060820195825260208201520152565b806000526004602052604060002080541561124b5760ff6005820154166112395761269b83612bd1565b6126a760095442612576565b600460c08501351015611f17576126c160e0850185612583565b60405192916126cf8461231c565b863584526020870135602085015260408701356040850152606087013560608501526080870135608085015260a087013560a085015261271660c088013560c08601612476565b61271f826123ca565b9161272d6040519384612338565b80835260208301368260051b840111611f175782905b8260051b840182106129f6575050505060e083015242610100830152610120820152600161014082015283356000526002602052604060002090805182556020810151600183015560408101516002830155606081015160038301556080810151600483015560a0810151600583015560c08101516004811015611387576127ce90600684016124c8565b6007820160e082015160208151916127e683856125cb565b01916000526020600020916000905b828210612913575050505090600a6101408361010061282b950151600885015561012081015160098501550151151591016120cb565b82356000526005602052604060002060ff199060018282541617905560018060a01b036001541690813b15611f175760006040518093632a5aa26560e21b825281838161288660408c013560208d01358d356004850161265b565b03925af1918215612907576001926128f8575b506005830154161760058201556006429101556128b581612c1e565b7fdba3aeef1e1fe9b7ff571604ea0fa8eb977e0c5c2613351191d745a2c335596b6040805193602081013585526128f36020860160c0830135611f4e565b3593a3565b612901906122ed565b38612899565b6040513d6000823e3d90fd5b80518051906001600160401b0382116122d75761293a8261293488546124e0565b88612531565b602090601f831160011461298657928260019493602093869560009261297b575b5050600019600383901b1c191690841b1787555b019401910190926127f5565b01519050388061295b565b908660005260206000209160005b601f19851681106129de575083602093600196938796938794601f198116106129c5575b505050811b01875561296f565b015160001960f88460031b161c191690553880806129b8565b91926020600181928685015181550194019201612994565b81356001600160401b038111611f175736601f828701011215611f17576020918291612a2a90369088018035908501612482565b815201910190612743565b90918060409360208452816020850152848401376000828201840152601f01601f1916010190565b9060405191826000825492612a71846124e0565b908184526001948581169081600014612ade5750600114612a9b575b50506123c892500383612338565b9093915060005260209081600020936000915b818310612ac65750506123c893508201013880612a8d565b85548884018501529485019487945091830191612aae565b9150506123c894506020925060ff191682840152151560051b8201013880612a8d565b600052600560205260ff6040600020541615612b3f576002602052604060002060ff600a820154169081612b33575090565b60099150015442111590565b600090565b6000908152600560205260ff60408220541615612b9f5760026020526040812060ff600a8201541615612b995760080154420390428211612b855750111590565b634e487b7160e01b81526011600452602490fd5b50905090565b905090565b600052600660205260ff6040600020541615612b3f57600360205260ff60086040600020015460081c1690565b6064602082013511612c0c5760a08101356064811161080e57600a541161122757612710908160808201351161121557606001351161121557565b6040516301069b4760e21b8152600490fd5b60079081549160005b838110612c35575b50505050565b82612c3f8261235b565b919054600392831b1c14612c5c5750612c5790612297565b612c27565b9391925060001991828101919082116122a6576123af612c7e612c8a9361235b565b905490871b1c9161235b565b81548015612cb357810192612c9e8461235b565b81939154921b1b191690555538808080612c2f565b634e487b7160e01b600052603160045260246000fdfe2f8788117e7eff1d82e926ec794901d17c78024a50270940304540a733656f0d2d55c4039ad2b34a93b56c238da48f1fab56c9a523db9670cfe2a3dded1081dd61a3517f153a09154844ed8be639dabc6e78dc22315c2d9a91f7eddf9398c0023b44b9ed3c3078a5a50018e59e0906338320d23fba591cb266ce8857853a766ba629f6981c2f6895a67dc766e8e03ff72d04a413d0d8773a3ca56e9e474032c168e79a7bf1e0bc45d0a330c573bc367f9cf464fd326078812f301165fbda4ef1f6391f5c32d9c69d2a47ea670b442974b53935d1edc7fd64eb21e047a839171ba26469706673582212204303de263a699bd0b5148bf7c869c23b92dc735f48ea642935f1c5dcf7f6351164736f6c63430008140033","linkReferences":{}},"methodIdentifiers":{"BASIS_POINTS()":"e1f1c4a7","DEFAULT_ADMIN_ROLE()":"a217fddf","DEFAULT_VALIDITY_PERIOD()":"f2e24cdb","MAX_CREDIT_SCORE()":"54203e09","MAX_RISK_SCORE()":"45f19131","MIN_CONFIDENCE_SCORE()":"08a5f0c3","ORACLE_ROLE()":"07e2cea5","REQUESTER_ROLE()":"4430db7e","assessmentValidityPeriod()":"f4a7f493","buyerRegistry()":"6fb4f627","calculateAdvanceAmount(uint256,uint256)":"9265568e","calculateExpectedYield(uint256,uint256,uint256)":"15c05ea5","getAssessmentRequest(uint256)":"73e8a038","getBuyerAssessment(bytes32)":"8dc04bd0","getBuyerRiskTier(bytes32)":"73b4cb0c","getInvoiceAssessment(uint256)":"ed7466f5","getInvoiceRiskTier(uint256)":"5b8200b1","getPendingRequests()":"80a1f712","getPendingRequestsByType(uint8)":"8472db02","getRecommendedAdvanceRate(uint256)":"f5215945","getRecommendedInterestRate(uint256)":"4f5fa747","getRoleAdmin(bytes32)":"248a9ca3","grantRole(bytes32,address)":"2f2ff15d","hasBuyerAssessment(bytes32)":"e4e9a7e0","hasInvoiceAssessment(uint256)":"0967f68d","hasRole(bytes32,address)":"91d14854","invalidateBuyerAssessment(bytes32,string)":"bc01e759","invalidateInvoiceAssessment(uint256,string)":"70f54e05","isBuyerAssessmentFresh(bytes32,uint256)":"0dc92c14","isBuyerAssessmentValid(bytes32)":"ef65cd63","isInvoiceApproved(uint256)":"b9e7418f","minConfidenceScore()":"6d2eea6e","renounceRole(bytes32,address)":"36568abe","requestBatchAssessment(bytes32[])":"67d902e1","requestBuyerAssessment(bytes32)":"41623671","requestInvoiceAssessment(uint256,bytes32,bytes32,uint256)":"fbddbf2b","revokeRole(bytes32,address)":"d547741f","setAssessmentValidityPeriod(uint256)":"cc1ec5e1","setBuyerRegistryAddress(address)":"bc1a8e00","setMinConfidenceScore(uint256)":"c5f0d9a0","setOracleAddress(address,bool)":"111772c9","submitBatchBuyerAssessments(uint256[],(bytes32,uint256,uint256,uint256,uint256,uint256,uint8,string[],uint256,uint256,bool)[])":"f1ddb037","submitBuyerAssessment(uint256,(bytes32,uint256,uint256,uint256,uint256,uint256,uint8,string[],uint256,uint256,bool))":"9249b274","submitInvoiceAssessment(uint256,(uint256,bytes32,bytes32,uint256,uint256,uint256,uint256,uint256,uint8,bool,string,uint256,uint256))":"7ea0ab19","supportsInterface(bytes4)":"01ffc9a7","updateBuyerAssessment(bytes32,(bytes32,uint256,uint256,uint256,uint256,uint256,uint8,string[],uint256,uint256,bool))":"6597ea9a"},"id":56}