{"abi":[{"type":"constructor","inputs":[{"name":"_buyerRegistry","type":"address","internalType":"address"},{"name":"_admin","type":"address","internalType":"address"}],"stateMutability":"nonpayable"},{"type":"function","name":"BASIS_POINTS","inputs":[],"outputs":[{"name":"","type":"uint256","internalType":"uint256"}],"stateMutability":"view"},{"type":"function","name":"DEFAULT_ADMIN_ROLE","inputs":[],"outputs":[{"name":"","type":"bytes32","internalType":"bytes32"}],"stateMutability":"view"},{"type":"function","name":"DEFAULT_VALIDITY_PERIOD","inputs":[],"outputs":[{"name":"","type":"uint256","internalType":"uint256"}],"stateMutability":"view"},{"type":"function","name":"MAX_CREDIT_SCORE","inputs":[],"outputs":[{"name":"","type":"uint256","internalType":"uint256"}],"stateMutability":"view"},{"type":"function","name":"MAX_RISK_SCORE","inputs":[],"outputs":[{"name":"","type":"uint256","internalType":"uint256"}],"stateMutability":"view"},{"type":"function","name":"MIN_CONFIDENCE_SCORE","inputs":[],"outputs":[{"name":"","type":"uint256","internalType":"uint256"}],"stateMutability":"view"},{"type":"function","name":"ORACLE_ROLE","inputs":[],"outputs":[{"name":"","type":"bytes32","internalType":"bytes32"}],"stateMutability":"view"},{"type":"function","name":"REQUESTER_ROLE","inputs":[],"outputs":[{"name":"","type":"bytes32","internalType":"bytes32"}],"stateMutability":"view"},{"type":"function","name":"assessmentValidityPeriod","inputs":[],"outputs":[{"name":"","type":"uint256","internalType":"uint256"}],"stateMutability":"view"},{"type":"function","name":"buyerRegistry","inputs":[],"outputs":[{"name":"","type":"address","internalType":"contract IBuyerRegistry"}],"stateMutability":"view"},{"type":"function","name":"calculateAdvanceAmount","inputs":[{"name":"invoiceId","type":"uint256","internalType":"uint256"},{"name":"faceValue","type":"uint256","internalType":"uint256"}],"outputs":[{"name":"","type":"uint256","internalType":"uint256"}],"stateMutability":"view"},{"type":"function","name":"calculateExpectedYield","inputs":[{"name":"invoiceId","type":"uint256","internalType":"uint256"},{"name":"advanceAmount","type":"uint256","internalType":"uint256"},{"name":"daysToMaturity","type":"uint256","internalType":"uint256"}],"outputs":[{"name":"","type":"uint256","internalType":"uint256"}],"stateMutability":"view"},{"type":"function","name":"getAssessmentRequest","inputs":[{"name":"requestId","type":"uint256","internalType":"uint256"}],"outputs":[{"name":"","type":"tuple","internalType":"struct CreditOracle.AssessmentRequest","components":[{"name":"requestId","type":"uint256","internalType":"uint256"},{"name":"requestType","type":"uint8","internalType":"enum CreditOracle.RequestType"},{"name":"subjectHash","type":"bytes32","internalType":"bytes32"},{"name":"requester","type":"address","internalType":"address"},{"name":"requestedAt","type":"uint256","internalType":"uint256"},{"name":"fulfilled","type":"bool","internalType":"bool"},{"name":"fulfilledAt","type":"uint256","internalType":"uint256"}]}],"stateMutability":"view"},{"type":"function","name":"getBuyerAssessment","inputs":[{"name":"buyerHash","type":"bytes32","internalType":"bytes32"}],"outputs":[{"name":"","type":"tuple","internalType":"struct CreditOracle.BuyerAssessment","components":[{"name":"buyerHash","type":"bytes32","internalType":"bytes32"},{"name":"creditScore","type":"uint256","internalType":"uint256"},{"name":"creditLimit","type":"uint256","internalType":"uint256"},{"name":"defaultProbability","type":"uint256","internalType":"uint256"},{"name":"recommendedAdvanceRate","type":"uint256","internalType":"uint256"},{"name":"confidenceScore","type":"uint256","internalType":"uint256"},{"name":"assignedTier","type":"uint8","internalType":"enum CreditOracle.RiskTier"},{"name":"riskFactors","type":"string[]","internalType":"string[]"},{"name":"assessedAt","type":"uint256","internalType":"uint256"},{"name":"validUntil","type":"uint256","internalType":"uint256"},{"name":"isValid","type":"bool","internalType":"bool"}]}],"stateMutability":"view"},{"type":"function","name":"getBuyerRiskTier","inputs":[{"name":"buyerHash","type":"bytes32","internalType":"bytes32"}],"outputs":[{"name":"","type":"uint8","internalType":"enum CreditOracle.RiskTier"}],"stateMutability":"view"},{"type":"function","name":"getInvoiceAssessment","inputs":[{"name":"invoiceId","type":"uint256","internalType":"uint256"}],"outputs":[{"name":"","type":"tuple","internalType":"struct CreditOracle.InvoiceAssessment","components":[{"name":"invoiceId","type":"uint256","internalType":"uint256"},{"name":"sellerHash","type":"bytes32","internalType":"bytes32"},{"name":"buyerHash","type":"bytes32","internalType":"bytes32"},{"name":"invoiceAmount","type":"uint256","internalType":"uint256"},{"name":"riskScore","type":"uint256","internalType":"uint256"},{"name":"fraudProbability","type":"uint256","internalType":"uint256"},{"name":"recommendedAdvanceRate","type":"uint256","internalType":"uint256"},{"name":"recommendedInterestRate","type":"uint256","internalType":"uint256"},{"name":"assignedTier","type":"uint8","internalType":"enum CreditOracle.RiskTier"},{"name":"approved","type":"bool","internalType":"bool"},{"name":"rejectionReason","type":"string","internalType":"string"},{"name":"confidenceScore","type":"uint256","internalType":"uint256"},{"name":"assessedAt","type":"uint256","internalType":"uint256"}]}],"stateMutability":"view"},{"type":"function","name":"getInvoiceRiskTier","inputs":[{"name":"invoiceId","type":"uint256","internalType":"uint256"}],"outputs":[{"name":"","type":"uint8","internalType":"enum CreditOracle.RiskTier"}],"stateMutability":"view"},{"type":"function","name":"getPendingRequests","inputs":[],"outputs":[{"name":"","type":"uint256[]","internalType":"uint256[]"}],"stateMutability":"view"},{"type":"function","name":"getPendingRequestsByType","inputs":[{"name":"requestType","type":"uint8","internalType":"enum CreditOracle.RequestType"}],"outputs":[{"name":"","type":"uint256[]","internalType":"uint256[]"}],"stateMutability":"view"},{"type":"function","name":"getRecommendedAdvanceRate","inputs":[{"name":"invoiceId","type":"uint256","internalType":"uint256"}],"outputs":[{"name":"","type":"uint256","internalType":"uint256"}],"stateMutability":"view"},{"type":"function","name":"getRecommendedInterestRate","inputs":[{"name":"invoiceId","type":"uint256","internalType":"uint256"}],"outputs":[{"name":"","type":"uint256","internalType":"uint256"}],"stateMutability":"view"},{"type":"function","name":"getRoleAdmin","inputs":[{"name":"role","type":"bytes32","internalType":"bytes32"}],"outputs":[{"name":"","type":"bytes32","internalType":"bytes32"}],"stateMutability":"view"},{"type":"function","name":"grantRole","inputs":[{"name":"role","type":"bytes32","internalType":"bytes32"},{"name":"account","type":"address","internalType":"address"}],"outputs":[],"stateMutability":"nonpayable"},{"type":"function","name":"hasBuyerAssessment","inputs":[{"name":"buyerHash","type":"bytes32","internalType":"bytes32"}],"outputs":[{"name":"","type":"bool","internalType":"bool"}],"stateMutability":"view"},{"type":"function","name":"hasInvoiceAssessment","inputs":[{"name":"invoiceId","type":"uint256","internalType":"uint256"}],"outputs":[{"name":"","type":"bool","internalType":"bool"}],"stateMutability":"view"},{"type":"function","name":"hasRole","inputs":[{"name":"role","type":"bytes32","internalType":"bytes32"},{"name":"account","type":"address","internalType":"address"}],"outputs":[{"name":"","type":"bool","internalType":"bool"}],"stateMutability":"view"},{"type":"function","name":"invalidateBuyerAssessment","inputs":[{"name":"buyerHash","type":"bytes32","internalType":"bytes32"},{"name":"reason","type":"string","internalType":"string"}],"outputs":[],"stateMutability":"nonpayable"},{"type":"function","name":"invalidateInvoiceAssessment","inputs":[{"name":"invoiceId","type":"uint256","internalType":"uint256"},{"name":"reason","type":"string","internalType":"string"}],"outputs":[],"stateMutability":"nonpayable"},{"type":"function","name":"isBuyerAssessmentFresh","inputs":[{"name":"buyerHash","type":"bytes32","internalType":"bytes32"},{"name":"maxAgeSeconds","type":"uint256","internalType":"uint256"}],"outputs":[{"name":"","type":"bool","internalType":"bool"}],"stateMutability":"view"},{"type":"function","name":"isBuyerAssessmentValid","inputs":[{"name":"buyerHash","type":"bytes32","internalType":"bytes32"}],"outputs":[{"name":"","type":"bool","internalType":"bool"}],"stateMutability":"view"},{"type":"function","name":"isInvoiceApproved","inputs":[{"name":"invoiceId","type":"uint256","internalType":"uint256"}],"outputs":[{"name":"","type":"bool","internalType":"bool"}],"stateMutability":"view"},{"type":"function","name":"minConfidenceScore","inputs":[],"outputs":[{"name":"","type":"uint256","internalType":"uint256"}],"stateMutability":"view"},{"type":"function","name":"renounceRole","inputs":[{"name":"role","type":"bytes32","internalType":"bytes32"},{"name":"callerConfirmation","type":"address","internalType":"address"}],"outputs":[],"stateMutability":"nonpayable"},{"type":"function","name":"requestBatchAssessment","inputs":[{"name":"buyerHashes","type":"bytes32[]","internalType":"bytes32[]"}],"outputs":[{"name":"requestIds","type":"uint256[]","internalType":"uint256[]"}],"stateMutability":"nonpayable"},{"type":"function","name":"requestBuyerAssessment","inputs":[{"name":"buyerHash","type":"bytes32","internalType":"bytes32"}],"outputs":[{"name":"requestId","type":"uint256","internalType":"uint256"}],"stateMutability":"nonpayable"},{"type":"function","name":"requestInvoiceAssessment","inputs":[{"name":"invoiceId","type":"uint256","internalType":"uint256"},{"name":"sellerHash","type":"bytes32","internalType":"bytes32"},{"name":"buyerHash","type":"bytes32","internalType":"bytes32"},{"name":"amount","type":"uint256","internalType":"uint256"}],"outputs":[{"name":"requestId","type":"uint256","internalType":"uint256"}],"stateMutability":"nonpayable"},{"type":"function","name":"revokeRole","inputs":[{"name":"role","type":"bytes32","internalType":"bytes32"},{"name":"account","type":"address","internalType":"address"}],"outputs":[],"stateMutability":"nonpayable"},{"type":"function","name":"setAssessmentValidityPeriod","inputs":[{"name":"seconds_","type":"uint256","internalType":"uint256"}],"outputs":[],"stateMutability":"nonpayable"},{"type":"function","name":"setBuyerRegistryAddress","inputs":[{"name":"buyerRegistry_","type":"address","internalType":"address"}],"outputs":[],"stateMutability":"nonpayable"},{"type":"function","name":"setMinConfidenceScore","inputs":[{"name":"minScore","type":"uint256","internalType":"uint256"}],"outputs":[],"stateMutability":"nonpayable"},{"type":"function","name":"setOracleAddress","inputs":[{"name":"oracle","type":"address","internalType":"address"},{"name":"authorized","type":"bool","internalType":"bool"}],"outputs":[],"stateMutability":"nonpayable"},{"type":"function","name":"submitBatchBuyerAssessments","inputs":[{"name":"requestIds","type":"uint256[]","internalType":"uint256[]"},{"name":"assessments","type":"tuple[]","internalType":"struct CreditOracle.BuyerAssessment[]","components":[{"name":"buyerHash","type":"bytes32","internalType":"bytes32"},{"name":"creditScore","type":"uint256","internalType":"uint256"},{"name":"creditLimit","type":"uint256","internalType":"uint256"},{"name":"defaultProbability","type":"uint256","internalType":"uint256"},{"name":"recommendedAdvanceRate","type":"uint256","internalType":"uint256"},{"name":"confidenceScore","type":"uint256","internalType":"uint256"},{"name":"assignedTier","type":"uint8","internalType":"enum CreditOracle.RiskTier"},{"name":"riskFactors","type":"string[]","internalType":"string[]"},{"name":"assessedAt","type":"uint256","internalType":"uint256"},{"name":"validUntil","type":"uint256","internalType":"uint256"},{"name":"isValid","type":"bool","internalType":"bool"}]}],"outputs":[],"stateMutability":"nonpayable"},{"type":"function","name":"submitBuyerAssessment","inputs":[{"name":"requestId","type":"uint256","internalType":"uint256"},{"name":"assessment","type":"tuple","internalType":"struct CreditOracle.BuyerAssessment","components":[{"name":"buyerHash","type":"bytes32","internalType":"bytes32"},{"name":"creditScore","type":"uint256","internalType":"uint256"},{"name":"creditLimit","type":"uint256","internalType":"uint256"},{"name":"defaultProbability","type":"uint256","internalType":"uint256"},{"name":"recommendedAdvanceRate","type":"uint256","internalType":"uint256"},{"name":"confidenceScore","type":"uint256","internalType":"uint256"},{"name":"assignedTier","type":"uint8","internalType":"enum CreditOracle.RiskTier"},{"name":"riskFactors","type":"string[]","internalType":"string[]"},{"name":"assessedAt","type":"uint256","internalType":"uint256"},{"name":"validUntil","type":"uint256","internalType":"uint256"},{"name":"isValid","type":"bool","internalType":"bool"}]}],"outputs":[],"stateMutability":"nonpayable"},{"type":"function","name":"submitInvoiceAssessment","inputs":[{"name":"requestId","type":"uint256","internalType":"uint256"},{"name":"assessment","type":"tuple","internalType":"struct CreditOracle.InvoiceAssessment","components":[{"name":"invoiceId","type":"uint256","internalType":"uint256"},{"name":"sellerHash","type":"bytes32","internalType":"bytes32"},{"name":"buyerHash","type":"bytes32","internalType":"bytes32"},{"name":"invoiceAmount","type":"uint256","internalType":"uint256"},{"name":"riskScore","type":"uint256","internalType":"uint256"},{"name":"fraudProbability","type":"uint256","internalType":"uint256"},{"name":"recommendedAdvanceRate","type":"uint256","internalType":"uint256"},{"name":"recommendedInterestRate","type":"uint256","internalType":"uint256"},{"name":"assignedTier","type":"uint8","internalType":"enum CreditOracle.RiskTier"},{"name":"approved","type":"bool","internalType":"bool"},{"name":"rejectionReason","type":"string","internalType":"string"},{"name":"confidenceScore","type":"uint256","internalType":"uint256"},{"name":"assessedAt","type":"uint256","internalType":"uint256"}]}],"outputs":[],"stateMutability":"nonpayable"},{"type":"function","name":"supportsInterface","inputs":[{"name":"interfaceId","type":"bytes4","internalType":"bytes4"}],"outputs":[{"name":"","type":"bool","internalType":"bool"}],"stateMutability":"view"},{"type":"function","name":"updateBuyerAssessment","inputs":[{"name":"buyerHash","type":"bytes32","internalType":"bytes32"},{"name":"assessment","type":"tuple","internalType":"struct CreditOracle.BuyerAssessment","components":[{"name":"buyerHash","type":"bytes32","internalType":"bytes32"},{"name":"creditScore","type":"uint256","internalType":"uint256"},{"name":"creditLimit","type":"uint256","internalType":"uint256"},{"name":"defaultProbability","type":"uint256","internalType":"uint256"},{"name":"recommendedAdvanceRate","type":"uint256","internalType":"uint256"},{"name":"confidenceScore","type":"uint256","internalType":"uint256"},{"name":"assignedTier","type":"uint8","internalType":"enum CreditOracle.RiskTier"},{"name":"riskFactors","type":"string[]","internalType":"string[]"},{"name":"assessedAt","type":"uint256","internalType":"uint256"},{"name":"validUntil","type":"uint256","internalType":"uint256"},{"name":"isValid","type":"bool","internalType":"bool"}]}],"outputs":[],"stateMutability":"nonpayable"},{"type":"event","name":"AssessmentInvalidated","inputs":[{"name":"subjectHash","type":"bytes32","indexed":true,"internalType":"bytes32"},{"name":"reason","type":"string","indexed":false,"internalType":"string"}],"anonymous":false},{"type":"event","name":"BuyerAssessmentRequested","inputs":[{"name":"requestId","type":"uint256","indexed":true,"internalType":"uint256"},{"name":"buyerHash","type":"bytes32","indexed":true,"internalType":"bytes32"},{"name":"requester","type":"address","indexed":false,"internalType":"address"}],"anonymous":false},{"type":"event","name":"BuyerAssessmentSubmitted","inputs":[{"name":"requestId","type":"uint256","indexed":true,"internalType":"uint256"},{"name":"buyerHash","type":"bytes32","indexed":true,"internalType":"bytes32"},{"name":"creditScore","type":"uint256","indexed":false,"internalType":"uint256"},{"name":"tier","type":"uint8","indexed":false,"internalType":"enum CreditOracle.RiskTier"}],"anonymous":false},{"type":"event","name":"BuyerAssessmentUpdated","inputs":[{"name":"buyerHash","type":"bytes32","indexed":true,"internalType":"bytes32"},{"name":"oldScore","type":"uint256","indexed":false,"internalType":"uint256"},{"name":"newScore","type":"uint256","indexed":false,"internalType":"uint256"}],"anonymous":false},{"type":"event","name":"InvoiceAssessmentRequested","inputs":[{"name":"requestId","type":"uint256","indexed":true,"internalType":"uint256"},{"name":"invoiceId","type":"uint256","indexed":true,"internalType":"uint256"},{"name":"buyerHash","type":"bytes32","indexed":false,"internalType":"bytes32"}],"anonymous":false},{"type":"event","name":"InvoiceAssessmentSubmitted","inputs":[{"name":"requestId","type":"uint256","indexed":true,"internalType":"uint256"},{"name":"invoiceId","type":"uint256","indexed":true,"internalType":"uint256"},{"name":"approved","type":"bool","indexed":false,"internalType":"bool"},{"name":"tier","type":"uint8","indexed":false,"internalType":"enum CreditOracle.RiskTier"}],"anonymous":false},{"type":"event","name":"OracleAuthorized","inputs":[{"name":"oracle","type":"address","indexed":true,"internalType":"address"}],"anonymous":false},{"type":"event","name":"OracleRevoked","inputs":[{"name":"oracle","type":"address","indexed":true,"internalType":"address"}],"anonymous":false},{"type":"event","name":"RoleAdminChanged","inputs":[{"name":"role","type":"bytes32","indexed":true,"internalType":"bytes32"},{"name":"previousAdminRole","type":"bytes32","indexed":true,"internalType":"bytes32"},{"name":"newAdminRole","type":"bytes32","indexed":true,"internalType":"bytes32"}],"anonymous":false},{"type":"event","name":"RoleGranted","inputs":[{"name":"role","type":"bytes32","indexed":true,"internalType":"bytes32"},{"name":"account","type":"address","indexed":true,"internalType":"address"},{"name":"sender","type":"address","indexed":true,"internalType":"address"}],"anonymous":false},{"type":"event","name":"RoleRevoked","inputs":[{"name":"role","type":"bytes32","indexed":true,"internalType":"bytes32"},{"name":"account","type":"address","indexed":true,"internalType":"address"},{"name":"sender","type":"address","indexed":true,"internalType":"address"}],"anonymous":false},{"type":"error","name":"AccessControlBadConfirmation","inputs":[]},{"type":"error","name":"AccessControlUnauthorizedAccount","inputs":[{"name":"account","type":"address","internalType":"address"},{"name":"neededRole","type":"bytes32","internalType":"bytes32"}]},{"type":"error","name":"ArrayLengthMismatch","inputs":[]},{"type":"error","name":"AssessmentExpired","inputs":[]},{"type":"error","name":"AssessmentInvalid","inputs":[]},{"type":"error","name":"AssessmentNotFound","inputs":[]},{"type":"error","name":"ConfidenceTooLow","inputs":[]},{"type":"error","name":"InvalidConfidenceScore","inputs":[]},{"type":"error","name":"InvalidCreditScore","inputs":[]},{"type":"error","name":"InvalidRiskScore","inputs":[]},{"type":"error","name":"InvoiceNotApproved","inputs":[]},{"type":"error","name":"RequestAlreadyFulfilled","inputs":[]},{"type":"error","name":"RequestNotFound","inputs":[]},{"type":"error","name":"ZeroBuyerHash","inputs":[]}],"bytecode":{"object":"0x608034620000a257601f62002f4e38819003918201601f19168301916001600160401b03831184841017620000a6578084926040948552833981010312620000a257806200005f6020620000576200009194620000ba565b9201620000ba565b62278d00600955603c600a55600180546001600160a01b0319166001600160a01b0390931692909217909155620000cf565b50604051612dee9081620001608239f35b5f80fd5b634e487b7160e01b5f52604160045260245ffd5b51906001600160a01b0382168203620000a257565b6001600160a01b03165f8181527fad3228b676f7d3cd4284a5443f17f1962b36e491b30a40b2405849e597ba5fb5602052604081205490919060ff166200015b57818052816020526040822081835260205260408220600160ff1982541617905533917f2f8788117e7eff1d82e926ec794901d17c78024a50270940304540a733656f0d8180a4600190565b509056fe6080806040526004361015610012575f80fd5b5f90813560e01c90816301ffc9a714611f405750806307e2cea514611f1857806308a5f0c314611efc5780630967f68d14611ecd5780630dc92c1414611eab578063111772c914611dbc57806315c05ea514611d65578063248a9ca314611d395780632f2ff15d14611cfc57806336568abe14611cb45780634162367114611b8a5780634430db7e14611b4f57806345f1913114611b065780634f5fa74714611b0b57806354203e0914611b065780635b8200b114611abb5780636597ea9a146117dd57806367d902e11461161e5780636d2eea6e146116005780636fb4f627146115d757806370f54e051461140757806373b4cb0c146113ba57806373e8a0381461127c5780637ea0ab1914610e8f57806380a1f71214610e0d5780638472db0214610cc05780638dc04bd014610a8657806391d1485414610a3d5780639249b274146109ed5780639265568e1461099a578063a217fddf1461097e578063b9e7418f1461095f578063bc01e7591461087b578063bc1a8e0014610836578063c5f0d9a0146107f9578063cc1ec5e1146107d6578063d547741f14610795578063e1f1c4a714610778578063e4e9a7e014610749578063ed7466f514610566578063ef65cd631461053d578063f1ddb0371461045c578063f2e24cdb1461043e578063f4a7f49314610420578063f5215945146103ca5763fbddbf2b14610218575f80fd5b346103c75760803660031901126103c757335f9081527f3d345f69ce4cd4ee7817c30d36840ea4a12745339502018b706b68a4dd7929616020908152604090912054909190600435907f61a3517f153a09154844ed8be639dabc6e78dc22315c2d9a91f7eddf9398c0029060ff16156103a95750610297600854612383565b9182600855604051906102a9826123a5565b838252848201600181526040830184815260608401338152608085019142835260a086019385855260c087019580875289815260048b5260408120975188556001880191519060028210156103955750815460ff1990811660ff928316179092559151600288015591516003870180546001600160a01b039092166001600160a01b03199092169190911790559151600486015591516005850180549093169015159091161790556006905191015561036182612489565b817fa5dc1740d9552b9589bea37009969de6f2d6594fa5cbe659748b282b3e96b20f846040516044358152a3604051908152f35b634e487b7160e01b81526021600452602490fd5b6044906040519063e2517d3f60e01b82523360048301526024820152fd5b80fd5b50346103c75760203660031901126103c75760043590818152600660205260ff6040822054161561040e576040816020936006935260038452200154604051908152f35b60405163038ef5b160e21b8152600490fd5b50346103c757806003193601126103c7576020600954604051908152f35b50346103c757806003193601126103c757602060405162278d008152f35b50346103c75760403660031901126103c7576001600160401b036004358181116105395761048e903690600401611fed565b6024928335908111610535576104a8903690600401611fed565b9390916104b36120fb565b84810361052357855b8181106104c7578680f35b6104d281838761250f565b359086811015610510578060051b85013561015e198636030181121561050c576105079261050291870190612750565b612383565b6104bc565b8880fd5b634e487b7160e01b885260326004528388fd5b60405163512509d360e11b8152600490fd5b8480fd5b8280fd5b50346103c75760203660031901126103c757602061055c600435612bdc565b6040519015158152f35b50346103c75760203660031901126103c757600435908061018060405161058c816123e7565b8281528260208201528260408201528260608201528260808201528260a08201528260c08201528260e082015282610100820152826101208201526060610140820152826101608201520152818152600660205260ff6040822054161561040e576040918152600360205220600b60405191610607836123e7565b8054835260018101546020840152600281015460408401526003810154606084015260048101546080840152600581015460a0840152600681015460c0840152600781015460e084015260ff60088201546106688282166101008701612572565b60081c16151561012084015261068060098201612b3d565b610140840152600a810154610160840152015461018082015260405180916020825280516020830152602081015160408301526040810151606083015260608101516080830152608081015160a083015260a081015160c083015260c081015160e083015260e0810151610100830152610704610100820151610120840190611fe0565b61012081015115156101408301526101408101516101806107346101a092836101608701526101c0860190612084565b92610160810151828601520151908301520390f35b50346103c75760203660031901126103c75760ff60406020926004358152600584522054166040519015158152f35b50346103c757806003193601126103c75760206040516127108152f35b50346103c75760403660031901126103c7576107d26004356107b5611faf565b90808452836020526107cd6001604086200154612143565b612310565b5080f35b50346103c75760203660031901126103c7576107f06120c2565b60043560095580f35b50346103c75760203660031901126103c7576004356108166120c2565b6064811161082457600a5580f35b604051633968255d60e11b8152600490fd5b50346103c75760203660031901126103c757610850611f95565b6108586120c2565b60018060a01b03166bffffffffffffffffffffffff60a01b600154161760015580f35b50346103c75760403660031901126103c7576004356024356001600160401b038111610539576108af903690600401612057565b5f80516020612d99833981519152845260209184835260408520335f52835260ff60405f2054161580610941575b610535578385526005835260ff6040862054161561040e5760027f2d55c4039ad2b34a93b56c238da48f1fab56c9a523db9670cfe2a3dded1081dd9385875252600a604086200160ff19815416905561093b60405192839283612b16565b0390a280f35b5084805284835260408520335f52835260ff60405f205416156108dd565b50346103c75760203660031901126103c757602061055c600435612c7a565b50346103c757806003193601126103c757602090604051908152f35b50346103c75760403660031901126103c75760043590818152600660205260ff6040822054161561040e576109e460066040836020956127109552600386522001546024356126ae565b04604051908152f35b50346103c757600319604036820112610a3957602435906001600160401b03821161053957610160908236030112610a3957610a3690610a2b6120fb565b600401600435612750565b80f35b5080fd5b50346103c75760403660031901126103c7576040610a59611faf565b91600435815280602052209060018060a01b03165f52602052602060ff60405f2054166040519015158152f35b50346103c75760203660031901126103c75760043581610140604051610aab81612403565b8281528260208201528260408201528260608201528260808201528260a08201528260c0820152606060e082015282610100820152826101208201520152808252600560205260ff6040832054161561040e5781526002602052604081209060405191610b1783612403565b8054835260018101546020840152600281015460408401526003810154606084015260048101546080840152600581015460a0840152610b6160ff60068301541660c08501612572565b600781018054610b70816124c6565b91610b7e604051938461241f565b81835284526020808520859184015b838310610ca357878760ff600a898960e08601526008810154610100860152600981015461012086015201541615156101408301526040519060208252610180820183516020840152602084015160408401526040840151606084015260608401516080840152608084015160a084015260a084015160c0840152610c1a60c085015160e0850190611fe0565b60e084015191610160918261010086015283518091526101a06020818701918360051b880101950192905b828210610c77575050505061014084610100859601516101208601526101208101518286015201511515908301520390f35b90919294602080610c9560019361019f198b82030186528951612084565b970192019201909291610c45565b600160208192610cb285612b3d565b815201920192019190610b8d565b50346103c757602080600319360112610a3957600435600291828210159283610535576007549285805b858110610da05750610cfb906124dd565b948692875b868110610d195760405180610d158a8261201d565b0390f35b610d2281612440565b9054600391821b1c8a526004875260408a206001015460ff1684610d8c5783811015610d8c578514610d5e575b50610d5990612383565b610d00565b8195610d8591610d70610d5994612440565b9054911b1c610d7f828c61251f565b52612383565b9490610d4f565b634e487b7160e01b8b52602160045260248bfd5b610da981612440565b90549060031b1c8852600485528660ff600160408b2001541690610df95784811015610df9578314610de4575b610ddf90612383565b610cea565b90610df1610ddf91612383565b919050610dd6565b634e487b7160e01b89526021600452602489fd5b50346103c757806003193601126103c757604051600780548083529083526020808301937fa66cc928b5edb82af9bd49922954155ab7b0942694bea4ce44661d9a8736c68892915b828210610e7857610d1585610e6c8189038261241f565b6040519182918261201d565b835486529485019460019384019390910190610e55565b50346103c757600319604036820112610a39576001600160401b0360243511610a39576101a090602435360301126103c757610ec96120fb565b600435815260046020526040812080541561126a5760ff600582015416611258576064608460243501351161123457606461016460243501351161082457600a54610164602435013510611246576127108060c46024350135116112345760a460243501351161123457600461010460243501351015610a3957610f5261012460243501612533565b9060243560040191610fe9610f6d6101446024350185612540565b60405193610f7a856123e7565b863585526024803590810135602087015260448101356040870152606481013560608701526084810135608087015260a481013560a087015260c481013560c087015260e481013560e0870152610fda9061010401356101008701612572565b1515610120850152369161257e565b6101408201526101646024350135610160820152426101808201528235845260036020526040842090805182556020810151600183015560408101516002830155606081015160038301556080810151600483015560a0810151600583015560c0810151600683015560e081015160078301556008820161010082015160048110156112205761107990826125c3565b610120820151815461ff00191690151560081b61ff0016179055610140810151805160098401916001600160401b03821161120c576110c2826110bc85546125db565b85612629565b602090601f83116001146111a25791806101809492600b96948b92611197575b50508160011b915f199060031b1c19161790555b610160810151600a850155015191015581358352600660205260016040842060ff1990828282541617905560058301541617600582015560064291015561113e600435612cf1565b61114d61012460243501612533565b90604051911515825261116a602083016101046024350135611fe0565b35907fd1097cf693cf9c4f1ff9a5fa4ce24dab05a397a0f23d0829b04304b2d54a241d604060043592a380f35b015190505f806110e2565b838952602089209190601f1984168a5b8181106111f45750926001928592600b98966101809896106111dc575b505050811b0190556110f6565b01515f1960f88460031b161c191690555f80806111cf565b929360206001819287860151815501950193016111b2565b634e487b7160e01b88526041600452602488fd5b634e487b7160e01b87526021600452602487fd5b6040516330cdce3160e21b8152600490fd5b6040516315f0caef60e31b8152600490fd5b60405163533d99dd60e01b8152600490fd5b604051632589d98f60e11b8152600490fd5b50346103c757602080600319360112610a39576004358260c06040516112a1816123a5565b82815282858201528260408201528260608201528260808201528260a082015201528083526004825260408320541561126a578252600481526040822090604051916112ec836123a5565b8054835260ff600182015416918084019260028110156113a657835260028201546040850190815260018060a01b039081600385015416906060870191825260048501549360808801948552600660ff6005880154169660a08a01971515885201549660c0890197885260405198518952519060028210156113925760e099508801525160408701525116606085015251608084015251151560a08301525160c0820152f35b634e487b7160e01b8a52602160045260248afd5b634e487b7160e01b5f52602160045260245ffd5b50346103c75760203660031901126103c757600435808252600560205260ff6040832054161561040e57600660408360ff936020955260028552200154166114056040518092611fe0565bf35b50346103c75760403660031901126103c7576001600160401b03906004356024358381116105395761143d903690600401612057565b905f80516020612d99833981519152845260209484865260408520335f52865260ff60405f20541615806115b9575b610535578385526006865260ff6040862054161561040e57838552600386526040852060088101805461ff00191690556009019083116115a5576114ba836114b483546125db565b83612629565b8495601f841160011461152157508285967f2d55c4039ad2b34a93b56c238da48f1fab56c9a523db9670cfe2a3dded1081dd959691611516575b508360011b905f198560031b1c19161790555b61093b60405192839283612b16565b90508201355f6114f4565b601f198416968287528187209187905b89821061158d575050847f2d55c4039ad2b34a93b56c238da48f1fab56c9a523db9670cfe2a3dded1081dd96979810611574575b5050600183811b019055611507565b8301355f19600386901b60f8161c191690555f80611565565b80600184958294958901358155019401920190611531565b634e487b7160e01b85526041600452602485fd5b5084805284865260408520335f52865260ff60405f2054161561146c565b50346103c757806003193601126103c7576001546040516001600160a01b039091168152602090f35b50346103c757806003193601126103c7576020600a54604051908152f35b50346103c757602090816003193601126103c7576004356001600160401b038111610a3957611651903690600401611fed565b9261165b846124dd565b92805b8581106116735760405180610d15878261201d565b61167e81878661250f565b35156117cb5760086116908154612383565b80915561169e82888761250f565b35604051906116ac826123a5565b8282528582018581526040830191825260608301338152608084019042825260a085019288845260c0860194898652878a5260048b5260408a209651875560018701915191600292838110156117b757815460ff91821660ff199182161790925591519288019290925591516003870180546001600160a01b0319166001600160a01b039290921691909117905591516004860155915160058501805491151590931691161790556117b2939291906006905191015561176b81612489565b80611776838961251f565b5261178282898861250f565b35907f3b44b9ed3c3078a5a50018e59e0906338320d23fba591cb266ce8857853a766b86604051338152a3612383565b61165e565b634e487b7160e01b8c52602160045260248cfd5b60405163981d30c560e01b8152600490fd5b50346103c757600319604036820112610a39576001600160401b0360243511610a395761016090602435360301126103c7576118176120fb565b6004358152600560205260ff6040822054161561040e5761183c602435600401612ca4565b600435815260026020526040812090600182019182549261185f6009544261266c565b90602480350135905560446024350135600283015560646024350135600383015560846024350135600483015560a460243501356005830155600460c460243501351015610539576118ba60c46024350135600684016125c3565b6118ce60e460243501602435600401612679565b60078401916118dd82846126c1565b918552602085208592805b8385106119c5578888600a8989426008830155600982015501600160ff1982541617905560018060a01b0360015416803b15610a3957816040518092632a5aa26560e21b825281838161195e60446024350135602480350135600435600485016040919493926060820195825260208201520152565b03925af180156119ba576119ab575b509060405190815260248035013560208201527f9ad8d44fae90584b57e9553ace701dcd6f991fbb66eb01c7c6ad22686c3aba21604060043592a280f35b6119b4906123d4565b8261196d565b6040513d84823e3d90fd5b6119cf8183612540565b906001600160401b038211611aa7576119f2826119ec87546125db565b87612629565b89908a601f8411600114611a3b57928060209360019693879692611a30575b50505f19600383901b1c191690841b1786555b019301940193916118e8565b013590505f80611a11565b86905260208b20918b5b601f1985168110611a8f575083602093600196938796938794601f19811610611a76575b505050811b018655611a24565b01355f19600384901b60f8161c191690555f8080611a69565b90926020600181928686013581550194019101611a45565b634e487b7160e01b8a52604160045260248afd5b50346103c75760203660031901126103c757600435808252600660205260ff6040832054161561040e57600860408360ff936020955260038552200154166114056040518092611fe0565b611fc5565b50346103c75760203660031901126103c75760043590818152600660205260ff6040822054161561040e576040816020936007935260038452200154604051908152f35b50346103c757806003193601126103c75760206040517f61a3517f153a09154844ed8be639dabc6e78dc22315c2d9a91f7eddf9398c0028152f35b50346103c75760203660031901126103c75760043580156117cb57611bb0600854612383565b9081600855604051611bc1816123a5565b828152602081018481526040820183815260608301338152608084019142835260a085019388855260c0860198808a52888152600460205260408120965187556001870191519060028210156103955750926006959260209a9592611c759560ff80198354169116179055516002880155600387019060018060a01b039051166bffffffffffffffffffffffff60a01b825416179055516004860155511515600585019060ff801983541691151516179055565b51910155611c8282612489565b817f3b44b9ed3c3078a5a50018e59e0906338320d23fba591cb266ce8857853a766b84604051338152a3604051908152f35b50346103c75760403660031901126103c757611cce611faf565b336001600160a01b03821603611cea576107d290600435612310565b60405163334bd91960e11b8152600490fd5b50346103c75760403660031901126103c7576107d2600435611d1c611faf565b9080845283602052611d346001604086200154612143565b612202565b50346103c75760203660031901126103c757600160406020926004358152808452200154604051908152f35b50346103c75760603660031901126103c75760043590818152600660205260ff6040822054161561040e576109e460076040836020956237b1d0955260038652200154611db7604435916024356126ae565b6126ae565b50346103c75760403660031901126103c757611dd6611f95565b602435801515810361053957611dea6120c2565b15611e4d575f80516020612d99833981519152825281602052611e136001604084200154612143565b611e1c81612164565b506001600160a01b03167f5a7a3f71a35f5e2589980d29d1c6d8c75e39657751190874081e55208bae24b78280a280f35b5f80516020612d99833981519152825281602052611e716001604084200154612143565b611e7a81612279565b506001600160a01b03167f3c9c4af7c4c66de2ffc68abfa4e0d275fbce92f248473bca0d6787dc8caf8e318280a280f35b50346103c75760403660031901126103c757602061055c602435600435612c1b565b50346103c75760203660031901126103c75760ff60406020926004358152600684522054166040519015158152f35b50346103c757806003193601126103c7576020604051603c8152f35b50346103c757806003193601126103c75760206040515f80516020612d998339815191528152f35b905034610a39576020366003190112610a395760043563ffffffff60e01b81168091036105395760209250637965db0b60e01b8114908115611f84575b5015158152f35b6301ffc9a760e01b1490505f611f7d565b600435906001600160a01b0382168203611fab57565b5f80fd5b602435906001600160a01b0382168203611fab57565b34611fab575f366003190112611fab57602060405160648152f35b9060048210156113a65752565b9181601f84011215611fab578235916001600160401b038311611fab576020808501948460051b010111611fab57565b602090816040818301928281528551809452019301915f5b828110612043575050505090565b835185529381019392810192600101612035565b9181601f84011215611fab578235916001600160401b038311611fab5760208381860195010111611fab57565b91908251928382525f5b8481106120ae575050825f602080949584010152601f8019910116010190565b60208183018101518483018201520161208e565b335f9081527fad3228b676f7d3cd4284a5443f17f1962b36e491b30a40b2405849e597ba5fb5602052604081205460ff16156103a95750565b335f9081527fa629f6981c2f6895a67dc766e8e03ff72d04a413d0d8773a3ca56e9e474032c160205260409020545f80516020612d998339815191529060ff16156103a95750565b805f525f60205260405f20335f5260205260ff60405f205416156103a95750565b6001600160a01b03165f8181527fa629f6981c2f6895a67dc766e8e03ff72d04a413d0d8773a3ca56e9e474032c160205260408120549091905f80516020612d998339815191529060ff166121fd57808352826020526040832082845260205260408320600160ff198254161790557f2f8788117e7eff1d82e926ec794901d17c78024a50270940304540a733656f0d339380a4600190565b505090565b905f9180835282602052604083209160018060a01b03169182845260205260ff604084205416155f146121fd57808352826020526040832082845260205260408320600160ff198254161790557f2f8788117e7eff1d82e926ec794901d17c78024a50270940304540a733656f0d339380a4600190565b6001600160a01b03165f8181527fa629f6981c2f6895a67dc766e8e03ff72d04a413d0d8773a3ca56e9e474032c160205260408120549091905f80516020612d998339815191529060ff16156121fd5780835282602052604083208284526020526040832060ff1981541690557ff6391f5c32d9c69d2a47ea670b442974b53935d1edc7fd64eb21e047a839171b339380a4600190565b905f9180835282602052604083209160018060a01b03169182845260205260ff6040842054165f146121fd5780835282602052604083208284526020526040832060ff1981541690557ff6391f5c32d9c69d2a47ea670b442974b53935d1edc7fd64eb21e047a839171b339380a4600190565b5f1981146123915760010190565b634e487b7160e01b5f52601160045260245ffd5b60e081019081106001600160401b038211176123c057604052565b634e487b7160e01b5f52604160045260245ffd5b6001600160401b0381116123c057604052565b6101a081019081106001600160401b038211176123c057604052565b61016081019081106001600160401b038211176123c057604052565b90601f801991011681019081106001600160401b038211176123c057604052565b6007548110156124755760075f527fa66cc928b5edb82af9bd49922954155ab7b0942694bea4ce44661d9a8736c68801905f90565b634e487b7160e01b5f52603260045260245ffd5b60075490600160401b8210156123c0576124ac8260016124c49401600755612440565b90919082549060031b91821b915f19901b1916179055565b565b6001600160401b0381116123c05760051b60200190565b906124e7826124c6565b6124f4604051918261241f565b8281528092612505601f19916124c6565b0190602036910137565b91908110156124755760051b0190565b80518210156124755760209160051b010190565b358015158103611fab5790565b903590601e1981360301821215611fab57018035906001600160401b038211611fab57602001918136038313611fab57565b60048210156113a65752565b9291926001600160401b0382116123c057604051916125a7601f8201601f19166020018461241f565b829481845281830111611fab578281602093845f960137010152565b9060048110156113a65760ff80198354169116179055565b90600182811c92168015612609575b60208310146125f557565b634e487b7160e01b5f52602260045260245ffd5b91607f16916125ea565b81811061261e575050565b5f8155600101612613565b9190601f811161263857505050565b6124c4925f5260205f20906020601f840160051c83019310612662575b601f0160051c0190612613565b9091508190612655565b9190820180921161239157565b903590601e1981360301821215611fab57018035906001600160401b038211611fab57602001918160051b36038313611fab57565b8181029291811591840414171561239157565b600160401b82116123c0578054918082558281106126de57505050565b5f91825260209081832093840193015b8381106126fb5750505050565b8083612709600193546125db565b80612717575b5050016126ee565b601f808211851461272e57505081555b835f61270f565b61274790848452868420920160051c8201858301612613565b81835555612727565b805f52600460205260405f2080541561126a5760ff6005820154166112585761277883612ca4565b6127846009544261266c565b600460c08501351015611fab5761279e60e0850185612679565b60405192916127ac84612403565b863584526020870135602085015260408701356040850152606087013560608501526080870135608085015260a087013560a08501526127f360c088013560c08601612572565b6127fc826124c6565b9161280a604051938461241f565b80835260208301368260051b840111611fab5782905b8260051b84018210612ad7575050505060e083015242610100830152610120820152600161014082015283355f52600260205260405f2090805182556020810151600183015560408101516002830155606081015160038301556080810151600483015560a0810151600583015560c081015160048110156113a6576128a990600684016125c3565b6007820160e082015160208151916128c183856126c1565b01915f5260205f20915f905b8282106129fa575050505090600a6101408361010061290f950151600885015561012081015160098501550151151591019060ff801983541691151516179055565b82355f52600560205260405f2060ff199060018282541617905560018060a01b036001541690813b15611fab5760408051632a5aa26560e21b81528635600482015260208701356024820152908601356044820152915f908390606490829084905af19182156129ef576001926129e0575b5060058301541617600582015560064291015561299d81612cf1565b7fdba3aeef1e1fe9b7ff571604ea0fa8eb977e0c5c2613351191d745a2c335596b6040805193602081013585526129db6020860160c0830135611fe0565b3593a3565b6129e9906123d4565b5f612981565b6040513d5f823e3d90fd5b80518051906001600160401b0382116123c057612a2182612a1b88546125db565b88612629565b602090601f8311600114612a6b5792826001949360209386955f92612a60575b50505f19600383901b1c191690841b1787555b019401910190926128cd565b015190505f80612a41565b90865f5260205f20915f5b601f1985168110612abf575083602093600196938796938794601f19811610612aa7575b505050811b018755612a54565b01515f1960f88460031b161c191690555f8080612a9a565b91926020600181928685015181550194019201612a76565b81356001600160401b038111611fab5736601f828701011215611fab576020918291612b0b9036908801803590850161257e565b815201910190612820565b90918060409360208452816020850152848401375f828201840152601f01601f1916010190565b9060405191825f825492612b50846125db565b9081845260019485811690815f14612bb95750600114612b79575b50506124c49250038361241f565b909391505f52602090815f20935f915b818310612ba15750506124c493508201015f80612b6b565b85548884018501529485019487945091830191612b89565b9150506124c494506020925060ff191682840152151560051b8201015f80612b6b565b5f52600560205260ff60405f20541615612c1757600260205260405f2060ff600a820154169081612c0b575090565b60099150015442111590565b5f90565b5f908152600560205260ff60408220541615612c755760026020526040812060ff600a8201541615612c6f5760080154420390428211612c5b5750111590565b634e487b7160e01b81526011600452602490fd5b50905090565b905090565b5f52600660205260ff60405f20541615612c1757600360205260ff600860405f20015460081c1690565b6064602082013511612cdf5760a08101356064811161082457600a541161124657612710908160808201351161123457606001351161123457565b6040516301069b4760e21b8152600490fd5b6007908154915f5b838110612d07575b50505050565b82612d1182612440565b919054600392831b1c14612d2e5750612d2990612383565b612cf9565b939192505f199182810191908211612391576124ac612d4f612d5b93612440565b905490871b1c91612440565b81548015612d8457810192612d6f84612440565b81939154921b1b19169055555f808080612d01565b634e487b7160e01b5f52603160045260245ffdfe68e79a7bf1e0bc45d0a330c573bc367f9cf464fd326078812f301165fbda4ef1a264697066735822122069c08d80e75b58ee4cd42b83169f03ffb21d0d417ce9f58d994386711279dc2064736f6c63430008140033","linkReferences":{}},"methodIdentifiers":{"BASIS_POINTS()":"e1f1c4a7","DEFAULT_ADMIN_ROLE()":"a217fddf","DEFAULT_VALIDITY_PERIOD()":"f2e24cdb","MAX_CREDIT_SCORE()":"54203e09","MAX_RISK_SCORE()":"45f19131","MIN_CONFIDENCE_SCORE()":"08a5f0c3","ORACLE_ROLE()":"07e2cea5","REQUESTER_ROLE()":"4430db7e","assessmentValidityPeriod()":"f4a7f493","buyerRegistry()":"6fb4f627","calculateAdvanceAmount(uint256,uint256)":"9265568e","calculateExpectedYield(uint256,uint256,uint256)":"15c05ea5","getAssessmentRequest(uint256)":"73e8a038","getBuyerAssessment(bytes32)":"8dc04bd0","getBuyerRiskTier(bytes32)":"73b4cb0c","getInvoiceAssessment(uint256)":"ed7466f5","getInvoiceRiskTier(uint256)":"5b8200b1","getPendingRequests()":"80a1f712","getPendingRequestsByType(uint8)":"8472db02","getRecommendedAdvanceRate(uint256)":"f5215945","getRecommendedInterestRate(uint256)":"4f5fa747","getRoleAdmin(bytes32)":"248a9ca3","grantRole(bytes32,address)":"2f2ff15d","hasBuyerAssessment(bytes32)":"e4e9a7e0","hasInvoiceAssessment(uint256)":"0967f68d","hasRole(bytes32,address)":"91d14854","invalidateBuyerAssessment(bytes32,string)":"bc01e759","invalidateInvoiceAssessment(uint256,string)":"70f54e05","isBuyerAssessmentFresh(bytes32,uint256)":"0dc92c14","isBuyerAssessmentValid(bytes32)":"ef65cd63","isInvoiceApproved(uint256)":"b9e7418f","minConfidenceScore()":"6d2eea6e","renounceRole(bytes32,address)":"36568abe","requestBatchAssessment(bytes32[])":"67d902e1","requestBuyerAssessment(bytes32)":"41623671","requestInvoiceAssessment(uint256,bytes32,bytes32,uint256)":"fbddbf2b","revokeRole(bytes32,address)":"d547741f","setAssessmentValidityPeriod(uint256)":"cc1ec5e1","setBuyerRegistryAddress(address)":"bc1a8e00","setMinConfidenceScore(uint256)":"c5f0d9a0","setOracleAddress(address,bool)":"111772c9","submitBatchBuyerAssessments(uint256[],(bytes32,uint256,uint256,uint256,uint256,uint256,uint8,string[],uint256,uint256,bool)[])":"f1ddb037","submitBuyerAssessment(uint256,(bytes32,uint256,uint256,uint256,uint256,uint256,uint8,string[],uint256,uint256,bool))":"9249b274","submitInvoiceAssessment(uint256,(uint256,bytes32,bytes32,uint256,uint256,uint256,uint256,uint256,uint8,bool,string,uint256,uint256))":"7ea0ab19","supportsInterface(bytes4)":"01ffc9a7","updateBuyerAssessment(bytes32,(bytes32,uint256,uint256,uint256,uint256,uint256,uint8,string[],uint256,uint256,bool))":"6597ea9a"},"id":48}