{"abi":[{"type":"constructor","inputs":[{"name":"_stablecoin","type":"address","internalType":"address"},{"name":"_admin","type":"address","internalType":"address"}],"stateMutability":"nonpayable"},{"type":"function","name":"DEFAULT_ADMIN_ROLE","inputs":[],"outputs":[{"name":"","type":"bytes32","internalType":"bytes32"}],"stateMutability":"view"},{"type":"function","name":"DEPLOYER_ROLE","inputs":[],"outputs":[{"name":"","type":"bytes32","internalType":"bytes32"}],"stateMutability":"view"},{"type":"function","name":"POOL_MANAGER_ROLE","inputs":[],"outputs":[{"name":"","type":"bytes32","internalType":"bytes32"}],"stateMutability":"view"},{"type":"function","name":"accumulatedProtocolFees","inputs":[],"outputs":[{"name":"","type":"uint256","internalType":"uint256"}],"stateMutability":"view"},{"type":"function","name":"amountToShares","inputs":[{"name":"tier","type":"uint8","internalType":"enum LiquidityPool.RiskTier"},{"name":"amount","type":"uint256","internalType":"uint256"}],"outputs":[{"name":"","type":"uint256","internalType":"uint256"}],"stateMutability":"view"},{"type":"function","name":"canWithdraw","inputs":[{"name":"user","type":"address","internalType":"address"},{"name":"tier","type":"uint8","internalType":"enum LiquidityPool.RiskTier"},{"name":"shares","type":"uint256","internalType":"uint256"}],"outputs":[{"name":"","type":"bool","internalType":"bool"},{"name":"","type":"string","internalType":"string"}],"stateMutability":"view"},{"type":"function","name":"claimYield","inputs":[{"name":"tier","type":"uint8","internalType":"enum LiquidityPool.RiskTier"}],"outputs":[{"name":"amount","type":"uint256","internalType":"uint256"}],"stateMutability":"nonpayable"},{"type":"function","name":"compoundYield","inputs":[{"name":"tier","type":"uint8","internalType":"enum LiquidityPool.RiskTier"}],"outputs":[{"name":"newShares","type":"uint256","internalType":"uint256"}],"stateMutability":"nonpayable"},{"type":"function","name":"deployLiquidity","inputs":[{"name":"tier","type":"uint8","internalType":"enum LiquidityPool.RiskTier"},{"name":"amount","type":"uint256","internalType":"uint256"},{"name":"invoiceId","type":"uint256","internalType":"uint256"},{"name":"expectedReturn","type":"uint256","internalType":"uint256"},{"name":"dueDate","type":"uint256","internalType":"uint256"}],"outputs":[{"name":"deploymentId","type":"uint256","internalType":"uint256"}],"stateMutability":"nonpayable"},{"type":"function","name":"deposit","inputs":[{"name":"tier","type":"uint8","internalType":"enum LiquidityPool.RiskTier"},{"name":"amount","type":"uint256","internalType":"uint256"}],"outputs":[{"name":"shares","type":"uint256","internalType":"uint256"}],"stateMutability":"nonpayable"},{"type":"function","name":"emergencyWithdraw","inputs":[{"name":"tier","type":"uint8","internalType":"enum LiquidityPool.RiskTier"},{"name":"to","type":"address","internalType":"address"},{"name":"amount","type":"uint256","internalType":"uint256"}],"outputs":[],"stateMutability":"nonpayable"},{"type":"function","name":"getActiveDeployments","inputs":[{"name":"tier","type":"uint8","internalType":"enum LiquidityPool.RiskTier"}],"outputs":[{"name":"","type":"uint256[]","internalType":"uint256[]"}],"stateMutability":"view"},{"type":"function","name":"getAvailableLiquidity","inputs":[{"name":"tier","type":"uint8","internalType":"enum LiquidityPool.RiskTier"}],"outputs":[{"name":"","type":"uint256","internalType":"uint256"}],"stateMutability":"view"},{"type":"function","name":"getDeployment","inputs":[{"name":"deploymentId","type":"uint256","internalType":"uint256"}],"outputs":[{"name":"","type":"tuple","internalType":"struct LiquidityPool.Deployment","components":[{"name":"deploymentId","type":"uint256","internalType":"uint256"},{"name":"invoiceId","type":"uint256","internalType":"uint256"},{"name":"tier","type":"uint8","internalType":"enum LiquidityPool.RiskTier"},{"name":"principalAmount","type":"uint256","internalType":"uint256"},{"name":"expectedReturn","type":"uint256","internalType":"uint256"},{"name":"actualReturn","type":"uint256","internalType":"uint256"},{"name":"deployedAt","type":"uint256","internalType":"uint256"},{"name":"expectedReturnDate","type":"uint256","internalType":"uint256"},{"name":"returnedAt","type":"uint256","internalType":"uint256"},{"name":"status","type":"uint8","internalType":"enum LiquidityPool.DeploymentStatus"}]}],"stateMutability":"view"},{"type":"function","name":"getDeploymentsForInvoice","inputs":[{"name":"invoiceId","type":"uint256","internalType":"uint256"}],"outputs":[{"name":"","type":"uint256[]","internalType":"uint256[]"}],"stateMutability":"view"},{"type":"function","name":"getEffectiveAPY","inputs":[{"name":"tier","type":"uint8","internalType":"enum LiquidityPool.RiskTier"}],"outputs":[{"name":"","type":"uint256","internalType":"uint256"}],"stateMutability":"view"},{"type":"function","name":"getExchangeRate","inputs":[{"name":"tier","type":"uint8","internalType":"enum LiquidityPool.RiskTier"}],"outputs":[{"name":"","type":"uint256","internalType":"uint256"}],"stateMutability":"view"},{"type":"function","name":"getPendingYield","inputs":[{"name":"user","type":"address","internalType":"address"},{"name":"tier","type":"uint8","internalType":"enum LiquidityPool.RiskTier"}],"outputs":[{"name":"","type":"uint256","internalType":"uint256"}],"stateMutability":"view"},{"type":"function","name":"getPool","inputs":[{"name":"tier","type":"uint8","internalType":"enum LiquidityPool.RiskTier"}],"outputs":[{"name":"","type":"tuple","internalType":"struct LiquidityPool.Pool","components":[{"name":"tier","type":"uint8","internalType":"enum LiquidityPool.RiskTier"},{"name":"totalDeposits","type":"uint256","internalType":"uint256"},{"name":"totalShares","type":"uint256","internalType":"uint256"},{"name":"availableLiquidity","type":"uint256","internalType":"uint256"},{"name":"deployedLiquidity","type":"uint256","internalType":"uint256"},{"name":"pendingReturns","type":"uint256","internalType":"uint256"},{"name":"totalYieldEarned","type":"uint256","internalType":"uint256"},{"name":"totalLosses","type":"uint256","internalType":"uint256"},{"name":"targetAPY","type":"uint256","internalType":"uint256"},{"name":"minDeposit","type":"uint256","internalType":"uint256"},{"name":"maxDeposit","type":"uint256","internalType":"uint256"},{"name":"maxPoolSize","type":"uint256","internalType":"uint256"},{"name":"acceptingDeposits","type":"bool","internalType":"bool"},{"name":"lastYieldDistribution","type":"uint256","internalType":"uint256"}]}],"stateMutability":"view"},{"type":"function","name":"getRoleAdmin","inputs":[{"name":"role","type":"bytes32","internalType":"bytes32"}],"outputs":[{"name":"","type":"bytes32","internalType":"bytes32"}],"stateMutability":"view"},{"type":"function","name":"getTotalValueLocked","inputs":[],"outputs":[{"name":"","type":"uint256","internalType":"uint256"}],"stateMutability":"view"},{"type":"function","name":"getUserPosition","inputs":[{"name":"user","type":"address","internalType":"address"},{"name":"tier","type":"uint8","internalType":"enum LiquidityPool.RiskTier"}],"outputs":[{"name":"","type":"tuple","internalType":"struct LiquidityPool.UserPosition","components":[{"name":"shares","type":"uint256","internalType":"uint256"},{"name":"depositedValue","type":"uint256","internalType":"uint256"},{"name":"lastDepositAt","type":"uint256","internalType":"uint256"},{"name":"pendingYield","type":"uint256","internalType":"uint256"},{"name":"totalYieldClaimed","type":"uint256","internalType":"uint256"}]}],"stateMutability":"view"},{"type":"function","name":"getUtilizationRate","inputs":[{"name":"tier","type":"uint8","internalType":"enum LiquidityPool.RiskTier"}],"outputs":[{"name":"","type":"uint256","internalType":"uint256"}],"stateMutability":"view"},{"type":"function","name":"grantRole","inputs":[{"name":"role","type":"bytes32","internalType":"bytes32"},{"name":"account","type":"address","internalType":"address"}],"outputs":[],"stateMutability":"nonpayable"},{"type":"function","name":"hasRole","inputs":[{"name":"role","type":"bytes32","internalType":"bytes32"},{"name":"account","type":"address","internalType":"address"}],"outputs":[{"name":"","type":"bool","internalType":"bool"}],"stateMutability":"view"},{"type":"function","name":"initializePool","inputs":[{"name":"tier","type":"uint8","internalType":"enum LiquidityPool.RiskTier"},{"name":"targetAPY","type":"uint256","internalType":"uint256"},{"name":"minDeposit","type":"uint256","internalType":"uint256"},{"name":"maxDeposit","type":"uint256","internalType":"uint256"},{"name":"maxPoolSize","type":"uint256","internalType":"uint256"}],"outputs":[],"stateMutability":"nonpayable"},{"type":"function","name":"pauseDeposits","inputs":[{"name":"tier","type":"uint8","internalType":"enum LiquidityPool.RiskTier"}],"outputs":[],"stateMutability":"nonpayable"},{"type":"function","name":"protocolFeeBps","inputs":[],"outputs":[{"name":"","type":"uint256","internalType":"uint256"}],"stateMutability":"view"},{"type":"function","name":"recordDefault","inputs":[{"name":"deploymentId","type":"uint256","internalType":"uint256"},{"name":"recoveredAmount","type":"uint256","internalType":"uint256"}],"outputs":[],"stateMutability":"nonpayable"},{"type":"function","name":"recordPartialReturn","inputs":[{"name":"deploymentId","type":"uint256","internalType":"uint256"},{"name":"partialAmount","type":"uint256","internalType":"uint256"}],"outputs":[],"stateMutability":"nonpayable"},{"type":"function","name":"recordReturn","inputs":[{"name":"deploymentId","type":"uint256","internalType":"uint256"},{"name":"returnedAmount","type":"uint256","internalType":"uint256"}],"outputs":[],"stateMutability":"nonpayable"},{"type":"function","name":"renounceRole","inputs":[{"name":"role","type":"bytes32","internalType":"bytes32"},{"name":"callerConfirmation","type":"address","internalType":"address"}],"outputs":[],"stateMutability":"nonpayable"},{"type":"function","name":"resumeDeposits","inputs":[{"name":"tier","type":"uint8","internalType":"enum LiquidityPool.RiskTier"}],"outputs":[],"stateMutability":"nonpayable"},{"type":"function","name":"revokeRole","inputs":[{"name":"role","type":"bytes32","internalType":"bytes32"},{"name":"account","type":"address","internalType":"address"}],"outputs":[],"stateMutability":"nonpayable"},{"type":"function","name":"setProtocolFee","inputs":[{"name":"feeBps","type":"uint256","internalType":"uint256"}],"outputs":[],"stateMutability":"nonpayable"},{"type":"function","name":"sharesToAmount","inputs":[{"name":"tier","type":"uint8","internalType":"enum LiquidityPool.RiskTier"},{"name":"shares","type":"uint256","internalType":"uint256"}],"outputs":[{"name":"","type":"uint256","internalType":"uint256"}],"stateMutability":"view"},{"type":"function","name":"stablecoin","inputs":[],"outputs":[{"name":"","type":"address","internalType":"contract IERC20"}],"stateMutability":"view"},{"type":"function","name":"supportsInterface","inputs":[{"name":"interfaceId","type":"bytes4","internalType":"bytes4"}],"outputs":[{"name":"","type":"bool","internalType":"bool"}],"stateMutability":"view"},{"type":"function","name":"updatePoolConfig","inputs":[{"name":"tier","type":"uint8","internalType":"enum LiquidityPool.RiskTier"},{"name":"targetAPY","type":"uint256","internalType":"uint256"},{"name":"minDeposit","type":"uint256","internalType":"uint256"},{"name":"maxDeposit","type":"uint256","internalType":"uint256"},{"name":"maxPoolSize","type":"uint256","internalType":"uint256"}],"outputs":[],"stateMutability":"nonpayable"},{"type":"function","name":"withdraw","inputs":[{"name":"tier","type":"uint8","internalType":"enum LiquidityPool.RiskTier"},{"name":"shares","type":"uint256","internalType":"uint256"}],"outputs":[{"name":"amount","type":"uint256","internalType":"uint256"}],"stateMutability":"nonpayable"},{"type":"function","name":"withdrawProtocolFees","inputs":[{"name":"to","type":"address","internalType":"address"}],"outputs":[],"stateMutability":"nonpayable"},{"type":"event","name":"DeploymentDefaulted","inputs":[{"name":"deploymentId","type":"uint256","indexed":true,"internalType":"uint256"},{"name":"lossAmount","type":"uint256","indexed":false,"internalType":"uint256"},{"name":"recoveredAmount","type":"uint256","indexed":false,"internalType":"uint256"}],"anonymous":false},{"type":"event","name":"Deposited","inputs":[{"name":"user","type":"address","indexed":true,"internalType":"address"},{"name":"tier","type":"uint8","indexed":true,"internalType":"enum LiquidityPool.RiskTier"},{"name":"amount","type":"uint256","indexed":false,"internalType":"uint256"},{"name":"shares","type":"uint256","indexed":false,"internalType":"uint256"}],"anonymous":false},{"type":"event","name":"DepositsEnabled","inputs":[{"name":"tier","type":"uint8","indexed":true,"internalType":"enum LiquidityPool.RiskTier"}],"anonymous":false},{"type":"event","name":"DepositsPaused","inputs":[{"name":"tier","type":"uint8","indexed":true,"internalType":"enum LiquidityPool.RiskTier"}],"anonymous":false},{"type":"event","name":"LiquidityDeployed","inputs":[{"name":"deploymentId","type":"uint256","indexed":true,"internalType":"uint256"},{"name":"tier","type":"uint8","indexed":true,"internalType":"enum LiquidityPool.RiskTier"},{"name":"invoiceId","type":"uint256","indexed":false,"internalType":"uint256"},{"name":"amount","type":"uint256","indexed":false,"internalType":"uint256"}],"anonymous":false},{"type":"event","name":"LiquidityReturned","inputs":[{"name":"deploymentId","type":"uint256","indexed":true,"internalType":"uint256"},{"name":"returnedAmount","type":"uint256","indexed":false,"internalType":"uint256"},{"name":"yieldEarned","type":"uint256","indexed":false,"internalType":"uint256"}],"anonymous":false},{"type":"event","name":"PoolConfigUpdated","inputs":[{"name":"tier","type":"uint8","indexed":true,"internalType":"enum LiquidityPool.RiskTier"}],"anonymous":false},{"type":"event","name":"PoolInitialized","inputs":[{"name":"tier","type":"uint8","indexed":true,"internalType":"enum LiquidityPool.RiskTier"},{"name":"targetAPY","type":"uint256","indexed":false,"internalType":"uint256"},{"name":"maxPoolSize","type":"uint256","indexed":false,"internalType":"uint256"}],"anonymous":false},{"type":"event","name":"ProtocolFeeCollected","inputs":[{"name":"amount","type":"uint256","indexed":false,"internalType":"uint256"}],"anonymous":false},{"type":"event","name":"RoleAdminChanged","inputs":[{"name":"role","type":"bytes32","indexed":true,"internalType":"bytes32"},{"name":"previousAdminRole","type":"bytes32","indexed":true,"internalType":"bytes32"},{"name":"newAdminRole","type":"bytes32","indexed":true,"internalType":"bytes32"}],"anonymous":false},{"type":"event","name":"RoleGranted","inputs":[{"name":"role","type":"bytes32","indexed":true,"internalType":"bytes32"},{"name":"account","type":"address","indexed":true,"internalType":"address"},{"name":"sender","type":"address","indexed":true,"internalType":"address"}],"anonymous":false},{"type":"event","name":"RoleRevoked","inputs":[{"name":"role","type":"bytes32","indexed":true,"internalType":"bytes32"},{"name":"account","type":"address","indexed":true,"internalType":"address"},{"name":"sender","type":"address","indexed":true,"internalType":"address"}],"anonymous":false},{"type":"event","name":"Withdrawn","inputs":[{"name":"user","type":"address","indexed":true,"internalType":"address"},{"name":"tier","type":"uint8","indexed":true,"internalType":"enum LiquidityPool.RiskTier"},{"name":"shares","type":"uint256","indexed":false,"internalType":"uint256"},{"name":"amount","type":"uint256","indexed":false,"internalType":"uint256"}],"anonymous":false},{"type":"event","name":"YieldClaimed","inputs":[{"name":"user","type":"address","indexed":true,"internalType":"address"},{"name":"tier","type":"uint8","indexed":true,"internalType":"enum LiquidityPool.RiskTier"},{"name":"amount","type":"uint256","indexed":false,"internalType":"uint256"}],"anonymous":false},{"type":"event","name":"YieldCompounded","inputs":[{"name":"user","type":"address","indexed":true,"internalType":"address"},{"name":"tier","type":"uint8","indexed":true,"internalType":"enum LiquidityPool.RiskTier"},{"name":"yieldAmount","type":"uint256","indexed":false,"internalType":"uint256"},{"name":"newShares","type":"uint256","indexed":false,"internalType":"uint256"}],"anonymous":false},{"type":"error","name":"AccessControlBadConfirmation","inputs":[]},{"type":"error","name":"AccessControlUnauthorizedAccount","inputs":[{"name":"account","type":"address","internalType":"address"},{"name":"neededRole","type":"bytes32","internalType":"bytes32"}]},{"type":"error","name":"AddressEmptyCode","inputs":[{"name":"target","type":"address","internalType":"address"}]},{"type":"error","name":"AddressInsufficientBalance","inputs":[{"name":"account","type":"address","internalType":"address"}]},{"type":"error","name":"DeploymentNotActive","inputs":[]},{"type":"error","name":"DeploymentNotFound","inputs":[]},{"type":"error","name":"ExceedsMaxDeposit","inputs":[]},{"type":"error","name":"ExceedsPoolCapacity","inputs":[]},{"type":"error","name":"FailedInnerCall","inputs":[]},{"type":"error","name":"InsufficientDeposit","inputs":[]},{"type":"error","name":"InsufficientLiquidity","inputs":[]},{"type":"error","name":"InsufficientShares","inputs":[]},{"type":"error","name":"InvalidAmount","inputs":[]},{"type":"error","name":"NoPendingYield","inputs":[]},{"type":"error","name":"PoolAlreadyInitialized","inputs":[]},{"type":"error","name":"PoolNotAcceptingDeposits","inputs":[]},{"type":"error","name":"PoolNotInitialized","inputs":[]},{"type":"error","name":"ReentrancyGuardReentrantCall","inputs":[]},{"type":"error","name":"SafeERC20FailedOperation","inputs":[{"name":"token","type":"address","internalType":"address"}]},{"type":"error","name":"WithdrawalLocked","inputs":[]},{"type":"error","name":"ZeroShares","inputs":[]}],"bytecode":{"object":"0x60a034620000fa57601f6200270138819003918201601f19168301916001600160401b03831184841017620000ff578084926040948552833981010312620000fa576200005a6020620000528362000115565b920162000115565b60018080556007556101f46008556001600160a01b03918216918215908115620000ee575b50620000dc576200009f9160805262000098816200012a565b50620001aa565b5060405161249490816200024d823960805181818161032a0152818161045701528181610d1e01528181611014015281816113b501526116f50152f35b60405163162908e360e11b8152600490fd5b9050811615386200007f565b600080fd5b634e487b7160e01b600052604160045260246000fd5b51906001600160a01b0382168203620000fa57565b6001600160a01b031660008181527fad3228b676f7d3cd4284a5443f17f1962b36e491b30a40b2405849e597ba5fb5602052604081205490919060ff16620001a657818052816020526040822081835260205260408220600160ff198254161790553391600080516020620026e18339815191528180a4600190565b5090565b6001600160a01b031660008181527f729ef9451dd492832bd2a98139702ced95dfa0cec7e99526dbbcb957abcbc47660205260408120549091907f6077685936c8169d09204a1d97db12e41713588c38e1d29a61867d3dcee98aff9060ff166200024757808352826020526040832082845260205260408320600160ff19825416179055600080516020620026e1833981519152339380a4600190565b50509056fe608080604052600436101561001357600080fd5b60003560e01c90816301ffc9a71461199a57508063066c94c31461192e5780631c8aca27146118a4578063248a9ca31461187557806325da1698146117195780632d80caa5146116b15780632ed317c6146115665780632f2ff15d1461152757806330e533c1146114b757806331d1c1b31461149957806335659fb81461147b57806336568abe146114345780633f489914146112d15780634d02a3f7146112a957806356d7356814611280578063578a2b32146110d95780635ec765c11461106f5780636724920d14610f8957806370712c0914610f6157806374c3dd1114610d90578063787dce3d14610d6657806386d8c9f814610caf5780638d658b3114610c0457806391d1485414610bb75780639ab2928314610b4a5780639d7cdc3814610b19578063a217fddf14610afd578063b1bfda1a146109c6578063b26025aa1461093f578063c5be5c2c146108c5578063c9936f6d146107d3578063ccd7938214610600578063ccdcb9ec146105cb578063d337bf5114610514578063d4d4f4ab146104e0578063d547741f1461049f578063de8178c814610486578063e9cbd82214610441578063ecd0026114610418578063f4d4c9d7146102175763f6b1f6e7146101e257600080fd5b346102125760203660031901126102125760043560038110156102125761020a602091612097565b604051908152f35b600080fd5b346102125761022536611aa2565b9061022e611f5e565b61023781611cf5565b90600b82015480156104065760ff600c84015416156103f457600983015484106103e257600a83015484116103d05760018301928354916102788684611d57565b116103bf5761028785846120d8565b9384156103ad5761029a86600394611d57565b9055600281016102ab858254611d57565b9055016102b9848254611d57565b90553360005260036020526102d2816040600020611d27565b6102dd838254611d57565b8155600181016102ee858254611d57565b905560024291015561034e6040516323b872dd60e01b60208201523360248201523060448201528460648201526064815261032881611dc8565b7f0000000000000000000000000000000000000000000000000000000000000000611e21565b60038110156103975760209260405190815282848201527f2ec61e8cb9905b0de268566bd6b90da9952dd7672a5bf79ac53ef7f2064a09a660403392a360018055604051908152f35b634e487b7160e01b600052602160045260246000fd5b604051639811e0c760e01b8152600490fd5b604051629e085160e21b8152600490fd5b60405163e4bac01b60e01b8152600490fd5b60405163070f6eed60e11b8152600490fd5b6040516377d4347b60e01b8152600490fd5b60405163486aa30760e01b8152600490fd5b346102125760003660031901126102125760206040516000805160206123ff8339815191528152f35b34610212576000366003190112610212576040517f00000000000000000000000000000000000000000000000000000000000000006001600160a01b03168152602090f35b3461021257602061020a61049936611aa2565b906120d8565b34610212576040366003190112610212576104de6004356104be611a2e565b908060005260006020526104d9600160406000200154611bdc565b611c80565b005b3461021257602036600319011261021257600435600381101561021257600361050a602092611cf5565b0154604051908152f35b346102125760a061056861052736611ac1565b906000608060405161053881611dc8565b8281528260208201528260408201528260608201520152600180851b031660005260036020526040600020611d27565b60405161057481611dc8565b81549182825260018101546020830190815260028201549060408401918252608060046003850154946060870195865201549401938452604051948552516020850152516040840152516060830152516080820152f35b34610212576020670de0b6b3a76400006105f76105f16105ea36611aa2565b91906122cd565b90611f8e565b04604051908152f35b346102125760203660031901126102125760043560038110156102125761068c6101c09160006101a060405161063581611dac565b8281528260208201528260408201528260608201528260808201528260a08201528260c08201528260e082015282610100820152826101208201528261014082015282610160820152826101808201520152611cf5565b600d6040519161069b83611dac565b6106a960ff82541684612021565b60018101546020840152600281015460408401526003810154606084015260048101546080840152600581015460a0840152600681015460c0840152600781015460e084015260088101546101008401526009810154610120840152600a810154610140840152600b81015461016084015260ff600c82015416151561018084015201546101a08201526101a060405191610745838251611a44565b6020810151602084015260408101516040840152606081015160608401526080810151608084015260a081015160a084015260c081015160c084015260e081015160e0840152610100810151610100840152610120810151610120840152610140810151610140840152610160810151610160840152610180810151151561018084015201516101a0820152f35b34610212576020366003190112610212576004356003811015610212576107f8611f5e565b33600052600360205261080f816040600020611d27565b906003820190815480156108b35761082682611cf5565b93600b850154156104065761083b82846120d8565b9384156103ad576001600092600260209801610858888254611d57565b9055610865878254611d57565b815501610873848254611d57565b90555560405190815282848201527f6d08d50b1617342e8aef1c1e60f1e912c64d28afde6c42cb229748fc50a24eb260403392a360018055604051908152f35b60405163a852c15d60e01b8152600490fd5b34610212576020806003193601126102125760043560005260068152604060002090604051908181845491828152019360005281600020916000905b828210610928576109248561091881890382611dfe565b60405191829182611a67565b0390f35b835486529485019460019384019390910190610901565b3461021257600036600319011261021257600260209081527fac33ff75c19e70fe83507db0d683fd3465c996598dc972688b7ace676c89077c5460016000527fe90b7bceb6e7df5418fb78d8ee546e97c83a08bbccc01a0644d599ccd2a7c2e15461020a916109ae9190611d57565b60026000526002835260016040600020015490611d57565b34610212576109d436611a51565b6109dc611b92565b8160005260046020526040600020805415610aeb57600981019182549060ff8216600481101561039757610ad957610ac28560ff8560077f58425df2a65a5c9aff855ad5ffcaa9085ee2706837e8f38b39f3980c9b2f69bc986004600260409a0193610a4a86865416611cf5565b600382015490938a821115610acf576003610a658c84611f81565b9c5b8c6005860155426008860155891916179055610a87838501918254611f81565b90550154610a9a60058301918254611f81565b905560038101610aab888254611d57565b905501610ab9878254611d57565b90555416612348565b82519182526020820152a2005b600360009c610a67565b604051634016084560e01b8152600490fd5b604051630a92fe1f60e31b8152600490fd5b3461021257600036600319011261021257602060405160008152f35b34610212576020600361050a610b2e36611ac1565b6001600160a01b03909116600090815283855260409020611d27565b3461021257602036600319011261021257600435600381101561021257610b6f611af0565b610b7881611cf5565b600b8101541561040657600c01805460ff191660011790557f9c64b70045c8833f009f9bbbce1b0087e83ad1a8da32a7f5a125a4e654c74bdb600080a2005b3461021257604036600319011261021257610bd0611a2e565b600435600052600060205260406000209060018060a01b0316600052602052602060ff604060002054166040519015158152f35b3461021257610c12366119ed565b91610c1b611af0565b610c2485611cf5565b91600b8301908154610c9d578492610c3c8886611d3f565b8660088601556009850155600a84015555600c8101600160ff19825416179055600d429101556003831015610397577f739c2c62842dd09bb576ce3a689b08e4edc4fd7457b8fa8c5819511b0ff315bc9160409182519182526020820152a2005b604051637983c05160e01b8152600490fd5b3461021257606036600319011261021257600435600381101561021257610cd4611a2e565b9060443590610ce1611b58565b6001600160a01b03831615610d54578115610d5457610d01600391611cf5565b0191825492828410610d4257610d1a836104de95611f81565b90557f0000000000000000000000000000000000000000000000000000000000000000611fc1565b60405163bb55fd2760e01b8152600490fd5b60405163162908e360e11b8152600490fd5b3461021257602036600319011261021257600435610d82611b58565b6127108111610d5457600855005b3461021257610d9e366119ed565b9290610dab949294611b92565b610db483611cf5565b93600b850154156104065782600386015410610d42578215610d545760075494610ddd86612012565b60075560405191610ded83611d7a565b86835260208301908882526040840191610e078884612021565b60608501928784526080860192878452600060a08801524260c088015260e08701526000610100870152600061012087015289600052600460205260406000209186518355516001830155519160038310156103975761012093610e7060099460028501611d3f565b51600383015551600482015560a0850151600582015560c0850151600682015560e0850151600782015561010085015160088201550192015190600482101561039757610ef39260059260ff80198354169116179055610ed4856003830154611f81565b600382015560048101610ee8868254611d57565b905501918254611d57565b9055610f0783610f0284611d0e565b61205b565b836000526006602052610f1e83604060002061205b565b6003821015610397577fd32ebde7d21871cb75e56e0852209227a6369f1473b546a07f62e026acf9422460406020958593825191825287820152a3604051908152f35b346102125760203660031901126102125760043560038110156102125761020a6020916120ff565b3461021257602036600319011261021257600435600381101561021257610fae611f5e565b336000526003602052610fc5816040600020611d27565b90600382019081549182156108b3576003610fdf83611cf5565b019083825410610d425760209460006004925501610ffe848254611d57565b905561100b838254611f81565b905561103882337f0000000000000000000000000000000000000000000000000000000000000000611fc1565b6040518281527fdc1f6f7d6d241d30ffc8859021717b5fef1057cf41711b55691dbce8a83eacd1843392a360018055604051908152f35b3461021257602036600319011261021257600435600381101561021257611094611af0565b61109d81611cf5565b600b8101541561040657600c01805460ff191690557fb5e089cec6e2df3d403dfe6aa6f22505f92e0984502f028ac3097c137097fd25600080a2005b34610212576110e736611a51565b906110f0611b92565b8060005260046020526040600020805415610aeb57600981019283549060ff8216600481101561039757610ad9578261120e8560ff604095600260008051602061243f83398151915298019061114883835416611cf5565b906004600388015497888a1160001461127857611165898b611f81565b985b6127106111766008548c611f8e565b049e8b82111561126e57600261118c8d84611f81565b955b8d60058601554260088601558919161790556111ae838601918254611f81565b905501546111c160058401918254611f81565b90556111cd8c89611f81565b6111dc60038401918254611d57565b90556111ed60078301918254611d57565b90558a861161124d575b506112048a600954611d57565b6009555416612348565b82519182526020820152a28061122057005b60207f414d7d8eae12f648156e75499fc0a5a10aa84f2745c6f791b0453cb17f1e17fa91604051908152a1005b611266600661125c8d89611f81565b9201918254611d57565b90558a6111f7565b600260009561118e565b600098611167565b3461021257600036600319011261021257602060405160008051602061241f8339815191528152f35b346102125760203660031901126102125760043560038110156102125761020a6020916122cd565b34610212576112df36611aa2565b906112e8611f5e565b6112f181611cf5565b90600b8201541561040657336000526003602052611313816040600020611d27565b8381541061142257670de0b6b3a7640000611336611330846122cd565b86611f8e565b04928315610d54576003810190815490858210610d42576113799160018260028994016113648b8254611f81565b905501611372838254611f81565b9055611f81565b90556113ac600161138b868454611f81565b9283815501916113a6866113a0838654611f8e565b92611d57565b90611fa1565b90556113d982337f0000000000000000000000000000000000000000000000000000000000000000611fc1565b60038110156103975760209260405190815282848201527fa626a461841cf0222d91b75e126eaf6fd0def6f6f8f2e4e9cef6e0468f2b625d60403392a360018055604051908152f35b604051633999656760e01b8152600490fd5b346102125760403660031901126102125761144d611a2e565b336001600160a01b03821603611469576104de90600435611c80565b60405163334bd91960e11b8152600490fd5b34610212576000366003190112610212576020600854604051908152f35b34610212576000366003190112610212576020600954604051908152f35b3461021257602080600319360112610212576004356003811015610212576114de90611d0e565b90604051908181845491828152019360005281600020916000905b828210611510576109248561091881890382611dfe565b8354865294850194600193840193909101906114f9565b34610212576040366003190112610212576104de600435611546611a2e565b90806000526000602052611561600160406000200154611bdc565b611c02565b346102125761157436611a51565b9061157d611b92565b806000526004602052604060002091825415610aeb576009830192835460ff8116600481101561039757610ad957839060028301906115bf60ff835416611cf5565b600385015494858711156116a9576115d78688611f81565b955b6008546115e69088611f8e565b6127109004996115f68b89611f81565b9489600585015542600885015560ff19166001179055600483019081549061161d91611f81565b905560040154600582019081549061163491611f81565b90556116408887611f81565b600382019081549061165191611d57565b90556006019081549061166391611d57565b9055856009549061167391611d57565b6009555460ff169061168491612348565b6040519182526020820152604060008051602061243f83398151915291a28061122057005b6000956115d9565b34610212576020366003190112610212576116ca611a18565b6116d2611b58565b6001600160a01b03811615610d54576009548015610d54576104de9160006009557f0000000000000000000000000000000000000000000000000000000000000000611fc1565b346102125760203660031901126102125760405161173681611d7a565b6000815260006020820152600060408201526000606082015260006080820152600060a0820152600060c0820152600060e0820152610100600081830152600061012080930152600435600052600460205260406000206040519161179a83611d7a565b815483526001820154916020840192835260ff6002820154166117c1604086019182612021565b60038201546060860190815260048301546080870190815260058401549060a0880191825260068501549260c0890193845260078601549460e08a0195865260ff60096008890154988a8d01998a52015416908b8b019960048310156103975761183f928b526040519b518c525160208c01525160408b0190611a44565b5160608901525160808801525160a08701525160c08601525160e085015251908301525160048110156103975761014092820152f35b346102125760203660031901126102125760043560005260006020526020600160406000200154604051908152f35b3461021257606080600319360112610212576118be611a18565b602435906003821015610212576118d891604435916121b0565b919060405192839115158252602060408184015281519182604085015260005b838110611918575050600083830185015250601f01601f19168101030190f35b81810183015187820187015286945082016118f8565b346102125761193c366119ed565b92611945611af0565b61194e85611cf5565b600b81019384541561040657600a92600883015560098201550155556003811015610397577ff2f5da1d53800452df9bb3cbfa088a696577885dc02a8834b797307dfefd9428600080a2005b34610212576020366003190112610212576004359063ffffffff60e01b821680920361021257602091637965db0b60e01b81149081156119dc575b5015158152f35b6301ffc9a760e01b149050836119d5565b60a0906003190112610212576004356003811015610212579060243590604435906064359060843590565b600435906001600160a01b038216820361021257565b602435906001600160a01b038216820361021257565b9060038210156103975752565b6040906003190112610212576004359060243590565b6020908160408183019282815285518094520193019160005b828110611a8e575050505090565b835185529381019392810192600101611a80565b6040906003190112610212576004356003811015610212579060243590565b6040906003190112610212576004356001600160a01b0381168103610212579060243560038110156102125790565b3360009081527f729ef9451dd492832bd2a98139702ced95dfa0cec7e99526dbbcb957abcbc476602052604090205460008051602061241f8339815191529060ff1615611b3a5750565b6044906040519063e2517d3f60e01b82523360048301526024820152fd5b3360009081527fad3228b676f7d3cd4284a5443f17f1962b36e491b30a40b2405849e597ba5fb5602052604081205460ff1615611b3a5750565b3360009081527f740c5e3e456bed56f053f960110118ba9b95a1f5359a82283516fb2e81b6e37e60205260409020546000805160206123ff8339815191529060ff1615611b3a5750565b80600052600060205260406000203360005260205260ff6040600020541615611b3a5750565b9060009180835282602052604083209160018060a01b03169182845260205260ff60408420541615600014611c7b57808352826020526040832082845260205260408320600160ff198254161790557f2f8788117e7eff1d82e926ec794901d17c78024a50270940304540a733656f0d339380a4600190565b505090565b9060009180835282602052604083209160018060a01b03169182845260205260ff604084205416600014611c7b5780835282602052604083208284526020526040832060ff1981541690557ff6391f5c32d9c69d2a47ea670b442974b53935d1edc7fd64eb21e047a839171b339380a4600190565b6003811015610397576000526002602052604060002090565b6003811015610397576000526005602052604060002090565b90600381101561039757600052602052604060002090565b9060038110156103975760ff80198354169116179055565b91908201809211611d6457565b634e487b7160e01b600052601160045260246000fd5b61014081019081106001600160401b03821117611d9657604052565b634e487b7160e01b600052604160045260246000fd5b6101c081019081106001600160401b03821117611d9657604052565b60a081019081106001600160401b03821117611d9657604052565b604081019081106001600160401b03821117611d9657604052565b601f909101601f19168101906001600160401b03821190821017611d9657604052565b60018060a01b031690600080826020829451910182865af13d15611eef573d906001600160401b038211611edb5790611e7c9160405191611e6c6020601f19601f8401160184611dfe565b82523d84602084013e5b84611efb565b908151918215159283611eac575b505050611e945750565b60249060405190635274afe760e01b82526004820152fd5b819293509060209181010312611ed7576020015190811591821503611ed45750388080611e8a565b80fd5b5080fd5b634e487b7160e01b83526041600452602483fd5b611e7c90606090611e76565b90611f225750805115611f1057805190602001fd5b604051630a12f52160e11b8152600490fd5b81511580611f55575b611f33575090565b604051639996b31560e01b81526001600160a01b039091166004820152602490fd5b50803b15611f2b565b600260015414611f6f576002600155565b604051633ee5aeb560e01b8152600490fd5b91908203918211611d6457565b81810292918115918404141715611d6457565b8115611fab570490565b634e487b7160e01b600052601260045260246000fd5b60405163a9059cbb60e01b60208201526001600160a01b03909216602483015260448083019390935291815260808101916001600160401b03831182841017611d965761201092604052611e21565b565b6000198114611d645760010190565b60038210156103975752565b80548210156120455760005260206000200190600090565b634e487b7160e01b600052603260045260246000fd5b80549190600160401b831015611d96578261207e9160016120109501815561202d565b90919082549060031b91821b91600019901b1916179055565b6120a090611cf5565b60018101549081156120d157600401549061271091828102928184041490151715611d64576120ce91611fa1565b90565b5050600090565b90670de0b6b3a764000090818102918183041490151715611d64576113a66120ce926122cd565b61210890611cf5565b6001810154801580156121a2575b6120d157612128600d83015442611f81565b918215612192576007600682015491015460009181811160001461219a576121509250611f81565b905b8115612192576301e133808202916301e1337f1981840401611d645764496cebb80002918083046127101490151715611d64576120ce926113a691611f8e565b505050600090565b505090612152565b50600d820154421115612116565b92916121bb82611cf5565b9060009460018060a01b0316855260036020526040926121dd81858820611d27565b600b8401541561229b578290541061226b576122076003926105f1670de0b6b3a7640000936122cd565b0491015410612234578051600193909160208301906001600160401b03821184831017611edb5752815290565b5161223e81611de3565b601e81527f496e73756666696369656e74206c697175696469747920696e20706f6f6c0000602082015290565b5050505161227881611de3565b6013815272496e73756666696369656e742073686172657360681b602082015290565b50505050516122a981611de3565b6014815273141bdbdb081b9bdd081a5b9a5d1a585b1a5e995960621b602082015290565b6122d690611cf5565b600281015490811561233a5760076122f76001830154600684015490611d57565b910154808211156123305761230b91611f81565b905b670de0b6b3a764000091828102928184041490151715611d64576120ce91611fa1565b505060009061230d565b5050670de0b6b3a764000090565b61235190611d0e565b9081549160005b838110612366575b50505050565b82612371828461202d565b919054600392831b1c1461238e575061238990612012565b612358565b939192506000199182810191908211611d645761207e6123b16123be938661202d565b905490871b1c918561202d565b815480156123e8578101926123d3848461202d565b81939154921b1b191690555538808080612360565b634e487b7160e01b600052603160045260246000fdfefc425f2263d0df187444b70e47283d622c70181c5baebb1306a01edba1ce184c6077685936c8169d09204a1d97db12e41713588c38e1d29a61867d3dcee98aff7c5d5b8bdb6becbe56a010433580ddac5e4036c2f50743d6cde7bc39cb6e5591a26469706673582212205b1d95228f61619c588333584b2404692aef0101d14ff1d8bdee632499e05ad064736f6c634300081400332f8788117e7eff1d82e926ec794901d17c78024a50270940304540a733656f0d","linkReferences":{}},"methodIdentifiers":{"DEFAULT_ADMIN_ROLE()":"a217fddf","DEPLOYER_ROLE()":"ecd00261","POOL_MANAGER_ROLE()":"56d73568","accumulatedProtocolFees()":"31d1c1b3","amountToShares(uint8,uint256)":"de8178c8","canWithdraw(address,uint8,uint256)":"1c8aca27","claimYield(uint8)":"6724920d","compoundYield(uint8)":"c9936f6d","deployLiquidity(uint8,uint256,uint256,uint256,uint256)":"74c3dd11","deposit(uint8,uint256)":"f4d4c9d7","emergencyWithdraw(uint8,address,uint256)":"86d8c9f8","getActiveDeployments(uint8)":"30e533c1","getAvailableLiquidity(uint8)":"d4d4f4ab","getDeployment(uint256)":"25da1698","getDeploymentsForInvoice(uint256)":"c5be5c2c","getEffectiveAPY(uint8)":"70712c09","getExchangeRate(uint8)":"4d02a3f7","getPendingYield(address,uint8)":"9d7cdc38","getPool(uint8)":"ccd79382","getRoleAdmin(bytes32)":"248a9ca3","getTotalValueLocked()":"b26025aa","getUserPosition(address,uint8)":"d337bf51","getUtilizationRate(uint8)":"f6b1f6e7","grantRole(bytes32,address)":"2f2ff15d","hasRole(bytes32,address)":"91d14854","initializePool(uint8,uint256,uint256,uint256,uint256)":"8d658b31","pauseDeposits(uint8)":"5ec765c1","protocolFeeBps()":"35659fb8","recordDefault(uint256,uint256)":"b1bfda1a","recordPartialReturn(uint256,uint256)":"578a2b32","recordReturn(uint256,uint256)":"2ed317c6","renounceRole(bytes32,address)":"36568abe","resumeDeposits(uint8)":"9ab29283","revokeRole(bytes32,address)":"d547741f","setProtocolFee(uint256)":"787dce3d","sharesToAmount(uint8,uint256)":"ccdcb9ec","stablecoin()":"e9cbd822","supportsInterface(bytes4)":"01ffc9a7","updatePoolConfig(uint8,uint256,uint256,uint256,uint256)":"066c94c3","withdraw(uint8,uint256)":"3f489914","withdrawProtocolFees(address)":"2d80caa5"},"id":44}