{"abi":[{"type":"constructor","inputs":[{"name":"_stablecoin","type":"address","internalType":"address"},{"name":"_admin","type":"address","internalType":"address"}],"stateMutability":"nonpayable"},{"type":"function","name":"DEFAULT_ADMIN_ROLE","inputs":[],"outputs":[{"name":"","type":"bytes32","internalType":"bytes32"}],"stateMutability":"view"},{"type":"function","name":"DEPLOYER_ROLE","inputs":[],"outputs":[{"name":"","type":"bytes32","internalType":"bytes32"}],"stateMutability":"view"},{"type":"function","name":"POOL_MANAGER_ROLE","inputs":[],"outputs":[{"name":"","type":"bytes32","internalType":"bytes32"}],"stateMutability":"view"},{"type":"function","name":"accumulatedProtocolFees","inputs":[],"outputs":[{"name":"","type":"uint256","internalType":"uint256"}],"stateMutability":"view"},{"type":"function","name":"amountToShares","inputs":[{"name":"tier","type":"uint8","internalType":"enum LiquidityPool.RiskTier"},{"name":"amount","type":"uint256","internalType":"uint256"}],"outputs":[{"name":"","type":"uint256","internalType":"uint256"}],"stateMutability":"view"},{"type":"function","name":"canWithdraw","inputs":[{"name":"user","type":"address","internalType":"address"},{"name":"tier","type":"uint8","internalType":"enum LiquidityPool.RiskTier"},{"name":"shares","type":"uint256","internalType":"uint256"}],"outputs":[{"name":"","type":"bool","internalType":"bool"},{"name":"","type":"string","internalType":"string"}],"stateMutability":"view"},{"type":"function","name":"claimYield","inputs":[{"name":"tier","type":"uint8","internalType":"enum LiquidityPool.RiskTier"}],"outputs":[{"name":"amount","type":"uint256","internalType":"uint256"}],"stateMutability":"nonpayable"},{"type":"function","name":"compoundYield","inputs":[{"name":"tier","type":"uint8","internalType":"enum LiquidityPool.RiskTier"}],"outputs":[{"name":"newShares","type":"uint256","internalType":"uint256"}],"stateMutability":"nonpayable"},{"type":"function","name":"deployLiquidity","inputs":[{"name":"tier","type":"uint8","internalType":"enum LiquidityPool.RiskTier"},{"name":"amount","type":"uint256","internalType":"uint256"},{"name":"invoiceId","type":"uint256","internalType":"uint256"},{"name":"expectedReturn","type":"uint256","internalType":"uint256"},{"name":"dueDate","type":"uint256","internalType":"uint256"}],"outputs":[{"name":"deploymentId","type":"uint256","internalType":"uint256"}],"stateMutability":"nonpayable"},{"type":"function","name":"deposit","inputs":[{"name":"tier","type":"uint8","internalType":"enum LiquidityPool.RiskTier"},{"name":"amount","type":"uint256","internalType":"uint256"}],"outputs":[{"name":"shares","type":"uint256","internalType":"uint256"}],"stateMutability":"nonpayable"},{"type":"function","name":"emergencyWithdraw","inputs":[{"name":"tier","type":"uint8","internalType":"enum LiquidityPool.RiskTier"},{"name":"to","type":"address","internalType":"address"},{"name":"amount","type":"uint256","internalType":"uint256"}],"outputs":[],"stateMutability":"nonpayable"},{"type":"function","name":"getActiveDeployments","inputs":[{"name":"tier","type":"uint8","internalType":"enum LiquidityPool.RiskTier"}],"outputs":[{"name":"","type":"uint256[]","internalType":"uint256[]"}],"stateMutability":"view"},{"type":"function","name":"getAvailableLiquidity","inputs":[{"name":"tier","type":"uint8","internalType":"enum LiquidityPool.RiskTier"}],"outputs":[{"name":"","type":"uint256","internalType":"uint256"}],"stateMutability":"view"},{"type":"function","name":"getDeployment","inputs":[{"name":"deploymentId","type":"uint256","internalType":"uint256"}],"outputs":[{"name":"","type":"tuple","internalType":"struct LiquidityPool.Deployment","components":[{"name":"deploymentId","type":"uint256","internalType":"uint256"},{"name":"invoiceId","type":"uint256","internalType":"uint256"},{"name":"tier","type":"uint8","internalType":"enum LiquidityPool.RiskTier"},{"name":"principalAmount","type":"uint256","internalType":"uint256"},{"name":"expectedReturn","type":"uint256","internalType":"uint256"},{"name":"actualReturn","type":"uint256","internalType":"uint256"},{"name":"deployedAt","type":"uint256","internalType":"uint256"},{"name":"expectedReturnDate","type":"uint256","internalType":"uint256"},{"name":"returnedAt","type":"uint256","internalType":"uint256"},{"name":"status","type":"uint8","internalType":"enum LiquidityPool.DeploymentStatus"}]}],"stateMutability":"view"},{"type":"function","name":"getDeploymentsForInvoice","inputs":[{"name":"invoiceId","type":"uint256","internalType":"uint256"}],"outputs":[{"name":"","type":"uint256[]","internalType":"uint256[]"}],"stateMutability":"view"},{"type":"function","name":"getEffectiveAPY","inputs":[{"name":"tier","type":"uint8","internalType":"enum LiquidityPool.RiskTier"}],"outputs":[{"name":"","type":"uint256","internalType":"uint256"}],"stateMutability":"view"},{"type":"function","name":"getExchangeRate","inputs":[{"name":"tier","type":"uint8","internalType":"enum LiquidityPool.RiskTier"}],"outputs":[{"name":"","type":"uint256","internalType":"uint256"}],"stateMutability":"view"},{"type":"function","name":"getPendingYield","inputs":[{"name":"user","type":"address","internalType":"address"},{"name":"tier","type":"uint8","internalType":"enum LiquidityPool.RiskTier"}],"outputs":[{"name":"","type":"uint256","internalType":"uint256"}],"stateMutability":"view"},{"type":"function","name":"getPool","inputs":[{"name":"tier","type":"uint8","internalType":"enum LiquidityPool.RiskTier"}],"outputs":[{"name":"","type":"tuple","internalType":"struct LiquidityPool.Pool","components":[{"name":"tier","type":"uint8","internalType":"enum LiquidityPool.RiskTier"},{"name":"totalDeposits","type":"uint256","internalType":"uint256"},{"name":"totalShares","type":"uint256","internalType":"uint256"},{"name":"availableLiquidity","type":"uint256","internalType":"uint256"},{"name":"deployedLiquidity","type":"uint256","internalType":"uint256"},{"name":"pendingReturns","type":"uint256","internalType":"uint256"},{"name":"totalYieldEarned","type":"uint256","internalType":"uint256"},{"name":"totalLosses","type":"uint256","internalType":"uint256"},{"name":"targetAPY","type":"uint256","internalType":"uint256"},{"name":"minDeposit","type":"uint256","internalType":"uint256"},{"name":"maxDeposit","type":"uint256","internalType":"uint256"},{"name":"maxPoolSize","type":"uint256","internalType":"uint256"},{"name":"acceptingDeposits","type":"bool","internalType":"bool"},{"name":"lastYieldDistribution","type":"uint256","internalType":"uint256"}]}],"stateMutability":"view"},{"type":"function","name":"getRoleAdmin","inputs":[{"name":"role","type":"bytes32","internalType":"bytes32"}],"outputs":[{"name":"","type":"bytes32","internalType":"bytes32"}],"stateMutability":"view"},{"type":"function","name":"getTotalValueLocked","inputs":[],"outputs":[{"name":"","type":"uint256","internalType":"uint256"}],"stateMutability":"view"},{"type":"function","name":"getUserPosition","inputs":[{"name":"user","type":"address","internalType":"address"},{"name":"tier","type":"uint8","internalType":"enum LiquidityPool.RiskTier"}],"outputs":[{"name":"","type":"tuple","internalType":"struct LiquidityPool.UserPosition","components":[{"name":"shares","type":"uint256","internalType":"uint256"},{"name":"depositedValue","type":"uint256","internalType":"uint256"},{"name":"lastDepositAt","type":"uint256","internalType":"uint256"},{"name":"pendingYield","type":"uint256","internalType":"uint256"},{"name":"totalYieldClaimed","type":"uint256","internalType":"uint256"}]}],"stateMutability":"view"},{"type":"function","name":"getUtilizationRate","inputs":[{"name":"tier","type":"uint8","internalType":"enum LiquidityPool.RiskTier"}],"outputs":[{"name":"","type":"uint256","internalType":"uint256"}],"stateMutability":"view"},{"type":"function","name":"grantRole","inputs":[{"name":"role","type":"bytes32","internalType":"bytes32"},{"name":"account","type":"address","internalType":"address"}],"outputs":[],"stateMutability":"nonpayable"},{"type":"function","name":"hasRole","inputs":[{"name":"role","type":"bytes32","internalType":"bytes32"},{"name":"account","type":"address","internalType":"address"}],"outputs":[{"name":"","type":"bool","internalType":"bool"}],"stateMutability":"view"},{"type":"function","name":"initializePool","inputs":[{"name":"tier","type":"uint8","internalType":"enum LiquidityPool.RiskTier"},{"name":"targetAPY","type":"uint256","internalType":"uint256"},{"name":"minDeposit","type":"uint256","internalType":"uint256"},{"name":"maxDeposit","type":"uint256","internalType":"uint256"},{"name":"maxPoolSize","type":"uint256","internalType":"uint256"}],"outputs":[],"stateMutability":"nonpayable"},{"type":"function","name":"pauseDeposits","inputs":[{"name":"tier","type":"uint8","internalType":"enum LiquidityPool.RiskTier"}],"outputs":[],"stateMutability":"nonpayable"},{"type":"function","name":"protocolFeeBps","inputs":[],"outputs":[{"name":"","type":"uint256","internalType":"uint256"}],"stateMutability":"view"},{"type":"function","name":"recordDefault","inputs":[{"name":"deploymentId","type":"uint256","internalType":"uint256"},{"name":"recoveredAmount","type":"uint256","internalType":"uint256"}],"outputs":[],"stateMutability":"nonpayable"},{"type":"function","name":"recordPartialReturn","inputs":[{"name":"deploymentId","type":"uint256","internalType":"uint256"},{"name":"partialAmount","type":"uint256","internalType":"uint256"}],"outputs":[],"stateMutability":"nonpayable"},{"type":"function","name":"recordReturn","inputs":[{"name":"deploymentId","type":"uint256","internalType":"uint256"},{"name":"returnedAmount","type":"uint256","internalType":"uint256"}],"outputs":[],"stateMutability":"nonpayable"},{"type":"function","name":"renounceRole","inputs":[{"name":"role","type":"bytes32","internalType":"bytes32"},{"name":"callerConfirmation","type":"address","internalType":"address"}],"outputs":[],"stateMutability":"nonpayable"},{"type":"function","name":"resumeDeposits","inputs":[{"name":"tier","type":"uint8","internalType":"enum LiquidityPool.RiskTier"}],"outputs":[],"stateMutability":"nonpayable"},{"type":"function","name":"revokeRole","inputs":[{"name":"role","type":"bytes32","internalType":"bytes32"},{"name":"account","type":"address","internalType":"address"}],"outputs":[],"stateMutability":"nonpayable"},{"type":"function","name":"setProtocolFee","inputs":[{"name":"feeBps","type":"uint256","internalType":"uint256"}],"outputs":[],"stateMutability":"nonpayable"},{"type":"function","name":"sharesToAmount","inputs":[{"name":"tier","type":"uint8","internalType":"enum LiquidityPool.RiskTier"},{"name":"shares","type":"uint256","internalType":"uint256"}],"outputs":[{"name":"","type":"uint256","internalType":"uint256"}],"stateMutability":"view"},{"type":"function","name":"stablecoin","inputs":[],"outputs":[{"name":"","type":"address","internalType":"contract IERC20"}],"stateMutability":"view"},{"type":"function","name":"supportsInterface","inputs":[{"name":"interfaceId","type":"bytes4","internalType":"bytes4"}],"outputs":[{"name":"","type":"bool","internalType":"bool"}],"stateMutability":"view"},{"type":"function","name":"updatePoolConfig","inputs":[{"name":"tier","type":"uint8","internalType":"enum LiquidityPool.RiskTier"},{"name":"targetAPY","type":"uint256","internalType":"uint256"},{"name":"minDeposit","type":"uint256","internalType":"uint256"},{"name":"maxDeposit","type":"uint256","internalType":"uint256"},{"name":"maxPoolSize","type":"uint256","internalType":"uint256"}],"outputs":[],"stateMutability":"nonpayable"},{"type":"function","name":"withdraw","inputs":[{"name":"tier","type":"uint8","internalType":"enum LiquidityPool.RiskTier"},{"name":"shares","type":"uint256","internalType":"uint256"}],"outputs":[{"name":"amount","type":"uint256","internalType":"uint256"}],"stateMutability":"nonpayable"},{"type":"function","name":"withdrawProtocolFees","inputs":[{"name":"to","type":"address","internalType":"address"}],"outputs":[],"stateMutability":"nonpayable"},{"type":"event","name":"DeploymentDefaulted","inputs":[{"name":"deploymentId","type":"uint256","indexed":true,"internalType":"uint256"},{"name":"lossAmount","type":"uint256","indexed":false,"internalType":"uint256"},{"name":"recoveredAmount","type":"uint256","indexed":false,"internalType":"uint256"}],"anonymous":false},{"type":"event","name":"Deposited","inputs":[{"name":"user","type":"address","indexed":true,"internalType":"address"},{"name":"tier","type":"uint8","indexed":true,"internalType":"enum LiquidityPool.RiskTier"},{"name":"amount","type":"uint256","indexed":false,"internalType":"uint256"},{"name":"shares","type":"uint256","indexed":false,"internalType":"uint256"}],"anonymous":false},{"type":"event","name":"DepositsEnabled","inputs":[{"name":"tier","type":"uint8","indexed":true,"internalType":"enum LiquidityPool.RiskTier"}],"anonymous":false},{"type":"event","name":"DepositsPaused","inputs":[{"name":"tier","type":"uint8","indexed":true,"internalType":"enum LiquidityPool.RiskTier"}],"anonymous":false},{"type":"event","name":"LiquidityDeployed","inputs":[{"name":"deploymentId","type":"uint256","indexed":true,"internalType":"uint256"},{"name":"tier","type":"uint8","indexed":true,"internalType":"enum LiquidityPool.RiskTier"},{"name":"invoiceId","type":"uint256","indexed":false,"internalType":"uint256"},{"name":"amount","type":"uint256","indexed":false,"internalType":"uint256"}],"anonymous":false},{"type":"event","name":"LiquidityReturned","inputs":[{"name":"deploymentId","type":"uint256","indexed":true,"internalType":"uint256"},{"name":"returnedAmount","type":"uint256","indexed":false,"internalType":"uint256"},{"name":"yieldEarned","type":"uint256","indexed":false,"internalType":"uint256"}],"anonymous":false},{"type":"event","name":"PoolConfigUpdated","inputs":[{"name":"tier","type":"uint8","indexed":true,"internalType":"enum LiquidityPool.RiskTier"}],"anonymous":false},{"type":"event","name":"PoolInitialized","inputs":[{"name":"tier","type":"uint8","indexed":true,"internalType":"enum LiquidityPool.RiskTier"},{"name":"targetAPY","type":"uint256","indexed":false,"internalType":"uint256"},{"name":"maxPoolSize","type":"uint256","indexed":false,"internalType":"uint256"}],"anonymous":false},{"type":"event","name":"ProtocolFeeCollected","inputs":[{"name":"amount","type":"uint256","indexed":false,"internalType":"uint256"}],"anonymous":false},{"type":"event","name":"RoleAdminChanged","inputs":[{"name":"role","type":"bytes32","indexed":true,"internalType":"bytes32"},{"name":"previousAdminRole","type":"bytes32","indexed":true,"internalType":"bytes32"},{"name":"newAdminRole","type":"bytes32","indexed":true,"internalType":"bytes32"}],"anonymous":false},{"type":"event","name":"RoleGranted","inputs":[{"name":"role","type":"bytes32","indexed":true,"internalType":"bytes32"},{"name":"account","type":"address","indexed":true,"internalType":"address"},{"name":"sender","type":"address","indexed":true,"internalType":"address"}],"anonymous":false},{"type":"event","name":"RoleRevoked","inputs":[{"name":"role","type":"bytes32","indexed":true,"internalType":"bytes32"},{"name":"account","type":"address","indexed":true,"internalType":"address"},{"name":"sender","type":"address","indexed":true,"internalType":"address"}],"anonymous":false},{"type":"event","name":"Withdrawn","inputs":[{"name":"user","type":"address","indexed":true,"internalType":"address"},{"name":"tier","type":"uint8","indexed":true,"internalType":"enum LiquidityPool.RiskTier"},{"name":"shares","type":"uint256","indexed":false,"internalType":"uint256"},{"name":"amount","type":"uint256","indexed":false,"internalType":"uint256"}],"anonymous":false},{"type":"event","name":"YieldClaimed","inputs":[{"name":"user","type":"address","indexed":true,"internalType":"address"},{"name":"tier","type":"uint8","indexed":true,"internalType":"enum LiquidityPool.RiskTier"},{"name":"amount","type":"uint256","indexed":false,"internalType":"uint256"}],"anonymous":false},{"type":"event","name":"YieldCompounded","inputs":[{"name":"user","type":"address","indexed":true,"internalType":"address"},{"name":"tier","type":"uint8","indexed":true,"internalType":"enum LiquidityPool.RiskTier"},{"name":"yieldAmount","type":"uint256","indexed":false,"internalType":"uint256"},{"name":"newShares","type":"uint256","indexed":false,"internalType":"uint256"}],"anonymous":false},{"type":"error","name":"AccessControlBadConfirmation","inputs":[]},{"type":"error","name":"AccessControlUnauthorizedAccount","inputs":[{"name":"account","type":"address","internalType":"address"},{"name":"neededRole","type":"bytes32","internalType":"bytes32"}]},{"type":"error","name":"AddressEmptyCode","inputs":[{"name":"target","type":"address","internalType":"address"}]},{"type":"error","name":"AddressInsufficientBalance","inputs":[{"name":"account","type":"address","internalType":"address"}]},{"type":"error","name":"DeploymentNotActive","inputs":[]},{"type":"error","name":"DeploymentNotFound","inputs":[]},{"type":"error","name":"ExceedsMaxDeposit","inputs":[]},{"type":"error","name":"ExceedsPoolCapacity","inputs":[]},{"type":"error","name":"FailedInnerCall","inputs":[]},{"type":"error","name":"InsufficientDeposit","inputs":[]},{"type":"error","name":"InsufficientLiquidity","inputs":[]},{"type":"error","name":"InsufficientShares","inputs":[]},{"type":"error","name":"InvalidAmount","inputs":[]},{"type":"error","name":"NoPendingYield","inputs":[]},{"type":"error","name":"PoolAlreadyInitialized","inputs":[]},{"type":"error","name":"PoolNotAcceptingDeposits","inputs":[]},{"type":"error","name":"PoolNotInitialized","inputs":[]},{"type":"error","name":"ReentrancyGuardReentrantCall","inputs":[]},{"type":"error","name":"SafeERC20FailedOperation","inputs":[{"name":"token","type":"address","internalType":"address"}]},{"type":"error","name":"WithdrawalLocked","inputs":[]},{"type":"error","name":"ZeroShares","inputs":[]}],"bytecode":{"object":"0x60a034620000fa57601f6200268b38819003918201601f19168301916001600160401b03831184841017620000fe578084926040948552833981010312620000fa576200005a6020620000528362000112565b920162000112565b60018080556007556101f46008556001600160a01b03918216918215908115620000ee575b50620000dc576200009f91608052620000988162000127565b50620001a5565b5060405161242590816200024682396080518181816103240152818161045f01528181610d0701528181610ff3015281816113af01526116f50152f35b60405163162908e360e11b8152600490fd5b90508116155f6200007f565b5f80fd5b634e487b7160e01b5f52604160045260245ffd5b51906001600160a01b0382168203620000fa57565b6001600160a01b03165f8181527fad3228b676f7d3cd4284a5443f17f1962b36e491b30a40b2405849e597ba5fb5602052604081205490919060ff16620001a157818052816020526040822081835260205260408220600160ff1982541617905533915f805160206200266b8339815191528180a4600190565b5090565b6001600160a01b03165f8181527f729ef9451dd492832bd2a98139702ced95dfa0cec7e99526dbbcb957abcbc47660205260408120549091907f6077685936c8169d09204a1d97db12e41713588c38e1d29a61867d3dcee98aff9060ff166200024057808352826020526040832082845260205260408320600160ff198254161790555f805160206200266b833981519152339380a4600190565b50509056fe6080806040526004361015610012575f80fd5b5f3560e01c90816301ffc9a71461198857508063066c94c31461191d5780631c8aca2714611895578063248a9ca31461186957806325da1698146117195780632d80caa5146116b25780632ed317c6146115585780632f2ff15d1461151c57806330e533c1146114af57806331d1c1b31461149257806335659fb81461147557806336568abe1461142e5780633f489914146112cd5780634d02a3f7146112a557806356d735681461126b578063578a2b32146110b75780635ec765c11461104e5780636724920d14610f6b57806370712c0914610f4357806374c3dd1114610d79578063787dce3d14610d4f57806386d8c9f814610c985780638d658b3114610bed57806391d1485414610ba55780639ab2928314610b395780639d7cdc3814610b09578063a217fddf14610aef578063b1bfda1a146109bb578063b26025aa14610938578063c5be5c2c146108c3578063c9936f6d146107d4578063ccd7938214610602578063ccdcb9ec146105cd578063d337bf5114610519578063d4d4f4ab146104e5578063d547741f146104a7578063de8178c81461048e578063e9cbd8221461044a578063ecd0026114610410578063f4d4c9d7146102135763f6b1f6e7146101df575f80fd5b3461020f57602036600319011261020f57600435600381101561020f57610207602091612092565b604051908152f35b5f80fd5b3461020f5761022136611a8f565b9061022a611f5c565b61023381611cfa565b90600b82015480156103fe5760ff600c84015416156103ec57600983015484106103da57600a83015484116103c85760018301928354916102748684611d56565b116103b75761028385846120d2565b9384156103a55761029686600394611d56565b9055600281016102a7858254611d56565b9055016102b5848254611d56565b9055335f5260036020526102cc8160405f20611d28565b6102d7838254611d56565b8155600181016102e8858254611d56565b90556002429101556103486040516323b872dd60e01b60208201523360248201523060448201528460648201526064815261032281611dc5565b7f0000000000000000000000000000000000000000000000000000000000000000611e1f565b60038110156103915760209260405190815282848201527f2ec61e8cb9905b0de268566bd6b90da9952dd7672a5bf79ac53ef7f2064a09a660403392a360018055604051908152f35b634e487b7160e01b5f52602160045260245ffd5b604051639811e0c760e01b8152600490fd5b604051629e085160e21b8152600490fd5b60405163e4bac01b60e01b8152600490fd5b60405163070f6eed60e11b8152600490fd5b6040516377d4347b60e01b8152600490fd5b60405163486aa30760e01b8152600490fd5b3461020f575f36600319011261020f5760206040517ffc425f2263d0df187444b70e47283d622c70181c5baebb1306a01edba1ce184c8152f35b3461020f575f36600319011261020f576040517f00000000000000000000000000000000000000000000000000000000000000006001600160a01b03168152602090f35b3461020f5760206102076104a136611a8f565b906120d2565b3461020f57604036600319011261020f576104e36004356104c6611a1c565b90805f525f6020526104de600160405f200154611bea565b611c87565b005b3461020f57602036600319011261020f57600435600381101561020f57600361050f602092611cfa565b0154604051908152f35b3461020f5760a061056a61052c36611aae565b905f608060405161053c81611dc5565b8281528260208201528260408201528260608201520152600180851b03165f52600360205260405f20611d28565b60405161057681611dc5565b81549182825260018101546020830190815260028201549060408401918252608060046003850154946060870195865201549401938452604051948552516020850152516040840152516060830152516080820152f35b3461020f576020670de0b6b3a76400006105f96105f36105ec36611a8f565b91906122c3565b90611f8c565b04604051908152f35b3461020f57602036600319011261020f57600435600381101561020f5761068d6101c0915f6101a060405161063681611da8565b8281528260208201528260408201528260608201528260808201528260a08201528260c08201528260e082015282610100820152826101208201528261014082015282610160820152826101808201520152611cfa565b600d6040519161069c83611da8565b6106aa60ff8254168461201d565b60018101546020840152600281015460408401526003810154606084015260048101546080840152600581015460a0840152600681015460c0840152600781015460e084015260088101546101008401526009810154610120840152600a810154610140840152600b81015461016084015260ff600c82015416151561018084015201546101a08201526101a060405191610746838251611a32565b6020810151602084015260408101516040840152606081015160608401526080810151608084015260a081015160a084015260c081015160c084015260e081015160e0840152610100810151610100840152610120810151610120840152610140810151610140840152610160810151610160840152610180810151151561018084015201516101a0820152f35b3461020f57602036600319011261020f57600435600381101561020f576107f9611f5c565b335f52600360205261080e8160405f20611d28565b906003820190815480156108b15761082582611cfa565b93600b850154156103fe5761083a82846120d2565b9384156103a55760015f92600260209801610856888254611d56565b9055610863878254611d56565b815501610871848254611d56565b90555560405190815282848201527f6d08d50b1617342e8aef1c1e60f1e912c64d28afde6c42cb229748fc50a24eb260403392a360018055604051908152f35b60405163a852c15d60e01b8152600490fd5b3461020f5760208060031936011261020f576004355f526006815260405f209060405190818184549182815201935f52815f20915f905b8282106109215761091d8561091181890382611dfd565b60405191829182611a55565b0390f35b8354865294850194600193840193909101906108fa565b3461020f575f36600319011261020f57600260209081527fac33ff75c19e70fe83507db0d683fd3465c996598dc972688b7ace676c89077c5460015f527fe90b7bceb6e7df5418fb78d8ee546e97c83a08bbccc01a0644d599ccd2a7c2e154610207916109a59190611d56565b60025f5260028352600160405f20015490611d56565b3461020f576109c936611a3f565b6109d1611b8f565b815f52600460205260405f20805415610add57600981019182549060ff8216600481101561039157610acb57610ab58560ff8560077f58425df2a65a5c9aff855ad5ffcaa9085ee2706837e8f38b39f3980c9b2f69bc986004600260409a0193610a3d86865416611cfa565b600382015490938a821115610ac2576003610a588c84611f7f565b9c5b8c6005860155426008860155891916179055610a7a838501918254611f7f565b90550154610a8d60058301918254611f7f565b905560038101610a9e888254611d56565b905501610aac878254611d56565b9055541661233d565b82519182526020820152a2005b60035f9c610a5a565b604051634016084560e01b8152600490fd5b604051630a92fe1f60e31b8152600490fd5b3461020f575f36600319011261020f5760206040515f8152f35b3461020f576020600361050f610b1e36611aae565b6001600160a01b039091165f90815283855260409020611d28565b3461020f57602036600319011261020f57600435600381101561020f57610b5e611add565b610b6781611cfa565b600b810154156103fe57600c01805460ff191660011790557f9c64b70045c8833f009f9bbbce1b0087e83ad1a8da32a7f5a125a4e654c74bdb5f80a2005b3461020f57604036600319011261020f57610bbe611a1c565b6004355f525f60205260405f209060018060a01b03165f52602052602060ff60405f2054166040519015158152f35b3461020f57610bfb366119db565b91610c04611add565b610c0d85611cfa565b91600b8301908154610c86578492610c258886611d3e565b8660088601556009850155600a84015555600c8101600160ff19825416179055600d429101556003831015610391577f739c2c62842dd09bb576ce3a689b08e4edc4fd7457b8fa8c5819511b0ff315bc9160409182519182526020820152a2005b604051637983c05160e01b8152600490fd5b3461020f57606036600319011261020f57600435600381101561020f57610cbd611a1c565b9060443590610cca611b56565b6001600160a01b03831615610d3d578115610d3d57610cea600391611cfa565b0191825492828410610d2b57610d03836104e395611f7f565b90557f0000000000000000000000000000000000000000000000000000000000000000611fbd565b60405163bb55fd2760e01b8152600490fd5b60405163162908e360e11b8152600490fd5b3461020f57602036600319011261020f57600435610d6b611b56565b6127108111610d3d57600855005b3461020f57610d87366119db565b9290610d94949294611b8f565b610d9d83611cfa565b93600b850154156103fe5782600386015410610d2b578215610d3d5760075494610dc68661200f565b60075560405191610dd683611d77565b86835260208301908882526040840191610df0888461201d565b606085019287845260808601928784525f60a08801524260c088015260e08701525f6101008701525f610120870152895f52600460205260405f209186518355516001830155519160038310156103915761012093610e5460099460028501611d3e565b51600383015551600482015560a0850151600582015560c0850151600682015560e0850151600782015561010085015160088201550192015190600482101561039157610ed79260059260ff80198354169116179055610eb8856003830154611f7f565b600382015560048101610ecc868254611d56565b905501918254611d56565b9055610eeb83610ee684611d11565b612052565b835f526006602052610f008360405f20612052565b6003821015610391577fd32ebde7d21871cb75e56e0852209227a6369f1473b546a07f62e026acf9422460406020958593825191825287820152a3604051908152f35b3461020f57602036600319011261020f57600435600381101561020f576102076020916120f9565b3461020f57602036600319011261020f57600435600381101561020f57610f90611f5c565b335f526003602052610fa58160405f20611d28565b90600382019081549182156108b1576003610fbf83611cfa565b019083825410610d2b576020945f6004925501610fdd848254611d56565b9055610fea838254611f7f565b905561101782337f0000000000000000000000000000000000000000000000000000000000000000611fbd565b6040518281527fdc1f6f7d6d241d30ffc8859021717b5fef1057cf41711b55691dbce8a83eacd1843392a360018055604051908152f35b3461020f57602036600319011261020f57600435600381101561020f57611073611add565b61107c81611cfa565b600b810154156103fe57600c01805460ff191690557fb5e089cec6e2df3d403dfe6aa6f22505f92e0984502f028ac3097c137097fd255f80a2005b3461020f576110c536611a3f565b906110ce611b8f565b805f52600460205260405f20805415610add57600981019283549060ff8216600481101561039157610acb57826111fb8560ff60409560027f7c5d5b8bdb6becbe56a010433580ddac5e4036c2f50743d6cde7bc39cb6e559198019061113683835416611cfa565b906004600388015497888a115f1461126457611152898b611f7f565b985b6127106111636008548c611f8c565b049e8b82111561125b5760026111798d84611f7f565b955b8d600586015542600886015589191617905561119b838601918254611f7f565b905501546111ae60058401918254611f7f565b90556111ba8c89611f7f565b6111c960038401918254611d56565b90556111da60078301918254611d56565b90558a861161123a575b506111f18a600954611d56565b600955541661233d565b82519182526020820152a28061120d57005b60207f414d7d8eae12f648156e75499fc0a5a10aa84f2745c6f791b0453cb17f1e17fa91604051908152a1005b61125360066112498d89611f7f565b9201918254611d56565b90558a6111e4565b60025f9561117b565b5f98611154565b3461020f575f36600319011261020f5760206040517f6077685936c8169d09204a1d97db12e41713588c38e1d29a61867d3dcee98aff8152f35b3461020f57602036600319011261020f57600435600381101561020f576102076020916122c3565b3461020f576112db36611a8f565b906112e4611f5c565b6112ed81611cfa565b90600b820154156103fe57335f52600360205261130d8160405f20611d28565b8381541061141c57670de0b6b3a764000061133061132a846122c3565b86611f8c565b04928315610d3d576003810190815490858210610d2b5761137391600182600289940161135e8b8254611f7f565b90550161136c838254611f7f565b9055611f7f565b90556113a66001611385868454611f7f565b9283815501916113a08661139a838654611f8c565b92611d56565b90611f9f565b90556113d382337f0000000000000000000000000000000000000000000000000000000000000000611fbd565b60038110156103915760209260405190815282848201527fa626a461841cf0222d91b75e126eaf6fd0def6f6f8f2e4e9cef6e0468f2b625d60403392a360018055604051908152f35b604051633999656760e01b8152600490fd5b3461020f57604036600319011261020f57611447611a1c565b336001600160a01b03821603611463576104e390600435611c87565b60405163334bd91960e11b8152600490fd5b3461020f575f36600319011261020f576020600854604051908152f35b3461020f575f36600319011261020f576020600954604051908152f35b3461020f5760208060031936011261020f57600435600381101561020f576114d690611d11565b9060405190818184549182815201935f52815f20915f905b8282106115055761091d8561091181890382611dfd565b8354865294850194600193840193909101906114ee565b3461020f57604036600319011261020f576104e360043561153b611a1c565b90805f525f602052611553600160405f200154611bea565b611c0b565b3461020f5761156636611a3f565b9061156f611b8f565b805f52600460205260405f2091825415610add576009830192835460ff8116600481101561039157610acb57839060028301906115af60ff835416611cfa565b600385015494858711156116ab576115c78688611f7f565b955b6008546115d69088611f8c565b6127109004996115e68b89611f7f565b9489600585015542600885015560ff19166001179055600483019081549061160d91611f7f565b905560040154600582019081549061162491611f7f565b90556116308887611f7f565b600382019081549061164191611d56565b90556006019081549061165391611d56565b9055856009549061166391611d56565b6009555460ff16906116749161233d565b604051918252602082015260407f7c5d5b8bdb6becbe56a010433580ddac5e4036c2f50743d6cde7bc39cb6e559191a28061120d57005b5f956115c9565b3461020f57602036600319011261020f576116cb611a06565b6116d3611b56565b6001600160a01b03811615610d3d576009548015610d3d576104e3915f6009557f0000000000000000000000000000000000000000000000000000000000000000611fbd565b3461020f57602036600319011261020f5760405161173681611d77565b5f81525f60208201525f60408201525f60608201525f60808201525f60a08201525f60c08201525f60e08201526101005f818301525f610120809301526004355f52600460205260405f206040519161178e83611d77565b815483526001820154916020840192835260ff6002820154166117b560408601918261201d565b60038201546060860190815260048301546080870190815260058401549060a0880191825260068501549260c0890193845260078601549460e08a0195865260ff60096008890154988a8d01998a52015416908b8b0199600483101561039157611833928b526040519b518c525160208c01525160408b0190611a32565b5160608901525160808801525160a08701525160c08601525160e085015251908301525160048110156103915761014092820152f35b3461020f57602036600319011261020f576004355f525f6020526020600160405f200154604051908152f35b3461020f5760608060031936011261020f576118af611a06565b60243590600382101561020f576118c991604435916121a7565b91906040519283911515825260206040818401528151918260408501525f5b8381106119075750505f83830185015250601f01601f19168101030190f35b81810183015187820187015286945082016118e8565b3461020f5761192b366119db565b92611934611add565b61193d85611cfa565b600b8101938454156103fe57600a92600883015560098201550155556003811015610391577ff2f5da1d53800452df9bb3cbfa088a696577885dc02a8834b797307dfefd94285f80a2005b3461020f57602036600319011261020f576004359063ffffffff60e01b821680920361020f57602091637965db0b60e01b81149081156119ca575b5015158152f35b6301ffc9a760e01b149050836119c3565b60a090600319011261020f57600435600381101561020f579060243590604435906064359060843590565b600435906001600160a01b038216820361020f57565b602435906001600160a01b038216820361020f57565b9060038210156103915752565b604090600319011261020f576004359060243590565b602090816040818301928281528551809452019301915f5b828110611a7b575050505090565b835185529381019392810192600101611a6d565b604090600319011261020f57600435600381101561020f579060243590565b604090600319011261020f576004356001600160a01b038116810361020f5790602435600381101561020f5790565b335f9081527f729ef9451dd492832bd2a98139702ced95dfa0cec7e99526dbbcb957abcbc47660205260409020547f6077685936c8169d09204a1d97db12e41713588c38e1d29a61867d3dcee98aff9060ff1615611b385750565b6044906040519063e2517d3f60e01b82523360048301526024820152fd5b335f9081527fad3228b676f7d3cd4284a5443f17f1962b36e491b30a40b2405849e597ba5fb5602052604081205460ff1615611b385750565b335f9081527f740c5e3e456bed56f053f960110118ba9b95a1f5359a82283516fb2e81b6e37e60205260409020547ffc425f2263d0df187444b70e47283d622c70181c5baebb1306a01edba1ce184c9060ff1615611b385750565b805f525f60205260405f20335f5260205260ff60405f20541615611b385750565b905f9180835282602052604083209160018060a01b03169182845260205260ff604084205416155f14611c8257808352826020526040832082845260205260408320600160ff198254161790557f2f8788117e7eff1d82e926ec794901d17c78024a50270940304540a733656f0d339380a4600190565b505090565b905f9180835282602052604083209160018060a01b03169182845260205260ff6040842054165f14611c825780835282602052604083208284526020526040832060ff1981541690557ff6391f5c32d9c69d2a47ea670b442974b53935d1edc7fd64eb21e047a839171b339380a4600190565b6003811015610391575f52600260205260405f2090565b6003811015610391575f52600560205260405f2090565b906003811015610391575f5260205260405f2090565b9060038110156103915760ff80198354169116179055565b91908201809211611d6357565b634e487b7160e01b5f52601160045260245ffd5b610140810190811067ffffffffffffffff821117611d9457604052565b634e487b7160e01b5f52604160045260245ffd5b6101c0810190811067ffffffffffffffff821117611d9457604052565b60a0810190811067ffffffffffffffff821117611d9457604052565b6040810190811067ffffffffffffffff821117611d9457604052565b90601f8019910116810190811067ffffffffffffffff821117611d9457604052565b60018060a01b0316905f80826020829451910182865af13d15611eed573d9067ffffffffffffffff8211611ed95790611e7a9160405191611e6a6020601f19601f8401160184611dfd565b82523d84602084013e5b84611ef9565b908151918215159283611eaa575b505050611e925750565b60249060405190635274afe760e01b82526004820152fd5b819293509060209181010312611ed5576020015190811591821503611ed257505f8080611e88565b80fd5b5080fd5b634e487b7160e01b83526041600452602483fd5b611e7a90606090611e74565b90611f205750805115611f0e57805190602001fd5b604051630a12f52160e11b8152600490fd5b81511580611f53575b611f31575090565b604051639996b31560e01b81526001600160a01b039091166004820152602490fd5b50803b15611f29565b600260015414611f6d576002600155565b604051633ee5aeb560e01b8152600490fd5b91908203918211611d6357565b81810292918115918404141715611d6357565b8115611fa9570490565b634e487b7160e01b5f52601260045260245ffd5b60405163a9059cbb60e01b60208201526001600160a01b039092166024830152604480830193909352918152608081019167ffffffffffffffff831182841017611d945761200d92604052611e1f565b565b5f198114611d635760010190565b60038210156103915752565b805482101561203e575f5260205f2001905f90565b634e487b7160e01b5f52603260045260245ffd5b9081549168010000000000000000831015611d94578261207a91600161200d95018155612029565b90919082549060031b91821b915f19901b1916179055565b61209b90611cfa565b60018101549081156120cc57600401549061271091828102928184041490151715611d63576120c991611f9f565b90565b50505f90565b90670de0b6b3a764000090818102918183041490151715611d63576113a06120c9926122c3565b61210290611cfa565b600181015480158015612199575b6120cc57612122600d83015442611f7f565b91821561218a57600760068201549101545f918181115f14612191576121489250611f7f565b905b811561218a576301e133808202916301e1337f1981840401611d635764496cebb80002918083046127101490151715611d63576120c9926113a091611f8c565b5050505f90565b50509061214a565b50600d820154421115612110565b92916121b282611cfa565b905f9460018060a01b0316855260036020526040926121d381858820611d28565b600b840154156122915782905410612261576121fd6003926105f3670de0b6b3a7640000936122c3565b049101541061222a57600192815191602083019083821067ffffffffffffffff831117611ed95752815290565b5161223481611de1565b601e81527f496e73756666696369656e74206c697175696469747920696e20706f6f6c0000602082015290565b5050505161226e81611de1565b6013815272496e73756666696369656e742073686172657360681b602082015290565b505050505161229f81611de1565b6014815273141bdbdb081b9bdd081a5b9a5d1a585b1a5e995960621b602082015290565b6122cc90611cfa565b600281015490811561232f5760076122ed6001830154600684015490611d56565b910154808211156123265761230191611f7f565b905b670de0b6b3a764000091828102928184041490151715611d63576120c991611f9f565b50505f90612303565b5050670de0b6b3a764000090565b61234690611d11565b908154915f5b83811061235a575b50505050565b826123658284612029565b919054600392831b1c14612382575061237d9061200f565b61234c565b939192505f199182810191908211611d635761207a6123a46123b19386612029565b905490871b1c9185612029565b815480156123db578101926123c68484612029565b81939154921b1b19169055555f808080612354565b634e487b7160e01b5f52603160045260245ffdfea2646970667358221220d3ee63246eba2eddbea55aadd62937cca23975a7897612b331fad80c9e428ec864736f6c634300081400332f8788117e7eff1d82e926ec794901d17c78024a50270940304540a733656f0d","linkReferences":{}},"methodIdentifiers":{"DEFAULT_ADMIN_ROLE()":"a217fddf","DEPLOYER_ROLE()":"ecd00261","POOL_MANAGER_ROLE()":"56d73568","accumulatedProtocolFees()":"31d1c1b3","amountToShares(uint8,uint256)":"de8178c8","canWithdraw(address,uint8,uint256)":"1c8aca27","claimYield(uint8)":"6724920d","compoundYield(uint8)":"c9936f6d","deployLiquidity(uint8,uint256,uint256,uint256,uint256)":"74c3dd11","deposit(uint8,uint256)":"f4d4c9d7","emergencyWithdraw(uint8,address,uint256)":"86d8c9f8","getActiveDeployments(uint8)":"30e533c1","getAvailableLiquidity(uint8)":"d4d4f4ab","getDeployment(uint256)":"25da1698","getDeploymentsForInvoice(uint256)":"c5be5c2c","getEffectiveAPY(uint8)":"70712c09","getExchangeRate(uint8)":"4d02a3f7","getPendingYield(address,uint8)":"9d7cdc38","getPool(uint8)":"ccd79382","getRoleAdmin(bytes32)":"248a9ca3","getTotalValueLocked()":"b26025aa","getUserPosition(address,uint8)":"d337bf51","getUtilizationRate(uint8)":"f6b1f6e7","grantRole(bytes32,address)":"2f2ff15d","hasRole(bytes32,address)":"91d14854","initializePool(uint8,uint256,uint256,uint256,uint256)":"8d658b31","pauseDeposits(uint8)":"5ec765c1","protocolFeeBps()":"35659fb8","recordDefault(uint256,uint256)":"b1bfda1a","recordPartialReturn(uint256,uint256)":"578a2b32","recordReturn(uint256,uint256)":"2ed317c6","renounceRole(bytes32,address)":"36568abe","resumeDeposits(uint8)":"9ab29283","revokeRole(bytes32,address)":"d547741f","setProtocolFee(uint256)":"787dce3d","sharesToAmount(uint8,uint256)":"ccdcb9ec","stablecoin()":"e9cbd822","supportsInterface(bytes4)":"01ffc9a7","updatePoolConfig(uint8,uint256,uint256,uint256,uint256)":"066c94c3","withdraw(uint8,uint256)":"3f489914","withdrawProtocolFees(address)":"2d80caa5"},"id":45}